:10000000E5C0000004C1000002C1000000C1000002
:10001000FEC00000FCC00000FAC00000F8C00000F4
:10002000F6C00000F4C00000F2C00000F0C0000004
:1000300062C40000ECC00000EAC00000E8C000009C
:10004000E6C00000E4C00000E2C00000E0C0000024
:10005000DEC00000DCC00000DAC00000D8C0000034
:10006000D6C000000C9447250C949925D0C0000000
:10007000CEC00000CCC00000CAC00000C8C0000054
:10008000C6C00000C4C00000C2C00000C0C0000064
:100090000C94DD250C942F26BAC000000C947B2A0A
:1000A000B6C00000B4C00000B2C00000B0C0000084
:1000B000AEC00000ACC00000AAC00000A8C0000094
:1000C000A6C00000A4C00000A2C000000C947326CB
:1000D0000C94C5269CC000000C9409270C945B2747
:1000E00096C000002519251925195C19641979197C
:1000F000251925195C1964199D2A0D2B0D2B0D2B23
:100100000D2B0D2B0D2B0D2B9D2A0D2B0D2B0D2BA0
:100110000D2B0D2B0D2B0D2B9F2A0D2B0D2B0D2B8E
:100120000D2B0D2B0D2B0D2B0D2B0D2B0D2B0D2B0F
:100130000D2B0D2B0D2B0D2B9F2A0D2B0D2B0D2B6E
:100140000D2B0D2B0D2B0D2B0D2B0D2B0D2B0D2BEF
:100150000D2B0D2B0D2B0D2B092B0D2B0D2B0D2BE3
:100160000D2B0D2B0D2B0D2BD42A0D2B0D2B0D2B09
:100170000D2B0D2B0D2B0D2B0D2B0D2B0D2B0D2BBF
:100180000D2B0D2B0D2B0D2BC82A0D2B0D2B0D2BF5
:100190000D2B0D2B0D2B0D2BEC2A0E94750C809135
:1001A000DF16823008F0E1D20E94A219F6CFCF9379
:1001B000DF931F92CDB7DEB7CE0101960E94A21643
:1001C00049810E9497180E94EE18F6CF11241FBE95
:1001D000CFEFD1E2DEBFCDBF00E00CBF18E0A0E062
:1001E000B2E0E0E0F4E600E00BBF02C007900D9241
:1001F000A23DB107D9F729E1A2EDB8E001C01D92F7
:10020000A936B207E1F70E94E91D0C94FE31F8CE41
:1002100040E066E085E09ED49093501980934F199A
:100220000895CF92DF92EF92FF920F931F93CF9397
:10023000DF9300E010E0E12CF12CC12CD12CC0E0C8
:10024000D0E00DC00E94111AC80ED91E0E94111BC9
:10025000E80EF91E0E94421B080F191F2196CA3092
:10026000D10584F32196C601BE010E94F12C262FF0
:10027000372FC701BE010E94052D462FF72EC8015A
:10028000BE010E94F12CE9E4F9E12083318342832D
:10029000F38264837583FF924F933F932F937F93F1
:1002A0006F938FE692E09F938F9385EE98E19F93F3
:1002B0008F930E94232F85EE98E10E941C1D00E081
:1002C0002FEF3FEFA90169E479E180914F199091F7
:1002D000501963D48DB79EB70A960FB6F8949EBF97
:1002E0000FBE8DBFDF91CF911F910F91FF90EF90C7
:1002F000DF90CF9008952AE030E040E050E061E5E3
:1003000079E180914F199091501914D581E599E1C7
:100310000895EEEDF8E0A2EEB8E0B183A083138279
:100320001282EAE8F6E1F093DD08E093DC0813823C
:1003300012821182108288EA9DE013969C938E931C
:100340001297ED93FC939093D9088093D8089093DB
:10035000DB088093DA0880E090E89093D3088093DC
:10036000D2080895CF93DF93EC01AEEDB8E001C061
:10037000DF01ED91FC911197EC17FD07C8F3129680
:100380008D919C9113979D01280F391FC217D30798
:1003900049F42A813B81820F931F13969C938E937D
:1003A0001297ED018A819B819E01280F391FE21768
:1003B000F307C1F42091DC083091DD08E217F30760
:1003C00071F022813381820F931F9B838A83ED9189
:1003D000FC911197808191819983888305C039832D
:1003E000288302C0F983E883CA17DB0711F0CD9395
:1003F000DC93DF91CF910895EF92FF920F931F93BB
:10040000CF93DF938C010E94C00D8091DC08909106
:10041000DD08892B09F47DDF8091D2089091D30803
:1004200080239123892B09F076C00115110549F02D
:10043000C80104960817190718F000E010E001C081
:100440008C010115110509F469C08091DA089091B9
:10045000DB088017910708F464C0C091DE08D091D2
:10046000DF08EEEDF8E002C0FE01EC018A819B811D
:100470008017910720F4888199810097A9F78091CE
:10048000DC089091DD08C817D90709F44DC0E08059
:10049000F18084E0E80EF11C88819981918380834A
:1004A0002A813B81201B310B2930310548F0CE01D8
:1004B000800F911FFC01338322831B830A8352DF49
:1004C0002A813B818091DA089091DB08821B930B93
:1004D0009093DB088093DA084091D8085091D908AE
:1004E0008417950720F49093D9088093D8088091B9
:1004F000D2089091D308282B392B3B832A83198269
:1005000018828091D6089091D70801969093D708C9
:100510008093D6080BC0E12CF12C08C0E12CF12C03
:1005200005C0E12CF12C02C0E12CF12C0E94000F3F
:10053000E114F10411F40E94AE19C701DF91CF91CB
:100540001F910F91FF90EF9008950F931F93CF93FA
:10055000DF93009791F1EC0124974A815B81209110
:10056000D2083091D308BA0162237323672B29F193
:1005700068817981672B09F52095309524233523EF
:100580003B832A830E94C00D8A819B812091DA08D7
:100590003091DB08820F931F9093DB088093DA0879
:1005A000CE01E0DE8091D4089091D5080196909319
:1005B000D5088093D4080E94000FDF91CF911F913E
:1005C0000F9108958091DA089091DB080895FC015D
:1005D0000396928381834FEF5FEFBA014383548385
:1005E00065837683908787839287818710820895B9
:1005F000FC011386128608950F931F93CF93DF9308
:10060000EB01088119812A813B810F3F4FEF1407CD
:100610002407340721F4FC01A185B28511C0DC0157
:10062000139601C0DF011496ED91FC91159740815E
:10063000518162817381041715072607370790F7E8
:100640001496ED91FC911597FD83EC83D783C683B7
:10065000BF83AE831596DC93CE9314979B878A87CE
:10066000FC0120812F5F2083DF91CF911F910F919B
:100670000895CF93DF93FC01A285B385C481D58112
:10068000868197819F838E83C681D781848195815E
:100690009D838C8311968D919C911297E817F90791
:1006A00031F48681978112969C938E9311971386CD
:1006B00012868C9181508C938C91DF91CF9108950B
:1006C000A89590EC88E10FB6F894A8958093600007
:1006D0000FBE909360000895FC0160833197708392
:1006E0003197108231971082319720E8208331971B
:1006F000108231971082319710827797408331971B
:10070000508386970895DCDFA0914D17B0914E1766
:10071000CD91CDBFDD91DEBFFF91EF91DF91CF9104
:10072000BF91AF919F918F917F916F915F914F9109
:100730003F912F911F910F91FF90EF90DF90CF90FD
:10074000BF90AF909F908F907F906F905F904F90F1
:100750003F902F901F900F900CBE0F900BBE0F90EC
:100760000FBE0F90089581E008950F920FB6F89490
:100770000F920BB60F920CB60F921F9211242F926C
:100780003F924F925F926F927F928F929F92AF9221
:10079000BF92CF92DF92EF92FF920F931F932F930E
:1007A0003F934F935F936F937F938F939F93AF93F9
:1007B000BF93CF93DF93EF93FF93A0914D17B09129
:1007C0004E170DB60D920EB60D920E945C10A091C0
:1007D0004D17B0914E17CD91CDBFDD91DEBFFF918A
:1007E000EF91DF91CF91BF91AF919F918F917F91C9
:1007F0006F915F914F913F912F911F910F91FF90BA
:10080000EF90DF90CF90BF90AF909F908F907F90B0
:100810006F905F904F903F902F901F900F900CBE65
:100820000F900BBE0F900FBE0F9008950F920FB652
:10083000F8940F920BB60F920CB60F921F921124E0
:100840002F923F924F925F926F927F928F929F92E0
:10085000AF92BF92CF92DF92EF92FF920F931F93CE
:100860002F933F934F935F936F937F938F939F93B8
:10087000AF93BF93CF93DF93EF93FF93A0914D1767
:10088000B0914E170DB60D920EB60D9213BE0E948A
:10089000D40D81110E945C10A0914D17B0914E179C
:1008A000CD91CDBFDD91DEBFFF91EF91DF91CF9173
:1008B000BF91AF919F918F917F916F915F914F9178
:1008C0003F912F911F910F91FF90EF90DF90CF906C
:1008D000BF90AF909F908F907F906F905F904F9060
:1008E0003F902F901F900F900CBE0F900BBE0F905B
:1008F0000FBE0F9008959ADF1895DC0153962C9146
:100900005397222341F05A96ED91FC915B97908189
:100910008AE0891B089580E008950FB6F8940F923D
:10092000FC01868D811102C081E001C080E00F9042
:100930000FBE08950FB6F8940F92FC01268D878D97
:10094000281302C081E001C080E00F900FBE08951F
:100950000F931F93CF93DF93EC01042F1E8D48A1BB
:1009600041110CC088819981892B09F042C08C818A
:100970009D810E94F4121D821C8242C0011117C089
:1009800050E08A819B810E94812E28A18A819B81CF
:10099000820F911D9B838A832C813D81821793074F
:1009A00050F1888199819B838A8380E029C050E03F
:1009B0008E819F810E94812E88A190E091958195E2
:1009C00091092E813F81280F391F3F832E83488153
:1009D00059812417350730F42C813D81820F931FF4
:1009E0009F838E83023049F4112349F0115080E037
:1009F00007C080E005C080E003C080E001C080E067
:100A00001F5F1E8FDF91CF911F910F910895FC0101
:100A100040A14423A9F050E026813781240F351FDF
:100A200037832683848195812817390720F08081B8
:100A3000918197838683CB01668177810C94812E87
:100A400008951F93CF93DF93EC010FB6F8940F92A4
:100A50001AA10BC08B89882351F0CE0143960E94C6
:100A60001A1181110E945612115011169CF38FEF2A
:100A70008AA30F900FBE0FB6F8940F9219A10BC066
:100A80008885882351F0CE0108960E941A118111A1
:100A90000E945612115011169CF38FEF89A30F90EC
:100AA0000FBEDF91CF911F910895CF93DF93EC019B
:100AB0000FB6F8940F92E881F9818F8D28A190E00C
:100AC00030E0829FA001839F500D929F500D112412
:100AD0004E0F5F1F5D834C831E8EFB83EA8301975D
:100AE000289FA001299F500D389F500D1124CF0140
:100AF000840F951F9F838E838FEF89A38AA3611133
:100B00000BC08885882371F0CE0108960E941A11C7
:100B1000882341F02ADE06C0CE01089658DDCE01BA
:100B2000439655DD0F900FBE81E0DF91CF91089580
:100B30000F931F93F801611103C01183008302C05A
:100B400051834083878F60A361E0CF01AEDF1F91A7
:100B50000F910895DF92EF92FF920F931F93CF931F
:100B6000DF93F82EE62ED42E869FC00111248396A3
:100B700043DCEC01009741F08C012D2DAC014D5D63
:100B80005F4F6E2D8F2DD4DFCE01DF91CF911F915E
:100B90000F91FF90EF90DF900895CF92DF92EF9248
:100BA000FF920F931F93CF93DF93CDB7DEB72997B3
:100BB0000FB6F894DEBF0FBECDBF7C016B012E8354
:100BC0003F834887598710E00FB6F8940F92F701DA
:100BD000968D878D981710F00230B1F4402FB60132
:100BE000C701B6DEF7019389992341F0C701439607
:100BF0000E941A11882321F0B8DD02C08111B5DDF1
:100C00000F900FBE81E04CC08E819F81A885B98571
:100C1000892B8A2B8B2B21F40F900FBE80E040C0D4
:100C2000111105C0CE0101960E94DF1111E00F9055
:100C30000FBEA6D70FB6F8940F92F70181A18F3F90
:100C400009F411A2F70182A18F3F09F412A20F90BB
:100C50000FBEBE016A5F7F4FCE0101960E94F01168
:100C6000811119C0C70166DE882381F04E815F8142
:100C700068857985C70108960E94C110C701E1DE29
:100C80000E94000F8111A0CF70DD9ECFC701D9DE79
:100C90000E94000F99CFC701D4DE0E94000F80E0B0
:100CA00029960FB6F894DEBF0FBECDBFDF91CF916E
:100CB0001F910F91FF90EF90DF90CF900895EF92EA
:100CC000FF920F931F93CF93DF938A01FC01568D00
:100CD000378D531710F02230F9F4422F7801EC01D0
:100CE0001AA18E8DCE0134DE1F3F81F48B898823BB
:100CF000A9F0CE0143960E941A11882389F0E114CD
:100D0000F10481F081E0F70180830DC0FF24F394AA
:100D1000F10EFAA281E007C080E005C081E003C0C7
:100D200081E001C081E0DF91CF911F910F91FF9091
:100D3000EF900895CF92DF92EF92FF920F931F935F
:100D4000CF93DF93CDB7DEB729970FB6F894DEBF08
:100D50000FBECDBF8C016B012E833F83488759871F
:100D6000E12C0FB6F8940F92F801F68CFF2099F061
:100D7000B601C8014CDEFA94F801F68E808588230E
:100D800031F0C80108960E941A118111EEDC0F9013
:100D90000FBE81E04FC08E819F81A885B985892BC8
:100DA0008A2B8B2B21F40F900FBE80E043C0E11003
:100DB00006C0CE0101960E94DF11EE24E3940F904D
:100DC0000FBEDED60FB6F8940F92F80181A18F3FC7
:100DD00009F411A2F80182A18F3F09F412A20F9029
:100DE0000FBEBE016A5F7F4FCE0101960E94F011D7
:100DF000811117C0C80191DD882379F04E815F8190
:100E000068857985C80143960E94C110C80119DE22
:100E1000F7D78111A6CFA9DCA4CFC80112DEF0D785
:100E2000A0CFC8010EDEECD7C80177DD882309F416
:100E300098CF80E029960FB6F894DEBF0FBECDBFE5
:100E4000DF91CF911F910F91FF90EF90DF90CF90A6
:100E50000895EF92FF920F931F93CF93DF93CDB737
:100E6000DEB729970FB6F894DEBF0FBECDBF8C0159
:100E70004E835F8368877987E12CF12C0FB6F89455
:100E80000F92F801868D8823C9F08150868F80816A
:100E90009181892B29F40E94B613F80195838483EC
:100EA000F8018085882331F0C80108960E941A1144
:100EB00081115BDC0F900FBE81E06FC08E819F813E
:100EC000A885B985892B8A2B8B2B21F40F900FBE17
:100ED00080E063C0F11006C0CE0101960E94DF11D0
:100EE000FF24F3940F900FBE4BD60FB6F8940F92D9
:100EF000F80181A18F3F09F411A2F80182A18F3F6F
:100F000009F412A20F900FBEBE016A5F7F4FCE019F
:100F100001960E94F011811126C0C801FEDC8823D1
:100F2000F1F0F80180819181892B51F40FB6F8948A
:100F30000F92848195810E946D12E82E0F900FBE52
:100F40004E815F8168857985C80143960E94C110F2
:100F5000C80177DD55D7811191CF07DC8FCFC8014C
:100F600070DD4ED78BCFC8016CDD4AD7C801D5DC08
:100F7000882309F483CFEE2079F00FB6F8940F920E
:100F8000C801BBDC682FF801848195810E944F1352
:100F90000F900FBE80E001C080E029960FB6F89454
:100FA000DEBF0FBECDBFDF91CF911F910F91FF909C
:100FB000EF900895CF93DF93EC010FB6F8940F9262
:100FC00089A18F3F09F419A28AA18F3F09F41AA2BF
:100FD0000F900FBE8E8D811104C0CE0143960E94EA
:100FE000D810CE012EDDDF91CF910895FC01448110
:100FF000558122813381240F351F80819181B90170
:10100000681B790BCB016417750710F0841B950BD7
:1010100008950F93FC018FE0DF011D928A95E9F797
:1010200075876487558344833783268306870F91AA
:101030000895AF92BF92CF92DF92EF92FF920F93FB
:101040001F93CF93DF936C015B017A01FC01C28196
:10105000D381048115810C1B1D0B4017510708F427
:101060008A01F60184859585A801B5018C0F9D1F25
:101070000E94812E0E151F0558F4A701401B510B2D
:10108000B501600F711FF601848595850E94812E40
:10109000CE018E0D9F1DF6012481358182179307A5
:1010A00010F0821B930BF60193838283C701DF91BB
:1010B000CF911F910F91FF90EF90DF90CF90BF9055
:1010C000AF900895CF92DF92EF92FF920F931F930C
:1010D000CF93DF931F921F92CDB7DEB77C016B01D8
:1010E0005A83498321153105C1F0FC01868580FDB5
:1010F00008C04217530708F49A013A83298381E014
:101100000FC02017310758F042E050E0BE016F5F7A
:101110007F4FC7018EDF81E003C080E001C080E027
:10112000882331F049815A81B601C70182DF02C0AC
:1011300080E090E00F900F90DF91CF911F910F9181
:10114000FF90EF90DF90CF900895AF92BF92CF9233
:10115000DF92EF92FF920F931F93CF93DF937C0167
:101160005B01E9014217530708F4EA01209781F176
:10117000F7010081118184819581801B910B6E01A3
:101180008C179D0708F46C01F70164857585600F65
:10119000711FA601C5010E94812ECC16DD0658F4F0
:1011A000AE014C195D09F70164857585C5018C0D8B
:1011B0009D1D0E94812E0C0F1D1FF70184819581BA
:1011C0000817190710F0081B190BF701118300838A
:1011D000CE01DF91CF911F910F91FF90EF90DF90A3
:1011E000CF90BF90AF9008956F927F928F929F9211
:1011F000AF92BF92CF92DF92EF92FF920F931F9325
:10120000CF93DF931F921F92CDB7DEB76C014B01D6
:101210005A01790101151105B1F0FC01608071805E
:10122000A801BE016F5F7F4F90DF89819A81E01A2C
:10123000F10AA816B90630F4F60171826082A12C79
:10124000B12C01C05C019701A501B401C6017DDF8D
:101250000F900F90DF91CF911F910F91FF90EF9022
:10126000DF90CF90BF90AF909F908F907F906F90C6
:101270000895CF92DF92EF92FF920F93CF93DF9377
:10128000EC016B01413011F401E001C000E0C11438
:10129000D10419F4CC24C394D12CCE014096C817A4
:1012A000D90720F42196A8D87C0102C0E12CF12CAA
:1012B000E114F10439F09601AE01B701615F7F4F8F
:1012C000C701A7DEC701DF91CF910F91FF90EF908B
:1012D000DF90CF9008950F930FB6F8940F92FC0112
:1012E00020853185232B71F422853385232B61F4EE
:1012F000268137814481558164857585068589DE1F
:1013000081E003C080E001C080E00F900FBE0F912C
:101310000895FC012481358180819181820F931F82
:1013200042815381841B950B01978217930710F01C
:10133000821B930B08952F923F924F925F926F9270
:101340007F928F929F92AF92BF92CF92DF92EF9255
:10135000FF920F931F93CF93DF93CDB7DEB72B97F9
:101360000FB6F894DEBF0FBECDBF4C017B876A87F6
:101370001A010E831F8328873987FC018481958198
:101380000197268520FF0CC02A01F2E04F0E511C68
:101390008415950558F41E821F821886198606C08A
:1013A0008417950710F02A0101C02C018E819F81BE
:1013B000A885B985892B8A2B8B2B09F436C0CE01E1
:1013C0000196E7D70FB6F8940F92C401A2DF3C0153
:1013D0008415950538F560E080E090E00E9488165D
:1013E0000E945A12F401938782870F900FBEAE803D
:1013F000BF80C884D984E12CF12C00E010E0980172
:1014000040E050E0BA0180E00E94C813F401138666
:101410001286BE016A5F7F4FCE010196E1D7882315
:1014200089F205C00F900FBE02C0612C712C6114AF
:10143000710419F4C4016DDF3C0182019301A10123
:101440006A857B85C4013EDE6C01892BE9F0C4010D
:10145000CDDDF4012681378182179307A8F090D360
:10146000F40180859185892B71F080859185E12C2F
:10147000F12C00E020E030E0A90160E00E946F1450
:10148000F40111861086BCD4C6012B960FB6F894D1
:10149000DEBF0FBECDBFDF91CF911F910F91FF90A7
:1014A000EF90DF90CF90BF90AF909F908F907F9004
:1014B0006F905F904F903F902F900895AF92BF92A2
:1014C000CF92DF92EF92FF920F931F93CF93DF9310
:1014D000EC017B015A0169018E8580FF04C08A01FD
:1014E0000E5F1F4F01C08A01CE0113DF9C01A501D1
:1014F000B701CE01E7DD5C01892BC1F0CE0176DDBD
:101500002E813F818217930788F088859985892BE2
:1015100069F088859985E12CF12C00E020E030E02D
:10152000A90160E00E94661519861886C501DF9141
:10153000CF911F910F91FF90EF90DF90CF90BF90D0
:10154000AF9008954F925F926F927F928F929F9289
:10155000AF92BF92CF92DF92EF92FF920F931F93C1
:10156000CF93DF93EC012B013A01580169018E857D
:1015700080FF05C06894882481F8912C02C0812CDA
:10158000912CA114B104C104D10439F10FB6F8941F
:101590000F92CE012BDD7C018816990640F060E0A9
:1015A00080E090E00E94881685D7998788870F9001
:1015B0000FBE8E149F04A0F0E12CF12C00E010E08F
:1015C000980140E050E0BA0180E00E94C8131986FB
:1015D0001886CE010BDD7C0103C0CE0107DD7C0146
:1015E0008E149F04E8F484019701A301B201CE0197
:1015F000FBDD6C01892BB1F0C3D28A859B85892BD9
:1016000069F08A859B85E12CF12C00E020E030E038
:10161000A90160E00E946F141B861A86F1D302C0F4
:10162000C12CD12CC601DF91CF911F910F91FF905A
:10163000EF90DF90CF90BF90AF909F908F907F9072
:101640006F905F904F900895E091C716F091C81683
:10165000808181110CC08FEF9FEFDC018093911688
:1016600090939216A0939316B09394160895E091D8
:10167000C716F091C8160780F085E02D8081918112
:10168000A281B3818093911690939216A0939316A2
:10169000B09394160895CF93DF93EC018B8D9C8DBE
:1016A0000E94A502CE010E94A502DF91CF9108956C
:1016B0004F925F926F927F928F929F92AF92BF9262
:1016C000CF92DF92EF92FF920F93CF93DF932C0193
:1016D0005B014A013901E60165EA70E08B8D9C8D62
:1016E0000E948A2E8B8D9C8D21E0821A9108880E93
:1016F000991EA114B10489F415C0822F90E0F50160
:10170000E80FF91F3081DE01A80FB91F5D963C93E9
:101710008081882329F02F5F01C020E0203168F309
:101720001CA601C01D8E0A3008F009E00A8F0DA723
:101730001EA6CE0102960E94F802CE010E960E94CD
:10174000F802DB87CA878AE090E0A0E0B0E0801B67
:101750009109A109B1098E879F87A88BB98BDF8B6F
:10176000CE8B84E0FE01BF96DF011D928A95E9F7DA
:101770001BAAA301B201C4010E946C039983888350
:10178000E114F10419F0F701D183C083DF91CF9107
:101790000F91FF90EF90DF90CF90BF90AF909F9010
:1017A0008F907F906F905F904F900895CF93C0E09F
:1017B00009C02BE0C29FC00111248152994E0E94A2
:1017C000E702CF5FCA30A8F384ED96E10E94E702FA
:1017D00089EC96E10E94E7028AEB96E10E94E7021B
:1017E0008FEA96E10E94E70283EA96E10E94E7020F
:1017F00084ED96E19093C8168093C71689EC96E124
:101800009093C6168093C516CF910895CF93DF931A
:10181000EC010FB6F8940F928091A2168F5F80931F
:10182000A21680914D1790914E17892B51F4D093A9
:101830004E17C0934D178091A216813091F4B6DFF8
:1018400010C080919C1681110CC0E0914D17F09151
:101850004E17928D8A8D891720F0D0934E17C09322
:101860004D17809195168F5F80939516EA8D809124
:101870009D168E1710F4E0939D168BE08E9FF0015D
:101880001124E152F94E0180F281E02DFF83EE83B5
:101890002681378139872887A681B7819E012E5FEF
:1018A0003F4F15963C932E93149737832683EA8DEA
:1018B0008E9FF0011124E152F94EFD87EC87808163
:1018C0008F5F80830F900FBE80919C16882351F00C
:1018D000E0914D17F0914E17928D8A8D981710F464
:1018E0000E94B503DF91CF910895CF93DF931BC082
:1018F0000FB6F8940F92E091B616F091B716C08526
:10190000D185CE0102960E9439038091A2168150A2
:101910008093A2168091AE1681508093AE160F90E0
:101920000FBECE01B8DE8091AE168111E1CFDF91FE
:10193000CF9108958F929F92AF92BF92CF92DF92F4
:10194000EF92FF92CF93DF936B017C01C42F8090C5
:101950009E1690909F16A090A016B090A116809110
:101960004D1790914E1702960E9439038FEFC816BB
:10197000D806E806F806B1F5CC23A1F1E3EAF6E1D2
:10198000A181B281C0914D17D0914E17BF83AE8314
:10199000C0914D17D0914E1716968D919C91179727
:1019A000998788871696CD91DC91179780914D176E
:1019B00090914E1702969D838C8380914D17909144
:1019C0004E17029617969C938E931697A0914D17DB
:1019D000B0914E171D96FC93EE931C9780818F5FFC
:1019E00080833FC0C80CD91CEA1CFB1CE0914D173A
:1019F000F0914E17C282D382E482F582C814D904D2
:101A0000EA04FB0468F460914D1770914E178091C1
:101A1000C5169091C6166E5F7F4F0E94FC0221C0D2
:101A200060914D1770914E178091C7169091C8160E
:101A30006E5F7F4F0E94FC028091911690919216EA
:101A4000A0919316B0919416C816D906EA06FB0623
:101A500040F4C0929116D0929216E0929316F092B2
:101A60009416DF91CF91FF90EF90DF90CF90BF90D1
:101A7000AF909F908F9008952F923F924F925F92D8
:101A80006F927F928F929F92AF92BF92CF92DF928E
:101A9000EF92FF920F93CF93DF933C011B014A011A
:101AA0002901CA010E94FC016C01892B71F084E3B9
:101AB00090E00E94FC01EC01892B19F0DC8ECB8EAA
:101AC00006C0C6010E94A50202C0C0E0D0E0209777
:101AD00061F0A12CB12C6E019201A401B101C301EE
:101AE000E7DDCE0193DE81E001C08FEFDF91CF9182
:101AF0000F91FF90EF90DF90CF90BF90AF909F90AD
:101B00008F907F906F905F904F903F902F900895AF
:101B1000EF92FF920F930F2EFFE8EF2EF6E1FF2ECC
:101B2000F02D00E020E030E040EC50E06AE972E0A7
:101B30008DEC90E0A1DF813011F40E942C178130F0
:101B4000C9F4F8948FEF9FEFDC0180939116909386
:101B50009216A0939316B093941681E080939C16EE
:101B600010929E1610929F161092A0161092A11617
:101B70000E948303809106020F91FF90EF900895D9
:101B800080918E168F5F80938E1608950FB6F8940D
:101B90000F9260919E1670919F168091A016909161
:101BA000A1160F900FBE0895CF92DF92EF92FF9291
:101BB000CF93DF9380918E16811105C1C0909E1640
:101BC000D0909F16E090A016F090A1168FEFC81A43
:101BD000D80AE80AF80AC0929E16D0929F16E092A0
:101BE000A016F092A116C114D104E104F104B1F4DD
:101BF0008091C7169091C8162091C5163091C616CF
:101C00003093C8162093C7169093C6168093C516B6
:101C1000809196168F5F8093961616DD80919116AF
:101C200090919216A0919316B0919416C816D90669
:101C3000EA06FB0620F480E0B2C081E001C080E04B
:101C4000E091C716F091C816908191110CC04FEF2A
:101C50005FEFBA01409391165093921660939316DA
:101C6000709394169CC0E091C716F091C816078037
:101C7000F085E02D0084F185E02D4281538164815F
:101C80007581C416D506E606F70648F4409391160A
:101C900050939216609393167093941680C0A48507
:101CA000B585C681D781208531853F832E83C08548
:101CB000D185268137813D832C8311964D915C918E
:101CC00012979F012E5F3F4F4217530731F4408513
:101CD000518512965C934E931197158614869C91AC
:101CE00091509C93A08DB18D109709F1C289D38931
:101CF000448955895F834E83C489D5894289538934
:101D00005D834C8311966D917C911297AF01425F78
:101D10005F4F6417750731F44489558912965C93B7
:101D20004E931197118E108E9C9191509C93A28D81
:101D300090919D169A1710F4A0939D169BE09A9F80
:101D4000D0011124A152B94E11960D90BC91A02D35
:101D5000B783A68316964D915C911797518740875C
:101D60001696CD91DC9117973D832C8317963C9363
:101D70002E931697A28D9A9FD0011124A152B94E8D
:101D8000B587A4879C919F5F9C93228DE0914D170E
:101D9000F0914E17928D291708F04FCF51CFE09157
:101DA0004D17F0914E17E28D9BE0E99FF001112451
:101DB000E152F94E9081923008F081E090919716AF
:101DC000911116C016C08091981690919916A09105
:101DD0009A16B0919B160196A11DB11D809398167D
:101DE00090939916A0939A16B0939B1680E001C029
:101DF00081E0DF91CF91FF90EF90DF90CF90089539
:101E0000CF92DF92EF92FF92CF93DF930FB6F894C9
:101E10000F9280918E16815080938E1680918E162F
:101E20008111BEC08091A216811188C0BCC0E09112
:101E3000C116F091C2160084F185E02DA08DB18D00
:101E4000C289D389848995899F838E83C489D589E2
:101E5000828993899D838C8311962D913C91129751
:101E6000CF010E962817390731F484899589129687
:101E70009C938E931197118E108E8C9181508C9320
:101E8000A485B585C681D781808591859F838E8302
:101E9000C085D185868197819D838C8311968D9194
:101EA0009C9112979F012E5F3F4F8217930731F449
:101EB0008085918512969C938E9311971586148632
:101EC0008C9181508C93A28D80919D168A1710F46D
:101ED000A0939D168BE08A9FD0011124A152B94E88
:101EE00011960D90BC91A02DB783A68316964D91A7
:101EF0005C911797518740871696CD91DC91179783
:101F00003D832C8317963C932E931697A28D8A9F20
:101F1000D0011124A152B94EB587A4878C918F5F4F
:101F20008C93928DA0914D17B0914E175A968C912B
:101F3000981730F081E08093971602C0E0E0F0E05F
:101F40008091BA16811173CFEF2B09F07DDBC09021
:101F50009816D0909916E0909A16F0909B16C1149E
:101F6000D104E104F104A1F01FDE882319F081E01F
:101F70008093971681E0C81AD108E108F108A1F70B
:101F8000109298161092991610929A1610929B160B
:101F900080919716882331F00E94B50381E003C039
:101FA00080E001C080E00F900FBEDF91CF91FF90E5
:101FB000EF90DF90CF9008958F929F92AF92BF9253
:101FC000CF92DF92EF92FF921F93CF93DF93EC01BA
:101FD0006A017B01D5DD80909E1690909F16A0909F
:101FE000A016B090A11688819981AA81BB81AC010D
:101FF000BD014C0D5D1D6E1D7F1D88169906AA063C
:10200000BB0660F4481759076A077B0798F48416E3
:102010009506A606B70680F010E013C048175907CA
:102020006A077B0758F084169506A606B70640F0A7
:1020300010E007C010E005C011E003C011E001C0CE
:1020400011E0488359836A837B83112341F0CB01DC
:10205000BA01681979098A099B0940E06BDCD0DE76
:10206000811102C00E94B503812FDF91CF911F9192
:10207000FF90EF90DF90CF90BF90AF909F908F90A8
:102080000895CF92DF92EF92FF926B017C01672B54
:10209000682B692B39F074DD40E0C701B6014ADCDA
:1020A000AFDE01C080E0811102C00E94B503FF9045
:1020B000EF90DF90CF90089580918E16882321F0C5
:1020C00081E080939716089510929716E0914D172E
:1020D000F0914E1720813181E0914D17F0914E170C
:1020E000838D948D8217930760F060914D177091E6
:1020F0004E17635E7F4F80914D1790914E170E944F
:10210000BA1980919D1601C08150282F30E09BE0C4
:10211000929FF001939FF00D1124E152F94E9081AE
:10212000992391F39BE0929FA001939F500D11245E
:10213000DF010180F281E02D0480F581E02D12960F
:10214000FC93EE9311974E51594EE417F50729F47D
:1021500044815581FD01528341839BE0929FF001B0
:10216000939FF00D1124E152F94E0180F281E02D90
:102170002085318530934E1720934D1780939D16FF
:102180000895CF92DF92EF92FF926A017B016091F6
:102190004D1770914E17625F7F4F0E94FC0241E025
:1021A000C701B601C7DBFF90EF90DF90CF90089595
:1021B000CF93DF93FC01CB01BA01A181B281C09121
:1021C0004D17D0914E17BB8BAA8BC0914D17D09154
:1021D0004E1716964D915C9117975D8B4C8B16960A
:1021E000CD91DC91179740914D1750914E17425F5A
:1021F0005F4F5D834C8340914D1750914E17425F66
:102200005F4F17965C934E931697A0914D17B09120
:102210004E175996FC93EE93589730813F5F308369
:10222000222319F06FEF7FEFCB01422F83DBDF9189
:10223000CF910895CF93DF93DC011796ED91FC9138
:1022400018970084F185E02DA08DB18DC289D389C6
:10225000848995899F838E83C489D589828993894E
:102260009D838C8311968D919C9112979F01225F83
:102270003F4F8217930731F48489958912969C9376
:102280008E931197118E108E8C9181508C9380912A
:102290008E16811152C0A485B585C681D7818085EF
:1022A00091859F838E83C085D185868197819D830B
:1022B0008C8311968D919C9112979F012E5F3F4FB9
:1022C0008217930731F48085918512969C938E93A3
:1022D0001197158614868C9181508C93A28D8091D4
:1022E0009D168A1710F4A0939D168BE08A9FD0014B
:1022F0001124A152B94E11960D90BC91A02DB78317
:10230000A68316964D915C91179751874087169634
:10231000CD91DC9117973D832C8317963C932E9398
:102320001697A28D8A9FD0011124A152B94EB5876C
:10233000A4878C918F5F8C931CC04AEB56E1DA0125
:102340001196CD91DC911297D38BC28B8E819F8198
:10235000958B848B8E819F81DC0115963C932E9307
:1023600014973F832E83518F408FDA018C918F5FBA
:102370008C93928DE0914D17F0914E17828D8917B5
:1023800020F481E08093971601C080E0DF91CF9127
:1023900008950FB6F8940F9220919616FC012083B1
:1023A00040919E1650919F166091A0167091A116B3
:1023B00041835283638374830F900FBE08952091ED
:1023C0009616FC01208340919E1650919F166091B5
:1023D000A0167091A116418352836383748308957C
:1023E0008F929F92AF92BF92CF92DF92EF92FF9225
:1023F0000F931F93CF93DF93FB010FB6F8940F92C7
:10240000C0909E16D0909F16E090A016F090A11656
:10241000DC0111960D911D912D913C91149746016F
:102420005701801A910AA20AB30A40815181628140
:1024300073814F3FBFEF5B076B077B0739F1EC01FF
:10244000B881A0919616BA1759F0C016D106E206C7
:10245000F30630F0108211821282138281E017C0DD
:1024600084169506A606B70658F4481959096A094C
:102470007B094083518362837383A1DF80E007C0BF
:10248000108211821282138281E001C080E00F90DD
:102490000FBEDF91CF911F910F91FF90EF90DF90D2
:1024A000CF90BF90AF909F908F90089581E08093E0
:1024B0009716089580914D1790914E170895809129
:1024C0009C16882331F080918E16811104C082E021
:1024D000089581E0089580E008950F931F93CF93AE
:1024E000DF93FC01892B09F477C0828DA0914D17F1
:1024F000B0914E175A969C91891708F063C0468593
:10250000578560897189772394F0A0914D17B09118
:102510004E175A969C914AE050E060E070E0491BEB
:1025200051096109710946875787608B718B248532
:1025300035854BE0849FC00111248152994E2817A4
:102540003907B9F5EF018F010E5F1F4FC8010E94D7
:102550003903E0914D17F0914E17E28DEA8F80918B
:102560009D168E1710F4E0939D168BE08E9FF00160
:102570001124E152F94E0180F281E02DFF83EE83B8
:102580002681378139872887A681B78115961C93C4
:102590000E93149717830683EA8D8E9FF001112402
:1025A000E152F94EFD87EC8780818F5F808381E067
:1025B00016C0A0914D17B0914E175A968C91828FEC
:1025C00081E00DC095A5E0914D17F0914E17828DD9
:1025D000981720F080E003C080E001C081E0DF9127
:1025E000CF911F910F9108950F931F93CF93DF9376
:1025F000FC01892B09F449C086A5815086A7228D4C
:1026000095A5291709F443C0811143C0EF018F013B
:102610000E5F1F4FC8010E943903EDA5EA8F8AE0C3
:1026200090E0A0E0B0E08E1B9109A109B1098E876E
:102630009F87A88BB98B80919D168E1710F4E0931D
:102640009D168BE08E9FF0011124E152F94E01801E
:10265000F281E02DFF83EE83268137813987288739
:10266000A681B78115961C930E9314971783068342
:10267000EA8D8E9FF0011124E152F94EFD87EC871F
:1026800080818F5F808381E005C080E003C080E0AF
:1026900001C080E0DF91CF911F910F9108950F93BA
:1026A0001F93CF93DF93FC01892B09F45AC085A5B2
:1026B000861708F4862F928D891709F452C026A533
:1026C000213009F04EC0828F468557856089718917
:1026D000772364F04AE050E060E070E0481B510965
:1026E0006109710946875787608B718B2485358511
:1026F0004BE0949FC00111248152994E281739074D
:1027000081F5EF018F010E5F1F4FC8010E94390351
:10271000EA8D80919D168E1710F4E0939D168BE044
:102720008E9FF0011124E152F94E0180F281E02DDB
:10273000FF83EE832681378139872887A681B78179
:1027400015961C930E93149717830683EA8D8E9F1C
:10275000F0011124E152F94EFD87EC8780818F5FF3
:102760008083DF91CF911F910F91089580914D1734
:1027700090914E17892B39F0E0914D17F0914E173B
:1027800086A58F5F86A780914D1790914E1708956B
:102790004F925F926F927F92AF92BF92CF92DF92F1
:1027A000EF92FF920F931F93CF93DF93280139018C
:1027B0000FB6F8940F92E0914D17F0914E17C82F75
:1027C000D0E0EC0FFD1F83A9823071F1E0914D172D
:1027D000F0914E17CE01880F991F880F991FE80FAF
:1027E000F91F87A590A9A1A9B2A940955095609518
:1027F0007095482359236A237B2347A750AB61ABCD
:1028000072ABE0914D17F0914E17EC0FFD1F81E078
:1028100083ABA114B104C104D10431F041E0C6017D
:10282000B50188D80E94B5030F900FBE0FB6F8947B
:102830000F92E114F104A1F0E0914D17F0914E17C1
:10284000CE01880F991F880F991FE80FF91F87A5E0
:1028500090A9A1A9B2A9F70180839183A283B38330
:10286000E0914D17F0914E17EC0FFD1F83A98230B8
:10287000E9F4E0914D17F0914E17CE01880F991FA2
:10288000880F991FE80FF91F87A590A9A1A9B2A9E0
:102890004094509460947094482259226A227B227A
:1028A00047A650AA61AA72AA81E001C080E02091E7
:1028B0004D1730914E17C20FD31F1BAA0F900FBE9A
:1028C000DF91CF911F910F91FF90EF90DF90CF900C
:1028D000BF90AF907F906F905F904F9008958F92D0
:1028E0009F92AF92BF92EF92FF920F93CF93DF939D
:1028F000DC010FB6F8940F92E114F10489F0E62F91
:10290000F0E0EE0FFF1FEE0FFF1FE80FF91F87A487
:1029100090A8A1A8B2A8F70180829182A282B38276
:1029200070E0FD01E60FF71F83A992E093AB023040
:1029300001F118F4013031F04DC0033079F1043069
:10294000D1F148C0660F771F660F771FFD01E60FB4
:10295000F71F87A490A8A1A8B2A8BA01A901482985
:1029600059296A297B2947A750AB61AB72AB01E0BB
:1029700034C0660F771F660F771FFD01E60FF71F44
:1029800047A550A961A972A94F5F5F4F6F4F7F4F55
:1029900047A750AB61AB72AB01E01FC0660F771F5A
:1029A000660F771FFD01E60FF71F27A730AB41AB7E
:1029B00052AB01E012C0823079F0660F771F660FCC
:1029C000771FFD01E60FF71F27A730AB41AB52ABD6
:1029D00001E003C001E001C000E0813009F069C0FE
:1029E0001C96ED91FC911D971696CD91DC91179751
:1029F00018968D919C9119979F838E831896CD91EF
:102A0000DC91199716968D919C9117979D838C83D5
:102A1000818192819D012E5F3F4F8217930731F490
:102A200018968D919C911997928381831D961C9283
:102A30001E921C978081815080835A96EC915A9700
:102A400080919D168E1710F4E0939D168BE08E9F5B
:102A5000F0011124E152F94E0180F281E02D179628
:102A6000FC93EE9316974681578119965C934E938B
:102A70001897C681D7813D832C83378326835A9646
:102A8000EC915A978E9FF0011124E152F94E1D9658
:102A9000FC93EE931C9780818F5F80835A969C9164
:102AA000E0914D17F0914E17828D891710F40E9416
:102AB000B5030F900FBE802FDF91CF910F91FF9044
:102AC000EF90BF90AF909F908F9008958F929F92BC
:102AD000AF92BF92CF92DF92EF92FF920F93CF937C
:102AE000DF93DC01E114F10489F0E62FF0E0EE0F52
:102AF000FF1FEE0FFF1FE80FF91F87A490A8A1A8E2
:102B0000B2A8F70180829182A282B38270E0FD01B7
:102B1000E60FF71F93A982E083AB023001F118F4AE
:102B2000013031F04DC0033079F10430D1F148C0AB
:102B3000660F771F660F771FFD01E60FF71F87A44B
:102B400090A8A1A8B2A8BA01A901482959296A29BF
:102B50007B2947A750AB61AB72AB81E034C0660FF5
:102B6000771F660F771FFD01E60FF71F47A550A9D6
:102B700061A972A94F5F5F4F6F4F7F4F47A750AB5F
:102B800061AB72AB81E01FC0660F771F660F771FC6
:102B9000FD01E60FF71F27A730AB41AB52AB81E039
:102BA00012C0923079F0660F771F660F771FFD0114
:102BB000E60FF71F27A730AB41AB52AB81E003C054
:102BC00081E001C080E0913009F096C090918E16AE
:102BD00091115FC01C96ED91FC911D971696CD91B9
:102BE000DC91179718962D913C9119973F832E836E
:102BF0001896CD91DC91199716962D913C911797C7
:102C00003D832C83418152819D012E5F3F4F4217AE
:102C1000530731F418964D915C9119975283418373
:102C20001D961C921E921C979081915090835A96EB
:102C3000EC915A9790919D169E1710F4E0939D1673
:102C40009BE09E9FF0011124E152F94E0180F28138
:102C5000E02D1796FC93EE931697468157811996AF
:102C60005C934E931897C681D7813D832C8337831D
:102C700026835A96EC915A979E9FF0011124E152B7
:102C8000F94E1D96FC93EE931C9790819F5F908365
:102C900021C06AEB76E1FB01C181D2815396DC93BE
:102CA000CE9352972E813F8155963C932E93549705
:102CB0004E815F819D01225F3F4FFA01358324835E
:102CC0003F832E8359967C936E935897FB01908196
:102CD0009F5F90835A962C91E0914D17F0914E177B
:102CE000928D921748F4C114D10419F091E0F601C5
:102CF000908391E090939716DF91CF910F91FF9081
:102D0000EF90DF90CF90BF90AF909F908F900895FD
:102D1000009721F480914D1790914E170FB6F894BB
:102D20000F9270E0FC01E60FF71F23A9223031F467
:102D3000FC01E60FF71F13AA81E001C080E00F90AD
:102D40000FBE0895DC01E0915917F0915A17808168
:102D500091E0811190E09C93911108C00780F0856B
:102D6000E02D6081718182819381089560E070E03F
:102D7000CB010895CF92DF92EF92FF920F931F93B2
:102D8000FC0142835383648375839387828704178E
:102D9000150726073707C0F00C191D092E093F0932
:102DA00086859785A089B189081719072A073B07E7
:102DB00000F5BF016E5F7F4F8091571790915817B4
:102DC0000E94FC0280E018C00C151D052E053F0571
:102DD00028F44C155D056E057F0568F4BF016E5F34
:102DE0007F4F8091591790915A170E94FC0280E002
:102DF00003C081E001C081E01F910F91FF90EF902F
:102E0000DF90CF9008950FB6F8940F9280915517E8
:102E100090915617892BE9F486E697E10E94E70224
:102E20008BE597E10E94E70286E697E190935A17B7
:102E3000809359178BE597E1909358178093571714
:102E400040E067E08AE00E94AA05909356178093BD
:102E500055170F900FBE0895EF92FF920F93D3DF97
:102E60008091551790915617892B91F00F2EF3E50D
:102E7000EF2EF7E1FF2EF02D03E020E030E040ECF4
:102E800050E06FE972E087ED90E00E943C0D01C0D8
:102E900080E00F91FF90EF9008958F929F92AF92F4
:102EA000BF92CF92DF92EF92FF920F931F93CF9337
:102EB000DF93CDB7DEB727970FB6F894DEBF0FBE0E
:102EC000CDBFE0915517F0915617309781F1698386
:102ED0002A833B834C835D839F838E836630F4F427
:102EE000EEDA823069F400E0A7019601BE016F5F5F
:102EF0007F4F80915517909156170E94CD0518C0AD
:102F000000E020E030E0A901BE016F5F7F4F8091BB
:102F10005517909156170E94CD050AC020E0A801D0
:102F2000BE016F5F7F4FCF010E945F0601C080E04E
:102F300027960FB6F894DEBF0FBECDBFDF91CF91BD
:102F40001F910F91FF90EF90DF90CF90BF90AF90C7
:102F50009F908F9008958F929F92AF92BF92CF9241
:102F6000DF92EF92FF920F931F93CF93DF933BC0BB
:102F70000780F085E02D80809180A280B380C0859D
:102F8000D1858E010E5F1F4FC8010E943903EC8965
:102F9000FD89CE0119958E8982FF25C08E859F857A
:102FA000A889B989880D991DAA1DBB1D8816990687
:102FB000AA06BB0670F48A839B83AC83BD83DB8740
:102FC000CA87B8018091591790915A170E94FC0244
:102FD0000AC0C12CD12C760100E010E0A5019401BB
:102FE00060E0CE015ADFE0915917F0915A178081C5
:102FF0008111BECF809157179091581790935A170F
:1030000080935917F0935817E0935717DF91CF919A
:103010001F910F91FF90EF90DF90CF90BF90AF90F6
:103020009F908F900895CF92DF92EF92FF92CF936F
:10303000DF93EC010E94C60D6B017C0180914F175C
:1030400090915017A0915117B0915217C816D906F8
:10305000EA06FB0620F47FDF81E0888301C0188246
:10306000C0924F17D0925017E0925117F09252171A
:10307000C701B601DF91CF91FF90EF90DF90CF9025
:1030800008954F925F926F927F928F929F92AF922C
:10309000BF92CF92DF92EF92FF920F931F93CF9345
:1030A000DF934B015C0129013A01E0915917F0913E
:1030B0005A170780F085E02DC085D185CE01029694
:1030C0000E9439038E8982FF1BC04E855F85688907
:1030D0007989480D591D6A1D7B1D75016401930195
:1030E0008201CE0147DE882369F0C12CD12C760104
:1030F00000E010E0A501940160E0CE01CEDE02C048
:103100008E7F8E8BEC89FD89CE011995DF91CF9151
:103110001F910F91FF90EF90DF90CF90BF90AF90F5
:103120009F908F907F906F905F904F9008958F92B7
:103130009F92AF92BF92CF92DF92EF92FF921F9336
:10314000CF93DF931F92CDB7DEB76B017C01142FB5
:103150000E94C00DCE01019666DF4B015C018981A2
:1031600081112DC011110DC08C149D04AE04BF043B
:1031700040F00E94000FA5019401C701B60181DF54
:1031800020C0112341F0E0915717F091581780812A
:1031900011E0811110E0B701A601481959096A0927
:1031A0007B09212F80915517909156170E94DA07BD
:1031B0000E94000F811105C00E94B50302C00E9449
:1031C000000F0F90DF91CF911F91FF90EF90DF9054
:1031D000CF90BF90AF909F908F900895AF92BF9285
:1031E000CF92DF92EF92FF920F931F93CF93DF93D3
:1031F000CDB7DEB728970FB6F894DEBF0FBECDBFB0
:1032000082C0898188230CF47EC0AE80BF80D50146
:103210001C968D919C911D97892B21F0C5010296DA
:103220000E943903CE010896FEDE8B019C01E981E4
:103230000E2E000CFF0BEA30F10508F064C0882761
:10324000EE58FF4F8F4F0C943A2DF501868981601F
:10325000868BCA80DB80EC80FD804685578560893F
:1032600071894C0D5D1D6E1D7F1DC50183DD882399
:1032700009F449C0D5015496ED91FC915597C501CB
:103280001995F501868982FF3EC04A815B816C8178
:103290007D8186859785A089B1899A01AB01280F28
:1032A000391F4A1F5B1FC12CD12C760100E010E0B2
:1032B00060E0C501F2DD27C0D50156968C91569786
:1032C0008E7F56968C931FC0F50186898160868B10
:1032D0004A815B816C817D8146875787608B718BCA
:1032E000400F511F621F731F68017901C50142DD44
:1032F0000AC0F501868981FD04C0C5010E94A502AE
:1033000002C08E7F868B20E030E0A901BE016F5F96
:103310007F4F80915517909156170E949A06811100
:1033200070CF28960FB6F894DEBF0FBECDBFDF91E9
:10333000CF911F910F91FF90EF90DF90CF90BF90B2
:10334000AF900895089584B1806884B985B180688C
:1033500085B9089583B1806883B90895F4DF2FEFAC
:1033600080E792E0215080409040E1F700C00000EB
:10337000F1DFF5CFE8DF2FEF87EA91E621508040BB
:103380009040E1F700C00000E5DFF5CF0F93CF9349
:10339000DF931F921F92CDB7DEB79A8389838A810C
:1033A0008F9389818F9387EA92E09F938F9385EE25
:1033B00098E19F938F930E94232F85EE98E13CD351
:1033C00000E02FEF3FEFA901BE016F5F7F4F8091BB
:1033D0005719909158190E94CD050F900F900F909A
:1033E0000F900F900F900F900F90DF91CF910F9152
:1033F000089540E062E08AE00E94AA05909358197F
:103400008093571908950E94D623811105C086EC38
:1034100099E10C94D123089586EC92E00C94F32E5C
:103420000895CF93DF931F921F92CDB7DEB72CED97
:1034300035E040E050E0BE016F5F7F4F809157194B
:10344000909158190E949A068A818F9389818F934F
:1034500083ED92E09F938F9385EE98E19F938F93F6
:103460000E94232F85EE98E1E7D20F900F900F90E6
:103470000F900F900F9089819A810F900F90DF919C
:10348000CF91089540E062E08AE00E94AA059093FF
:103490005C1980935B1940E062E08AE00E94AA0513
:1034A00090935A198093591908950F93CF93DF93EE
:1034B0001F921F92CDB7DEB79A8389838A818F933B
:1034C00089818F9385EF92E09F938F9385EE98E1AA
:1034D0009F938F930E94232F85EE98E1ADD200E059
:1034E0002FEF3FEFA901BE016F5F7F4F80915B1906
:1034F00090915C190E94CD050F900F900F900F9046
:103500000F900F900F900F90DF91CF910F91089532
:103510000F93CF93DF931F921F92CDB7DEB79A839D
:1035200089838A818F9389818F938CE193E09F9324
:103530008F9385EE98E19F938F930E94232F85EEC2
:1035400098E17AD200E02FEF3FEFA901BE016F5F53
:103550007F4F8091591990915A190E94CD050F9073
:103560000F900F900F900F900F900F900F90DF9192
:10357000CF910F910895EF92FF920F931F93CF93E6
:10358000DF9300D01F92CDB7DEB70E94C60D6983CE
:103590007A838B839C83C4D3882321F080E493E0D7
:1035A0000E94F32E43E050E060E070E0CE0101960F
:1035B0000E94DC0FCAD3882321F080E593E00E94AB
:1035C000F32E40E050E0BA01CE0101960E94DC0FDC
:1035D000CDD30CD38B01DFD304D37B01003611058F
:1035E00088F085E6E816F1046CF040E050E0BA019E
:1035F000CE0101960E94DC0FB9D3F8D28B01CBD358
:10360000F0D27B01C80184DFC7014FDF0F900F901C
:103610000F900F90DF91CF911F910F91FF90EF903E
:103620000895CF93DF931F921F92CDB7DEB72CED95
:1036300035E040E050E0BE016F5F7F4F80915B1945
:1036400090915C190E949A068A818F9389818F9349
:1036500081E693E09F938F9385EE98E19F938F93FC
:103660000E94232F85EE98E1E7D10F900F900F90E5
:103670000F900F900F9089819A810F900F90DF919A
:10368000CF910895CF93DF931F921F92CDB7DEB7EE
:103690002CED35E040E050E0BE016F5F7F4F809140
:1036A000591990915A190E949A068A818F9389819B
:1036B0008F938BE893E09F938F9385EE98E19F9390
:1036C0008F930E94232F85EE98E1B6D10F900F9033
:1036D0000F900F900F900F9089819A810F900F900B
:1036E000DF91CF9108950F931F93CF93DF93CDB7C1
:1036F000DEB764970FB6F894DEBF0FBECDBF81E092
:103700000E941229D0D44CD79F938F9382EB93E0E1
:103710009F938F930E94E02E44D642D79F938F931E
:1037200085EC93E09F938F930E94E02E8E010F5FB4
:103730001F4FC801CAD434D71F930F939F938F9301
:103740008EED93E09F938F930E94E02EC801D9D411
:1037500027D79F938F931F930F9382EF93E09F93AD
:103760008F930E94E02EA80167E074E088E294E065
:10377000F6D616D79F938F931F930F9387E094E00D
:103780009F938F9388E294E09F938F9389E394E0D3
:103790009F938F930E94E02EE7D402D79F938F933D
:1037A0008FE694E09F938F930E94E02E0FB6F894DB
:1037B000DEBF0FBECDBF81E0D1D5F2D69F938F93F0
:1037C0008EE794E09F938F930E94E02E84EF91E028
:1037D000D0D5E6D69F938F9381E08F9384EF8F931C
:1037E0008FE994E09F938F930E94E02E0FB6F89498
:1037F000DEBF0FBECDBF1AE080E0BCD4082FD0D60C
:103800009F938F931F921F938FEB94E09F938F93BF
:1038100085EE98E19F938F930E94232F85EE98E188
:103820000BD10FB6F894DEBF0FBECDBF083059F0F4
:1038300080E00E94762966E371E080E090E00E94DB
:1038400041101150C9F6083039F48FED94E0F4D0EE
:1038500081E00E94582909C081E00E94672980E028
:103860000E9435290E94B503FDCF64960FB6F894E7
:10387000DEBF0FBECDBFDF91CF911F910F91089595
:10388000CF93DF9300D01F92CDB7DEB781E0FDD399
:1038900062E070E080E090E00E94411080E0F5D3AB
:1038A00066E970E080E090E00E944110A7D31BDF42
:1038B000E1E7F7E188E0818382E080830E94C60D22
:1038C00069837A838B839C8389EF94E00E94F32E33
:1038D00048EA58E460E070E0CE0101960E94DC0FF7
:1038E0000E947B018C01DC0113968C9113978F93BE
:1038F00012968C9112978F9311968C9111978F93AA
:103900008C918F9315968C9115978F9314968C911B
:103910008F938DE095E09F938F930E94E02EE1E7D7
:10392000F7E1128281E08383D80111968C9111977F
:1039300084838C91858315968C9115978683149634
:103940008C911497878313968C9113978087129686
:103950008C91818783E00E94882961E777E180E08C
:1039600032D41ED69F938F9388E395E09F938F93D5
:103970000E94E02E0FB6F894DEBF0FBECDBFA4CFDD
:10398000CF93DF93CDB7DEB766970FB6F894DEBF5F
:103990000FBECDBF81E079D362E070E080E090E0BF
:1039A0000E94411080E071D366E970E080E090E011
:1039B0000E94411023D30FEF1FEF980146E150E022
:1039C000BE016F5F7F4F80915D1990915E190E94DB
:1039D000A20A9A8189811F929F931F928F938DE4EF
:1039E00095E09F938F930E94E02E0F900F900F9081
:1039F0000F900F900F90DFCFEF92FF920F93CF9326
:103A0000E12CF12C082F20E030E048E851E06EE78F
:103A100075E080E49CE10E943C0D20E030E048E845
:103A200051E065E875E080EC9CE10E943C0DCF918F
:103A30000F91FF90EF9008950F93CF93DF93C82FCE
:103A4000D92F44E650E060E070E08091E318909157
:103A5000E4180E942907813099F4DF93CF930E94E4
:103A6000E02E00E020E030E0A90160E070E080910D
:103A7000E3189091E4180E94CD050F900F9004C0B8
:103A800080E995E00E94F32EDF91CF910F91089588
:103A90000F9343E060E081E00E94AA059093E41850
:103AA0008093E31800E020E030E0A90160E070E0DE
:103AB0000E94CD050F910895CF93DF9300D01F9200
:103AC000CDB7DEB70E94C60D69837A838B839C8352
:103AD0004DE750E060E070E0CE0101960E94DC0FFF
:103AE0004ADD91DCF5CFCF93DF9300D01F92CDB7A5
:103AF000DEB70E94C60D69837A838B839C834FE572
:103B000055E060E070E0CE0101960E94DC0F0E945B
:103B10001101F5CFEF92FF920F93E12CF12C00E011
:103B200020E030E040EC50E060EB75E08CE59DE19A
:103B30000E943C0D20E030E040EC50E06CEB75E082
:103B400083E79DE10E943C0D0F91FF90EF90089557
:103B5000E1DF0E94E2029F938F938CEC95E09F93AC
:103B60008F9385EE98E19F938F930E94232F85EE8C
:103B700098E162DF0E94880D0F900F900F900F90D8
:103B80000F900F9008958BED95E00E94F32E81B178
:103B9000816881B980E090E00E94BD272ADC72DC58
:103BA0000E94080183E0D8D5A3D085E00E94C428F4
:103BB00041E060E070E086E190E00E943909909376
:103BC0005E1980935D19BC0181E01FD283E014CFA0
:103BD0000895D9DF5DDF8DEE95E00E94F32EB8DF0A
:103BE000FFCF04D06894B11150C0089533D088F04D
:103BF0009F5790F0B92F9927B751A0F0D1F0660FD9
:103C0000771F881F991F1AF0BA95C9F712C0B130F3
:103C100081F03AD0B1E0089537C0672F782F882718
:103C2000B85F39F0B93FCCF3869577956795B39532
:103C3000D9F73EF490958095709561957F4F8F4FA1
:103C40009F4F089557FD9058440F551F59F05F3FFF
:103C500071F04795880F97FB991F61F09F3F79F0AE
:103C600087950895121613061406551FF2CF469530
:103C7000F1DF08C0161617061806991FF1CF8695B2
:103C80007105610508940895E894BB276627772796
:103C9000CB0197F908956530F1F4FA0180818F73B3
:103CA00090E0982F88272181822B90930A0280939D
:103CB00009028281F0E48F9FC0011124FA0123815F
:103CC00026952695822B909308028093070281E027
:103CD000809387170895643051F080E090E49093CA
:103CE00008028093070290930A02809309020895C4
:103CF0000F931F930BE41EE120E034E244EF50E009
:103D000060E087E20E94AB2990938917809388171F
:103D100021E0892B09F020E0822F1F910F91089557
:103D20008091881790918917009759F040E060E0E2
:103D300070E00E94FC29843031F41092871780E0F3
:103D4000089582E0089583E0089580918817909106
:103D50008917009739F064E00E94482A853021F0E5
:103D600083E0089582E0089580E00895609109025B
:103D700070910A0280E090E00E94262C20E030E062
:103D800048EC52E40E948B2C20E038EF4FE756E4D9
:103D90000C94BB2B0895609107027091080280E09B
:103DA00090E00E94262C20E030E045E253E40E949F
:103DB0008B2C20E038EF4FE756E40E94BB2B20E02D
:103DC00030E040E252E40C94542B08950F931F937B
:103DD000CF93DF931F921F92CDB7DEB78C0119826C
:103DE0002DC0E091EE17EC3250F481E08E0F8093FD
:103DF000EE17F0E0E05EF74E8A81808302C01092F9
:103E0000EE178A818A30D1F44091EE1750E0FA0122
:103E1000E25EF74E1082415051099E012F5F3F4FE5
:103E200060E278E18091F1179091F2170E945E0AAA
:103E3000898181110E94B5031092EE17BE016E5F59
:103E40007F4FC80104D6882361F20F900F90DF9155
:103E5000CF911F910F9108950F931F93CF93DF93ED
:103E60008C01EB018091F1179091F2170E946B0980
:103E7000B8018AE897E10E94C12E209779F0EAE81C
:103E8000F7E101900020E9F7319780E290E091831B
:103E90008083BE018AE897E10E94B62EEAE8F7E146
:103EA000DF010D900020E9F711978DE09AE011965F
:103EB0009C938E9312961C9201900020E9F7319703
:103EC000EA58F741AE2F8AE897E1AC016A2F80915A
:103ED000F3179091F41766D5811111C008E215E02F
:103EE00020E030E04DE250E06AE778E18091F117A0
:103EF0009091F2170E94A20A8AE798E102C080E03E
:103F000090E0DF91CF911F910F9108952F923F92F2
:103F10004F925F926F927F928F929F92AF92BF92D9
:103F2000CF92DF92EF92FF920F931F93CF93DF9385
:103F30005C01FC0101900020E9F731976F01C81A7C
:103F4000D90A5C2C0F2EF7E98F2EF8E09F2EF02D6A
:103F5000E12CF12C4C2C3701F40101811281E80194
:103F600009900020E9F72197C01BD10B3C2EF9E006
:103F7000CF16D10458F0F4012080FEE02F1206C0C5
:103F8000B801C5010E94912E892B09F5442D3514E5
:103F900008F44C2F50E0B801C5010E94C82E892BAF
:103FA00049F4F301EE0FFF1FE60DF71DE956F74F39
:103FB00020800DC08FEFE81AF80AE3E08E0E911C06
:103FC000F1E1EF16F10439F66894222424F8822DE9
:103FD000DF91CF911F910F91FF90EF90DF90CF90E5
:103FE000BF90AF909F908F907F906F905F904F9019
:103FF0003F902F90089530DF89CF08958091F11779
:104000009091F2170C946B0908958F929F92AF9242
:10401000CF92EF920F931F93CF93C82F8B0141E064
:1040200060E070E088EC90E00E9439099093F2170C
:104030008093F1171093F0170093EF170F2EF6EE01
:104040008F2EFEE19F2EF02D6894AA24A6F8689486
:10405000CC24C6F8E12C00E023E040E051EE60E023
:1040600070E08C2FD2D39093F4178093F317E7E08E
:10407000F1E0808180618083CF911F910F91EF905B
:10408000CF90AF909F908F900895882331F0E8E013
:10409000F1E080818F7E80830895E8E0F1E0808107
:1040A00080618083089560E070E08DE196E0D4DE69
:1040B000EAE7F8E101900020E9F73197EA57F84183
:1040C00081E0759708F080E00895CF93DF93EC01CD
:1040D00060E070E08EE296E0BFDEEAE7F8E1019092
:1040E0000020E9F7EB58F84139F46AE778E1CE01AE
:1040F0000E94C12E80E002C0188281E0DF91CF9142
:104100000895FC0101900020E9F79F012151310938
:104110002817390729F4BC018CE596E06CCF089587
:1041200089E00895FC0101900020E9F79F012151E9
:1041300031092817390729F4BC018BE696E05BCFDB
:10414000089589E00895FC0101900020E9F79F019E
:10415000215231092817390729F4BC018AE796E072
:104160004ACF089589E0089560E070E089EB96E019
:1041700042CF08950F931F93E82FF0E0EE0FFF1F3B
:10418000ED56F74F6081718182EC96E034DF81114A
:1041900014C008E215E020E030E04DE250E06AE7AC
:1041A00078E18091F1179091F2170E94A20A88237A
:1041B00021F08AE798E1AADE03C08AE798E1A6DE4B
:1041C0001F910F9108950F931F93CF93DF931F9229
:1041D000CDB7DEB7DB0111969C911197953108F0B0
:1041E000B4C0992381F160E070E0272F30E0462FC2
:1041F00050E0FD01E40FF51F928192959F709A3077
:1042000010F0995C01C0905DF901E55FF74E908375
:104210002F5F3F4FFD01E40FF51F92819F70492FE3
:1042200050E04A30510514F0995C01C0905DF901ED
:10423000E55FF74E90837E5F6F5F11969C911197BB
:10424000691798F201C070E0E72FF0E0E55FF74EE4
:1042500010824C91811103C08BEC96E002C08DEC72
:1042600096E02BE038E13F932F931F924F939F935B
:104270008F9381ED96E09F938F938DE498E19F93C8
:104280008F930E94232F60E070E08DE498E1B3DE0D
:104290000FB6F894DEBF0FBECDBF811159C008E242
:1042A00015E020E030E04DE250E06AE778E18091EF
:1042B000F1179091F2170E94A20A882309F447C0CF
:1042C0008AE798E123DE8E3009F042C087E08983D7
:1042D0008091EF179091F017892BA9F1BE016F5FC4
:1042E0007F4F8AE798E168D18093F517E981F0E084
:1042F000E658F74EDF010D900020E9F71197AE1B4D
:10430000BF0BAA2391F0BB27CD0101979C0112F4AA
:104310002F5F3F4F359527952093F617AF014F5FDD
:104320005F4F64E187EF97E173D101E010E020E097
:1043300030E046E150E065EF77E18091EF17909132
:10434000F0170E949B098EE003C084E101C080E069
:104350000F90DF91CF911F910F910895813019F047
:1043600061EE76E002C06AEB77E085EE96E043CE40
:1043700008959F938F9386E197E09F938F938DE4A9
:1043800098E19F938F930E94232F60E070E08DE46B
:1043900098E131DE0F900F900F900F900F900F90DB
:1043A00008952F923F924F925F926F927F928F92D9
:1043B0009F92AF92BF92CF92DF92EF92FF920F93B4
:1043C0001F93CF93DF93CDB7DEB7A0970FB6F894C6
:1043D000DEBF0FBECDBF63E477E08FE497E03CDD46
:1043E00095DD8111A3C080E2E2E2F2E0DE011196E8
:1043F00001900D928A95E1F79E012F5F3F4F690171
:10440000E12CF12C0F2EFBE5AF2EF7E0BF2EF02DA7
:104410000DE418E10F2EF4E74F2EF7E05F2EF02D9C
:104420000F2EFBE88F2EF7E09F2EF02D0F2EF5EAD2
:104430006F2EF7E07F2EF02D3E2C2F2CFF92EF9267
:10444000BF92AF921F930F930E94232F60E070E002
:10445000C80102DD5BDD0F900F900F900F900F9061
:104460000F90811163C032E03E15E8F4F6018381BC
:104470008F9382818F9381818F9380818F93FF921D
:10448000EF925F924F921F930F930E94232F60E051
:1044900070E0C801E1DC3ADD0FB6F894DEBF0FBE74
:1044A000CDBF811143C02F923F929F928F921F9355
:1044B0000F930E94232F60E070E0C801CDDC26DD61
:1044C0000F900F900F900F900F900F9081112EC0B2
:1044D0002F923F927F926F921F930F930E94232FF0
:1044E00060E070E0C801B8DC11DD0F900F900F9014
:1044F0000F900F900F90811119C03FEFE31AF30A4C
:1045000084E0C80ED11C98E0E916F10409F094CFBC
:1045100060E070E08DEB97E09FDCF8DC811106C075
:1045200060E070E08EEC97E097DCF0DCA0960FB6D0
:10453000F894DEBF0FBECDBFDF91CF911F910F91D9
:10454000FF90EF90DF90CF90BF90AF909F908F90B3
:104550007F906F905F904F903F902F900895EF92D3
:10456000FF920F931F93CF93DF93EC018B017A019E
:1045700081E0F4DE81110DC0CE01D4DD811109C0CE
:10458000C801E1DD811105C0C701BBDD811101C09A
:10459000EBDDDF91CF911F910F91FF90EF90089588
:1045A00090E0FC01EE0FFF1F8E0F9F1FFC01E956EC
:1045B000F74F818192810895DC01009729F1FB0179
:1045C0002081FC0101900020E9F73197E81BF90BED
:1045D000822F90E0E817F907C8F080E008C0880F44
:1045E000382F330F330F830F8053890F2F5FFD0157
:1045F000E20FF11D908130ED390F3A3010F4911136
:10460000EECFFB012083089580E0089580E00895B7
:104610000F931F93CF93DF93DC01EA012097E1F121
:10462000FA0101900020E9F73197E41BF50B32976E
:1046300010F532C08D01040F151F30E0AE01420F9E
:10464000531FFA019081913428F09753592F5295B6
:10465000507F03C0592F5295507F2C0F3D1FF901F9
:104660009181913410F0975301C09053950FF80148
:1046700090838F5F01C080E0282F220F482F50E0E9
:10468000FE0101900020E9F73197EC1BFD0B4E175E
:104690005F0710F48613CECFDF91CF911F910F915A
:1046A00008958091AA18860F8093AA189091AD184A
:1046B000913079F028F09230A9F0933019F10895F3
:1046C0006F3F09F048C01092AA1881E08093AD189E
:1046D0000895663809F03FC01092A91882E08093CF
:1046E000AD180895E091A91881E08E0F8093A91864
:1046F000F0E0E955F74E6083823069F583E08093FE
:10470000AD1808959091A91821E0290F2093A918B8
:10471000963009F581110EC0E7EAF8E1808190E05A
:10472000982F88272181820F911D9093AF18809335
:10473000AE1804C01092AF181092AE181092AD18B7
:10474000E091AB18F091AC18309729F08091AE1839
:104750009091AF18199508958F929F92AF92CF9232
:10476000EF920F930F2EF1E58F2EF3E29F2EF02D97
:104770006894AA24A4F86894CC24C4F8E12C00E03E
:1047800023E040E855E260E070E03FD09093B1183C
:104790008093B0180F91EF90CF90AF909F908F9033
:1047A00008959093AC188093AB180895CF93DF933E
:1047B000CDB7DEB729970FB6F894DEBF0FBECDBFD9
:1047C00089E0E2E4F2E09E012F5F3F4FD9010190C2
:1047D0000D928A95E1F71092AF181092AE18809161
:1047E000B0189091B118009731F0422F532F69E023
:1047F000D9D080E001C082E029960FB6F894DEBFE0
:104800000FBECDBFDF91CF9108952F923F924F926F
:104810005F926F927F928F929F92AF92CF92EF9220
:10482000FF920F931F93CF93DF93CDB7DEB7F82E90
:104830002A013B0188E090E00E945C2D8C018F2DC5
:1048400090E0FC01EE0FFF1FEE54F74E1183008342
:104850000115110509F469C0880F991FFC01E55F76
:10486000FD4F80819181D8018D939C936C2D70E0D8
:1048700084E090E00E94422D1C0161E070E086E03F
:1048800090E00E94422D7C014C2DB101F1D6F8013F
:10489000F582E4826A2D70E084E090E00E94422D6F
:1048A0001C0161E070E086E090E00E94422D7C01F6
:1048B0004A2DB101DDD6D8011396FC92EE921297E3
:1048C00017969C928E921697FFB6F894ED91FC91F4
:1048D000119736978081826080838D909C90C30170
:1048E000B201B4D720E030E040E051E40E948B2CCC
:1048F0009B01AC0160E074E284E79BE43CD720E0DC
:1049000030E040E85FE3D0D671D9F401329760839C
:10491000D801ED91FC911197359788E98083ED914D
:10492000FC91349786E08083FFBEC801DF91CF9170
:104930001F910F91FF90EF90CF90AF909F908F902D
:104940007F906F905F904F903F902F900895CF93FE
:10495000DF93DC01892B01F11296ED91FC91139705
:10496000938182812581981B922384819817B1F0CD
:10497000838126952823C081D181C20FD11D6883F0
:104980008F5F958189238383ED91FC913597808199
:104990008062808380E003C081E001C082E0DF911B
:1049A000CF910895EF92FF920F931F93CF93DF93D0
:1049B0007C01009709F441C0DC011296ED91FC9155
:1049C000139793818281981B858198238481891B09
:1049D0008617A8F1662341F1842F952FDC016150E1
:1049E000462F50E04F5F5F4F480F591FE701EA81A4
:1049F000FB81938182812581981B92238481981762
:104A000079F08C91938126952923608171818B01A6
:104A1000020F111DE80188839F5F8581982393838E
:104A20001196A417B50711F7D701ED91FC913597B1
:104A300080818062808380E003C081E001C082E0E9
:104A4000DF91CF911F910F91FF90EF900895009704
:104A5000D1F0DC011496ED91FC9115979381828140
:104A6000981799F09281858186958923A081B181DB
:104A7000A80FB11D8C91DB018C939F5F85819823DA
:104A8000928380E0089581E0089583E008951F9265
:104A90000F920FB60F9211240BB60F922F933F93E4
:104AA0004F935F936F937F938F939F93AF93BF9336
:104AB000CF93DF93EF93FF93A091B218B091B31807
:104AC000109711F16091C6001496ED91FC91159725
:104AD000938182812581981B92238481981761F0AC
:104AE000838126952823C081D181C20FD11D68837F
:104AF0008F5F9581892383831696ED91FC9117979B
:104B0000309711F0CD011995FF91EF91DF91CF9181
:104B1000BF91AF919F918F917F916F915F914F91D5
:104B20003F912F910F900BBE0F900FBE0F901F90D3
:104B300018951F920F920FB60F9211240BB60F9279
:104B40002F938F939F93AF93BF93EF93FF93E09136
:104B5000B218F091B3183097B9F00280F381E02DCC
:104B6000938182819817B1F092818581282F2695B3
:104B70002923A081B181A20FB11D2C919F5F8923B0
:104B800082832093C6000BC0E1ECF0E080818F7D32
:104B9000808305C0E1ECF0E080818F7D8083FF9110
:104BA000EF91BF91AF919F918F912F910F900BBE7D
:104BB0000F900FBE0F901F9018951F920F920FB677
:104BC0000F9211240BB60F922F933F934F935F9345
:104BD0006F937F938F939F93AF93BF93CF93DF9305
:104BE000EF93FF93A091B418B091B518109711F1FD
:104BF0006091CE001496ED91FC911597938182817E
:104C00002581981B92238481981761F083812695D2
:104C10002823C081D181C20FD11D68838F5F958108
:104C2000892383831696ED91FC911797309711F0A5
:104C3000CD011995FF91EF91DF91CF91BF91AF9188
:104C40009F918F917F916F915F914F913F912F91A4
:104C50000F900BBE0F900FBE0F901F9018951F92D4
:104C60000F920FB60F9211240BB60F922F938F93C2
:104C70009F93AF93BF93EF93FF93E091B418F0919C
:104C8000B5183097B9F00280F381E02D93818281CD
:104C90009817B1F092818581282F26952923A0812C
:104CA000B181A20FB11D2C919F5F89238283209334
:104CB000CE000BC0E9ECF0E080818F7D808305C0E1
:104CC000E9ECF0E080818F7D8083FF91EF91BF91CF
:104CD000AF919F918F912F910F900BBE0F900FBEB0
:104CE0000F901F9018951F920F920FB60F921124DC
:104CF0000BB60F922F933F934F935F936F937F93D6
:104D00008F939F93AF93BF93CF93DF93EF93FF93D3
:104D1000A091B618B091B718109711F16091D60014
:104D20001496ED91FC911597938182812581981BB2
:104D300092238481981761F0838126952823C0816E
:104D4000D181C20FD11D68838F5F958189238383B1
:104D50001696ED91FC911797309711F0CD011995AA
:104D6000FF91EF91DF91CF91BF91AF919F918F9183
:104D70007F916F915F914F913F912F910F900BBE5B
:104D80000F900FBE0F901F9018951F920F920FB6A5
:104D90000F9211240BB60F922F938F939F93AF9383
:104DA000BF93EF93FF93E091B618F091B718309747
:104DB000B9F00280F381E02D938182819817B1F0E0
:104DC00092818581282F26952923A081B181A20F68
:104DD000B11D2C919F5F892382832093D6000BC045
:104DE000E1EDF0E080818F7D808305C0E1EDF0E0B2
:104DF00080818F7D8083FF91EF91BF91AF919F91D3
:104E00008F912F910F900BBE0F900FBE0F901F90A0
:104E100018951F920F920FB60F9211240BB60F9296
:104E20002F933F934F935F936F937F938F939F93B2
:104E3000AF93BF93CF93DF93EF93FF93A091B818F5
:104E4000B091B918109711F1609136011496ED9157
:104E5000FC911597938182812581981B92238481EF
:104E6000981761F0838126952823C081D181C20FD4
:104E7000D11D68838F5F9581892383831696ED9179
:104E8000FC911797309711F0CD011995FF91EF9193
:104E9000DF91CF91BF91AF919F918F917F916F9152
:104EA0005F914F913F912F910F900BBE0F900FBECE
:104EB0000F901F9018951F920F920FB60F9211240A
:104EC0000BB60F922F938F939F93AF93BF93EF9354
:104ED000FF93E091B818F091B9183097B9F00280BB
:104EE000F381E02D938182819817B1F092818581C1
:104EF000282F26952923A081B181A20FB11D2C91C5
:104F00009F5F89238283209336010BC0E1E3F1E0A8
:104F100080818F7D808305C0E1E3F1E080818F7D1A
:104F20008083FF91EF91BF91AF919F918F912F91CE
:104F30000F900BBE0F900FBE0F901F901895CF9340
:104F4000DF931F92CDB7DEB7BE016F5F7F4F8091B9
:104F5000BA189091BB187BDD8111F6CF898190E062
:104F60000F90DF91CF910895682F8091BA1890919A
:104F7000BB18EDDC80E090E008958F929F92AF9295
:104F8000CF92EF920F93812C912C6894AA24A7F8CA
:104F90006894CC24C7F8E12C00E023E040E051EE17
:104FA00060E070E032DC9093BB188093BA18E3E6BF
:104FB000F9E183E192E091838083938382830F916F
:104FC000EF90CF90AF909F908F90089590E0FC016C
:104FD000EE0FFF1FE80FF91FEE0FFF1FE454F74E0F
:104FE000238121111FC09C01220F331FF901E80FFB
:104FF000F91FEE0FFF1FE454F74EA081B1814C91D1
:10500000F901E80FF91FEE0FFF1FE454F74E81E09E
:1050100090E0028002C0880F991F0A94E2F7842B67
:105020008C930895FC01EE0FFF1FDF01A80FB91F3D
:10503000AA0FBB1FA454B74E0D90BC91A02D2C916C
:10504000E80FF91FEE0FFF1FE454F74E81E090E0E8
:10505000028002C0880F991F0A94E2F7809582238C
:105060008C93089590E0FC01EE0FFF1FE80FF91FED
:10507000EE0FFF1FE454F74E2381211120C09C0145
:10508000220F331FF901E80FF91FEE0FFF1FE45441
:10509000F74EA081B1814C91F901E80FF91FEE0F95
:1050A000FF1FE454F74E81E090E0028002C0880FB9
:1050B000991F0A94E2F7809584238C930895FC014C
:1050C000EE0FFF1FDF01A80FB91FAA0FBB1FA454CB
:1050D000B74E0D90BC91A02D2C91E80FF91FEE0F4B
:1050E000FF1FE454F74E81E090E0028002C0880F79
:1050F000991F0A94E2F7822B8C930895CC24C394D1
:10510000D12C6894BB24B2F8CCEBD8E110E08C81B0
:10511000813081F018F1823061F5E881F9812081D8
:10512000C6010A8002C0880F991F0A94E2F78227FD
:1051300080831FC08D818F5F8A3010F48D8319C0EA
:105140001D82E881F9812081C6010A8002C0880F92
:10515000991F0A94E2F7822780830BC00D810023F8
:1051600029F0812F7FDF01500D8303C0BC82812F86
:105170002DDF1F5F2696143051F665E070E080E069
:1051800090E00E944110C0CFEF92FF920F931F93C7
:10519000CF93DF93082F80E487B9CCEBD8E10F2EB3
:1051A000F8E2EF2EF12CF02DF982E88286E08A8376
:1051B0001B8214E01C8380E009DF80E887B9FF824E
:1051C000EE8287E0888719861A8781E0FFDE80E219
:1051D00083BB84E390E09D878C8785E08E871F8664
:1051E000188B82E0F3DE80E18093010182E091E0A0
:1051F0009B8B8A8B1C8B1D8A1E8B83E0E7DEE12C48
:10520000F12C20E030E040EC50E06AEC78E08EE7F2
:1052100098E20E943C0DDF91CF911F910F91FF907A
:10522000EF900895CF93DF9390E0FC01EE0FFF1F06
:10523000DF01A80FB91FAA0FBB1FA454B74ECD9111
:10524000DC911197488121E030E012960C90129782
:1052500002C0220F331F0A94E2F724272883FD019E
:1052600081E08483DF91CF910895CF93DF9390E025
:10527000FC01EE0FFF1FDF01A80FB91FAA0FBB1F14
:10528000A454B74ECD91DC911197488121E030E0D4
:1052900012960C90129702C0220F331F0A94E2F765
:1052A00024272883FD0182E08483DF91CF91089534
:1052B000282F30E0F901EE0FFF1FE20FF31FEE0F72
:1052C000FF1FE454F74E93E09483CCCE0895282F2B
:1052D00030E0F901EE0FFF1FE20FF31FEE0FFF1F8B
:1052E000E454F74E94E0948371CE089590E0FC016D
:1052F000EE0FFF1FDF01A80FB91FAA0FBB1FA45499
:10530000B74E24E015962C931597FD01148208954D
:1053100090E0FC01EE0FFF1FDF01A80FB91FAA0FDD
:10532000BB1FA454B74E21E015962C931597FD0191
:10533000148208958091E21881110CC08CE0809352
:10534000B8008FEF8093BB0084E08093BC0081E0C5
:105350008093E2180895AF92BF92CF92DF92EF92BE
:10536000FF920F931F93CF93DF93A82EB62E690160
:105370007A0184E090E0A0D3EC01892B61F1A8824E
:1053800081E0B81212C0C701B60120EA36E841E058
:1053900050E04ED3DA01C9014097A109B109B69591
:1053A000A79597958795898311C0C701B60120E815
:1053B0003AE146E050E03CD3DA01C9014097A10947
:1053C000B109B695A7959795879589831B830A831D
:1053D0008C2F9D2F02C080E090E0DF91CF911F9134
:1053E0000F91FF90EF90DF90CF90BF90AF90089516
:1053F0008091BC0081700895FF920F931F93CF930B
:10540000DF930097D1F14A30D0F5F42E8B01EC01F7
:10541000EFDF811136C08091D5189091D618C8174A
:10542000D90741F087DF89818093B800D093D618DF
:10543000C093D51881E08F0D8093D7188881880F8D
:105440008093D818FF2089F0F801A9EDB8E14FEF5B
:105450004F0D642F70E0CB010196B801680F791FE2
:1054600081918D93E617F707D9F788EF8093210292
:1054700085EA8093BC0084E005C086E003C087E035
:1054800001C082E0DF91CF911F910F91FF900895AD
:105490001F93CF93DF93009729F16B3028F5162FD8
:1054A000EC01A6DF811122C08091D5189091D61809
:1054B000C817D90741F03EDF89818093B800D093A7
:1054C000D618C093D5181093D7188881880F81609B
:1054D0008093D81888EF8093210285EA8093BC00DE
:1054E00085E005C086E003C087E001C082E0DF916F
:1054F000CF911F9108951F920F920FB60F92112412
:105500000BB60F922F933F934F935F936F937F93BD
:105510008F939F93AF93BF93EF93FF93E091B90065
:105520008E2F90E0FC013897E135F10508F075C049
:105530008827E458FF4F8F4F9DC21092D418E091F6
:10554000D4188091D718E81770F481E08E0F8093FB
:10555000D418F0E0E852F74E80818093BB0085E8D4
:105560008093BC0072C084E98093BC008091D51800
:105570009091D618DC011296ED91FC91139730971B
:1055800009F463C020E040E050E064E019955DC09C
:10559000E091D41881E08E0F8093D4188091BB00E5
:1055A000F0E0E852F74E80838091B900803411F426
:1055B0001092D4182091D41830E08091D71890E040
:1055C00001972817390724F485EC8093BC003DC06F
:1055D00085E88093BC0039C08091BB00E091D4186D
:1055E000F0E0E852F74E808384E98093BC0080911C
:1055F000D5189091D618DC011296ED91FC91139775
:10560000309719F12091D71848ED58E165E01995C8
:105610001CC085EA8093BC0018C08091B9008093BB
:10562000210284E08093BC008091D5189091D61817
:10563000DC011296ED91FC911397309731F020E048
:1056400040E050E0609121021995FF91EF91BF91E8
:10565000AF919F918F917F916F915F914F913F910A
:105660002F910F900BBE0F900FBE0F901F901895AB
:10567000FC01411101C041D3842F90E09C012150D5
:10568000310982239323892B09F037D3413808F05D
:1056900034D3128213824483440F41504583718373
:1056A000608380E090E008955058BB27AA270ED071
:1056B00021C112D130F017D120F031F49F3F11F405
:1056C0001EF407C10EF4E095E7FBFDC0E92F0E9430
:1056D000221E78F3BA17620773078407950720F034
:1056E00079F4A6F50C94441E0EF4E0950B2EBA2F17
:1056F000A02D0B01B90190010C01CA01A0011124D8
:10570000FF27591B99F0593F50F4503E68F11A1683
:10571000F040A22F232F342F4427585FF3CF469514
:1057200037952795A795F0405395C9F77EF41F1636
:10573000BA0B620B730B840BBAF09150A1F0FF0F00
:10574000BB1F661F771F881FC2F70EC0BA0F621FEC
:10575000731F841F48F4879577956795B795F795DC
:105760009E3F08F0B1CF9395880F08F09927EE0F70
:105770009795879508950DD0BDC0B5D048F0ACD0B1
:1057800038F021F45F3F21F09EC051110C94451E6A
:10579000A0C00E94221E88F39923B9F35523A1F3D8
:1057A000951B550BBB27AA2762177307840738F090
:1057B0009F5F5F4F220F331F441FAA1FA9F334D0EE
:1057C0000E2E3AF0E0E831D091505040E695001CA2
:1057D000CAF72AD0FE2F28D0660F771F881FBB1F5D
:1057E000261737074807AB07B0E809F0BB0B802D39
:1057F000BF01FF2793585F4F32F09E3F510570F075
:1058000062C00C94451E5F3FE4F3983ED4F3869546
:1058100077956795B795F7959F5FC9F7880F911DA5
:105820009695879597F90895E1E0660F771F881F91
:10583000BB1F621773078407BA0720F0621B730B44
:10584000840BBA0BEE1F88F7E0950895E89409C021
:1058500097FB3EF490958095709561957F4F8F4FA3
:105860009F4F9923A9F0F92F96E9BB279395F695B9
:10587000879577956795B795F111F8CFFAF4BB0F37
:1058800011F460FF1BC06F5F7F4F8F4F9F4F16C09B
:10589000882311F096E911C0772321F09EE8872F25
:1058A000762F05C0662371F096E8862F70E060E0E1
:1058B0002AF09A95660F771F881FDAF7880F96955A
:1058C000879597F9089597F99F6780E870E060E001
:1058D00008959FEF80EC089500240A941616170689
:1058E00018060906089500240A94121613061406D1
:1058F00005060895092E0394000C11F4882352F034
:10590000BB0F40F4BF2B11F460FF04C06F5F7F4FEB
:105910008F4F9F4F08950CD0EDCFDEDF28F0E3DFEF
:1059200018F0952309F0CFCFD4CF11240C94451E45
:105930000E94221E90F3959FC1F3950F50E0551FD2
:10594000629FF001729FBB27F00DB11D639FAA27D4
:10595000F00DB11DAA1F649F6627B00DA11D661F23
:10596000829F2227B00DA11D621F739FB00DA11D44
:10597000621F839FA00D611D221F749F3327A00DFE
:10598000611D231F849F600D211D822F762F6A2F9A
:1059900011249F57504092F0E9F088234AF0EE0F0F
:1059A000FF1FBB1F661F771F881F91505040A9F72C
:1059B0009E3F510578F087CF0C94451E5F3FE4F37E
:1059C000983ED4F3869577956795B795F795E795C3
:1059D0009F5FC1F7FE2B880F911D9695879597F9CC
:1059E0000895AA1BBB1B51E107C0AA1FBB1FA61726
:1059F000B70710F0A61BB70B881F991F5A95A9F778
:105A000080959095BC01CD01089597FB072E16F463
:105A1000009406D077FD08D0E4DF07FC05D03EF403
:105A2000909581959F4F0895709561957F4F08954A
:105A3000A1E21A2EAA1BBB1BFD010DC0AA1FBB1F92
:105A4000EE1FFF1FA217B307E407F50720F0A21B04
:105A5000B30BE40BF50B661F771F881F991F1A9471
:105A600069F760957095809590959B01AC01BD019B
:105A7000CF010895EE0FFF1F881F8BBF0790F6918F
:105A8000E02D19940F931F93CF93DF93869F80018E
:105A9000879F100D969F100D1124C8010DD0EC01A9
:105AA000009721F0A80160E070E034D1CE01DF91D1
:105AB000CF911F910F9108950F931F93CF93DF9371
:105AC0008230910510F482E090E0E0916119F0914C
:105AD000621920E030E0A0E0B0E0309719F1408199
