:10000000E5C0000004C1000002C1000000C1000002
:10001000FEC00000FCC00000FAC00000F8C00000F4
:10002000F6C00000F4C00000F2C00000F0C0000004
:1000300027C40000ECC00000EAC00000E8C00000D7
:10004000E6C00000E4C00000E2C00000E0C0000024
:10005000DEC00000DCC00000DAC00000D8C0000034
:10006000D6C000000C9445220C949722D0C000000A
:10007000CEC00000CCC00000CAC00000C8C0000054
:10008000C6C00000C4C00000C2C00000C0C0000064
:100090000C94DB220C942D23BAC000000C94792719
:1000A000B6C00000B4C00000B2C00000B0C0000084
:1000B000AEC00000ACC00000AAC00000A8C0000094
:1000C000A6C00000A4C00000A2C000000C947123D0
:1000D0000C94C3239CC000000C9407240C94592456
:1000E00096C0000020172017201757175F177417A6
:1000F0002017201757175F179B270B280B280B2853
:100100000B280B280B280B289B270B280B280B28C8
:100110000B280B280B280B289D270B280B280B28B6
:100120000B280B280B280B280B280B280B280B2837
:100130000B280B280B280B289D270B280B280B2896
:100140000B280B280B280B280B280B280B280B2817
:100150000B280B280B280B2807280B280B280B280B
:100160000B280B280B280B28D2270B280B280B2831
:100170000B280B280B280B280B280B280B280B28E7
:100180000B280B280B280B28C6270B280B280B281D
:100190000B280B280B280B28EA270E94700B809154
:1001A0009B11823008F0A6D20E949D17F6CFCF9304
:1001B000DF931F92CDB7DEB7CE0101960E949D144A
:1001C00049810E9492160E94E916F6CF11241FBEA3
:1001D000CFEFD1E2DEBFCDBF00E00CBF17E0A0E063
:1001E000B2E0EEEAFDE500E00BBF02C007900D9221
:1001F000A637B107D9F723E1A6E7B7E001C01D9202
:10020000A03CB207E1F70E94E81A0C94D52EF8CE74
:100210000F93CF93DF931F921F92CDB7DEB79A83D0
:10022000898300E02FEF3FEFA901BE016F5F7F4F91
:1002300080919F139091A01365D40F900F90DF9140
:10024000CF910F91089540E062E08FE038D4909311
:10025000A01380939F1308950E94D420811105C09C
:1002600088E091E00C94CF2008958FE692E00C9402
:10027000CA2B0895CF93DF931F921F92CDB7DEB79D
:100280002CED35E040E050E0BE016F5F7F4F809184
:100290009F139091A01301D589819A810F900F909F
:1002A000DF91CF910895E2E8F7E0A6E8B7E0B183E7
:1002B000A08313821282E6E4F1E1F0938107E093D8
:1002C0008007138212821182108280EC99E01396CB
:1002D0009C938E931297ED93FC9390937D0780935C
:1002E0007C0790937F0780937E0780E090E890934F
:1002F0007707809376070895CF93DF93EC01A2E808
:10030000B7E001C0DF01ED91FC911197EC17FD07FB
:10031000C8F312968D919C9113979D01280F391F58
:10032000C217D30749F42A813B81820F931F13968A
:100330009C938E931297ED018A819B819E01280FD9
:10034000391FE217F307C1F420918007309181072C
:10035000E217F30771F022813381820F931F9B8391
:100360008A83ED91FC911197808191819983888393
:1003700005C03983288302C0F983E883CA17DB07E5
:1003800011F0CD93DC93DF91CF910895EF92FF921E
:100390000F931F93CF93DF938C010E94BB0C80912E
:1003A000800790918107892B09F47DDF8091760782
:1003B0009091770780239123892B09F076C001154E
:1003C000110549F0C80104960817190718F000E054
:1003D00010E001C08C010115110509F469C080917C
:1003E0007E0790917F078017910708F464C0C09141
:1003F0008207D0918307E2E8F7E002C0FE01EC013A
:100400008A819B818017910720F4888199810097C8
:10041000A9F78091800790918107C817D90709F43F
:100420004DC0E080F18084E0E80EF11C8881998164
:10043000918380832A813B81201B310B2930310538
:1004400048F0CE01800F911FFC01338322831B8370
:100450000A8352DF2A813B8180917E0790917F073A
:10046000821B930B90937F0780937E0740917C07BC
:1004700050917D078417950720F490937D07809312
:100480007C078091760790917707282B392B3B8347
:100490002A831982188280917A0790917B070196AE
:1004A00090937B0780937A070BC0E12CF12C08C056
:1004B000E12CF12C05C0E12CF12C02C0E12CF12C37
:1004C0000E94FB0DE114F10411F40E94A917C70169
:1004D000DF91CF911F910F91FF90EF9008950F93AF
:1004E0001F93CF93DF93009791F1EC0124974A81FA
:1004F0005B812091760730917707BA0162237323DD
:10050000672B29F168817981672B09F52095309552
:10051000242335233B832A830E94BB0C8A819B8141
:1005200020917E0730917F07820F931F90937F0762
:1005300080937E07CE01E0DE809178079091790765
:10054000019690937907809378070E94FB0DDF91C5
:10055000CF911F910F910895FC010396928381839F
:100560004FEF5FEFBA0143835483658376839087AF
:1005700087839287818710820895FC0113861286F3
:1005800008950F931F93CF93DF93EB010881198197
:100590002A813B810F3F4FEF14072407340721F4D2
:1005A000FC01A185B28511C0DC01139601C0DF01F9
:1005B0001496ED91FC911597408151816281738170
:1005C000041715072607370790F71496ED91FC914D
:1005D0001597FD83EC83D783C683BF83AE831596BF
:1005E000DC93CE9314979B878A87FC0120812F5F31
:1005F0002083DF91CF911F910F910895CF93DF93C7
:10060000FC01A285B385C481D581868197819F83B2
:100610008E83C681D781848195819D838C83119639
:100620008D919C911297E817F90731F48681978193
:1006300012969C938E931197138612868C918150FB
:100640008C938C91DF91CF910895A89590EC88E1DF
:100650000FB6F894A895809360000FBE9093600049
:100660000895FC0160833197708331971082319730
:100670001082319720E820833197108231971082C1
:1006800031971082779740833197508386970895EA
:10069000DCDFA0910912B0910A12CD91CDBFDD919E
:1006A000DEBFFF91EF91DF91CF91BF91AF919F910D
:1006B0008F917F916F915F914F913F912F911F91FA
:1006C0000F91FF90EF90DF90CF90BF90AF909F90F1
:1006D0008F907F906F905F904F903F902F901F90E2
:1006E0000F900CBE0F900BBE0F900FBE0F90089591
:1006F00081E008950F920FB6F8940F920BB60F9207
:100700000CB60F921F9211242F923F924F925F923C
:100710006F927F928F929F92AF92BF92CF92DF9211
:10072000EF92FF920F931F932F933F934F935F93FB
:100730006F937F938F939F93AF93BF93CF93DF93E9
:10074000EF93FF93A0910912B0910A120DB60D928A
:100750000EB60D920E94570FA0910912B0910A1285
:10076000CD91CDBFDD91DEBFFF91EF91DF91CF91B4
:10077000BF91AF919F918F917F916F915F914F91B9
:100780003F912F911F910F91FF90EF90DF90CF90AD
:10079000BF90AF909F908F907F906F905F904F90A1
:1007A0003F902F901F900F900CBE0F900BBE0F909C
:1007B0000FBE0F9008950F920FB6F8940F920BB6DC
:1007C0000F920CB60F921F9211242F923F924F92CC
:1007D0005F926F927F928F929F92AF92BF92CF92D1
:1007E000DF92EF92FF920F931F932F933F934F93BC
:1007F0005F936F937F938F939F93AF93BF93CF93A9
:10080000DF93EF93FF93A0910912B0910A120DB6F6
:100810000D920EB60D9213BE0E94CF0C81110E9454
:10082000570FA0910912B0910A12CD91CDBFDD9161
:10083000DEBFFF91EF91DF91CF91BF91AF919F917B
:100840008F917F916F915F914F913F912F911F9168
:100850000F91FF90EF90DF90CF90BF90AF909F905F
:100860008F907F906F905F904F903F902F901F9050
:100870000F900CBE0F900BBE0F900FBE0F900895FF
:100880009ADF18950FB6F8940F92FC01868D8111AE
:1008900002C081E001C080E00F900FBE08950FB646
:1008A000F8940F92FC01268D878D281302C081E0F9
:1008B00001C080E00F900FBE08950F931F93CF9358
:1008C000DF93EC01042F1E8D48A141110CC08881DB
:1008D0009981892B09F042C08C819D810E94681109
:1008E0001D821C8242C0011117C050E08A819B8189
:1008F0000E94582B28A18A819B81820F911D9B8386
:100900008A832C813D818217930750F188819981D8
:100910009B838A8380E029C050E08E819F810E9462
:10092000582B88A190E09195819591092E813F8166
:10093000280F391F3F832E8348815981241735079B
:1009400030F42C813D81820F931F9F838E83023070
:1009500049F4112349F0115080E007C080E005C040
:1009600080E003C080E001C080E01F5F1E8FDF9148
:10097000CF911F910F910895FC0140A14423A9F04C
:1009800050E026813781240F351F378326838481E9
:1009900095812817390720F080819181978386837C
:1009A000CB01668177810C94582B08951F93CF93C8
:1009B000DF93EC010FB6F8940F921AA10BC08B894C
:1009C000882351F0CE0143960E94151081110E9498
:1009D0005111115011169CF38FEF8AA30F900FBE87
:1009E0000FB6F8940F9219A10BC08885882351F097
:1009F000CE0108960E94151081110E9451111150CC
:100A000011169CF38FEF89A30F900FBEDF91CF914A
:100A10001F910895CF93DF93EC010FB6F8940F92D6
:100A2000E881F9818F8D28A190E030E0829FA001BC
:100A3000839F500D929F500D11244E0F5F1F5D83B9
:100A40004C831E8EFB83EA830197289FA001299F78
:100A5000500D389F500D1124CF01840F951F9F8397
:100A60008E838FEF89A38AA361110BC088858823A9
:100A700071F0CE0108960E941510882341F03ADEED
:100A800006C0CE01089668DDCE01439665DD0F9065
:100A90000FBE81E0DF91CF9108950F931F93F8016E
:100AA000611103C01183008302C051834083878F8B
:100AB00060A361E0CF01AEDF1F910F910895DF9237
:100AC000EF92FF920F931F93CF93DF93F82EE62EB2
:100AD000D42E869FC0011124839658DCEC01009728
:100AE00041F08C012D2DAC014D5D5F4F6E2D8F2D92
:100AF000D4DFCE01DF91CF911F910F91FF90EF9046
:100B0000DF900895CF92DF92EF92FF920F931F93A1
:100B1000CF93DF93CDB7DEB729970FB6F894DEBF3A
:100B20000FBECDBF7C016B012E833F834887598761
:100B300010E00FB6F8940F92F701968D878D9817F5
:100B400010F00230B1F4402FB601C701B6DEF70154
:100B50009389992341F0C70143960E941510882379
:100B600021F0C8DD02C08111C5DD0F900FBE81E00C
:100B70004AC08E819F81A885B985892B8A2B8B2BB2
:100B800021F40F900FBE80E03EC0111105C0CE01D0
:100B900001960E94DA1011E00F900FBEECD60FB64E
:100BA000F8940F92F70181A18F3F09F411A2F70188
:100BB00082A18F3F09F412A20F900FBEBE016A5F9F
:100BC0007F4FCE0101960E94EB10811118C0C70122
:100BD00066DE882381F04E815F8168857985C70153
:100BE00008960E94BC0FC701E1DE0E94FB0D811137
:100BF000A0CF80DD9ECFC701D9DEFDD79ACFC70138
:100C0000D5DEF9D780E029960FB6F894DEBF0FBE87
:100C1000CDBFDF91CF911F910F91FF90EF90DF90AB
:100C2000CF900895EF92FF920F931F93CF93DF938E
:100C30008A01FC01568D378D531710F02230F9F4DC
:100C4000422F7801EC011AA18E8DCE0136DE1F3FB6
:100C500081F48B898823A9F0CE0143960E94151058
:100C6000882389F0E114F10481F081E0F7018083A9
:100C70000DC0FF24F394F10EFAA281E007C080E0DA
:100C800005C081E003C081E001C081E0DF91CF9128
:100C90001F910F91FF90EF900895CF92DF92EF9206
:100CA000FF920F931F93CF93DF93CDB7DEB72997B2
:100CB0000FB6F894DEBF0FBECDBF8C016B012E8343
:100CC0003F8348875987E12C0FB6F8940F92F801BB
:100CD000F68CFF2099F0B601C8014EDEFA94F801B7
:100CE000F68E8085882331F0C80108960E94151081
:100CF000811100DD0F900FBE81E04FC08E819F817A
:100D0000A885B985892B8A2B8B2B21F40F900FBED8
:100D100080E043C0E11006C0CE0101960E94DA10C7
:100D2000EE24E3940F900FBE26D60FB6F8940F92E0
:100D3000F80181A18F3F09F411A2F80182A18F3F30
:100D400009F412A20F900FBEBE016A5F7F4FCE0161
:100D500001960E94EB10811117C0C80193DD882312
:100D600079F04E815F8168857985C80143960E943C
:100D7000BC0FC8011BDE3FD78111A6CFBBDCA4CFBF
:100D8000C80114DE38D7A0CFC80110DE34D7C8019F
:100D900079DD882309F498CF80E029960FB6F8947E
:100DA000DEBF0FBECDBFDF91CF911F910F91FF909E
:100DB000EF90DF90CF900895CF93DF93EC010FB6C3
:100DC000F8940F9289A18F3F09F419A28AA18F3F4D
:100DD00009F41AA20F900FBE8E8D811104C0CE01AE
:100DE00043960E94D30FCE01E1DDDF91CF910895AC
:100DF000FC014481558122813381240F351F80817C
:100E00009181B901681B790BCB016417750710F04C
:100E1000841B950B08950F93FC018FE0DF011D9259
:100E20008A95E9F7758764875583448337832683DA
:100E300006870F910895AF92BF92CF92DF92EF9203
:100E4000FF920F931F93CF93DF936C015B017A01A5
:100E5000FC01C281D381048115810C1B1D0B40173D
:100E6000510708F48A01F60184859585A801B5012A
:100E70008C0F9D1F0E94582B0E151F0558F4A701BB
:100E8000401B510BB501600F711FF60184859585DC
:100E90000E94582BCE018E0D9F1DF60124813581B5
:100EA0008217930710F0821B930BF60193838283C2
:100EB000C701DF91CF911F910F91FF90EF90DF90CD
:100EC000CF90BF90AF900895CF92DF92EF92FF92B4
:100ED0000F931F93CF93DF931F921F92CDB7DEB76F
:100EE0007C016B015A83498321153105C1F0FC0156
:100EF000868580FD08C04217530708F49A013A839B
:100F0000298381E00FC02017310758F042E050E0FC
:100F1000BE016F5F7F4FC7018EDF81E003C080E0BD
:100F200001C080E0882331F049815A81B601C701B0
:100F300082DF02C080E090E00F900F90DF91CF91B0
:100F40001F910F91FF90EF90DF90CF900895AF9297
:100F5000BF92CF92DF92EF92FF920F931F93CF93A6
:100F6000DF937C015B01E9014217530708F4EA01B2
:100F7000209781F1F7010081118184819581801B87
:100F8000910B6E018C179D0708F46C01F7016485C5
:100F90007585600F711FA601C5010E94582BCC16E4
:100FA000DD0658F4AE014C195D09F70164857585BD
:100FB000C5018C0D9D1D0E94582B0C0F1D1FF701A4
:100FC000848195810817190710F0081B190BF70188
:100FD00011830083CE01DF91CF911F910F91FF907C
:100FE000EF90DF90CF90BF90AF9008956F927F9277
:100FF0008F929F92AF92BF92CF92DF92EF92FF9229
:101000000F931F93CF93DF931F921F92CDB7DEB73D
:101010006C014B015A01790101151105B1F0FC0178
:1010200060807180A801BE016F5F7F4F90DF898172
:101030009A81E01AF10AA816B90630F4F601718215
:101040006082A12CB12C01C05C019701A501B40103
:10105000C6017DDF0F900F90DF91CF911F910F910F
:10106000FF90EF90DF90CF90BF90AF909F908F90C8
:101070007F906F900895CF92DF92EF92FF920F933F
:10108000CF93DF93EC016B01413011F401E001C01B
:1010900000E0C114D10419F4CC24C394D12CCE01A6
:1010A0004096C817D90720F4219670D97C0102C058
:1010B000E12CF12CE114F10439F09601AE01B701F5
:1010C000615F7F4FC701A7DEC701DF91CF910F910D
:1010D000FF90EF90DF90CF9008950F930FB6F894A4
:1010E0000F92FC0120853185232B71F422853385F5
:1010F000232B61F426813781448155816485758570
:10110000068589DE81E003C080E001C080E00F90A9
:101110000FBE0F910895FC0124813581808191815A
:10112000820F931F42815381841B950B0197821775
:10113000930710F0821B930B08952F923F924F92CA
:101140005F926F927F928F929F92AF92BF92CF9257
:10115000DF92EF92FF920F931F93CF93DF93CDB760
:10116000DEB72B970FB6F894DEBF0FBECDBF4C0194
:101170007B876A871A010E831F8328873987FC01C2
:10118000848195810197268520FF0CC02A01F2E019
:101190004F0E511C8415950558F41E821F82188627
:1011A000198606C08417950710F02A0101C02C018A
:1011B0008E819F81A885B985892B8A2B8B2B09F479
:1011C00036C0CE010196E0D70FB6F8940F92C40155
:1011D000A2DF3C018415950538F560E080E090E0E1
:1011E0000E9483140E945511F401938782870F9007
:1011F0000FBEAE80BF80C884D984E12CF12C00E002
:1012000010E0980140E050E0BA0180E00E94C31174
:10121000F40113861286BE016A5F7F4FCE010196EC
:10122000DAD7882389F205C00F900FBE02C0612C67
:10123000712C6114710419F4C4016DDF3C01820149
:101240009301A1016A857B85C4013EDE6C01892B77
:10125000E9F0C401CDDDF4012681378182179307BF
:10126000A8F089D3F40180859185892B71F0808560
:101270009185E12CF12C00E020E030E0A90160E054
:101280000E946A12F40111861086B5D4C6012B960D
:101290000FB6F894DEBF0FBECDBFDF91CF911F9187
:1012A0000F91FF90EF90DF90CF90BF90AF909F9005
:1012B0008F907F906F905F904F903F902F90089508
:1012C000AF92BF92CF92DF92EF92FF920F931F9354
:1012D000CF93DF93EC017B015A0169018E8580FF7A
:1012E00004C08A010E5F1F4F01C08A01CE0113DFC7
:1012F0009C01A501B701CE01E7DD5C01892BC1F09E
:10130000CE0176DD2E813F818217930788F0888594
:101310009985892B69F088859985E12CF12C00E06D
:1013200020E030E0A90160E00E9461131986188670
:10133000C501DF91CF911F910F91FF90EF90DF904A
:10134000CF90BF90AF9008954F925F926F927F922F
:101350008F929F92AF92BF92CF92DF92EF92FF92C5
:101360000F931F93CF93DF93EC012B013A015801A8
:1013700069018E8580FF05C06894882481F8912CCE
:1013800002C0812C912CA114B104C104D10431F10B
:101390000FB6F8940F92CE012BDD7C0188169906CA
:1013A00040F060E080E090E00E9483147ED799874F
:1013B00088870F900FBE8E149F0498F0E12CF12CBB
:1013C00000E010E0980140E050E0BA0180E0DBD797
:1013D00019861886CE010CDD7C0103C0CE0108DD24
:1013E0007C018E149F04E8F484019701A301B201EB
:1013F000CE01FCDD6C01892BB1F0BDD28A859B85C5
:10140000892B69F08A859B85E12CF12C00E020E096
:1014100030E0A90160E00E946A121B861A86EBD3B5
:1014200002C0C12CD12CC601DF91CF911F910F9129
:10143000FF90EF90DF90CF90BF90AF909F908F90F4
:101440007F906F905F904F900895E0918311F0919D
:101450008411808181110CC08FEF9FEFDC0180939C
:101460004D1190934E11A0934F11B09350110895C8
:10147000E0918311F09184110780F085E02D808147
:101480009181A281B38180934D1190934E11A093CD
:101490004F11B09350110895CF93DF93EC018B8DD2
:1014A0009C8D1DD8CE011BD8DF91CF9108954F920E
:1014B0005F926F927F928F929F92AF92BF92CF92E4
:1014C000DF92EF92FF920F93CF93DF932C015B019A
:1014D0004A013901E60165EA70E08B8D9C8D0E941E
:1014E000612B8B8D9C8D21E0821A9108880E991EAC
:1014F000A114B10489F415C0822F90E0F501E80F22
:10150000F91F3081DE01A80FB91F5D963C938081E1
:10151000882329F02F5F01C020E0203168F31CA64A
:1015200001C01D8E0A3008F009E00A8F0DA71EA623
:10153000CE01029622D8CE010E961FD8DB87CA872D
:101540008AE090E0A0E0B0E0801B9109A109B10918
:101550008E879F87A88BB98BDF8BCE8B84E0FE01B3
:10156000BF96DF011D928A95E9F71BAAA301B2017C
:10157000C40177D899838883E114F10419F0F70145
:10158000D183C083DF91CF910F91FF90EF90DF90D7
:10159000CF90BF90AF909F908F907F906F905F9013
:1015A0004F900895CF93C0E009C02BE0C29FC001C7
:1015B000112485569E4E0E94AC02CF5FCA30A8F31C
:1015C00080E991E10E94AC0285E891E10E94AC02C1
:1015D00086E791E10E94AC028BE691E10E94AC02A9
:1015E0008FE591E10E94AC0280E991E19093841132
:1015F0008093831185E891E190938211809381110A
:10160000CF910895CF93DF93EC010FB6F8940F922A
:1016100080915E118F5F80935E118091091290918D
:101620000A12892B51F4D0930A12C09309128091A7
:101630005E11813091F4B6DF10C080915811811194
:101640000CC0E0910912F0910A12928D8A8D8917CF
:1016500020F0D0930A12C0930912809151118F5F2C
:1016600080935111EA8D809159118E1710F4E093F7
:1016700059118BE08E9FF0011124E556FE4E01803A
:10168000F281E02DFF83EE83268137813987288719
:10169000A681B7819E012E5F3F4F15963C932E93F6
:1016A000149737832683EA8D8E9FF0011124E55627
:1016B000FE4EFD87EC8780818F5F80830F900FBE89
:1016C00080915811882349F0E0910912F0910A1293
:1016D000928D8A8D981708F40DD8DF91CF910895D7
:1016E000CF93DF931BC00FB6F8940F92E091721165
:1016F000F0917311C085D185CE0102960E94FE0241
:1017000080915E11815080935E1180916A118150A9
:1017100080936A110F900FBECE01BEDE80916A11D8
:101720008111E1CFDF91CF9108958F929F92AF9277
:10173000BF92CF92DF92EF92FF92CF93DF936B0134
:101740007C01C42F80905A1190905B11A0905C1185
:10175000B0905D118091091290910A1202960E9438
:10176000FE028FEFC816D806E806F806B1F5CC23BE
:10177000A1F1EFE5F1E1A181B281C0910912D0910F
:101780000A12BF83AE83C0910912D0910A12169635
:101790008D919C911797998788871696CD91DC91AA
:1017A00017978091091290910A1202969D838C835B
:1017B0008091091290910A12029617969C938E932B
:1017C0001697A0910912B0910A121D96FC93EE9300
:1017D0001C9780818F5F80833FC0C80CD91CEA1C96
:1017E000FB1CE0910912F0910A12C282D382E482BA
:1017F000F582C814D904EA04FB0468F46091091264
:1018000070910A1280918111909182116E5F7F4FC9
:101810000E94C10221C06091091270910A12809148
:101820008311909184116E5F7F4F0E94C10280915D
:101830004D1190914E11A0914F11B0915011C816B9
:10184000D906EA06FB0640F4C0924D11D0924E1123
:10185000E0924F11F0925011DF91CF91FF90EF90F5
:10186000DF90CF90BF90AF909F908F9008952F9270
:101870003F924F925F926F927F928F929F92AF9220
:10188000BF92CF92DF92EF92FF920F93CF93DF93AD
:101890003C011B014A012901CA010E94C6016C01D9
:1018A000892B71F084E390E00E94C601EC01892B42
:1018B00019F0DC8ECB8E06C0C6010E946F0202C0FA
:1018C000C0E0D0E0209761F0A12CB12C6E01920114
:1018D000A401B101C301EBDDCE0194DE81E001C0C2
:1018E0008FEFDF91CF910F91FF90EF90DF90CF902E
:1018F000BF90AF909F908F907F906F905F904F9030
:101900003F902F900895EF92FF920F930F2EFBE4DC
:10191000EF2EF1E1FF2EF02D00E020E030E040EC72
:1019200050E06CE772E08DEC90E0A1DF813011F4C3
:101930000E9427158130C9F4F8948FEF9FEFDC01E6
:1019400080934D1190934E11A0934F11B09350116D
:1019500081E08093581110925A1110925B111092ED
:101960005C1110925D110E944803809106020F9154
:10197000FF90EF90089580914A118F5F80934A11F4
:1019800008950FB6F8940F9260915A1170915B11FF
:1019900080915C1190915D110F900FBE0895CF92D0
:1019A000DF92EF92FF92CF93DF9380914A118111E2
:1019B00005C1C0905A11D0905B11E0905C11F0907D
:1019C0005D118FEFC81AD80AE80AF80AC0925A11B6
:1019D000D0925B11E0925C11F0925D11C114D104C0
:1019E000E104F104B1F4809183119091841120916C
:1019F000811130918211309384112093831190933F
:101A0000821180938111809152118F5F80935211C6
:101A10001CDD80914D1190914E11A0914F11B0910C
:101A20005011C816D906EA06FB0620F480E0B2C0C1
:101A300081E001C080E0E0918311F09184119081F8
:101A400091110CC04FEF5FEFBA0140934D115093CD
:101A50004E1160934F11709350119CC0E09183110F
:101A6000F09184110780F085E02D0084F185E02D50
:101A70004281538164817581C416D506E606F70656
:101A800048F440934D1150934E1160934F11709351
:101A9000501180C0A485B585C681D7812085318548
:101AA0003F832E83C085D185268137813D832C835A
:101AB00011964D915C9112979F012E5F3F4F4217F7
:101AC000530731F44085518512965C934E931197DC
:101AD000158614869C9191509C93A08DB18D109782
:101AE00009F1C289D389448955895F834E83C489AA
:101AF000D589428953895D834C8311966D917C9180
:101B00001297AF01425F5F4F6417750731F4448944
:101B1000558912965C934E931197118E108E9C915D
:101B200091509C93A28D909159119A1710F4A09303
:101B300059119BE09A9FD0011124A556BE4E1196D3
:101B40000D90BC91A02DB783A68316964D915C9104
:101B50001797518740871696CD91DC9117973D8353
:101B60002C8317963C932E931697A28D9A9FD001A3
:101B70001124A556BE4EB587A4879C919F5F9C9368
:101B8000228DE0910912F0910A12928D291708F026
:101B90004FCF51CFE0910912F0910A12E28D9BE0F4
:101BA000E99FF0011124E556FE4E9081923008F035
:101BB00081E090915311911116C016C0809154117B
:101BC00090915511A0915611B09157110196A11DF8
:101BD000B11D8093541190935511A0935611B09359
:101BE000571180E001C081E0DF91CF91FF90EF902D
:101BF000DF90CF900895CF92DF92EF92FF92CF9334
:101C0000DF930FB6F8940F9280914A118150809320
:101C10004A1180914A118111BEC080915E118111DB
:101C200088C0BCC0E0917D11F0917E110084F185E7
:101C3000E02DA08DB18DC289D389848995899F8338
:101C40008E83C489D589828993899D838C831196DB
:101C50002D913C911297CF010E962817390731F438
:101C60008489958912969C938E931197118E108E6C
:101C70008C9181508C93A485B585C681D781808550
:101C800091859F838E83C085D185868197819D8331
:101C90008C8311968D919C9112979F012E5F3F4FDF
:101CA0008217930731F48085918512969C938E93C9
:101CB0001197158614868C9181508C93A28D8091FA
:101CC00059118A1710F4A09359118BE08A9FD00103
:101CD0001124A556BE4E11960D90BC91A02DB78330
:101CE000A68316964D915C9117975187408716965B
:101CF000CD91DC9117973D832C8317963C932E93BF
:101D00001697A28D8A9FD0011124A556BE4EB58785
:101D1000A4878C918F5F8C93928DA0910912B091C2
:101D20000A125A968C91981730F081E080935311E3
:101D300002C0E0E0F0E080917611811173CFEF2BCB
:101D400009F083DBC0905411D0905511E0905611EA
:101D5000F0905711C114D104E104F104A1F01FDE89
:101D6000882319F081E08093531181E0C81AD108CB
:101D7000E108F108A1F71092541110925511109238
:101D800056111092571180915311882331F00E94FF
:101D90007A0381E003C080E001C080E00F900FBEB5
:101DA000DF91CF91FF90EF90DF90CF9008958F92C9
:101DB0009F92AF92BF92CF92DF92EF92FF921F93CA
:101DC000CF93DF93EC016A017B01D5DD80905A113E
:101DD00090905B11A0905C11B0905D118881998109
:101DE000AA81BB81AC01BD014C0D5D1D6E1D7F1D27
:101DF00088169906AA06BB0660F4481759076A07B1
:101E00007B0798F484169506A606B70680F010E0C6
:101E100013C0481759076A077B0758F084169506C0
:101E2000A606B70640F010E007C010E005C011E0BC
:101E300003C011E001C011E0488359836A837B83AA
:101E4000112341F0CB01BA01681979098A099B096C
:101E500040E06BDCD0DE811102C00E947A03812F4A
:101E6000DF91CF911F91FF90EF90DF90CF90BF90C7
:101E7000AF909F908F900895CF92DF92EF92FF9254
:101E80006B017C01672B682B692B39F074DD40E016
:101E9000C701B6014ADCAFDE01C080E0811102C09B
:101EA0000E947A03FF90EF90DF90CF900895809189
:101EB0004A11882321F081E08093531108951092F4
:101EC0005311E0910912F0910A1220813181E091C1
:101ED0000912F0910A12838D948D8217930760F096
:101EE0006091091270910A12635E7F4F809109120E
:101EF00090910A120E94B5178091591101C081502A
:101F0000282F30E09BE0929FF001939FF00D112469
:101F1000E556FE4E9081992391F39BE0929FA0019C
:101F2000939F500D1124DF010180F281E02D048088
:101F3000F581E02D1296FC93EE93119742565E4E7A
:101F4000E417F50729F444815581FD01528341834B
:101F50009BE0929FF001939FF00D1124E556FE4EF9
:101F60000180F281E02D2085318530930A12209383
:101F70000912809359110895CF92DF92EF92FF9248
:101F80006A017B016091091270910A12625F7F4FB2
:101F90000E94C10241E0C701B601C7DBFF90EF908C
:101FA000DF90CF900895CF93DF93FC01CB01BA016E
:101FB000A181B281C0910912D0910A12BB8BAA8B68
:101FC000C0910912D0910A1216964D915C91179703
:101FD0005D8B4C8B1696CD91DC9117974091091231
:101FE00050910A12425F5F4F5D834C83409109120A
:101FF00050910A12425F5F4F17965C934E9316976B
:10200000A0910912B0910A125996FC93EE93589739
:1020100030813F5F3083222319F06FEF7FEFCB01D8
:10202000422F83DBDF91CF910895CF93DF93DC01C3
:102030001796ED91FC9118970084F185E02DA08D05
:10204000B18DC289D389848995899F838E83C48900
:10205000D589828993899D838C8311968D919C91DA
:1020600012979F01225F3F4F8217930731F48489B3
:10207000958912969C938E931197118E108E8C9148
:1020800081508C9380914A11811152C0A485B585ED
:10209000C681D781808591859F838E83C085D185B8
:1020A000868197819D838C8311968D919C91129747
:1020B0009F012E5F3F4F8217930731F480859185F2
:1020C00012969C938E931197158614868C9181504D
:1020D0008C93A28D809159118A1710F4A0935911F5
:1020E0008BE08A9FD0011124A556BE4E11960D900B
:1020F000BC91A02DB783A68316964D915C9117973E
:10210000518740871696CD91DC9117973D832C839C
:1021100017963C932E931697A28D8A9FD001112477
:10212000A556BE4EB587A4878C918F5F8C931CC03B
:1021300046E751E1DA011196CD91DC911297D38BEC
:10214000C28B8E819F81958B848B8E819F81DC01D8
:1021500015963C932E9314973F832E83518F408F77
:10216000DA018C918F5F8C93928DE0910912F0913E
:102170000A12828D891720F481E08093531101C0E7
:1021800080E0DF91CF9108950FB6F8940F922091DF
:102190005211FC01208340915A1150915B116091C2
:1021A0005C1170915D1141835283638374830F903E
:1021B0000FBE089520915211FC01208340915A11C5
:1021C00050915B1160915C1170915D11418352835C
:1021D0006383748308958F929F92AF92BF92CF9240
:1021E000DF92EF92FF920F931F93CF93DF93FB0148
:1021F0000FB6F8940F92C0905A11D0905B11E090F6
:102200005C11F0905D11DC0111960D911D912D91E5
:102210003C91149746015701801A910AA20AB30A09
:1022200040815181628173814F3FBFEF5B076B0734
:102230007B0739F1EC01B881A0915211BA1759F01E
:10224000C016D106E206F30630F010821182128227
:10225000138281E017C084169506A606B70658F4C7
:10226000481959096A097B09408351836283738342
:10227000A1DF80E007C0108211821282138281E008
:1022800001C080E00F900FBEDF91CF911F910F91A1
:10229000FF90EF90DF90CF90BF90AF909F908F9086
:1022A000089581E0809353110895809109129091CF
:1022B0000A12089580915811882331F080914A11B3
:1022C000811104C082E0089581E0089580E00895BE
:1022D0000F931F93CF93DF93FC01892B09F449C01F
:1022E00086A5815086A7228D95A5291709F443C09C
:1022F000811143C0EF018F010E5F1F4FC8010E9483
:10230000FE02EDA5EA8F8AE090E0A0E0B0E08E1B2F
:102310009109A109B1098E879F87A88BB98B8091FC
:1023200059118E1710F4E09359118BE08E9FF00134
:102330001124E556FE4E0180F281E02DFF83EE83ED
:102340002681378139872887A681B78115961C9306
:102350000E93149717830683EA8D8E9FF001112444
:10236000E556FE4EFD87EC8780818F5F808381E09C
:1023700005C080E003C080E001C080E0DF91CF9124
:102380001F910F9108954F925F926F927F92AF923B
:10239000BF92CF92DF92EF92FF920F931F93CF9352
:1023A000DF93280139010FB6F8940F92E0910912DA
:1023B000F0910A12C82FD0E0EC0FFD1F83A98230E4
:1023C00071F1E0910912F0910A12CE01880F991F64
:1023D000880F991FE80FF91F87A590A9A1A9B2A995
:1023E0004095509560957095482359236A237B2327
:1023F00047A750AB61AB72ABE0910912F0910A12A2
:10240000EC0FFD1F81E083ABA114B104C104D10422
:1024100031F041E0C601B50188D90E947A030F90DE
:102420000FBE0FB6F8940F92E114F104A1F0E09101
:102430000912F0910A12CE01880F991F880F991F77
:10244000E80FF91F87A590A9A1A9B2A9F701808378
:102450009183A283B383E0910912F0910A12EC0FE9
:10246000FD1F83A98230E9F4E0910912F0910A126C
:10247000CE01880F991F880F991FE80FF91F87A5B4
:1024800090A9A1A9B2A94094509460947094482254
:1024900059226A227B2247A650AA61AA72AA81E029
:1024A00001C080E02091091230910A12C20FD31F9F
:1024B0001BAA0F900FBEDF91CF911F910F91FF903C
:1024C000EF90DF90CF90BF90AF907F906F905F9034
:1024D0004F9008958F929F92AF92BF92EF92FF928A
:1024E0000F93CF93DF93DC010FB6F8940F92E114B2
:1024F000F10489F0E62FF0E0EE0FFF1FEE0FFF1F53
:10250000E80FF91F87A490A8A1A8B2A8F7018082BC
:102510009182A282B38270E0FD01E60FF71F83A9CA
:1025200092E093AB023001F118F4013031F04DC06C
:10253000033079F10430D1F148C0660F771F660F80
:10254000771FFD01E60FF71F87A490A8A1A8B2A8E6
:10255000BA01A901482959296A297B2947A750AB03
:1025600061AB72AB01E034C0660F771F660F771F57
:10257000FD01E60FF71F47A550A961A972A94F5F9A
:102580005F4F6F4F7F4F47A750AB61AB72AB01E01E
:102590001FC0660F771F660F771FFD01E60FF71F3D
:1025A00027A730AB41AB52AB01E012C0823079F0CB
:1025B000660F771F660F771FFD01E60FF71F27A72E
:1025C00030AB41AB52AB01E003C001E001C000E021
:1025D000813009F069C01C96ED91FC911D9716960B
:1025E000CD91DC91179718968D919C9119979F83A7
:1025F0008E831896CD91DC91199716968D919C91AA
:1026000017979D838C83818192819D012E5F3F4F1F
:102610008217930731F418968D919C9119979283A4
:1026200081831D961C921E921C978081815080830D
:102630005A96EC915A97809159118E1710F4E093A5
:1026400059118BE08E9FF0011124E556FE4E01805A
:10265000F281E02D1796FC93EE93169746815781F1
:1026600019965C934E931897C681D7813D832C832E
:10267000378326835A96EC915A978E9FF001112446
:10268000E556FE4E1D96FC93EE931C9780818F5F5E
:1026900080835A969C91E0910912F0910A12828DE2
:1026A000891710F40E947A030F900FBE802FDF91DC
:1026B000CF910F91FF90EF90BF90AF909F908F9030
:1026C00008958F929F92AF92BF92CF92DF92EF9236
:1026D000FF920F93CF93DF93DC01E114F10489F0B3
:1026E000E62FF0E0EE0FFF1FEE0FFF1FE80FF91FC0
:1026F00087A490A8A1A8B2A8F70180829182A282A3
:10270000B38270E0FD01E60FF71F93A982E083AB6F
:10271000023001F118F4013031F04DC0033079F18D
:102720000430D1F148C0660F771F660F771FFD0197
:10273000E60FF71F87A490A8A1A8B2A8BA01A90123
:10274000482959296A297B2947A750AB61AB72AB4D
:1027500081E034C0660F771F660F771FFD01E60F1B
:10276000F71F47A550A961A972A94F5F5F4F6F4F2F
:102770007F4F47A750AB61AB72AB81E01FC0660FC4
:10278000771F660F771FFD01E60FF71F27A730ABF6
:1027900041AB52AB81E012C0923079F0660F771FE7
:1027A000660F771FFD01E60FF71F27A730AB41AB80
:1027B00052AB81E003C081E001C080E0913009F0BC
:1027C00096C090914A1191115FC01C96ED91FC91B9
:1027D0001D971696CD91DC91179718962D913C91E7
:1027E00019973F832E831896CD91DC9119971696F1
:1027F0002D913C9117973D832C83418152819D01FE
:102800002E5F3F4F4217530731F418964D915C915C
:102810001997528341831D961C921E921C9790819A
:10282000915090835A96EC915A97909159119E1716
:1028300010F4E09359119BE09E9FF0011124E5569E
:10284000FE4E0180F281E02D1796FC93EE931697D1
:102850004681578119965C934E931897C681D7810C
:102860003D832C83378326835A96EC915A979E9FFB
:10287000F0011124E556FE4E1D96FC93EE931C9735
:1028800090819F5F908321C066E771E1FB01C18168
:10289000D2815396DC93CE9352972E813F815596E9
:1028A0003C932E9354974E815F819D01225F3F4F51
:1028B000FA01358324833F832E8359967C936E934C
:1028C0005897FB0190819F5F90835A962C91E091DD
:1028D0000912F0910A12928D921748F4C114D10492
:1028E00019F091E0F601908391E090935311DF91FC
:1028F000CF910F91FF90EF90DF90CF90BF90AF906E
:102900009F908F900895009721F4809109129091E3
:102910000A120FB6F8940F9270E0FC01E60FF71F51
:1029200023A9223031F4FC01E60FF71F13AA81E03E
:1029300001C080E00F900FBE0895DC01E0911512F8
:10294000F0911612808191E0811190E09C93911199
:1029500008C00780F085E02D6081718182819381BC
:10296000089560E070E0CB010895CF92DF92EF927E
:10297000FF920F931F93FC014283538364837583FB
:10298000938782870417150726073707C0F00C19AD
:102990001D092E093F0986859785A089B1890817E9
:1029A00019072A073B0700F5BF016E5F7F4F809133
:1029B0001312909114120E94C10280E018C00C15ED
:1029C0001D052E053F0528F44C155D056E057F0598
:1029D00068F4BF016E5F7F4F8091151290911612BF
:1029E0000E94C10280E003C081E001C081E01F912C
:1029F0000F91FF90EF90DF90CF9008950FB6F8946D
:102A00000F928091111290911212892BE9F482E2B7
:102A100092E10E94AC0287E192E10E94AC0282E264
:102A200092E1909316128093151287E192E19093B0
:102A300014128093131240E067E08AE00E945F0561
:102A400090931212809311120F900FBE0895EF927F
:102A5000FF920F93D3DF8091111290911212892B64
:102A600091F00F2EFFE0EF2EF2E1FF2EF02D03E0AC
:102A700020E030E040EC50E061E872E087ED90E06B
:102A80000E94370C01C080E00F91FF90EF900895F5
:102A90008F929F92AF92BF92CF92DF92EF92FF926E
:102AA0000F931F93CF93DF93CDB7DEB727970FB662
:102AB000F894DEBF0FBECDBFE0911112F09112125B
:102AC000309781F169832A833B834C835D839F83A5
:102AD0008E836630F4F4EEDB823069F400E0A70107
:102AE0009601BE016F5F7F4F80911112909112127B
:102AF0000E94820518C000E020E030E0A901BE017C
:102B00006F5F7F4F80911112909112120E94820587
:102B10000AC020E0A801BE016F5F7F4FCF010E9475
:102B2000120601C080E027960FB6F894DEBF0FBEF4
:102B3000CDBFDF91CF911F910F91FF90EF90DF906C
:102B4000CF90BF90AF909F908F9008958F929F925B
:102B5000AF92BF92CF92DF92EF92FF920F931F93AB
:102B6000CF93DF933BC00780F085E02D808091807C
:102B7000A280B380C085D1858E010E5F1F4FC80132
:102B80000E94FE02EC89FD89CE0119958E8982FF93
:102B900025C08E859F85A889B989880D991DAA1D94
:102BA000BB1D88169906AA06BB0670F48A839B8310
:102BB000AC83BD83DB87CA87B801809115129091E1
:102BC00016120E94C1020AC0C12CD12C760100E06D
:102BD00010E0A501940160E0CE015ADFE0911512EA
:102BE000F091161280818111BECF809113129091C5
:102BF00014129093161280931512F0931412E0930E
:102C00001312DF91CF911F910F91FF90EF90DF9002
:102C1000CF90BF90AF909F908F900895CF92DF920A
:102C2000EF92FF92CF93DF93EC010E94C10C6B01F6
:102C30007C0180910B1290910C12A0910D12B09119
:102C40000E12C816D906EA06FB0620F47FDF81E0E3
:102C5000888301C01882C0920B12D0920C12E092AD
:102C60000D12F0920E12C701B601DF91CF91FF90C5
:102C7000EF90DF90CF9008954F925F926F927F9286
:102C80008F929F92AF92BF92CF92DF92EF92FF927C
:102C90000F931F93CF93DF934B015C0129013A01FE
:102CA000E0911512F09116120780F085E02DC08595
:102CB000D185CE0102960E94FE028E8982FF1BC042
:102CC0004E855F8568897989480D591D6A1D7B1D70
:102CD0007501640193018201CE0147DE882369F00A
:102CE000C12CD12C760100E010E0A501940160E038
:102CF000CE01CEDE02C08E7F8E8BEC89FD89CE01A7
:102D00001995DF91CF911F910F91FF90EF90DF9078
:102D1000CF90BF90AF909F908F907F906F905F907B
:102D20004F9008958F929F92AF92BF92CF92DF9271
:102D3000EF92FF921F93CF93DF931F92CDB7DEB731
:102D40006B017C01142F0E94BB0CCE01019666DF43
:102D50004B015C01898181112DC011110DC08C14B2
:102D60009D04AE04BF0440F00E94FB0DA501940138
:102D7000C701B60181DF20C0112341F0E091131299
:102D8000F0911412808111E0811110E0B701A601C9
:102D9000481959096A097B09212F809111129091D4
:102DA00012120E94DC060E94FB0D811105C00E94D8
:102DB0007A0302C00E94FB0D0F90DF91CF911F910B
:102DC000FF90EF90DF90CF90BF90AF909F908F904B
:102DD0000895AF92BF92CF92DF92EF92FF920F933E
:102DE0001F93CF93DF93CDB7DEB728970FB6F89434
:102DF000DEBF0FBECDBF82C0898188230CF47EC0A8
:102E0000AE80BF80D5011C968D919C911D97892B1A
:102E100021F0C50102960E94FE02CE010896FEDE58
:102E20008B019C01E9810E2E000CFF0BEA30F105AD
:102E300008F064C08827EE58FF4F8F4F0C94112A7A
:102E4000F50186898160868BCA80DB80EC80FD80FD
:102E500046855785608971894C0D5D1D6E1D7F1DEE
:102E6000C50183DD882309F449C0D5015496ED914D
:102E7000FC915597C5011995F501868982FF3EC0E1
:102E80004A815B816C817D8186859785A089B18926
:102E90009A01AB01280F391F4A1F5B1FC12CD12C8F
:102EA000760100E010E060E0C501F2DD27C0D50149
:102EB00056968C9156978E7F56968C931FC0F5012F
:102EC00086898160868B4A815B816C817D814687A2
:102ED0005787608B718B400F511F621F731F6801F2
:102EE0007901C50142DD0AC0F501868981FD04C072
:102EF000C5010E946F0202C08E7F868B20E030E009
:102F0000A901BE016F5F7F4F809111129091121243
:102F10000E944D06811170CF28960FB6F894DEBF3F
:102F20000FBECDBFDF91CF911F910F91FF90EF901A
:102F3000DF90CF90BF90AF900895089584B18068DE
:102F400084B985B1806885B9089583B1806883B9F3
:102F50000895F4DF2FEF80E792E021508040904009
:102F6000E1F700C00000F1DFF5CFE8DF2FEF87EADF
:102F700091E6215080409040E1F700C00000E5DF7D
:102F8000F5CF40E066E08FE00E945F059093A913C3
:102F90008093A8130895CF92DF92EF92FF920F9340
:102FA0001F93CF93DF9300D01F92CDB7DEB70E945F
:102FB0003A016C0195D17C01ADD102EA13E1F8012F
:102FC000D182C082F382E282958384830E94C10C05
:102FD00069837A838B839C8340E050E0BA01CE0101
:102FE00001960E94D70EF80183818F9382818F937F
:102FF00081818F9380818F9385818F9384818F933B
:1030000089E892E09F938F930E94B72B00E02FEF07
:103010003FEFA90162EA73E18091A8139091A9138F
:103020000E94820582EA93E10E946F020FB6F89433
:10303000DEBF0FBECDBF0F900F900F900F90DF91AE
:10304000CF911F910F91FF90EF90DF90CF90089557
:103050002AE030E040E050E06AEA73E18091A81392
:103060009091A9130E944D068AEA93E10895CF93A7
:10307000DF9300D01F92CDB7DEB70E94C10C6983E9
:103080007A838B839C8345EB51E060E070E0CE0156
:1030900001960E94D70ED0D00E942C01F4CFCF937E
:1030A000DF9300D01F92CDB7DEB70E94C10C6983B9
:1030B0007A838B839C8344EF51E060E070E0CE0123
:1030C00001960E94D70E67DFF6CFCF93DF93CDB77F
:1030D000DEB728970FB6F894DEBF0FBECDBF0E94B3
:1030E000C10C69837A838B839C834EEE52E060E04F
:1030F00070E0CE0101960E94D70E0E94C10C6D8334
:103100007E838F839887A4DF8C0140E050E0BA0172
:10311000CE0105960E94D70EF80183818F9382819C
:103120008F9381818F9380818F9385818F93848109
:103130008F9384EB92E09F938F930E94B72B0FB6EF
:10314000F894DEBF0FBECDBFD0CFEF92FF920F93AA
:10315000E12CF12C00E020E030E040EC50E06FED9D
:1031600072E087E398E10E94370C20E030E040EC09
:1031700050E060EF72E08FE498E10E94370C20E0AD
:1031800030E040EC50E06EEE72E085E698E10E949F
:10319000370C0F91FF90EF900895D7DF0C94830CBC
:1031A000089540E062E08FE00E945F059093B513C0
:1031B0008093B41340E062E08FE00E945F0590933B
:1031C000B3138093B21308950F93CF93DF931F929D
:1031D0001F92CDB7DEB79A83898300E02FEF3FEFD0
:1031E000A901BE016F5F7F4F8091B4139091B51319
:1031F0000E9482050F900F90DF91CF910F9108955B
:103200000F93CF93DF931F921F92CDB7DEB79A83B0
:10321000898300E02FEF3FEFA901BE016F5F7F4F71
:103220008091B2139091B3130E9482050F900F907A
:10323000DF91CF910F9108958F929F92AF92BF929D
:10324000CF92DF92EF92FF92CF93DF9300D01F9245
:10325000CDB7DEB70E94C10C69837A838B839C83D0
:103260005DD2882341F089EF92E09F938F930E9473
:10327000B72B0F900F9043E050E060E070E0CE017C
:1032800001960E94D70E5FD2882341F089E093E037
:103290009F938F930E94B72B0F900F9040E050E0C8
:1032A000BA01CE0101960E94D70E5ED29DD14B018C
:1032B0005C016FD294D16B017C01C401A1DFC60116
:1032C00083DF0F900F900F900F90DF91CF91FF90C1
:1032D000EF90DF90CF90BF90AF909F908F90089528
:1032E000CF93DF931F921F92CDB7DEB72CED35E061
:1032F00040E050E0BE016F5F7F4F8091B41390912A
:10330000B5130E944D0689819A810F900F90DF912D
:10331000CF910895CF93DF931F921F92CDB7DEB761
:103320002CED35E040E050E0BE016F5F7F4F8091B3
:10333000B2139091B3130E944D0689819A810F9028
:103340000F90DF91CF9108950F931F93CF93DF9349
:10335000CDB7DEB764970FB6F894DEBF0FBECDBF12
:1033600081E00E9410269DD319D69F938F938AE106
:1033700093E09F938F930E94B72B11D50FD69F9305
:103380008F938DE293E09F938F930E94B72B8E01D2
:103390000F5F1F4FC80197D301D61F930F939F93C1
:1033A0008F9386E493E09F938F930E94B72BC8017D
:1033B000A6D3F4D59F938F931F930F938AE593E041
:1033C0009F938F930E94B72BA8016FE673E080E96B
:1033D00093E0C3D5E3D59F938F931F930F938FE60D
:1033E00093E09F938F9380E993E09F938F9381EA7B
:1033F00093E09F938F930E94B72BB4D3CFD59F9325
:103400008F9387ED93E09F938F930E94B72B0FB616
:10341000F894DEBF0FBECDBF81E09ED4BFD59F9391
:103420008F9386EE93E09F938F930E94B72B84EF48
:1034300091E09DD4B3D59F938F9381E08F9384EFD8
:103440008F9387E094E09F938F930E94B72B0FB6E2
:10345000F894DEBF0FBECDBF1AE080E089D3082FFD
:103460009DD59F938F931F921F9387E294E09F9324
:103470008F930E94B72B0F900F900F900F900F908B
:103480000F90083059F080E00E94742666E371E0E6
:1034900080E090E00E943C0F1150F9F6083041F4B2
:1034A00087E494E00E94CA2B81E00E94562609C05E
:1034B00081E00E94652680E00E9433260E947A0304
:1034C000FDCF64960FB6F894DEBF0FBECDBFDF917F
:1034D000CF911F910F910895CF93DF9300D01F924A
:1034E000CDB7DEB781E0CFD262E070E080E090E05F
:1034F0000E943C0F80E0C7D266E970E080E090E077
:103500000E943C0F79D220DFEDE2F2E18AE0818374
:1035100082E080830E94C10C69837A838B839C83C1
:1035200080E694E00E94CA2B44E554E260E070E03B
:10353000CE0101960E94D70E83E00E9486266DE29E
:1035400072E180E03ED32AD59F938F9384E794E085
:103550009F938F930E94B72B0F900F900F900F9017
:10356000DFCFEF92FF920F93E12CF12C082F20E098
:1035700030E048E851E069E874E08CE69AE10E94A6
:10358000370C0F91FF90EF90089580E994E00E942E
:10359000CA2B81B1816881B980E090E00E94BB2490
:1035A0000E942301FEDDEDDC83E0D4D59FD085E0D1
:1035B0000E94C22541E060E070E08CE290E00E9451
:1035C0003B0860E070E081E01ED283E0CACF08953E
:1035D000DCDF80E994E00E94CA2BDFDDFFCF04D05E
:1035E0006894B11150C0089533D088F09F5790F07F
:1035F000B92F9927B751A0F0D1F0660F771F881F18
:10360000991F1AF0BA95C9F712C0B13081F03AD0BB
:10361000B1E0089537C0672F782F8827B85F39F059
:10362000B93FCCF3869577956795B395D9F73EF476
:1036300090958095709561957F4F8F4F9F4F08951E
:1036400057FD9058440F551F59F05F3F71F0479553
:10365000880F97FB991F61F09F3F79F08795089538
:10366000121613061406551FF2CF4695F1DF08C057
:10367000161617061806991FF1CF86957105610574
:1036800008940895E894BB2766277727CB0197F91C
:1036900008956530F1F4FA0180818F7390E0982FDE
:1036A00088272181822B90930A02809309028281CC
:1036B000F0E48F9FC0011124FA01238126952695FD
:1036C000822B909308028093070281E0809343123B
:1036D0000895643051F080E090E490930802809364
:1036E000070290930A028093090208950F931F9393
:1036F00009E41BE120E034E244EF50E060E087E2BF
:103700000E94A926909345128093441221E0892BB0
:1037100009F020E0822F1F910F91089580914412AB
:1037200090914512009759F040E060E070E00E94EF
:10373000FA26843031F41092431280E0089582E03A
:10374000089583E008958091441290914512009766
:1037500039F064E00E944627853021F083E0089527
:1037600082E0089580E008956091090270910A0254
:1037700080E090E00E94242920E030E048EC52E410
:103780000E94892920E038EF4FE756E40C94B928CD
:103790000895609107027091080280E090E00E9415
:1037A000242920E030E045E253E40E94892920E00A
:1037B00038EF4FE756E40E94B92820E030E040E2BD
:1037C00052E40C94522808950F931F93CF93DF93E4
:1037D0001F921F92CDB7DEB78C0119822DC0E091E8
:1037E000AA12EC3250F481E08E0F8093AA12F0E01E
:1037F000E452FD4E8A81808302C01092AA128A810F
:103800008A30D1F44091AA1250E0FA01E652FD4EFE
:103810001082415051099E012F5F3F4F6CED72E1C4
:103820008091AD129091AE120E9460098981811140
:103830000E947A031092AA12BE016E5F7F4FC801E8
:1038400004D6882361F20F900F90DF91CF911F91E2
:103850000F9108950F931F93CF93DF938C01EB018A
:103860008091AD129091AE120E946D08B80186E46D
:1038700092E10E94982B209779F0E6E4F2E1019022
:103880000020E9F7319780E290E091838083BE01C8
:1038900086E492E10E948D2BE6E4F2E1DF010D90D7
:1038A0000020E9F711978DE09AE011969C938E9392
:1038B00012961C9201900020E9F73197E654F241EC
:1038C000AE2F86E492E1AC016A2F8091AF12909105
:1038D000B01266D5811111C008E215E020E030E099
:1038E0004DE250E066E373E18091AD129091AE122B
:1038F0000E94A40986E393E102C080E090E0DF919A
:10390000CF911F910F9108952F923F924F925F9206
:103910006F927F928F929F92AF92BF92CF92DF92DF
:10392000EF92FF920F931F93CF93DF935C01FC0103
:1039300001900020E9F731976F01C81AD90A5C2C71
:103940000F2EFBE38F2EF7E09F2EF02DE12CF12CB4
:103950004C2C3701F40101811281E801099000200B
:10396000E9F72197C01BD10B3C2EF9E0CF16D1040B
:1039700058F0F4012080FEE02F1206C0B801C50106
:103980000E94682B892B09F5442D351408F44C2F1F
:1039900050E0B801C5010E949F2B892B49F4F30127
:1039A000EE0FFF1FE60DF71DE55CF84F20800DC000
:1039B0008FEFE81AF80AE3E08E0E911CF1E1EF16A2
:1039C000F10439F66894222424F8822DDF91CF91F6
:1039D0001F910F91FF90EF90DF90CF90BF90AF902D
:1039E0009F908F907F906F905F904F903F902F901F
:1039F000089530DF89CF08958091AD129091AE1275
:103A00000C946D0808958F929F92AF92CF92EF928F
:103A10000F931F93CF93C82F8B0141E060E070E0BC
:103A200088EC90E00E943B089093AE128093AD1218
:103A30001093AC120093AB120F2EF4EE8F2EFBE11D
:103A40009F2EF02D6894AA24A6F86894CC24C6F87A
:103A5000E12C00E023E040E051EE60E070E08C2FCC
:103A6000D2D39093B0128093AF12E7E0F1E080815F
:103A700080618083CF911F910F91EF90CF90AF9095
:103A80009F908F900895882331F0E8E0F1E08081E5
:103A90008F7E80830895E8E0F1E0808180618083FB
:103AA000089560E070E081EC94E0D4DEE6E3F3E1B9
:103AB00001900020E9F73197E653F34181E07597D3
:103AC00008F080E00895CF93DF93EC0160E070E0B0
:103AD00082ED94E0BFDEE6E3F3E101900020E9F738
:103AE000E754F34139F466E373E1CE010E94982B69
:103AF00080E002C0188281E0DF91CF910895FC013F
:103B000001900020E9F79F01215131092817390759
:103B100029F4BC0180E095E06CCF089589E0089518
:103B2000FC0101900020E9F79F012151310928177C
:103B3000390729F4BC018FE095E05BCF089589E057
:103B40000895FC0101900020E9F79F0121523109FD
:103B50002817390729F4BC018EE195E04ACF089572
:103B600089E0089560E070E08DE595E042CF08952A
:103B70000F931F93E82FF0E0EE0FFF1FE95CF84F63
:103B80006081718186E695E034DF811114C008E21E
:103B900015E020E030E04DE250E066E373E1809113
:103BA000AD129091AE120E94A409882321F086E301
:103BB00093E1AADE03C086E393E1A6DE1F910F9195
:103BC00008950F931F93CF93DF931F92CDB7DEB766
:103BD000DB0111969C911197953108F0B4C099239F
:103BE00081F160E070E0272F30E0462F50E0FD01CA
:103BF000E40FF51F928192959F709A3010F0995CB6
:103C000001C0905DF901E953FD4E90832F5F3F4F56
:103C1000FD01E40FF51F92819F70492F50E04A305B
:103C2000510514F0995C01C0905DF901E953FD4E16
:103C300090837E5F6F5F11969C911197691798F240
:103C400001C070E0E72FF0E0E953FD4E10824C9187
:103C5000811103C08FE695E002C081E795E027EC73
:103C600032E13F932F931F924F939F938F9385E75A
:103C700095E09F938F9389E093E19F938F930E94A8
:103C8000FA2B60E070E089E093E1B3DE0FB6F894C0
:103C9000DEBF0FBECDBF811159C008E215E020E0A4
:103CA00030E04DE250E066E373E18091AD12909117
:103CB000AE120E94A409882309F447C086E393E169
:103CC00023DE8E3009F042C087E089838091AB12F9
:103CD0009091AC12892BA9F1BE016F5F7F4F86E3F3
:103CE00093E168D18093B112E981F0E0EA5CFC4E87
:103CF000DF010D900020E9F71197AE1BBF0BAA233F
:103D000091F0BB27CD0101979C0112F42F5F3F4F2B
:103D1000359527952093B212AF014F5F5F4F64E155
:103D200083EB92E173D101E010E020E030E046E166
:103D300050E061EB72E18091AB129091AC120E9465
:103D40009D088EE003C084E101C080E00F90DF9108
:103D5000CF911F910F910895813019F065E875E0BA
:103D600002C06EE576E089E895E043CE08959F9322
:103D70008F938AEB95E09F938F9389E093E19F93D4
:103D80008F930E94FA2B60E070E089E093E131DECE
:103D90000F900F900F900F900F900F9008952F920B
:103DA0003F924F925F926F927F928F929F92AF92CB
:103DB000BF92CF92DF92EF92FF920F931F93CF9318
:103DC000DF93CDB7DEB7A0970FB6F894DEBF0FBE76
:103DD000CDBF67EE75E083EF95E03CDD95DD8111A9
:103DE000A3C080E2E2E2F2E0DE01119601900D92C2
:103DF0008A95E1F79E012F5F3F4F6901E12CF12C7D
:103E00000F2EFFEFAF2EF5E0BF2EF02D09E013E1EE
:103E10000F2EF8E14F2EF6E05F2EF02D0F2EFFE271
:103E20008F2EF6E09F2EF02D0F2EF9E46F2EF6E088
:103E30007F2EF02D3E2C2F2CFF92EF92BF92AF924F
:103E40001F930F930E94FA2B60E070E0C80102DD1F
:103E50005BDD0F900F900F900F900F900F908111DE
:103E600063C032E03E15E8F4F60183818F938281CE
:103E70008F9381818F9380818F93FF92EF925F92D6
:103E80004F921F930F930E94FA2B60E070E0C801DD
:103E9000E1DC3ADD0FB6F894DEBF0FBECDBF811175
:103EA00043C02F923F929F928F921F930F930E9435
:103EB000FA2B60E070E0C801CDDC26DD0F900F909A
:103EC0000F900F900F900F9081112EC02F923F9264
:103ED0007F926F921F930F930E94FA2B60E070E025
:103EE000C801B8DC11DD0F900F900F900F900F906C
:103EF0000F90811119C03FEFE31AF30A84E0C80E56
:103F0000D11C98E0E916F10409F094CF60E070E06C
:103F100081E696E09FDCF8DC811106C060E070E08D
:103F200082E796E097DCF0DCA0960FB6F894DEBF4F
:103F30000FBECDBFDF91CF911F910F91FF90EF90FA
:103F4000DF90CF90BF90AF909F908F907F906F90B9
:103F50005F904F903F902F900895EF92FF920F93B4
:103F60001F93CF93DF93EC018B017A0181E0F4DEA4
:103F700081110DC0CE01D4DD811109C0C801E1DD80
:103F8000811105C0C701BBDD811101C0EBDDDF91EF
:103F9000CF911F910F91FF90EF90089590E0FC0159
:103FA000EE0FFF1F8E0F9F1FFC01E55CF84F818114
:103FB00092810895DC01009729F1FB012081FC0129
:103FC00001900020E9F73197E81BF90B822F90E070
:103FD000E817F907C8F080E008C0880F382F330FC2
:103FE000330F830F8053890F2F5FFD01E20FF11D07
:103FF000908130ED390F3A3010F49111EECFFB0182
:104000002083089580E0089580E008950F931F9322
:10401000CF93DF93DC01EA012097E1F1FA010190EF
:104020000020E9F73197E41BF50B329710F532C009
:104030008D01040F151F30E0AE01420F531FFA012E
:104040009081913428F09753592F5295507F03C097
:10405000592F5295507F2C0F3D1FF90191819134BA
:1040600010F0975301C09053950FF80190838F5F24
:1040700001C080E0282F220F482F50E0FE01019060
:104080000020E9F73197EC1BFD0B4E175F0710F48A
:104090008613CECFDF91CF911F910F91089580911C
:1040A0006613860F8093661390916913913079F0AF
:1040B00028F09230A9F0933019F108956F3F09F07C
:1040C00048C01092661381E08093691308956638A2
:1040D00009F03FC01092651382E080936913089540
:1040E000E091651381E08E0F80936513F0E0ED5948
:1040F000FC4E6083823069F583E0809369130895F4
:104100009091651321E0290F20936513963009F5EE
:1041100081110EC0E3E6F3E1808190E0982F8827BB
:104120002181820F911D90936B1380936A1304C0B9
:1041300010926B1310926A1310926913E091671337
:10414000F0916813309729F080916A1390916B1366
:10415000199508958F929F92AF92CF92EF920F93FD
:104160000F2EFFE48F2EF0E29F2EF02D6894AA24EC
:10417000A4F86894CC24C4F8E12C00E023E040E8E3
:1041800055E260E070E03FD090936D1380936C1324
:104190000F91EF90CF90AF909F908F900895909354
:1041A0006813809367130895CF93DF93CDB7DEB77D
:1041B00029970FB6F894DEBF0FBECDBF89E0E2E4C9
:1041C000F2E09E012F5F3F4FD90101900D928A9539
:1041D000E1F710926B1310926A1380916C13909117
:1041E0006D13009731F0422F532F69E0D9D080E052
:1041F00001C082E029960FB6F894DEBF0FBECDBF96
:10420000DF91CF9108952F923F924F925F926F92DC
:104210007F928F929F92AF92CF92EF92FF920F93E5
:104220001F93CF93DF93CDB7DEB7F82E2A013B0162
:1042300088E090E00E94332A8C018F2D90E0FC01F1
:10424000EE0FFF1FE259FC4E11830083011511058B
:1042500009F469C0880F991FFC01E55FFD4F80815B
:104260009181D8018D939C936C2D70E084E090E057
:104270000E94192A1C0161E070E086E090E00E9433
:10428000192A7C014C2DB101F1D6F801F582E482A6
:104290006A2D70E084E090E00E94192A1C0161E020
:1042A00070E086E090E00E94192A7C014A2DB1015D
:1042B000DDD6D8011396FC92EE92129717969C9237
:1042C0008E921697FFB6F894ED91FC911197369760
:1042D0008081826080838D909C90C301B201B4D7AD
:1042E00020E030E040E051E40E9489299B01AC01CC
:1042F00060E074E284E79BE43CD720E030E040E8F3
:104300005FE3D0D671D9F40132976083D801ED9183
:10431000FC911197359788E98083ED91FC91349752
:1043200086E08083FFBEC801DF91CF911F910F917E
:10433000FF90EF90CF90AF909F908F907F906F9075
:104340005F904F903F902F900895CF93DF93DC01C3
:10435000892B01F11296ED91FC9113979381828143
:104360002581981B922384819817B1F0838126952B
:104370002823C081D181C20FD11D68838F5F9581B1
:1043800089238383ED91FC913597808180628083BE
:1043900080E003C081E001C082E0DF91CF91089509
:1043A000EF92FF920F931F93CF93DF937C010097BF
:1043B00009F441C0DC011296ED91FC9113979381B1
:1043C0008281981B858198238481891B8617A8F197
:1043D000662341F1842F952FDC016150462F50E078
:1043E0004F5F5F4F480F591FE701EA81FB819381BF
:1043F00082812581981B92238481981779F08C9172
:10440000938126952923608171818B01020F111DF3
:10441000E80188839F5F8581982393831196A41771
:10442000B50711F7D701ED91FC9135978081806236
:10443000808380E003C081E001C082E0DF91CF9102
:104440001F910F91FF90EF9008950097D1F0DC013C
:104450001496ED91FC91159793818281981799F0AC
:104460009281858186958923A081B181A80FB11D94
:104470008C91DB018C939F5F85819823928380E0F0
:10448000089581E0089583E008951F920F920FB67A
:104490000F9211240BB60F922F933F934F935F937C
:1044A0006F937F938F939F93AF93BF93CF93DF933C
:1044B000EF93FF93A0916E13B0916F13109711F1CA
:1044C0006091C6001496ED91FC91159793818281BD
:1044D0002581981B92238481981761F0838126950A
:1044E0002823C081D181C20FD11D68838F5F958140
:1044F000892383831696ED91FC911797309711F0DD
:10450000CD011995FF91EF91DF91CF91BF91AF91BF
:104510009F918F917F916F915F914F913F912F91DB
:104520000F900BBE0F900FBE0F901F9018951F920B
:104530000F920FB60F9211240BB60F922F938F93F9
:104540009F93AF93BF93EF93FF93E0916E13F0911E
:104550006F133097B9F00280F381E02D938182814F
:104560009817B1F092818581282F26952923A08163
:10457000B181A20FB11D2C919F5F8923828320936B
:10458000C6000BC0E1ECF0E080818F7D808305C028
:10459000E1ECF0E080818F7D8083FF91EF91BF910E
:1045A000AF919F918F912F910F900BBE0F900FBEE7
:1045B0000F901F9018951F920F920FB60F92112413
:1045C0000BB60F922F933F934F935F936F937F930D
:1045D0008F939F93AF93BF93CF93DF93EF93FF930B
:1045E000A0917013B0917113109711F16091CE00EA
:1045F0001496ED91FC911597938182812581981BEA
:1046000092238481981761F0838126952823C081A5
:10461000D181C20FD11D68838F5F958189238383E8
:104620001696ED91FC911797309711F0CD011995E1
:10463000FF91EF91DF91CF91BF91AF919F918F91BA
:104640007F916F915F914F913F912F910F900BBE92
:104650000F900FBE0F901F9018951F920F920FB6DC
:104660000F9211240BB60F922F938F939F93AF93BA
:10467000BF93EF93FF93E0917013F0917113309714
:10468000B9F00280F381E02D938182819817B1F017
:1046900092818581282F26952923A081B181A20F9F
:1046A000B11D2C919F5F892382832093CE000BC084
:1046B000E9ECF0E080818F7D808305C0E9ECF0E0DB
:1046C00080818F7D8083FF91EF91BF91AF919F910A
:1046D0008F912F910F900BBE0F900FBE0F901F90D8
:1046E00018951F920F920FB60F9211240BB60F92CE
:1046F0002F933F934F935F936F937F938F939F93EA
:10470000AF93BF93CF93DF93EF93FF93A091721377
:10471000B0917313109711F16091D6001496ED913A
:10472000FC911597938182812581981B9223848126
:10473000981761F0838126952823C081D181C20F0B
:10474000D11D68838F5F9581892383831696ED91B0
:10475000FC911797309711F0CD011995FF91EF91CA
:10476000DF91CF91BF91AF919F918F917F916F9189
:104770005F914F913F912F910F900BBE0F900FBE05
:104780000F901F9018951F920F920FB60F92112441
:104790000BB60F922F938F939F93AF93BF93EF938B
:1047A000FF93E0917213F09173133097B9F0028088
:1047B000F381E02D938182819817B1F092818581F8
:1047C000282F26952923A081B181A20FB11D2C91FC
:1047D0009F5F892382832093D6000BC0E1EDF0E038
:1047E00080818F7D808305C0E1EDF0E080818F7D49
:1047F0008083FF91EF91BF91AF919F918F912F9106
:104800000F900BBE0F900FBE0F901F9018951F9228
:104810000F920FB60F9211240BB60F922F933F9366
:104820004F935F936F937F938F939F93AF93BF93B8
:10483000CF93DF93EF93FF93A0917413B09175130F
:10484000109711F1609136011496ED91FC91159736
:10485000938182812581981B92238481981761F02E
:10486000838126952823C081D181C20FD11D688301
:104870008F5F9581892383831696ED91FC9117971D
:10488000309711F0CD011995FF91EF91DF91CF9104
:10489000BF91AF919F918F917F916F915F914F9158
:1048A0003F912F910F900BBE0F900FBE0F901F9056
:1048B00018951F920F920FB60F9211240BB60F92FC
:1048C0002F938F939F93AF93BF93EF93FF93E091B9
:1048D0007413F09175133097B9F00280F381E02DD5
:1048E000938182819817B1F092818581282F269536
:1048F0002923A081B181A20FB11D2C919F5F892333
:104900008283209336010BC0E1E3F1E080818F7D4B
:10491000808305C0E1E3F1E080818F7D8083FF919A
:10492000EF91BF91AF919F918F912F910F900BBEFF
:104930000F900FBE0F901F901895CF93DF931F928B
:10494000CDB7DEB7BE016F5F7F4F80917613909138
:1049500077137BDD8111F6CF898190E00F90DF9195
:10496000CF910895682F8091761390917713EDDCA5
:1049700080E090E008958F929F92AF92CF92EF9255
:104980000F93812C912C6894AA24A7F86894CC24C6
:10499000C7F8E12C00E023E040E051EE60E070E079
:1049A00032DC9093771380937613EAEBF3E183E1A3
:1049B00092E091838083938382830F91EF90CF90D5
:1049C000AF909F908F90089590E0FC01EE0FFF1F35
:1049D000E80FF91FEE0FFF1FE858FC4E238121114D
:1049E0001FC09C01220F331FF901E80FF91FEE0FC2
:1049F000FF1FE858FC4EA081B1814C91F901E80FEE
:104A0000F91FEE0FFF1FE858FC4E81E090E0028096
:104A100002C0880F991F0A94E2F7842B8C930895A3
:104A2000FC01EE0FFF1FDF01A80FB91FAA0FBB1F6C
:104A3000A858BC4E0D90BC91A02D2C91E80FF91FE9
:104A4000EE0FFF1FE858FC4E81E090E0028002C0AC
:104A5000880F991F0A94E2F7809582238C9308951A
:104A600090E0FC01EE0FFF1FE80FF91FEE0FFF1F94
:104A7000E858FC4E2381211120C09C01220F331FD6
:104A8000F901E80FF91FEE0FFF1FE858FC4EA08157
:104A9000B1814C91F901E80FF91FEE0FFF1FE858A3
:104AA000FC4E81E090E0028002C0880F991F0A94BA
:104AB000E2F7809584238C930895FC01EE0FFF1F8D
:104AC000DF01A80FB91FAA0FBB1FA858BC4E0D903D
:104AD000BC91A02D2C91E80FF91FEE0FFF1FE85895
:104AE000FC4E81E090E0028002C0880F991F0A947A
:104AF000E2F7822B8C930895CC24C394D12C689434
:104B0000BB24B2F8C8E7D3E110E08C81813081F09A
:104B100018F1823061F5E881F9812081C6010A80AF
:104B200002C0880F991F0A94E2F7822780831FC072
:104B30008D818F5F8A3010F48D8319C01D82E881CA
:104B4000F9812081C6010A8002C0880F991F0A944A
:104B5000E2F7822780830BC00D81002329F0812F8B
:104B60007FDF01500D8303C0BC82812F2DDF1F5FCB
:104B70002696143051F665E070E080E090E00E94E7
:104B80003C0FC0CFEF92FF920F931F93CF93DF9311
:104B9000082F80E487B9C8E7D3E10F2EF8E2EF2EA3
:104BA000F12CF02DF982E88286E08A831B8214E0E2
:104BB0001C8380E009DF80E887B9FF82EE8287E00E
:104BC000888719861A8781E0FFDE80E283BB84E351
:104BD00090E09D878C8785E08E871F86188B82E00A
:104BE000F3DE80E18093010182E091E09B8B8A8B70
:104BF0001C8B1D8A1E8B83E0E7DEE12CF12C20E06C
:104C000030E040EC50E06EE677E08CE795E20E9401
:104C1000370CDF91CF911F910F91FF90EF90089586
:104C2000CF93DF9390E0FC01EE0FFF1FDF01A80F91
:104C3000B91FAA0FBB1FA858BC4ECD91DC9111978C
:104C4000488121E030E012960C90129702C0220FAA
:104C5000331F0A94E2F724272883FD0181E084832F
:104C6000DF91CF910895CF93DF9390E0FC01EE0F99
:104C7000FF1FDF01A80FB91FAA0FBB1FA858BC4E0A
:104C8000CD91DC911197488121E030E012960C9093
:104C9000129702C0220F331F0A94E2F724272883B9
:104CA000FD0182E08483DF91CF910895282F30E0C9
:104CB000F901EE0FFF1FE20FF31FEE0FFF1FE85881
:104CC000FC4E93E09483CCCE0895282F30E0F90178
:104CD000EE0FFF1FE20FF31FEE0FFF1FE858FC4E11
:104CE00094E0948371CE089590E0FC01EE0FFF1FD5
:104CF000DF01A80FB91FAA0FBB1FA858BC4E24E0A4
:104D000015962C931597FD011482089590E0FC01EF
:104D1000EE0FFF1FDF01A80FB91FAA0FBB1FA85876
:104D2000BC4E21E015962C931597FD011482089531
:104D300080919E1381110CC08CE08093B8008FEF9E
:104D40008093BB0084E08093BC0081E080939E133D
:104D50000895AF92BF92CF92DF92EF92FF920F939E
:104D60001F93CF93DF93A82EB62E69017A0184E0BA
:104D700090E079D3EC01892B61F1A88281E0B8122F
:104D800012C0C701B60120EA36E841E050E027D35F
:104D9000DA01C9014097A109B109B695A795979580
:104DA0008795898311C0C701B60120E83AE146E042
:104DB00050E015D3DA01C9014097A109B109B695B0
:104DC000A7959795879589831B830A838C2F9D2FA1
:104DD00002C080E090E0DF91CF911F910F91FF9092
:104DE000EF90DF90CF90BF90AF9008958091BC007E
:104DF00081700895FF920F931F93CF93DF930097D5
:104E0000D1F14A30D0F5F42E8B01EC01EFDF8111A6
:104E100036C08091911390919213C817D90741F031
:104E200087DF89818093B800D0939213C093911348
:104E300081E08F0D809393138881880F8093941362
:104E4000FF2089F0F801A5E9B3E14FEF4F0D642F82
:104E500070E0CB010196B801680F791F81918D93A5
:104E6000E617F707D9F788EF8093210285EA809348
:104E7000BC0084E005C086E003C087E001C082E09A
:104E8000DF91CF911F910F91FF9008951F93CF93C2
:104E9000DF93009729F16B3028F5162FEC01A6DF80
:104EA000811122C08091911390919213C817D90754
:104EB00041F03EDF89818093B800D0939213C09374
:104EC0009113109393138881880F816080939413BA
:104ED00088EF8093210285EA8093BC0085E005C0BD
:104EE00086E003C087E001C082E0DF91CF911F918F
:104EF00008951F920F920FB60F9211240BB60F92C6
:104F00002F933F934F935F936F937F938F939F93D1
:104F1000AF93BF93EF93FF93E091B9008E2F90E092
:104F2000FC013897E135F10508F075C08827E45891
:104F3000FF4F8F4F76C210929013E09190138091A3
:104F40009313E81770F481E08E0F80939013F0E0D4
:104F5000EC56FC4E80818093BB0085E88093BC00BA
:104F600072C084E98093BC00809191139091921358
:104F7000DC011296ED91FC911397309709F463C010
:104F800020E040E050E064E019955DC0E0919013AE
:104F900081E08E0F809390138091BB00F0E0EC567F
:104FA000FC4E80838091B900803411F410929013EC
:104FB0002091901330E08091931390E0019728178F
:104FC000390724F485EC8093BC003DC085E88093CC
:104FD000BC0039C08091BB00E0919013F0E0EC562A
:104FE000FC4E808384E98093BC0080919113909162
:104FF0009213DC011296ED91FC911397309719F101
:105000002091931344E953E165E019951CC085EAAA
:105010008093BC0018C08091B9008093210284E085
:105020008093BC008091911390919213DC011296B1
:10503000ED91FC911397309731F020E040E050E083
:10504000609121021995FF91EF91BF91AF919F91CE
:105050008F917F916F915F914F913F912F910F9021
:105060000BBE0F900FBE0F901F901895FC014111C1
:1050700001C01AD3842F90E09C0121503109822372
:105080009323892B09F010D3413808F00DD31282F5
:1050900013824483440F415045837183608380E0D1
:1050A00090E008955058BB27AA270ED021C112D1F5
:1050B00030F017D120F031F49F3F11F41EF407C1F6
:1050C0000EF4E095E7FBFDC0E92F0E94201B78F36A
:1050D000BA17620773078407950720F079F4A6F5DD
:1050E0000C94421B0EF4E0950B2EBA2FA02D0B0151
:1050F000B90190010C01CA01A0011124FF27591B1D
:1051000099F0593F50F4503E68F11A16F040A22F22
:10511000232F342F4427585FF3CF46953795279593
:10512000A795F0405395C9F77EF41F16BA0B620B92
:10513000730B840BBAF09150A1F0FF0FBB1F661FD9
:10514000771F881FC2F70EC0BA0F621F731F841F1C
:1051500048F4879577956795B795F7959E3F08F042
:10516000B1CF9395880F08F09927EE0F9795879503
:1051700008950DD0BDC0B5D048F0ACD038F021F4C2
:105180005F3F21F09EC051110C94431BA0C00E94B0
:10519000201B88F39923B9F35523A1F3951B550BD5
:1051A000BB27AA2762177307840738F09F5F5F4FFA
:1051B000220F331F441FAA1FA9F334D00E2E3AF03A
:1051C000E0E831D091505040E695001CCAF72AD053
:1051D000FE2F28D0660F771F881FBB1F26173707A3
:1051E0004807AB07B0E809F0BB0B802DBF01FF27D4
:1051F00093585F4F32F09E3F510570F062C00C949F
:10520000431B5F3FE4F3983ED4F38695779567950B
:10521000B795F7959F5FC9F7880F911D969587956C
:1052200097F90895E1E0660F771F881FBB1F62178B
:1052300073078407BA0720F0621B730B840BBA0B49
:10524000EE1F88F7E0950895E89409C097FB3EF4B7
:1052500090958095709561957F4F8F4F9F4F9923C3
:10526000A9F0F92F96E9BB279395F6958795779541
:105270006795B795F111F8CFFAF4BB0F11F460FF01
:105280001BC06F5F7F4F8F4F9F4F16C0882311F059
:1052900096E911C0772321F09EE8872F762F05C06D
:1052A000662371F096E8862F70E060E02AF09A9508
:1052B000660F771F881FDAF7880F9695879597F9FD
:1052C000089597F99F6780E870E060E008959FEF88
:1052D00080EC089500240A9416161706180609068D
:1052E000089500240A94121613061406050608955C
:1052F000092E0394000C11F4882352F0BB0F40F4E4
:10530000BF2B11F460FF04C06F5F7F4F8F4F9F4F23
:1053100008950CD0EDCFDEDF28F0E3DF18F0952301
:1053200009F0CFCFD4CF11240C94431B0E94201B33
:1053300090F3959FC1F3950F50E0551F629FF001C8
:10534000729FBB27F00DB11D639FAA27F00DB11D01
:10535000AA1F649F6627B00DA11D661F829F22278A
:10536000B00DA11D621F739FB00DA11D621F839F11
:10537000A00D611D221F749F3327A00D611D231FE7
:10538000849F600D211D822F762F6A2F11249F5735
:10539000504092F0E9F088234AF0EE0FFF1FBB1F48
:1053A000661F771F881F91505040A9F79E3F5105F7
:1053B00078F087CF0C94431B5F3FE4F3983ED4F31F
:1053C000869577956795B795F795E7959F5FC1F7B0
:1053D000FE2B880F911D9695879597F90895A1E268
:1053E0001A2EAA1BBB1BFD010DC0AA1FBB1FEE1F5F
:1053F000FF1FA217B307E407F50720F0A21BB30BAA
:10540000E40BF50B661F771F881F991F1A9469F725
:1054100060957095809590959B01AC01BD01CF0181
:105420000895EE0FFF1F881F8BBF0790F691E02DA8
:1054300019940F931F93CF93DF93869F8001879FCB
:10544000100D969F100D1124C8010DD0EC0100978E
:1054500021F0A80160E070E034D1CE01DF91CF915E
:105460001F910F9108950F931F93CF93DF93823075
:10547000910510F482E090E0E091B813F091B91337
:1054800020E030E0A0E0B0E0309719F14081518198
:105490000281138148175907C8F08417950769F4EA
:1054A000109731F012960C93129713961C9327C005
:1054B0000093B8131093B91322C02115310519F0C8
:1054C0004217530718F49A01BD01EF01DF01F801FB
:1054D000DBCF21153105F9F0281B390B24303105BC
:1054E00080F48A819B816115710521F0FB01938312
:1054F000828304C09093B9138093B813FE0132964F
:1055000044C0FE01E20FF31F8193919322503109B1
:10551000398328833AC02091B6133091B713232BD7
:1055200041F420910202309103023093B71320938B
:10553000B61320910002309101022115310541F48A
:105540002DB73EB74091040250910502241B350B44
:10555000E091B613F091B713E217F307A0F42E1BF6
:105560003F0B2817390778F0AC014E5F5F4F2417C7
:10557000350748F04E0F5F1F5093B7134093B61393
:105580008193919302C0E0E0F0E0CF01DF91CF91F1
:105590001F910F910895CF93DF93009709F481C075
:1055A000FC01329713821282A091B813B091B91303
:1055B000109781F420813181820F931F2091B613BF
:1055C0003091B7132817390751F5F093B713E093CB
:1055D000B61367C0ED0120E030E0CE17DF0740F4DE
:1055E0004A815B819E0141155105F1F0EA01F5CF39
:1055F000D383C28340815181840F951FC817D90777
:1056000059F488819981840F951F02969183808334
:105610008A819B81938382832115310529F4F0933C
:10562000B913E093B8133DC0E901FB83EA834991C4
:105630005991C40FD51FEC17FD0761F4808191814A
:10564000840F951F0296E901998388838281938153
:105650009B838A83E0E0F0E012968D919C911397F2
:10566000009719F0FD01DC01F7CF8D919C91119706
:105670009D012E5F3F4F820F931F2091B6133091F3
:10568000B7132817390769F4309729F41092B91322
:105690001092B81302C013821282B093B713A09372
:1056A000B613DF91CF91089581E090E0F8947DC327
:1056B000FB01DC0102C001900D9241505040D8F72F
:1056C0000895DC0101C06D9341505040E0F708950A
:1056D000FB0151915523B1F0BF01DC01052E4D9125
:1056E000442369F010D0D9F7CD010190002049F092
:1056F0004D91411108D0C9F3FB014111EECF81E07A
:1057000090E001970895402539F0403229F440296E
:105710004B57465E08F018940895FB01DC010D908C
:105720000020E9F7119701900D920020E1F708950C
:10573000FB01DC0101900D920020E1F70895FB01CF
:10574000DC014150504088F08D9181341CF08B3544
:105750000CF4805E619161341CF06B350CF4605E7A
:10576000861B611171F3990B0895881BFCCFCF93B1
:10577000DF93CDB7DEB7AE014A5F5F4FFA016191AB
:105780007191AF018091BC139091BD1361D0DF91F5
:10579000CF9108950F931F93CF93DF93E091BC13A4
:1057A000F091BD13238121FF1BC08C01D0E0C0E02C
:1057B000F80181918F016091BC137091BD13DB01E1
:1057C0001896ED91FC911997882331F01995892B42
:1057D00079F3DFEFCFEFECCF8AE01995892B19F041
:1057E0008FEF9FEF02C08D2F9C2FDF91CF911F91E4
:1057F0000F9108950F931F93CF93DF93CDB7DEB72B
:105800002E970FB6F894DEBF0FBECDBF0E891F894D
:1058100086E08C831A8309838FEF9FE79E838D83B5
:10582000AE01465E5F4F688D798DCE01019610D036
:10583000EF81F885E00FF11F10822E960FB6F894D5
:10584000DEBF0FBECDBFDF91CF911F910F910895A5
:105850002F923F924F925F926F927F928F929F9280
:10586000AF92BF92CF92DF92EF92FF920F931F936E
:10587000CF93DF93CDB7DEB72B970FB6F894DEBF8B
:105880000FBECDBF6C017B018A01FC01178216821D
:10589000838181FFBFC1CE0101963C01F601938156
:1058A000F70193FD859193FF81917F01882309F48E
:1058B000ADC1853239F493FD859193FF81917F01CC
:1058C000853221F4B60190E0D6D1E8CF912C212C7D
:1058D000312CFFE1F315D8F08B3279F038F48032B7
:1058E00079F08332A1F4232D20611DC08D3261F047
:1058F000803369F4232D216016C0832D8260382EF9
:10590000E32DE4603E2E2AC0F32DF8601DC037FC65
:105910002DC020ED280F2A3040F08E32B9F436FC2D
:1059200075C1232D2064322E19C036FE06C08AE0D0
:10593000989E200D1124922E11C0EAE02E9E200D7B
:105940001124222EF32DF0623F2E08C08C3621F454
:10595000832D8068382E02C0883641F4F70193FD0C
:10596000859193FF81917F018111B3CF982F9F7D06
:105970009554933028F40C5F1F4F9FE399830DC01B
:10598000833631F0833771F0833509F055C020C07C
:10599000F801808189830E5F1F4F88248394912CA6
:1059A000530112C02801F2E04F0E511CF801A080F3
:1059B000B18036FE03C0692D70E002C06FEF7FEF4B
:1059C000C5014ED14C018201F32DFF773F2E15C04A
:1059D000280122E0420E511CF801A080B18036FE61
:1059E00003C0692D70E002C06FEF7FEFC5012DD1BC
:1059F0004C01F32DF0683F2E820133FC19C0822D3B
:105A000090E088169906A0F4B60180E290E033D1C8
:105A10002A94F5CFF50137FC859137FE81915F011E
:105A2000B60190E028D121102A9421E0821A910831
:105A30008114910479F7E1C0843611F0893639F583
:105A4000F80137FE07C060817181828193810C5F0C
:105A50001F4F08C060817181072E000C880B990BC5
:105A60000E5F1F4FF32DFF763F2E97FF09C09095D5
:105A70008095709561957F4F8F4F9F4FF0683F2EB7
:105A80002AE030E0A30133D1882E861844C0853740
:105A900031F4232D2F7EB22E2AE030E025C0932D45
:105AA000997FB92E8F36C1F018F4883579F0AEC0E1
:105AB000803719F0883721F0A9C0E92FE061BE2EA8
:105AC000B4FE0DC0FB2DF460BF2E09C034FE0AC029
:105AD000292F2660B22E06C028E030E005C020E164
