S0130000342E53656D6573746572322E7372656335
S1130000E5C0000004C1000002C1000000C10000FE
S1130010FEC00000FCC00000FAC00000F8C00000F0
S1130020F6C00000F4C00000F2C00000F0C0000000
S11300308DC40000ECC00000EAC00000E8C000006D
S1130040E6C00000E4C00000E2C00000E0C0000020
S1130050DEC00000DCC00000DAC00000D8C0000030
S1130060D6C000000C9414260C946626D0C0000060
S1130070CEC00000CCC00000CAC00000C8C0000050
S1130080C6C00000C4C00000C2C00000C0C0000060
S11300900C94AA260C94FC26BAC000000C94362BAF
S11300A0B6C00000B4C00000B2C00000B0C0000080
S11300B0AEC00000ACC00000AAC00000A8C0000090
S11300C0A6C00000A4C00000A2C000000C944027F9
S11300D00C9492279CC000000C94D6270C942828DA
S11300E096C0000050195019501987198F19A41976
S11300F05019501987198F19582BC82BC82BC82B86
S1130100C82BC82BC82BC82B582BC82BC82BC82BC3
S1130110C82BC82BC82BC82B5A2BC82BC82BC82BB1
S1130120C82BC82BC82BC82BC82BC82BC82BC82B33
S1130130C82BC82BC82BC82B5A2BC82BC82BC82B91
S1130140C82BC82BC82BC82BC82BC82BC82BC82B13
S1130150C82BC82BC82BC82BC42BC82BC82BC82B07
S1130160C82BC82BC82BC82B8F2BC82BC82BC82B2C
S1130170C82BC82BC82BC82BC82BC82BC82BC82BE3
S1130180C82BC82BC82BC82B832BC82BC82BC82B18
S1130190C82BC82BC82BC82BA72B0E94A00C80915E
S11301A08317823008F00CD30E94CD19F6CFCF9379
S11301B0DF931F92CDB7DEB7CE0101960E94CD1614
S11301C049810E94C2180E941919F6CF11241FBE3A
S11301D0CFEFD1E2DEBFCDBF00E00CBF19E0A0E05D
S11301E0B2E0E6E7F5E600E00BBF02C007900D922F
S11301F0A637B107D9F72AE1A6E7B9E001C01D92F5
S1130200AD30B207E1F70E94831E0C94B932F8CEE8
S113021040E066E085E0C9D490938E1980938D19EF
S11302200895AF92BF92CF92DF92EF92FF920F9315
S11302301F93CF93DF93E12CF12CC12CD12CA12C53
S1130240B12C10E0C0E0D0E02BC00E943F1A009710
S113025049F0A80EB91E61E070E080E090E00E94D1
S11302606C1001C011E00E94451B009749F0C80EB4
S1130270D91E61E070E080E090E00E946C1001C043
S113028011E00E94761B009749F0E80EF91E61E028
S113029070E080E090E00E946C1001C011E02196B3
S11302A0CA30D10594F2112349F0E7E8F9E111824B
S11302B01082138212821582148216C0C501BE01F7
S11302C00E94AC2D5B01C601BE010E94C02D9B01A2
S11302D0C701BE010E94AC2DE7E8F9E1B182A0821A
S11302E03383228375836483E7E8F9E183818F9301
S11302F082818F9381818F9380818F9385818F9366
S113030084818F938FE692E09F938F930E949B2F1B
S113031000E02FEF3FEFA90167E879E180918D19A3
S113032090918E1965D48DB79EB708960FB6F89440
S11303309EBF0FBE8DBFDF91CF911F910F91FF9094
S1130340EF90DF90CF90BF90AF9008952AE030E017
S113035040E050E06FE879E180918D1990918E1919
S113036014D58FE899E10895E2E8F9E0A6E8B9E048
S1130370B183A08313821282EEE2F7E1F093810944
S1130380E0938009138212821182108288EA9DE030
S113039013969C938E931297ED93FC9390937D09FF
S11303A080937C0990937F0980937E0980E090E894
S11303B090937709809376090895CF93DF93EC01A6
S11303C0A2E8B9E001C0DF01ED91FC911197EC17AF
S11303D0FD07C8F312968D919C9113979D01280FE8
S11303E0391FC217D30749F42A813B81820F931F17
S11303F013969C938E931297ED018A819B819E01A3
S1130400280F391FE217F307C1F4209180093091B6
S11304108109E217F30771F022813381820F931F60
S11304209B838A83ED91FC911197808191819983BB
S1130430888305C03983288302C0F983E883CA17F7
S1130440DB0711F0CD93DC93DF91CF910895EF9208
S1130450FF920F931F93CF93DF938C010E94EB0DB8
S11304608091800990918109892B09F47DDF809125
S113047076099091770980239123892B09F076C01E
S11304800115110549F0C80104960817190718F059
S113049000E010E001C08C010115110509F469C0E8
S11304A080917E0990917F098017910708F464C0B8
S11304B0C0918209D0918309E2E8F9E002C0FE010B
S11304C0EC018A819B818017910720F488819981AE
S11304D00097A9F78091800990918109C817D907DD
S11304E009F44DC0E080F18084E0E80EF11C8881BD
S11304F09981918380832A813B81201B310B293090
S1130500310548F0CE01800F911FFC013383228313
S11305101B830A8352DF2A813B8180917E0990915B
S11305207F09821B930B90937F0980937E094091EE
S11305307C0950917D098417950720F490937D09D7
S113054080937C098091760990917709282B392B27
S11305503B832A831982188280917A0990917B09BE
S1130560019690937B0980937A090BC0E12CF12CBE
S113057008C0E12CF12C05C0E12CF12C02C0E12CC7
S1130580F12C0E942B0FE114F10411F40E94D919EB
S1130590C701DF91CF911F910F91FF90EF900895C4
S11305A00F931F93CF93DF93009791F1EC0124975E
S11305B04A815B812091760930917709BA016223DF
S11305C07323672B29F168817981672B09F52095BD
S11305D03095242335233B832A830E94EB0D8A81A3
S11305E09B8120917E0930917F09820F931F909304
S11305F07F0980937E09CE01E0DE80917809909195
S11306007909019690937909809378090E942B0FB8
S1130610DF91CF911F910F91089580917E09909160
S11306207F090895FC010396928381834FEF5FEF66
S1130630BA01438354836583768390878783928743
S1130640818710820895FC011386128608950F9302
S11306501F93CF93DF93EB01088119812A813B819A
S11306600F3F4FEF14072407340721F4FC01A18541
S1130670B28511C0DC01139601C0DF011496ED911F
S1130680FC9115974081518162817381041715078C
S11306902607370790F71496ED91FC911597FD8383
S11306A0EC83D783C683BF83AE831596DC93CE9346
S11306B014979B878A87FC0120812F5F2083DF9119
S11306C0CF911F910F910895CF93DF93FC01A285E1
S11306D0B385C481D581868197819F838E83C681AA
S11306E0D781848195819D838C8311968D919C9172
S11306F01297E817F90731F48681978112969C9333
S11307008E931197138612868C9181508C938C91C1
S1130710DF91CF910895A89590EC88E10FB6F894F5
S1130720A895809360000FBE909360000895FC012B
S1130730608331977083319710823197108231979B
S113074020E82083319710823197108231971082EC
S1130750779740833197508386970895DCDFA09183
S1130760F117B091F217CD91CDBFDD91DEBFFF91AE
S1130770EF91DF91CF91BF91AF919F918F917F9135
S11307806F915F914F913F912F911F910F91FF9026
S1130790EF90DF90CF90BF90AF909F908F907F901D
S11307A06F905F904F903F902F901F900F900CBED2
S11307B00F900BBE0F900FBE0F90089581E0089527
S11307C00F920FB6F8940F920BB60F920CB60F92CD
S11307D01F9211242F923F924F925F926F927F92B9
S11307E08F929F92AF92BF92CF92DF92EF92FF923D
S11307F00F931F932F933F934F935F936F937F9325
S11308008F939F93AF93BF93CF93DF93EF93FF9314
S1130810A091F117B091F2170DB60D920EB60D928C
S11308200E948710A091F117B091F217CD91CDBF1E
S1130830DD91DEBFFF91EF91DF91CF91BF91AF9139
S11308409F918F917F916F915F914F913F912F91E4
S11308501F910F91FF90EF90DF90CF90BF90AF90DA
S11308609F908F907F906F905F904F903F902F90CC
S11308701F900F900CBE0F900BBE0F900FBE0F90E9
S113088008950F920FB6F8940F920BB60F920CB610
S11308900F921F9211242F923F924F925F926F9268
S11308A07F928F929F92AF92BF92CF92DF92EF92FC
S11308B0FF920F931F932F933F934F935F936F93E5
S11308C07F938F939F93AF93BF93CF93DF93EF93D4
S11308D0FF93A091F117B091F2170DB60D920EB6D9
S11308E00D9213BE0E94FF0D81110E948710A091EA
S11308F0F117B091F217CD91CDBFDD91DEBFFF911D
S1130900EF91DF91CF91BF91AF919F918F917F91A3
S11309106F915F914F913F912F911F910F91FF9094
S1130920EF90DF90CF90BF90AF909F908F907F908B
S11309306F905F904F903F902F901F900F900CBE40
S11309400F900BBE0F900FBE0F9008959ADF18956D
S1130950DC0153962C915397222341F05A96ED9142
S1130960FC915B9790818AE0891B089580E008954B
S11309700FB6F8940F92FC01868D811102C081E0BC
S113098001C080E00F900FBE08950FB6F8940F9247
S1130990FC01268D878D281302C081E001C080E010
S11309A00F900FBE08950F931F93CF93DF93EC0125
S11309B0042F1E8D48A141110CC088819981892B77
S11309C009F042C08C819D810E941F131D821C82EC
S11309D042C0011117C050E08A819B810E943C2FC4
S11309E028A18A819B81820F911D9B838A832C81FC
S11309F03D818217930750F1888199819B838A8373
S1130A0080E029C050E08E819F810E943C2F88A104
S1130A1090E09195819591092E813F81280F391F8E
S1130A203F832E83488159812417350730F42C8164
S1130A303D81820F931F9F838E83023049F41123DB
S1130A4049F0115080E007C080E005C080E003C099
S1130A5080E001C080E01F5F1E8FDF91CF911F9166
S1130A600F910895FC0140A14423A9F050E0268190
S1130A703781240F351F3783268384819581281776
S1130A80390720F08081918197838683CB01668129
S1130A9077810C943C2F08951F93CF93DF93EC013F
S1130AA00FB6F8940F921AA10BC08B89882351F0CA
S1130AB0CE0143960E94451181110E94811211506A
S1130AC011169CF38FEF8AA30F900FBE0FB6F89404
S1130AD00F9219A10BC08885882351F0CE01089686
S1130AE00E94451181110E948112115011169CF32C
S1130AF08FEF89A30F900FBEDF91CF911F910895BF
S1130B00CF93DF93EC010FB6F8940F92E881F9814B
S1130B108F8D28A190E030E0829FA001839F500D2B
S1130B20929F500D11244E0F5F1F5D834C831E8EC8
S1130B30FB83EA830197289FA001299F500D389FCA
S1130B40500D1124CF01840F951F9F838E838FEF47
S1130B5089A38AA361110BC08885882371F0CE0113
S1130B6008960E944511882341F02ADE06C0CE0172
S1130B70089658DDCE01439655DD0F900FBE81E0F7
S1130B80DF91CF9108950F931F93F801611103C072
S1130B901183008302C051834083878F60A361E087
S1130BA0CF01AEDF1F910F910895DF92EF92FF9274
S1130BB00F931F93CF93DF93F82EE62ED42E869FA8
S1130BC0C0011124839643DCEC01009741F08C01B1
S1130BD02D2DAC014D5D5F4F6E2D8F2DD4DFCE01D9
S1130BE0DF91CF911F910F91FF90EF90DF900895C7
S1130BF0CF92DF92EF92FF920F931F93CF93DF93E5
S1130C00CDB7DEB729970FB6F894DEBF0FBECDBFC0
S1130C107C016B012E833F834887598710E00FB610
S1130C20F8940F92F701968D878D981710F0023083
S1130C30B1F4402FB601C701B6DEF70193899923B9
S1130C4041F0C70143960E944511882321F0B8DD85
S1130C5002C08111B5DD0F900FBE81E04CC08E81C2
S1130C609F81A885B985892B8A2B8B2B21F40F9022
S1130C700FBE80E040C0111105C0CE0101960E9454
S1130C800A1211E00F900FBEA6D70FB6F8940F9278
S1130C90F70181A18F3F09F411A2F70182A18F3FCF
S1130CA009F412A20F900FBEBE016A5F7F4FCE01FE
S1130CB001960E941B12811119C0C70166DE8823A8
S1130CC081F04E815F8168857985C70108960E940D
S1130CD0EC10C701E1DE0E942B0F8111A0CF70DD63
S1130CE09ECFC701D9DE0E942B0F99CFC701D4DE56
S1130CF00E942B0F80E029960FB6F894DEBF0FBE3A
S1130D00CDBFDF91CF911F910F91FF90EF90DF90B6
S1130D10CF900895EF92FF920F931F93CF93DF9399
S1130D208A01FC01568D378D531710F02230F9F4E7
S1130D30422F7801EC011AA18E8DCE0134DE1F3FC3
S1130D4081F48B898823A9F0CE0143960E94451132
S1130D50882389F0E114F10481F081E0F7018083B4
S1130D600DC0FF24F394F10EFAA281E007C080E0E5
S1130D7005C081E003C081E001C081E0DF91CF9133
S1130D801F910F91FF90EF900895CF92DF92EF9211
S1130D90FF920F931F93CF93DF93CDB7DEB72997BD
S1130DA00FB6F894DEBF0FBECDBF8C016B012E834E
S1130DB03F8348875987E12C0FB6F8940F92F801C6
S1130DC0F68CFF2099F0B601C8014CDEFA94F801C4
S1130DD0F68E8085882331F0C80108960E9445115B
S1130DE08111EEDC0F900FBE81E04FC08E819F8198
S1130DF0A885B985892B8A2B8B2B21F40F900FBEE4
S1130E0080E043C0E11006C0CE0101960E940A12A0
S1130E10EE24E3940F900FBEDED60FB6F8940F9233
S1130E20F80181A18F3F09F411A2F80182A18F3F3B
S1130E3009F412A20F900FBEBE016A5F7F4FCE016C
S1130E4001960E941B12811117C0C80191DD8823ED
S1130E5079F04E815F8168857985C80143960E9447
S1130E60EC10C80119DEF7D78111A6CFA9DCA4CFF5
S1130E70C80112DEF0D7A0CFC8010EDEECD7C8013E
S1130E8077DD882309F498CF80E029960FB6F8948B
S1130E90DEBF0FBECDBFDF91CF911F910F91FF90A9
S1130EA0EF90DF90CF900895EF92FF920F931F93EE
S1130EB0CF93DF93CDB7DEB729970FB6F894DEBF93
S1130EC00FBECDBF8C014E835F8368877987E12C89
S1130ED0F12C0FB6F8940F92F801868D8823C9F08F
S1130EE08150868F80819181892B29F40E94E1139E
S1130EF0F80195838483F8018085882331F0C80143
S1130F0008960E94451181115BDC0F900FBE81E0B1
S1130F106FC08E819F81A885B985892B8A2B8B2BE5
S1130F2021F40F900FBE80E063C0F11006C0CE0123
S1130F3001960E940A12FF24F3940F900FBE4BD621
S1130F400FB6F8940F92F80181A18F3F09F411A212
S1130F50F80182A18F3F09F412A20F900FBEBE01C7
S1130F606A5F7F4FCE0101960E941B12811126C039
S1130F70C801FEDC8823F1F0F80180819181892B7E
S1130F8051F40FB6F8940F92848195810E949812BF
S1130F90E82E0F900FBE4E815F8168857985C80168
S1130FA043960E94EC10C80177DD55D7811191CF8B
S1130FB007DC8FCFC80170DD4ED78BCFC8016CDD45
S1130FC04AD7C801D5DC882309F483CFEE2079F011
S1130FD00FB6F8940F92C801BBDC682FF801848126
S1130FE095810E947A130F900FBE80E001C080E0CB
S1130FF029960FB6F894DEBF0FBECDBFDF91CF9117
S11310001F910F91FF90EF900895CF93DF93EC0120
S11310100FB6F8940F9289A18F3F09F419A28AA1FF
S11310208F3F09F41AA20F900FBE8E8D811104C058
S1131030CE0143960E940311CE012EDDDF91CF91A4
S11310400895FC014481558122813381240F351F89
S113105080819181B901681B790BCB0164177507F5
S113106010F0841B950B08950F93FC018FE0DF01B2
S11310701D928A95E9F7758764875583448337837E
S1131080268306870F910895AF92BF92CF92DF9285
S1131090EF92FF920F931F93CF93DF936C015B0149
S11310A07A01FC01C281D381048115810C1B1D0BC3
S11310B04017510708F48A01F60184859585A80133
S11310C0B5018C0F9D1F0E943C2F0E151F0558F46F
S11310D0A701401B510BB501600F711FF6018485F8
S11310E095850E943C2FCE018E0D9F1DF601248113
S11310F035818217930710F0821B930BF6019383BB
S11311008283C701DF91CF911F910F91FF90EF90E0
S1131110DF90CF90BF90AF900895CF92DF92EF927F
S1131120FF920F931F93CF93DF931F921F92CDB71C
S1131130DEB77C016B015A83498321153105C1F067
S1131140FC01868580FD08C04217530708F49A0104
S11311503A83298381E00FC02017310758F042E019
S113116050E0BE016F5F7F4FC7018EDF81E003C097
S113117080E001C080E0882331F049815A81B601C2
S1131180C70182DF02C080E090E00F900F90DF91F2
S1131190CF911F910F91FF90EF90DF90CF90089522
S11311A0AF92BF92CF92DF92EF92FF920F931F9371
S11311B0CF93DF937C015B01E9014217530708F4E5
S11311C0EA01209781F1F7010081118184819581E1
S11311D0801B910B6E018C179D0708F46C01F701BD
S11311E064857585600F711FA601C5010E943C2F9F
S11311F0CC16DD0658F4AE014C195D09F70164857F
S11312007585C5018C0D9D1D0E943C2F0C0F1D1F63
S1131210F701848195810817190710F0081B190B31
S1131220F70111830083CE01DF91CF911F910F91BC
S1131230FF90EF90DF90CF90BF90AF9008956F92A2
S11312407F928F929F92AF92BF92CF92DF92EF9252
S1131250FF920F931F93CF93DF931F921F92CDB7EB
S1131260DEB76C014B015A01790101151105B1F08A
S1131270FC0160807180A801BE016F5F7F4F90DF29
S113128089819A81E01AF10AA816B90630F4F601A8
S113129071826082A12CB12C01C05C019701A5016F
S11312A0B401C6017DDF0F900F90DF91CF911F91A4
S11312B00F91FF90EF90DF90CF90BF90AF909F90F1
S11312C08F907F906F900895CF92DF92EF92FF926C
S11312D00F93CF93DF93EC016B01413011F401E0E4
S11312E001C000E0C114D10419F4CC24C394D12C5E
S11312F0CE014096C817D90720F42196A8D87C01BE
S113130002C0E12CF12CE114F10439F09601AE0194
S1131310B701615F7F4FC701A7DEC701DF91CF919E
S11313200F91FF90EF90DF90CF9008950F930FB639
S1131330F8940F92FC0120853185232B71F42285CA
S11313403385232B61F4268137814481558164855B
S11313507585068589DE81E003C080E001C080E0F8
S11313600F900FBE0F910895FC0124813581808177
S11313709181820F931F42815381841B950B0197A6
S11313808217930710F0821B930B08952F923F92BC
S11313904F925F926F927F928F929F92AF92BF9281
S11313A0CF92DF92EF92FF920F931F93CF93DF932D
S11313B0CDB7DEB72B970FB6F894DEBF0FBECDBF07
S11313C04C017B876A871A010E831F83288739871C
S11313D0FC01848195810197268520FF0CC02A0198
S11313E0F2E04F0E511C8415950558F41E821F829D
S11313F01886198606C08417950710F02A0101C0C3
S11314002C018E819F81A885B985892B8A2B8B2BF2
S113141009F436C0CE010196E7D70FB6F8940F92BF
S1131420C401A2DF3C018415950538F560E080E035
S113143090E00E94B3160E948512F401938782877C
S11314400F900FBEAE80BF80C884D984E12CF12CEC
S113145000E010E0980140E050E0BA0180E00E9412
S1131460F313F40113861286BE016A5F7F4FCE0127
S11314700196E1D7882389F205C00F900FBE02C000
S1131480612C712C6114710419F4C4016DDF3C01E9
S113149082019301A1016A857B85C4013EDE6C0152
S11314A0892BE9F0C401CDDDF4012681378182174F
S11314B09307A8F090D3F40180859185892B71F06E
S11314C080859185E12CF12C00E020E030E0A90139
S11314D060E00E949A14F40111861086BCD4C601FF
S11314E02B960FB6F894DEBF0FBECDBFDF91CF9120
S11314F01F910F91FF90EF90DF90CF90BF90AF902E
S11315009F908F907F906F905F904F903F902F901F
S11315100895AF92BF92CF92DF92EF92FF920F9312
S11315201F93CF93DF93EC017B015A0169018E85F0
S113153080FF04C08A010E5F1F4F01C08A01CE01E3
S113154013DF9C01A501B701CE01E7DD5C01892B06
S1131550C1F0CE0176DD2E813F818217930788F09A
S113156088859985892B69F088859985E12CF12CEA
S113157000E020E030E0A90160E00E9491151986A6
S11315801886C501DF91CF911F910F91FF90EF90C5
S1131590DF90CF90BF90AF9008954F925F926F927B
S11315A07F928F929F92AF92BF92CF92DF92EF92EF
S11315B0FF920F931F93CF93DF93EC012B013A011A
S11315C0580169018E8580FF05C06894882481F8DC
S11315D0912C02C0812C912CA114B104C104D1041A
S11315E039F10FB6F8940F92CE012BDD7C018816E9
S11315F0990640F060E080E090E00E94B31685D741
S1131600998788870F900FBE8E149F04A0F0E12C59
S1131610F12C00E010E0980140E050E0BA0180E0D5
S11316200E94F31319861886CE010BDD7C0103C0DA
S1131630CE0107DD7C018E149F04E8F48401970138
S1131640A301B201CE01FBDD6C01892BB1F0C3D241
S11316508A859B85892B69F08A859B85E12CF12CF1
S113166000E020E030E0A90160E00E949A141B86AB
S11316701A86F1D302C0C12CD12CC601DF91CF91BF
S11316801F910F91FF90EF90DF90CF90BF90AF909C
S11316909F908F907F906F905F904F900895E0910E
S11316A06B17F0916C17808181110CC08FEF9FEF45
S11316B0DC018093351790933617A0933717B093B6
S11316C038170895E0916B17F0916C170780F08537
S11316D0E02D80819181A281B3818093351790930D
S11316E03617A0933717B09338170895CF93DF9325
S11316F0EC018B8D9C8D0E94D002CE010E94D00201
S1131700DF91CF9108954F925F926F927F928F9263
S11317109F92AF92BF92CF92DF92EF92FF920F937C
S1131720CF93DF932C015B014A013901E60165EA9D
S113173070E08B8D9C8D0E94452F8B8D9C8D21E0BC
S1131740821A9108880E991EA114B10489F415C057
S1131750822F90E0F501E80FF91F3081DE01A80F18
S1131760B91F5D963C938081882329F02F5F01C0C7
S113177020E0203168F31CA601C01D8E0A3008F059
S113178009E00A8F0DA71EA6CE0102960E9423032C
S1131790CE010E960E942303DB87CA878AE090E07D
S11317A0A0E0B0E0801B9109A109B1098E879F8751
S11317B0A88BB98BDF8BCE8B84E0FE01BF96DF0153
S11317C01D928A95E9F71BAAA301B201C4010E94E4
S11317D0970399838883E114F10419F0F701D18305
S11317E0C083DF91CF910F91FF90EF90DF90CF9066
S11317F0BF90AF909F908F907F906F905F904F902D
S11318000895CF93C0E009C02BE0C29FC00111240A
S11318108D57984E0E941203CF5FCA30A8F388E711
S113182097E10E9412038DE697E10E9412038EE570
S113183097E10E94120383E597E10E94120387E473
S113184097E10E94120388E797E190936C178093C5
S11318506B178DE697E190936A1780936917CF9180
S11318600895CF93DF93EC010FB6F8940F92809113
S113187046178F5F809346178091F1179091F21766
S1131880892B51F4D093F217C093F1178091461726
S1131890813091F4B6DF10C08091401781110CC0E3
S11318A0E091F117F091F217928D8A8D891720F04B
S11318B0D093F217C093F117809139178F5F8093FB
S11318C03917EA8D809141178E1710F4E093411770
S11318D08BE08E9FF0011124ED57F84E0180F281C8
S11318E0E02DFF83EE832681378139872887A681FF
S11318F0B7819E012E5F3F4F15963C932E9314970C
S113190037832683EA8D8E9FF0011124ED57F84E1C
S1131910FD87EC8780818F5F80830F900FBE80915D
S11319204017882351F0E091F117F091F217928D4E
S11319308A8D981710F40E94E003DF91CF910895E7
S1131940CF93DF931BC00FB6F8940F92E0915A1710
S1131950F0915B17C085D185CE0102960E94640385
S11319608091461781508093461780915217815079
S1131970809352170F900FBECE01B8DE809152179C
S11319808111E1CFDF91CF9108958F929F92AF9211
S1131990BF92CF92DF92EF92FF92CF93DF936B01CE
S11319A07C01C42F8090421790904317A090441755
S11319B0B09045178091F1179091F21702960E940A
S11319C064038FEFC816D806E806F806B1F5CC23F1
S11319D0A1F1E7E4F7E1A181B281C091F117D091BF
S11319E0F217BF83AE83C091F117D091F217169608
S11319F08D919C911797998788871696CD91DC9144
S1131A0017978091F1179091F21702969D838C831A
S1131A108091F1179091F217029617969C938E93EA
S1131A201697A091F117B091F2171D96FC93EE93BF
S1131A301C9780818F5F80833FC0C80CD91CEA1C2F
S1131A40FB1CE091F117F091F217C282D382E48279
S1131A50F582C814D904EA04FB0468F46091F11710
S1131A607091F2178091691790916A176E5F7F4F9A
S1131A700E94270321C06091F1177091F2178091A1
S1131A806B1790916C176E5F7F4F0E9427038091B4
S1131A90351790913617A0913717B0913817C8169B
S1131AA0D906EA06FB0640F4C0923517D0923617E1
S1131AB0E0923717F0923817DF91CF91FF90EF90B3
S1131AC0DF90CF90BF90AF909F908F9008952F920A
S1131AD03F924F925F926F927F928F929F92AF92BA
S1131AE0BF92CF92DF92EF92FF920F93CF93DF9347
S1131AF03C011B014A012901CA010E9427026C0111
S1131B00892B71F084E390E00E942702EC01892B79
S1131B1019F0DC8ECB8E06C0C6010E94D00202C032
S1131B20C0E0D0E0209761F0A12CB12C6E019201AD
S1131B30A401B101C301E7DDCE0193DE81E001C060
S1131B408FEFDF91CF910F91FF90EF90DF90CF90C7
S1131B50BF90AF909F908F907F906F905F904F90C9
S1131B603F902F900895EF92FF920F930F2EF3E37F
S1131B70EF2EF7E1FF2EF02D00E020E030E040EC06
S1131B8050E06AE972E08DEC90E0A1DF813011F45D
S1131B900E9457178130C9F4F8948FEF9FEFDC014E
S1131BA08093351790933617A0933717B09338174F
S1131BB081E08093401710924217109243171092BD
S1131BC04417109245170E94AE03809106020F91AC
S1131BD0FF90EF900895809132178F5F80933217B2
S1131BE008950FB6F8940F926091421770914317BD
S1131BF080914417909145170F900FBE0895CF928E
S1131C00DF92EF92FF92CF93DF938091321781118D
S1131C1005C1C0904217D0904317E0904417F0904C
S1131C2045178FEFC81AD80AE80AF80AC092421773
S1131C30D0924317E0924417F0924517C114D1048F
S1131C40E104F104B1F480916B1790916C17209129
S1131C50691730916A1730936C1720936B17909320
S1131C606A178093691780913A178F5F80933A17A8
S1131C7016DD8091351790913617A0913717B091E2
S1131C803817C816D906EA06FB0620F480E0B2C06D
S1131C9081E001C080E0E0916B17F0916C179081B6
S1131CA091110CC04FEF5FEFBA0140933517509379
S1131CB0361760933717709338179CC0E0916B17F1
S1131CC0F0916C170780F085E02D0084F185E02DFC
S1131CD04281538164817581C416D506E606F706F0
S1131CE048F4409335175093361760933717709321
S1131CF0381780C0A485B585C681D78120853185F4
S1131D003F832E83C085D185268137813D832C83F3
S1131D1011964D915C9112979F012E5F3F4F421790
S1131D20530731F44085518512965C934E93119775
S1131D30158614869C9191509C93A08DB18D10971B
S1131D4009F1C289D389448955895F834E83C48943
S1131D50D589428953895D834C8311966D917C9119
S1131D601297AF01425F5F4F6417750731F44489DE
S1131D70558912965C934E931197118E108E9C91F7
S1131D8091509C93A28D909141179A1710F4A093AF
S1131D9041179BE09A9FD0011124AD57B84E11967C
S1131DA00D90BC91A02DB783A68316964D915C919E
S1131DB01797518740871696CD91DC9117973D83ED
S1131DC02C8317963C932E931697A28D9A9FD0013D
S1131DD01124AD57B84EB587A4879C919F5F9C93FF
S1131DE0228DE091F117F091F217928D291708F0E6
S1131DF04FCF51CFE091F117F091F217E28D9BE0B4
S1131E00E99FF0011124ED57F84E9081923008F0CB
S1131E1081E090913B17911116C016C080913C1738
S1131E2090913D17A0913E17B0913F170196A11DC7
S1131E30B11D80933C1790933D17A0933E17B09328
S1131E403F1780E001C081E0DF91CF91FF90EF90D8
S1131E50DF90CF900895CF92DF92EF92FF92CF93CD
S1131E60DF930FB6F8940F928091321781508093CC
S1131E703217809132178111BEC0809146178111AB
S1131E8088C0BCC0E0916517F09166170084F185A5
S1131E90E02DA08DB18DC289D389848995899F83D2
S1131EA08E83C489D589828993899D838C83119675
S1131EB02D913C911297CF010E962817390731F4D2
S1131EC08489958912969C938E931197118E108E06
S1131ED08C9181508C93A485B585C681D7818085EA
S1131EE091859F838E83C085D185868197819D83CB
S1131EF08C8311968D919C9112979F012E5F3F4F79
S1131F008217930731F48085918512969C938E9362
S1131F101197158614868C9181508C93A28D809193
S1131F2041178A1710F4A09341178BE08A9FD001C0
S1131F301124AD57B84E11960D90BC91A02DB783C6
S1131F40A68316964D915C911797518740871696F4
S1131F50CD91DC9117973D832C8317963C932E9358
S1131F601697A28D8A9FD0011124AD57B84EB5871C
S1131F70A4878C918F5F8C93928DA091F117B0916F
S1131F80F2175A968C91981730F081E080933B17A2
S1131F9002C0E0E0F0E080915E17811173CFEF2B77
S1131FA009F07DDBC0903C17D0903D17E0903E17C0
S1131FB0F0903F17C114D104E104F104A1F01FDE35
S1131FC0882319F081E080933B1781E0C81AD10877
S1131FD0E108F108A1F710923C1710923D171092F6
S1131FE03E1710923F1780913B17882331F00E94CF
S1131FF0E00381E003C080E001C080E00F900FBEE9
S1132000DF91CF91FF90EF90DF90CF9008958F9262
S11320109F92AF92BF92CF92DF92EF92FF921F9363
S1132020CF93DF93EC016A017B01D5DD80904217E9
S113203090904317A0904417B090451788819981D8
S1132040AA81BB81AC01BD014C0D5D1D6E1D7F1DC0
S113205088169906AA06BB0660F4481759076A074A
S11320607B0798F484169506A606B70680F010E060
S113207013C0481759076A077B0758F0841695065A
S1132080A606B70640F010E007C010E005C011E056
S113209003C011E001C011E0488359836A837B8344
S11320A0112341F0CB01BA01681979098A099B0906
S11320B040E06BDCD0DE811102C00E94E003812F7E
S11320C0DF91CF911F91FF90EF90DF90CF90BF9061
S11320D0AF909F908F900895CF92DF92EF92FF92EE
S11320E06B017C01672B682B692B39F074DD40E0B0
S11320F0C701B6014ADCAFDE01C080E0811102C035
S11321000E94E003FF90EF90DF90CF9008958091BC
S11321103217882321F081E080933B1708951092B1
S11321203B17E091F117F091F21720813181E09192
S1132130F117F091F217838D948D8217930760F055
S11321406091F1177091F217635E7F4F8091F117E0
S11321509091F2170E94E5198091411701C08150B6
S1132160282F30E09BE0929FF001939FF00D112403
S1132170ED57F84E9081992391F39BE0929FA00133
S1132180939F500D1124DF010180F281E02D048022
S1132190F581E02D1296FC93EE9311974A57584E11
S11321A0E417F50729F444815581FD0152834183E5
S11321B09BE0929FF001939FF00D1124ED57F84E90
S11321C00180F281E02D208531853093F217209330
S11321D0F117809341170895CF92DF92EF92FF9207
S11321E06A017B016091F1177091F217625F7F4F72
S11321F00E94270341E0C701B601C7DBFF90EF90BF
S1132200DF90CF900895CF93DF93FC01CB01BA0107
S1132210A181B281C091F117D091F217BB8BAA8B27
S1132220C091F117D091F21716964D915C911797C2
S11322305D8B4C8B1696CD91DC9117974091F117DD
S11322405091F217425F5F4F5D834C834091F117C9
S11322505091F217425F5F4F17965C934E93169717
S1132260A091F117B091F2175996FC93EE935897F9
S113227030813F5F3083222319F06FEF7FEFCB0172
S1132280422F83DBDF91CF910895CF93DF93DC015D
S11322901796ED91FC9118970084F185E02DA08D9F
S11322A0B18DC289D389848995899F838E83C4899A
S11322B0D589828993899D838C8311968D919C9174
S11322C012979F01225F3F4F8217930731F484894D
S11322D0958912969C938E931197118E108E8C91E2
S11322E081508C9380913217811152C0A485B58599
S11322F0C681D781808591859F838E83C085D18552
S1132300868197819D838C8311968D919C911297E0
S11323109F012E5F3F4F8217930731F4808591858B
S113232012969C938E931197158614868C918150E6
S11323308C93A28D809141178A1710F4A0934117B2
S11323408BE08A9FD0011124AD57B84E11960D90A1
S1132350BC91A02DB783A68316964D915C911797D7
S1132360518740871696CD91DC9117973D832C8336
S113237017963C932E931697A28D8A9FD001112411
S1132380AD57B84EB587A4878C918F5F8C931CC0D2
S11323904EE557E1DA011196CD91DC911297D38B7A
S11323A0C28B8E819F81958B848B8E819F81DC0172
S11323B015963C932E9314973F832E83518F408F11
S11323C0DA018C918F5F8C93928DE091F117F091EB
S11323D0F217828D891720F481E080933B1701C0A6
S11323E080E0DF91CF9108950FB6F8940F92209179
S11323F03A17FC0120834091421750914317609192
S113240044177091451741835283638374830F90FB
S11324100FBE089520913A17FC0120834091421782
S1132420509143176091441770914517418352832B
S11324306383748308958F929F92AF92BF92CF92D9
S1132440DF92EF92FF920F931F93CF93DF93FB01E1
S11324500FB6F8940F92C0904217D0904317E090B3
S11324604417F0904517DC0111960D911D912D91A3
S11324703C91149746015701801A910AA20AB30AA3
S113248040815181628173814F3FBFEF5B076B07CE
S11324907B0739F1EC01B881A0913A17BA1759F0CA
S11324A0C016D106E206F30630F0108211821282C1
S11324B0138281E017C084169506A606B70658F461
S11324C0481959096A097B094083518362837383DC
S11324D0A1DF80E007C0108211821282138281E0A2
S11324E001C080E00F900FBEDF91CF911F910F913B
S11324F0FF90EF90DF90CF90BF90AF909F908F9020
S1132500089581E080933B1708958091F11790918D
S1132510F217089580914017882331F08091321783
S1132520811104C082E0089581E0089580E0089557
S11325300F931F93CF93DF93FC01892B09F477C08A
S1132540828DA091F117B091F2175A969C91891738
S113255008F063C04685578560897189772394F0B4
S1132560A091F117B091F2175A969C914AE050E06D
S113257060E070E0491B510961097109468757877A
S1132580608B718B248535854BE0849FC0011124B9
S11325908D57984E28173907B9F5EF018F010E5F53
S11325A01F4FC8010E946403E091F117F091F217E4
S11325B0E28DEA8F809141178E1710F4E093411752
S11325C08BE08E9FF0011124ED57F84E0180F281CB
S11325D0E02DFF83EE832681378139872887A68102
S11325E0B78115961C930E93149717830683EA8D6F
S11325F08E9FF0011124ED57F84EFD87EC87808102
S11326008F5F808381E016C0A091F117B091F2171B
S11326105A968C91828F81E00DC095A5E091F117B7
S1132620F091F217828D981720F080E003C080E0CB
S113263001C081E0DF91CF911F910F9108950F9315
S11326401F93CF93DF93FC01892B09F449C086A51E
S1132650815086A7228D95A5291709F443C08111BD
S113266043C0EF018F010E5F1F4FC8010E94640336
S1132670EDA5EA8F8AE090E0A0E0B0E08E1B91091E
S1132680A109B1098E879F87A88BB98B80914117C7
S11326908E1710F4E09341178BE08E9FF001112404
S11326A0ED57F84E0180F281E02DFF83EE83268101
S11326B0378139872887A681B78115961C930E9395
S11326C0149717830683EA8D8E9FF0011124ED572A
S11326D0F84EFD87EC8780818F5F808381E005C0A1
S11326E080E003C080E001C080E0DF91CF911F91C2
S11326F00F9108950F931F93CF93DF93FC01892BC0
S113270009F45AC085A5861708F4862F928D891777
S113271009F452C026A5213009F04EC0828F4685A7
S1132720578560897189772364F04AE050E060E05E
S113273070E0481B51096109710946875787608B0E
S1132740718B248535854BE0949FC00111248D57EE
S1132750984E2817390781F5EF018F010E5F1F4F3F
S1132760C8010E946403EA8D809141178E1710F40A
S1132770E09341178BE08E9FF0011124ED57F84E42
S11327800180F281E02DFF83EE8326813781398732
S11327902887A681B78115961C930E9314971783E7
S11327A00683EA8D8E9FF0011124ED57F84EFD87C4
S11327B0EC8780818F5F8083DF91CF911F910F9190
S11327C008958091F1179091F217892B39F0E091D7
S11327D0F117F091F21786A58F5F86A78091F11704
S11327E09091F21708954F925F926F927F92AF92F9
S11327F0BF92CF92DF92EF92FF920F931F93CF93EA
S1132800DF93280139010FB6F8940F92E091F11784
S1132810F091F217C82FD0E0EC0FFD1F83A982308E
S113282071F1E091F117F091F217CE01880F991F21
S1132830880F991FE80FF91F87A590A9A1A9B2A92C
S11328404095509560957095482359236A237B23BE
S113285047A750AB61AB72ABE091F117F091F2175F
S1132860EC0FFD1F81E083ABA114B104C104D104BA
S113287031F041E0C601B50188D80E94E0030F9011
S11328800FBE0FB6F8940F92E114F104A1F0E09199
S1132890F117F091F217CE01880F991F880F991F35
S11328A0E80FF91F87A590A9A1A9B2A9F701808310
S11328B09183A283B383E091F117F091F217EC0FA7
S11328C0FD1F83A98230E9F4E091F117F091F2172A
S11328D0CE01880F991F880F991FE80FF91F87A54C
S11328E090A9A1A9B2A940945094609470944822EC
S11328F059226A227B2247A650AA61AA72AA81E0C1
S113290001C080E02091F1173091F217C20FD31F5C
S11329101BAA0F900FBEDF91CF911F910F91FF90D3
S1132920EF90DF90CF90BF90AF907F906F905F90CB
S11329304F9008958F929F92AF92BF92EF92FF9221
S11329400F93CF93DF93DC010FB6F8940F92E11449
S1132950F10489F0E62FF0E0EE0FFF1FEE0FFF1FEA
S1132960E80FF91F87A490A8A1A8B2A8F701808254
S11329709182A282B38270E0FD01E60FF71F83A962
S113298092E093AB023001F118F4013031F04DC004
S1132990033079F10430D1F148C0660F771F660F18
S11329A0771FFD01E60FF71F87A490A8A1A8B2A87E
S11329B0BA01A901482959296A297B2947A750AB9B
S11329C061AB72AB01E034C0660F771F660F771FEF
S11329D0FD01E60FF71F47A550A961A972A94F5F32
S11329E05F4F6F4F7F4F47A750AB61AB72AB01E0B6
S11329F01FC0660F771F660F771FFD01E60FF71FD5
S1132A0027A730AB41AB52AB01E012C0823079F062
S1132A10660F771F660F771FFD01E60FF71F27A7C5
S1132A2030AB41AB52AB01E003C001E001C000E0B8
S1132A30813009F069C01C96ED91FC911D971696A2
S1132A40CD91DC91179718968D919C9119979F833E
S1132A508E831896CD91DC91199716968D919C9141
S1132A6017979D838C83818192819D012E5F3F4FB7
S1132A708217930731F418968D919C91199792833C
S1132A8081831D961C921E921C97808181508083A5
S1132A905A96EC915A97809141178E1710F4E0934F
S1132AA041178BE08E9FF0011124ED57F84E018001
S1132AB0F281E02D1796FC93EE9316974681578189
S1132AC019965C934E931897C681D7813D832C83C6
S1132AD0378326835A96EC915A978E9FF0011124DE
S1132AE0ED57F84E1D96FC93EE931C9780818F5FF3
S1132AF080835A969C91E091F117F091F217828DA0
S1132B00891710F40E94E0030F900FBE802FDF910D
S1132B10CF910F91FF90EF90BF90AF909F908F90C7
S1132B2008958F929F92AF92BF92CF92DF92EF92CD
S1132B30FF920F93CF93DF93DC01E114F10489F04A
S1132B40E62FF0E0EE0FFF1FEE0FFF1FE80FF91F57
S1132B5087A490A8A1A8B2A8F70180829182A2823A
S1132B60B38270E0FD01E60FF71F93A982E083AB07
S1132B70023001F118F4013031F04DC0033079F125
S1132B800430D1F148C0660F771F660F771FFD012F
S1132B90E60FF71F87A490A8A1A8B2A8BA01A901BB
S1132BA0482959296A297B2947A750AB61AB72ABE5
S1132BB081E034C0660F771F660F771FFD01E60FB3
S1132BC0F71F47A550A961A972A94F5F5F4F6F4FC7
S1132BD07F4F47A750AB61AB72AB81E01FC0660F5C
S1132BE0771F660F771FFD01E60FF71F27A730AB8E
S1132BF041AB52AB81E012C0923079F0660F771F7F
S1132C00660F771FFD01E60FF71F27A730AB41AB17
S1132C1052AB81E003C081E001C080E0913009F053
S1132C2096C09091321791115FC01C96ED91FC9162
S1132C301D971696CD91DC91179718962D913C917E
S1132C4019973F832E831896CD91DC911997169688
S1132C502D913C9117973D832C83418152819D0195
S1132C602E5F3F4F4217530731F418964D915C91F4
S1132C701997528341831D961C921E921C97908132
S1132C80915090835A96EC915A97909141179E17C0
S1132C9010F4E09341179BE09E9FF0011124ED573F
S1132CA0F84E0180F281E02D1796FC93EE9316976F
S1132CB04681578119965C934E931897C681D781A4
S1132CC03D832C83378326835A96EC915A979E9F93
S1132CD0F0011124ED57F84E1D96FC93EE931C97CA
S1132CE090819F5F908321C06EE577E1FB01C181F4
S1132CF0D2815396DC93CE9352972E813F81559681
S1132D003C932E9354974E815F819D01225F3F4FE8
S1132D10FA01358324833F832E8359967C936E93E3
S1132D205897FB0190819F5F90835A962C91E09174
S1132D30F117F091F217928D921748F4C114D1044F
S1132D4019F091E0F601908391E090933B17DF91A5
S1132D50CF910F91FF90EF90DF90CF90BF90AF9005
S1132D609F908F900895009721F48091F11790918E
S1132D70F2170FB6F8940F9270E0FC01E60FF71FFC
S1132D8023A9223031F4FC01E60FF71F13AA81E0D6
S1132D9001C080E00F900FBE0895DC01E091FD17A3
S1132DA0F091FE17808191E0811190E09C93911144
S1132DB008C00780F085E02D608171818281938154
S1132DC0089560E070E0CB010895CF92DF92EF9216
S1132DD0FF920F931F93FC01428353836483758393
S1132DE0938782870417150726073707C0F00C1945
S1132DF01D092E093F0986859785A089B189081781
S1132E0019072A073B0700F5BF016E5F7F4F8091CA
S1132E10FB179091FC170E94270380E018C00C1543
S1132E201D052E053F0528F44C155D056E057F052F
S1132E3068F4BF016E5F7F4F8091FD179091FE177C
S1132E400E94270380E003C081E001C081E01F915C
S1132E500F91FF90EF90DF90CF9008950FB6F89404
S1132E600F928091F9179091FA17892BE9F48AE06F
S1132E7098E10E9412038FEF97E10E9412038AE007
S1132E8098E19093FE178093FD178FEF97E190934D
S1132E90FC178093FB1740E067E08AE00E94D505A9
S1132EA09093FA178093F9170F900FBE0895EF923D
S1132EB0FF920F93D3DF8091F9179091FA17892B22
S1132EC091F00F2EF7EFEF2EF7E1FF2EF02D03E038
S1132ED020E030E040EC50E06FE972E087ED90E0F4
S1132EE00E94670D01C080E00F91FF90EF9008955C
S1132EF08F929F92AF92BF92CF92DF92EF92FF9206
S1132F000F931F93CF93DF93CDB7DEB727970FB6F9
S1132F10F894DEBF0FBECDBFE091F917F091FA1718
S1132F20309781F169832A833B834C835D839F833C
S1132F308E836630F4F4EEDA823069F400E0A7019F
S1132F409601BE016F5F7F4F8091F9179091FA1738
S1132F500E94F80518C000E020E030E0A901BE019D
S1132F606F5F7F4F8091F9179091FA170E94F805CF
S1132F700AC020E0A801BE016F5F7F4FCF010E940D
S1132F808A0601C080E027960FB6F894DEBF0FBE14
S1132F90CDBFDF91CF911F910F91FF90EF90DF9004
S1132FA0CF90BF90AF909F908F9008958F929F92F3
S1132FB0AF92BF92CF92DF92EF92FF920F931F9343
S1132FC0CF93DF933BC00780F085E02D8080918014
S1132FD0A280B380C085D1858E010E5F1F4FC801CA
S1132FE00E946403EC89FD89CE0119958E8982FFC4
S1132FF025C08E859F85A889B989880D991DAA1D2C
S1133000BB1D88169906AA06BB0670F48A839B83A7
S1133010AC83BD83DB87CA87B8018091FD1790918B
S1133020FE170E9427030AC0C12CD12C760100E0B0
S113303010E0A501940160E0CE015ADFE091FD1794
S1133040F091FE1780818111BECF8091FB17909182
S1133050FC179093FE178093FD17F093FC17E093F1
S1133060FB17DF91CF911F910F91FF90EF90DF90AD
S1133070CF90BF90AF909F908F900895CF92DF92A2
S1133080EF92FF92CF93DF93EC010E94F10D6B015D
S11330907C018091F3179091F417A091F517B091EA
S11330A0F617C816D906EA06FB0620F47FDF81E08E
S11330B0888301C01882C092F317D092F417E0926B
S11330C0F517F092F617C701B601DF91CF91FF9083
S11330D0EF90DF90CF9008954F925F926F927F921E
S11330E08F929F92AF92BF92CF92DF92EF92FF9214
S11330F00F931F93CF93DF934B015C0129013A0196
S1133100E091FD17F091FE170780F085E02DC08552
S1133110D185CE0102960E9464038E8982FF1BC072
S11331204E855F8568897989480D591D6A1D7B1D07
S11331307501640193018201CE0147DE882369F0A1
S1133140C12CD12C760100E010E0A501940160E0CF
S1133150CE01CEDE02C08E7F8E8BEC89FD89CE013E
S11331601995DF91CF911F910F91FF90EF90DF9010
S1133170CF90BF90AF909F908F907F906F905F9013
S11331804F9008958F929F92AF92BF92CF92DF9209
S1133190EF92FF921F93CF93DF931F92CDB7DEB7C9
S11331A06B017C01142F0E94EB0DCE01019666DFAA
S11331B04B015C01898181112DC011110DC08C144A
S11331C09D04AE04BF0440F00E942B0FA50194019E
S11331D0C701B60181DF20C0112341F0E091FB1744
S11331E0F091FC17808111E0811110E0B701A60174
S11331F0481959096A097B09212F8091F91790917F
S1133200FA170E9405080E942B0F811105C00E9425
S1133210E00302C00E942B0F0F90DF91CF911F910A
S1133220FF90EF90DF90CF90BF90AF909F908F90E2
S11332300895AF92BF92CF92DF92EF92FF920F93D5
S11332401F93CF93DF93CDB7DEB728970FB6F894CB
S1133250DEBF0FBECDBF82C0898188230CF47EC03F
S1133260AE80BF80D5011C968D919C911D97892BB2
S113327021F0C50102960E946403CE010896FEDE89
S11332808B019C01E9810E2E000CFF0BEA30F10545
S113329008F064C08827EE58FF4F8F4F0C94F52D2B
S11332A0F50186898160868BCA80DB80EC80FD8095
S11332B046855785608971894C0D5D1D6E1D7F1D86
S11332C0C50183DD882309F449C0D5015496ED91E5
S11332D0FC915597C5011995F501868982FF3EC079
S11332E04A815B816C817D8186859785A089B189BE
S11332F09A01AB01280F391F4A1F5B1FC12CD12C27
S1133300760100E010E060E0C501F2DD27C0D501E0
S113331056968C9156978E7F56968C931FC0F501C6
S113332086898160868B4A815B816C817D81468739
S11333305787608B718B400F511F621F731F680189
S11333407901C50142DD0AC0F501868981FD04C009
S1133350C5010E94D00202C08E7F868B20E030E03F
S1133360A901BE016F5F7F4F8091F9179091FA1701
S11333700E94C506811170CF28960FB6F894DEBF5F
S11333800FBECDBFDF91CF911F910F91FF90EF90B2
S1133390DF90CF90BF90AF900895089584B1806876
S11333A084B985B1806885B9089583B1806883B98B
S11333B00895F4DF2FEF80E792E0215080409040A1
S11333C0E1F700C00000F1DFF5CFE8DF2FEF87EA77
S11333D091E6215080409040E1F700C00000E5DF15
S11333E0F5CF0F93CF93DF931F921F92CDB7DEB724
S11333F09A8389838A818F9389818F9387EA92E064
S11334009F938F9387E999E19F938F930E94DE2F77
S113341087E999E172D300E02FEF3FEFA901BE01E4
S11334206F5F7F4F8091FB199091FC190E94F80502
S11334300F900F900F900F900F900F900F900F9090
S1133440DF91CF910F91089540E062E08AE00E94FD
S1133450D5059093FC198093FB1908950E946F245D
S1133460811105C081EF99E10C946A24089586ECDA
S113347092E00E94AE2F80E090E0B3CF0895CF9306
S1133480DF931F921F92CDB7DEB72CED35E040E0FD
S113349050E0BE016F5F7F4F8091FB199091FC1942
S11334A00E94C5068A818F9389818F9383ED92E070
S11334B09F938F9387E999E19F938F930E94DE2FC7
S11334C087E999E11AD30F900F900F900F900F9006
S11334D00F9089819A810F900F90DF91CF91089579
S11334E040E062E08AE00E94D5059093001A809340
S11334F0FF1940E062E08AE00E94D5059093FE192E
S11335008093FD1908950F93CF93DF931F921F9219
S1133510CDB7DEB79A8389838A818F9389818F930C
S113352085EF92E09F938F9387E999E19F938F931F
S11335300E94DE2F87E999E1E0D200E02FEF3FEF10
S1133540A901BE016F5F7F4F8091FF199091001A0E
S11335500E94F8050F900F900F900F900F900F900E
S11335600F900F90DF91CF910F9108950F93CF9308
S1133570DF931F921F92CDB7DEB79A8389838A8126
S11335808F9389818F938CE193E09F938F9387E945
S113359099E19F938F930E94DE2F87E999E1ADD241
S11335A000E02FEF3FEFA901BE016F5F7F4F8091D5
S11335B0FD199091FE190E94F8050F900F900F903D
S11335C00F900F900F900F900F90DF91CF910F916C
S11335D00895EF92FF920F931F93CF93DF9300D040
S11335E01F92CDB7DEB70E94F10D69837A838B8376
S11335F09C832FD4882321F080E493E00E94AE2F93
S113360043E050E060E070E0CE0101960E940710B4
S113361035D4882351F088E593E00E94AE2F80E0F2
S113362090E0A4DF80E090E06EDF40E050E0BA017B
S1133630CE0101960E94071032D471D38B0144D479
S113364069D37B010036110588F085E6E816F1049C
S11336506CF040E050E0BA01CE0101960E940710E0
S11336601ED45DD38B0130D455D37B01C8017EDFDA
S1133670C70149DF0F900F900F900F90DF91CF910A
S11336801F910F91FF90EF900895CF93DF931F92B6
S11336901F92CDB7DEB72CED35E040E050E0BE011F
S11336A06F5F7F4F8091FF199091001A0E94C506A9
S11336B08A818F9389818F9382E893E09F938F937C
S11336C087E999E19F938F930E94DE2F87E999E11F
S11336D014D20F900F900F900F900F900F9089813C
S11336E09A810F900F90DF91CF910895CF93DF933C
S11336F01F921F92CDB7DEB72CED35E040E050E0CD
S1133700BE016F5F7F4F8091FD199091FE190E9459
S1133710C5068A818F9389818F938CEA93E09F9366
S11337208F9387E999E19F938F930E94DE2F87E916
S113373099E1E3D10F900F900F900F900F900F909D
S113374089819A810F900F90DF91CF9108950F9303
S11337501F93CF93DF93CDB7DEB764970FB6F8947A
S1133760DEBF0FBECDBF81E00E94DF2935D5B1D7C2
S11337709F938F9383ED93E09F938F930E949B2F4E
S1133780A9D6A7D79F938F9386EE93E09F938F93A9
S11337900E949B2F8E010F5F1F4FC8012FD599D711
S11337A01F930F939F938F938FEF93E09F938F9328
S11337B00E949B2FC8013ED58CD79F938F931F9354
S11337C00F9383E194E09F938F930E949B2FA80112
S11337D068E274E089E494E05BD77BD79F938F938E
S11337E01F930F9388E294E09F938F9389E494E06E
S11337F09F938F938AE594E09F938F930E949B2FCE
S11338004CD567D79F938F9380E994E09F938F93D0
S11338100E949B2F0FB6F894DEBF0FBECDBF81E090
S113382036D657D79F938F938FE994E09F938F93C6
S11338300E949B2F84EF91E035D64BD79F938F93B3
S113384081E08F9384EF8F9380EC94E09F938F9328
S11338500E949B2F0FB6F894DEBF0FBECDBF1AE0B7
S113386080E021D5082F35D79F938F931F921F9304
S113387080EE94E09F938F930E949B2F0F900F9064
S11338800F900F900F900F90083059F080E00E9435
S1133890432A66E371E080E090E00E946C101150CE
S11338A0F9F6083041F480E095E00E94AE2F81E003
S11338B00E94252A09C081E00E94342A80E00E94E7
S11338C0022A0E94E003FDCF64960FB6F894DEBF8F
S11338D00FBECDBFDF91CF911F910F910895CF936C
S11338E0DF9300D01F92CDB7DEB781E067D462E0EA
S11338F070E080E090E00E946C1080E05FD466E9A4
S113390070E080E090E00E946C1011D420DFE5E1CB
S1133910F8E188E0818382E080830E94F10D69836D
S11339207A838B839C8389E195E00E94AE2F40E5E6
S113393051E960E070E0CE0101960E9407100E94F8
S1133940A6018C01DC0113968C9113978F93129628
S11339508C9112978F9311968C9111978F938C91D0
S11339608F9315968C9115978F9314968C918F93B2
S11339708CE295E09F938F930F2EF7E9EF2EF9E1F8
S1133980FF2EF02DFF92EF920E94DE2FC701B5D0DB
S1133990E5E1F8E1128281E08383D80111968C91EC
S11339A0119784838C91858315968C9115978683C2
S11339B014968C911497878313968C911397808710
S11339C012968C918187BF0180E096D482D69F9312
S11339D08F9387E595E09F938F93FF92EF920E94D8
S11339E0DE2FC7018AD00FB6F894DEBF0FBECDBF5D
S11339F09ACFCF93DF93CDB7DEB766970FB6F8941F
S1133A00DEBF0FBECDBF81E0D9D362E070E080E0BD
S1133A1090E00E946C1080E0D1D366E970E080E011
S1133A2090E00E946C1083D382E0898384E08A83CF
S1133A300FEF1FEF980146E150E0BE016F5F7F4F2B
S1133A408091011A9091021A0E94CD0A8A811F92D4
S1133A508F938CE695E09F938F9387E999E19F93E9
S1133A608F930E94DE2F87E999E147D08A810F90D6
S1133A700F900F900F900F900F908430C9F60D8126
S1133A8010E0102F00278E81080F111D1F930F9334
S1133A908CE895E09F938F9387E999E19F938F93A7
S1133AA00E94DE2F87E999E128D0C80166D00F90E3
S1133AB00F900F900F900F900F90BACFEF92FF924C
S1133AC00F93E12CF12C02E020E030E048E851E0D3
S1133AD065EB75E08FE69CE10E94670D03E020E052
S1133AE030E048E851E06CEB75E089EF9CE10E941E
S1133AF0670D0F91FF90EF9008950F93CF93DF938D
S1133B00C82FD92F44E650E060E070E08091951909
S1133B10909196190E945407813099F4DF93CF93C2
S1133B200E949B2F00E020E030E0A90160E070E0FB
S1133B3080919519909196190E94F8050F900F9015
S1133B4004C087EC95E00E94AE2FDF91CF910F91D6
S1133B5008950F9343E060E081E00E94D5059093BF
S1133B6096198093951900E020E030E0A90160E007
S1133B7070E00E94F8050F91089583309105D9F003
S1133B8034F48130910549F0029771F02FC08430EC
S1133B909105C1F0059701F129C087EE95E0ADDFED
S1133BA064E681E0CBC6089587EF95E0A6DF6CE973
S1133BB081E0C4C6089585E096E09FDF6EEC81E065
S1133BC0BDC6089584E196E098DF64E681E0B6D648
S1133BD06CE981E0B3C6089582E396E08EDF64E683
S1133BE081E0ACD66EEC81E0A9C6089581E596E04B
S1133BF00C94AE2F0895CF93DF9300D01F92CDB7CE
S1133C00DEB70E94F10D69837A838B839C8346EA35
S1133C105EE060E070E0CE0101960E940710D9DCFE
S1133C201DDCF5CFCF93DF9300D01F92CDB7DEB765
S1133C300E94F10D69837A838B839C834CE752E95C
S1133C4060E070E0CE0101960E9407100E9411010D
S1133C50F5CFEF92FF920F93E12CF12C00E020E0DE
S1133C6030E040EC50E066E676E08BEF9DE10E94A8
S1133C70670D20E030E040EC50E062E776E082E15E
S1133C809EE10E94670D0F91FF90EF900895E1DF90
S1133C900E940D039F938F9382E896E09F938F93E6
S1133CA087E999E19F938F930E94DE2F0E94B30DC1
S1133CB00F900F900F900F900F900F90089581B177
S1133CC0816881B980E090E00E948A28BDDB08DC2D
S1133CD00E9408013EDF83E0D8D5A3D047D685E013
S1133CE00E94912941E060E070E08CE290E00E9443
S1133CF064099093021A8093011ABC0181E01ED2D8
S1133D0083E0DCCE0895DBDF81E996E00E94AE2FEC
S1133D10BEDFFFCF04D06894B11150C0089533D0F2
S1133D2088F09F5790F0B92F9927B751A0F0D1F0A0
S1133D30660F771F881F991F1AF0BA95C9F712C02A
S1133D40B13081F03AD0B1E0089537C0672F782FB1
S1133D508827B85F39F0B93FCCF386957795679596
S1133D60B395D9F73EF490958095709561957F4F02
S1133D708F4F9F4F089557FD9058440F551F59F08A
S1133D805F3F71F04795880F97FB991F61F09F3F44
S1133D9079F087950895121613061406551FF2CF6D
S1133DA04695F1DF08C0161617061806991FF1CFBD
S1133DB086957105610508940895E894BB276627E4
S1133DC07727CB0197F908956530F1F4FA018081E2
S1133DD08F7390E0982F88272181822B90930A0279
S1133DE0809309028281F0E48F9FC0011124FA01BB
S1133DF0238126952695822B9093080280930702AF
S1133E0081E080932B180895643051F080E090E4B1
S1133E10909308028093070290930A028093090208
S1133E2008950F931F9304EE1EE120E034E244EF63
S1133E3050E060E087E20E94662A90932D188093F8
S1133E402C1821E0892B09F020E0822F1F910F917B
S1133E50089580912C1890912D18009759F040E006
S1133E6060E070E00E94B72A843031F410922B187D
S1133E7080E0089582E0089583E0089580912C18ED
S1133E8090912D18009739F064E00E94032B85303F
S1133E9021F083E0089582E0089580E00895609120
S1133EA0090270910A0280E090E00E94E12C20E077
S1133EB030E048EC52E40E94462D20E038EF4FE712
S1133EC056E40C94762C08956091070270910802D0
S1133ED080E090E00E94E12C20E030E045E253E4F1
S1133EE00E94462D20E038EF4FE756E40E94762CDE
S1133EF020E030E040E252E40C940F2C08950F933C
S1133F001F93CF93DF931F921F92CDB7DEB78C011F
S1133F1019822DC0E0919218EC3250F481E08E0F9A
S1133F2080939218F0E0EC53F74E8A81808302C0AC
S1133F30109292188A818A30D1F44091921850E0FC
S1133F40FA01EE53F74E1082415051099E012F5F42
S1133F503F4F64EC78E180919518909196180E94F7
S1133F60890A898181110E94E00310929218BE018E
S1133F706E5F7F4FC80138D6882361F20F900F908F
S1133F80DF91CF911F910F9108950F931F93CF93BA
S1133F90DF938C01EB0180919518909196180E9403
S1133FA09609B8018EE298E10E947C2F209779F05F
S1133FB0EEE2F8E101900020E9F7319780E290E029
S1133FC091838083BE018EE298E10E94712FEEE21C
S1133FD0F8E1DF010D900020E9F711978DE09AE0F8
S1133FE011969C938E9312961C9201900020E9F7EF
S1133FF03197EE52F841AE2F8EE298E1AC016A2F70
S113400080919718909198189AD5811111C008E25F
S113401015E020E030E04DE250E06EE179E180917E
S11340209518909196180E94CD0A8EE199E102C0EC
S113403080E090E0DF91CF911F910F9108952F922E
S11340403F924F925F926F927F928F929F92AF9224
S1134050BF92CF92DF92EF92FF920F931F93CF9371
S1134060DF935C01FC0101900020E9F731976F01B7
S1134070C81AD90A5C2C0F2EFBE38F2EF9E09F2E71
S1134080F02DE12CF12C4C2C3701F401018112812B
S1134090E80109900020E9F72197C01BD10B3C2EC1
S11340A0F9E0CF16D10458F0F4012080FEE02F127D
S11340B006C0B801C5010E944C2F892B09F5442D77
S11340C0351408F44C2F50E0B801C5010E94832F29
S11340D0892B49F4F301EE0FFF1FE60DF71DE55C94
S11340E0F64F20800DC08FEFE81AF80AE3E08E0E39
S11340F0911CF1E1EF16F10439F66894222424F8B6
S1134100822DDF91CF911F910F91FF90EF90DF905F
S1134110CF90BF90AF909F908F907F906F905F9063
S11341204F903F902F90089530DF89CF089580916C
S11341309518909196180C94960908958F929F92D1
S1134140AF92CF92EF920F931F93CF93C82F8B010F
S113415041E060E070E088EC90E00E946409909394
S113416096188093951810939418009393180F2E13
S1134170FFE78F2EFFE19F2EF02D6894AA24A6F866
S11341806894CC24C6F8E12C00E023E040E051EE32
S113419060E070E08C2F06D4909398188093971861
S11341A0E7E0F1E0808180618083CF911F910F91DE
S11341B0EF90CF90AF909F908F900895882331F027
S11341C0E8E0F1E080818F7E80830895E8E0F1E00B
S11341D0808180618083089560E070E081EC96E0E6
S11341E0D4DEEEE1F9E101900020E9F73197EE51D8
S11341F0F94181E0759708F080E00895CF93DF934B
S1134200EC0160E070E082ED96E0BFDEEEE1F9E102
S113421001900020E9F7EF52F94139F46EE179E1B8
S1134220CE010E947C2F80E002C0188281E0DF91E1
S1134230CF910895FC0101900020E9F79F012151DD
S113424031092817390729F4BC0180E097E06CCFC5
S1134250089589E00895FC0101900020E9F79F0189
S1134260215131092817390729F4BC018FE097E05F
S11342705BCF089589E00895FC0101900020E9F7DF
S11342809F01215231092817390729F4BC018EE115
S113429097E04ACF089589E0089560E070E08DE5E5
S11342A097E042CF08950F931F93E82FF0E0EE0FAD
S11342B0FF1FE95CF64F6081718186E697E034DF89
S11342C0811114C008E215E020E030E04DE250E036
S11342D06EE179E180919518909196180E94CD0A2B
S11342E0882321F08EE199E1AADE03C08EE199E1F1
S11342F0A6DE1F910F9108950F931F93CF93DF9321
S11343001F92CDB7DEB7DB0111969C9111979531C1
S113431008F0B4C0992381F160E070E0272F30E009
S1134320462F50E0FD01E40FF51F928192959F7096
S11343309A3010F0995C01C0905DF901E155F74E97
S113434090832F5F3F4FFD01E40FF51F92819F7013
S1134350492F50E04A30510514F0995C01C0905D3A
S1134360F901E155F74E90837E5F6F5F11969C9142
S11343701197691798F201C070E0E72FF0E0E1555A
S1134380F74E10824C91811103C08FE697E002C072
S113439081E797E02FEA38E13F932F931F924F93E1
S11343A09F938F9385E797E09F938F9381EF98E195
S11343B09F938F930E94DE2F60E070E081EF98E17D
S11343C0B3DE0FB6F894DEBF0FBECDBF811159C066
S11343D008E215E020E030E04DE250E06EE179E1E2
S11343E080919518909196180E94CD0A882309F41B
S11343F047C08EE199E123DE8E3009F042C087E0A8
S113440089838091931890919418892BA9F1BE0106
S11344106F5F7F4F8EE199E168D180939918E981AC
S1134420F0E0E25EF64EDF010D900020E9F711970F
S1134430AE1BBF0BAA2391F0BB27CD0101979C01B2
S113444012F42F5F3F4F3595279520939A18AF01AB
S11344504F5F5F4F64E18BE998E173D101E010E0B5
S113446020E030E046E150E069E978E1809193187A
S1134470909194180E94C6098EE003C084E101C0A3
S113448080E00F90DF91CF911F910F9108958130BB
S113449019F065E877E002C06EE578E089E897E016
S11344A043CE08959F938F938AEB97E09F938F93C6
S11344B081EF98E19F938F930E94DE2F60E070E07C
S11344C081EF98E131DE0F900F900F900F900F90D5
S11344D00F9008952F923F924F925F926F927F9226
S11344E08F929F92AF92BF92CF92DF92EF92FF9200
S11344F00F931F93CF93DF93CDB7DEB7A0970FB67B
S1134500F894DEBF0FBECDBF67EE77E083EF97E090
S11345103CDD95DD8111A3C080E2E2E2F2E0DE0140
S1134520119601900D928A95E1F79E012F5F3F4FFE
S11345306901E12CF12C0F2EFFEFAF2EF7E0BF2E17
S1134540F02D01EF18E10F2EF8E14F2EF8E05F2E69
S1134550F02D0F2EFFE28F2EF8E09F2EF02D0F2E60
S1134560F9E46F2EF8E07F2EF02D3E2C2F2CFF92D5
S1134570EF92BF92AF921F930F930E94DE2F60E0E1
S113458070E0C80102DD5BDD0F900F900F900F907B
S11345900F900F90811163C032E03E15E8F4F601EC
S11345A083818F9382818F9381818F9380818F9375
S11345B0FF92EF925F924F921F930F930E94DE2F10
S11345C060E070E0C801E1DC3ADD0FB6F894DEBFCC
S11345D00FBECDBF811143C02F923F929F928F9205
S11345E01F930F930E94DE2F60E070E0C801CDDCC2
S11345F026DD0F900F900F900F900F900F90811168
S11346002EC02F923F927F926F921F930F930E941E
S1134610DE2F60E070E0C801B8DC11DD0F900F9070
S11346200F900F900F900F90811119C03FEFE31A74
S1134630F30A84E0C80ED11C98E0E916F10409F0ED
S113464094CF60E070E081E698E09FDCF8DC8111B3
S113465006C060E070E082E798E097DCF0DCA096AA
S11346600FB6F894DEBF0FBECDBFDF91CF911F917F
S11346700F91FF90EF90DF90CF90BF90AF909F90FD
S11346808F907F906F905F904F903F902F90089500
S1134690EF92FF920F931F93CF93DF93EC018B0163
S11346A07A0181E0F4DE81110DC0CE01D4DD8111E7
S11346B009C0C801E1DD811105C0C701BBDD81115D
S11346C001C0EBDDDF91CF911F910F91FF90EF902F
S11346D0089590E0FC01EE0FFF1F8E0F9F1FFC0159
S11346E0E55CF64F818192810895DC01009729F100
S11346F0FB012081FC0101900020E9F73197E81BC0
S1134700F90B822F90E0E817F907C8F080E008C0A1
S1134710880F382F330F330F830F8053890F2F5F88
S1134720FD01E20FF11D908130ED390F3A3010F4A4
S11347309111EECFFB012083089580E0089580E07D
S113474008950F931F93CF93DF93DC01EA01209721
S1134750E1F1FA0101900020E9F73197E41BF50B30
S1134760329710F532C08D01040F151F30E0AE01F1
S1134770420F531FFA019081913428F09753592F17
S11347805295507F03C0592F5295507F2C0F3D1FD7
S1134790F9019181913410F0975301C09053950F12
S11347A0F80190838F5F01C080E0282F220F482FEB
S11347B050E0FE0101900020E9F73197EC1BFD0B5E
S11347C04E175F0710F48613CECFDF91CF911F9160
S11347D00F91089580914E19860F80934E199091F0
S11347E05119913079F028F09230A9F0933019F1F1
S11347F008956F3F09F048C010924E1981E08093EC
S113480051190895663809F03FC010924D1982E09D
S1134810809351190895E0914D1981E08E0F809392
S11348204D19F0E0E55BF64E6083823069F583E074
S113483080935119089590914D1921E0290F2093E7
S11348404D19963009F581110EC0EBE4F9E1808130
S113485090E0982F88272181820F911D90935319FE
S11348608093521904C01092531910925219109245
S11348705119E0914F19F0915019309729F0809116
S1134880521990915319199508958F929F92AF924E
S1134890CF92EF920F930F2EFAEE8F2EF3E29F2E0C
S11348A0F02D6894AA24A4F86894CC24C4F8E12CCC
S11348B000E023E040E855E260E070E073D09093BC
S11348C05519809354190F91EF90CF90AF909F900A
S11348D08F9008959093501980934F190895CF9312
S11348E0DF93CDB7DEB729970FB6F894DEBF0FBEBE
S11348F0CDBF89E0E2E4F2E09E012F5F3F4FD90192
S113490001900D928A95E1F7109253191092521961
S11349108091541990915519009731F0422F532FDB
S113492069E00DD180E001C082E029960FB6F894C9
S1134930DEBF0FBECDBFDF91CF91089565360CF079
S113494064E66C390CF46CE996EF6902B001112449
S11349506854744F811105C0709329016093280134
S1134960089570932B0160932A010895EAE0F1E021
S11349708081886180838FE39CE9909327018093F1
S1134980260160E080E0DADF60E081E0D7DFE0E28A
S1134990F1E08081826A8083E1E2F1E080818A61D2
S11349A0808308952F923F924F925F926F927F92ED
S11349B08F929F92AF92CF92EF92FF920F931F9399
S11349C0CF93DF93CDB7DEB7F82E2A013B0188E001
S11349D090E00E94172E8C018F2D90E0FC01EE0FC9
S11349E0FF1FEA5AF64E118300830115110509F4DD
S11349F069C0880F991FFC01E55FFD4F808191819B
S1134A00D8018D939C936C2D70E084E090E00E941B
S1134A10FD2D1C0161E070E086E090E00E94FD2D18
S1134A207C014C2DB101DFD6F801F582E4826A2DB8
S1134A3070E084E090E00E94FD2D1C0161E070E0D4
S1134A4086E090E00E94FD2D7C014A2DB101CBD679
S1134A50D8011396FC92EE92129717969C928E921E
S1134A601697FFB6F894ED91FC91119736978081D3
S1134A70826080838D909C90C301B201A2D720E014
S1134A8030E040E051E40E94462D9B01AC0160E01F
S1134A9074E284E79BE42AD720E030E040E85FE357
S1134AA0BED63DD9F40132976083D801ED91FC91D3
S1134AB01197359788E98083ED91FC91349786E0CE
S1134AC08083FFBEC801DF91CF911F910F91FF90AA
S1134AD0EF90CF90AF909F908F907F906F905F906A
S1134AE04F903F902F900895CF93DF93DC01892B53
S1134AF001F11296ED91FC911397938182812581A6
S1134B00981B922384819817B1F0838126952823DA
S1134B10C081D181C20FD11D68838F5F95818923A4
S1134B208383ED91FC91359780818062808380E05E
S1134B3003C081E001C082E0DF91CF910895EF923C
S1134B40FF920F931F93CF93DF937C01009709F497
S1134B5041C0DC011296ED91FC91139793818281FF
S1134B60981B858198238481891B8617A8F1662365
S1134B7041F1842F952FDC016150462F50E04F5FA7
S1134B805F4F480F591FE701EA81FB8193818281BE
S1134B902581981B92238481981779F08C919381B5
S1134BA026952923608171818B01020F111DE80173
S1134BB088839F5F8581982393831196A417B507F3
S1134BC011F7D701ED91FC91359780818062808344
S1134BD080E003C081E001C082E0DF91CF911F91AA
S1134BE00F91FF90EF9008950097D1F0DC01149697
S1134BF0ED91FC91159793818281981799F0928198
S1134C00858186958923A081B181A80FB11D8C91DE
S1134C10DB018C939F5F85819823928380E00895C4
S1134C2081E0089583E008951F920F920FB60F92CA
S1134C3011240BB60F922F933F934F935F936F936F
S1134C407F938F939F93AF93BF93CF93DF93EF9310
S1134C50FF93A0915619B0915719109711F16091D3
S1134C60C6001496ED91FC9115979381828125815C
S1134C70981B92238481981761F0838126952823B9
S1134C80C081D181C20FD11D68838F5F9581892333
S1134C9083831696ED91FC911797309711F0CD010F
S1134CA01995FF91EF91DF91CF91BF91AF919F91B2
S1134CB08F917F916F915F914F913F912F910F90C1
S1134CC00BBE0F900FBE0F901F9018951F920F925E
S1134CD00FB60F9211240BB60F922F938F939F93BD
S1134CE0AF93BF93EF93FF93E0915619F091571947
S1134CF03097B9F00280F381E02D93818281981777
S1134D00B1F092818581282F26952923A081B18134
S1134D10A20FB11D2C919F5F892382832093C6002B
S1134D200BC0E1ECF0E080818F7D808305C0E1EC75
S1134D30F0E080818F7D8083FF91EF91BF91AF91EF
S1134D409F918F912F910F900BBE0F900FBE0F90DC
S1134D501F9018951F920F920FB60F9211240BB645
S1134D600F922F933F934F935F936F937F938F9300
S1134D709F93AF93BF93CF93DF93EF93FF93A09150
S1134D805819B0915919109711F16091CE001496E9
S1134D90ED91FC911597938182812581981B922333
S1134DA08481981761F0838126952823C081D1815D
S1134DB0C20FD11D68838F5F9581892383831696E3
S1134DC0ED91FC911797309711F0CD011995FF9152
S1134DD0EF91DF91CF91BF91AF919F918F917F918F
S1134DE06F915F914F913F912F910F900BBE0F9058
S1134DF00FBE0F901F9018951F920F920FB60F922F
S1134E0011240BB60F922F938F939F93AF93BF935D
S1134E10EF93FF93E0915819F09159193097B9F035
S1134E200280F381E02D938182819817B1F0928101
S1134E308581282F26952923A081B181A20FB11D38
S1134E402C919F5F892382832093CE000BC0E9ECD1
S1134E50F0E080818F7D808305C0E9ECF0E0808103
S1134E608F7D8083FF91EF91BF91AF919F918F913F
S1134E702F910F900BBE0F900FBE0F901F9018959F
S1134E801F920F920FB60F9211240BB60F922F930D
S1134E903F934F935F936F937F938F939F93AF93BE
S1134EA0BF93CF93DF93EF93FF93A0915A19B091DF
S1134EB05B19109711F16091D6001496ED91FC9155
S1134EC01597938182812581981B92238481981759
S1134ED061F0838126952823C081D181C20FD11D21
S1134EE068838F5F9581892383831696ED91FC9166
S1134EF01797309711F0CD011995FF91EF91DF913C
S1134F00CF91BF91AF919F918F917F916F915F915D
S1134F104F913F912F910F900BBE0F900FBE0F90AA
S1134F201F9018951F920F920FB60F9211240BB673
S1134F300F922F938F939F93AF93BF93EF93FF930E
S1134F40E0915A19F0915B193097B9F00280F3811E
S1134F50E02D938182819817B1F092818581282F69
S1134F6026952923A081B181A20FB11D2C919F5FA9
S1134F70892382832093D6000BC0E1EDF0E0808189
S1134F808F7D808305C0E1EDF0E080818F7D80839B
S1134F90FF91EF91BF91AF919F918F912F910F90BE
S1134FA00BBE0F900FBE0F901F9018951F920F927B
S1134FB00FB60F9211240BB60F922F933F934F937A
S1134FC05F936F937F938F939F93AF93BF93CF938D
S1134FD0DF93EF93FF93A0915C19B0915D19109743
S1134FE011F1609136011496ED91FC91159793811E
S1134FF082812581981B92238481981761F0838193
S113500026952823C081D181C20FD11D68838F5F6B
S11350109581892383831696ED91FC911797309798
S113502011F0CD011995FF91EF91DF91CF91BF91CF
S1135030AF919F918F917F916F915F914F913F912C
S11350402F910F900BBE0F900FBE0F901F901895CD
S11350501F920F920FB60F9211240BB60F922F933B
S11350608F939F93AF93BF93EF93FF93E0915C195A
S1135070F0915D193097B9F00280F381E02D9381AE
S113508082819817B1F092818581282F2695292352
S1135090A081B181A20FB11D2C919F5F89238283CE
S11350A0209336010BC0E1E3F1E080818F7D8083A2
S11350B005C0E1E3F1E080818F7D8083FF91EF9172
S11350C0BF91AF919F918F912F910F900BBE0F9035
S11350D00FBE0F901F901895CF93DF931F92CDB7FB
S11350E0DEB7BE016F5F7F4F80915E1990915F19AB
S11350F07BDD8111F6CF898190E00F90DF91CF9114
S11351000895682F80915E1990915F19EDDC80E01D
S113511090E008958F929F92AF92CF92EF920F9367
S1135120812C912C6894AA24A7F86894CC24C7F8FD
S1135130E12C00E023E040E051EE60E070E032DC7E
S113514090935F1980935E19E7E0FAE183E192E0BE
S113515091838083938382830F91EF90CF90AF905C
S11351609F908F90089590E0FC01EE0FFF1FE80FD1
S1135170F91FEE0FFF1FE05AF64E238121111FC0C5
S11351809C01220F331FF901E80FF91FEE0FFF1FD7
S1135190E05AF64EA081B1814C91F901E80FF91F54
S11351A0EE0FFF1FE05AF64E81E090E0028002C04D
S11351B0880F991F0A94E2F7842B8C930895FC01BD
S11351C0EE0FFF1FDF01A80FB91FAA0FBB1FA05AC4
S11351D0B64E0D90BC91A02D2C91E80FF91FEE0F47
S11351E0FF1FE05AF64E81E090E0028002C0880F73
S11351F0991F0A94E2F7809582238C93089590E096
S1135200FC01EE0FFF1FE80FF91FEE0FFF1FE05A1E
S1135210F64E2381211120C09C01220F331FF90176
S1135220E80FF91FEE0FFF1FE05AF64EA081B1817F
S11352304C91F901E80FF91FEE0FFF1FE05AF64EEB
S113524081E090E0028002C0880F991F0A94E2F77F
S1135250809584238C930895FC01EE0FFF1FDF01DA
S1135260A80FB91FAA0FBB1FA05AB64E0D90BC9130
S1135270A02D2C91E80FF91FEE0FFF1FE05AF64EF8
S113528081E090E0028002C0880F991F0A94E2F73F
S1135290822B8C930895CC24C394D12C6894BB2482
S11352A0B2F8C0E6D9E110E08C81813081F018F1C8
S11352B0823061F5E881F9812081C6010A8002C04B
S11352C0880F991F0A94E2F7822780831FC08D817B
S11352D08F5F8A3010F48D8319C01D82E881F981B3
S11352E02081C6010A8002C0880F991F0A94E2F740
S11352F0822780830BC00D81002329F0812F7FDF5B
S113530001500D8303C0BC82812F2DDF1F5F2696C1
S1135310143051F665E070E080E090E00E946C107B
S1135320C0CFEF92FF920F931F93CF93DF93082F79
S113533080E487B9C0E6D9E10F2EF8E2EF2EF12C14
S1135340F02DF982E88286E08A831B8214E01C83B4
S113535080E009DF80E887B9FF82EE8287E08887F2
S113536019861A8781E0FFDE80E283BB84E390E044
S11353709D878C8785E08E871F86188B82E0F3DEFD
S113538080E18093010182E091E09B8B8A8B1C8BEE
S11353901D8A1E8B83E0E7DEE12CF12C20E030E057
S11353A040EC50E06EE679E08BE499E20E94670DF0
S11353B0DF91CF911F910F91FF90EF900895CF93BC
S11353C0DF9390E0FC01EE0FFF1FDF01A80FB91F70
S11353D0AA0FBB1FA05AB64ECD91DC9111974881FC
S11353E021E030E012960C90129702C0220F331F76
S11353F00A94E2F724272883FD0181E08483DF9166
S1135400CF910895CF93DF9390E0FC01EE0FFF1F3F
S1135410DF01A80FB91FAA0FBB1FA05AB64ECD912A
S1135420DC911197488121E030E012960C9012979C
S113543002C0220F331F0A94E2F724272883FD01B8
S113544082E08483DF91CF910895282F30E0F90121
S1135450EE0FFF1FE20FF31FEE0FFF1FE05AF64E91
S113546093E09483CCCE0895282F30E0F901EE0F19
S1135470FF1FE20FF31FEE0FFF1FE05AF64E94E0FA
S1135480948371CE089590E0FC01EE0FFF1FDF01BD
S1135490A80FB91FAA0FBB1FA05AB64E24E0159639
S11354A02C931597FD01148208958091861981111A
S11354B00CC08CE08093B8008FEF8093BB0084E035
S11354C08093BC0081E0809386190895AF92BF92C7
S11354D0CF92DF92EF92FF920F931F93CF93DF93BC
S11354E0A82EB62E69017A0184E090E0A0D3EC01E5
S11354F0892B61F1A88281E0B81212C0C701B601FC
S113550020EA36E841E050E04ED3DA01C901409781
S1135510A109B109B695A79597958795898311C077
S1135520C701B60120E83AE146E050E03CD3DA0195
S1135530C9014097A109B109B695A7959795879593
S113554089831B830A838C2F9D2F02C080E090E007
S1135550DF91CF911F910F91FF90EF90DF90CF904B
S1135560BF90AF9008958091BC0081700895FF9220
S11355700F931F93CF93DF930097D1F14A30D0F567
S1135580F42E8B01EC01EFDF811136C08091791983
S113559090917A19C817D90741F087DF89818093E0
S11355A0B800D0937A19C093791981E08F0D809354
S11355B07B198881880F80937C19FF2089F0F8017A
S11355C0ADE7B9E14FEF4F0D642F70E0CB010196C9
S11355D0B801680F791F81918D93E617F707D9F702
S11355E088EF8093210285EA8093BC0084E005C0A3
S11355F086E003C087E001C082E0DF91CF911F9174
S11356000F91FF9008951F93CF93DF93009729F193
S11356106B3028F5162FEC01A6DF811122C0809192
S1135620791990917A19C817D90741F03EDF898119
S11356308093B800D0937A19C093791910937B1989
S11356408881880F816080937C1988EF8093210280
S113565085EA8093BC0085E005C086E003C087E04E
S113566001C082E0DF91CF911F9108951F920F92A4
S11356700FB60F9211240BB60F922F933F934F93B3
S11356805F936F937F938F939F93AF93BF93EF93A6
S1135690FF93E091B9008E2F90E0FC013897E1353B
S11356A0F10508F075C08827E458FF4F8F4F9DC25D
S11356B010927819E091781980917B19E81770F4A9
S11356C081E08E0F80937819F0E0E458F64E8081E3
S11356D08093BB0085E88093BC0072C084E980930A
S11356E0BC008091791990917A19DC011296ED91A0
S11356F0FC911397309709F463C020E040E050E038
S113570064E019955DC0E091781981E08E0F809373
S113571078198091BB00F0E0E458F64E80838091C4
S1135720B900803411F4109278192091781930E07E
S113573080917B1990E001972817390724F485ECB0
S11357408093BC003DC085E88093BC0039C0809143
S1135750BB00E0917819F0E0E458F64E808384E9C8
S11357608093BC008091791990917A19DC0112968A
S1135770ED91FC911397309719F120917B194CE727
S113578059E165E019951CC085EA8093BC0018C0F6
S11357908091B9008093210284E08093BC008091C1
S11357A0791990917A19DC011296ED91FC91139775
S11357B0309731F020E040E050E0609121021995EB
S11357C0FF91EF91BF91AF919F918F917F916F91D5
S11357D05F914F913F912F910F900BBE0F900FBE91
S11357E00F901F901895FC01411101C041D3842FE3
S11357F090E09C012150310982239323892B09F0E5
S113580037D3413808F034D3128213824483440FCF
S1135810415045837183608380E090E0089550583F
S1135820BB27AA270ED021C112D130F017D120F006
S113583031F49F3F11F41EF407C10EF4E095E7FB29
S1135840FDC0E92F0E94BB1E78F3BA1762077307E5
S11358508407950720F079F4A6F50C94DD1E0EF468
S1135860E0950B2EBA2FA02D0B01B90190010C016C
S1135870CA01A0011124FF27591B99F0593F50F484
S1135880503E68F11A16F040A22F232F342F4427DC
S1135890585FF3CF469537952795A795F0405395D4
S11358A0C9F77EF41F16BA0B620B730B840BBAF0A4
S11358B09150A1F0FF0FBB1F661F771F881FC2F70F
S11358C00EC0BA0F621F731F841F48F48795779523
S11358D06795B795F7959E3F08F0B1CF9395880FDC
S11358E008F09927EE0F9795879508950DD0BDC0C0
S11358F0B5D048F0ACD038F021F45F3F21F09EC021
S113590051110C94DE1EA0C00E94BB1E88F3992383
S1135910B9F35523A1F3951B550BBB27AA2762178F
S11359207307840738F09F5F5F4F220F331F441FB4
S1135930AA1FA9F334D00E2E3AF0E0E831D09150EA
S11359405040E695001CCAF72AD0FE2F28D0660FD7
S1135950771F881FBB1F261737074807AB07B0E818
S113596009F0BB0B802DBF01FF2793585F4F32F026
S11359709E3F510570F062C00C94DE1E5F3FE4F35D
S1135980983ED4F3869577956795B795F7959F5F7D
S1135990C9F7880F911D9695879597F90895E1E0C9
S11359A0660F771F881FBB1F621773078407BA0728
S11359B020F0621B730B840BBA0BEE1F88F7E09583
S11359C00895E89409C097FB3EF4909580957095EE
S11359D061957F4F8F4F9F4F9923A9F0F92F96E937
S11359E0BB279395F695879577956795B795F111AC
S11359F0F8CFFAF4BB0F11F460FF1BC06F5F7F4F49
S1135A008F4F9F4F16C0882311F096E911C077235A
S1135A1021F09EE8872F762F05C0662371F096E863
S1135A20862F70E060E02AF09A95660F771F881F32
S1135A30DAF7880F9695879597F9089597F99F67F0
S1135A4080E870E060E008959FEF80EC0895002402
S1135A500A941616170618060906089500240A94CF
S1135A6012161306140605060895092E0394000C55
S1135A7011F4882352F0BB0F40F4BF2B11F460FFE4
S1135A8004C06F5F7F4F8F4F9F4F08950CD0EDCFB1
S1135A90DEDF28F0E3DF18F0952309F0CFCFD4CF71
S1135AA011240C94DE1E0E94BB1E90F3959FC1F33B
S1135AB0950F50E0551F629FF001729FBB27F00DB8
S1135AC0B11D639FAA27F00DB11DAA1F649F66270D
S1135AD0B00DA11D661F829F2227B00DA11D621F5C
S1135AE0739FB00DA11D621F839FA00D611D221F16
S1135AF0749F3327A00D611D231F849F600D211DFA
S1135B00822F762F6A2F11249F57504092F0E9F08C
S1135B1088234AF0EE0FFF1FBB1F661F771F881FE5
S1135B2091505040A9F79E3F510578F087CF0C94CF
S1135B30DE1E5F3FE4F3983ED4F386957795679530
S1135B40B795F795E7959F5FC1F7FE2B880F911DD9
S1135B509695879597F90895AA1BBB1B51E107C039
S1135B60AA1FBB1FA617B70710F0A61BB70B881FE9
S1135B70991F5A95A9F780959095BC01CD01089578
S1135B8097FB072E16F4009406D077FD08D0E4DFC7
S1135B9007FC05D03EF4909581959F4F089570952C
S1135BA061957F4F0895A1E21A2EAA1BBB1BFD012C
S1135BB00DC0AA1FBB1FEE1FFF1FA217B307E407E8
S1135BC0F50720F0A21BB30BE40BF50B661F771F40
S1135BD0881F991F1A9469F7609570958095909520
S1135BE09B01AC01BD01CF010895EE0FFF1F881F7B
S1135BF08BBF0790F691E02D19940F931F93CF93C9
S1135C00DF93869F8001879F100D969F100D1124AE
S1135C10C8010DD0EC01009721F0A80160E070E00C
S1135C2034D1CE01DF91CF911F910F9108950F933D
S1135C301F93CF93DF938230910510F482E090E0BC
S1135C40E091051AF091061A20E030E0A0E0B0E0FF
S1135C50309719F140815181028113814817590706
S1135C60C8F08417950769F4109731F012960C93D5
S1135C70129713961C9327C00093051A1093061AC3
S1135C8022C02115310519F04217530718F49A015F
S1135C90BD01EF01DF01F801DBCF21153105F9F07A
S1135CA0281B390B2430310580F48A819B816115CE
S1135CB0710521F0FB019383828304C09093061A3B
S1135CC08093051AFE01329644C0FE01E20FF31FD1
S1135CD08193919322503109398328833AC02091CA
S1135CE0031A3091041A232B41F4209102023091BB
