:1000000094C00000B3C00000B1C00000AFC0000049
:10001000ADC00000ABC00000A9C00000A7C0000038
:10002000A5C00000A3C00000A1C000009FC0000048
:100030009CC300009BC0000099C0000097C0000056
:1000400095C0000093C0000091C000008FC0000068
:100050008DC000008BC0000089C0000087C0000078
:1000600085C000000C94CF1F0C9421207FC000009D
:100070007DC000007BC0000079C0000077C0000098
:1000800075C0000073C0000071C000006FC00000A8
:100090000C9465200C94B72069C0000067C0000074
:1000A00065C0000063C0000061C000005FC00000C8
:1000B0005DC000005BC0000059C0000057C00000D8
:1000C00055C0000053C0000051C000000C94FB203C
:1000D0000C944D214BC000000C9491210C94E32111
:1000E00045C00000B916B916B916F016F8160D1766
:1000F000B916B916F016F8160E94090B8091031173
:10010000823008F06CD20E943617F6CFCF93DF937F
:100110001F92CDB7DEB7CE0101960E9436144981F9
:100120000E942B160E948216F6CF11241FBECFEF1D
:10013000D1E2DEBFCDBF00E00CBF16E0A0E0B2E030
:10014000ECEDF5E500E00BBF02C007900D92AE3D6F
:10015000B107D9F723E1AEEDB6E001C01D92A93693
:10016000B207E1F70E946C190C94EC2A49CF0C9469
:10017000641708950E94641E811105C087EB90E00A
:100180000C945F1E08958AE692E00C94E12708958E
:10019000EAEEF6E0AEEEB6E0B183A08313821282FF
:1001A000EEEAF0E1F093E906E093E80613821282AA
:1001B0001182108280EC99E013969C938E93129793
:1001C000ED93FC939093E5068093E4069093E70605
:1001D0008093E60680E090E89093DF068093DE0649
:1001E0000895CF93DF93EC01AAEEB6E001C0DF01E2
:1001F000ED91FC911197EC17FD07C8F312968D91C4
:100200009C9113979D01280F391FC217D30749F4FA
:100210002A813B81820F931F13969C938E93129792
:10022000ED018A819B819E01280F391FE217F30798
:10023000C1F42091E8063091E906E217F30771F066
:1002400022813381820F931F9B838A83ED91FC91DE
:100250001197808191819983888305C03983288390
:1002600002C0F983E883CA17DB0711F0CD93DC9352
:10027000DF91CF910895EF92FF920F931F93CF9349
:10028000DF938C010E94540C8091E8069091E9065E
:10029000892B09F47DDF8091DE069091DF068023B3
:1002A0009123892B09F076C00115110549F0C80189
:1002B00004960817190718F000E010E001C08C013F
:1002C0000115110509F469C08091E6069091E706D1
:1002D0008017910708F464C0C091EA06D091EB063C
:1002E000EAEEF6E002C0FE01EC018A819B818017F4
:1002F000910720F4888199810097A9F78091E806F9
:100300009091E906C817D90709F44DC0E080F18043
:1003100084E0E80EF11C88819981918380832A8191
:100320003B81201B310B2930310548F0CE01800F75
:10033000911FFC01338322831B830A8352DF2A81AE
:100340003B818091E6069091E706821B930B909388
:10035000E7068093E6064091E4065091E50684178F
:10036000950720F49093E5068093E4068091DE06DD
:100370009091DF06282B392B3B832A831982188220
:100380008091E2069091E30601969093E3068093B4
:10039000E2060BC0E12CF12C08C0E12CF12C05C0C9
:1003A000E12CF12C02C0E12CF12C0E94940DE114FF
:1003B000F10411F40E944217C701DF91CF911F9100
:1003C0000F91FF90EF9008950F931F93CF93DF93BA
:1003D000009791F1EC0124974A815B812091DE0620
:1003E0003091DF06BA0162237323672B29F16881FC
:1003F0007981672B09F520953095242335233B839C
:100400002A830E94540C8A819B812091E6063091B8
:10041000E706820F931F9093E7068093E606CE01CE
:10042000E0DE8091E0069091E10601969093E1066E
:100430008093E0060E94940DDF91CF911F910F9160
:100440000895FC010396928381834FEF5FEFBA0119
:1004500043835483658376839087878392878187DC
:1004600010820895FC011386128608950F931F933E
:10047000CF93DF93EB01088119812A813B810F3FE4
:100480004FEF14072407340721F4FC01A185B2853E
:1004900011C0DC01139601C0DF011496ED91FC91AF
:1004A00015974081518162817381041715072607D2
:1004B000370790F71496ED91FC911597FD83EC8327
:1004C000D783C683BF83AE831596DC93CE931497F0
:1004D0009B878A87FC0120812F5F2083DF91CF914A
:1004E0001F910F910895CF93DF93FC01A285B385EF
:1004F000C481D581868197819F838E83C681D78170
:10050000848195819D838C8311968D919C91129706
:10051000E817F90731F48681978112969C938E93A0
:100520001197138612868C9181508C938C91DF9158
:10053000CF910895A89590EC88E10FB6F894A8950E
:10054000809360000FBE909360000895FC0160836B
:10055000319770833197108231971082319720E85C
:1005600020833197108231971082319710827797CC
:1005700040833197508386970895DCDFA0917111F5
:10058000B0917211CD91CDBFDD91DEBFFF91EF91A2
:10059000DF91CF91BF91AF919F918F917F916F919B
:1005A0005F914F913F912F911F910F91FF90EF908D
:1005B000DF90CF90BF90AF909F908F907F906F9083
:1005C0005F904F903F902F901F900F900CBE0F9018
:1005D0000BBE0F900FBE0F90089581E008950F920B
:1005E0000FB6F8940F920BB60F920CB60F921F92A3
:1005F00011242F923F924F925F926F927F928F922F
:100600009F92AF92BF92CF92DF92EF92FF920F93A1
:100610001F932F933F934F935F936F937F938F938A
:100620009F93AF93BF93CF93DF93EF93FF93A091EB
:100630007111B09172110DB60D920EB60D920E940D
:10064000F00EA0917111B0917211CD91CDBFDD91DD
:10065000DEBFFF91EF91DF91CF91BF91AF919F915D
:100660008F917F916F915F914F913F912F911F914A
:100670000F91FF90EF90DF90CF90BF90AF909F9041
:100680008F907F906F905F904F903F902F901F9032
:100690000F900CBE0F900BBE0F900FBE0F900895E1
:1006A0000F920FB6F8940F920BB60F920CB60F92F2
:1006B0001F9211242F923F924F925F926F927F92DE
:1006C0008F929F92AF92BF92CF92DF92EF92FF9262
:1006D0000F931F932F933F934F935F936F937F934A
:1006E0008F939F93AF93BF93CF93DF93EF93FF933A
:1006F000A0917111B09172110DB60D920EB60D92BE
:1007000013BE0E94680C81110E94F00EA09171111D
:10071000B0917211CD91CDBFDD91DEBFFF91EF9110
:10072000DF91CF91BF91AF919F918F917F916F9109
:100730005F914F913F912F911F910F91FF90EF90FB
:10074000DF90CF90BF90AF909F908F907F906F90F1
:100750005F904F903F902F901F900F900CBE0F9086
:100760000BBE0F900FBE0F9008959ADF18950FB62D
:10077000F8940F92FC01868D811102C081E001C0C6
:1007800080E00F900FBE08950FB6F8940F92FC0111
:10079000268D878D281302C081E001C080E00F9074
:1007A0000FBE08950F931F93CF93DF93EC01042F97
:1007B0001E8D48A141110CC088819981892B09F0B7
:1007C00042C08C819D810E9401111D821C8242C009
:1007D000011117C050E08A819B810E946F2728A1D8
:1007E0008A819B81820F911D9B838A832C813D810D
:1007F0008217930750F1888199819B838A8380E0D7
:1008000029C050E08E819F810E946F2788A190E0CF
:100810009195819591092E813F81280F391F3F8342
:100820002E83488159812417350730F42C813D816E
:10083000820F931F9F838E83023049F4112349F066
:10084000115080E007C080E005C080E003C080E078
:1008500001C080E01F5F1E8FDF91CF911F910F912C
:100860000895FC0140A14423A9F050E0268137817E
:10087000240F351F378326838481958128173907F4
:1008800020F08081918197838683CB016681778177
:100890000C946F2708951F93CF93DF93EC010FB64D
:1008A000F8940F921AA10BC08B89882351F0CE01C6
:1008B00043960E94AE0F81110E94EA10115011164A
:1008C0009CF38FEF8AA30F900FBE0FB6F8940F9290
:1008D00019A10BC08885882351F0CE0108960E948B
:1008E000AE0F81110E94EA10115011169CF38FEF88
:1008F00089A30F900FBEDF91CF911F910895CF93E1
:10090000DF93EC010FB6F8940F92E881F9818F8D97
:1009100028A190E030E0829FA001839F500D929F1C
:10092000500D11244E0F5F1F5D834C831E8EFB8381
:10093000EA830197289FA001299F500D389F500DF1
:100940001124CF01840F951F9F838E838FEF89A37E
:100950008AA361110BC08885882371F0CE010896A7
:100960000E94AE0F882341F03ADE06C0CE01089601
:1009700068DDCE01439665DD0F900FBE81E0DF910B
:10098000CF9108950F931F93F801611103C0118354
:10099000008302C051834083878F60A361E0CF0151
:1009A000AEDF1F910F910895DF92EF92FF920F93A8
:1009B0001F93CF93DF93F82EE62ED42E869FC0018F
:1009C0001124839658DCEC01009741F08C012D2D09
:1009D000AC014D5D5F4F6E2D8F2DD4DFCE01DF91C9
:1009E000CF911F910F91FF90EF90DF900895CF92DC
:1009F000DF92EF92FF920F931F93CF93DF93CDB7C8
:100A0000DEB729970FB6F894DEBF0FBECDBF7C01CD
:100A10006B012E833F834887598710E00FB6F89407
:100A20000F92F701968D878D981710F00230B1F470
:100A3000402FB601C701B6DEF7019389992341F033
:100A4000C70143960E94AE0F882321F0C8DD02C083
:100A50008111C5DD0F900FBE81E04CC08E819F815A
:100A6000A885B985892B8A2B8B2B21F40F900FBE7B
:100A700080E040C0111105C0CE0101960E947310A4
:100A800011E00F900FBE10D70FB6F8940F92F70138
:100A900081A18F3F09F411A2F70182A18F3F09F4D0
:100AA00012A20F900FBEBE016A5F7F4FCE0101966A
:100AB0000E948410811119C0C70166DE882381F06D
:100AC0004E815F8168857985C70108960E94550F20
:100AD000C701E1DE0E94940D8111A0CF80DD9ECF81
:100AE000C701D9DE0E94940D99CFC701D4DE0E94C0
:100AF000940D80E029960FB6F894DEBF0FBECDBFEF
:100B0000DF91CF911F910F91FF90EF90DF90CF90E9
:100B100008950F93009769F0FC01158214821182E9
:100B20001082168200E020E030E0A90160E070E071
:100B30005EDF0F910895CF93DF93482F60E081E04F
:100B400033DFEC01E6DFCE01DF91CF910895EF9224
:100B5000FF920F931F93CF93DF938A01FC01568D71
:100B6000378D531710F02230F9F4422F7801EC0141
:100B70001AA18E8DCE0116DE1F3F81F48B8988234A
:100B8000A9F0CE0143960E94AE0F882389F0E114AC
:100B9000F10481F081E0F70180830DC0FF24F3941C
:100BA000F10EFAA281E007C080E005C081E003C039
:100BB00081E001C081E0DF91CF911F910F91FF9003
:100BC000EF900895CF92DF92EF92FF920F931F93D1
:100BD000CF93DF93CDB7DEB729970FB6F894DEBF7A
:100BE0000FBECDBF8C016B012E833F834887598791
:100BF000E12C0FB6F8940F92F801F68CFF2099F0D3
:100C0000B601C8012EDEFA94F801F68E808588239D
:100C100031F0C80108960E94AE0F8111E0DC0F9000
:100C20000FBE81E04FC08E819F81A885B985892B39
:100C30008A2B8B2B21F40F900FBE80E043C0E11074
:100C400006C0CE0101960E947310EE24E3940F902B
:100C50000FBE2AD60FB6F8940F92F80181A18F3FEC
:100C600009F411A2F80182A18F3F09F412A20F909A
:100C70000FBEBE016A5F7F4FCE0101960E948410B5
:100C8000811117C0C80173DD882379F04E815F811F
:100C900068857985C80143960E94550FC801FBDD20
:100CA00043D78111A6CF9BDCA4CFC801F4DD3CD78C
:100CB000A0CFC801F0DD38D7C80159DD882309F479
:100CC00098CF80E029960FB6F894DEBF0FBECDBF57
:100CD000DF91CF911F910F91FF90EF90DF90CF9018
:100CE0000895CF93DF93EC010FB6F8940F9289A18A
:100CF0008F3F09F419A28AA18F3F09F41AA20F901D
:100D00000FBE8E8D811104C0CE0143960E946C0FE0
:100D1000CE01C1DDDF91CF910895FC014481558161
:100D200022813381240F351F80819181B901681B95
:100D3000790BCB016417750710F0841B950B089590
:100D40000F93FC018FE0DF011D928A95E9F775870B
:100D50006487558344833783268306870F910895DC
:100D6000AF92BF92CF92DF92EF92FF920F931F93B9
:100D7000CF93DF936C015B017A01FC01C281D381C7
:100D8000048115810C1B1D0B4017510708F48A01C3
:100D9000F60184859585A801B5018C0F9D1F0E94E1
:100DA0006F270E151F0558F4A701401B510BB50105
:100DB000600F711FF601848595850E946F27CE0113
:100DC0008E0D9F1DF601248135818217930710F047
:100DD000821B930BF60193838283C701DF91CF912E
:100DE0001F910F91FF90EF90DF90CF90BF90AF9049
:100DF0000895CF92DF92EF92FF920F931F93CF93BC
:100E0000DF931F921F92CDB7DEB77C016B015A832F
:100E1000498321153105C1F0FC01868580FD08C09C
:100E20004217530708F49A013A83298381E00FC0DF
:100E30002017310758F042E050E0BE016F5F7F4F4E
:100E4000C7018EDF81E003C080E001C080E088231D
:100E500031F049815A81B601C70182DF02C080E0CA
:100E600090E00F900F90DF91CF911F910F91FF9025
:100E7000EF90DF90CF900895AF92BF92CF92DF9224
:100E8000EF92FF920F931F93CF93DF937C015B014F
:100E9000E9014217530708F4EA01209781F1F701AD
:100EA0000081118184819581801B910B6E018C17CB
:100EB0009D0708F46C01F70164857585600F711F4B
:100EC000A601C5010E946F27CC16DD0658F4AE01BD
:100ED0004C195D09F70164857585C5018C0D9D1D53
:100EE0000E946F270C0F1D1FF70184819581081741
:100EF000190710F0081B190BF70111830083CE01AD
:100F0000DF91CF911F910F91FF90EF90DF90CF90E5
:100F1000BF90AF9008956F927F928F929F92AF9201
:100F2000BF92CF92DF92EF92FF920F931F93CF93D6
:100F3000DF931F921F92CDB7DEB76C014B015A01B0
:100F4000790101151105B1F0FC0160807180A801E3
:100F5000BE016F5F7F4F90DF89819A81E01AF10AAD
:100F6000A816B90630F4F60171826082A12CB12C6A
:100F700001C05C019701A501B401C6017DDF0F909E
:100F80000F90DF91CF911F910F91FF90EF90DF9025
:100F9000CF90BF90AF909F908F907F906F9008956B
:100FA000CF92DF92EF92FF920F93CF93DF93EC01FA
:100FB0006B01413011F401E001C000E0C114D10423
:100FC00019F4CC24C394D12CCE014096C817D9076C
:100FD00020F4219650D97C0102C0E12CF12CE114BF
:100FE000F10439F09601AE01B701615F7F4FC7018F
:100FF000A7DEC701DF91CF910F91FF90EF90DF90B7
:10100000CF9008950F930FB6F8940F92FC012085AE
:101010003185232B71F422853385232B61F42681BE
:1010200037814481558164857585068589DE81E037
:1010300003C080E001C080E00F900FBE0F910895C3
:10104000FC012481358180819181820F931F42812F
:101050005381841B950B01978217930710F0821B15
:10106000930B08952F923F924F925F926F927F92CF
:101070008F929F92AF92BF92CF92DF92EF92FF92A8
:101080000F931F93CF93DF93CDB7DEB72B970FB698
:10109000F894DEBF0FBECDBF4C017B876A871A0173
:1010A0000E831F8328873987FC01848195810197EE
:1010B000268520FF0CC02A01F2E04F0E511C84153A
:1010C000950558F41E821F821886198606C084175B
:1010D000950710F02A0101C02C018E819F81A885FF
:1010E000B985892B8A2B8B2B09F436C0CE0101964A
:1010F000E4D70FB6F8940F92C401A2DF3C01841527
:10110000950538F560E080E090E00E941C140E9494
:10111000EE10F401938782870F900FBEAE80BF80E0
:10112000C884D984E12CF12C00E010E0980140E063
:1011300050E0BA0180E00E945C11F401138612862F
:10114000BE016A5F7F4FCE010196DED7882389F208
:1011500005C00F900FBE02C0612C712C6114710488
:1011600019F4C4016DDF3C0182019301A1016A857C
:101170007B85C4013EDE6C01892BE9F0C401CDDD25
:10118000F4012681378182179307A8F08DD3F401EB
:1011900080859185892B71F080859185E12CF12CDA
:1011A00000E020E030E0A90160E00E940312F401B9
:1011B00011861086B9D4C6012B960FB6F894DEBFFF
:1011C0000FBECDBFDF91CF911F910F91FF90EF9098
:1011D000DF90CF90BF90AF909F908F907F906F9057
:1011E0005F904F903F902F900895AF92BF92CF9213
:1011F000DF92EF92FF920F931F93CF93DF93EC0157
:101200007B015A0169018E8580FF04C08A010E5F4F
:101210001F4F01C08A01CE0113DF9C01A501B70158
:10122000CE01E7DD5C01892BC1F0CE0176DD2E8198
:101230003F818217930788F088859985892B69F00B
:1012400088859985E12CF12C00E020E030E0A901AF
:1012500060E00E94FA1219861886C501DF91CF91CD
:101260001F910F91FF90EF90DF90CF90BF90AF90C4
:1012700008954F925F926F927F928F929F92AF925A
:10128000BF92CF92DF92EF92FF920F931F93CF9373
:10129000DF93EC012B013A01580169018E8580FF33
:1012A00005C06894882481F8912C02C0812C912C6F
:1012B000A114B104C104D10431F10FB6F8940F9216
:1012C000CE012BDD7C018816990640F060E080E0BD
:1012D00090E00E941C1482D7998788870F900FBED8
:1012E0008E149F0498F0E12CF12C00E010E098019E
:1012F00040E050E0BA0180E0DFD719861886CE01C1
:101300000CDD7C0103C0CE0108DD7C018E149F043E
:10131000E8F484019701A301B201CE01FCDD6C0168
:10132000892BB1F0C1D28A859B85892B69F08A858A
:101330009B85E12CF12C00E020E030E0A90160E089
:101340000E9403121B861A86EFD302C0C12CD12C37
:10135000C601DF91CF911F910F91FF90EF90DF9029
:10136000CF90BF90AF909F908F907F906F905F9045
:101370004F900895E091EB10F091EC108081811175
:101380000CC08FEF9FEFDC018093B5109093B610E7
:10139000A093B710B093B8100895E091EB10F091BE
:1013A000EC100780F085E02D80819181A281B381CE
:1013B0008093B5109093B610A093B710B093B81067
:1013C0000895CF93DF93EC018B8D9C8D0E94E401F7
:1013D000CE010E94E401DF91CF9108954F925F9278
:1013E0006F927F928F929F92AF92BF92CF92DF9235
:1013F000EF92FF920F93CF93DF932C015B014A0191
:101400003901E60165EA70E08B8D9C8D0E9478279A
:101410008B8D9C8D21E0821A9108880E991EA11453
:10142000B10489F415C0822F90E0F501E80FF91F8F
:101430003081DE01A80FB91F5D963C93808188231F
:1014400029F02F5F01C020E0203168F31CA601C005
:101450001D8E0A3008F009E00A8F0DA71EA6CE01E6
:10146000029600D8CE010E960E943202DB87CA8710
:101470008AE090E0A0E0B0E0801B9109A109B109E9
:101480008E879F87A88BB98BDF8BCE8B84E0FE0184
:10149000BF96DF011D928A95E9F71BAAA301B2014D
:1014A000C40154D899838883E114F10419F0F70139
:1014B000D183C083DF91CF910F91FF90EF90DF90A8
:1014C000CF90BF90AF909F908F907F906F905F90E4
:1014D0004F900895CF93C0E009C02BE0C29FC00198
:1014E00011248D5F9E4E0E942102CF5FCA30A8F367
:1014F00088EF90E10E9421028DEE90E10E9421028E
:101500008EED90E10E94210283ED90E10E94210284
:1015100087EC90E10E94210288EF90E19093EC101B
:101520008093EB108DEE90E19093EA108093E91098
:10153000CF910895CF93DF93EC010FB6F8940F92FB
:101540008091C6108F5F8093C61080917111909129
:101550007211892B51F4D0937211C0937111809143
:10156000C610813091F4B6DF10C08091C010811197
:101570000CC0E0917111F0917211928D8A8D8917D2
:1015800020F0D0937211C09371118091B9108F5FC8
:101590008093B910EA8D8091C1108E1710F4E093FA
:1015A000C1108BE08E9FF0011124ED5FFE4E018093
:1015B000F281E02DFF83EE832681378139872887EA
:1015C000A681B7819E012E5F3F4F15963C932E93C7
:1015D000149737832683EA8D8E9FF0011124ED5FE7
:1015E000FE4EFD87EC8780818F5F80830F900FBE5A
:1015F0008091C010882351F0E0917111F091721127
:10160000928D8A8D981710F40E94EF02DF91CF918E
:101610000895CF93DF931BC00FB6F8940F92E0911B
:10162000DA10F091DB10C085D185CE0102960E94C0
:1016300073028091C61081508093C6108091D210A1
:1016400081508093D2100F900FBECE01BADE8091F0
:10165000D2108111E1CFDF91CF9108958F929F92A7
:10166000AF92BF92CF92DF92EF92FF92CF93DF9330
:101670006B017C01C42F8090C2109090C310A09089
:10168000C410B090C51080917111909172110296A2
:101690000E9473028FEFC816D806E806F806B1F567
:1016A000CC23A1F1E7ECF0E1A181B281C0917111ED
:1016B000D0917211BF83AE83C0917111D09172111C
:1016C00016968D919C911797998788871696CD913C
:1016D000DC911797809171119091721102969D8300
:1016E0008C838091711190917211029617969C9340
:1016F0008E931697A0917111B09172111D96FC9363
:10170000EE931C9780818F5F80833FC0C80CD91CEB
:10171000EA1CFB1CE0917111F0917211C282D3821C
:10172000E482F582C814D904EA04FB0468F46091E9
:101730007111709172118091E9109091EA106E5FB1
:101740007F4F0E94360221C0609171117091721119
:101750008091EB109091EC106E5F7F4F0E943602EB
:101760008091B5109091B610A091B710B091B810BB
:10177000C816D906EA06FB0640F4C092B510D0920E
:10178000B610E092B710F092B810DF91CF91FF90B1
:10179000EF90DF90CF90BF90AF909F908F90089583
:1017A0002F923F924F925F926F927F928F929F9271
:1017B000AF92BF92CF92DF92EF92FF920F93CF93AF
:1017C000DF933C011B014A012901CA010E943B0130
:1017D0006C01892B71F084E390E00E943B01EC01E5
:1017E000892B19F0DC8ECB8E06C0C6010E94E40165
:1017F00002C0C0E0D0E0209761F0A12CB12C6E01B6
:101800009201A401B101C301E9DDCE0193DE81E0C3
:1018100001C08FEFDF91CF910F91FF90EF90DF909C
:10182000CF90BF90AF909F908F907F906F905F9080
:101830004F903F902F900895EF92FF920F930F2EAD
:10184000F3EBEF2EF0E1FF2EF02D00E020E030E092
:1018500040EC50E067E772E08CE790E0A1DF813078
:1018600011F40E94C0148130C9F4F8948FEF9FEFF7
:10187000DC018093B5109093B610A093B710B0938D
:10188000B81081E08093C0101092C2101092C31063
:101890001092C4101092C5100E94BD0280910602E1
:1018A0000F91FF90EF9008958091B2108F5F809319
:1018B000B21008950FB6F8940F926091C210709113
:1018C000C3108091C4109091C5100F900FBE089561
:1018D000CF92DF92EF92FF92CF93DF938091B2107D
:1018E000811105C1C090C210D090C310E090C41007
:1018F000F090C5108FEFC81AD80AE80AF80AC0920B
:10190000C210D092C310E092C410F092C510C1145E
:10191000D104E104F104B1F48091EB109091EC104A
:101920002091E9103091EA103093EC102093EB10E5
:101930009093EA108093E9108091BA108F5F8093A2
:10194000BA1018DD8091B5109091B610A091B71023
:10195000B091B810C816D906EA06FB0620F480E05C
:10196000B2C081E001C080E0E091EB10F091EC109A
:10197000908191110CC04FEF5FEFBA014093B51009
:101980005093B6106093B7107093B8109CC0E0915C
:10199000EB10F091EC100780F085E02D0084F185CC
:1019A000E02D4281538164817581C416D506E60617
:1019B000F70648F44093B5105093B6106093B710F3
:1019C0007093B81080C0A485B585C681D781208565
:1019D00031853F832E83C085D185268137813D8324
:1019E0002C8311964D915C9112979F012E5F3F4F72
:1019F0004217530731F44085518512965C934E93FC
:101A00001197158614869C9191509C93A08DB18D51
:101A1000109709F1C289D389448955895F834E8320
:101A2000C489D589428953895D834C8311966D9110
:101A30007C911297AF01425F5F4F6417750731F4D5
:101A40004489558912965C934E931197118E108E8E
:101A50009C9191509C93A28D9091C1109A1710F473
:101A6000A093C1109BE09A9FD0011124AD5FBE4EA0
:101A700011960D90BC91A02DB783A68316964D911B
:101A80005C911797518740871696CD91DC911797F7
:101A90003D832C8317963C932E931697A28D9A9F85
:101AA000D0011124AD5FBE4EB587A4879C919F5F86
:101AB0009C93228DE0917111F0917211928D2917F2
:101AC00008F04FCF51CFE0917111F0917211E28D7A
:101AD0009BE0E99FF0011124ED5FFE4E9081923072
:101AE00008F081E09091BB10911116C016C0809152
:101AF000BC109091BD10A091BE10B091BF10019686
:101B0000A11DB11D8093BC109093BD10A093BE1079
:101B1000B093BF1080E001C081E0DF91CF91FF90D2
:101B2000EF90DF90CF900895CF92DF92EF92FF92E7
:101B3000CF93DF930FB6F8940F928091B21081503B
:101B40008093B2108091B2108111BEC08091C610F6
:101B5000811188C0BCC0E091E510F091E6100084CE
:101B6000F185E02DA08DB18DC289D38984899589B5
:101B70009F838E83C489D589828993899D838C8331
:101B800011962D913C911297CF010E962817390787
:101B900031F48489958912969C938E931197118EB6
:101BA000108E8C9181508C93A485B585C681D78188
:101BB000808591859F838E83C085D185868197811D
:101BC0009D838C8311968D919C9112979F012E5F1E
:101BD0003F4F8217930731F48085918512969C932D
:101BE0008E931197158614868C9181508C93A28DBB
:101BF0008091C1108A1710F4A093C1108BE08A9FC6
:101C0000D0011124AD5FBE4E11960D90BC91A02D58
:101C1000B783A68316964D915C911797518740879D
:101C20001696CD91DC9117973D832C8317963C93A4
:101C30002E931697A28D8A9FD0011124AD5FBE4EC0
:101C4000B587A4878C918F5F8C93928DA091711131
:101C5000B09172115A968C91981730F081E0809370
:101C6000BB1002C0E0E0F0E08091DE10811173CF84
:101C7000EF2B09F07FDBC090BC10D090BD10E0903E
:101C8000BE10F090BF10C114D104E104F104A1F022
:101C90001FDE882319F081E08093BB1081E0C81A11
:101CA000D108E108F108A1F71092BC101092BD1004
:101CB0001092BE101092BF108091BB10882331F09B
:101CC0000E94EF0281E003C080E001C080E00F903D
:101CD0000FBEDF91CF91FF90EF90DF90CF900895EE
:101CE0008F929F92AF92BF92CF92DF92EF92FF922C
:101CF0001F93CF93DF93EC016A017B01D5DD8090C8
:101D0000C2109090C310A090C410B090C5108881EC
:101D10009981AA81BB81AC01BD014C0D5D1D6E1D79
:101D20007F1D88169906AA06BB0660F44817590756
:101D30006A077B0798F484169506A606B70680F016
:101D400010E013C0481759076A077B0758F084163C
:101D50009506A606B70640F010E007C010E005C0E3
:101D600011E003C011E001C011E0488359836A8388
:101D70007B83112341F0CB01BA01681979098A09E3
:101D80009B0940E06BDCD0DE811102C00E94EF02B3
:101D9000812FDF91CF911F91FF90EF90DF90CF9037
:101DA000BF90AF909F908F900895CF92DF92EF9267
:101DB000FF926B017C01672B682B692B39F074DD76
:101DC00040E0C701B6014ADCAFDE01C080E081110E
:101DD00002C00E94EF02FF90EF90DF90CF90089535
:101DE0008091B210882321F081E08093BB10089588
:101DF0001092BB10E0917111F0917211208131812C
:101E0000E0917111F0917211838D948D8217930777
:101E100060F06091711170917211635E7F4F8091DB
:101E20007111909172110E944E178091C11001C0E2
:101E30008150282F30E09BE0929FF001939FF00D9E
:101E40001124ED5FFE4E9081992391F39BE0929FC8
:101E5000A001939F500D1124DF010180F281E02D3C
:101E60000480F581E02D1296FC93EE9311974A5F62
:101E70005E4EE417F50729F444815581FD01528334
:101E800041839BE0929FF001939FF00D1124ED5F41
:101E9000FE4E0180F281E02D208531853093721154
:101EA000209371118093C1100895CF92DF92EF9229
:101EB000FF926A017B016091711170917211625FF2
:101EC0007F4F0E94360241E0C701B601C7DBFF9099
:101ED000EF90DF90CF900895CF93DF93FC01CB017B
:101EE000BA01A181B281C0917111D0917211BB8BE5
:101EF000AA8BC0917111D091721116964D915C917F
:101F000017975D8B4C8B1696CD91DC91179740916E
:101F1000711150917211425F5F4F5D834C8340910C
:101F2000711150917211425F5F4F17965C934E93FF
:101F30001697A0917111B09172115996FC93EE937E
:101F4000589730813F5F3083222319F06FEF7FEF86
:101F5000CB01422F83DBDF91CF910895CF93DF93A5
:101F6000DC011796ED91FC9118970084F185E02D26
:101F7000A08DB18DC289D389848995899F838E83F1
:101F8000C489D589828993899D838C8311968D918B
:101F90009C9112979F01225F3F4F8217930731F464
:101FA0008489958912969C938E931197118E108E29
:101FB0008C9181508C938091B210811152C0A48574
:101FC000B585C681D781808591859F838E83C085A5
:101FD000D185868197819D838C8311968D919C916B
:101FE00012979F012E5F3F4F8217930731F4808530
:101FF000918512969C938E931197158614868C91D9
:1020000081508C93A28D8091C1108A1710F4A093F7
:10201000C1108BE08A9FD0011124AD5FBE4E119696
:102020000D90BC91A02DB783A68316964D915C911F
:102030001797518740871696CD91DC9117973D836E
:102040002C8317963C932E931697A28D8A9FD001CE
:102050001124AD5FBE4EB587A4878C918F5F8C93A2
:102060001CC04EED50E1DA011196CD91DC91129732
:10207000D38BC28B8E819F81958B848B8E819F8128
:10208000DC0115963C932E9314973F832E83518F3A
:10209000408FDA018C918F5F8C93928DE09171115A
:1020A000F0917211828D891720F481E08093BB102A
:1020B00001C080E0DF91CF9108950FB6F8940F92A0
:1020C0002091BA10FC0120834091C2105091C3109E
:1020D0006091C4107091C5104183528363837483EF
:1020E0000F900FBE08952091BA10FC0120834091FB
:1020F000C2105091C3106091C4107091C5104183FB
:1021000052836383748308958F929F92AF92BF929C
:10211000CF92DF92EF92FF920F931F93CF93DF93B3
:10212000FB010FB6F8940F92C090C210D090C3106C
:10213000E090C410F090C510DC0111960D911D9136
:102140002D913C91149746015701801A910AA20AD9
:10215000B30A40815181628173814F3FBFEF5B07BA
:102160006B077B0739F1EC01B881A091BA10BA175F
:1021700059F0C016D106E206F30630F01082118243
:102180001282138281E017C084169506A606B70650
:1021900058F4481959096A097B09408351836283BD
:1021A0007383A1DF80E007C0108211821282138244
:1021B00081E001C080E00F900FBEDF91CF911F91B1
:1021C0000F91FF90EF90DF90CF90BF90AF909F90D6
:1021D0008F90089581E08093BB10089580917111D4
:1021E0009091721108958091C010882331F08091F0
:1021F000B210811104C082E0089581E0089580E06A
:1022000008950F931F93CF93DF93FC01892B09F45B
:1022100049C086A5815086A7228D95A5291709F466
:1022200043C0811143C0EF018F010E5F1F4FC801F2
:102230000E947302EDA5EA8F8AE090E0A0E0B0E092
:102240008E1B9109A109B1098E879F87A88BB98B35
:102250008091C1108E1710F4E093C1108BE08E9F17
:10226000F0011124ED5FFE4E0180F281E02DFF832D
:10227000EE832681378139872887A681B781159615
:102280001C930E93149717830683EA8D8E9FF0019B
:102290001124ED5FFE4EFD87EC8780818F5F808388
:1022A00081E005C080E003C080E001C080E0DF91F4
:1022B000CF911F910F9108954F925F926F927F92ED
:1022C000AF92BF92CF92DF92EF92FF920F931F9344
:1022D000CF93DF93280139010FB6F8940F92E09164
:1022E0007111F0917211C82FD0E0EC0FFD1F83A97E
:1022F000823071F1E0917111F0917211CE01880F6D
:10230000991F880F991FE80FF91F87A590A9A1A908
:10231000B2A94095509560957095482359236A233A
:102320007B2347A750AB61AB72ABE0917111F09189
:102330007211EC0FFD1F81E083ABA114B104C10445
:10234000D10431F041E0C601B50188D90E94EF0205
:102350000F900FBE0FB6F8940F92E114F104A1F0A4
:10236000E0917111F0917211CE01880F991F880FC1
:10237000991FE80FF91F87A590A9A1A9B2A9F70194
:1023800080839183A283B383E0917111F0917211E4
:10239000EC0FFD1F83A98230E9F4E0917111F091F7
:1023A0007211CE01880F991F880F991FE80FF91F2E
:1023B00087A590A9A1A9B2A9409450946094709463
:1023C000482259226A227B2247A650AA61AA72AAF1
:1023D00081E001C080E02091711130917211C20F33
:1023E000D31F1BAA0F900FBEDF91CF911F910F91AA
:1023F000FF90EF90DF90CF90BF90AF907F906F9065
:102400005F904F9008958F929F92AF92BF92EF92FC
:10241000FF920F93CF93DF93DC010FB6F8940F92E6
:10242000E114F10489F0E62FF0E0EE0FFF1FEE0F4C
:10243000FF1FE80FF91F87A490A8A1A8B2A8F70171
:1024400080829182A282B38270E0FD01E60FF71FC5
:1024500083A992E093AB023001F118F4013031F01E
:102460004DC0033079F10430D1F148C0660F771FB9
:10247000660F771FFD01E60FF71F87A490A8A1A89C
:10248000B2A8BA01A901482959296A297B2947A775
:1024900050AB61AB72AB01E034C0660F771F660FC3
:1024A000771FFD01E60FF71F47A550A961A972A983
:1024B0004F5F5F4F6F4F7F4F47A750AB61AB72AB22
:1024C00001E01FC0660F771F660F771FFD01E60F43
:1024D000F71F27A730AB41AB52AB01E012C08230EF
:1024E00079F0660F771F660F771FFD01E60FF71F64
:1024F00027A730AB41AB52AB01E003C001E001C004
:1025000000E0813009F069C01C96ED91FC911D97A7
:102510001696CD91DC91179718968D919C911997ED
:102520009F838E831896CD91DC91199716968D9185
:102530009C9117979D838C83818192819D012E5F51
:102540003F4F8217930731F418968D919C911997FC
:10255000928381831D961C921E921C9780818150CC
:1025600080835A96EC915A978091C1108E1710F47F
:10257000E093C1108BE08E9FF0011124ED5FFE4EC1
:102580000180F281E02D1796FC93EE931697468119
:10259000578119965C934E931897C681D7813D83D6
:1025A0002C83378326835A96EC915A978E9FF0019D
:1025B0001124ED5FFE4E1D96FC93EE931C978081D7
:1025C0008F5F80835A969C91E0917111F091721106
:1025D000828D891710F40E94EF020F900FBE802F9A
:1025E000DF91CF910F91FF90EF90BF90AF909F90B0
:1025F0008F9008958F929F92AF92BF92CF92DF9269
:10260000EF92FF920F93CF93DF93DC01E114F1047B
:1026100089F0E62FF0E0EE0FFF1FEE0FFF1FE80F2F
:10262000F91F87A490A8A1A8B2A8F701808291827F
:10263000A282B38270E0FD01E60FF71F93A982E04A
:1026400083AB023001F118F4013031F04DC003309A
:1026500079F10430D1F148C0660F771F660F771FFC
:10266000FD01E60FF71F87A490A8A1A8B2A8BA01A0
:10267000A901482959296A297B2947A750AB61AB91
:1026800072AB81E034C0660F771F660F771FFD01C4
:10269000E60FF71F47A550A961A972A94F5F5F4FC9
:1026A0006F4F7F4F47A750AB61AB72AB81E01FC04C
:1026B000660F771F660F771FFD01E60FF71F27A72D
:1026C00030AB41AB52AB81E012C0923079F0660F73
:1026D000771F660F771FFD01E60FF71F27A730ABA7
:1026E00041AB52AB81E003C081E001C080E091309A
:1026F00009F096C09091B21091115FC01C96ED91B7
:10270000FC911D971696CD91DC91179718962D91F7
:102710003C9119973F832E831896CD91DC911997A0
:1027200016962D913C9117973D832C8341815281C0
:102730009D012E5F3F4F4217530731F418964D917C
:102740005C911997528341831D961C921E921C978F
:102750009081915090835A96EC915A979091C11024
:102760009E1710F4E093C1109BE09E9FF00111248E
:10277000ED5FFE4E0180F281E02D1796FC93EE9303
:1027800016974681578119965C934E931897C68188
:10279000D7813D832C83378326835A96EC915A97B1
:1027A0009E9FF0011124ED5FFE4E1D96FC93EE936B
:1027B0001C9790819F5F908321C06EED70E1FB01BB
:1027C000C181D2815396DC93CE9352972E813F8163
:1027D00055963C932E9354974E815F819D01225FC5
:1027E0003F4FFA01358324833F832E8359967C9390
:1027F0006E935897FB0190819F5F90835A962C911E
:10280000E0917111F0917211928D921748F4C114F8
:10281000D10419F091E0F601908391E09093BB1000
:10282000DF91CF910F91FF90EF90DF90CF90BF900D
:10283000AF909F908F900895009721F4809171112F
:10284000909172110FB6F8940F9270E0FC01E60FB0
:10285000F71F23A9223031F4FC01E60FF71F13AA5A
:1028600081E001C080E00F900FBE0895DC01E0918F
:102870007D11F0917E11808191E0811190E09C9317
:10288000911108C00780F085E02D608171818281FF
:102890009381089560E070E0CB010895CF92DF92BC
:1028A000EF92FF920F931F93FC0142835383648343
:1028B0007583938782870417150726073707C0F0AB
:1028C0000C191D092E093F0986859785A089B189B4
:1028D000081719072A073B0700F5BF016E5F7F4FF6
:1028E00080917B1190917C110E94360280E018C08B
:1028F0000C151D052E053F0528F44C155D056E05CC
:102900007F0568F4BF016E5F7F4F80917D119091CC
:102910007E110E94360280E003C081E001C081E0A8
:102920001F910F91FF90EF90DF90CF9008950FB619
:10293000F8940F928091791190917A11892BE9F492
:102940008AE891E10E9421028FE791E10E94210231
:102950008AE891E190937E1180937D118FE791E158
:1029600090937C1180937B1140E067E08AE00E94A5
:10297000D40490937A11809379110F900FBE08952B
:10298000EF92FF920F93D3DF8091791190917A119A
:10299000892B91F00F2EF7E7EF2EF1E1FF2EF02DAE
:1029A00003E020E030E040EC50E06CE772E086E8C5
:1029B00090E00E94D00B01C080E00F91FF90EF905B
:1029C00008958F929F92AF92BF92CF92DF92EF9233
:1029D000FF920F931F93CF93DF93CDB7DEB7279767
:1029E0000FB6F894DEBF0FBECDBFE0917911F09124
:1029F0007A11309781F169832A833B834C835D830D
:102A00009F838E836630F4F4EEDB823069F400E05D
:102A1000A7019601BE016F5F7F4F80917911909160
:102A20007A110E94F70418C000E020E030E0A9010C
:102A3000BE016F5F7F4F8091791190917A110E9452
:102A4000F7040AC020E0A801BE016F5F7F4FCF01ED
:102A50000E94A70501C080E027960FB6F894DEBF5C
:102A60000FBECDBFDF91CF911F910F91FF90EF90DF
:102A7000DF90CF90BF90AF909F908F9008958F92EE
:102A80009F92AF92BF92CF92DF92EF92FF920F93FD
:102A90001F93CF93DF933BC00780F085E02D8080AC
:102AA0009180A280B380C085D1858E010E5F1F4FBB
:102AB000C8010E947302EC89FD89CE0119958E89A7
:102AC00082FF25C08E859F85A889B989880D991DAB
:102AD000AA1DBB1D88169906AA06BB0670F48A8338
:102AE0009B83AC83BD83DB87CA87B80180917D114E
:102AF00090917E110E9436020AC0C12CD12C760121
:102B000000E010E0A501940160E0CE015ADFE09101
:102B10007D11F0917E1180818111BECF80917B115A
:102B200090917C1190937E1180937D11F0937C1194
:102B3000E0937B11DF91CF911F910F91FF90EF9068
:102B4000DF90CF90BF90AF909F908F900895CF92DD
:102B5000DF92EF92FF92CF93DF93EC010E945A0C29
:102B60006B017C018091731190917411A09175118A
:102B7000B0917611C816D906EA06FB0620F47FDF6D
:102B800081E0888301C01882C0927311D0927411C1
:102B9000E0927511F0927611C701B601DF91CF91E5
:102BA000FF90EF90DF90CF9008954F925F926F92D9
:102BB0007F928F929F92AF92BF92CF92DF92EF92CD
:102BC000FF920F931F93CF93DF934B015C01290179
:102BD0003A01E0917D11F0917E110780F085E02DA2
:102BE000C085D185CE0102960E9473028E8982FF34
:102BF0001BC04E855F8568897989480D591D6A1DFE
:102C00007B1D7501640193018201CE0147DE88239B
:102C100069F0C12CD12C760100E010E0A5019401EF
:102C200060E0CE01CEDE02C08E7F8E8BEC89FD8906
:102C3000CE011995DF91CF911F910F91FF90EF90E9
:102C4000DF90CF90BF90AF909F908F907F906F90CC
:102C50005F904F9008958F929F92AF92BF92CF92C4
:102C6000DF92EF92FF921F93CF93DF931F92CDB726
:102C7000DEB76B017C01142F0E94540CCE0101962B
:102C800066DF4B015C01898181112DC011110DC0DE
:102C90008C149D04AE04BF0440F00E94940DA50165
:102CA0009401C701B60181DF20C0112341F0E091FA
:102CB0007B11F0917C11808111E0811110E0B7014E
:102CC000A601481959096A097B09212F80917911B8
:102CD00090917A110E9471060E94940D811105C095
:102CE0000E94EF0202C00E94940D0F90DF91CF91DD
:102CF0001F91FF90EF90DF90CF90BF90AF909F908B
:102D00008F900895AF92BF92CF92DF92EF92FF9291
:102D10000F931F93CF93DF93CDB7DEB728970FB6EE
:102D2000F894DEBF0FBECDBF82C0898188230CF42A
:102D30007EC0AE80BF80D5011C968D919C911D9761
:102D4000892B21F0C50102960E947302CE010896DC
:102D5000FEDE8B019C01E9810E2E000CFF0BEA3098
:102D6000F10508F064C08827EE58FF4F8F4F0C9490
:102D70002826F50186898160868BCA80DB80EC80FD
:102D8000FD8046855785608971894C0D5D1D6E1DDE
:102D90007F1DC50183DD882309F449C0D501549600
:102DA000ED91FC915597C5011995F501868982FF32
:102DB0003EC04A815B816C817D8186859785A08933
:102DC000B1899A01AB01280F391F4A1F5B1FC12C23
:102DD000D12C760100E010E060E0C501F2DD27C0F3
:102DE000D50156968C9156978E7F56968C931FC020
:102DF000F50186898160868B4A815B816C817D814A
:102E000046875787608B718B400F511F621F731F5E
:102E100068017901C50142DD0AC0F501868981FD9D
:102E200004C0C5010E94E40102C08E7F868B20E0B1
:102E300030E0A901BE016F5F7F4F809179119091C1
:102E40007A110E94E205811170CF28960FB6F8948E
:102E5000DEBF0FBECDBFDF91CF911F910F91FF90CD
:102E6000EF90DF90CF90BF90AF900895089584B118
:102E7000806884B985B1806885B9089583B1806818
:102E800083B90895F4DF2FEF80E792E0215080406E
:102E90009040E1F700C00000F1DFF5CFE8DF2FEF51
:102EA00087EA91E6215080409040E1F700C00000A1
:102EB000E5DFF5CF40E062E08FE00E94D40490931C
:102EC0005A138093591308950F93CF93DF931F9252
:102ED0001F92CDB7DEB79A83898300E02FEF3FEFD3
:102EE000A901BE016F5F7F4F8091591390915A13D2
:102EF0000E94F7040F900F90DF91CF910F910895EA
:102F0000CF93DF931F921F92CDB7DEB72FEF3FEF26
:102F1000A901BE016F5F7F4F8091591390915A13A1
:102F20000E94E20589819A810F900F90DF91CF91E5
:102F3000089540E062E08FE00E94D40490935C1317
:102F400080935B1308950F931F93CF93DF931F928A
:102F50001F92CDB7DEB7D4DF082F192F9F938F9321
:102F600084E892E09F938F930E94CE2761E070E007
:102F700082E090E00E9430269A838983FC010083DE
:102F8000118300E02FEF3FEFA901BE016F5F7F4F7C
:102F900080915B1390915C130E94F7040F900F9047
:102FA0000F900F900F900F90DF91CF911F910F9185
:102FB0000895CF93DF9381E00E949A2302D37ED5B8
:102FC0009F938F9385E992E09F938F930E94CE27E2
:102FD00076D474D59F938F9388EA92E09F938F93D2
:102FE0000E94CE278BEA91E1FED268D5CBEAD1E1EF
:102FF000DF93CF939F938F9381EC92E09F938F9376
:103000000E94CE27CE010BD359D59F938F93DF9388
:10301000CF9385ED92E09F938F930E94CE27AE01D0
:103020006AEE72E08DE093E028D548D59F938F93A8
:10303000DF93CF938AEE92E09F938F938DE093E09E
:103040009F938F938DE193E09F938F930E94CE2760
:1030500019D334D59F938F9383E593E09F938F93F8
:103060000E94CE278DB79EB782960FB6F8949EBF6A
:103070000FBE8DBF81E000D421D59F938F9382E650
:1030800093E09F938F930E94CE2784EF91E0FFD32C
:1030900015D59F938F9381E08F9384EF8F9383E86F
:1030A00093E09F938F930E94CE278DB79EB70A9689
:1030B0000FB6F8949EBF0FBE8DBFCAE080E0E8D285
:1030C000D82FFCD49F938F931F92CF9383EA93E0E2
:1030D0009F938F930E94CE270F900F900F900F9089
:1030E0000F900F90D83059F080E00E94FE2366E3E5
:1030F00071E080E090E00E94D50EC150F9F6D83022
:1031000021F481E00E94E02309C081E00E94EF23C6
:1031100080E00E94BD230E94EF02FDCFDF91CF919E
:103120000895CF93DF9300D01F92CDB7DEB781E033
:103130003AD262E070E080E090E00E94D50E80E03C
:1031400032D266E970E080E090E00E94D50EE4D1D2
:1031500030DFE5E9F1E186E0818382E080830E944F
:103160005A0C69837A838B839C8348EA58E460E035
:1031700070E0CE0101960E94700EE5E9F1E180E376
:10318000828389E3838382E0848383EA858384E086
:1031900086838AE1878383E00E94102465E971E1D8
:1031A00080E09FD28BD49F938F9383EC93E09F9387
:1031B0008F930E94CE270F900F900F900F90D5CF36
:1031C000EF92FF920F93E12CF12C082F20E030E0DA
:1031D00048E851E068ED73E081E998E10E94D00B86
:1031E0000F91FF90EF900895CF93DF9300D01F923F
:1031F000CDB7DEB70E945A0C69837A838B839C8398
:103200004FE150E060E070E0CE0101960E94700E48
:103210009ADEF6CFCF93DF9300D01F92CDB7DEB703
:103220000E945A0C69837A838B839C834EE350E01F
:1032300060E070E0CE0101960E94700E0E94BA001C
:10324000F5CFEF92FF920F9380915D1390915E13F3
:10325000892B89F481E00E949B0590935E138093F3
:103260005D13009741F000E020E030E0A90160E04C
:1032700070E00E94F704E12CF12C02E020E030E045
:1032800040EC50E06FED73E084EF98E10E94D00BCA
:1032900001E020E030E040EC50E065EE73E08AE0D1
:1032A00099E10E94D00B0F91FF90EF90089581B1AA
:1032B000816881B980E00E944522C3DF85E00E94D9
:1032C0004C2360E070E081E02ED183E079DF83E081
:1032D000D1D4F0DD2ECE0895EADF87EF93E00E948F
:1032E000E1270E941C0CFFCF0F931F93CF93DF9316
:1032F0001F921F92CDB7DEB78C0119822DC0E091CD
:103300007312EC3250F481E08E0F80937312F0E070
:10331000EB55FD4E8A81808302C0109273128A8120
:103320008A30D1F44091731250E0FA01ED55FD4E10
:103330001082415051099E012F5F3F4F65EA72E1B3
:1033400080917612909177120E94F50889818111FF
:103350000E94EF0210927312BE016E5F7F4FC80190
:10336000FED5882361F20F900F90DF91CF911F91CE
:103370000F9108950F931F93CF93DF938C01EB016F
:1033800080917612909177120E940208B8018FE026
:1033900092E10E94AF27209779F0EFE0F2E10190EF
:1033A0000020E9F7319780E290E091838083BE01AD
:1033B0008FE092E10E94A427EFE0F2E1DF010D909F
:1033C0000020E9F711978DE09AE011969C938E9377
:1033D00012961C9201900020E9F73197EF50F241CC
:1033E000AE2F8FE092E1AC016A2F8091781290911C
:1033F000791260D5811111C008E215E020E030E0BB
:103400004DE250E06FEF72E1809176129091771269
:103410000E9439098FEF92E102C080E090E0DF91D5
:10342000CF911F910F9108952F923F924F925F92EB
:103430006F927F928F929F92AF92BF92CF92DF92C4
:10344000EF92FF920F931F93CF93DF935C01FC01E8
:1034500001900020E9F731976F01C81AD90A5C2C56
:103460000F2EF2EA8F2EF6E09F2EF02DE12CF12C9C
:103470004C2C3701F40101811281E80109900020F0
:10348000E9F72197C01BD10B3C2EF9E0CF16D104F0
:1034900058F0F4012080FEE02F1206C0B801C501EB
:1034A0000E947F27892B09F5442D351408F44C2FF1
:1034B00050E0B801C5010E94B627892B49F4F301F9
:1034C000EE0FFF1FE60DF71DEE55F94F20800DC0E2
:1034D0008FEFE81AF80AE3E08E0E911CF1E1EF1687
:1034E000F10439F66894222424F8822DDF91CF91DB
:1034F0001F910F91FF90EF90DF90CF90BF90AF9012
:103500009F908F907F906F905F904F903F902F9003
:10351000089530DF89CF08958091761290917712C7
:103520000C94020808958F929F92AF92CF92EF92DF
:103530000F931F93CF93C82F8B0141E060E070E0A1
:1035400088EC90E00E94D0079093771280937612D7
:1035500010937512009374120F2EF4E78F2EF9E179
:103560009F2EF02D6894AA24A6F86894CC24C6F85F
:10357000E12C00E023E040E051EE60E070E08C2FB1
:10358000D2D39093791280937812E7E0F1E08081B2
:1035900080618083CF911F910F91EF90CF90AF907A
:1035A0009F908F900895882331F0E8E0F1E08081CA
:1035B0008F7E80830895E8E0F1E0808180618083E0
:1035C000089560E070E088E294E0D4DEEFEFF2E18D
:1035D00001900020E9F73197EF5FF24181E07597A4
:1035E00008F080E00895CF93DF93EC0160E070E095
:1035F00089E394E0BFDEEFEFF2E101900020E9F70C
:10360000E051F34139F46FEF72E1CE010E94AF2730
:1036100080E002C0188281E0DF91CF910895FC0123
:1036200001900020E9F79F0121513109281739073E
:1036300029F4BC0187E694E06CCF089589E00895F1
:10364000FC0101900020E9F79F0121513109281761
:10365000390729F4BC0186E794E05BCF089589E03F
:103660000895FC0101900020E9F79F0121523109E2
:103670002817390729F4BC0185E894E04ACF08955A
:1036800089E0089560E070E084EC94E042CF089512
:103690000F931F93E82FF0E0EE0FFF1FE256F94F54
:1036A000608171818DEC94E034DF811114C008E2F7
:1036B00015E020E030E04DE250E06FEF72E18091E4
:1036C0007612909177120E943909882321F08FEFAA
:1036D00092E1AADE03C08FEF92E1A6DE1F910F9167
:1036E00008950F931F93CF93DF931F92CDB7DEB74B
:1036F000DB0111969C911197953108F0B4C0992384
:1037000081F160E070E0272F30E0462F50E0FD01AE
:10371000E40FF51F928192959F709A3010F0995C9A
:1037200001C0905DF901E057FD4E90832F5F3F4F40
:10373000FD01E40FF51F92819F70492F50E04A3040
:10374000510514F0995C01C0905DF901E057FD4E00
:1037500090837E5F6F5F11969C911197691798F225
:1037600001C070E0E72FF0E0E057FD4E10824C9171
:10377000811103C086ED94E002C088ED94E020E959
:1037800032E13F932F931F924F939F938F938CED32
:1037900094E09F938F9382ED92E19F938F930E9489
:1037A000112860E070E082ED92E1B3DE0FB6F8948C
:1037B000DEBF0FBECDBF811159C008E215E020E089
:1037C00030E04DE250E06FEF72E18091761290911F
:1037D00077120E943909882309F447C08FEF92E1DC
:1037E00023DE8E3009F042C087E089838091741215
:1037F00090917512892BA9F1BE016F5F7F4F8FEFFA
:1038000092E168D180937A12E981F0E0E150FD4EB7
:10381000DF010D900020E9F71197AE1BBF0BAA2323
:1038200091F0BB27CD0101979C0112F42F5F3F4F10
:103830003595279520937B12AF014F5F5F4F64E171
:103840008CE792E173D101E010E020E030E046E146
:1038500050E06AE772E180917412909175120E94B3
:1038600032088EE003C084E101C080E00F90DF9158
:10387000CF911F910F910895813019F06CEE74E093
:1038800002C065EC75E080EF94E043CE08959F930D
:103890008F9381E295E09F938F9382ED92E19F93C6
:1038A0008F930E94112860E070E082ED92E131DE9A
:1038B0000F900F900F900F900F900F9008952F92F0
:1038C0003F924F925F926F927F928F929F92AF92B0
:1038D000BF92CF92DF92EF92FF920F931F93CF93FD
:1038E000DF93CDB7DEB7A0970FB6F894DEBF0FBE5B
:1038F000CDBF6EE475E08AE595E03CDD95DD811194
:10390000A3C080E2EDE1F2E0DE01119601900D929C
:103910008A95E1F79E012F5F3F4F6901E12CF12C61
:103920000F2EF6E6AF2EF5E0BF2EF02D02ED12E1E0
:103930000F2EFFE74F2EF5E05F2EF02D0F2EF6E94C
:103940008F2EF5E09F2EF02D0F2EF0EB6F2EF5E071
:103950007F2EF02D3E2C2F2CFF92EF92BF92AF9234
:103960001F930F930E94112860E070E0C80102DDF0
:103970005BDD0F900F900F900F900F900F908111C3
:1039800063C032E03E15E8F4F60183818F938281B3
:103990008F9381818F9380818F93FF92EF925F92BB
:1039A0004F921F930F930E94112860E070E0C801AE
:1039B000E1DC3ADD0FB6F894DEBF0FBECDBF81115A
:1039C00043C02F923F929F928F921F930F930E941A
:1039D000112860E070E0C801CDDC26DD0F900F906B
:1039E0000F900F900F900F9081112EC02F923F9249
:1039F0007F926F921F930F930E94112860E070E0F6
:103A0000C801B8DC11DD0F900F900F900F900F9050
:103A10000F90811119C03FEFE31AF30A84E0C80E3A
:103A2000D11C98E0E916F10409F094CF60E070E051
:103A300088EC95E09FDCF8DC811106C060E070E066
:103A400089ED95E097DCF0DCA0960FB6F894DEBF28
:103A50000FBECDBFDF91CF911F910F91FF90EF90DF
:103A6000DF90CF90BF90AF909F908F907F906F909E
:103A70005F904F903F902F900895EF92FF920F9399
:103A80001F93CF93DF93EC018B017A0181E0F4DE89
:103A900081110DC0CE01D4DD811109C0C801E1DD65
:103AA000811105C0C701BBDD811101C0EBDDDF91D4
:103AB000CF911F910F91FF90EF90089590E0FC013E
:103AC000EE0FFF1F8E0F9F1FFC01EE55F94F8181F6
:103AD00092810895DC01009729F1FB012081FC010E
:103AE00001900020E9F73197E81BF90B822F90E055
:103AF000E817F907C8F080E008C0880F382F330FA7
:103B0000330F830F8053890F2F5FFD01E20FF11DEB
:103B1000908130ED390F3A3010F49111EECFFB0166
:103B20002083089580E0089580E008950F931F9307
:103B3000CF93DF93DC01EA012097E1F1FA010190D4
:103B40000020E9F73197E41BF50B329710F532C0EE
:103B50008D01040F151F30E0AE01420F531FFA0113
:103B60009081913428F09753592F5295507F03C07C
:103B7000592F5295507F2C0F3D1FF901918191349F
:103B800010F0975301C09053950FF80190838F5F09
:103B900001C080E0282F220F482F50E0FE01019045
:103BA0000020E9F73197EC1BFD0B4E175F0710F46F
:103BB0008613CECFDF91CF911F910F910895809101
:103BC0002F13860F80932F1390913213913079F039
:103BD00028F09230A9F0933019F108956F3F09F061
:103BE00048C010922F1381E08093321308956638F5
:103BF00009F03FC010922E1382E080933213089593
:103C0000E0912E1381E08E0F80932E13F0E0E45D9F
:103C1000FC4E6083823069F583E08093321308950F
:103C200090912E1321E0290F20932E13963009F541
:103C300081110EC0ECE2F3E1808190E0982F88279B
:103C40002181820F911D909334138093331304C00C
:103C5000109234131092331310923213E0913013F8
:103C6000F0913113309729F08091331390913413F0
:103C7000199508958F929F92AF92CF92EF920F93E2
:103C80000F2EFFED8F2EFDE19F2EF02D6894AA24BC
:103C9000A4F86894CC24C4F8E12C00E023E040E8C8
:103CA00055E260E070E03FD0909336138093351377
:103CB0000F91EF90CF90AF909F908F900895909339
:103CC0003113809330130895CF93DF93CDB7DEB7D0
:103CD00029970FB6F894DEBF0FBECDBF89E0EDE3A4
:103CE000F2E09E012F5F3F4FD90101900D928A951E
:103CF000E1F71092341310923313809135139091A1
:103D00003613009731F0422F532F69E0D3D080E073
:103D100001C082E029960FB6F894DEBF0FBECDBF7A
:103D2000DF91CF9108952F923F924F925F926F92C1
:103D30007F928F929F92AF92CF92EF92FF920F93CA
:103D40001F93CF93DF93CDB7DEB7F82E2A013B0147
:103D500088E090E09FD78C018F2D90E0FC01EE0F62
:103D6000FF1FE95CFC4E118300830115110509F466
:103D700064C0880F991FFC01E95FFD4F808191812C
:103D8000D8018D939C936C2D70E084E090E068D70F
:103D90001C0161E070E086E090E062D77C014C2D70
:103DA000B10150D5F801F582E4826A2D70E084E01B
:103DB00090E056D71C0161E070E086E090E050D7BB
:103DC0007C014A2DB1013ED5D8011396FC92EE92AA
:103DD000129717969C928E921697FFB6F894ED91D3
:103DE000FC91119736978081826080838D909C90A2
:103DF000C301B2013CD620E030E040E051E4C5D63A
:103E00009B01AC0160E074E284E79BE49CD520E078
:103E100030E040E85FE332D5FED5F40132976083AD
:103E2000D801ED91FC911197359788E98083ED9148
:103E3000FC91349786E08083FFBEC801DF91CF916B
:103E40001F910F91FF90EF90CF90AF909F908F9028
:103E50007F906F905F904F903F902F900895CF93F9
:103E6000DF93DC01892B01F11296ED91FC91139700
:103E7000938182812581981B922384819817B1F0C8
:103E8000838126952823C081D181C20FD11D6883EB
:103E90008F5F958189238383ED91FC913597808194
:103EA0008062808380E003C081E001C082E0DF9116
:103EB000CF910895EF92FF920F931F93CF93DF93CB
:103EC0007C01009709F441C0DC011296ED91FC9150
:103ED000139793818281981B858198238481891B04
:103EE0008617A8F1662341F1842F952FDC016150DC
:103EF000462F50E04F5F5F4F480F591FE701EA819F
:103F0000FB81938182812581981B9223848198175C
:103F100079F08C91938126952923608171818B01A1
:103F2000020F111DE80188839F5F85819823938389
:103F30001196A417B50711F7D701ED91FC913597AC
:103F400080818062808380E003C081E001C082E0E4
:103F5000DF91CF911F910F91FF90EF9008950097FF
:103F6000D1F0DC011496ED91FC911597938182813B
:103F7000981799F09281858186958923A081B181D6
:103F8000A80FB11D8C91DB018C939F5F85819823D5
:103F9000928380E0089581E0089583E008951F9260
:103FA0000F920FB60F9211240BB60F922F933F93DF
:103FB0004F935F936F937F938F939F93AF93BF9331
:103FC000CF93DF93EF93FF93A0913713B091381302
:103FD000109711F16091C6001496ED91FC91159720
:103FE000938182812581981B92238481981761F0A7
:103FF000838126952823C081D181C20FD11D68837A
:104000008F5F9581892383831696ED91FC91179795
:10401000309711F0CD011995FF91EF91DF91CF917C
:10402000BF91AF919F918F917F916F915F914F91D0
:104030003F912F910F900BBE0F900FBE0F901F90CE
:1040400018951F920F920FB60F9211240BB60F9274
:104050002F938F939F93AF93BF93EF93FF93E09131
:104060003713F09138133097B9F00280F381E02DC7
:10407000938182819817B1F092818581282F2695AE
:104080002923A081B181A20FB11D2C919F5F8923AB
:1040900082832093C6000BC0E1ECF0E080818F7D2D
:1040A000808305C0E1ECF0E080818F7D8083FF910B
:1040B000EF91BF91AF919F918F912F910F900BBE78
:1040C0000F900FBE0F901F9018951F920F920FB672
:1040D0000F9211240BB60F922F933F934F935F9340
:1040E0006F937F938F939F93AF93BF93CF93DF9300
:1040F000EF93FF93A0913913B0913A13109711F1F8
:104100006091CE001496ED91FC9115979381828178
:104110002581981B92238481981761F083812695CD
:104120002823C081D181C20FD11D68838F5F958103
:10413000892383831696ED91FC911797309711F0A0
:10414000CD011995FF91EF91DF91CF91BF91AF9183
:104150009F918F917F916F915F914F913F912F919F
:104160000F900BBE0F900FBE0F901F9018951F92CF
:104170000F920FB60F9211240BB60F922F938F93BD
:104180009F93AF93BF93EF93FF93E0913913F09117
:104190003A133097B9F00280F381E02D9381828148
:1041A0009817B1F092818581282F26952923A08127
:1041B000B181A20FB11D2C919F5F8923828320932F
:1041C000CE000BC0E9ECF0E080818F7D808305C0DC
:1041D000E9ECF0E080818F7D8083FF91EF91BF91CA
:1041E000AF919F918F912F910F900BBE0F900FBEAB
:1041F0000F901F9018951F920F920FB60F921124D7
:104200000BB60F922F933F934F935F936F937F93D0
:104210008F939F93AF93BF93CF93DF93EF93FF93CE
:10422000A0913B13B0913C13109711F16091D6000F
:104230001496ED91FC911597938182812581981BAD
:1042400092238481981761F0838126952823C08169
:10425000D181C20FD11D68838F5F958189238383AC
:104260001696ED91FC911797309711F0CD011995A5
:10427000FF91EF91DF91CF91BF91AF919F918F917E
:104280007F916F915F914F913F912F910F900BBE56
:104290000F900FBE0F901F9018951F920F920FB6A0
:1042A0000F9211240BB60F922F938F939F93AF937E
:1042B000BF93EF93FF93E0913B13F0913C13309742
:1042C000B9F00280F381E02D938182819817B1F0DB
:1042D00092818581282F26952923A081B181A20F63
:1042E000B11D2C919F5F892382832093D6000BC040
:1042F000E1EDF0E080818F7D808305C0E1EDF0E0AD
:1043000080818F7D8083FF91EF91BF91AF919F91CD
:104310008F912F910F900BBE0F900FBE0F901F909B
:1043200018951F920F920FB60F9211240BB60F9291
:104330002F933F934F935F936F937F938F939F93AD
:10434000AF93BF93CF93DF93EF93FF93A0913D1370
:10435000B0913E13109711F1609136011496ED91D2
:10436000FC911597938182812581981B92238481EA
:10437000981761F0838126952823C081D181C20FCF
:10438000D11D68838F5F9581892383831696ED9174
:10439000FC911797309711F0CD011995FF91EF918E
:1043A000DF91CF91BF91AF919F918F917F916F914D
:1043B0005F914F913F912F910F900BBE0F900FBEC9
:1043C0000F901F9018951F920F920FB60F92112405
:1043D0000BB60F922F938F939F93AF93BF93EF934F
:1043E000FF93E0913D13F0913E133097B9F00280B6
:1043F000F381E02D938182819817B1F092818581BC
:10440000282F26952923A081B181A20FB11D2C91BF
:104410009F5F89238283209336010BC0E1E3F1E0A3
:1044200080818F7D808305C0E1E3F1E080818F7D15
:104430008083FF91EF91BF91AF919F918F912F91C9
:104440000F900BBE0F900FBE0F901F901895CF933B
:10445000DF931F92CDB7DEB7BE016F5F7F4F8091B4
:104460003F13909140137BDD8111F6CF898190E05D
:104470000F90DF91CF910895682F80913F13909115
:104480004013EDDC80E090E008958F929F92AF9210
:10449000CF92EF920F93812C912C6894AA24A7F8C5
:1044A0006894CC24C7F8E12C00E023E040E051EE12
:1044B00060E070E038DC9093401380933F13E3E6B4
:1044C000F3E18FE092E091838083938382830F9165
:1044D000EF90CF90AF909F908F90089590E0FC0167
:1044E000EE0FFF1FE80FF91FEE0FFF1FEF5BFC4EF3
:1044F000238121111FC09C01220F331FF901E80FF6
:10450000F91FEE0FFF1FEF5BFC4EA081B1814C91B4
:10451000F901E80FF91FEE0FFF1FEF5BFC4E81E082
:1045200090E0028002C0880F991F0A94E2F7842B62
:104530008C930895FC01EE0FFF1FDF01A80FB91F38
:10454000AA0FBB1FAF5BBC4E0D90BC91A02D2C9150
:10455000E80FF91FEE0FFF1FEF5BFC4E81E090E0CC
:10456000028002C0880F991F0A94E2F78095822387
:104570008C93089590E0FC01EE0FFF1FE80FF91FE8
:10458000EE0FFF1FEF5BFC4E2381211120C09C0129
:10459000220F331FF901E80FF91FEE0FFF1FEF5B2A
:1045A000FC4EA081B1814C91F901E80FF91FEE0F8B
:1045B000FF1FEF5BFC4E81E090E0028002C0880F9D
:1045C000991F0A94E2F7809584238C930895FC0147
:1045D000EE0FFF1FDF01A80FB91FAA0FBB1FAF5BB4
:1045E000BC4E0D90BC91A02D2C91E80FF91FEE0F41
:1045F000FF1FEF5BFC4E81E090E0028002C0880F5D
:10460000991F0A94E2F7822B8C930895CC24C394CB
:10461000D12C6894BB24B2F8C1E4D3E110E08C81C2
:10462000813081F018F1823061F5E881F9812081D3
:10463000C6010A8002C0880F991F0A94E2F78227F8
:1046400080831FC08D818F5F8A3010F48D8319C0E5
:104650001D82E881F9812081C6010A8002C0880F8D
:10466000991F0A94E2F7822780830BC00D810023F3
:1046700029F0812F7FDF01500D8303C0BC82812F81
:104680002DDF1F5F2696143051F665E070E080E064
:1046900090E00E94D50EC0CFEF92FF920F931F9330
:1046A000CF93DF93082F80E487B9C1E4D3E10F2EC5
:1046B000F8E2EF2EF12CF02DF982E88286E08A8371
:1046C0001B8214E01C8380E009DF80E887B9FF8249
:1046D000EE8287E0888719861A8781E0FFDE80E214
:1046E00083BB84E390E09D878C8785E08E871F865F
:1046F000188B82E0F3DE80E18093010182E091E09B
:104700009B8B8A8B1C8B1D8A1E8B83E0E7DEE12C42
:10471000F12C20E030E040EC50E065ED76E086E002
:1047200093E20E94D00BDF91CF911F910F91FF90E8
:10473000EF900895CF93DF9390E0FC01EE0FFF1F01
:10474000DF01A80FB91FAA0FBB1FAF5BBC4ECD91F5
:10475000DC911197488121E030E012960C9012977D
:1047600002C0220F331F0A94E2F724272883FD0199
:1047700081E08483DF91CF910895CF93DF9390E020
:10478000FC01EE0FFF1FDF01A80FB91FAA0FBB1F0F
:10479000AF5BBC4ECD91DC911197488121E030E0B8
:1047A00012960C90129702C0220F331F0A94E2F760
:1047B00024272883FD0182E08483DF91CF9108952F
:1047C000282F30E0F901EE0FFF1FE20FF31FEE0F6D
:1047D000FF1FEF5BFC4E93E09483CCCE0895282F0F
:1047E00030E0F901EE0FFF1FE20FF31FEE0FFF1F86
:1047F000EF5BFC4E94E0948371CE089590E0FC0151
:10480000EE0FFF1FDF01A80FB91FAA0FBB1FAF5B81
:10481000BC4E24E015962C931597FD011482089543
:1048200090E0FC01EE0FFF1FDF01A80FB91FAA0FD8
:10483000BB1FAF5BBC4E21E015962C931597FD0175
:1048400014820895FC01411101C045D3842F90E0EA
:104850009C012150310982239323892B09F03BD3FA
:10486000413808F038D3128213824483440F4150F8
:1048700045837183608380E090E008955058BB27A2
:10488000AA270ED048C139D130F03ED120F031F402
:104890009F3F11F41EF42EC10EF4E095E7FB24C1F6
:1048A000E92F4AD180F3BA17620773078407950787
:1048B00018F071F49EF562C10EF4E0950B2EBA2F3C
:1048C000A02D0B01B90190010C01CA01A001112416
:1048D000FF27591B99F0593F50F4503E68F11A16C2
:1048E000F040A22F232F342F4427585FF3CF469553
:1048F00037952795A795F0405395C9F77EF41F1675
:10490000BA0B620B730B840BBAF09150A1F0FF0F3E
:10491000BB1F661F771F881FC2F70EC0BA0F621F2A
:10492000731F841F48F4879577956795B795F7951A
:104930009E3F08F0B3CF9395880F08F09927EE0FAC
:104940009795879508950CD0E6C0DED040F0D5D07D
:1049500030F021F45F3F19F0C7C0511110C1CAC037
:10496000EBD098F39923C9F35523B1F3951B550B5D
:10497000BB27AA2762177307840738F09F5F5F4F32
:10498000220F331F441FAA1FA9F333D00E2E3AF073
:10499000E0E830D091505040E695001CCAF729D08D
:1049A000FE2F27D0660F771F881FBB1F26173707DC
:1049B0004807AB07B0E809F0BB0B802DBF01FF270C
:1049C00093585F4F2AF09E3F510568F08DC0D7C0C5
:1049D0005F3FECF3983EDCF3869577956795B79546
:1049E000F7959F5FC9F7880F911D9695879597F961
:1049F0000895E1E0660F771F881FBB1F62177307DA
:104A00008407BA0720F0621B730B840BBA0BEE1FEE
:104A100088F7E095089598D088F09F5790F0B92FC7
:104A20009927B751A0F0D1F0660F771F881F991F03
:104A30001AF0BA95C9F712C0B13081F09FD0B1E039
:104A400008959CC0672F782F8827B85F39F0B93F49
:104A5000CCF3869577956795B395D9F73EF4909505
:104A60008095709561957F4F8F4F9F4F0895E89483
:104A700009C097FB3EF490958095709561957F4FA6
:104A80008F4F9F4F9923A9F0F92F96E9BB27939554
:104A9000F695879577956795B795F111F8CFFAF464
:104AA000BB0F11F460FF1BC06F5F7F4F8F4F9F4F95
:104AB00016C0882311F096E911C0772321F09EE8F3
:104AC000872F762F05C0662371F096E8862F70E059
:104AD00060E02AF09A95660F771F881FDAF7880F33
:104AE0009695879597F9089597F99F6780E870E004
:104AF00060E008959FEF80EC089500240A94161654
:104B0000170618060906089500240A9412161306BB
:104B1000140605060895092E0394000C11F4882349
:104B200052F0BB0F40F4BF2B11F460FF04C06F5F65
:104B30007F4F8F4F9F4F089557FD9058440F551F3B
:104B400059F05F3F71F04795880F97FB991F61F00F
:104B50009F3F79F087950895121613061406551F86
:104B6000F2CF4695F1DF08C0161617061806991FF2
:104B7000F1CF86957105610508940895E894BB27E7
:104B800066277727CB0197F908950BD0C4CFB5DFFF
:104B900028F0BADF18F0952309F0A6CFABCF112487
:104BA000EECFCADFA0F3959FD1F3950F50E0551FCC
:104BB000629FF001729FBB27F00DB11D639FAA2772
:104BC000F00DB11DAA1F649F6627B00DA11D661FC1
:104BD000829F2227B00DA11D621F739FB00DA11DE2
:104BE000621F839FA00D611D221F749F3327A00D9C
:104BF000611D231F849F600D211D822F762F6A2F38
:104C000011249F5750408AF0E1F088234AF0EE0FBC
:104C1000FF1FBB1F661F771F881F91505040A9F7C9
:104C20009E3F510570F060CFAACF5F3FECF3983EF6
:104C3000DCF3869577956795B795F795E7959F5F30
:104C4000C1F7FE2B880F911D9695879597F90895CA
:104C5000EE0FFF1F881F8BBF0790F691E02D199470
:104C60000F931F93CF93DF93869F8001879F100D33
:104C7000969F100D1124C8010DD0EC01009721F072
:104C8000A80160E070E034D1CE01DF91CF911F9197
:104C90000F9108950F931F93CF93DF938230910567
:104CA00010F482E090E0E0916113F091621320E053
:104CB00030E0A0E0B0E0309719F1408151810281ED
:104CC000138148175907C8F08417950769F410979E
:104CD00031F012960C93129713961C9327C00093F1
:104CE00061131093621322C02115310519F0421788
:104CF000530718F49A01BD01EF01DF01F801DBCF82
:104D000021153105F9F0281B390B2430310580F4C9
:104D10008A819B816115710521F0FB019383828358
:104D200004C09093621380936113FE01329644C0D5
:104D3000FE01E20FF31F81939193225031093983D1
:104D400028833AC020915F1330916013232B41F4E4
:104D500020910202309103023093601320935F137D
:104D600020910002309101022115310541F42DB747
:104D70003EB74091040250910502241B350BE0918F
:104D80005F13F0916013E217F307A0F42E1B3F0BA3
:104D90002817390778F0AC014E5F5F4F24173507AD
:104DA00048F04E0F5F1F5093601340935F13819341
:104DB000919302C0E0E0F0E0CF01DF91CF911F912D
:104DC0000F910895CF93DF93009709F481C0FC0100
:104DD000329713821282A0916113B09162131097DF
:104DE00081F420813181820F931F20915F133091D4
:104DF00060132817390751F5F0936013E0935F13A0
:104E000067C0ED0120E030E0CE17DF0740F44A81B3
:104E10005B819E0141155105F1F0EA01F5CFD38385
:104E2000C28340815181840F951FC817D90759F457
:104E300088819981840F951F0296918380838A814E
:104E40009B81938382832115310529F4F0936213AA
:104E5000E09361133DC0E901FB83EA8349915991D5
:104E6000C40FD51FEC17FD0761F480819181840F79
:104E7000951F0296E90199838883828193819B83A0
:104E80008A83E0E0F0E012968D919C911397009751
:104E900019F0FD01DC01F7CF8D919C9111979D01D7
:104EA0002E5F3F4F820F931F20915F13309160134D
:104EB0002817390769F4309729F410926213109279
:104EC000611302C013821282B0936013A0935F1328
:104ED000DF91CF91089581E090E0F8947DC3FB01CC
:104EE000DC0102C001900D9241505040D8F7089566
:104EF000DC0101C06D9341505040E0F70895FB0183
:104F000051915523B1F0BF01DC01052E4D91442391
:104F100069F010D0D9F7CD010190002049F04D91F2
:104F2000411108D0C9F3FB014111EECF81E090E0BF
:104F300001970895402539F0403229F440294B5714
:104F4000465E08F018940895FB01DC010D900020E6
:104F5000E9F7119701900D920020E1F70895FB0108
:104F6000DC0101900D920020E1F70895FB01DC01C6
:104F70004150504088F08D9181341CF08B350CF4F9
:104F8000805E619161341CF06B350CF4605E861BB1
:104F9000611171F3990B0895881BFCCFCF93DF93B8
:104FA000CDB7DEB7AE014A5F5F4FFA0161917191F3
:104FB000AF01809165139091661361D0DF91CF911D
:104FC00008950F931F93CF93DF93E0916513F091B2
:104FD0006613238121FF1BC08C01D0E0C0E0F801E3
:104FE00081918F016091651370916613DB011896B2
:104FF000ED91FC911997882331F01995892B79F35C
:10500000DFEFCFEFECCF8AE01995892B19F08FEF06
:105010009FEF02C08D2F9C2FDF91CF911F910F9199
:1050200008950F931F93CF93DF93CDB7DEB72E97DD
:105030000FB6F894DEBF0FBECDBF0E891F8986E084
:105040008C831A8309838FEF9FE79E838D83AE0144
:10505000465E5F4F688D798DCE01019610D0EF814D
:10506000F885E00FF11F10822E960FB6F894DEBF80
:105070000FBECDBFDF91CF911F910F9108952F9259
:105080003F924F925F926F927F928F929F92AF92D8
:10509000BF92CF92DF92EF92FF920F931F93CF9325
:1050A000DF93CDB7DEB72B970FB6F894DEBF0FBEF8
:1050B000CDBF6C017B018A01FC01178216828381BE
:1050C00081FFBFC1CE0101963C01F6019381F7013A
:1050D00093FD859193FF81917F01882309F4ADC1F0
:1050E000853239F493FD859193FF81917F0185325B
:1050F00021F4B60190E0D6D1E8CF912C212C312CAF
:10510000FFE1F315D8F08B3279F038F4803279F082
:105110008332A1F4232D20611DC08D3261F08033D4
:1051200069F4232D216016C0832D8260382EE32D73
:10513000E4603E2E2AC0F32DF8601DC037FC2DC060
:1051400020ED280F2A3040F08E32B9F436FC75C1BC
:10515000232D2064322E19C036FE06C08AE0989EA8
:10516000200D1124922E11C0EAE02E9E200D112454
:10517000222EF32DF0623F2E08C08C3621F4832DB1
:105180008068382E02C0883641F4F70193FD85917E
:1051900093FF81917F018111B3CF982F9F7D95540B
:1051A000933028F40C5F1F4F9FE399830DC0833623
:1051B00031F0833771F0833509F055C020C0F80114
:1051C000808189830E5F1F4F88248394912C530123
:1051D00012C02801F2E04F0E511CF801A080B180EE
:1051E00036FE03C0692D70E002C06FEF7FEFC5018E
:1051F0004ED14C018201F32DFF773F2E15C02801BF
:1052000022E0420E511CF801A080B18036FE03C09E
:10521000692D70E002C06FEF7FEFC5012DD14C0109
:10522000F32DF0683F2E820133FC19C0822D90E0EF
:1052300088169906A0F4B60180E290E033D12A9452
:10524000F5CFF50137FC859137FE81915F01B601FD
:1052500090E028D121102A9421E0821A910881142B
:10526000910479F7E1C0843611F0893639F5F801F7
:1052700037FE07C060817181828193810C5F1F4F6F
:1052800008C060817181072E000C880B990B0E5F9E
:105290001F4FF32DFF763F2E97FF09C09095809505
:1052A000709561957F4F8F4F9F4FF0683F2E2AE09A
:1052B00030E0A30133D1882E861844C0853731F4FD
:1052C000232D2F7EB22E2AE030E025C0932D997F2A
:1052D000B92E8F36C1F018F4883579F0AEC080371A
:1052E00019F0883721F0A9C0E92FE061BE2EB4FE85
:1052F0000DC0FB2DF460BF2E09C034FE0AC0292F5B
:105300002660B22E06C028E030E005C020E130E083
:1053100002C020E132E0F801B7FE07C06081718170
:10532000828193810C5F1F4F06C06081718180E094
:1053300090E00E5F1F4FA301F1D0882E8618FB2D41
:10534000FF773F2E36FE0DC0232D2E7FA22E89140F
:1053500058F434FE0BC032FC09C0832D8E7EA82E7B
:1053600005C0B82CA32C03C0B82C01C0B92CA4FED6
:105370000FC0FE01E80DF11D8081803321F49A2DCC
:10538000997EA92E09C0A2FE06C0B394B39404C0AE
:105390008A2D867809F0B394A3FC10C0A0FE06C045
:1053A000B21480F4280C922C9B180DC0B21458F43F
:1053B000B60180E290E076D0B394F8CFB21418F43E
:1053C0002B1802C0982C212CA4FE0FC0B60180E33C
:1053D00090E068D0A2FE16C0A1FC03C088E790E070
:1053E00002C088E590E0B6010CC08A2D867851F0A5
:1053F000A1FE02C08BE201C080E2A7FC8DE2B601F3
:1054000090E050D0891430F4B60180E390E04AD0A7
:105410009A94F8CF8A94F301E80DF11D8081B601CA
:1054200090E040D08110F6CF222009F44ECEB60194
:1054300080E290E037D02A94F7CFF60186819781F9
:1054400002C08FEF9FEF2B960FB6F894DEBF0FBE12
:10545000CDBFDF91CF911F910F91FF90EF90DF9023
:10546000CF90BF90AF909F908F907F906F905F9004
:105470004F903F902F900895FC010590615070402F
:105480000110D8F7809590958E0F9F1F0895FC010D
:105490006150704001900110D8F7809590958E0F63
:1054A0009F1F08950F931F93CF93DF93FB012381D9
:1054B00021FD03C08FEF9FEF2CC022FF16C0468155
:1054C0005781248135814217530744F4A081B1816B
:1054D0009D012F5F3F4F318320838C93268137813D
:1054E0002F5F3F4F3783268314C08B01EC01FB01F4
:1054F0000084F185E02D1995892BE1F6D8011696E7
:105500008D919C911797019617969C938E93169761
:10551000CE01DF91CF911F910F910895FA01AA2733
:10552000283051F1203181F1E8946F936E7F6E5FE6
:105530007F4F8F4F9F4FAF4FB1E03ED0B4E03CD094
:10554000670F781F891F9A1FA11D680F791F8A1F77
:10555000911DA11D6A0F711D811D911DA11D20D0DE
:1055600009F468943F912AE0269F11243019305D98
:105570003193DEF6CF010895462F4770405D419389
:10558000B3E00FD0C9F7F6CF462F4F70405D4A33D6
:1055900018F0495D31FD4052419302D0A9F7EACF9E
:1055A000B4E0A6959795879577956795BA95C9F7CD
:1055B00000976105710508959B01AC010A2E0694C0
:1055C0005795479537952795BA95C9F7620F731F79
:0C55D000841F951FA01D0895F894FFCFC4
:1055DC0000006913200009C600CE00D60036010079
:1055EC00000003000000003C2227220000A027BE80
:1055FC0033E034C1332042C43360E5AE33A0F2B1A2
:10560C0033E0FFB433200DB833601ABB33FF01868F
:10561C00000000000079FF0179A000000000E6FF07
:10562C000179000000000086FF01870000000000E7
:10563C0078FF018800000000000064657420676931
:10564C006B2067616C740049444C4500546D7220AA
:10565C0053766300434F322050504D3A202564203E
:10566C00736C757400466163746F727952657365FF
:10567C0074203E25733C0A00436F6E666967757231
:10568C006520746F204555383638203E25733C0A0A
:10569C0000476574204857455549203E25733C3AD0
:1056AC002025730A00536574204465764555493AA4
:1056BC00202573203E25733C0A00595959595959D4
:1056CC00595959595959595959595959595959593E
:1056DC00595959595959595959595959005858588A
:1056EC005858585858585858585858580053657462
:1056FC00204F544141204964656E7469747920616E
:10570C0070704555493A2573206170704B45593A74
:10571C002573206465764555493A2573203E2573DB
:10572C003C0A0053617665206D6163203E25733C15
:10573C000A00536574204164617074697665204475
:10574C0061746120526174653A204F4E203E25737E
:10575C003C0A005365742052656365697665722056
:10576C0044656C61793A202564206D73203E257365
:10577C003C0A004A6F696E204E6574776F726B201D
:10578C0054726965734C6566743A2564203E2573C2
:10579C003C0A0055706C6F6164204D6573736167D2
:1057AC0065203E25733C0A004C5248616E640054DF
:1057BC0061736B31005461736B320050504D206932
:1057CC0073202564200A0050726F6772616D20533C
:1057DC00746172746564212100737973207265732E
:1057EC006574006D6163207061757365006D616334
:1057FC0020726573756D65007379732066616374CF
:10580C006F727952455345540073797320676574F0
:10581C00206877657569006D616320676574206722
:10582C00776E62006D616320736574206C696E6BBA
:10583C0063686B202564006D61632073657420645C
:10584C006576657569006D616320736574206170A0
:10585C0070657569006D616320736574206170708B
:10586C006B6579006D616320736574206E776B7363
:10587C006B6579006D616320736574206170707362
:10588C006B6579006D616320736574206465766166
:10589C00646472006D61632073617665006D616391
:1058AC00206A6F696E00756E636E66006D616320B1
:1058BC007478202573202564202573006F6666009C
:1058CC006D61632073657420616472006D61632087
:1058DC0067657420616472006D6163207365742068
:1058EC006472202564006D616320676574206472A6
:1058FC00006D61632073657420727864656C6179E6
:10590C0031202564006D6163207365742061722001
:10591C002573006D6163206765742061720033200C
:10592C00383639353235303030006D61632073656F
:10593C007420727832006D61632073657420636823
:10594C0020646379636C6520256420373939006DD8
:10595C00616320736574206368206672657120250D
:10596C006420256C75006D61632073657420636819
:10597C0020647272616E67652025642030203700C8
:10598C006D61632073657420636820737461747532
:10599C0073202564206F6E006D6163207365742025
:1059AC007077726964782031006D6163207365745F
:1059BC0020726574782037006F74616100616270C9
:1059CC00004B4559535F4E4F545F494E4954004E5E
:1059DC004F5F465245455F43480053494C454E5432
:1059EC000042555359004D41435F50415553454476
:1059FC000044454E494544004143434550544544B9
:105A0C0000494E56414C49445F504152414D004E65
:105A1C004F545F4A4F494E454400494E56414C49FC
:105A2C00445F444154415F4C454E004652414D4504
:105A3C005F434F554E5445525F4552525F52454A53
:105A4C004F494E5F4E4545444544004D41435F54DC
:105A5C00585F4F4B004D41435F5258004D41435FDF
:105A6C004552524F5200554E4B4E4F574E00E80583
:105A7C00ED0500820601900602F10503FF05040AFC
:105A8C000605110606160607210608280609310622
:105A9C000A3F060B4A060C5B060D7B060E85060FAD
:0E5AAC008C0610960648414C5F4C45440000A5
:00000001FF
