:10000000E5C0000004C1000002C1000000C1000002
:10001000FEC00000FCC00000FAC00000F8C00000F4
:10002000F6C00000F4C00000F2C00000F0C0000004
:100030006CC40000ECC00000EAC00000E8C0000092
:10004000E6C00000E4C00000E2C00000E0C0000024
:10005000DEC00000DCC00000DAC00000D8C0000034
:10006000D6C000000C9460250C94B225D0C00000CE
:10007000CEC00000CCC00000CAC00000C8C0000054
:10008000C6C00000C4C00000C2C00000C0C0000064
:100090000C94F6250C944826BAC000000C94942ABF
:1000A000B6C00000B4C00000B2C00000B0C0000084
:1000B000AEC00000ACC00000AAC00000A8C0000094
:1000C000A6C00000A4C00000A2C000000C948C26B2
:1000D0000C94DE269CC000000C9422270C947427FC
:1000E00096C000002F192F192F1966196E19831940
:1000F0002F192F1966196E19B62A262B262B262B97
:10010000262B262B262B262BB62A262B262B262BD8
:10011000262B262B262B262BB82A262B262B262BC6
:10012000262B262B262B262B262B262B262B262B47
:10013000262B262B262B262BB82A262B262B262BA6
:10014000262B262B262B262B262B262B262B262B27
:10015000262B262B262B262B222B262B262B262B1B
:10016000262B262B262B262BED2A262B262B262B41
:10017000262B262B262B262B262B262B262B262BF7
:10018000262B262B262B262BE12A262B262B262B2D
:10019000262B262B262B262B052B0E947F0C8091AD
:1001A000E312823008F0EBD20E94AC19F6CFCF9365
:1001B000DF931F92CDB7DEB7CE0101960E94AC1639
:1001C00049810E94A1180E94F818F6CF11241FBE81
:1001D000CFEFD1E2DEBFCDBF00E00CBF18E0A0E062
:1001E000B2E0E2E3F4E600E00BBF02C007900D923C
:1001F000AE3BB107D9F725E1AEEBB8E001C01D92E7
:10020000AD36B207E1F70E94021E0C941732F8CE09
:1002100040E066E085E0A8D49093EE148093ED145E
:100220000895CF92DF92EF92FF920F931F93CF9397
:10023000DF9300E010E0E12CF12CC12CD12CC0E0C8
:10024000D0E01FC00E941E1AC80ED91E61E070E0E7
:1002500080E090E00E944B100E94241BE80EF91EE3
:1002600061E070E080E090E00E944B100E94551B1E
:10027000080F191F61E070E080E090E00E944B10D1
:100280002196CA30D105F4F22196C601BE010E9422
:100290000A2D262F372FC701BE010E941E2D462F83
:1002A000F72EC801BE010E940A2DE7EEF4E120837B
:1002B00031834283F38264837583FF924F933F932C
:1002C0002F937F936F938FE692E09F938F930E947B
:1002D000F92E00E02FEF3FEFA90167EE74E1809166
:1002E000ED149091EE1463D48DB79EB708960FB6B7
:1002F000F8949EBF0FBE8DBFDF91CF911F910F91DC
:10030000FF90EF90DF90CF9008952AE030E040E03A
:1003100050E06FEE74E18091ED149091EE1414D5DD
:100320008FEE94E10895EAECF8E0AEECB8E0B1832A
:10033000A08313821282EEE8F2E1F093C908E09301
:10034000C808138212821182108280EC99E0139601
:100350009C938E931297ED93FC939093C508809392
:10036000C4089093C7088093C60880E090E89093F3
:10037000BF088093BE080895CF93DF93EC01AAECE9
:10038000B8E001C0DF01ED91FC911197EC17FD077A
:10039000C8F312968D919C9113979D01280F391FD8
:1003A000C217D30749F42A813B81820F931F13960A
:1003B0009C938E931297ED018A819B819E01280F59
:1003C000391FE217F307C1F42091C8083091C9081A
:1003D000E217F30771F022813381820F931F9B8311
:1003E0008A83ED91FC911197808191819983888313
:1003F00005C03983288302C0F983E883CA17DB0765
:1004000011F0CD93DC93DF91CF910895EF92FF929D
:100410000F931F93CF93DF938C010E94CA0D80919D
:10042000C8089091C908892B09F47DDF8091BE0826
:100430009091BF0880239123892B09F076C0011584
:10044000110549F0C80104960817190718F000E0D3
:1004500010E001C08C010115110509F469C08091FB
:10046000C6089091C7088017910708F464C0C0912E
:10047000CA08D091CB08EAECF8E002C0FE01EC011A
:100480008A819B818017910720F488819981009748
:10049000A9F78091C8089091C908C817D90709F42D
:1004A0004DC0E080F18084E0E80EF11C88819981E4
:1004B000918380832A813B81201B310B29303105B8
:1004C00048F0CE01800F911FFC01338322831B83F0
:1004D0000A8352DF2A813B818091C6089091C70828
:1004E000821B930B9093C7088093C6084091C40861
:1004F0005091C5088417950720F49093C508809300
:10050000C4088091BE089091BF08282B392B3B83EB
:100510002A83198218828091C2089091C30801969B
:100520009093C3088093C2080BC0E12CF12C08C043
:10053000E12CF12C05C0E12CF12C02C0E12CF12CB6
:100540000E940A0FE114F10411F40E94B819C701C6
:10055000DF91CF911F910F91FF90EF9008950F932E
:100560001F93CF93DF93009791F1EC0124974A8179
:100570005B812091BE083091BF08BA0162237323CA
:10058000672B29F168817981672B09F520953095D2
:10059000242335233B832A830E94CA0D8A819B81B1
:1005A0002091C6083091C708820F931F9093C70807
:1005B0008093C608CE01E0DE8091C0089091C1080A
:1005C00001969093C1088093C0080E940A0FDF91A2
:1005D000CF911F910F9108958091C6089091C708FF
:1005E0000895FC010396928381834FEF5FEFBA0178
:1005F000438354836583768390878783928781873B
:1006000010820895FC011386128608950F931F939C
:10061000CF93DF93EB01088119812A813B810F3F42
:100620004FEF14072407340721F4FC01A185B2859C
:1006300011C0DC01139601C0DF011496ED91FC910D
:100640001597408151816281738104171507260730
:10065000370790F71496ED91FC911597FD83EC8385
:10066000D783C683BF83AE831596DC93CE9314974E
:100670009B878A87FC0120812F5F2083DF91CF91A8
:100680001F910F910895CF93DF93FC01A285B3854D
:10069000C481D581868197819F838E83C681D781CE
:1006A000848195819D838C8311968D919C91129765
:1006B000E817F90731F48681978112969C938E93FF
:1006C0001197138612868C9181508C938C91DF91B7
:1006D000CF910895A89590EC88E10FB6F894A8956D
:1006E000809360000FBE909360000895FC016083CA
:1006F000319770833197108231971082319720E8BB
:10070000208331971082319710823197108277972A
:1007100040833197508386970895DCDFA091511371
:10072000B0915213CD91CDBFDD91DEBFFF91EF911E
:10073000DF91CF91BF91AF919F918F917F916F91F9
:100740005F914F913F912F911F910F91FF90EF90EB
:10075000DF90CF90BF90AF909F908F907F906F90E1
:100760005F904F903F902F901F900F900CBE0F9076
:100770000BBE0F900FBE0F90089581E008950F9269
:100780000FB6F8940F920BB60F920CB60F921F9201
:1007900011242F923F924F925F926F927F928F928D
:1007A0009F92AF92BF92CF92DF92EF92FF920F9300
:1007B0001F932F933F934F935F936F937F938F93E9
:1007C0009F93AF93BF93CF93DF93EF93FF93A0914A
:1007D0005113B09152130DB60D920EB60D920E94A8
:1007E0006610A0915113B0915213CD91CDBFDD9100
:1007F000DEBFFF91EF91DF91CF91BF91AF919F91BC
:100800008F917F916F915F914F913F912F911F91A8
:100810000F91FF90EF90DF90CF90BF90AF909F909F
:100820008F907F906F905F904F903F902F901F9090
:100830000F900CBE0F900BBE0F900FBE0F9008953F
:100840000F920FB6F8940F920BB60F920CB60F9250
:100850001F9211242F923F924F925F926F927F923C
:100860008F929F92AF92BF92CF92DF92EF92FF92C0
:100870000F931F932F933F934F935F936F937F93A8
:100880008F939F93AF93BF93CF93DF93EF93FF9398
:10089000A0915113B09152130DB60D920EB60D9258
:1008A00013BE0E94DE0D81110E946610A0915113AB
:1008B000B0915213CD91CDBFDD91DEBFFF91EF918D
:1008C000DF91CF91BF91AF919F918F917F916F9168
:1008D0005F914F913F912F911F910F91FF90EF905A
:1008E000DF90CF90BF90AF909F908F907F906F9050
:1008F0005F904F903F902F901F900F900CBE0F90E5
:100900000BBE0F900FBE0F9008959ADF1895DC0173
:1009100053962C915397222341F05A96ED91FC91D6
:100920005B9790818AE0891B089580E008950FB657
:10093000F8940F92FC01868D811102C081E001C004
:1009400080E00F900FBE08950FB6F8940F92FC014F
:10095000268D878D281302C081E001C080E00F90B2
:100960000FBE08950F931F93CF93DF93EC01042FD5
:100970001E8D48A141110CC088819981892B09F0F5
:1009800042C08C819D810E94FE121D821C8242C049
:10099000011117C050E08A819B810E949A2E28A1E4
:1009A0008A819B81820F911D9B838A832C813D814B
:1009B0008217930750F1888199819B838A8380E015
:1009C00029C050E08E819F810E949A2E88A190E0DC
:1009D0009195819591092E813F81280F391F3F8381
:1009E0002E83488159812417350730F42C813D81AD
:1009F000820F931F9F838E83023049F4112349F0A5
:100A0000115080E007C080E005C080E003C080E0B6
:100A100001C080E01F5F1E8FDF91CF911F910F916A
:100A20000895FC0140A14423A9F050E026813781BC
:100A3000240F351F37832683848195812817390732
:100A400020F08081918197838683CB0166817781B5
:100A50000C949A2E08951F93CF93DF93EC010FB659
:100A6000F8940F921AA10BC08B89882351F0CE0104
:100A700043960E94241181110E9460121150111698
:100A80009CF38FEF8AA30F900FBE0FB6F8940F92CE
:100A900019A10BC08885882351F0CE0108960E94C9
:100AA000241181110E946012115011169CF38FEFD6
:100AB00089A30F900FBEDF91CF911F910895CF931F
:100AC000DF93EC010FB6F8940F92E881F9818F8DD6
:100AD00028A190E030E0829FA001839F500D929F5B
:100AE000500D11244E0F5F1F5D834C831E8EFB83C0
:100AF000EA830197289FA001299F500D389F500D30
:100B00001124CF01840F951F9F838E838FEF89A3BC
:100B10008AA361110BC08885882371F0CE010896E5
:100B20000E942411882341F02ADE06C0CE010896D7
:100B300058DDCE01439655DD0F900FBE81E0DF9169
:100B4000CF9108950F931F93F801611103C0118392
:100B5000008302C051834083878F60A361E0CF018F
:100B6000AEDF1F910F910895DF92EF92FF920F93E6
:100B70001F93CF93DF93F82EE62ED42E869FC001CD
:100B80001124839643DCEC01009741F08C012D2D5C
:100B9000AC014D5D5F4F6E2D8F2DD4DFCE01DF9107
:100BA000CF911F910F91FF90EF90DF900895CF921A
:100BB000DF92EF92FF920F931F93CF93DF93CDB706
:100BC000DEB729970FB6F894DEBF0FBECDBF7C010C
:100BD0006B012E833F834887598710E00FB6F89446
:100BE0000F92F701968D878D981710F00230B1F4AF
:100BF000402FB601C701B6DEF7019389992341F072
:100C0000C70143960E942411882321F0B8DD02C059
:100C10008111B5DD0F900FBE81E04CC08E819F81A8
:100C2000A885B985892B8A2B8B2B21F40F900FBEB9
:100C300080E040C0111105C0CE0101960E94E9116B
:100C400011E00F900FBEA6D70FB6F8940F92F701E0
:100C500081A18F3F09F411A2F70182A18F3F09F40E
:100C600012A20F900FBEBE016A5F7F4FCE010196A8
:100C70000E94FA11811119C0C70166DE882381F034
:100C80004E815F8168857985C70108960E94CB10E7
:100C9000C701E1DE0E940A0F8111A0CF70DD9ECF57
:100CA000C701D9DE0E940A0F99CFC701D4DE0E9486
:100CB0000A0F80E029960FB6F894DEBF0FBECDBFB5
:100CC000DF91CF911F910F91FF90EF90DF90CF9028
:100CD0000895EF92FF920F931F93CF93DF938A01B2
:100CE000FC01568D378D531710F02230F9F4422F46
:100CF0007801EC011AA18E8DCE0134DE1F3F81F404
:100D00008B898823A9F0CE0143960E942411882361
:100D100089F0E114F10481F081E0F70180830DC0D6
:100D2000FF24F394F10EFAA281E007C080E005C031
:100D300081E003C081E001C081E0DF91CF911F918C
:100D40000F91FF90EF900895CF92DF92EF92FF9274
:100D50000F931F93CF93DF93CDB7DEB729970FB6CD
:100D6000F894DEBF0FBECDBF8C016B012E833F8395
:100D700048875987E12C0FB6F8940F92F801F68C4A
:100D8000FF2099F0B601C8014CDEFA94F801F68E06
:100D90008085882331F0C80108960E9424118111B2
:100DA000EEDC0F900FBE81E04FC08E819F81A88541
:100DB000B985892B8A2B8B2B21F40F900FBE80E0F5
:100DC00043C0E11006C0CE0101960E94E911EE2455
:100DD000E3940F900FBEDED60FB6F8940F92F80191
:100DE00081A18F3F09F411A2F80182A18F3F09F47C
:100DF00012A20F900FBEBE016A5F7F4FCE01019617
:100E00000E94FA11811117C0C80191DD882379F081
:100E10004E815F8168857985C80143960E94CB1019
:100E2000C80119DEF7D78111A6CFA9DCA4CFC8016C
:100E300012DEF0D7A0CFC8010EDEECD7C80177DDF7
:100E4000882309F498CF80E029960FB6F894DEBF86
:100E50000FBECDBFDF91CF911F910F91FF90EF900B
:100E6000DF90CF900895EF92FF920F931F93CF934F
:100E7000DF93CDB7DEB729970FB6F894DEBF0FBE6C
:100E8000CDBF8C014E835F8368877987E12CF12C7D
:100E90000FB6F8940F92F801868D8823C9F081501F
:100EA000868F80819181892B29F40E94C013F801DB
:100EB00095838483F8018085882331F0C8010896E2
:100EC0000E94241181115BDC0F900FBE81E06FC086
:100ED0008E819F81A885B985892B8A2B8B2B21F444
:100EE0000F900FBE80E063C0F11006C0CE010196E6
:100EF0000E94E911FF24F3940F900FBE4BD60FB65A
:100F0000F8940F92F80181A18F3F09F411A2F80122
:100F100082A18F3F09F412A20F900FBEBE016A5F3B
:100F20007F4FCE0101960E94FA11811126C0C8019F
:100F3000FEDC8823F1F0F80180819181892B51F446
:100F40000FB6F8940F92848195810E947712E82E53
:100F50000F900FBE4E815F8168857985C8014396E9
:100F60000E94CB10C80177DD55D7811191CF07DCE6
:100F70008FCFC80170DD4ED78BCFC8016CDD4AD74B
:100F8000C801D5DC882309F483CFEE2079F00FB6B1
:100F9000F8940F92C801BBDC682FF8018481958119
:100FA0000E9459130F900FBE80E001C080E0299687
:100FB0000FB6F894DEBF0FBECDBFDF91CF911F916A
:100FC0000F91FF90EF900895CF93DF93EC010FB650
:100FD000F8940F9289A18F3F09F419A28AA18F3F3B
:100FE00009F41AA20F900FBE8E8D811104C0CE019C
:100FF00043960E94E210CE012EDDDF91CF9108953D
:10100000FC014481558122813381240F351F808169
:101010009181B901681B790BCB016417750710F03A
:10102000841B950B08950F93FC018FE0DF011D9247
:101030008A95E9F7758764875583448337832683C8
:1010400006870F910895AF92BF92CF92DF92EF92F1
:10105000FF920F931F93CF93DF936C015B017A0193
:10106000FC01C281D381048115810C1B1D0B40172B
:10107000510708F48A01F60184859585A801B50118
:101080008C0F9D1F0E949A2E0E151F0558F4A70164
:10109000401B510BB501600F711FF60184859585CA
:1010A0000E949A2ECE018E0D9F1DF601248135815E
:1010B0008217930710F0821B930BF60193838283B0
:1010C000C701DF91CF911F910F91FF90EF90DF90BB
:1010D000CF90BF90AF900895CF92DF92EF92FF92A2
:1010E0000F931F93CF93DF931F921F92CDB7DEB75D
:1010F0007C016B015A83498321153105C1F0FC0144
:10110000868580FD08C04217530708F49A013A8388
:10111000298381E00FC02017310758F042E050E0EA
:10112000BE016F5F7F4FC7018EDF81E003C080E0AB
:1011300001C080E0882331F049815A81B601C7019E
:1011400082DF02C080E090E00F900F90DF91CF919E
:101150001F910F91FF90EF90DF90CF900895AF9285
:10116000BF92CF92DF92EF92FF920F931F93CF9394
:10117000DF937C015B01E9014217530708F4EA01A0
:10118000209781F1F7010081118184819581801B75
:10119000910B6E018C179D0708F46C01F7016485B3
:1011A0007585600F711FA601C5010E949A2ECC168D
:1011B000DD0658F4AE014C195D09F70164857585AB
:1011C000C5018C0D9D1D0E949A2E0C0F1D1FF7014D
:1011D000848195810817190710F0081B190BF70176
:1011E00011830083CE01DF91CF911F910F91FF906A
:1011F000EF90DF90CF90BF90AF9008956F927F9265
:101200008F929F92AF92BF92CF92DF92EF92FF9216
:101210000F931F93CF93DF931F921F92CDB7DEB72B
:101220006C014B015A01790101151105B1F0FC0166
:1012300060807180A801BE016F5F7F4F90DF898160
:101240009A81E01AF10AA816B90630F4F601718203
:101250006082A12CB12C01C05C019701A501B401F1
:10126000C6017DDF0F900F90DF91CF911F910F91FD
:10127000FF90EF90DF90CF90BF90AF909F908F90B6
:101280007F906F900895CF92DF92EF92FF920F932D
:10129000CF93DF93EC016B01413011F401E001C009
:1012A00000E0C114D10419F4CC24C394D12CCE0194
:1012B0004096C817D90720F42196A8D87C0102C00F
:1012C000E12CF12CE114F10439F09601AE01B701E3
:1012D000615F7F4FC701A7DEC701DF91CF910F91FB
:1012E000FF90EF90DF90CF9008950F930FB6F89492
:1012F0000F92FC0120853185232B71F422853385E3
:10130000232B61F42681378144815581648575855D
:10131000068589DE81E003C080E001C080E00F9097
:101320000FBE0F910895FC01248135818081918148
:10133000820F931F42815381841B950B0197821763
:10134000930710F0821B930B08952F923F924F92B8
:101350005F926F927F928F929F92AF92BF92CF9245
:10136000DF92EF92FF920F931F93CF93DF93CDB74E
:10137000DEB72B970FB6F894DEBF0FBECDBF4C0182
:101380007B876A871A010E831F8328873987FC01B0
:10139000848195810197268520FF0CC02A01F2E007
:1013A0004F0E511C8415950558F41E821F82188615
:1013B000198606C08417950710F02A0101C02C0178
:1013C0008E819F81A885B985892B8A2B8B2B09F467
:1013D00036C0CE010196E7D70FB6F8940F92C4013C
:1013E000A2DF3C018415950538F560E080E090E0CF
:1013F0000E9492160E946412F401938782870F90D4
:101400000FBEAE80BF80C884D984E12CF12C00E0EF
:1014100010E0980140E050E0BA0180E00E94D21351
:10142000F40113861286BE016A5F7F4FCE010196DA
:10143000E1D7882389F205C00F900FBE02C0612C4E
:10144000712C6114710419F4C4016DDF3C01820137
:101450009301A1016A857B85C4013EDE6C01892B65
:10146000E9F0C401CDDDF4012681378182179307AD
:10147000A8F090D3F40180859185892B71F0808547
:101480009185E12CF12C00E020E030E0A90160E042
:101490000E947914F40111861086BCD4C6012B96E3
:1014A0000FB6F894DEBF0FBECDBFDF91CF911F9175
:1014B0000F91FF90EF90DF90CF90BF90AF909F90F3
:1014C0008F907F906F905F904F903F902F900895F6
:1014D000AF92BF92CF92DF92EF92FF920F931F9342
:1014E000CF93DF93EC017B015A0169018E8580FF68
:1014F00004C08A010E5F1F4F01C08A01CE0113DFB5
:101500009C01A501B701CE01E7DD5C01892BC1F08B
:10151000CE0176DD2E813F818217930788F0888582
:101520009985892B69F088859985E12CF12C00E05B
:1015300020E030E0A90160E00E947015198618864D
:10154000C501DF91CF911F910F91FF90EF90DF9038
:10155000CF90BF90AF9008954F925F926F927F921D
:101560008F929F92AF92BF92CF92DF92EF92FF92B3
:101570000F931F93CF93DF93EC012B013A01580196
:1015800069018E8580FF05C06894882481F8912CBC
:1015900002C0812C912CA114B104C104D10439F1F1
:1015A0000FB6F8940F92CE012BDD7C0188169906B8
:1015B00040F060E080E090E00E94921685D7998725
:1015C00088870F900FBE8E149F04A0F0E12CF12CA1
:1015D00000E010E0980140E050E0BA0180E00E9495
:1015E000D21319861886CE010BDD7C0103C0CE0113
:1015F00007DD7C018E149F04E8F484019701A301A8
:10160000B201CE01FBDD6C01892BB1F0C3D28A851A
:101610009B85892B69F08A859B85E12CF12C00E064
:1016200020E030E0A90160E00E9479141B861A8650
:10163000F1D302C0C12CD12CC601DF91CF911F91F3
:101640000F91FF90EF90DF90CF90BF90AF909F9061
:101650008F907F906F905F904F900895E091CB12A4
:10166000F091CC12808181110CC08FEF9FEFDC01D3
:101670008093951290939612A0939712B09398121C
:101680000895E091CB12F091CC120780F085E02D07
:1016900080819181A281B38180939512909396125B
:1016A000A0939712B09398120895CF93DF93EC0113
:1016B0008B8D9C8D0E94AF02CE010E94AF02DF9104
:1016C000CF9108954F925F926F927F928F929F92E7
:1016D000AF92BF92CF92DF92EF92FF920F93CF9390
:1016E000DF932C015B014A013901E60165EA70E0F4
:1016F0008B8D9C8D0E94A32E8B8D9C8D21E0821A58
:101700009108880E991EA114B10489F415C0822F86
:1017100090E0F501E80FF91F3081DE01A80FB91F35
:101720005D963C938081882329F02F5F01C020E0E3
:10173000203168F31CA601C01D8E0A3008F009E0B4
:101740000A8F0DA71EA6CE0102960E940203CE01AB
:101750000E960E940203DB87CA878AE090E0A0E031
:10176000B0E0801B9109A109B1098E879F87A88BE2
:10177000B98BDF8BCE8B84E0FE01BF96DF011D921B
:101780008A95E9F71BAAA301B201C4010E9476035E
:1017900099838883E114F10419F0F701D183C083A0
:1017A000DF91CF910F91FF90EF90DF90CF90BF909E
:1017B000AF909F908F907F906F905F904F90089523
:1017C000CF93C0E009C02BE0C29FC00111248D510E
:1017D0009D4E0E94F102CF5FCA30A8F388ED92E1DE
:1017E0000E94F1028DEC92E10E94F1028EEB92E1F7
:1017F0000E94F10283EB92E10E94F10287EA92E1FA
:101800000E94F10288ED92E19093CC128093CB126A
:101810008DEC92E19093CA128093C912CF910895F2
:10182000CF93DF93EC010FB6F8940F928091A6123C
:101830008F5F8093A6128091511390915213892B40
:1018400051F4D0935213C09351138091A61281305A
:1018500091F4B6DF10C08091A01281110CC0E0910C
:101860005113F0915213928D8A8D891720F0D093E5
:101870005213C0935113809199128F5F80939912E4
:10188000EA8D8091A1128E1710F4E093A1128BE0E3
:101890008E9FF0011124ED51FD4E0180F281E02D6B
:1018A000FF83EE832681378139872887A681B78118
:1018B0009E012E5F3F4F15963C932E9314973783CE
:1018C0002683EA8D8E9FF0011124ED51FD4EFD8798
:1018D000EC8780818F5F80830F900FBE8091A01274
:1018E000882351F0E0915113F0915213928D8A8D1B
:1018F000981710F40E94BF03DF91CF910895CF9302
:10190000DF931BC00FB6F8940F92E091BA12F091DA
:10191000BB12C085D185CE0102960E9443038091FF
:10192000A61281508093A6128091B21281508093AA
:10193000B2120F900FBECE01B8DE8091B2128111AB
:10194000E1CFDF91CF9108958F929F92AF92BF9296
:10195000CF92DF92EF92FF92CF93DF936B017C01E6
:10196000C42F8090A2129090A312A090A412B090C5
:10197000A512809151139091521302960E94430335
:101980008FEFC816D806E806F806B1F5CC23A1F10A
:10199000E7EAF2E1A181B281C0915113D0915213D3
:1019A000BF83AE83C0915113D091521316968D917F
:1019B0009C911797998788871696CD91DC911797F8
:1019C000809151139091521302969D838C83809144
:1019D000511390915213029617969C938E931697DB
:1019E000A0915113B09152131D96FC93EE931C9746
:1019F00080818F5F80833FC0C80CD91CEA1CFB1C10
:101A0000E0915113F0915213C282D382E482F582A5
:101A1000C814D904EA04FB0468F46091511370916E
:101A200052138091C9129091CA126E5F7F4F0E942B
:101A3000060321C060915113709152138091CB1213
:101A40009091CC126E5F7F4F0E9406038091951299
:101A500090919612A0919712B0919812C816D9063B
:101A6000EA06FB0640F4C0929512D0929612E092DC
:101A70009712F0929812DF91CF91FF90EF90DF9044
:101A8000CF90BF90AF909F908F9008952F923F92EC
:101A90004F925F926F927F928F929F92AF92BF927E
:101AA000CF92DF92EF92FF920F93CF93DF933C019F
:101AB0001B014A012901CA010E9406026C01892BFF
:101AC00071F084E390E00E940602EC01892B19F08A
:101AD000DC8ECB8E06C0C6010E94AF0202C0C0E001
:101AE000D0E0209761F0A12CB12C6E019201A401ED
:101AF000B101C301E7DDCE0193DE81E001C08FEFCC
:101B0000DF91CF910F91FF90EF90DF90CF90BF903A
:101B1000AF909F908F907F906F905F904F903F908D
:101B20002F900895EF92FF920F930F2EF3E9EF2E6F
:101B3000F2E1FF2EF02D00E020E030E040EC50E03C
:101B40006AE972E08DEC90E0A1DF813011F40E942F
:101B500036178130C9F4F8948FEF9FEFDC01809342
:101B6000951290939612A0939712B093981281E0D9
:101B70008093A0121092A2121092A3121092A4129B
:101B80001092A5120E948D03809106020F91FF9082
:101B9000EF900895809192128F5F80939212089532
:101BA0000FB6F8940F926091A2127091A3128091D7
:101BB000A4129091A5120F900FBE0895CF92DF92BC
:101BC000EF92FF92CF93DF9380919212811105C122
:101BD000C090A212D090A312E090A412F090A5128F
:101BE0008FEFC81AD80AE80AF80AC092A212D09257
:101BF000A312E092A412F092A512C114D104E10440
:101C0000F104B1F48091CB129091CC122091C912C1
:101C10003091CA123093CC122093CB129093CA12F7
:101C20008093C91280919A128F5F80939A1216DD69
:101C30008091951290919612A0919712B09198125E
:101C4000C816D906EA06FB0620F480E0B2C081E09F
:101C500001C080E0E091CB12F091CC129081911103
:101C60000CC04FEF5FEFBA0140939512509396125C
:101C700060939712709398129CC0E091CB12F091F0
:101C8000CC120780F085E02D0084F185E02D4281A3
:101C9000538164817581C416D506E606F70648F4BB
:101CA00040939512509396126093971270939812E6
:101CB00080C0A485B585C681D781208531853F83C5
:101CC0002E83C085D185268137813D832C83119653
:101CD0004D915C9112979F012E5F3F4F4217530722
:101CE00031F44085518512965C934E931197158679
:101CF00014869C9191509C93A08DB18D109709F101
:101D0000C289D389448955895F834E83C489D58923
:101D1000428953895D834C8311966D917C91129712
:101D2000AF01425F5F4F6417750731F444895589ED
:101D300012965C934E931197118E108E9C91915038
:101D40009C93A28D9091A1129A1710F4A093A112C6
:101D50009BE09A9FD0011124AD51BD4E11960D907C
:101D6000BC91A02DB783A68316964D915C911797D1
:101D7000518740871696CD91DC9117973D832C8330
:101D800017963C932E931697A28D9A9FD0011124FB
:101D9000AD51BD4EB587A4879C919F5F9C93228DCA
:101DA000E0915113F0915213928D291708F04FCF03
:101DB00051CFE0915113F0915213E28D9BE0E99FD6
:101DC000F0011124ED51FD4E9081923008F081E038
:101DD00090919B12911116C016C080919C12909107
:101DE0009D12A0919E12B0919F120196A11DB11D4E
:101DF00080939C1290939D12A0939E12B0939F1279
:101E000080E001C081E0DF91CF91FF90EF90DF9003
:101E1000CF900895CF92DF92EF92FF92CF93DF930E
:101E20000FB6F8940F928091921281508093921283
:101E3000809192128111BEC08091A612811188C03A
:101E4000BCC0E091C512F091C6120084F185E02D6E
:101E5000A08DB18DC289D389848995899F838E8312
:101E6000C489D589828993899D838C8311962D910C
:101E70003C911297CF010E962817390731F48489C7
:101E8000958912969C938E931197118E108E8C913A
:101E900081508C93A485B585C681D7818085918535
:101EA0009F838E83C085D185868197819D838C8316
:101EB00011968D919C9112979F012E5F3F4F821733
:101EC000930731F48085918512969C938E93119798
:101ED000158614868C9181508C93A28D8091A112CD
:101EE0008A1710F4A093A1128BE08A9FD0011124CD
:101EF000AD51BD4E11960D90BC91A02DB783A68318
:101F000016964D915C911797518740871696CD9103
:101F1000DC9117973D832C8317963C932E9316974D
:101F2000A28D8A9FD0011124AD51BD4EB587A487E3
:101F30008C918F5F8C93928DA0915113B09152131D
:101F40005A968C91981730F081E080939B1202C0D2
:101F5000E0E0F0E08091BE12811173CFEF2B09F029
:101F60007DDBC0909C12D0909D12E0909E12F0906C
:101F70009F12C114D104E104F104A1F01FDE8823F3
:101F800019F081E080939B1281E0C81AD108E10822
:101F9000F108A1F710929C1210929D1210929E12BD
:101FA00010929F1280919B12882331F00E94BF03F0
:101FB00081E003C080E001C080E00F900FBEDF91A0
:101FC000CF91FF90EF90DF90CF9008958F929F92E6
:101FD000AF92BF92CF92DF92EF92FF921F93CF9377
:101FE000DF93EC016A017B01D5DD8090A212909015
:101FF000A312A090A412B090A51288819981AA8101
:10200000BB81AC01BD014C0D5D1D6E1D7F1D881691
:102010009906AA06BB0660F4481759076A077B07AA
:1020200098F484169506A606B70680F010E013C053
:10203000481759076A077B0758F084169506A606C5
:10204000B70640F010E007C010E005C011E003C083
:1020500011E001C011E0488359836A837B83112317
:1020600041F0CB01BA01681979098A099B0940E05E
:102070006BDCD0DE811102C00E94BF03812FDF9193
:10208000CF911F91FF90EF90DF90CF90BF90AF90D6
:102090009F908F900895CF92DF92EF92FF926B0105
:1020A0007C01672B682B692B39F074DD40E0C70198
:1020B000B6014ADCAFDE01C080E0811102C00E949F
:1020C000BF03FF90EF90DF90CF9008958091921220
:1020D000882321F081E080939B12089510929B1237
:1020E000E0915113F091521320813181E09151130D
:1020F000F0915213838D948D8217930760F0609155
:10210000511370915213635E7F4F809151139091E0
:1021100052130E94C4198091A11201C08150282F2E
:1021200030E09BE0929FF001939FF00D1124ED5160
:10213000FD4E9081992391F39BE0929FA001939F84
:10214000500D1124DF010180F281E02D0480F58122
:10215000E02D1296FC93EE9311974A515D4EE417D1
:10216000F50729F444815581FD01528341839BE0A9
:10217000929FF001939FF00D1124ED51FD4E0180CF
:10218000F281E02D20853185309352132093511335
:102190008093A1120895CF92DF92EF92FF926A018D
:1021A0007B016091511370915213625F7F4F0E94C7
:1021B000060341E0C701B601C7DBFF90EF90DF9057
:1021C000CF900895CF93DF93FC01CB01BA01A18199
:1021D000B281C0915113D0915213BB8BAA8BC09185
:1021E0005113D091521316964D915C9117975D8BB8
:1021F0004C8B1696CD91DC911797409151135091CD
:102200005213425F5F4F5D834C8340915113509155
:102210005213425F5F4F17965C934E931697A091AF
:102220005113B09152135996FC93EE935897308105
:102230003F5F3083222319F06FEF7FEFCB01422FF6
:1022400083DBDF91CF910895CF93DF93DC01179665
:10225000ED91FC9118970084F185E02DA08DB18D52
:10226000C289D389848995899F838E83C489D589BE
:10227000828993899D838C8311968D919C9112976D
:102280009F01225F3F4F8217930731F4848995891C
:1022900012969C938E931197118E108E8C91815073
:1022A0008C9380919212811152C0A485B585C6810C
:1022B000D781808591859F838E83C085D1858681D6
:1022C00097819D838C8311968D919C9112979F018C
:1022D0002E5F3F4F8217930731F4808591851296C8
:1022E0009C938E931197158614868C9181508C93B4
:1022F000A28D8091A1128A1710F4A093A1128BE0F5
:102300008A9FD0011124AD51BD4E11960D90BC9104
:10231000A02DB783A68316964D915C911797518790
:1023200040871696CD91DC9117973D832C831796A5
:102330003C932E931697A28D8A9FD0011124AD5104
:10234000BD4EB587A4878C918F5F8C931CC04EEBDC
:1023500052E1DA011196CD91DC911297D38BC28BA9
:102360008E819F81958B848B8E819F81DC01159658
:102370003C932E9314973F832E83518F408FDA0125
:102380008C918F5F8C93928DE0915113F091521349
:10239000828D891720F481E080939B1201C080E038
:1023A000DF91CF9108950FB6F8940F9220919A1271
:1023B000FC0120834091A2125091A3126091A412BB
:1023C0007091A51241835283638374830F900FBE73
:1023D000089520919A12FC0120834091A2125091FD
:1023E000A3126091A4127091A5124183528363835A
:1023F000748308958F929F92AF92BF92CF92DF9293
:10240000EF92FF920F931F93CF93DF93FB010FB6D1
:10241000F8940F92C090A212D090A312E090A41250
:10242000F090A512DC0111960D911D912D913C911A
:10243000149746015701801A910AA20AB30A4081F3
:102440005181628173814F3FBFEF5B076B077B0751
:1024500039F1EC01B881A0919A12BA1759F0C0165F
:10246000D106E206F30630F0108211821282138246
:1024700081E017C084169506A606B70658F44819D9
:1024800059096A097B094083518362837383A1DF01
:1024900080E007C0108211821282138281E001C0A5
:1024A00080E00F900FBEDF91CF911F910F91FF90B1
:1024B000EF90DF90CF90BF90AF909F908F90089556
:1024C00081E080939B120895809151139091521353
:1024D00008958091A012882331F080919212811189
:1024E00004C082E0089581E0089580E008950F938C
:1024F0001F93CF93DF93FC01892B09F477C0828D62
:10250000A0915113B09152135A969C91891708F0DB
:1025100063C04685578560897189772394F0A091BF
:102520005113B09152135A969C914AE050E060E0EA
:1025300070E0491B51096109710946875787608B13
:10254000718B248535854BE0849FC00111248D510A
:102550009D4E28173907B9F5EF018F010E5F1F4F08
:10256000C8010E944303E0915113F0915213E28D90
:10257000EA8F8091A1128E1710F4E093A1128BE0E4
:102580008E9FF0011124ED51FD4E0180F281E02D6E
:10259000FF83EE832681378139872887A681B7811B
:1025A00015961C930E93149717830683EA8D8E9FBE
:1025B000F0011124ED51FD4EFD87EC8780818F5F86
:1025C000808381E016C0A0915113B09152135A96A6
:1025D0008C91828F81E00DC095A5E0915113F0910F
:1025E0005213828D981720F080E003C080E001C074
:1025F00081E0DF91CF911F910F9108950F931F9369
:10260000CF93DF93FC01892B09F449C086A5815043
:1026100086A7228D95A5291709F443C0811143C0CF
:10262000EF018F010E5F1F4FC8010E944303EDA50C
:10263000EA8F8AE090E0A0E0B0E08E1B9109A1094A
:10264000B1098E879F87A88BB98B8091A1128E17B5
:1026500010F4E093A1128BE08E9FF0011124ED5154
:10266000FD4E0180F281E02DFF83EE8326813781CC
:1026700039872887A681B78115961C930E931497E6
:1026800017830683EA8D8E9FF0011124ED51FD4ED4
:10269000FD87EC8780818F5F808381E005C080E0CB
:1026A00003C080E001C080E0DF91CF911F910F91C6
:1026B00008950F931F93CF93DF93FC01892B09F4A7
:1026C0005AC085A5861708F4862F928D891709F4BC
:1026D00052C026A5213009F04EC0828F468557850D
:1026E00060897189772364F04AE050E060E070E02F
:1026F000481B51096109710946875787608B718BA7
:10270000248535854BE0949FC00111248D519D4E49
:102710002817390781F5EF018F010E5F1F4FC801A0
:102720000E944303EA8D8091A1128E1710F4E0936A
:10273000A1128BE08E9FF0011124ED51FD4E01801E
:10274000F281E02DFF83EE83268137813987288748
:10275000A681B78115961C930E9314971783068351
:10276000EA8D8E9FF0011124ED51FD4EFD87EC871F
:1027700080818F5F8083DF91CF911F910F910895AA
:102780008091511390915213892B39F0E09151139C
:10279000F091521386A58F5F86A780915113909177
:1027A000521308954F925F926F927F92AF92BF92B1
:1027B000CF92DF92EF92FF920F931F93CF93DF930D
:1027C000280139010FB6F8940F92E0915113F0915E
:1027D0005213C82FD0E0EC0FFD1F83A9823071F196
:1027E000E0915113F0915213CE01880F991F880F79
:1027F000991FE80FF91F87A590A9A1A9B2A9409533
:10280000509560957095482359236A237B2347A7E9
:1028100050AB61AB72ABE0915113F0915213EC0FDE
:10282000FD1F81E083ABA114B104C104D10431F0D8
:1028300041E0C601B50188D80E94BF030F900FBECA
:102840000FB6F8940F92E114F104A1F0E091511346
:10285000F0915213CE01880F991F880F991FE80F2E
:10286000F91F87A590A9A1A9B2A9F7018083918337
:10287000A283B383E0915113F0915213EC0FFD1F2B
:1028800083A98230E9F4E0915113F0915213CE0103
:10289000880F991F880F991FE80FF91F87A590A926
:1028A000A1A9B2A9409450946094709448225922EE
:1028B0006A227B2247A650AA61AA72AA81E001C0BF
:1028C00080E02091511330915213C20FD31F1BAAE5
:1028D0000F900FBEDF91CF911F910F91FF90EF905E
:1028E000DF90CF90BF90AF907F906F905F904F90B0
:1028F00008958F929F92AF92BF92EF92FF920F93A3
:10290000CF93DF93DC010FB6F8940F92E114F1043A
:1029100089F0E62FF0E0EE0FFF1FEE0FFF1FE80F2C
:10292000F91F87A490A8A1A8B2A8F701808291827C
:10293000A282B38270E0FD01E60FF71F83A992E047
:1029400093AB023001F118F4013031F04DC0033087
:1029500079F10430D1F148C0660F771F660F771FF9
:10296000FD01E60FF71F87A490A8A1A8B2A8BA019D
:10297000A901482959296A297B2947A750AB61AB8E
:1029800072AB01E034C0660F771F660F771FFD0141
:10299000E60FF71F47A550A961A972A94F5F5F4FC6
:1029A0006F4F7F4F47A750AB61AB72AB01E01FC0C9
:1029B000660F771F660F771FFD01E60FF71F27A72A
:1029C00030AB41AB52AB01E012C0823079F0660F00
:1029D000771F660F771FFD01E60FF71F27A730ABA4
:1029E00041AB52AB01E003C001E001C000E0813027
:1029F00009F069C01C96ED91FC911D971696CD913A
:102A0000DC91179718968D919C9119979F838E83CF
:102A10001896CD91DC91199716968D919C911797E8
:102A20009D838C83818192819D012E5F3F4F821710
:102A3000930731F418968D919C9119979283818315
:102A40001D961C921E921C978081815080835A96FD
:102A5000EC915A978091A1128E1710F4E093A11275
:102A60008BE08E9FF0011124ED51FD4E0180F2812B
:102A7000E02D1796FC93EE93169746815781199691
:102A80005C934E931897C681D7813D832C833783FF
:102A900026835A96EC915A978E9FF0011124ED519E
:102AA000FD4E1D96FC93EE931C9780818F5F808373
:102AB0005A969C91E0915113F0915213828D89178F
:102AC00010F40E94BF030F900FBE802FDF91CF91B3
:102AD0000F91FF90EF90BF90AF909F908F900895CF
:102AE0008F929F92AF92BF92CF92DF92EF92FF921E
:102AF0000F93CF93DF93DC01E114F10489F0E62F0B
:102B0000F0E0EE0FFF1FEE0FFF1FE80FF91F87A485
:102B100090A8A1A8B2A8F70180829182A282B38274
:102B200070E0FD01E60FF71F93A982E083AB02304E
:102B300001F118F4013031F04DC0033079F1043067
:102B4000D1F148C0660F771F660F771FFD01E60FB2
:102B5000F71F87A490A8A1A8B2A8BA01A901482983
:102B600059296A297B2947A750AB61AB72AB81E039
:102B700034C0660F771F660F771FFD01E60FF71F42
:102B800047A550A961A972A94F5F5F4F6F4F7F4F53
:102B900047A750AB61AB72AB81E01FC0660F771FD8
:102BA000660F771FFD01E60FF71F27A730AB41AB7C
:102BB00052AB81E012C0923079F0660F771F660F3A
:102BC000771FFD01E60FF71F27A730AB41AB52ABD4
:102BD00081E003C081E001C080E0913009F096C03F
:102BE0009091921291115FC01C96ED91FC911D97EE
:102BF0001696CD91DC91179718962D913C911997C7
:102C00003F832E831896CD91DC91199716962D91BE
:102C10003C9117973D832C83418152819D012E5F0A
:102C20003F4F4217530731F418964D915C91199715
:102C3000528341831D961C921E921C979081915045
:102C400090835A96EC915A979091A1129E1710F486
:102C5000E093A1129BE09E9FF0011124ED51FD4EE7
:102C60000180F281E02D1796FC93EE931697468132
:102C7000578119965C934E931897C681D7813D83EF
:102C80002C83378326835A96EC915A979E9FF001A6
:102C90001124ED51FD4E1D96FC93EE931C979081EF
:102CA0009F5F908321C06EEB72E1FB01C181D281F5
:102CB0005396DC93CE9352972E813F8155963C9349
:102CC0002E9354974E815F819D01225F3F4FFA0101
:102CD000358324833F832E8359967C936E93589734
:102CE000FB0190819F5F90835A962C91E091511344
:102CF000F0915213928D921748F4C114D10419F037
:102D000091E0F601908391E090939B12DF91CF9137
:102D10000F91FF90EF90DF90CF90BF90AF909F907A
:102D20008F900895009721F4809151139091521340
:102D30000FB6F8940F9270E0FC01E60FF71F23A97D
:102D4000223031F4FC01E60FF71F13AA81E001C025
:102D500080E00F900FBE0895DC01E0915D13F091CB
:102D60005E13808191E0811190E09C93911108C0E5
:102D70000780F085E02D60817181828193810895C3
:102D800060E070E0CB010895CF92DF92EF92FF9266
:102D90000F931F93FC01428353836483758393874E
:102DA00082870417150726073707C0F00C191D097D
:102DB0002E093F0986859785A089B18908171907CB
:102DC0002A073B0700F5BF016E5F7F4F80915B13C1
:102DD00090915C130E94060380E018C00C151D053D
:102DE0002E053F0528F44C155D056E057F0568F43A
:102DF000BF016E5F7F4F80915D1390915E130E94C3
:102E0000060380E003C081E001C081E01F910F91C3
:102E1000FF90EF90DF90CF9008950FB6F8940F9247
:102E20008091591390915A13892BE9F48AE693E122
:102E30000E94F1028FE593E10E94F1028AE693E19C
:102E400090935E1380935D138FE593E190935C13F1
:102E500080935B1340E067E08AE00E94B4059093A2
:102E60005A13809359130F900FBE0895EF92FF925B
:102E70000F93D3DF8091591390915A13892B91F0BE
:102E80000F2EF7E5EF2EF3E1FF2EF02D03E020E00B
:102E900030E040EC50E06FE972E087ED90E00E9496
:102EA000460D01C080E00F91FF90EF9008958F9242
:102EB0009F92AF92BF92CF92DF92EF92FF920F93C9
:102EC0001F93CF93DF93CDB7DEB727970FB6F89454
:102ED000DEBF0FBECDBFE0915913F0915A1330976A
:102EE00081F169832A833B834C835D839F838E8337
:102EF0006630F4F4EEDA823069F400E0A70196015E
:102F0000BE016F5F7F4F8091591390915A130E94B9
:102F1000D70518C000E020E030E0A901BE016F5FD6
:102F20007F4F8091591390915A130E94D7050AC080
:102F300020E0A801BE016F5F7F4FCF010E946906AC
:102F400001C080E027960FB6F894DEBF0FBECDBF5C
:102F5000DF91CF911F910F91FF90EF90DF90CF9075
:102F6000BF90AF909F908F9008958F929F92AF9255
:102F7000BF92CF92DF92EF92FF920F931F93CF9366
:102F8000DF933BC00780F085E02D80809180A28098
:102F9000B380C085D1858E010E5F1F4FC8010E948E
:102FA0004303EC89FD89CE0119958E8982FF25C0E6
:102FB0008E859F85A889B989880D991DAA1DBB1D7D
:102FC00088169906AA06BB0670F48A839B83AC8395
:102FD000BD83DB87CA87B80180915D1390915E1332
:102FE0000E9406030AC0C12CD12C760100E010E03B
:102FF000A501940160E0CE015ADFE0915D13F091EC
:103000005E1380818111BECF80915B1390915C1320
:1030100090935E1380935D13F0935C13E0935B13C6
:10302000DF91CF911F910F91FF90EF90DF90CF90A4
:10303000BF90AF909F908F900895CF92DF92EF92C4
:10304000FF92CF93DF93EC010E94D00D6B017C01C6
:103050008091531390915413A0915513B09156132E
:10306000C816D906EA06FB0620F47FDF81E08883D4
:1030700001C01882C0925313D0925413E09255139A
:10308000F0925613C701B601DF91CF91FF90EF90F8
:10309000DF90CF9008954F925F926F927F928F92C0
:1030A0009F92AF92BF92CF92DF92EF92FF920F93D7
:1030B0001F93CF93DF934B015C0129013A01E0910B
:1030C0005D13F0915E130780F085E02DC085D185FA
:1030D000CE0102960E9443038E8982FF1BC04E855B
:1030E0005F8568897989480D591D6A1D7B1D7501A9
:1030F000640193018201CE0147DE882369F0C12C6F
:10310000D12C760100E010E0A501940160E0CE0131
:10311000CEDE02C08E7F8E8BEC89FD89CE011995A3
:10312000DF91CF911F910F91FF90EF90DF90CF90A3
:10313000BF90AF909F908F907F906F905F904F90D7
:1031400008958F929F92AF92BF92CF92DF92EF92AB
:10315000FF921F93CF93DF931F92CDB7DEB76B0122
:103160007C01142F0E94CA0DCE01019666DF4B012F
:103170005C01898181112DC011110DC08C149D0439
:10318000AE04BF0440F00E940A0FA5019401C701DC
:10319000B60181DF20C0112341F0E0915B13F09173
:1031A0005C13808111E0811110E0B701A60148197C
:1031B00059096A097B09212F8091591390915A135B
:1031C0000E94E4070E940A0F811105C00E94BF03FC
:1031D00002C00E940A0F0F90DF91CF911F91FF90C4
:1031E000EF90DF90CF90BF90AF909F908F90089519
:1031F000AF92BF92CF92DF92EF92FF920F931F9305
:10320000CF93DF93CDB7DEB728970FB6F894DEBF24
:103210000FBECDBF82C0898188230CF47EC0AE80F2
:10322000BF80D5011C968D919C911D97892B21F013
:10323000C50102960E944303CE010896FEDE8B0173
:103240009C01E9810E2E000CFF0BEA30F10508F01D
:1032500064C08827EE58FF4F8F4F0C94532DF50113
:1032600086898160868BCA80DB80EC80FD80468504
:103270005785608971894C0D5D1D6E1D7F1DC501CF
:1032800083DD882309F449C0D5015496ED91FC9162
:103290005597C5011995F501868982FF3EC04A817F
:1032A0005B816C817D8186859785A089B1899A0132
:1032B000AB01280F391F4A1F5B1FC12CD12C76018F
:1032C00000E010E060E0C501F2DD27C0D5015696B0
:1032D0008C9156978E7F56968C931FC0F5018689E8
:1032E0008160868B4A815B816C817D8146875787AF
:1032F000608B718B400F511F621F731F6801790132
:10330000C50142DD0AC0F501868981FD04C0C50101
:103310000E94AF0202C08E7F868B20E030E0A901C0
:10332000BE016F5F7F4F8091591390915A130E9495
:10333000A406811170CF28960FB6F894DEBF0FBE99
:10334000CDBFDF91CF911F910F91FF90EF90DF9054
:10335000CF90BF90AF900895089584B1806884B9EC
:1033600085B1806885B9089583B1806883B908956F
:10337000F4DF2FEF80E792E0215080409040E1F7AA
:1033800000C00000F1DFF5CFE8DF2FEF87EA91E61C
:10339000215080409040E1F700C00000E5DFF5CF0C
:1033A0000F93CF93DF931F921F92CDB7DEB79A830F
:1033B00089838A818F9389818F9387EA92E09F9393
:1033C0008F9387EF94E19F938F930E943C2F87EF19
:1033D00094E152D300E02FEF3FEFA901BE016F5FF0
:1033E0007F4F80915B1590915C150E94D7050F90DF
:1033F0000F900F900F900F900F900F900F90DF9104
:10340000CF910F91089540E062E08AE00E94B405F8
:1034100090935C1580935B1508950E94EF238111B2
:1034200005C080ED99E10C94EA23089586EC92E0C2
:103430000E940C2F80E090E0B3CF0895CF93DF93EC
:103440001F921F92CDB7DEB72CED35E040E050E083
:10345000BE016F5F7F4F80915B1590915C150E945C
:10346000A4068A818F9389818F9383ED92E09F9345
:103470008F9387EF94E19F938F930E943C2F87EF68
:1034800094E1FAD20F900F900F900F900F900F9041
:1034900089819A810F900F90DF91CF91089540E03C
:1034A00062E08AE00E94B4059093601580935F15F6
:1034B00040E062E08AE00E94B40590935E1580933C
:1034C0005D1508950F93CF93DF931F921F92CDB791
:1034D000DEB79A8389838A818F9389818F9385EF61
:1034E00092E09F938F9387EF94E19F938F930E9435
:1034F0003C2F87EF94E1C0D200E02FEF3FEFA9010E
:10350000BE016F5F7F4F80915F15909160150E94A3
:10351000D7050F900F900F900F900F900F900F9076
:103520000F90DF91CF910F9108950F93CF93DF9379
:103530001F921F92CDB7DEB79A8389838A818F93BA
:1035400089818F938CE193E09F938F9387EF94E130
:103550009F938F930E943C2F87EF94E18DD200E0E0
:103560002FEF3FEFA901BE016F5F7F4F80915D1587
:1035700090915E150E94D7050F900F900F900F90BD
:103580000F900F900F900F90DF91CF910F910895B2
:10359000EF92FF920F931F93CF93DF9300D01F9270
:1035A000CDB7DEB70E94D00D69837A838B839C836D
:1035B000D0D3882321F080E493E00E940C2F43E0D5
:1035C00050E060E070E0CE0101960E94E60FD6D395
:1035D000882351F080E593E00E940C2F80E090E07A
:1035E000A4DF80E090E06EDF40E050E0BA01CE0161
:1035F00001960E94E60FD3D312D38B01E5D30AD3F1
:103600007B010036110588F085E6E816F1046CF0C0
:1036100040E050E0BA01CE0101960E94E60FBFD310
:10362000FED28B01D1D3F6D27B01C8017EDFC70168
:1036300049DF0F900F900F900F90DF91CF911F9166
:103640000F91FF90EF900895CF93DF931F921F92F9
:10365000CDB7DEB72CED35E040E050E0BE016F5F46
:103660007F4F80915F15909160150E94A4068A811A
:103670008F9389818F9381E693E09F938F9387EF58
:1036800094E19F938F930E943C2F87EF94E1F4D1B4
:103690000F900F900F900F900F900F9089819A814B
:1036A0000F900F90DF91CF910895CF93DF931F92EA
:1036B0001F92CDB7DEB72CED35E040E050E0BE0103
:1036C0006F5F7F4F80915D1590915E150E94A406FB
:1036D0008A818F9389818F938BE893E09F938F9357
:1036E00087EF94E19F938F930E943C2F87EF94E1A3
:1036F000C3D10F900F900F900F900F900F90898172
:103700009A810F900F90DF91CF9108950F931F939F
:10371000CF93DF93CDB7DEB764970FB6F894DEBFD3
:103720000FBECDBF81E00E942B29D6D452D79F93E4
:103730008F9382EB93E09F938F930E94F92E4AD64A
:1037400048D79F938F9385EC93E09F938F930E942C
:10375000F92E8E010F5F1F4FC801D0D43AD71F93A7
:103760000F939F938F938EED93E09F938F930E947F
:10377000F92EC801DFD42DD79F938F931F930F93FA
:1037800082EF93E09F938F930E94F92EA80167E048
:1037900074E088E294E0FCD61CD79F938F931F932C
:1037A0000F9387E094E09F938F9388E294E09F9338
:1037B0008F9389E394E09F938F930E94F92EEDD429
:1037C00008D79F938F938FE694E09F938F930E94E7
:1037D000F92E0FB6F894DEBF0FBECDBF81E0D7D56E
:1037E000F8D69F938F938EE794E09F938F930E94D8
:1037F000F92E84EF91E0D6D5ECD69F938F9381E09C
:103800008F9384EF8F938FE994E09F938F930E941F
:10381000F92E0FB6F894DEBF0FBECDBF1AE080E0E0
:10382000C2D4082FD6D69F938F931F921F938FEBEE
:1038300094E09F938F930E94F92E0F900F900F901A
:103840000F900F900F90083059F080E00E948F2960
:1038500066E371E080E090E00E944B101150F9F6B1
:10386000083041F48FED94E00E940C2F81E00E941B
:10387000712909C081E00E94802980E00E944E29C0
:103880000E94BF03FDCF64960FB6F894DEBF0FBE53
:10389000CDBFDF91CF911F910F910895CF93DF930B
:1038A00000D01F92CDB7DEB781E008D462E070E0AF
:1038B00080E090E00E944B1080E000D466E970E068
:1038C00080E090E00E944B10B2D320DFE5E7F3E107
:1038D00088E0818382E080830E94D00D69837A83AF
:1038E0008B839C8388EF94E00E940C2F48EA58E475
:1038F00060E070E0CE0101960E94E60F0E94850113
:103900008C01DC0113968C9113978F9312968C91F6
:1039100012978F9311968C9111978F938C918F930F
:1039200015968C9115978F9314968C918F938BE0AD
:1039300095E09F938F930F2EF7EFEF2EF4E1FF2E7C
:10394000F02DFF92EF920E943C2FC70195D0E5E742
:10395000F3E1128281E08383D80111968C91119753
:1039600084838C91858315968C9115978683149604
:103970008C911497878313968C9113978087129656
:103980008C91818783E00E94A12965E773E180E043
:1039900033D41FD69F938F9386E395E09F938F93A5
:1039A000FF92EF920E943C2FC70166D00FB6F894A9
:1039B000DEBF0FBECDBF96CFCF93DF93CDB7DEB7BF
:1039C00066970FB6F894DEBF0FBECDBF81E076D309
:1039D00062E070E080E090E00E944B1080E06ED3E7
:1039E00066E970E080E090E00E944B1020D382E016
:1039F000898384E08A830FEF1FEF980146E150E04E
:103A0000BE016F5F7F4F80916115909162150E949A
:103A1000AC0A9A8189811F929F931F928F938BE4A6
:103A200095E09F938F930E94F92E0F900F900F9027
:103A30000F900F900F90DFCFEF92FF920F93CF93E5
:103A4000E12CF12C082F20E030E048E851E06CE751
:103A500075E08EE49CE10E94460D20E030E048E8ED
:103A600051E063E875E08CED9CE10E94460DCF913A
:103A70000F91FF90EF9008950F93CF93DF93C82F8E
:103A8000D92F44E650E060E070E08091F514909109
:103A9000F6140E943307813099F4DF93CF930E948C
:103AA000F92E00E020E030E0A90160E070E08091B4
:103AB000F5149091F6140E94D7050F900F9004C052
:103AC0008EE895E00E940C2FDF91CF910F91089521
:103AD0000F9343E060E081E00E94B4059093F614F8
:103AE0008093F51400E020E030E0A90160E070E090
:103AF0000E94D7050F910895CF93DF9300D01F92B6
:103B0000CDB7DEB70E94D00D69837A838B839C8307
:103B10004BEB50E060E070E0CE0101960E94E60FB2
:103B200037DD7BDCF5CFCF93DF9300D01F92CDB78D
:103B3000DEB70E94D00D69837A838B839C8343E533
:103B400057E060E070E0CE0101960E94E60F0E940F
:103B50001101F5CFEF92FF920F93E12CF12C00E0D1
:103B600020E030E040EC50E06EEA75E08CE79DE14B
:103B70000E94460D20E030E040EC50E06AEB75E03A
:103B800083E99DE10E94460D0F91FF90EF9008950B
:103B9000E1DF0E94EC029F938F938AEC95E09F9364
:103BA0008F9387EF94E19F938F930E943C2F0E9405
:103BB000920D0F900F900F900F900F900F9008950F
:103BC00081B1816881B980E090E00E94D6271BDC3A
:103BD00066DC0E94080183E0D8D5A3D085E00E946E
:103BE000DD2841E060E070E08CE290E00E94430953
:103BF0009093621580936115BC0181E01FD283E030
:103C00001BCF0895DDDF64DF89ED95E00E940C2F66
:103C1000BFDFFFCF04D06894B11150C0089533D0F6
:103C200088F09F5790F0B92F9927B751A0F0D1F0A5
:103C3000660F771F881F991F1AF0BA95C9F712C02F
:103C4000B13081F03AD0B1E0089537C0672F782FB6
:103C50008827B85F39F0B93FCCF38695779567959B
:103C6000B395D9F73EF490958095709561957F4F07
:103C70008F4F9F4F089557FD9058440F551F59F08F
:103C80005F3F71F04795880F97FB991F61F09F3F49
:103C900079F087950895121613061406551FF2CF72
:103CA0004695F1DF08C0161617061806991FF1CFC2
:103CB00086957105610508940895E894BB276627E9
:103CC0007727CB0197F908956530F1F4FA018081E7
:103CD0008F7390E0982F88272181822B90930A027E
:103CE000809309028281F0E48F9FC0011124FA01C0
:103CF000238126952695822B9093080280930702B4
:103D000081E080938B130895643051F080E090E45B
:103D1000909308028093070290930A02809309020D
:103D200008950F931F9304E61EE120E034E244EF70
:103D300050E060E087E20E94C42990938D13809345
:103D40008C1321E0892B09F020E0822F1F910F9125
:103D5000089580918C1390918D13009759F040E055
:103D600060E070E00E94152A843031F410928B13C9
:103D700080E0089582E0089583E0089580918C1397
:103D800090918D13009739F064E00E94612A85308C
:103D900021F083E0089582E0089580E00895609125
:103DA000090270910A0280E090E00E943F2C20E01E
:103DB00030E048EC52E40E94A42C20E038EF4FE7BA
:103DC00056E40C94D42B0895609107027091080278
:103DD00080E090E00E943F2C20E030E045E253E498
:103DE0000E94A42C20E038EF4FE756E40E94D42B29
:103DF00020E030E040E252E40C946D2B08950F93E4
:103E00001F93CF93DF931F921F92CDB7DEB78C0124
:103E100019822DC0E091F213EC3250F481E08E0F44
:103E20008093F213F0E0EC5DFB4E8A81808302C048
:103E30001092F2138A818A30D1F44091F21350E04B
:103E4000FA01EE5DFB4E1082415051099E012F5F39
:103E50003F4F64E274E18091F5139091F6130E9454
:103E6000680A898181110E94BF031092F213BE017A
:103E70006E5F7F4FC80104D6882361F20F900F90C8
:103E8000DF91CF911F910F9108950F931F93CF93BF
:103E9000DF938C01EB018091F5139091F6130E9452
:103EA0007509B8018EE893E10E94DA2E209779F027
:103EB000EEE8F3E101900020E9F7319780E290E02D
:103EC00091838083BE018EE893E10E94CF2EEEE8BD
:103ED000F3E1DF010D900020E9F711978DE09AE002
:103EE00011969C938E9312961C9201900020E9F7F4
:103EF0003197EE58F341AE2F8EE893E1AC016A2F73
:103F00008091F7139091F81366D5811111C008E2E2
:103F100015E020E030E04DE250E06EE774E1809182
:103F2000F5139091F6130E94AC0A8EE794E102C05B
:103F300080E090E0DF91CF911F910F9108952F9233
:103F40003F924F925F926F927F928F929F92AF9229
:103F5000BF92CF92DF92EF92FF920F931F93CF9376
:103F6000DF935C01FC0101900020E9F731976F01BC
:103F7000C81AD90A5C2C0F2EF3E88F2EF8E09F2E7A
:103F8000F02DE12CF12C4C2C3701F4010181128130
:103F9000E80109900020E9F72197C01BD10B3C2EC6
:103FA000F9E0CF16D10458F0F4012080FEE02F1282
:103FB00006C0B801C5010E94AA2E892B09F5442D1F
:103FC000351408F44C2F50E0B801C5010E94E12ED1
:103FD000892B49F4F301EE0FFF1FE60DF71DED5796
:103FE000F74F20800DC08FEFE81AF80AE3E08E0E3D
:103FF000911CF1E1EF16F10439F66894222424F8BB
:10400000822DDF91CF911F910F91FF90EF90DF9064
:10401000CF90BF90AF909F908F907F906F905F9068
:104020004F903F902F90089530DF89CF0895809171
:10403000F5139091F6130C94750908958F929F9241
:10404000AF92CF92EF920F931F93CF93C82F8B0114
:1040500041E060E070E088EC90E00E9443099093BA
:10406000F6138093F5131093F4130093F3130F2EAC
:10407000FFEF8F2EFEE19F2EF02D6894AA24A6F864
:104080006894CC24C6F8E12C00E023E040E051EE37
:1040900060E070E08C2FD2D39093F8138093F713E5
:1040A000E7E0F1E0808180618083CF911F910F91E3
:1040B000EF90CF90AF909F908F900895882331F02C
:1040C000E8E0F1E080818F7E80830895E8E0F1E010
:1040D000808180618083089560E070E089E096E0EF
:1040E000D4DEEEE7F4E101900020E9F73197EE57D6
:1040F000F44181E0759708F080E00895CF93DF9355
:10410000EC0160E070E08AE196E0BFDEEEE7F4E10A
:1041100001900020E9F7EF58F44139F46EE774E1BB
:10412000CE010E94DA2E80E002C0188281E0DF9189
:10413000CF910895FC0101900020E9F79F012151E2
:1041400031092817390729F4BC0188E496E06CCFBF
:10415000089589E00895FC0101900020E9F79F018E
:10416000215131092817390729F4BC0187E596E068
:104170005BCF089589E00895FC0101900020E9F7E4
:104180009F01215231092817390729F4BC0186E61D
:1041900096E04ACF089589E0089560E070E085EAEE
:1041A00096E042CF08950F931F93E82FF0E0EE0FB3
:1041B000FF1FE158F74F608171818EEA96E034DF8E
:1041C000811114C008E215E020E030E04DE250E03B
:1041D0006EE774E18091F5139091F6130E94AC0A9A
:1041E000882321F08EE794E1AADE03C08EE794E1F4
:1041F000A6DE1F910F9108950F931F93CF93DF9326
:104200001F92CDB7DEB7DB0111969C9111979531C6
:1042100008F0B4C0992381F160E070E0272F30E00E
:10422000462F50E0FD01E40FF51F928192959F709B
:104230009A3010F0995C01C0905DF901E15FFB4E8E
:1042400090832F5F3F4FFD01E40FF51F92819F7018
:10425000492F50E04A30510514F0995C01C0905D3F
:10426000F901E15FFB4E90837E5F6F5F11969C9139
:104270001197691798F201C070E0E72FF0E0E15F55
:10428000FB4E10824C91811103C087EB96E002C077
:1042900089EB96E02FE034E13F932F931F924F93E9
:1042A0009F938F938DEB96E09F938F9381E594E19D
:1042B0009F938F930E943C2F60E070E081E594E132
:1042C000B3DE0FB6F894DEBF0FBECDBF811159C06B
:1042D00008E215E020E030E04DE250E06EE774E1E6
:1042E0008091F5139091F6130E94AC0A882309F48B
:1042F00047C08EE794E123DE8E3009F042C087E0AC
:1043000089838091F3139091F413892BA9F1BE0155
:104310006F5F7F4F8EE794E168D18093F913E98155
:10432000F0E0E258FB4EDF010D900020E9F7119715
:10433000AE1BBF0BAA2391F0BB27CD0101979C01B7
:1043400012F42F5F3F4F359527952093FA13AF0155
:104350004F5F5F4F64E18BEF93E173D101E010E0B9
:1043600020E030E046E150E069EF73E18091F31323
:104370009091F4130E94A5098EE003C084E101C06E
:1043800080E00F90DF91CF911F910F9108958130C0
:1043900019F06DEC76E002C066EA77E081ED96E018
:1043A00043CE08959F938F9382E097E09F938F93DE
:1043B00081E594E19F938F930E943C2F60E070E031
:1043C00081E594E131DE0F900F900F900F900F90E8
:1043D0000F9008952F923F924F925F926F927F922B
:1043E0008F929F92AF92BF92CF92DF92EF92FF9205
:1043F0000F931F93CF93DF93CDB7DEB7A0970FB680
:10440000F894DEBF0FBECDBF6FE277E08BE397E09D
:104410003CDD95DD8111A3C080E2E2E2F2E0DE0145
:10442000119601900D928A95E1F79E012F5F3F4F03
:104430006901E12CF12C0F2EF7E4AF2EF7E0BF2E2F
:10444000F02D01E514E10F2EF0E64F2EF7E05F2E80
:10445000F02D0F2EF7E78F2EF7E09F2EF02D0F2E69
:10446000F1E96F2EF7E07F2EF02D3E2C2F2CFF92DE
:10447000EF92BF92AF921F930F930E943C2F60E088
:1044800070E0C80102DD5BDD0F900F900F900F9080
:104490000F900F90811163C032E03E15E8F4F601F1
:1044A00083818F9382818F9381818F9380818F937A
:1044B000FF92EF925F924F921F930F930E943C2FB7
:1044C00060E070E0C801E1DC3ADD0FB6F894DEBFD1
:1044D0000FBECDBF811143C02F923F929F928F920A
:1044E0001F930F930E943C2F60E070E0C801CDDC69
:1044F00026DD0F900F900F900F900F900F9081116D
:104500002EC02F923F927F926F921F930F930E9423
:104510003C2F60E070E0C801B8DC11DD0F900F9017
:104520000F900F900F900F90811119C03FEFE31A79
:10453000F30A84E0C80ED11C98E0E916F10409F0F2
:1045400094CF60E070E089EA97E09FDCF8DC8111AD
:1045500006C060E070E08AEB97E097DCF0DCA096A4
:104560000FB6F894DEBF0FBECDBFDF91CF911F9184
:104570000F91FF90EF90DF90CF90BF90AF909F9002
:104580008F907F906F905F904F903F902F90089505
:10459000EF92FF920F931F93CF93DF93EC018B0168
:1045A0007A0181E0F4DE81110DC0CE01D4DD8111EC
:1045B00009C0C801E1DD811105C0C701BBDD811162
:1045C00001C0EBDDDF91CF911F910F91FF90EF9034
:1045D000089590E0FC01EE0FFF1F8E0F9F1FFC015E
:1045E000ED57F74F818192810895DC01009729F101
:1045F000FB012081FC0101900020E9F73197E81BC5
:10460000F90B822F90E0E817F907C8F080E008C0A6
:10461000880F382F330F330F830F8053890F2F5F8D
:10462000FD01E20FF11D908130ED390F3A3010F4A9
:104630009111EECFFB012083089580E0089580E082
:1046400008950F931F93CF93DF93DC01EA01209726
:10465000E1F1FA0101900020E9F73197E41BF50B35
:10466000329710F532C08D01040F151F30E0AE01F6
:10467000420F531FFA019081913428F09753592F1C
:104680005295507F03C0592F5295507F2C0F3D1FDC
:10469000F9019181913410F0975301C09053950F17
:1046A000F80190838F5F01C080E0282F220F482FF0
:1046B00050E0FE0101900020E9F73197EC1BFD0B63
:1046C0004E175F0710F48613CECFDF91CF911F9165
:1046D0000F9108958091AE14860F8093AE1490913F
:1046E000B114913079F028F09230A9F0933019F19B
:1046F00008956F3F09F048C01092AE1481E0809396
:10470000B1140895663809F03FC01092AD1482E0EC
:104710008093B1140895E091AD1481E08E0F8093E1
:10472000AD14F0E0E555FB4E6083823069F583E01F
:104730008093B11408959091AD1421E0290F209336
:10474000AD14963009F581110EC0EBEAF4E18081D9
:1047500090E0982F88272181820F911D9093B314A8
:104760008093B21404C01092B3141092B214109239
:10477000B114E091AF14F091B014309729F080910A
:10478000B2149091B314199508958F929F92AF929D
:10479000CF92EF920F930F2EFAE68F2EF3E29F2E19
:1047A000F02D6894AA24A4F86894CC24C4F8E12CD1
:1047B00000E023E040E855E260E070E03FD09093F5
:1047C000B5148093B4140F91EF90CF90AF909F9059
:1047D0008F9008959093B0148093AF140895CF9361
:1047E000DF93CDB7DEB729970FB6F894DEBF0FBEC3
:1047F000CDBF89E0E2E4F2E09E012F5F3F4FD90197
:1048000001900D928A95E1F71092B3141092B214B0
:104810008091B4149091B514009731F0422F532F2A
:1048200069E0D9D080E001C082E029960FB6F89403
:10483000DEBF0FBECDBFDF91CF9108952F923F9283
:104840004F925F926F927F928F929F92AF92CF9290
:10485000EF92FF920F931F93CF93DF93CDB7DEB705
:10486000F82E2A013B0188E090E00E94752D8C0112
:104870008F2D90E0FC01EE0FFF1FEA54FB4E1183D9
:1048800000830115110509F469C0880F991FFC0107
:10489000E55FFD4F80819181D8018D939C936C2DB4
:1048A00070E084E090E00E945B2D1C0161E070E00C
:1048B00086E090E00E945B2D7C014C2DB101F1D689
:1048C000F801F582E4826A2D70E084E090E00E94B5
:1048D0005B2D1C0161E070E086E090E00E945B2DA2
:1048E0007C014A2DB101DDD6D8011396FC92EE92DF
:1048F000129717969C928E921697FFB6F894ED91A8
:10490000FC91119736978081826080838D909C9076
:10491000C301B201B4D720E030E040E051E40E948E
:10492000A42C9B01AC0160E074E284E79BE43CD7DB
:1049300020E030E040E85FE3D0D671D9F40132974F
:104940006083D801ED91FC911197359788E98083B8
:10495000ED91FC91349786E08083FFBEC801DF9122
:10496000CF911F910F91FF90EF90CF90AF909F90BC
:104970008F907F906F905F904F903F902F90089511
:10498000CF93DF93DC01892B01F11296ED91FC911D
:104990001397938182812581981B92238481981794
:1049A000B1F0838126952823C081D181C20FD11D0A
:1049B00068838F5F958189238383ED91FC9135977F
:1049C00080818062808380E003C081E001C082E05A
:1049D000DF91CF910895EF92FF920F931F93CF93A2
:1049E000DF937C01009709F441C0DC011296ED9140
:1049F000FC91139793818281981B858198238481F0
:104A0000891B8617A8F1662341F1842F952FDC01BD
:104A10006150462F50E04F5F5F4F480F591FE7012D
:104A2000EA81FB81938182812581981B9223848175
:104A3000981779F08C919381269529236081718153
:104A40008B01020F111DE80188839F5F85819823E8
:104A500093831196A417B50711F7D701ED91FC9137
:104A6000359780818062808380E003C081E001C04F
:104A700082E0DF91CF911F910F91FF90EF90089509
:104A80000097D1F0DC011496ED91FC91159793817C
:104A90008281981799F09281858186958923A081DA
:104AA000B181A80FB11D8C91DB018C939F5F858133
:104AB0009823928380E0089581E0089583E008952B
:104AC0001F920F920FB60F9211240BB60F922F93D5
:104AD0003F934F935F936F937F938F939F93AF9386
:104AE000BF93CF93DF93EF93FF93A091B614B09150
:104AF000B714109711F16091C6001496ED91FC91D6
:104B00001597938182812581981B92238481981720
:104B100061F0838126952823C081D181C20FD11DE8
:104B200068838F5F9581892383831696ED91FC912D
:104B30001797309711F0CD011995FF91EF91DF9103
:104B4000CF91BF91AF919F918F917F916F915F9125
:104B50004F913F912F910F900BBE0F900FBE0F9072
:104B60001F9018951F920F920FB60F9211240BB63B
:104B70000F922F938F939F93AF93BF93EF93FF93D6
:104B8000E091B614F091B7143097B9F00280F38138
:104B9000E02D938182819817B1F092818581282F31
:104BA00026952923A081B181A20FB11D2C919F5F71
:104BB000892382832093C6000BC0E1ECF0E0808162
:104BC0008F7D808305C0E1ECF0E080818F7D808364
:104BD000FF91EF91BF91AF919F918F912F910F9086
:104BE0000BBE0F900FBE0F901F9018951F920F9243
:104BF0000FB60F9211240BB60F922F933F934F9342
:104C00005F936F937F938F939F93AF93BF93CF9354
:104C1000DF93EF93FF93A091B814B091B91410975C
:104C200011F16091CE001496ED91FC91159793814E
:104C300082812581981B92238481981761F083815A
:104C400026952823C081D181C20FD11D68838F5F33
:104C50009581892383831696ED91FC911797309760
:104C600011F0CD011995FF91EF91DF91CF91BF9197
:104C7000AF919F918F917F916F915F914F913F91F4
:104C80002F910F900BBE0F900FBE0F901F90189595
:104C90001F920F920FB60F9211240BB60F922F9303
:104CA0008F939F93AF93BF93EF93FF93E091B814CB
:104CB000F091B9143097B9F00280F381E02D93811F
:104CC00082819817B1F092818581282F269529231A
:104CD000A081B181A20FB11D2C919F5F8923828396
:104CE0002093CE000BC0E9ECF0E080818F7D8083C3
:104CF00005C0E9ECF0E080818F7D8083FF91EF912A
:104D0000BF91AF919F918F912F910F900BBE0F90FC
:104D10000FBE0F901F9018951F920F920FB60F9213
:104D200011240BB60F922F933F934F935F936F9382
:104D30007F938F939F93AF93BF93CF93DF93EF9323
:104D4000FF93A091BA14B091BB14109711F1609128
:104D5000D6001496ED91FC9115979381828125815F
:104D6000981B92238481981761F0838126952823CC
:104D7000C081D181C20FD11D68838F5F9581892346
:104D800083831696ED91FC911797309711F0CD0122
:104D90001995FF91EF91DF91CF91BF91AF919F91C5
:104DA0008F917F916F915F914F913F912F910F90D4
:104DB0000BBE0F900FBE0F901F9018951F920F9271
:104DC0000FB60F9211240BB60F922F938F939F93D0
:104DD000AF93BF93EF93FF93E091BA14F091BB149C
:104DE0003097B9F00280F381E02D9381828198178A
:104DF000B1F092818581282F26952923A081B18148
:104E0000A20FB11D2C919F5F892382832093D6002E
:104E10000BC0E1EDF0E080818F7D808305C0E1ED86
:104E2000F0E080818F7D8083FF91EF91BF91AF9102
:104E30009F918F912F910F900BBE0F900FBE0F90EF
:104E40001F9018951F920F920FB60F9211240BB658
:104E50000F922F933F934F935F936F937F938F9313
:104E60009F93AF93BF93CF93DF93EF93FF93A09163
:104E7000BC14B091BD14109711F1609136011496D5
:104E8000ED91FC911597938182812581981B922346
:104E90008481981761F0838126952823C081D18170
:104EA000C20FD11D68838F5F9581892383831696F6
:104EB000ED91FC911797309711F0CD011995FF9165
:104EC000EF91DF91CF91BF91AF919F918F917F91A2
:104ED0006F915F914F913F912F910F900BBE0F906B
:104EE0000FBE0F901F9018951F920F920FB60F9242
:104EF00011240BB60F922F938F939F93AF93BF9371
:104F0000EF93FF93E091BC14F091BD143097B9F08A
:104F10000280F381E02D938182819817B1F0928114
:104F20008581282F26952923A081B181A20FB11D4B
:104F30002C919F5F89238283209336010BC0E1E38C
:104F4000F1E080818F7D808305C0E1E3F1E0808125
:104F50008F7D8083FF91EF91BF91AF919F918F9152
:104F60002F910F900BBE0F900FBE0F901F901895B2
:104F7000CF93DF931F92CDB7DEB7BE016F5F7F4F38
:104F80008091BE149091BF147BDD8111F6CF898191
:104F900090E00F90DF91CF910895682F8091BE141B
:104FA0009091BF14EDDC80E090E008958F929F9285
:104FB000AF92CF92EF920F93812C912C6894AA24F8
:104FC000A7F86894CC24C7F8E12C00E023E040E087
:104FD00051EE60E070E032DC9093BF148093BE1419
:104FE000E7E6F5E183E192E0918380839383828316
:104FF0000F91EF90CF90AF909F908F90089590E099
:10500000FC01EE0FFF1FE80FF91FEE0FFF1FE0542A
:10501000FB4E238121111FC09C01220F331FF90178
:10502000E80FF91FEE0FFF1FE054FB4EA081B18186
:105030004C91F901E80FF91FEE0FFF1FE054FB4EF2
:1050400081E090E0028002C0880F991F0A94E2F785
:10505000842B8C930895FC01EE0FFF1FDF01A80F36
:10506000B91FAA0FBB1FA054BB4E0D90BC91A02D21
:105070002C91E80FF91FEE0FFF1FE054FB4E81E06B
:1050800090E0028002C0880F991F0A94E2F7809591
:1050900082238C93089590E0FC01EE0FFF1FE80F30
:1050A000F91FEE0FFF1FE054FB4E2381211120C09A
:1050B0009C01220F331FF901E80FF91FEE0FFF1FAC
:1050C000E054FB4EA081B1814C91F901E80FF91F2A
:1050D000EE0FFF1FE054FB4E81E090E0028002C023
:1050E000880F991F0A94E2F7809584238C93089582
:1050F000FC01EE0FFF1FDF01A80FB91FAA0FBB1F96
:10510000A054BB4E0D90BC91A02D2C91E80FF91F1F
:10511000EE0FFF1FE054FB4E81E090E0028002C0E2
:10512000880F991F0A94E2F7822B8C930895CC2460
:10513000C394D12C6894BB24B2F8C0ECD4E110E045
:105140008C81813081F018F1823061F5E881F9813C
:105150002081C6010A8002C0880F991F0A94E2F7D5
:10516000822780831FC08D818F5F8A3010F48D83EA
:1051700019C01D82E881F9812081C6010A8002C020
:10518000880F991F0A94E2F7822780830BC00D8154
:10519000002329F0812F7FDF01500D8303C0BC82E3
:1051A000812F2DDF1F5F2696143051F665E070E0E9
:1051B00080E090E00E944B10C0CFEF92FF920F93DF
:1051C0001F93CF93DF93082F80E487B9C0ECD4E11D
:1051D0000F2EF8E2EF2EF12CF02DF982E88286E016
:1051E0008A831B8214E01C8380E009DF80E887B992
:1051F000FF82EE8287E0888719861A8781E0FFDECA
:1052000080E283BB84E390E09D878C8785E08E8776
:105210001F86188B82E0F3DE80E18093010182E03B
:1052200091E09B8B8A8B1C8B1D8A1E8B83E0E7DEB3
:10523000E12CF12C20E030E040EC50E066EB78E02F
:1052400087E998E20E94460DDF91CF911F910F915F
:10525000FF90EF900895CF93DF9390E0FC01EE0F65
:10526000FF1FDF01A80FB91FAA0FBB1FA054BB4E21
:10527000CD91DC911197488121E030E012960C909D
:10528000129702C0220F331F0A94E2F724272883C3
:10529000FD0181E08483DF91CF910895CF93DF9367
:1052A00090E0FC01EE0FFF1FDF01A80FB91FAA0F4E
:1052B000BB1FA054BB4ECD91DC911197488121E0DA
:1052C00030E012960C90129702C0220F331F0A94FE
:1052D000E2F724272883FD0182E08483DF91CF91C8
:1052E0000895282F30E0F901EE0FFF1FE20FF31FA2
:1052F000EE0FFF1FE054FB4E93E09483CCCE089555
:10530000282F30E0F901EE0FFF1FE20FF31FEE0F21
:10531000FF1FE054FB4E94E0948371CE089590E01B
:10532000FC01EE0FFF1FDF01A80FB91FAA0FBB1F63
:10533000A054BB4E24E015962C931597FD011482C2
:10534000089590E0FC01EE0FFF1FDF01A80FB91FC9
:10535000AA0FBB1FA054BB4E21E015962C931597A6
:10536000FD01148208958091E61481110CC08CE037
:105370008093B8008FEF8093BB0084E08093BC00E3
:1053800081E08093E6140895AF92BF92CF92DF92AE
:10539000EF92FF920F931F93CF93DF93A82EB62E19
:1053A00069017A0184E090E0A0D3EC01892B61F1DE
:1053B000A88281E0B81212C0C701B60120EA36E81F
:1053C00041E050E04ED3DA01C9014097A109B1098B
:1053D000B695A79597958795898311C0C701B601A2
:1053E00020E83AE146E050E03CD3DA01C9014097B9
:1053F000A109B109B695A7959795879589831B83D0
:105400000A838C2F9D2F02C080E090E0DF91CF9126
:105410001F910F91FF90EF90DF90CF90BF90AF90D2
:1054200008958091BC0081700895FF920F931F939F
:10543000CF93DF930097D1F14A30D0F5F42E8B0152
:10544000EC01EFDF811136C08091D9149091DA140C
:10545000C817D90741F087DF89818093B800D093BE
:10546000DA14C093D91481E08F0D8093DB14888106
:10547000880F8093DC14FF2089F0F801ADEDB4E1D2
:105480004FEF4F0D642F70E0CB010196B801680F0C
:10549000791F81918D93E617F707D9F788EF8093ED
:1054A000210285EA8093BC0084E005C086E003C049
:1054B00087E001C082E0DF91CF911F910F91FF90B3
:1054C00008951F93CF93DF93009729F16B3028F550
:1054D000162FEC01A6DF811122C08091D914909182
:1054E000DA14C817D90741F03EDF89818093B800EC
:1054F000D093DA14C093D9141093DB148881880FE9
:1055000081608093DC1488EF8093210285EA809388
:10551000BC0085E005C086E003C087E001C082E0F2
:10552000DF91CF911F9108951F920F920FB60F92A6
:1055300011240BB60F922F933F934F935F936F936A
:105540007F938F939F93AF93BF93EF93FF93E091DC
:10555000B9008E2F90E0FC013897E135F10508F095
:1055600075C08827E458FF4F8F4F9DC21092D81402
:10557000E091D8148091DB14E81770F481E08E0F6D
:105580008093D814F0E0E452FB4E80818093BB00FE
:1055900085E88093BC0072C084E98093BC00809150
:1055A000D9149091DA14DC011296ED91FC911397C5
:1055B000309709F463C020E040E050E064E01995C2
:1055C0005DC0E091D81481E08E0F8093D814809153
:1055D000BB00F0E0E452FB4E80838091B900803440
:1055E00011F41092D8142091D81430E08091DB147B
:1055F00090E001972817390724F485EC8093BC00CC
:105600003DC085E88093BC0039C08091BB00E0912B
:10561000D814F0E0E452FB4E808384E98093BC0010
:105620008091D9149091DA14DC011296ED91FC91DD
:105630001397309719F12091DB144CED54E165E09C
:1056400019951CC085EA8093BC0018C08091B900F0
:105650008093210284E08093BC008091D9149091C2
:10566000DA14DC011296ED91FC911397309731F02A
:1056700020E040E050E0609121021995FF91EF9108
:10568000BF91AF919F918F917F916F915F914F915A
:105690003F912F910F900BBE0F900FBE0F901F9058
:1056A0001895FC01411101C041D3842F90E09C0169
:1056B0002150310982239323892B09F037D34138B4
:1056C00008F034D3128213824483440F415045833F
:1056D0007183608380E090E008955058BB27AA272B
:1056E0000ED021C112D130F017D120F031F49F3FFC
:1056F00011F41EF407C10EF4E095E7FBFDC0E92F9D
:105700000E943B1E78F3BA17620773078407950758
:1057100020F079F4A6F50C945D1E0EF4E0950B2EA6
:10572000BA2FA02D0B01B90190010C01CA01A001F3
:105730001124FF27591B99F0593F50F4503E68F14E
:105740001A16F040A22F232F342F4427585FF3CF8F
:10575000469537952795A795F0405395C9F77EF460
:105760001F16BA0B620B730B840BBAF09150A1F0A9
:10577000FF0FBB1F661F771F881FC2F70EC0BA0F2F
:10578000621F731F841F48F4879577956795B795B7
:10579000F7959E3F08F0B1CF9395880F08F09927B1
:1057A000EE0F9795879508950DD0BDC0B5D048F000
:1057B000ACD038F021F45F3F21F09EC051110C9421
:1057C0005E1EA0C00E943B1E88F39923B9F35523A7
:1057D000A1F3951B550BBB27AA27621773078407F4
:1057E00038F09F5F5F4F220F331F441FAA1FA9F39A
:1057F00034D00E2E3AF0E0E831D091505040E6958A
:10580000001CCAF72AD0FE2F28D0660F771F881FEA
:10581000BB1F261737074807AB07B0E809F0BB0BDB
:10582000802DBF01FF2793585F4F32F09E3F5105F7
:1058300070F062C00C945E1E5F3FE4F3983ED4F3B8
:10584000869577956795B795F7959F5FC9F7880F08
:10585000911D9695879597F90895E1E0660F771F5A
:10586000881FBB1F621773078407BA0720F0621BEB
:10587000730B840BBA0BEE1F88F7E0950895E8943C
:1058800009C097FB3EF490958095709561957F4F88
:105890008F4F9F4F9923A9F0F92F96E9BB27939536
:1058A000F695879577956795B795F111F8CFFAF446
:1058B000BB0F11F460FF1BC06F5F7F4F8F4F9F4F77
:1058C00016C0882311F096E911C0772321F09EE8D5
:1058D000872F762F05C0662371F096E8862F70E03B
:1058E00060E02AF09A95660F771F881FDAF7880F15
:1058F0009695879597F9089597F99F6780E870E0E6
:1059000060E008959FEF80EC089500240A94161635
:10591000170618060906089500240A94121613069D
:10592000140605060895092E0394000C11F488232B
:1059300052F0BB0F40F4BF2B11F460FF04C06F5F47
:105940007F4F8F4F9F4F08950CD0EDCFDEDF28F0B3
:10595000E3DF18F0952309F0CFCFD4CF11240C94B6
:105960005E1E0E943B1E90F3959FC1F3950F50E081
:10597000551F629FF001729FBB27F00DB11D639F01
:10598000AA27F00DB11DAA1F649F6627B00DA11DA7
:10599000661F829F2227B00DA11D621F739FB00D4D
:1059A000A11D621F839FA00D611D221F749F3327BD
:1059B000A00D611D231F849F600D211D822F762F56
:1059C0006A2F11249F57504092F0E9F088234AF043
:1059D000EE0FFF1FBB1F661F771F881F915050409F
:1059E000A9F79E3F510578F087CF0C945E1E5F3F6C
:1059F000E4F3983ED4F3869577956795B795F79538
:105A0000E7959F5FC1F7FE2B880F911D96958795AF
:105A100097F90895AA1BBB1B51E107C0AA1FBB1F22
:105A2000A617B70710F0A61BB70B881F991F5A952A
:105A3000A9F780959095BC01CD01089597FB072E9D
:105A400016F4009406D077FD08D0E4DF07FC05D0FB
:105A50003EF4909581959F4F0895709561957F4F85
:105A60000895A1E21A2EAA1BBB1BFD010DC0AA1F9F
:105A7000BB1FEE1FFF1FA217B307E407F50720F0B7
:105A8000A21BB30BE40BF50B661F771F881F991F32
:105A90001A9469F760957095809590959B01AC017B
:105AA000BD01CF010895EE0FFF1F881F8BBF079028
:105AB000F691E02D19940F931F93CF93DF93869F58
:105AC0008001879F100D969F100D1124C8010DD0E5
:105AD000EC01009721F0A80160E070E034D1CE0124
