S0130000342E53656D6573746572322E7372656335
S1130000E5C0000004C1000002C1000000C10000FE
S1130010FEC00000FCC00000FAC00000F8C00000F0
S1130020F6C00000F4C00000F2C00000F0C0000000
S11300305AC40000ECC00000EAC00000E8C00000A0
S1130040E6C00000E4C00000E2C00000E0C0000020
S1130050DEC00000DCC00000DAC00000D8C0000030
S1130060D6C000000C9411230C946323D0C000006C
S1130070CEC00000CCC00000CAC00000C8C0000050
S1130080C6C00000C4C00000C2C00000C0C0000060
S11300900C94A7230C94F923BAC000000C944528AF
S11300A0B6C00000B4C00000B2C00000B0C0000080
S11300B0AEC00000ACC00000AAC00000A8C0000090
S11300C0A6C00000A4C00000A2C000000C943D24FF
S11300D00C948F249CC000000C94D3240C942525EC
S11300E096C000005317531753178A179217A71770
S11300F0531753178A1792176728D728D728D72852
S1130100D728D728D728D7286728D728D728D72863
S1130110D728D728D728D7286928D728D728D72851
S1130120D728D728D728D728D728D728D728D728D3
S1130130D728D728D728D7286928D728D728D72831
S1130140D728D728D728D728D728D728D728D728B3
S1130150D728D728D728D728D328D728D728D728A7
S1130160D728D728D728D7289E28D728D728D728CC
S1130170D728D728D728D728D728D728D728D72883
S1130180D728D728D728D7289228D728D728D728B8
S1130190D728D728D728D728B6280E94A30B809120
S11301A0DF15823008F0D9D20E94D017F6CFCF9352
S11301B0DF931F92CDB7DEB7CE0101960E94D01413
S11301C049810E94C5160E941C17F6CF11241FBE38
S11301D0CFEFD1E2DEBFCDBF00E00CBF17E0A0E05F
S11301E0B2E0E4E9FFE500E00BBF02C007900D9226
S11301F0A23DB107D9F728E1A2EDB7E001C01D92F5
S1130200A330B207E1F70E94801B0C94C82FF8CEEC
S113021040E066E085E086D49093EA178093E9177E
S11302200895CF92DF92EF92FF920F931F93CF9393
S1130230DF9300E010E0E12CF12CC12CD12CC0E0C4
S1130240D0E00DC00E942818C80ED91E0E94EB18D9
S1130250E80EF91E0E940519080F191F2196CA30CD
S1130260D10584F32196C601BE010E94BB2A262F24
S1130270372FC701BE010E94CF2A462FF72EC8018F
S1130280BE010E94BB2AE3EEF7E12083318342835F
S1130290F38264837583FF924F933F932F937F93ED
S11302A06F938FE692E09F938F930E94AA2C00E0B5
S11302B02FEF3FEFA90163EE77E18091E917909169
S11302C0EA1753D48DB79EB708960FB6F8949EBF1D
S11302D00FBE8DBFDF91CF911F910F91FF90EF90D3
S11302E0DF90CF9008952AE030E040E050E06BEEDC
S11302F077E18091E9179091EA1702D58BEE97E1A7
S11303000895EEEDF7E0A2EEB7E0B183A083138287
S11303101282EAE8F5E1F093DD07E093DC0713824B
S113032012821182108288EA9DE013969C938E9328
S11303301297ED93FC939093D9078093D8079093E9
S1130340DB078093DA0780E090E89093D3078093EB
S1130350D2070895CF93DF93EC01AEEDB7E001C06F
S1130360DF01ED91FC911197EC17FD07C8F312968C
S11303708D919C9113979D01280F391FC217D307A4
S113038049F42A813B81820F931F13969C938E9389
S11303901297ED018A819B819E01280F391FE21774
S11303A0F307C1F42091DC073091DD07E217F3076E
S11303B071F022813381820F931F9B838A83ED9195
S11303C0FC911197808191819983888305C0398339
S11303D0288302C0F983E883CA17DB0711F0CD93A1
S11303E0DC93DF91CF910895EF92FF920F931F93C7
S11303F0CF93DF938C010E94EE0C8091DC079091E7
S1130400DD07892B09F47DDF8091D2079091D30712
S113041080239123892B09F076C00115110549F039
S1130420C80104960817190718F000E010E001C08D
S11304308C010115110509F469C08091DA079091C6
S1130440DB078017910708F464C0C091DE07D091E0
S1130450DF07EEEDF7E002C0FE01EC018A819B812B
S11304608017910720F4888199810097A9F78091DA
S1130470DC079091DD07C817D90709F44DC0E08067
S1130480F18084E0E80EF11C888199819183808356
S11304902A813B81201B310B2930310548F0CE01E4
S11304A0800F911FFC01338322831B830A8352DF55
S11304B02A813B818091DA079091DB07821B930BA1
S11304C09093DB078093DA074091D8075091D907BE
S11304D08417950720F49093D9078093D8078091C7
S11304E0D2079091D307282B392B3B832A83198277
S11304F018828091D6079091D70701969093D707D9
S11305008093D6070BC0E12CF12C08C0E12CF12C10
S113051005C0E12CF12C02C0E12CF12C0E942E0E1E
S1130520E114F10411F40E94DC17C701DF91CF91AB
S11305301F910F91FF90EF9008950F931F93CF9306
S1130540DF93009791F1EC0124974A815B8120911C
S1130550D2073091D307BA0162237323672B29F1A1
S113056068817981672B09F52095309524233523FB
S11305703B832A830E94EE0C8A819B812091DA07B7
S11305803091DB07820F931F9093DB078093DA0788
S1130590CE01E0DE8091D4079091D5070196909327
S11305A0D5078093D4070E942E0EDF91CF911F911F
S11305B00F9108958091DA079091DB070895FC016B
S11305C00396928381834FEF5FEFBA014383548391
S11305D065837683908787839287818710820895C5
S11305E0FC011386128608950F931F93CF93DF9314
S11305F0EB01088119812A813B810F3F4FEF1407DA
S11306002407340721F4FC01A185B28511C0DC0163
S1130610139601C0DF011496ED91FC91159740816A
S1130620518162817381041715072607370790F7F4
S11306301496ED91FC911597FD83EC83D783C683C3
S1130640BF83AE831596DC93CE9314979B878A87DA
S1130650FC0120812F5F2083DF91CF911F910F91A7
S11306600895CF93DF93FC01A285B385C481D5811E
S1130670868197819F838E83C681D781848195816A
S11306809D838C8311968D919C911297E817F9079D
S113069031F48681978112969C938E9311971386D9
S11306A012868C9181508C938C91DF91CF91089517
S11306B0A89590EC88E10FB6F894A8958093600013
S11306C00FBE909360000895FC016083319770839E
S11306D03197108231971082319720E82083319727
S11306E01082319710823197108277974083319727
S11306F0508386970895DCDFA0914D16B0914E1675
S1130700CD91CDBFDD91DEBFFF91EF91DF91CF9110
S1130710BF91AF919F918F917F916F915F914F9115
S11307203F912F911F910F91FF90EF90DF90CF9009
S1130730BF90AF909F908F907F906F905F904F90FD
S11307403F902F901F900F900CBE0F900BBE0F90F8
S11307500FBE0F90089581E008950F920FB6F8949C
S11307600F920BB60F920CB60F921F9211242F9278
S11307703F924F925F926F927F928F929F92AF922D
S1130780BF92CF92DF92EF92FF920F931F932F931A
S11307903F934F935F936F937F938F939F93AF9305
S11307A0BF93CF93DF93EF93FF93A0914D16B09136
S11307B04E160DB60D920EB60D920E948A0FA091A0
S11307C04D16B0914E16CD91CDBFDD91DEBFFF9198
S11307D0EF91DF91CF91BF91AF919F918F917F91D5
S11307E06F915F914F913F912F911F910F91FF90C6
S11307F0EF90DF90CF90BF90AF909F908F907F90BD
S11308006F905F904F903F902F901F900F900CBE71
S11308100F900BBE0F900FBE0F9008950F920FB65E
S1130820F8940F920BB60F920CB60F921F921124EC
S11308302F923F924F925F926F927F928F929F92EC
S1130840AF92BF92CF92DF92EF92FF920F931F93DA
S11308502F933F934F935F936F937F938F939F93C4
S1130860AF93BF93CF93DF93EF93FF93A0914D1674
S1130870B0914E160DB60D920EB60D9213BE0E9497
S1130880020D81110E948A0FA0914D16B0914E164F
S1130890CD91CDBFDD91DEBFFF91EF91DF91CF917F
S11308A0BF91AF919F918F917F916F915F914F9184
S11308B03F912F911F910F91FF90EF90DF90CF9078
S11308C0BF90AF909F908F907F906F905F904F906C
S11308D03F902F901F900F900CBE0F900BBE0F9067
S11308E00FBE0F9008959ADF18950FB6F8940F92E3
S11308F0FC01868D811102C081E001C080E00F906F
S11309000FBE08950FB6F8940F92FC01268D878DC3
S1130910281302C081E001C080E00F900FBE08954B
S11309200F931F93CF93DF93EC01042F1E8D48A1E7
S113093041110CC088819981892B09F042C08C81B6
S11309409D810E949B111D821C8242C0011117C00F
S113095050E08A819B810E944B2C28A18A819B8133
S1130960820F911D9B838A832C813D81821793077B
S113097050F1888199819B838A8380E029C050E06B
S11309808E819F810E944B2C88A190E09195819546
S113099091092E813F81280F391F3F832E8348817F
S11309A059812417350730F42C813D81820F931F20
S11309B09F838E83023049F4112349F0115080E063
S11309C007C080E005C080E003C080E001C080E093
S11309D01F5F1E8FDF91CF911F910F910895FC012E
S11309E040A14423A9F050E026813781240F351F0C
S11309F037832683848195812817390720F08081E5
S1130A00918197838683CB01668177810C944B2CEB
S1130A1008951F93CF93DF93EC010FB6F8940F92D0
S1130A201AA10BC08B89882351F0CE0143960E94F2
S1130A30481081110E948411115011169CF38FEFFC
S1130A408AA30F900FBE0FB6F8940F9219A10BC092
S1130A508885882351F0CE0108960E9448108111A0
S1130A600E948411115011169CF38FEF89A30F90EB
S1130A700FBEDF91CF911F910895CF93DF93EC01C7
S1130A800FB6F8940F92E881F9818F8D28A190E038
S1130A9030E0829FA001839F500D929F500D11243E
S1130AA04E0F5F1F5D834C831E8EFB83EA83019789
S1130AB0289FA001299F500D389F500D1124CF016C
S1130AC0840F951F9F838E838FEF89A38AA361115F
S1130AD00BC08885882371F0CE0108960E944810C7
S1130AE0882341F03ADE06C0CE01089668DDCE01C7
S1130AF0439665DD0F900FBE81E0DF91CF9108959D
S1130B000F931F93F801611103C01183008302C086
S1130B1051834083878F60A361E0CF01AEDF1F91D3
S1130B200F910895DF92EF92FF920F931F93CF934B
S1130B30DF93F82EE62ED42E869FC00111248396CF
S1130B4053DCEC01009741F08C012D2DAC014D5D7F
S1130B505F4F6E2D8F2DD4DFCE01DF91CF911F918A
S1130B600F91FF90EF90DF900895CF92DF92EF9274
S1130B70FF920F931F93CF93DF93CDB7DEB72997DF
S1130B800FB6F894DEBF0FBECDBF7C016B012E8380
S1130B903F834887598710E00FB6F8940F92F70106
S1130BA0968D878D981710F00230B1F4402FB6015E
S1130BB0C701B6DEF7019389992341F0C701439633
S1130BC00E944810882321F0C8DD02C08111C5DDD0
S1130BD00F900FBE81E04AC08E819F81A885B985A0
S1130BE0892B8A2B8B2B21F40F900FBE80E03EC003
S1130BF0111105C0CE0101960E940D1111E00F9054
S1130C000FBEECD60FB6F8940F92F70181A18F3F77
S1130C1009F411A2F70182A18F3F09F412A20F90E7
S1130C200FBEBE016A5F7F4FCE0101960E941E1166
S1130C30811118C0C70166DE882381F04E815F816F
S1130C4068857985C70108960E94EF0FC701E1DE28
S1130C500E942E0E8111A0CF80DD9ECFC701D9DE68
S1130C60FDD79ACFC701D5DEF9D780E029960FB614
S1130C70F894DEBF0FBECDBFDF91CF911F910F91CE
S1130C80FF90EF90DF90CF900895EF92FF920F9333
S1130C901F93CF93DF938A01FC01568D378D531731
S1130CA010F02230F9F4422F7801EC011AA18E8D54
S1130CB0CE0136DE1F3F81F48B898823A9F0CE0153
S1130CC043960E944810882389F0E114F10481F0CE
S1130CD081E0F70180830DC0FF24F394F10EFAA2A2
S1130CE081E007C080E005C081E003C081E001C06D
S1130CF081E0DF91CF911F910F91FF90EF900895C4
S1130D00CF92DF92EF92FF920F931F93CF93DF93D3
S1130D10CDB7DEB729970FB6F894DEBF0FBECDBFAF
S1130D208C016B012E833F8348875987E12C0FB6D2
S1130D30F8940F92F801F68CFF2099F0B601C801DF
S1130D404EDEFA94F801F68E8085882331F0C801CE
S1130D5008960E944810811100DD0F900FBE81E0BB
S1130D604FC08E819F81A885B985892B8A2B8B2BB7
S1130D7021F40F900FBE80E043C0E11006C0CE0105
S1130D8001960E940D11EE24E3940F900FBE26D617
S1130D900FB6F8940F92F80181A18F3F09F411A2C4
S1130DA0F80182A18F3F09F412A20F900FBEBE0179
S1130DB06A5F7F4FCE0101960E941E11811117C0F8
S1130DC0C80193DD882379F04E815F816885798538
S1130DD0C80143960E94EF0FC8011BDE3FD7811163
S1130DE0A6CFBBDCA4CFC80114DE38D7A0CFC8017E
S1130DF010DE34D7C80179DD882309F498CF80E068
S1130E0029960FB6F894DEBF0FBECDBFDF91CF9108
S1130E101F910F91FF90EF90DF90CF900895CF93A3
S1130E20DF93EC010FB6F8940F9289A18F3F09F478
S1130E3019A28AA18F3F09F41AA20F900FBE8E8DBA
S1130E40811104C0CE0143960E940610CE01E1DD5B
S1130E50DF91CF910895FC01448155812281338132
S1130E60240F351F80819181B901681B790BCB0157
S1130E706417750710F0841B950B08950F93FC01FC
S1130E808FE0DF011D928A95E9F7758764875583A2
S1130E9044833783268306870F910895AF92BF92C8
S1130EA0CF92DF92EF92FF920F931F93CF93DF9332
S1130EB06C015B017A01FC01C281D381048115813B
S1130EC00C1B1D0B4017510708F48A01F601848599
S1130ED09585A801B5018C0F9D1F0E944B2C0E1502
S1130EE01F0558F4A701401B510BB501600F711F7A
S1130EF0F601848595850E944B2CCE018E0D9F1D95
S1130F00F601248135818217930710F0821B930B1D
S1130F10F60193838283C701DF91CF911F910F91D3
S1130F20FF90EF90DF90CF90BF90AF900895CF9255
S1130F30DF92EF92FF920F931F93CF93DF931F9251
S1130F401F92CDB7DEB77C016B015A83498321150B
S1130F503105C1F0FC01868580FD08C042175307A6
S1130F6008F49A013A83298381E00FC020173107DE
S1130F7058F042E050E0BE016F5F7F4FC7018EDF43
S1130F8081E003C080E001C080E0882331F0498122
S1130F905A81B601C70182DF02C080E090E00F9061
S1130FA00F90DF91CF911F910F91FF90EF90DF9001
S1130FB0CF900895AF92BF92CF92DF92EF92FF92BB
S1130FC00F931F93CF93DF937C015B01E9014217D9
S1130FD0530708F4EA01209781F1F7010081118198
S1130FE084819581801B910B6E018C179D0708F4F9
S1130FF06C01F70164857585600F711FA601C50139
S11310000E944B2CCC16DD0658F4AE014C195D0938
S1131010F70164857585C5018C0D9D1D0E944B2CBF
S11310200C0F1D1FF701848195810817190710F013
S1131030081B190BF70111830083CE01DF91CF91B7
S11310401F910F91FF90EF90DF90CF90BF90AF90E2
S113105008956F927F928F929F92AF92BF92CF9298
S1131060DF92EF92FF920F931F93CF93DF931F9220
S11310701F92CDB7DEB76C014B015A0179010115FE
S11310801105B1F0FC0160807180A801BE016F5FA1
S11310907F4F90DF89819A81E01AF10AA816B90678
S11310A030F4F60171826082A12CB12C01C05C0184
S11310B09701A501B401C6017DDF0F900F90DF9168
S11310C0CF911F910F91FF90EF90DF90CF90BF9041
S11310D0AF909F908F907F906F900895CF92DF9202
S11310E0EF92FF920F93CF93DF93EC016B014130AA
S11310F011F401E001C000E0C114D10419F4CC24BE
S1131100C394D12CCE014096C817D90720F4219658
S11311106BD97C0102C0E12CF12CE114F10439F00B
S11311209601AE01B701615F7F4FC701A7DEC7011A
S1131130DF91CF910F91FF90EF90DF90CF900895C2
S11311400F930FB6F8940F92FC0120853185232B61
S113115071F422853385232B61F426813781448100
S1131160558164857585068589DE81E003C080E04C
S113117001C080E00F900FBE0F910895FC012481FF
S1131180358180819181820F931F42815381841B19
S1131190950B01978217930710F0821B930B089508
S11311A02F923F924F925F926F927F928F929F9273
S11311B0AF92BF92CF92DF92EF92FF920F931F9361
S11311C0CF93DF93CDB7DEB72B970FB6F894DEBF7E
S11311D00FBECDBF4C017B876A871A010E831F8324
S11311E028873987FC01848195810197268520FF12
S11311F00CC02A01F2E04F0E511C8415950558F4D9
S11312001E821F821886198606C08417950710F05F
S11312102A0101C02C018E819F81A885B985892B63
S11312208A2B8B2B09F436C0CE010196E0D70FB67A
S1131230F8940F92C401A2DF3C018415950538F59A
S113124060E080E090E00E94B6140E948811F401EE
S1131250938782870F900FBEAE80BF80C884D984E5
S1131260E12CF12C00E010E0980140E050E0BA01DC
S113127080E00E94F611F40113861286BE016A5FB3
S11312807F4FCE010196DAD7882389F205C00F90EB
S11312900FBE02C0612C712C6114710419F4C401D5
S11312A06DDF3C0182019301A1016A857B85C40144
S11312B03EDE6C01892BE9F0C401CDDDF401268109
S11312C0378182179307A8F089D3F401808591852B
S11312D0892B71F080859185E12CF12C00E020E0D0
S11312E030E0A90160E00E949D12F401118610868D
S11312F0B5D4C6012B960FB6F894DEBF0FBECDBF92
S1131300DF91CF911F910F91FF90EF90DF90CF90DD
S1131310BF90AF909F908F907F906F905F904F9011
S11313203F902F900895AF92BF92CF92DF92EF92A9
S1131330FF920F931F93CF93DF93EC017B015A012C
S113134069018E8580FF04C08A010E5F1F4F01C0B2
S11313508A01CE0113DF9C01A501B701CE01E7DDAF
S11313605C01892BC1F0CE0176DD2E813F8182178D
S1131370930788F088859985892B69F088859985F4
S1131380E12CF12C00E020E030E0A90160E00E94B3
S1131390941319861886C501DF91CF911F910F917F
S11313A0FF90EF90DF90CF90BF90AF9008954F9251
S11313B05F926F927F928F929F92AF92BF92CF92E1
S11313C0DF92EF92FF920F931F93CF93DF93EC0181
S11313D02B013A01580169018E8580FF05C068948C
S11313E0882481F8912C02C0812C912CA114B10481
S11313F0C104D10431F10FB6F8940F92CE012BDD64
S11314007C018816990640F060E080E090E00E943C
S1131410B6147ED7998788870F900FBE8E149F04C9
S113142098F0E12CF12C00E010E0980140E050E04D
S1131430BA0180E0DBD719861886CE010CDD7C0169
S113144003C0CE0108DD7C018E149F04E8F48401FE
S11314509701A301B201CE01FCDD6C01892BB1F02F
S1131460BDD28A859B85892B69F08A859B85E12C71
S1131470F12C00E020E030E0A90160E00E949D1220
S11314801B861A86EBD302C0C12CD12CC601DF9176
S1131490CF911F910F91FF90EF90DF90CF90BF906D
S11314A0AF909F908F907F906F905F904F90089532
S11314B0E091C715F091C815808181110CC08FEFA0
S11314C09FEFDC018093911590939215A09393154F
S11314D0B09394150895E091C715F091C81507804D
S11314E0F085E02D80819181A281B3818093911553
S11314F090939215A0939315B09394150895CF9358
S1131500DF93EC018B8D9C8D18D8CE0116D8DF911A
S1131510CF9108954F925F926F927F928F929F9294
S1131520AF92BF92CF92DF92EF92FF920F93CF933D
S1131530DF932C015B014A013901E60165EA70E0A1
S11315408B8D9C8D0E94542C8B8D9C8D21E0821A56
S11315509108880E991EA114B10489F415C0822F34
S113156090E0F501E80FF91F3081DE01A80FB91FE3
S11315705D963C938081882329F02F5F01C020E091
S1131580203168F31CA601C01D8E0A3008F009E062
S11315900A8F0DA71EA6CE01029622D8CE010E9662
S11315A01FD8DB87CA878AE090E0A0E0B0E0801B08
S11315B09109A109B1098E879F87A88BB98BDF8B0D
S11315C0CE8B84E0FE01BF96DF011D928A95E9F778
S11315D01BAAA301B201C40177D899838883E114BB
S11315E0F10419F0F701D183C083DF91CF910F91FA
S11315F0FF90EF90DF90CF90BF90AF909F908F902F
S11316007F906F905F904F900895CF93C0E009C092
S11316102BE0C29FC001112481529A4E0E94DF0226
S1131620CF5FCA30A8F384ED95E10E94DF0289EC14
S113163095E10E94DF028AEB95E10E94DF028FEAC6
S113164095E10E94DF0283EA95E10E94DF0284EDC6
S113165095E19093C8158093C71589EC95E1909313
S1131660C6158093C515CF910895CF93DF93EC01F0
S11316700FB6F8940F928091A2158F5F8093A215F4
S113168080914D1690914E16892B51F4D0934E169D
S1131690C0934D168091A215813091F4B6DF10C02D
S11316A080919C1581110CC0E0914D16F0914E165D
S11316B0928D8A8D891720F0D0934E16C0934D16C3
S11316C0809195158F5F80939515EA8D80919D1576
S11316D08E1710F4E0939D158BE08E9FF00111247A
S11316E0E152FA4E0180F281E02DFF83EE832681E0
S11316F0378139872887A681B7819E012E5F3F4FA6
S113170015963C932E93149737832683EA8D8E9FE8
S1131710F0011124E152FA4EFD87EC8780818F5F3E
S113172080830F900FBE80919C15882349F0E0912F
S11317304D16F0914E16928D8A8D981708F40DD897
S1131740DF91CF910895CF93DF931BC00FB6F89428
S11317500F92E091B615F091B715C085D185CE01F1
S113176002960E9431038091A21581508093A215A4
S11317708091AE1581508093AE150F900FBECE01AF
S1131780BEDE8091AE158111E1CFDF91CF91089536
S11317908F929F92AF92BF92CF92DF92EF92FF927D
S11317A0CF93DF936B017C01C42F80909E159090A2
S11317B09F15A090A015B090A11580914D16909101
S11317C04E1602960E9431038FEFC816D806E8061B
S11317D0F806B1F5CC23A1F1E3EAF5E1A181B281E8
S11317E0C0914D16D0914E16BF83AE83C0914D1655
S11317F0D0914E1616968D919C911797998788874C
S11318001696CD91DC91179780914D1690914E16B6
S113181002969D838C8380914D1690914E1602966C
S113182017969C938E931697A0914D16B0914E16D1
S11318301D96FC93EE931C9780818F5F80833FC03D
S1131840C80CD91CEA1CFB1CE0914D16F0914E16F5
S1131850C282D382E482F582C814D904EA04FB0468
S113186068F460914D1670914E168091C515909153
S1131870C6156E5F7F4F0E94F40221C060914D1621
S113188070914E168091C7159091C8156E5F7F4F69
S11318900E94F4028091911590919215A091931554
S11318A0B0919415C816D906EA06FB0640F4C09216
S11318B09115D0929215E0929315F0929415DF91C0
S11318C0CF91FF90EF90DF90CF90BF90AF909F901B
S11318D08F9008952F923F924F925F926F927F92D2
S11318E08F929F92AF92BF92CF92DF92EF92FF922C
S11318F00F93CF93DF933C011B014A012901CA01D5
S11319000E94F4016C01892B71F084E390E00E9441
S1131910F401EC01892B19F0DC8ECB8E06C0C601D4
S11319200E949D0202C0C0E0D0E0209761F0A12C8B
S1131930B12C6E019201A401B101C301EBDDCE0112
S113194094DE81E001C08FEFDF91CF910F91FF9082
S1131950EF90DF90CF90BF90AF909F908F907F904B
S11319606F905F904F903F902F900895EF92FF9269
S11319700F930F2EFFE8EF2EF5E1FF2EF02D00E080
S113198020E030E040EC50E06AE972E08DEC90E059
S1131990A1DF813011F40E945A158130C9F4F89402
S11319A08FEF9FEFDC018093911590939215A09394
S11319B09315B093941581E080939C1510929E1515
S11319C010929F151092A0151092A1150E947B03EE
S11319D0809106020F91FF90EF90089580918E15EB
S11319E08F5F80938E1508950FB6F8940F926091CF
S11319F09E1570919F158091A0159091A1150F903F
S1131A000FBE0895CF92DF92EF92FF92CF93DF93B0
S1131A1080918E15811105C1C0909E15D0909F159F
S1131A20E090A015F090A1158FEFC81AD80AE80A23
S1131A30F80AC0929E15D0929F15E092A015F092DC
S1131A40A115C114D104E104F104B1F48091C715C6
S1131A509091C8152091C5153091C6153093C815BD
S1131A602093C7159093C6158093C515809196153C
S1131A708F5F809396151CDD80919115909192153E
S1131A80A0919315B0919415C816D906EA06FB06E1
S1131A9020F480E0B2C081E001C080E0E091C7158D
S1131AA0F091C815908191110CC04FEF5FEFBA010E
S1131AB040939115509392156093931570939415D8
S1131AC09CC0E091C715F091C8150780F085E02D02
S1131AD00084F185E02D4281538164817581C416AF
S1131AE0D506E606F70648F44093911550939215EF
S1131AF0609393157093941580C0A485B585C681B1
S1131B00D781208531853F832E83C085D185268169
S1131B1037813D832C8311964D915C9112979F01DF
S1131B202E5F3F4F4217530731F44085518512967B
S1131B305C934E931197158614869C9191509C93B7
S1131B40A08DB18D109709F1C289D3894489558933
S1131B505F834E83C489D589428953895D834C83CD
S1131B6011966D917C911297AF01425F5F4F64179C
S1131B70750731F44489558912965C934E931197F5
S1131B80118E108E9C9191509C93A28D90919D15D5
S1131B909A1710F4A0939D159BE09A9FD0011124ED
S1131BA0A152BA4E11960D90BC91A02DB783A68375
S1131BB016964D915C911797518740871696CD9153
S1131BC0DC9117973D832C8317963C932E9316979D
S1131BD0A28D9A9FD0011124A152BA4EB587A48731
S1131BE09C919F5F9C93228DE0914D16F0914E162F
S1131BF0928D291708F04FCF51CFE0914D16F091F7
S1131C004E16E28D9BE0E99FF0011124E152FA4E59
S1131C109081923008F081E090919715911116C04F
S1131C2016C08091981590919915A0919A15B0912C
S1131C309B150196A11DB11D80939815909399153C
S1131C40A0939A15B0939B1580E001C081E0DF91C9
S1131C50CF91FF90EF90DF90CF900895CF92DF92D5
S1131C60EF92FF92CF93DF930FB6F8940F92809187
S1131C708E15815080938E1580918E158111BEC072
S1131C808091A215811188C0BCC0E091C115F0916A
S1131C90C2150084F185E02DA08DB18DC289D38950
S1131CA0848995899F838E83C489D5898289938900
S1131CB09D838C8311962D913C911297CF010E96A2
S1131CC02817390731F48489958912969C938E9349
S1131CD01197118E108E8C9181508C93A485B585AB
S1131CE0C681D781808591859F838E83C085D18568
S1131CF0868197819D838C8311968D919C911297F7
S1131D009F012E5F3F4F8217930731F480859185A1
S1131D1012969C938E931197158614868C918150FC
S1131D208C93A28D80919D158A1710F4A0939D1514
S1131D308BE08A9FD0011124A152BA4E11960D90C6
S1131D40BC91A02DB783A68316964D915C911797ED
S1131D50518740871696CD91DC9117973D832C834C
S1131D6017963C932E931697A28D8A9FD001112427
S1131D70A152BA4EB587A4878C918F5F8C93928DB4
S1131D80A0914D16B0914E165A968C91981730F03A
S1131D9081E08093971502C0E0E0F0E08091BA15ED
S1131DA0811173CFEF2B09F083DBC0909815D0908D
S1131DB09915E0909A15F0909B15C114D104E10493
S1131DC0F104A1F01FDE882319F081E080939715B8
S1131DD081E0C81AD108E108F108A1F7109298151A
S1131DE01092991510929A1510929B15809197153F
S1131DF0882331F00E94AD0381E003C080E001C07C
S1131E0080E00F900FBEDF91CF91FF90EF90DF90B5
S1131E10CF9008958F929F92AF92BF92CF92DF920C
S1131E20EF92FF921F93CF93DF93EC016A017B0142
S1131E30D5DD80909E1590909F15A090A015B09030
S1131E40A11588819981AA81BB81AC01BD014C0D8A
S1131E505D1D6E1D7F1D88169906AA06BB0660F4DB
S1131E60481759076A077B0798F484169506A6064F
S1131E70B70680F010E013C0481759076A077B07BC
S1131E8058F084169506A606B70640F010E007C081
S1131E9010E005C011E003C011E001C011E0488367
S1131EA059836A837B83112341F0CB01BA016819FA
S1131EB079098A099B0940E06BDCD0DE811102C0FC
S1131EC00E94AD03812FDF91CF911F91FF90EF907E
S1131ED0DF90CF90BF90AF909F908F900895CF9256
S1131EE0DF92EF92FF926B017C01672B682B692BC9
S1131EF039F074DD40E0C701B6014ADCAFDE01C051
S1131F0080E0811102C00E94AD03FF90EF90DF904A
S1131F10CF90089580918E15882321F081E08093DD
S1131F209715089510929715E0914D16F0914E165D
S1131F3020813181E0914D16F0914E16838D948D60
S1131F408217930760F060914D1670914E16635E90
S1131F507F4F80914D1690914E160E94E817809104
S1131F609D1501C08150282F30E09BE0929FF00125
S1131F70939FF00D1124E152FA4E9081992391F32D
S1131F809BE0929FA001939F500D1124DF010180DB
S1131F90F281E02D0480F581E02D1296FC93EE93FE
S1131FA011974E515A4EE417F50729F4448155818F
S1131FB0FD01528341839BE0929FF001939FF00DBA
S1131FC01124E152FA4E0180F281E02D2085318501
S1131FD030934E1620934D1680939D150895CF92FD
S1131FE0DF92EF92FF926A017B0160914D1670912E
S1131FF04E16625F7F4F0E94F40241E0C701B601B2
S1132000C7DBFF90EF90DF90CF900895CF93DF93DD
S1132010FC01CB01BA01A181B281C0914D16D091CE
S11320204E16BB8BAA8BC0914D16D0914E161696A8
S11320304D915C9117975D8B4C8B1696CD91DC91ED
S1132040179740914D1650914E16425F5F4F5D8336
S11320504C8340914D1650914E16425F5F4F179638
S11320605C934E931697A0914D16B0914E165996C7
S1132070FC93EE93589730813F5F3083222319F00D
S11320806FEF7FEFCB01422F83DBDF91CF91089578
S1132090CF93DF93DC011796ED91FC9118970084A0
S11320A0F185E02DA08DB18DC289D389848995896C
S11320B09F838E83C489D589828993899D838C83E8
S11320C011968D919C9112979F01225F3F4F821729
S11320D0930731F48489958912969C938E93119772
S11320E0118E108E8C9181508C9380918E1581115C
S11320F052C0A485B585C681D781808591859F838B
S11321008E83C085D185868197819D838C8311962A
S11321108D919C9112979F012E5F3F4F82179307D9
S113212031F48085918512969C938E931197158630
S113213014868C9181508C93A28D80919D158A1761
S113214010F4A0939D158BE08A9FD0011124A15215
S1132150BA4E11960D90BC91A02DB783A683169606
S11321604D915C911797518740871696CD91DC91DC
S113217017973D832C8317963C932E931697A28D25
S11321808A9FD0011124A152BA4EB587A4878C919D
S11321908F5F8C931CC04AEB55E1DA011196CD9107
S11321A0DC911297D38BC28B8E819F81958B848B0C
S11321B08E819F81DC0115963C932E9314973F8367
S11321C02E83518F408FDA018C918F5F8C93928D87
S11321D0E0914D16F0914E16828D891720F481E01E
S11321E08093971501C080E0DF91CF9108950FB6D9
S11321F0F8940F9220919615FC01208340919E152E
S113220050919F156091A0157091A115418352833F
S1132210638374830F900FBE089520919615FC017B
S1132220208340919E1550919F156091A015709147
S1132230A115418352836383748308958F929F927F
S1132240AF92BF92CF92DF92EF92FF920F931F93C0
S1132250CF93DF93FB010FB6F8940F92C0909E15B5
S1132260D0909F15E090A015F090A115DC01119677
S11322700D911D912D913C91149746015701801A9F
S1132280910AA20AB30A40815181628173814F3F4E
S1132290BFEF5B076B077B0739F1EC01B881A091B5
S11322A09615BA1759F0C016D106E206F30630F0B7
S11322B0108211821282138281E017C0841695065F
S11322C0A606B70658F4481959096A097B094083D8
S11322D0518362837383A1DF80E007C0108211827F
S11322E01282138281E001C080E00F900FBEDF9163
S11322F0CF911F910F91FF90EF90DF90CF90BF90FF
S1132300AF909F908F90089581E0809397150895E2
S113231080914D1690914E16089580919C158823B6
S113232031F080918E15811104C082E0089581E01E
S1132330089580E008950F931F93CF93DF93FC01DA
S1132340892B09F449C086A5815086A7228D95A5BD
S1132350291709F443C0811143C0EF018F010E5FB7
S11323601F4FC8010E943103EDA5EA8F8AE090E077
S1132370A0E0B0E08E1B9109A109B1098E879F8767
S1132380A88BB98B80919D158E1710F4E0939D1541
S11323908BE08E9FF0011124E152FA4E0180F2810C
S11323A0E02DFF83EE832681378139872887A68134
S11323B0B78115961C930E93149717830683EA8DA1
S11323C08E9FF0011124E152FA4EFD87EC87808143
S11323D08F5F808381E005C080E003C080E001C09E
S11323E080E0DF91CF911F910F9108954F925F92FA
S11323F06F927F92AF92BF92CF92DF92EF92FF9251
S11324000F931F93CF93DF93280139010FB6F894EC
S11324100F92E0914D16F0914E16C82FD0E0EC0FBC
S1132420FD1F83A9823071F1E0914D16F0914E1693
S1132430CE01880F991F880F991FE80FF91F87A5F0
S113244090A9A1A9B2A9409550956095709548238B
S113245059236A237B2347A750AB61AB72ABE0914E
S11324604D16F0914E16EC0FFD1F81E083ABA114C5
S1132470B104C104D10431F041E0C601B50188D9E9
S11324800E94AD030F900FBE0FB6F8940F92E114A3
S1132490F104A1F0E0914D16F0914E16CE01880F93
S11324A0991F880F991FE80FF91F87A590A9A1A963
S11324B0B2A9F70180839183A283B383E0914D167F
S11324C0F0914E16EC0FFD1F83A98230E9F4E091E0
S11324D04D16F0914E16CE01880F991F880F991F43
S11324E0E80FF91F87A590A9A1A9B2A94094509417
S11324F060947094482259226A227B2247A650AAEB
S113250061AA72AA81E001C080E020914D16309149
S11325104E16C20FD31F1BAA0F900FBEDF91CF918F
S11325201F910F91FF90EF90DF90CF90BF90AF90ED
S11325307F906F905F904F9008958F929F92AF928B
S1132540BF92EF92FF920F93CF93DF93DC010FB60C
S1132550F8940F92E114F10489F0E62FF0E0EE0F05
S1132560FF1FEE0FFF1FE80FF91F87A490A8A1A873
S1132570B2A8F70180829182A282B38270E0FD0149
S1132580E60FF71F83A992E093AB023001F118F430
S1132590013031F04DC0033079F10430D1F148C03D
S11325A0660F771F660F771FFD01E60FF71F87A4DD
S11325B090A8A1A8B2A8BA01A901482959296A2951
S11325C07B2947A750AB61AB72AB01E034C0660F07
S11325D0771F660F771FFD01E60FF71F47A550A968
S11325E061A972A94F5F5F4F6F4F7F4F47A750ABF1
S11325F061AB72AB01E01FC0660F771F660F771FD8
S1132600FD01E60FF71F27A730AB41AB52AB01E04A
S113261012C0823079F0660F771F660F771FFD01B5
S1132620E60FF71F27A730AB41AB52AB01E003C065
S113263001E001C000E0813009F069C01C96ED9111
S1132640FC911D971696CD91DC91179718968D9154
S11326509C9119979F838E831896CD91DC9119973D
S113266016968D919C9117979D838C83818192817D
S11326709D012E5F3F4F8217930731F418968D9179
S11326809C911997928381831D961C921E921C978C
S11326908081815080835A96EC915A9780919D1540
S11326A08E1710F4E0939D158BE08E9FF00111249A
S11326B0E152FA4E0180F281E02D1796FC93EE93DD
S11326C016974681578119965C934E931897C68145
S11326D0D7813D832C83378326835A96EC915A976E
S11326E08E9FF0011124E152FA4E1D96FC93EE9355
S11326F01C9780818F5F80835A969C91E0914D1640
S1132700F0914E16828D891710F40E94AD030F903C
S11327100FBE802FDF91CF910F91FF90EF90BF906C
S1132720AF909F908F9008958F929F92AF92BF9297
S1132730CF92DF92EF92FF920F93CF93DF93DC015E
S1132740E114F10489F0E62FF0E0EE0FFF1FEE0F25
S1132750FF1FE80FF91F87A490A8A1A8B2A8F7014A
S113276080829182A282B38270E0FD01E60FF71F9E
S113277093A982E083AB023001F118F4013031F007
S11327804DC0033079F10430D1F148C0660F771F92
S1132790660F771FFD01E60FF71F87A490A8A1A875
S11327A0B2A8BA01A901482959296A297B2947A74E
S11327B050AB61AB72AB81E034C0660F771F660F1C
S11327C0771FFD01E60FF71F47A550A961A972A95C
S11327D04F5F5F4F6F4F7F4F47A750AB61AB72ABFB
S11327E081E01FC0660F771F660F771FFD01E60F9C
S11327F0F71F27A730AB41AB52AB81E012C0923038
S113280079F0660F771F660F771FFD01E60FF71F3C
S113281027A730AB41AB52AB81E003C081E001C0DC
S113282080E0913009F096C090918E1591115FC0AF
S11328301C96ED91FC911D971696CD91DC911797FE
S113284018962D913C9119973F832E831896CD911C
S1132850DC91199716962D913C9117973D832C8303
S1132860418152819D012E5F3F4F4217530731F43E
S113287018964D915C911997528341831D961C9231
S11328801E921C979081915090835A96EC915A977E
S113289090919D159E1710F4E0939D159BE09E9FCB
S11328A0F0011124E152FA4E0180F281E02D1796D5
S11328B0FC93EE9316974681578119965C934E9339
S11328C01897C681D7813D832C83378326835A96F4
S11328D0EC915A979E9FF0011124E152FA4E1D96F5
S11328E0FC93EE931C9790819F5F908321C06AEBC9
S11328F075E1FB01C181D2815396DC93CE9352974B
S11329002E813F8155963C932E9354974E815F813F
S11329109D01225F3F4FFA01358324833F832E8339
S113292059967C936E935897FB0190819F5F908397
S11329305A962C91E0914D16F0914E16928D921765
S113294048F4C114D10419F091E0F601908391E0A8
S113295090939715DF91CF910F91FF90EF90DF90B7
S1132960CF90BF90AF909F908F900895009721F4DF
S113297080914D1690914E160FB6F8940F9270E018
S1132980FC01E60FF71F23A9223031F4FC01E60F06
S1132990F71F13AA81E001C080E00F900FBE0895D5
S11329A0DC01E0915916F0915A16808191E0811171
S11329B090E09C93911108C00780F085E02D608120
S11329C0718182819381089560E070E0CB01089564
S11329D0CF92DF92EF92FF920F931F93FC014283F9
S11329E053836483758393878287041715072607A7
S11329F03707C0F00C191D092E093F0986859785F4
S1132A00A089B189081719072A073B0700F5BF01F8
S1132A106E5F7F4F80915716909158160E94F40272
S1132A2080E018C00C151D052E053F0528F44C1533
S1132A305D056E057F0568F4BF016E5F7F4F809171
S1132A40591690915A160E94F40280E003C081E066
S1132A5001C081E01F910F91FF90EF90DF90CF9024
S1132A6008950FB6F8940F928091551690915616CA
S1132A70892BE9F486E696E10E94DF028BE596E174
S1132A800E94DF0286E696E190935A1680935916C7
S1132A908BE596E1909358168093571640E067E0D3
S1132AA08AE00E94920590935616809355160F90D3
S1132AB00FBE0895EF92FF920F93D3DF80915516C6
S1132AC090915616892B91F00F2EF3E5EF2EF6E137
S1132AD0FF2EF02D03E020E030E040EC50E06FE901
S1132AE072E087ED90E00E946A0C01C080E00F91D3
S1132AF0FF90EF9008958F929F92AF92BF92CF92E2
S1132B00DF92EF92FF920F931F93CF93DF93CDB792
S1132B10DEB727970FB6F894DEBF0FBECDBFE091A6
S1132B205516F0915616309781F169832A833B83B9
S1132B304C835D839F838E836630F4F4EEDB8230B6
S1132B4069F400E0A7019601BE016F5F7F4F809199
S1132B505516909156160E94B50518C000E020E065
S1132B6030E0A901BE016F5F7F4F809155169091AF
S1132B7056160E94B5050AC020E0A801BE016F5F89
S1132B807F4FCF010E94450601C080E027960FB613
S1132B90F894DEBF0FBECDBFDF91CF911F910F918F
S1132BA0FF90EF90DF90CF90BF90AF909F908F9069
S1132BB008958F929F92AF92BF92CF92DF92EF923D
S1132BC0FF920F931F93CF93DF933BC00780F08551
S1132BD0E02D80809180A280B380C085D1858E0154
S1132BE00E5F1F4FC8010E943103EC89FD89CE019D
S1132BF019958E8982FF25C08E859F85A889B989FC
S1132C00880D991DAA1DBB1D88169906AA06BB0628
S1132C1070F48A839B83AC83BD83DB87CA87B80146
S1132C208091591690915A160E94F4020AC0C12C40
S1132C30D12C760100E010E0A501940160E0CE0102
S1132C405ADFE0915916F0915A1680818111BECF56
S1132C50809157169091581690935A16809359164E
S1132C60F0935816E0935716DF91CF911F910F916F
S1132C70FF90EF90DF90CF90BF90AF909F908F9098
S1132C800895CF92DF92EF92FF92CF93DF93EC01FE
S1132C900E94F40C6B017C0180914F1690915016A8
S1132CA0A0915116B0915216C816D906EA06FB0631
S1132CB020F47FDF81E0888301C01882C0924F1620
S1132CC0D0925016E0925116F0925216C701B601F6
S1132CD0DF91CF91FF90EF90DF90CF9008954F92C6
S1132CE05F926F927F928F929F92AF92BF92CF9298
S1132CF0DF92EF92FF920F931F93CF93DF934B01D9
S1132D005C0129013A01E0915916F0915A160780A5
S1132D10F085E02DC085D185CE0102960E94310355
S1132D208E8982FF1BC04E855F8568897989480D2D
S1132D30591D6A1D7B1D7501640193018201CE0139
S1132D4047DE882369F0C12CD12C760100E010E025
S1132D50A501940160E0CE01CEDE02C08E7F8E8B91
S1132D60EC89FD89CE011995DF91CF911F910F91C7
S1132D70FF90EF90DF90CF90BF90AF909F908F9097
S1132D807F906F905F904F9008958F929F92AF9233
S1132D90BF92CF92DF92EF92FF921F93CF93DF9374
S1132DA01F92CDB7DEB76B017C01142F0E94EE0C8D
S1132DB0CE01019666DF4B015C01898181112DC032
S1132DC011110DC08C149D04AE04BF0440F00E9488
S1132DD02E0EA5019401C701B60181DF20C0112385
S1132DE041F0E0915716F0915816808111E081115D
S1132DF010E0B701A601481959096A097B09212F76
S1132E0080915516909156160E940F070E942E0E1F
S1132E10811105C00E94AD0302C00E942E0E0F90C6
S1132E20DF91CF911F91FF90EF90DF90CF90BF90F3
S1132E30AF909F908F900895AF92BF92CF92DF9200
S1132E40EF92FF920F931F93CF93DF93CDB7DEB72B
S1132E5028970FB6F894DEBF0FBECDBF82C089811C
S1132E6088230CF47EC0AE80BF80D5011C968D9162
S1132E709C911D97892B21F0C50102960E94310374
S1132E80CE010896FEDE8B019C01E9810E2E000C1A
S1132E90FF0BEA30F10508F064C08827EE58FF4FB5
S1132EA08F4F0C94042BF50186898160868BCA8030
S1132EB0DB80EC80FD8046855785608971894C0DE7
S1132EC05D1D6E1D7F1DC50183DD882309F449C086
S1132ED0D5015496ED91FC915597C5011995F501CD
S1132EE0868982FF3EC04A815B816C817D818685B3
S1132EF09785A089B1899A01AB01280F391F4A1F10
S1132F005B1FC12CD12C760100E010E060E0C5010C
S1132F10F2DD27C0D50156968C9156978E7F569632
S1132F208C931FC0F50186898160868B4A815B8101
S1132F306C817D8146875787608B718B400F511F51
S1132F40621F731F68017901C50142DD0AC0F501E2
S1132F50868981FD04C0C5010E949D0202C08E7F46
S1132F60868B20E030E0A901BE016F5F7F4F809126
S1132F705516909156160E948006811170CF28969E
S1132F800FB6F894DEBF0FBECDBFDF91CF911F9176
S1132F900F91FF90EF90DF90CF90BF90AF90089586
S1132FA0089584B1806884B985B1806885B908952D
S1132FB083B1806883B90895F4DF2FEF80E792E04E
S1132FC0215080409040E1F700C00000F1DFF5CFD0
S1132FD0E8DF2FEF87EA91E6215080409040E1F747
S1132FE000C00000E5DFF5CF0F93CF93DF931F926E
S1132FF01F92CDB7DEB79A83898300E02FEF3FEFAE
S1133000A901BE016F5F7F4F8091F1179091F21774
S11330100E94B5050F900F90DF91CF910F91089505
S113302040E062E08AE00E9492059093F217809358
S1133030F11708950E946C21811105C084EF97E176
S11330400C946721089587EA92E00C94BD2C0895AE
S1133050CF93DF931F921F92CDB7DEB72CED35E0EF
S113306040E050E0BE016F5F7F4F8091F117909177
S1133070F2170E94800689819A810F900F90DF9148
S1133080CF91089540E062E08AE00E949205909317
S1133090F6178093F51740E062E08AE00E949205FB
S11330A09093F4178093F31708950F93CF93DF93BE
S11330B01F921F92CDB7DEB79A83898300E02FEF6A
S11330C03FEFA901BE016F5F7F4F8091F51790918B
S11330D0F6170E94B5050F900F90DF91CF910F91D5
S11330E008950F93CF93DF931F921F92CDB7DEB74E
S11330F09A83898300E02FEF3FEFA901BE016F5F40
S11331007F4F8091F3179091F4170E94B5050F90AB
S11331100F90DF91CF910F910895EF92FF920F934B
S11331201F93CF93DF9300D01F92CDB7DEB70E94D9
S1133130F40C69837A838B839C8388D3882341F03E
S113314084EB92E09F938F930E94AA2C0F900F9090
S113315043E050E060E070E0CE0101960E940A0F67
S11331608AD3882341F084EC92E09F938F930E944A
S1133170AA2C0F900F9040E050E0BA01CE010196C6
S11331800E940A0F89D3C8D28B019BD3C0D27B0182
S11331900036110588F085E6E816F1046CF040E08D
S11331A050E0BA01CE0101960E940A0F75D3B4D241
S11331B08B0187D3ACD27B01C80193DFC70175DFD4
S11331C00F900F900F900F90DF91CF911F910F915F
S11331D0FF90EF900895CF93DF931F921F92CDB786
S11331E0DEB72CED35E040E050E0BE016F5F7F4F6D
S11331F08091F5179091F6170E94800689819A8133
S11332000F900F90DF91CF910895CF93DF931F928A
S11332101F92CDB7DEB72CED35E040E050E0BE01A3
S11332206F5F7F4F8091F3179091F4170E9480068F
S113323089819A810F900F90DF91CF910895CF9358
S1133240DF93CDB7DEB766970FB6F894DEBF0FBE37
S1133250CDBF81E0B0D462E070E080E090E00E94F5
S11332606F0F80E0A8D466E970E080E090E00E94EF
S11332706F0F5AD40FEF1FEF980146E150E0BE01E3
S11332806F5F7F4F8091F7179091F8170E94D709CD
S11332909A8189811F929F931F928F9385ED92E06B
S11332A09F938F930E94AA2C0F900F900F900F90D2
S11332B00F900F90DFCF0F931F93CF93DF93CDB772
S11332C0DEB764970FB6F894DEBF0FBECDBF81E0C2
S11332D00E94DC267ED4FAD69F938F9386E093E0F7
S11332E09F938F930E94AA2CF2D5F0D69F938F932D
S11332F089E193E09F938F930E94AA2C8E010F5F24
S11333001F4FC80178D4E2D61F930F939F938F93D6
S113331082E393E09F938F930E94AA2CC80187D4E1
S1133320D5D69F938F931F930F9386E493E09F9337
S11333308F930E94AA2CA8016BE573E08CE793E0BD
S1133340A4D6C4D69F938F931F930F938BE593E0DA
S11333509F938F938CE793E09F938F938DE893E0F3
S11333609F938F930E94AA2C95D4B0D69F938F934A
S113337083EC93E09F938F930E94AA2C0FB6F8944A
S1133380DEBF0FBECDBF81E07FD5A0D69F938F93C4
S113339082ED93E09F938F930E94AA2C84EF91E097
S11333A07ED594D69F938F9381E08F9384EF8F93F0
S11333B083EF93E09F938F930E94AA2C0FB6F89407
S11333C0DEBF0FBECDBF1AE080E06AD4082F7ED6E0
S11333D09F938F931F921F9383E194E09F938F9306
S11333E00E94AA2C0F900F900F900F900F900F90A7
S11333F0083059F080E00E94402766E371E080E0E5
S113340090E00E946F0F1150F9F6083041F483E305
S113341094E00E94BD2C81E00E94222709C081E033
S11334200E94312780E00E94FF260E94AD03FDCF59
S113343064960FB6F894DEBF0FBECDBFDF91CF9177
S11334401F910F910895CF93DF93CDB7DEB76A979D
S11334500FB6F894DEBF0FBECDBF81E0ACD362E0FF
S113346070E080E090E00E946F0F80E0A4D366E9F2
S113347070E080E090E00E946F0F56D31CDFE1E71C
S1133480F6E188E0818382E080830E94F40C698302
S11334907A838B839C8367D764E681E04CD78CE482
S11334A094E00E94BD2C48EA58E460E070E0CE014C
S11334B001960E940A0F0E9473018C01DC0113968D
S11334C08C9113978F9312968C9112978F931196D8
S11334D08C9111978F938C918F9315968C9115974E
S11334E08F9314968C918F9380E694E09F938F939F
S11334F00E94AA2CE1E7F6E1128281E08383D801DD
S113350011968C91119784838C91858315968C9157
S11335101597868314968C911497878313968C91B0
S11335201397808712968C91818783E00E9452279B
S113353061E776E180E0DDD3C9D59F938F938BE873
S113354094E09F938F930E94AA2C0FEF1FEF980192
S113355046E150E0BE016B5F7F4F8091F717909179
S1133560F8170E94D7099E818D811F929F931F9205
S11335708F9385ED92E09F938F930E94AA2C8E8166
S11335800FB6F894DEBF0FBECDBF843009F083CFF1
S11335908F8190E0982F88272885820F911D9F9313
S11335A08F9380EA94E09F938F930E94AA2C0F90AC
S11335B00F900F900F906FCFEF92FF920F93CF93D6
S11335C0E12CF12C082F20E030E048E851E06FEACC
S11335D074E083E29AE10E946A0C20E030E048E85B
S11335E051E066EB74E08FE199E10E946A0CCF919F
S11335F00F91FF90EF900895CF93DF9300D01F9227
S1133600CDB7DEB70E94F40C69837A838B839C83E5
S11336104CED55E060E070E0CE0101960E940A0F87
S11336207CDD08DDF5CFCF93DF9300D01F92CDB7BB
S1133630DEB70E94F40C69837A838B839C8348E908
S11336405AE360E070E0CE0101960E940A0F0E94E6
S11336501101F5CFEF92FF920F93E12CF12C00E0D2
S113366020E030E040EC50E061EC74E08CEF9AE153
S11336700E946A0C20E030E040EC50E06DEC74E015
S113368083E19BE10E946A0C0F91FF90EF900895F3
S1133690E1DF0E94DA029F938F938DED94E09F9374
S11336A08F930E94AA2C0E94B60C0F900F900F903B
S11336B00F9008958CEE94E00E94BD2C81B1816836
S11336C081B980E090E00E948725AADCDBDC0E94BF
S11336D0080183E0D7D5A2D085E00E948E2641E080
S11336E060E070E086E190E00E946E089093F81725
S11336F08093F717BC0181E01ED283E05DCF08956B
S1133700D9DF8CEE94E00E94BD2CC2DFFFCF04D041
S11337106894B11150C0089533D088F09F5790F049
S1133720B92F9927B751A0F0D1F0660F771F881FE2
S1133730991F1AF0BA95C9F712C0B13081F03AD086
S1133740B1E0089537C0672F782F8827B85F39F024
S1133750B93FCCF3869577956795B395D9F73EF441
S113376090958095709561957F4F8F4F9F4F0895E9
S113377057FD9058440F551F59F05F3F71F047951E
S1133780880F97FB991F61F09F3F79F08795089503
S1133790121613061406551FF2CF4695F1DF08C022
S11337A0161617061806991FF1CF8695710561053F
S11337B008940895E894BB2766277727CB0197F9E7
S11337C008956530F1F4FA0180818F7390E0982FA9
S11337D088272181822B90930A0280930902828197
S11337E0F0E48F9FC0011124FA01238126952695C8
S11337F0822B909308028093070281E080938716BE
S11338000895643051F080E090E49093080280932E
S1133810070290930A028093090208950F931F935D
S113382001EE1BE120E034E244EF50E060E087E287
S11338300E947527909389168093881621E0892B1E
S113384009F020E0822F1F910F910895809188162E
S113385090918916009759F040E060E070E00E9472
S1133860C627843031F41092871680E0089582E0F0
S1133870089583E0089580918816909189160097A1
S113388039F064E00E941228853021F083E0089525
S113389082E0089580E008956091090270910A021F
S11338A080E090E00E94F02920E030E048EC52E40F
S11338B00E94552A20E038EF4FE756E40C948529FE
S11338C00895609107027091080280E090E00E94E0
S11338D0F02920E030E045E253E40E94552A20E03C
S11338E038EF4FE756E40E94852920E030E040E2BB
S11338F052E40C941E2908950F931F93CF93DF93E2
S11339001F921F92CDB7DEB78C0119822DC0E091B2
S1133910EE16EC3250F481E08E0F8093EE16F0E058
S1133920E05EF84E8A81808302C01092EE168A818E
S11339308A30D1F44091EE1650E0FA01E25EF84E7E
S11339401082415051099E012F5F3F4F60E277E1A1
S11339508091F1169091F2160E9493098981811148
S11339600E94AD031092EE16BE016E5F7F4FC80138
S113397038D6882361F20F900F90DF91CF911F9179
S11339800F9108950F931F93CF93DF938C01EB0155
S11339908091F1169091F2160E94A008B8018AE86D
S11339A096E10E948B2C209779F0EAE8F6E10190E9
S11339B00020E9F7319780E290E091838083BE0193
S11339C08AE896E10E94802CEAE8F6E1DF010D9096
S11339D00020E9F711978DE09AE011969C938E935D
S11339E012961C9201900020E9F73197EA58F641AB
S11339F0AE2F8AE896E1AC016A2F8091F31690917C
S1133A00F4169AD5811111C008E215E020E030E0E7
S1133A104DE250E06AE777E18091F1169091F21659
S1133A200E94D7098AE797E102C080E090E0DF9125
S1133A30CF911F910F9108952F923F924F925F92D1
S1133A406F927F928F929F92AF92BF92CF92DF92AA
S1133A50EF92FF920F931F93CF93DF935C01FC01CE
S1133A6001900020E9F731976F01C81AD90A5C2C3C
S1133A700F2EF7E98F2EF7E09F2EF02DE12CF12C7D
S1133A804C2C3701F40101811281E80109900020D6
S1133A90E9F72197C01BD10B3C2EF9E0CF16D104D6
S1133AA058F0F4012080FEE02F1206C0B801C501D1
S1133AB00E945B2C892B09F5442D351408F44C2FF6
S1133AC050E0B801C5010E94922C892B49F4F301FE
S1133AD0EE0FFF1FE60DF71DE956F84F20800DC0CD
S1133AE08FEFE81AF80AE3E08E0E911CF1E1EF166D
S1133AF0F10439F66894222424F8822DDF91CF91C1
S1133B001F910F91FF90EF90DF90CF90BF90AF90F7
S1133B109F908F907F906F905F904F903F902F90E9
S1133B20089530DF89CF08958091F1169091F216AF
S1133B300C94A00808958F929F92AF92CF92EF9227
S1133B400F931F93CF93C82F8B0141E060E070E087
S1133B5088EC90E00E946E089093F2168093F11620
S1133B601093F0160093EF160F2EFCE78F2EFCE156
S1133B709F2EF02D6894AA24A6F86894CC24C6F845
S1133B80E12C00E023E040E051EE60E070E08C2F97
S1133B9006D49093F4168093F316E7E0F1E0808165
S1133BA080618083CF911F910F91EF90CF90AF9060
S1133BB09F908F900895882331F0E8E0F1E08081B0
S1133BC08F7E80830895E8E0F1E0808180618083C6
S1133BD0089560E070E08DE195E0D4DEEAE7F7E176
S1133BE001900020E9F73197EA57F74181E0759792
S1133BF008F080E00895CF93DF93EC0160E070E07B
S1133C008EE295E0BFDEEAE7F7E101900020E9F7F4
S1133C10EB58F74139F46AE777E1CE010E948B2C27
S1133C2080E002C0188281E0DF91CF910895FC0109
S1133C3001900020E9F79F01215131092817390724
S1133C4029F4BC018CE595E06CCF089589E00895D2
S1133C50FC0101900020E9F79F0121513109281747
S1133C60390729F4BC018BE695E05BCF089589E020
S1133C700895FC0101900020E9F79F0121523109C8
S1133C802817390729F4BC018AE795E04ACF08953B
S1133C9089E0089560E070E089EB95E042CF0895F3
S1133CA00F931F93E82FF0E0EE0FFF1FED56F84F30
S1133CB06081718182EC95E034DF811114C008E2E7
S1133CC015E020E030E04DE250E06AE777E18091D2
S1133CD0F1169091F2160E94D709882321F08AE701
S1133CE097E1AADE03C08AE797E1A6DE1F910F9150
S1133CF008950F931F93CF93DF931F92CDB7DEB731
S1133D00DB0111969C911197953108F0B4C0992369
S1133D1081F160E070E0272F30E0462F50E0FD0194
S1133D20E40FF51F928192959F709A3010F0995C80
S1133D3001C0905DF901E55FF84E90832F5F3F4F1E
S1133D40FD01E40FF51F92819F70492F50E04A3026
S1133D50510514F0995C01C0905DF901E55FF84EDE
S1133D6090837E5F6F5F11969C911197691798F20B
S1133D7001C070E0E72FF0E0E55FF84E10824C914F
S1133D80811103C08BEC95E002C08DEC95E02BE033
S1133D9037E13F932F931F924F939F938F9381ED1E
S1133DA095E09F938F938DE497E19F938F930E9467
S1133DB0ED2C60E070E08DE497E1B3DE0FB6F8948B
S1133DC0DEBF0FBECDBF811159C008E215E020E06F
S1133DD030E04DE250E06AE777E18091F11690918E
S1133DE0F2160E94D709882309F447C08AE797E1AD
S1133DF023DE8E3009F042C087E089838091EF167C
S1133E009091F016892BA9F1BE016F5F7F4F8AE76D
S1133E1097E168D18093F516E981F0E0E658F84E11
S1133E20DF010D900020E9F71197AE1BBF0BAA2309
S1133E3091F0BB27CD0101979C0112F42F5F3F4FF6
S1133E40359527952093F616AF014F5F5F4F64E1D8
S1133E5087EF96E173D101E010E020E030E046E125
S1133E6050E065EF76E18091EF169091F0160E9494
S1133E70D0088EE003C084E101C080E00F90DF91A0
S1133E80CF911F910F910895813019F061EE75E083
S1133E9002C06AEB76E085EE95E043CE08959F93E9
S1133EA08F9386E196E09F938F938DE497E19F93A0
S1133EB08F930E94ED2C60E070E08DE497E131DE99
S1133EC00F900F900F900F900F900F9008952F92D6
S1133ED03F924F925F926F927F928F929F92AF9296
S1133EE0BF92CF92DF92EF92FF920F931F93CF93E3
S1133EF0DF93CDB7DEB7A0970FB6F894DEBF0FBE41
S1133F00CDBF63E476E08FE496E03CDD95DD81117E
S1133F10A3C080E2E2E2F2E0DE01119601900D928C
S1133F208A95E1F79E012F5F3F4F6901E12CF12C47
S1133F300F2EFBE5AF2EF6E0BF2EF02D0DE417E1BA
S1133F400F2EF4E74F2EF6E05F2EF02D0F2EFBE838
S1133F508F2EF6E09F2EF02D0F2EF5EA6F2EF6E051
S1133F607F2EF02D3E2C2F2CFF92EF92BF92AF921A
S1133F701F930F930E94ED2C60E070E0C80102DDF6
S1133F805BDD0F900F900F900F900F900F908111A9
S1133F9063C032E03E15E8F4F60183818F93828199
S1133FA08F9381818F9380818F93FF92EF925F92A1
S1133FB04F921F930F930E94ED2C60E070E0C801B4
S1133FC0E1DC3ADD0FB6F894DEBF0FBECDBF811140
S1133FD043C02F923F929F928F921F930F930E9400
S1133FE0ED2C60E070E0C801CDDC26DD0F900F9071
S1133FF00F900F900F900F9081112EC02F923F922F
S11340007F926F921F930F930E94ED2C60E070E0FB
S1134010C801B8DC11DD0F900F900F900F900F9036
S11340200F90811119C03FEFE31AF30A84E0C80E20
S1134030D11C98E0E916F10409F094CF60E070E037
S11340408DEB96E09FDCF8DC811106C060E070E047
S11340508EEC96E097DCF0DCA0960FB6F894DEBF09
S11340600FBECDBFDF91CF911F910F91FF90EF90C5
S1134070DF90CF90BF90AF909F908F907F906F9084
S11340805F904F903F902F900895EF92FF920F937F
S11340901F93CF93DF93EC018B017A0181E0F4DE6F
S11340A081110DC0CE01D4DD811109C0C801E1DD4B
S11340B0811105C0C701BBDD811101C0EBDDDF91BA
S11340C0CF911F910F91FF90EF90089590E0FC0124
S11340D0EE0FFF1F8E0F9F1FFC01E956F84F8181E1
S11340E092810895DC01009729F1FB012081FC01F4
S11340F001900020E9F73197E81BF90B822F90E03B
S1134100E817F907C8F080E008C0880F382F330F8C
S1134110330F830F8053890F2F5FFD01E20FF11DD1
S1134120908130ED390F3A3010F49111EECFFB014C
S11341302083089580E0089580E008950F931F93ED
S1134140CF93DF93DC01EA012097E1F1FA010190BA
S11341500020E9F73197E41BF50B329710F532C0D4
S11341608D01040F151F30E0AE01420F531FFA01F9
S11341709081913428F09753592F5295507F03C062
S1134180592F5295507F2C0F3D1FF9019181913485
S113419010F0975301C09053950FF80190838F5FEF
S11341A001C080E0282F220F482F50E0FE0101902B
S11341B00020E9F73197EC1BFD0B4E175F0710F455
S11341C08613CECFDF91CF911F910F9108958091E7
S11341D0AA17860F8093AA179091AD17913079F0A2
S11341E028F09230A9F0933019F108956F3F09F047
S11341F048C01092AA1781E08093AD1708956638DD
S113420009F03FC01092A91782E08093AD1708957A
S1134210E091A91781E08E0F8093A917F0E0E9558A
S1134220F84E6083823069F583E08093AD1708957A
S11342309091A91721E0290F2093A917963009F529
S113424081110EC0E7EAF7E1808190E0982F88277A
S11342502181820F911D9093AF178093AE1704C0F4
S11342601092AF171092AE171092AD17E091AB17E2
S1134270F091AC17309729F08091AE179091AF1759
S1134280199508958F929F92AF92CF92EF920F93C8
S11342900F2EF7EE8F2EF0E29F2EF02D6894AA24B5
S11342A0A4F86894CC24C4F8E12C00E023E040E8AE
S11342B055E260E070E073D09093B1178093B0172B
S11342C00F91EF90CF90AF909F908F90089590931F
S11342D0AC178093AB170895CF93DF93CDB7DEB7B8
S11342E029970FB6F894DEBF0FBECDBF89E0E2E494
S11342F0F2E09E012F5F3F4FD90101900D928A9504
S1134300E1F71092AF171092AE178091B017909109
S1134310B117009731F0422F532F69E00DD180E09F
S113432001C082E029960FB6F894DEBF0FBECDBF60
S1134330DF91CF91089565360CF064E66C390CF486
S11343406CE996EF6902B00111246854744F81112D
S113435005C07093290160932801089570932B017F
S113436060932A010895EAE0F1E080818861808306
S11343708FE39CE9909327018093260160E080E01D
S1134380DADF60E081E0D7DFE0E2F1E08081826A99
S11343908083E1E2F1E080818A61808308952F9235
S11343A03F924F925F926F927F928F929F92AF92C1
S11343B0CF92EF92FF920F931F93CF93DF93CDB7DA
S11343C0DEB7F82E2A013B0188E090E00E94262BFC
S11343D08C018F2D90E0FC01EE0FFF1FEE54F84E80
S11343E0118300830115110509F469C0880F991F11
S11343F0FC01E55FFD4F80819181D8018D939C93F1
S11344006C2D70E084E090E00E940C2B1C0161E0B4
S113441070E086E090E00E940C2B7C014C2DB101F1
S1134420F1D6F801F582E4826A2D70E084E090E030
S11344300E940C2B1C0161E070E086E090E00E9479
S11344400C2B7C014A2DB101DDD6D8011396FC92C8
S1134450EE92129717969C928E921697FFB6F89446
S1134460ED91FC91119736978081826080838D90C5
S11344709C90C301B201B4D720E030E040E051E4A5
S11344800E94552A9B01AC0160E074E284E79BE43E
S11344903CD720E030E040E85FE3D0D63DD9F401DA
S11344A032976083D801ED91FC911197359788E993
S11344B08083ED91FC91349786E08083FFBEC80130
S11344C0DF91CF911F910F91FF90EF90CF90AF901C
S11344D09F908F907F906F905F904F903F902F9020
S11344E00895CF93DF93DC01892B01F11296ED91AE
S11344F0FC911397938182812581981B9223848157
S11345009817B1F0838126952823C081D181C20FE9
S1134510D11D68838F5F958189238383ED91FC91FD
S1134520359780818062808380E003C081E001C090
S113453082E0DF91CF910895EF92FF920F931F9342
S1134540CF93DF937C01009709F441C0DC011296FC
S1134550ED91FC91139793818281981B8581982317
S11345608481891B8617A8F1662341F1842F952F36
S1134570DC016150462F50E04F5F5F4F480F591FD9
S1134580E701EA81FB81938182812581981B922333
S11345908481981779F08C919381269529236081E1
S11345A071818B01020F111DE80188839F5F858152
S11345B0982393831196A417B50711F7D701ED91AA
S11345C0FC91359780818062808380E003C081E024
S11345D001C082E0DF91CF911F910F91FF90EF9086
S11345E008950097D1F0DC011496ED91FC91159794
S11345F093818281981799F0928185818695892388
S1134600A081B181A80FB11D8C91DB018C939F5FB8
S113461085819823928380E0089581E0089583E062
S113462008951F920F920FB60F9211240BB60F929A
S11346302F933F934F935F936F937F938F939F93A6
S1134640AF93BF93CF93DF93EF93FF93A091B217F0
S1134650B091B317109711F16091C6001496ED91C3
S1134660FC911597938182812581981B92238481E3
S1134670981761F0838126952823C081D181C20FC8
S1134680D11D68838F5F9581892383831696ED916D
S1134690FC911797309711F0CD011995FF91EF9187
S11346A0DF91CF91BF91AF919F918F917F916F9146
S11346B05F914F913F912F910F900BBE0F900FBEC2
S11346C00F901F9018951F920F920FB60F921124FE
S11346D00BB60F922F938F939F93AF93BF93EF9348
S11346E0FF93E091B217F091B3173097B9F00280BD
S11346F0F381E02D938182819817B1F092818581B5
S1134700282F26952923A081B181A20FB11D2C91B8
S11347109F5F892382832093C6000BC0E1ECF0E005
S113472080818F7D808305C0E1ECF0E080818F7D06
S11347308083FF91EF91BF91AF919F918F912F91C2
S11347400F900BBE0F900FBE0F901F9018951F92E5
S11347500F920FB60F9211240BB60F922F933F9323
S11347604F935F936F937F938F939F93AF93BF9375
S1134770CF93DF93EF93FF93A091B417B091B51744
S1134780109711F16091CE001496ED91FC9115975C
S1134790938182812581981B92238481981761F0EB
S11347A0838126952823C081D181C20FD11D6883BE
S11347B08F5F9581892383831696ED91FC911797DA
S11347C0309711F0CD011995FF91EF91DF91CF91C1
S11347D0BF91AF919F918F917F916F915F914F9115
S11347E03F912F910F900BBE0F900FBE0F901F9013
S11347F018951F920F920FB60F9211240BB60F92B9
S11348002F938F939F93AF93BF93EF93FF93E09175
S1134810B417F091B5173097B9F00280F381E02D09
S1134820938182819817B1F092818581282F2695F2
S11348302923A081B181A20FB11D2C919F5F8923EF
S113484082832093CE000BC0E9ECF0E080818F7D61
S1134850808305C0E9ECF0E080818F7D8083FF9147
S1134860EF91BF91AF919F918F912F910F900BBEBC
S11348700F900FBE0F901F9018951F920F920FB6B6
S11348800F9211240BB60F922F933F934F935F9384
S11348906F937F938F939F93AF93BF93CF93DF9344
S11348A0EF93FF93A091B617B091B717109711F13A
S11348B06091D6001496ED91FC91159793818281B5
S11348C02581981B92238481981761F08381269512
S11348D02823C081D181C20FD11D68838F5F958148
S11348E0892383831696ED91FC911797309711F0E5
S11348F0CD011995FF91EF91DF91CF91BF91AF91C8
S11349009F918F917F916F915F914F913F912F91E3
S11349100F900BBE0F900FBE0F901F9018951F9213
S11349200F920FB60F9211240BB60F922F938F9301
S11349309F93AF93BF93EF93FF93E091B617F091DA
S1134940B7173097B9F00280F381E02D938182810B
S11349509817B1F092818581282F26952923A0816B
S1134960B181A20FB11D2C919F5F89238283209373
S1134970D6000BC0E1EDF0E080818F7D808305C01F
S1134980E1EDF0E080818F7D8083FF91EF91BF9115
S1134990AF919F918F912F910F900BBE0F900FBEEF
S11349A00F901F9018951F920F920FB60F9211241B
S11349B00BB60F922F933F934F935F936F937F9315
S11349C08F939F93AF93BF93CF93DF93EF93FF9313
S11349D0A091B817B091B917109711F160913601F1
S11349E01496ED91FC911597938182812581981BF2
S11349F092238481981761F0838126952823C081AE
S1134A00D181C20FD11D68838F5F958189238383F0
S1134A101696ED91FC911797309711F0CD011995E9
S1134A20FF91EF91DF91CF91BF91AF919F918F91C2
S1134A307F916F915F914F913F912F910F900BBE9A
S1134A400F900FBE0F901F9018951F920F920FB6E4
S1134A500F9211240BB60F922F938F939F93AF93C2
S1134A60BF93EF93FF93E091B817F091B917309784
S1134A70B9F00280F381E02D938182819817B1F01F
S1134A8092818581282F26952923A081B181A20FA7
S1134A90B11D2C919F5F89238283209336010BC023
S1134AA0E1E3F1E080818F7D808305C0E1E3F1E003
S1134AB080818F7D8083FF91EF91BF91AF919F9112
S1134AC08F912F910F900BBE0F900FBE0F901F90E0
S1134AD01895CF93DF931F92CDB7DEB7BE016F5FFA
S1134AE07F4F8091BA179091BB177BDD8111F6CF70
S1134AF0898190E00F90DF91CF910895682F809184
S1134B00BA179091BB17EDDC80E090E008958F9286
S1134B109F92AF92CF92EF920F93812C912C689435
S1134B20AA24A7F86894CC24C7F8E12C00E023E079
S1134B3040E051EE60E070E032DC9093BB1780936C
S1134B40BA17EDEFF7E183E192E0918380839383D9
S1134B5082830F91EF90CF90AF909F908F900895A4
S1134B6090E0FC01EE0FFF1FE80FF91FEE0FFF1F8F
S1134B70E454F84E238121111FC09C01220F331FDE
S1134B80F901E80FF91FEE0FFF1FE454F84EA0815E
S1134B90B1814C91F901E80FF91FEE0FFF1FE454A6
S1134BA0F84E81E090E0028002C0880F991F0A94B9
S1134BB0E2F7842B8C930895FC01EE0FFF1FDF01B5
S1134BC0A80FB91FAA0FBB1FA454B84E0D90BC91D7
S1134BD0A02D2C91E80FF91FEE0FFF1FE454F84E9F
S1134BE081E090E0028002C0880F991F0A94E2F7E6
S1134BF0809582238C93089590E0FC01EE0FFF1FB3
S1134C00E80FF91FEE0FFF1FE454F84E2381211122
S1134C1020C09C01220F331FF901E80FF91FEE0F8A
S1134C20FF1FE454F84EA081B1814C91F901E80FC3
S1134C30F91FEE0FFF1FE454F84E81E090E002806C
S1134C4002C0880F991F0A94E2F7809584238C93FD
S1134C500895FC01EE0FFF1FDF01A80FB91FAA0F73
S1134C60BB1FA454B84E0D90BC91A02D2C91E80FFD
S1134C70F91FEE0FFF1FE454F84E81E090E002802C
S1134C8002C0880F991F0A94E2F7822B8C9308952F
S1134C90CC24C394D12C6894BB24B2F8CCEBD7E1D8
S1134CA010E08C81813081F018F1823061F5E88167
S1134CB0F9812081C6010A8002C0880F991F0A94D5
S1134CC0E2F7822780831FC08D818F5F8A3010F4C2
S1134CD08D8319C01D82E881F9812081C6010A8073
S1134CE002C0880F991F0A94E2F7822780830BC0C1
S1134CF00D81002329F0812F7FDF01500D8303C034
S1134D00BC82812F2DDF1F5F2696143051F665E09B
S1134D1070E080E090E00E946F0FC0CFEF92FF92AE
S1134D200F931F93CF93DF93082F80E487B9CCEBC5
S1134D30D7E10F2EF8E2EF2EF12CF02DF982E88264
S1134D4086E08A831B8214E01C8380E009DF80E80C
S1134D5087B9FF82EE8287E0888719861A8781E007
S1134D60FFDE80E283BB84E390E09D878C8785E04F
S1134D708E871F86188B82E0F3DE80E18093010129
S1134D8082E091E09B8B8A8B1C8B1D8A1E8B83E0B7
S1134D90E7DEE12CF12C20E030E040EC50E06AEC5E
S1134DA077E088E496E20E946A0CDF91CF911F912C
S1134DB00F91FF90EF900895CF93DF9390E0FC0163
S1134DC0EE0FFF1FDF01A80FB91FAA0FBB1FA454CA
S1134DD0B84ECD91DC911197488121E030E01296D4
S1134DE00C90129702C0220F331F0A94E2F7242773
S1134DF02883FD0181E08483DF91CF910895CF93CF
S1134E00DF9390E0FC01EE0FFF1FDF01A80FB91F35
S1134E10AA0FBB1FA454B84ECD91DC9111974881C1
S1134E2021E030E012960C90129702C0220F331F3B
S1134E300A94E2F724272883FD0182E08483DF912A
S1134E40CF910895282F30E0F901EE0FFF1FE20FF4
S1134E50F31FEE0FFF1FE454F84E93E09483CCCE7F
S1134E600895282F30E0F901EE0FFF1FE20FF31F22
S1134E70EE0FFF1FE454F84E94E0948371CE08952E
S1134E8090E0FC01EE0FFF1FDF01A80FB91FAA0F6E
S1134E90BB1FA454B84E24E015962C931597FD011E
S1134EA01482089590E0FC01EE0FFF1FDF01A80FAC
S1134EB0B91FAA0FBB1FA454B84E21E015962C931A
S1134EC01597FD01148208958091E21781110CC099
S1134ED08CE08093B8008FEF8093BB0084E08093D4
S1134EE0BC0081E08093E2170895AF92BF92CF9205
S1134EF0DF92EF92FF920F931F93CF93DF93A82E2D
S1134F00B62E69017A0184E090E0A0D3EC01892BEC
S1134F1061F1A88281E0B81212C0C701B60120EA8B
S1134F2036E841E050E04ED3DA01C9014097A109C7
S1134F30B109B695A79597958795898311C0C7013F
S1134F40B60120E83AE146E050E03CD3DA01C90179
S1134F504097A109B109B695A79597958795898337
S1134F601B830A838C2F9D2F02C080E090E0DF9189
S1134F70CF911F910F91FF90EF90DF90CF90BF9052
S1134F80AF9008958091BC0081700895FF920F93B3
S1134F901F93CF93DF930097D1F14A30D0F5F42ECD
S1134FA08B01EC01EFDF811136C08091D517909110
S1134FB0D617C817D90741F087DF89818093B800D5
S1134FC0D093D617C093D51781E08F0D8093D71750
S1134FD08881880F8093D817FF2089F0F801A9ED04
S1134FE0B7E14FEF4F0D642F70E0CB010196B8018C
S1134FF0680F791F81918D93E617F707D9F788EF2A
S11350008093210285EA8093BC0084E005C086E099
S113501003C087E001C082E0DF91CF911F910F911F
S1135020FF9008951F93CF93DF93009729F16B307E
S113503028F5162FEC01A6DF811122C08091D51727
S11350409091D617C817D90741F03EDF8981809324
S1135050B800D093D617C093D5171093D71788816B
S1135060880F81608093D81788EF8093210285EAA6
S11350708093BC0085E005C086E003C087E001C0E2
S113508082E0DF91CF911F9108951F920F920FB686
S11350900F9211240BB60F922F933F934F935F936C
S11350A06F937F938F939F93AF93BF93EF93FF93EC
S11350B0E091B9008E2F90E0FC013897E135F105BD
S11350C008F075C08827E458FF4F8F4F9DC2109297
S11350D0D417E091D4178091D717E81770F481E0C2
S11350E08E0F8093D417F0E0E852F84E80818093BD
S11350F0BB0085E88093BC0072C084E98093BC0047
S11351008091D5179091D617DC011296ED91FC9100
S11351101397309709F463C020E040E050E064E066
S113512019955DC0E091D41781E08E0F8093D41758
S11351308091BB00F0E0E852F84E80838091B90082
S1135140803411F41092D4172091D41730E0809158
S1135150D71790E001972817390724F485EC80933A
S1135160BC003DC085E88093BC0039C08091BB0081
S1135170E091D417F0E0E852F84E808384E98093FC
S1135180BC008091D5179091D617DC011296ED9151
S1135190FC911397309719F12091D71748ED57E1F7
S11351A065E019951CC085EA8093BC0018C0809105
S11351B0B9008093210284E08093BC008091D517CC
S11351C09091D617DC011296ED91FC9113973097CC
S11351D031F020E040E050E0609121021995FF9108
S11351E0EF91BF91AF919F918F917F916F915F915B
S11351F04F913F912F910F900BBE0F900FBE0F90C8
S11352001F901895FC01411101C041D3842F90E0F7
S11352109C012150310982239323892B09F037D330
S1135220413808F034D3128213824483440F41502E
S113523045837183608380E090E008955058BB27D4
S1135240AA270ED021C112D130F017D120F031F4A9
S11352509F3F11F41EF407C10EF4E095E7FBFDC077
S1135260E92F0E94B81B78F3BA1762077307840703
S1135270950720F079F4A6F50C94DA1B0EF4E0956A
S11352800B2EBA2FA02D0B01B90190010C01CA01FC
S1135290A0011124FF27591B99F0593F50F4503EA7
S11352A068F11A16F040A22F232F342F4427585F99
S11352B0F3CF469537952795A795F0405395C9F7B1
S11352C07EF41F16BA0B620B730B840BBAF0915069
S11352D0A1F0FF0FBB1F661F771F881FC2F70EC008
S11352E0BA0F621F731F841F48F4879577956795DB
S11352F0B795F7959E3F08F0B1CF9395880F08F0C6
S11353009927EE0F9795879508950DD0BDC0B5D018
S113531048F0ACD038F021F45F3F21F09EC0511129
S11353200C94DB1BA0C00E94B81B88F39923B9F32B
S11353305523A1F3951B550BBB27AA2762177307A7
S1135340840738F09F5F5F4F220F331F441FAA1F4B
S1135350A9F334D00E2E3AF0E0E831D09150504009
S1135360E695001CCAF72AD0FE2F28D0660F771FB7
S1135370881FBB1F261737074807AB07B0E809F09B
S1135380BB0B802DBF01FF2793585F4F32F09E3F28
S1135390510570F062C00C94DB1B5F3FE4F3983E50
S11353A0D4F3869577956795B795F7959F5FC9F779
S11353B0880F911D9695879597F90895E1E0660FFA
S11353C0771F881FBB1F621773078407BA0720F073
S11353D0621B730B840BBA0BEE1F88F7E0950895DC
S11353E0E89409C097FB3EF490958095709561957B
S11353F07F4F8F4F9F4F9923A9F0F92F96E9BB2731
S11354009395F695879577956795B795F111F8CFAC
S1135410FAF4BB0F11F460FF1BC06F5F7F4F8F4F17
S11354209F4F16C0882311F096E911C0772321F00D
S11354309EE8872F762F05C0662371F096E8862FA5
S113544070E060E02AF09A95660F771F881FDAF7FC
S1135450880F9695879597F9089597F99F6780E83F
S113546070E060E008959FEF80EC089500240A94B2
S11354701616170618060906089500240A9412162B
S11354801306140605060895092E0394000C11F45E
S1135490882352F0BB0F40F4BF2B11F460FF04C00B
S11354A06F5F7F4F8F4F9F4F08950CD0EDCFDEDF9E
S11354B028F0E3DF18F0952309F0CFCFD4CF1124DF
S11354C00C94DB1B0E94B81B90F3959FC1F3950FBE
S11354D050E0551F629FF001729FBB27F00DB11D74
S11354E0639FAA27F00DB11DAA1F649F6627B00D04
S11354F0A11D661F829F2227B00DA11D621F739FED
S1135500B00DA11D621F839FA00D611D221F749FFA
S11355103327A00D611D231F849F600D211D822F41
S1135520762F6A2F11249F57504092F0E9F0882378
S11355304AF0EE0FFF1FBB1F661F771F881F915095
S11355405040A9F79E3F510578F087CF0C94DB1BA0
S11355505F3FE4F3983ED4F3869577956795B795C6
S1135560F795E7959F5FC1F7FE2B880F911D9695E0
S1135570879597F90895AA1BBB1B51E107C0AA1F81
S1135580BB1FA617B70710F0A61BB70B881F991FE0
S11355905A95A9F780959095BC01CD01089597FB84
S11355A0072E16F4009406D077FD08D0E4DF07FC3C
S11355B005D03EF4909581959F4F0895709561951F
S11355C07F4F0895A1E21A2EAA1BBB1BFD010DC03B
S11355D0AA1FBB1FEE1FFF1FA217B307E407F5079F
S11355E020F0A21BB30BE40BF50B661F771F881F7B
S11355F0991F1A9469F760957095809590959B0111
S1135600AC01BD01CF010895EE0FFF1F881F8BBFB2
S11356100790F691E02D19940F931F93CF93DF9386
S1135620869F8001879F100D969F100D1124C8013D
S11356300DD0EC01009721F0A80160E070E034D1B6
S1135640CE01DF91CF911F910F9108950F931F9376
S1135650CF93DF938230910510F482E090E0E091E3
S1135660FB17F091FC1720E030E0A0E0B0E03097A9
S113567019F1408151810281138148175907C8F0FB
S11356808417950769F4109731F012960C931297CA
S113569013961C9327C00093FB171093FC1722C08A
S11356A02115310519F04217530718F49A01BD0169
S11356B0EF01DF01F801DBCF21153105F9F0281BDB
S11356C0390B2430310580F48A819B816115710581
S11356D021F0FB019383828304C09093FC17809391
S11356E0FB17FE01329644C0FE01E20FF31F8193C3
S11356F0919322503109398328833AC02091F917B4
S11357003091FA17232B41F42091020230910302C5
S11357103093FA172093F917209100023091010277
S11357202115310541F42DB73EB740910402509143
S11357300502241B350BE091F917F091FA17E217D3
S1135740F307A0F42E1B3F0B2817390778F0AC01A0
S11357504E5F5F4F2417350748F04E0F5F1F50937D
S1135760FA174093F9178193919302C0E0E0F0E0B7
S1135770CF01DF91CF911F910F910895CF93DF93C4
S1135780009709F481C0FC01329713821282A09120
S1135790FB17B091FC17109781F420813181820F9F
S11357A0931F2091F9173091FA172817390751F5EB
S11357B0F093FA17E093F91767C0ED0120E030E0A9
S11357C0CE17DF0740F44A815B819E0141155105E4
S11357D0F1F0EA01F5CFD383C28340815181840F74
S11357E0951FC817D90759F488819981840F951F8B
S11357F00296918380838A819B819383828321157E
S1135800310529F4F093FC17E093FB173DC0E9013F
S1135810FB83EA8349915991C40FD51FEC17FD0707
S113582061F480819181840F951F0296E901998327
S11358308883828193819B838A83E0E0F0E01296DF
S11358408D919C911397009719F0FD01DC01F7CF1E
S11358508D919C9111979D012E5F3F4F820F931F55
S11358602091F9173091FA172817390769F43097FE
S113587029F41092FC171092FB1702C013821282B3
S1135880B093FA17A093F917DF91CF91089581E0AF
S113589090E0F8947DC3FB01DC0102C001900D92FD
S11358A041505040D8F70895DC0101C06D93415038
S11358B05040E0F70895FB0151915523B1F0BF0129
S11358C0DC01052E4D91442369F010D0D9F7CD01A8
S11358D00190002049F04D91411108D0C9F3FB011A
S11358E04111EECF81E090E001970895402539F011
S11358F0403229F440294B57465E08F01894089525
S1135900FB01DC010D900020E9F7119701900D9245
S11359100020E1F70895FB01DC0101900D920020C5
S1135920E1F70895FB01DC014150504088F08D916E
S113593081341CF08B350CF4805E619161341CF071
S11359406B350CF4605E861B611171F3990B08953D
S1135950881BFCCFCF93DF93CDB7DEB7AE014A5F90
S11359605F4FFA0161917191AF018091FF1790919E
S1135970001861D0DF91CF9108950F931F93CF93B7
S1135980DF93E091FF17F0910018238121FF1BC0E2
S11359908C01D0E0C0E0F80181918F016091FF1784
S11359A070910018DB011896ED91FC9119978823EA
S11359B031F01995892B79F3DFEFCFEFECCF8AE043
S11359C01995892B19F08FEF9FEF02C08D2F9C2F13
S11359D0DF91CF911F910F9108950F931F93CF9350
S11359E0DF93CDB7DEB72E970FB6F894DEBF0FBEA8
S11359F0CDBF0E891F8986E08C831A8309838FEFBC
S1135A009FE79E838D83AE01465E5F4F688D798DDF
S1135A10CE01019610D0EF81F885E00FF11F1082BE
S1135A202E960FB6F894DEBF0FBECDBFDF91CF9197
S1135A301F910F9108952F923F924F925F926F9210
S1135A407F928F929F92AF92BF92CF92DF92EF920A
S1135A50FF920F931F93CF93DF93CDB7DEB72B97AE
S1135A600FB6F894DEBF0FBECDBF6C017B018A0177
S1135A70FC0117821682838181FFBFC1CE0101968A
S1135A803C01F6019381F70193FD859193FF819188
S1135A907F01882309F4ADC1853239F493FD8591E2
S1135AA093FF81917F01853221F4B60190E0D6D134
S1135AB0E8CF912C212C312CFFE1F315D8F08B3257
S1135AC079F038F4803279F08332A1F4232D206107
S1135AD01DC08D3261F0803369F4232D216016C01E
S1135AE0832D8260382EE32DE4603E2E2AC0F32DF0
S1135AF0F8601DC037FC2DC020ED280F2A3040F07F
S1135B008E32B9F436FC75C1232D2064322E19C0AF
S1135B1036FE06C08AE0989E200D1124922E11C0F4
S1135B20EAE02E9E200D1124222EF32DF0623F2E4A
S1135B3008C08C3621F4832D8068382E02C0883644
S1135B4041F4F70193FD859193FF81917F018111C8
S1135B50B3CF982F9F7D9554933028F40C5F1F4F3B
S1135B609FE399830DC0833631F0833771F0833519
S1135B7009F055C020C0F801808189830E5F1F4F52
S1135B8088248394912C530112C02801F2E04F0E13
S1135B90511CF801A080B18036FE03C0692D70E06D
S1135BA002C06FEF7FEFC5014ED14C018201F32D8E
S1135BB0FF773F2E15C0280122E0420E511CF80148
S1135BC0A080B18036FE03C0692D70E002C06FEF83
S1135BD07FEFC5012DD14C01F32DF0683F2E8201DA
S1135BE033FC19C0822D90E088169906A0F4B60102
S1135BF080E290E033D12A94F5CFF50137FC85910A
S1135C0037FE81915F01B60190E028D121102A94DA
S1135C1021E0821A91088114910479F7E1C0843655
S1135C2011F0893639F5F80137FE07C060817181BA
S1135C30828193810C5F1F4F08C060817181072EA0
S1135C40000C880B990B0E5F1F4FF32DFF763F2E30
S1135C5097FF09C090958095709561957F4F8F4F00
S1135C609F4FF0683F2E2AE030E0A30133D1882E05
S1135C70861844C0853731F4232D2F7EB22E2AE0B6
S1135C8030E025C0932D997FB92E8F36C1F018F4DA
S1135C90883579F0AEC0803719F0883721F0A9C073
S1135CA0E92FE061BE2EB4FE0DC0FB2DF460BF2EC3
S1135CB009C034FE0AC0292F2660B22E06C028E08F
S1135CC030E005C020E130E002C020E132E0F8011C
S1135CD0B7FE07C060817181828193810C5F1F4F81
S1135CE006C06081718180E090E00E5F1F4FA301C8
