S0130000342E53656D6573746572322E7372656335
S1130000E5C0000004C1000002C1000000C10000FE
S1130010FEC00000FCC00000FAC00000F8C00000F0
S1130020F6C00000F4C00000F2C00000F0C0000000
S11300308EC40000ECC00000EAC00000E8C000006C
S1130040E6C00000E4C00000E2C00000E0C0000020
S1130050DEC00000DCC00000DAC00000D8C0000030
S1130060D6C000000C947C250C94CE25D0C0000092
S1130070CEC00000CCC00000CAC00000C8C0000050
S1130080C6C00000C4C00000C2C00000C0C0000060
S11300900C9412260C946426BAC000000C94B02A66
S11300A0B6C00000B4C00000B2C00000B0C0000080
S11300B0AEC00000ACC00000AAC00000A8C0000090
S11300C0A6C00000A4C00000A2C000000C94A82692
S11300D00C94FA269CC000000C943E270C949027A4
S11300E096C0000051195119511988199019A51970
S11300F05119511988199019D22A422B422B422B9B
S1130100422B422B422B422BD22A422B422B422BF4
S1130110422B422B422B422BD42A422B422B422BE2
S1130120422B422B422B422B422B422B422B422B63
S1130130422B422B422B422BD42A422B422B422BC2
S1130140422B422B422B422B422B422B422B422B43
S1130150422B422B422B422B3E2B422B422B422B37
S1130160422B422B422B422B092B422B422B422B5C
S1130170422B422B422B422B422B422B422B422B13
S1130180422B422B422B422BFD2A422B422B422B49
S1130190422B422B422B422B212B0E94A10C8091FB
S11301A0E516823008F00DD30E94CE19F6CFCF9316
S11301B0DF931F92CDB7DEB7CE0101960E94CE1613
S11301C049810E94C3180E941A19F6CF11241FBE38
S11301D0CFEFD1E2DEBFCDBF00E00CBF18E0A0E05E
S11301E0B2E0EAE6F4E600E00BBF02C007900D922D
S11301F0A83DB107D9F729E1A8EDB8E001C01D92E7
S1130200AF36B207E1F70E94231E0C943332F8CEC6
S113021040E066E085E0CAD49093F0188093EF182C
S11302200895AF92BF92CF92DF92EF92FF920F9315
S11302301F93CF93DF93E12CF12CC12CD12CA12C53
S1130240B12C10E0C0E0D0E02BC00E943F1A009710
S113025049F0A80EB91E61E070E080E090E00E94D1
S11302606D1001C011E00E94451B009749F0C80EB3
S1130270D91E61E070E080E090E00E946D1001C042
S113028011E00E94761B009749F0E80EF91E61E028
S113029070E080E090E00E946D1001C011E02196B2
S11302A0CA30D10594F2112349F0E9EEF8E1118244
S11302B01082138212821582148217C02196C501FE
S11302C0BE010E94262D5B01C601BE010E943A2D8B
S11302D09B01C701BE010E94262DE9EEF8E1B1821F
S11302E0A0823383228375836483E9EEF8E18381FA
S11302F08F9382818F9381818F9380818F93858166
S11303008F9384818F938FE692E09F938F930E94C3
S1130310152F00E02FEF3FEFA90169EE78E18091FE
S1130320EF189091F01865D48DB79EB708960FB664
S1130330F8949EBF0FBE8DBFDF91CF911F910F9197
S1130340FF90EF90DF90CF90BF90AF9008952AE098
S113035030E040E050E061EF78E18091EF18909157
S1130360F01814D581EF98E10895E4EEF8E0A8EED2
S1130370B8E0B183A08313821282E0E9F6E1F0933E
S1130380E308E093E208138212821182108288EA61
S11303909DE013969C938E931297ED93FC93909308
S11303A0DF088093DE089093E1088093E00880E002
S11303B090E89093D9088093D8080895CF93DF9359
S11303C0EC01A4EEB8E001C0DF01ED91FC911197BE
S11303D0EC17FD07C8F312968D919C9113979D011C
S11303E0280F391FC217D30749F42A813B81820F92
S11303F0931F13969C938E931297ED018A819B8190
S11304009E01280F391FE217F307C1F42091E20877
S11304103091E308E217F30771F022813381820FF0
S1130420931F9B838A83ED91FC9111978081918125
S11304309983888305C03983288302C0F983E883BC
S1130440CA17DB0711F0CD93DC93DF91CF910895A8
S1130450EF92FF920F931F93CF93DF938C010E942F
S1130460EC0D8091E2089091E308892B09F47DDF7B
S11304708091D8089091D90880239123892B09F081
S113048076C00115110549F0C8010496081719072B
S113049018F000E010E001C08C010115110509F409
S11304A069C08091E0089091E1088017910708F4F1
S11304B064C0C091E408D091E508E4EEF8E002C01D
S11304C0FE01EC018A819B818017910720F48881C9
S11304D099810097A9F78091E2089091E308C817E1
S11304E0D90709F44DC0E080F18084E0E80EF11CE6
S11304F088819981918380832A813B81201B310BE0
S11305002930310548F0CE01800F911FFC0133835F
S113051022831B830A8352DF2A813B818091E00876
S11305209091E108821B930B9093E1088093E0087B
S11305304091DE085091DF088417950720F49093CA
S1130540DF088093DE088091D8089091D908282B81
S1130550392B3B832A83198218828091DC0890917D
S1130560DD0801969093DD088093DC080BC0E12C34
S1130570F12C08C0E12CF12C05C0E12CF12C02C0B7
S1130580E12CF12C0E942C0FE114F10411F40E94CF
S1130590DA19C701DF91CF911F910F91FF90EF906E
S11305A008950F931F93CF93DF93009791F1EC017C
S11305B024974A815B812091D8083091D908BA01E7
S11305C062237323672B29F168817981672B09F5ED
S11305D020953095242335233B832A830E94EC0DF8
S11305E08A819B812091E0083091E108820F931F5A
S11305F09093E1088093E008CE01E0DE8091DA0870
S11306009091DB0801969093DB088093DA080E94AE
S11306102C0FDF91CF911F910F9108958091E008E5
S11306209091E1080895FC010396928381834FEF32
S11306305FEFBA014383548365837683908787830E
S11306409287818710820895FC011386128608958B
S11306500F931F93CF93DF93EB01088119812A81B4
S11306603B810F3F4FEF14072407340721F4FC01AB
S1130670A185B28511C0DC01139601C0DF01149677
S1130680ED91FC911597408151816281738104172A
S113069015072607370790F71496ED91FC911597E7
S11306A0FD83EC83D783C683BF83AE831596DC9327
S11306B0CE9314979B878A87FC0120812F5F208328
S11306C0DF91CF911F910F910895CF93DF93FC0198
S11306D0A285B385C481D581868197819F838E83CA
S11306E0C681D781848195819D838C8311968D9158
S11306F09C911297E817F90731F486819781129635
S11307009C938E931197138612868C9181508C93AF
S11307108C91DF91CF910895A89590EC88E10FB664
S1130720F894A895809360000FBE9093600008959C
S1130730FC01608331977083319710823197108266
S1130740319720E8208331971082319710823197B6
S11307501082779740833197508386970895DCDF22
S1130760A0915317B0915417CD91CDBFDD91DEBF49
S1130770FF91EF91DF91CF91BF91AF919F918F91B5
S11307807F916F915F914F913F912F911F910F91A5
S1130790FF90EF90DF90CF90BF90AF909F908F909D
S11307A07F906F905F904F903F902F901F900F908D
S11307B00CBE0F900BBE0F900FBE0F90089581E0FA
S11307C008950F920FB6F8940F920BB60F920CB6D1
S11307D00F921F9211242F923F924F925F926F9229
S11307E07F928F929F92AF92BF92CF92DF92EF92BD
S11307F0FF920F931F932F933F934F935F936F93A6
S11308007F938F939F93AF93BF93CF93DF93EF9394
S1130810FF93A0915317B09154170DB60D920EB6D5
S11308200D920E948810A0915317B0915417CD9146
S1130830CDBFDD91DEBFFF91EF91DF91CF91BF91ED
S1130840AF919F918F917F916F915F914F913F9164
S11308502F911F910F91FF90EF90DF90CF90BF9059
S1130860AF909F908F907F906F905F904F903F904C
S11308702F901F900F900CBE0F900BBE0F900FBEC9
S11308800F9008950F920FB6F8940F920BB60F9233
S11308900CB60F921F9211242F923F924F925F92A7
S11308A06F927F928F929F92AF92BF92CF92DF927C
S11308B0EF92FF920F931F932F933F934F935F9366
S11308C06F937F938F939F93AF93BF93CF93DF9354
S11308D0EF93FF93A0915317B09154170DB60D9257
S11308E00EB60D9213BE0E94000E81110E94881054
S11308F0A0915317B0915417CD91CDBFDD91DEBFB8
S1130900FF91EF91DF91CF91BF91AF919F918F9123
S11309107F916F915F914F913F912F911F910F9113
S1130920FF90EF90DF90CF90BF90AF909F908F900B
S11309307F906F905F904F903F902F901F900F90FB
S11309400CBE0F900BBE0F900FBE0F9008959ADF50
S11309501895DC0153962C915397222341F05A9613
S1130960ED91FC915B9790818AE0891B089580E06A
S113097008950FB6F8940F92FC01868D811102C080
S113098081E001C080E00F900FBE08950FB6F89487
S11309900F92FC01268D878D281302C081E001C0CF
S11309A080E00F900FBE08950F931F93CF93DF93B2
S11309B0EC01042F1E8D48A141110CC0888199813E
S11309C0892B09F042C08C819D810E9420131D82D5
S11309D01C8242C0011117C050E08A819B810E9491
S11309E0B62E28A18A819B81820F911D9B838A83C5
S11309F02C813D818217930750F1888199819B83D3
S1130A008A8380E029C050E08E819F810E94B62EA7
S1130A1088A190E09195819591092E813F81280FBD
S1130A20391F3F832E83488159812417350730F4B9
S1130A302C813D81820F931F9F838E83023049F462
S1130A40112349F0115080E007C080E005C080E028
S1130A5003C080E001C080E01F5F1E8FDF91CF9153
S1130A601F910F910895FC0140A14423A9F050E087
S1130A7026813781240F351F37832683848195810E
S1130A802817390720F08081918197838683CB01D1
S1130A90668177810C94B62E08951F93CF93DF93CC
S1130AA0EC010FB6F8940F921AA10BC08B8988231E
S1130AB051F0CE0143960E94461181110E94821288
S1130AC0115011169CF38FEF8AA30F900FBE0FB62F
S1130AD0F8940F9219A10BC08885882351F0CE0198
S1130AE008960E94461181110E948212115011161B
S1130AF09CF38FEF89A30F900FBEDF91CF911F91CD
S1130B000895CF93DF93EC010FB6F8940F92E88128
S1130B10F9818F8D28A190E030E0829FA001839F0E
S1130B20500D929F500D11244E0F5F1F5D834C8317
S1130B301E8EFB83EA830197289FA001299F500DF5
S1130B40389F500D1124CF01840F951F9F838E83EE
S1130B508FEF89A38AA361110BC08885882371F064
S1130B60CE0108960E944611882341F02ADE06C071
S1130B70CE01089658DDCE01439655DD0F900FBE89
S1130B8081E0DF91CF9108950F931F93F8016111D4
S1130B9003C01183008302C051834083878F60A305
S1130BA061E0CF01AEDF1F910F910895DF92EF92C4
S1130BB0FF920F931F93CF93DF93F82EE62ED42E3C
S1130BC0869FC0011124839643DCEC01009741F019
S1130BD08C012D2DAC014D5D5F4F6E2D8F2DD4DF1B
S1130BE0CE01DF91CF911F910F91FF90EF90DF9095
S1130BF00895CF92DF92EF92FF920F931F93CF93BA
S1130C00DF93CDB7DEB729970FB6F894DEBF0FBEDA
S1130C10CDBF7C016B012E833F834887598710E049
S1130C200FB6F8940F92F701968D878D981710F0F0
S1130C300230B1F4402FB601C701B6DEF701938943
S1130C40992341F0C70143960E944611882321F05D
S1130C50B8DD02C08111B5DD0F900FBE81E04CC03C
S1130C608E819F81A885B985892B8A2B8B2B21F4B2
S1130C700F900FBE80E040C0111105C0CE01019657
S1130C800E940B1211E00F900FBEA6D70FB6F89476
S1130C900F92F70181A18F3F09F411A2F70182A1FC
S1130CA08F3F09F412A20F900FBEBE016A5F7F4FFF
S1130CB0CE0101960E941C12811119C0C70166DE83
S1130CC0882381F04E815F8168857985C701089604
S1130CD00E94ED10C701E1DE0E942C0F8111A0CF0C
S1130CE070DD9ECFC701D9DE0E942C0F99CFC701BA
S1130CF0D4DE0E942C0F80E029960FB6F894DEBF54
S1130D000FBECDBFDF91CF911F910F91FF90EF9058
S1130D10DF90CF900895EF92FF920F931F93CF939C
S1130D20DF938A01FC01568D378D531710F0223062
S1130D30F9F4422F7801EC011AA18E8DCE0134DE34
S1130D401F3F81F48B898823A9F0CE0143960E942A
S1130D504611882389F0E114F10481F081E0F70160
S1130D6080830DC0FF24F394F10EFAA281E007C042
S1130D7080E005C081E003C081E001C081E0DF9133
S1130D80CF911F910F91FF90EF900895CF92DF9232
S1130D90EF92FF920F931F93CF93DF93CDB7DEB7FC
S1130DA029970FB6F894DEBF0FBECDBF8C016B013F
S1130DB02E833F8348875987E12C0FB6F8940F920E
S1130DC0F801F68CFF2099F0B601C8014CDEFA94C4
S1130DD0F801F68E8085882331F0C80108960E94B8
S1130DE046118111EEDC0F900FBE81E04FC08E8161
S1130DF09F81A885B985892B8A2B8B2B21F40F9091
S1130E000FBE80E043C0E11006C0CE0101960E94EF
S1130E100B12EE24E3940F900FBEDED60FB6F894B7
S1130E200F92F80181A18F3F09F411A2F80182A168
S1130E308F3F09F412A20F900FBEBE016A5F7F4F6D
S1130E40CE0101960E941C12811117C0C80191DDC8
S1130E50882379F04E815F8168857985C80143963E
S1130E600E94ED10C80119DEF7D78111A6CFA9DCC5
S1130E70A4CFC80112DEF0D7A0CFC8010EDEECD794
S1130E80C80177DD882309F498CF80E029960FB64E
S1130E90F894DEBF0FBECDBFDF91CF911F910F91AC
S1130EA0FF90EF90DF90CF900895EF92FF920F9311
S1130EB01F93CF93DF93CDB7DEB729970FB6F8947E
S1130EC0DEBF0FBECDBF8C014E835F8368877987F9
S1130ED0E12CF12C0FB6F8940F92F801868D88233B
S1130EE0C9F08150868F80819181892B29F40E94D9
S1130EF0E213F80195838483F8018085882331F017
S1130F00C80108960E94461181115BDC0F900FBE48
S1130F1081E06FC08E819F81A885B985892B8A2B3A
S1130F208B2B21F40F900FBE80E063C0F11006C03C
S1130F30CE0101960E940B12FF24F3940F900FBE72
S1130F404BD60FB6F8940F92F80181A18F3F09F4A4
S1130F5011A2F80182A18F3F09F412A20F900FBED3
S1130F60BE016A5F7F4FCE0101960E941C1281115F
S1130F7026C0C801FEDC8823F1F0F801808191814C
S1130F80892B51F40FB6F8940F92848195810E94B5
S1130F909912E82E0F900FBE4E815F816885798586
S1130FA0C80143960E94ED10C80177DD55D7811121
S1130FB091CF07DC8FCFC80170DD4ED78BCFC8012E
S1130FC06CDD4AD7C801D5DC882309F483CFEE2031
S1130FD079F00FB6F8940F92C801BBDC682FF801C2
S1130FE0848195810E947B130F900FBE80E001C025
S1130FF080E029960FB6F894DEBF0FBECDBFDF9117
S1131000CF911F910F91FF90EF900895CF93DF93AD
S1131010EC010FB6F8940F9289A18F3F09F419A23D
S11310208AA18F3F09F41AA20F900FBE8E8D8111F1
S113103004C0CE0143960E940411CE012EDDDF913F
S1131040CF910895FC014481558122813381240F7D
S1131050351F80819181B901681B790BCB0164171D
S1131060750710F0841B950B08950F93FC018FE016
S1131070DF011D928A95E9F7758764875583448358
S11310803783268306870F910895AF92BF92CF923C
S1131090DF92EF92FF920F931F93CF93DF936C0134
S11310A05B017A01FC01C281D381048115810C1B8F
S11310B01D0B4017510708F48A01F60184859585B4
S11310C0A801B5018C0F9D1F0E94B62E0E151F0599
S11310D058F4A701401B510BB501600F711FF601B5
S11310E0848595850E94B62ECE018E0D9F1DF60136
S11310F0248135818217930710F0821B930BF6012C
S113110093838283C701DF91CF911F910F91FF9049
S1131110EF90DF90CF90BF90AF900895CF92DF9281
S1131120EF92FF920F931F93CF93DF931F921F921F
S1131130CDB7DEB77C016B015A8349832115310594
S1131140C1F0FC01868580FD08C04217530708F4EE
S11311509A013A83298381E00FC02017310758F0A0
S113116042E050E0BE016F5F7F4FC7018EDF81E038
S113117003C080E001C080E0882331F049815A81B6
S1131180B601C70182DF02C080E090E00F900F90AB
S1131190DF91CF911F910F91FF90EF90DF90CF904F
S11311A00895AF92BF92CF92DF92EF92FF920F9386
S11311B01F93CF93DF937C015B01E901421753072F
S11311C008F4EA01209781F1F701008111818481FB
S11311D09581801B910B6E018C179D0708F46C019F
S11311E0F70164857585600F711FA601C5010E9412
S11311F0B62ECC16DD0658F4AE014C195D09F70184
S113120064857585C5018C0D9D1D0E94B62E0C0F3D
S11312101D1FF701848195810817190710F0081B19
S1131220190BF70111830083CE01DF91CF911F9138
S11312300F91FF90EF90DF90CF90BF90AF90089503
S11312406F927F928F929F92AF92BF92CF92DF92D2
S1131250EF92FF920F931F93CF93DF931F921F92EE
S1131260CDB7DEB76C014B015A01790101151105A7
S1131270B1F0FC0160807180A801BE016F5F7F4FF7
S113128090DF89819A81E01AF10AA816B90630F430
S1131290F60171826082A12CB12C01C05C0197011E
S11312A0A501B401C6017DDF0F900F90DF91CF91AE
S11312B01F910F91FF90EF90DF90CF90BF90AF9070
S11312C09F908F907F906F900895CF92DF92EF92CE
S11312D0FF920F93CF93DF93EC016B01413011F434
S11312E001E001C000E0C114D10419F4CC24C3947A
S11312F0D12CCE014096C817D90720F42196A8D83E
S11313007C0102C0E12CF12CE114F10439F09601C6
S1131310AE01B701615F7F4FC701A7DEC701DF914F
S1131320CF910F91FF90EF90DF90CF9008950F939E
S11313300FB6F8940F92FC0120853185232B71F4AC
S113134022853385232B61F426813781448155819D
S113135064857585068589DE81E003C080E001C06F
S113136080E00F900FBE0F910895FC012481358118
S113137080819181820F931F42815381841B950B3D
S113138001978217930710F0821B930B08952F92F5
S11313903F924F925F926F927F928F929F92AF9201
S11313A0BF92CF92DF92EF92FF920F931F93CF934E
S11313B0DF93CDB7DEB72B970FB6F894DEBF0FBE21
S11313C0CDBF4C017B876A871A010E831F83288750
S11313D03987FC01848195810197268520FF0CC003
S11313E02A01F2E04F0E511C8415950558F41E8213
S11313F01F821886198606C08417950710F02A01E3
S113140001C02C018E819F81A885B985892B8A2BE7
S11314108B2B09F436C0CE010196E7D70FB6F894AA
S11314200F92C401A2DF3C018415950538F560E0F4
S113143080E090E00E94B4160E948612F401938723
S113144082870F900FBEAE80BF80C884D984E12C00
S1131450F12C00E010E0980140E050E0BA0180E097
S11314600E94F413F40113861286BE016A5F7F4F53
S1131470CE010196E1D7882389F205C00F900FBEF3
S113148002C0612C712C6114710419F4C4016DDF64
S11314903C0182019301A1016A857B85C4013EDE82
S11314A06C01892BE9F0C401CDDDF401268137817B
S11314B082179307A8F090D3F40180859185892B36
S11314C071F080859185E12CF12C00E020E030E082
S11314D0A90160E00E949B14F40111861086BCD41B
S11314E0C6012B960FB6F894DEBF0FBECDBFDF91B9
S11314F0CF911F910F91FF90EF90DF90CF90BF900D
S1131500AF909F908F907F906F905F904F903F909F
S11315102F900895AF92BF92CF92DF92EF92FF92F5
S11315200F931F93CF93DF93EC017B015A01690161
S11315308E8580FF04C08A010E5F1F4F01C08A019F
S1131540CE0113DF9C01A501B701CE01E7DD5C01EB
S1131550892BC1F0CE0176DD2E813F81821793075E
S113156088F088859985892B69F088859985E12C8F
S1131570F12C00E020E030E0A90160E00E94921527
S113158019861886C501DF91CF911F910F91FF90A5
S1131590EF90DF90CF90BF90AF9008954F925F92FD
S11315A06F927F928F929F92AF92BF92CF92DF926F
S11315B0EF92FF920F931F93CF93DF93EC012B01D4
S11315C03A01580169018E8580FF05C0689488241A
S11315D081F8912C02C0812C912CA114B104C10476
S11315E0D10439F10FB6F8940F92CE012BDD7C01B2
S11315F08816990640F060E080E090E00E94B416FE
S113160085D7998788870F900FBE8E149F04A0F00A
S1131610E12CF12C00E010E0980140E050E0BA0128
S113162080E00E94F41319861886CE010BDD7C013C
S113163003C0CE0107DD7C018E149F04E8F484010D
S11316409701A301B201CE01FBDD6C01892BB1F03E
S1131650C3D28A859B85892B69F08A859B85E12C79
S1131660F12C00E020E030E0A90160E00E949B142E
S11316701B861A86F1D302C0C12CD12CC601DF917E
S1131680CF911F910F91FF90EF90DF90CF90BF907B
S1131690AF909F908F907F906F905F904F90089540
S11316A0E091CD16F091CE16808181110CC08FEFA0
S11316B09FEFDC018093971690939816A093991648
S11316C0B0939A160895E091CD16F091CE16078046
S11316D0F085E02D80819181A281B381809397165A
S11316E090939816A0939916B0939A160895CF9351
S11316F0DF93EC018B8D9C8D0E94D102CE010E9460
S1131700D102DF91CF9108954F925F926F927F92B1
S11317108F929F92AF92BF92CF92DF92EF92FF92FD
S11317200F93CF93DF932C015B014A013901E6014A
S113173065EA70E08B8D9C8D0E94BF2E8B8D9C8DF5
S113174021E0821A9108880E991EA114B10489F42B
S113175015C0822F90E0F501E80FF91F3081DE01FA
S1131760A80FB91F5D963C938081882329F02F5FD1
S113177001C020E0203168F31CA601C01D8E0A3090
S113178008F009E00A8F0DA71EA6CE0102960E945A
S11317902403CE010E960E942403DB87CA878AE0C5
S11317A090E0A0E0B0E0801B9109A109B1098E8707
S11317B09F87A88BB98BDF8BCE8B84E0FE01BF960D
S11317C0DF011D928A95E9F71BAAA301B201C401A6
S11317D00E94980399838883E114F10419F0F701B6
S11317E0D183C083DF91CF910F91FF90EF90DF9071
S11317F0CF90BF90AF909F908F907F906F905F90AD
S11318004F900895CF93C0E009C02BE0C29FC00160
S113181011248B51994E0E941303CF5FCA30A8F351
S11318208AED96E10E9413038FEC96E10E94130364
S113183080EC96E10E94130385EB96E10E9413036A
S113184089EA96E10E9413038AED96E19093CE16FD
S11318508093CD168FEC96E19093CC168093CB16A3
S1131860CF910895CF93DF93EC010FB6F8940F92C4
S11318708091A8168F5F8093A8168091531790913A
S11318805417892B51F4D0935417C0935317809154
S1131890A816813091F4B6DF10C08091A216811190
S11318A00CC0E0915317F0915417928D8A8D8917CB
S11318B020F0D0935417C093531780919B168F5FD9
S11318C080939B16EA8D8091A3168E1710F4E093F3
S11318D0A3168BE08E9FF0011124EB51F94E018089
S11318E0F281E02DFF83EE832681378139872887B3
S11318F0A681B7819E012E5F3F4F15963C932E9390
S1131900149737832683EA8D8E9FF0011124EB51BF
S1131910F94EFD87EC8780818F5F80830F900FBE27
S11319208091A216882351F0E0915317F091541737
S1131930928D8A8D981710F40E94E103DF91CF9164
S11319400895CF93DF931BC00FB6F8940F92E091E4
S1131950BC16F091BD16C085D185CE0102960E94B9
S113196065038091A81681508093A8168091B416BF
S113197081508093B4160F900FBECE01B8DE8091D3
S1131980B4168111E1CFDF91CF9108958F929F9288
S1131990AF92BF92CF92DF92EF92FF92CF93DF93F9
S11319A06B017C01C42F8090A4169090A516A09082
S11319B0A616B090A71680915317909154170296CB
S11319C00E9465038FEFC816D806E806F806B1F53D
S11319D0CC23A1F1E9EAF6E1A181B281C0915317C8
S11319E0D0915417BF83AE83C0915317D09154172D
S11319F016968D919C911797998788871696CD9105
S1131A00DC911797809153179091541702969D83F8
S1131A108C838091531790915417029617969C9338
S1131A208E931697A0915317B09154171D96FC935B
S1131A30EE931C9780818F5F80833FC0C80CD91CB4
S1131A40EA1CFB1CE0915317F0915417C282D38215
S1131A50E482F582C814D904EA04FB0468F46091B2
S1131A605317709154178091CB169091CC166E5FDA
S1131A707F4F0E94280321C060915317709154171F
S1131A808091CD169091CE166E5F7F4F0E942803F1
S1131A908091971690919816A0919916B0919A16E4
S1131AA0C816D906EA06FB0640F4C0929716D092EF
S1131AB09816E0929916F0929A16DF91CF91FF90C2
S1131AC0EF90DF90CF90BF90AF909F908F9008954C
S1131AD02F923F924F925F926F927F928F929F923A
S1131AE0AF92BF92CF92DF92EF92FF920F93CF9378
S1131AF0DF933C011B014A012901CA010E9428020B
S1131B006C01892B71F084E390E00E942802EC01BF
S1131B10892B19F0DC8ECB8E06C0C6010E94D1023F
S1131B2002C0C0E0D0E0209761F0A12CB12C6E017E
S1131B309201A401B101C301E7DDCE0193DE81E08E
S1131B4001C08FEFDF91CF910F91FF90EF90DF9065
S1131B50CF90BF90AF909F908F907F906F905F9049
S1131B604F903F902F900895EF92FF920F930F2E76
S1131B70F5E9EF2EF6E1FF2EF02D00E020E030E055
S1131B8040EC50E06AE972E08DEC90E0A1DF813036
S1131B9011F40E9458178130C9F4F8948FEF9FEF25
S1131BA0DC018093971690939816A0939916B0939E
S1131BB09A1681E08093A2161092A4161092A5168C
S1131BC01092A6161092A7160E94AF0380910602E7
S1131BD00F91FF90EF900895809194168F5F8093FA
S1131BE0941608950FB6F8940F926091A41670910C
S1131BF0A5168091A6169091A7160F900FBE089572
S1131C00CF92DF92EF92FF92CF93DF93809194165D
S1131C10811105C1C090A416D090A516E090A61617
S1131C20F090A7168FEFC81AD80AE80AF80AC092EB
S1131C30A416D092A516E092A616F092A716C11487
S1131C40D104E104F104B1F48091CD169091CE1643
S1131C502091CB163091CC163093CE162093CD160E
S1131C609093CC168093CB1680919C168F5F8093B3
S1131C709C1616DD8091971690919816A09199164E
S1131C80B0919A16C816D906EA06FB0620F480E03D
S1131C90B2C081E001C080E0E091CD16F091CE1693
S1131CA0908191110CC04FEF5FEFBA0140939716EA
S1131CB0509398166093991670939A169CC0E0916D
S1131CC0CD16F091CE160780F085E02D0084F185C5
S1131CD0E02D4281538164817581C416D506E606E0
S1131CE0F70648F440939716509398166093991604
S1131CF070939A1680C0A485B585C681D781208546
S1131D0031853F832E83C085D185268137813D83EC
S1131D102C8311964D915C9112979F012E5F3F4F3A
S1131D204217530731F44085518512965C934E93C4
S1131D301197158614869C9191509C93A08DB18D1A
S1131D40109709F1C289D389448955895F834E83E9
S1131D50C489D589428953895D834C8311966D91D9
S1131D607C911297AF01425F5F4F6417750731F49E
S1131D704489558912965C934E931197118E108E57
S1131D809C9191509C93A28D9091A3169A1710F454
S1131D90A093A3169BE09A9FD0011124AB51B94E96
S1131DA011960D90BC91A02DB783A68316964D91E4
S1131DB05C911797518740871696CD91DC911797C0
S1131DC03D832C8317963C932E931697A28D9A9F4E
S1131DD0D0011124AB51B94EB587A4879C919F5F64
S1131DE09C93228DE0915317F0915417928D2917EB
S1131DF008F04FCF51CFE0915317F0915417E28D73
S1131E009BE0E99FF0011124EB51F94E908192304F
S1131E1008F081E090919D16911116C016C0809132
S1131E209E1690919F16A091A016B091A1160196AE
S1131E30A11DB11D80939E1690939F16A093A0168A
S1131E40B093A11680E001C081E0DF91CF91FF90B3
S1131E50EF90DF90CF900895CF92DF92EF92FF92B0
S1131E60CF93DF930FB6F8940F928091941681501C
S1131E7080939416809194168111BEC08091A81607
S1131E80811188C0BCC0E091C716F091C8160084C7
S1131E90F185E02DA08DB18DC289D389848995897E
S1131EA09F838E83C489D589828993899D838C83FA
S1131EB011962D913C911297CF010E962817390750
S1131EC031F48489958912969C938E931197118E7F
S1131ED0108E8C9181508C93A485B585C681D78151
S1131EE0808591859F838E83C085D18586819781E6
S1131EF09D838C8311968D919C9112979F012E5FE7
S1131F003F4F8217930731F48085918512969C93F5
S1131F108E931197158614868C9181508C93A28D83
S1131F208091A3168A1710F4A093A3168BE08A9FBE
S1131F30D0011124AB51B94E11960D90BC91A02D36
S1131F40B783A68316964D915C9117975187408766
S1131F501696CD91DC9117973D832C8317963C936D
S1131F602E931697A28D8A9FD0011124AB51B94E9E
S1131F70B587A4878C918F5F8C93928DA091531712
S1131F80B09154175A968C91981730F081E0809351
S1131F909D1602C0E0E0F0E08091C016811173CF7D
S1131FA0EF2B09F07DDBC0909E16D0909F16E09039
S1131FB0A016F090A116C114D104E104F104A1F01B
S1131FC01FDE882319F081E080939D1681E0C81AF2
S1131FD0D108E108F108A1F710929E1610929F16FD
S1131FE01092A0161092A11680919D16882331F0AC
S1131FF00E94E10381E003C080E001C080E00F9013
S11320000FBEDF91CF91FF90EF90DF90CF900895B6
S11320108F929F92AF92BF92CF92DF92EF92FF92F4
S11320201F93CF93DF93EC016A017B01D5DD809090
S1132030A4169090A516A090A616B090A716888115
S11320409981AA81BB81AC01BD014C0D5D1D6E1D42
S11320507F1D88169906AA06BB0660F4481759071F
S11320606A077B0798F484169506A606B70680F0DF
S113207010E013C0481759076A077B0758F0841605
S11320809506A606B70640F010E007C010E005C0AC
S113209011E003C011E001C011E0488359836A8351
S11320A07B83112341F0CB01BA01681979098A09AC
S11320B09B0940E06BDCD0DE811102C00E94E10389
S11320C0812FDF91CF911F91FF90EF90DF90CF9000
S11320D0BF90AF909F908F900895CF92DF92EF9230
S11320E0FF926B017C01672B682B692B39F074DD3F
S11320F040E0C701B6014ADCAFDE01C080E08111D7
S113210002C00E94E103FF90EF90DF90CF9008950A
S113211080919416882321F081E080939D16089580
S113212010929D16E0915317F0915417208131813C
S1132130E0915317F0915417838D948D8217930770
S113214060F06091531770915417635E7F4F8091D4
S11321505317909154170E94E6198091A31601C059
S11321608150282F30E09BE0929FF001939FF00D67
S11321701124EB51F94E9081992391F39BE0929FA6
S1132180A001939F500D1124DF010180F281E02D05
S11321900480F581E02D1296FC93EE93119748513B
S11321A0594EE417F50729F444815581FD01528302
S11321B041839BE0929FF001939FF00D1124EB511A
S11321C0F94E0180F281E02D20853185309354173A
S11321D0209353178093A3160895CF92DF92EF9222
S11321E0FF926A017B016091531770915417625FEB
S11321F07F4F0E94280341E0C701B601C7DBFF906F
S1132200EF90DF90CF900895CF93DF93FC01CB0143
S1132210BA01A181B281C0915317D0915417BB8BDD
S1132220AA8BC0915317D091541716964D915C9177
S113223017975D8B4C8B1696CD91DC911797409137
S1132240531750915417425F5F4F5D834C83409105
S1132250531750915417425F5F4F17965C934E93F8
S11322601697A0915317B09154175996FC93EE9377
S1132270589730813F5F3083222319F06FEF7FEF4F
S1132280CB01422F83DBDF91CF910895CF93DF936E
S1132290DC011796ED91FC9118970084F185E02DEF
S11322A0A08DB18DC289D389848995899F838E83BA
S11322B0C489D589828993899D838C8311968D9154
S11322C09C9112979F01225F3F4F8217930731F42D
S11322D08489958912969C938E931197118E108EF2
S11322E08C9181508C9380919416811152C0A48555
S11322F0B585C681D781808591859F838E83C0856E
S1132300D185868197819D838C8311968D919C9133
S113231012979F012E5F3F4F8217930731F48085F8
S1132320918512969C938E931197158614868C91A1
S113233081508C93A28D8091A3168A1710F4A093D8
S1132340A3168BE08A9FD0011124AB51B94E11968C
S11323500D90BC91A02DB783A68316964D915C91E8
S11323601797518740871696CD91DC9117973D8337
S11323702C8317963C932E931697A28D8A9FD00197
S11323801124AB51B94EB587A4878C918F5F8C9380
S11323901CC040EC56E1DA011196CD91DC91129704
S11323A0D38BC28B8E819F81958B848B8E819F81F1
S11323B0DC0115963C932E9314973F832E83518F03
S11323C0408FDA018C918F5F8C93928DE09153173B
S11323D0F0915417828D891720F481E080939D1623
S11323E001C080E0DF91CF9108950FB6F8940F9269
S11323F020919C16FC0120834091A4165091A516AF
S11324006091A6167091A7164183528363837483E7
S11324100F900FBE089520919C16FC0120834091DB
S1132420A4165091A5166091A6167091A716418323
S113243052836383748308958F929F92AF92BF9265
S1132440CF92DF92EF92FF920F931F93CF93DF937C
S1132450FB010FB6F8940F92C090A416D090A51665
S1132460E090A616F090A716DC0111960D911D912F
S11324702D913C91149746015701801A910AA20AA2
S1132480B30A40815181628173814F3FBFEF5B0783
S11324906B077B0739F1EC01B881A0919C16BA1740
S11324A059F0C016D106E206F30630F0108211820C
S11324B01282138281E017C084169506A606B70619
S11324C058F4481959096A097B0940835183628386
S11324D07383A1DF80E007C010821182128213820D
S11324E081E001C080E00F900FBEDF91CF911F917A
S11324F00F91FF90EF90DF90CF90BF90AF909F909F
S11325008F90089581E080939D16089580915317CC
S11325109091541708958091A216882331F08091E8
S11325209416811104C082E0089581E0089580E04A
S113253008950F931F93CF93DF93FC01892B09F424
S113254077C0828DA0915317B09154175A969C91DD
S1132550891708F063C04685578560897189772398
S113256094F0A0915317B09154175A969C914AE055
S113257050E060E070E0491B510961097109468728
S11325805787608B718B248535854BE0849FC00110
S113259011248B51994E28173907B9F5EF018F0192
S11325A00E5F1F4FC8010E946503E0915317F0911D
S11325B05417E28DEA8F8091A3168E1710F4E093DE
S11325C0A3168BE08E9FF0011124EB51F94E01808C
S11325D0F281E02DFF83EE832681378139872887B6
S11325E0A681B78115961C930E93149717830683BF
S11325F0EA8D8E9FF0011124EB51F94EFD87EC8793
S113260080818F5F808381E016C0A0915317B091C1
S113261054175A968C91828F81E00DC095A5E09154
S11326205317F0915417828D981720F080E003C05F
S113263080E001C081E0DF91CF911F910F91089557
S11326400F931F93CF93DF93FC01892B09F449C0A7
S113265086A5815086A7228D95A5291709F443C024
S1132660811143C0EF018F010E5F1F4FC8010E940B
S11326706503EDA5EA8F8AE090E0A0E0B0E08E1B50
S11326809109A109B1098E879F87A88BB98B809185
S1132690A3168E1710F4E093A3168BE08E9FF0011F
S11326A01124EB51F94E0180F281E02DFF83EE837A
S11326B02681378139872887A681B78115961C938F
S11326C00E93149717830683EA8D8E9FF0011124CD
S11326D0EB51F94EFD87EC8780818F5F808381E029
S11326E005C080E003C080E001C080E0DF91CF91AD
S11326F01F910F9108950F931F93CF93DF93FC01C4
S1132700892B09F45AC085A5861708F4862F928D63
S1132710891709F452C026A5213009F04EC0828FD2
S11327204685578560897189772364F04AE050E0D3
S113273060E070E0481B51096109710946875787B9
S1132740608B718B248535854BE0949FC0011124E7
S11327508B51994E2817390781F5EF018F010E5FD0
S11327601F4FC8010E946503EA8D8091A3168E173E
S113277010F4E093A3168BE08E9FF0011124EB512B
S1132780F94E0180F281E02DFF83EE8326813781AB
S113279039872887A681B78115961C930E931497C1
S11327A017830683EA8D8E9FF0011124EB51F94EB5
S11327B0FD87EC8780818F5F8083DF91CF911F91AC
S11327C00F9108958091531790915417892B39F0E4
S11327D0E0915317F091541786A58F5F86A78091D7
S11327E053179091541708954F925F926F927F926E
S11327F0AF92BF92CF92DF92EF92FF920F931F930B
S1132800CF93DF93280139010FB6F8940F92E0912A
S11328105317F0915417C82FD0E0EC0FFD1F83A974
S1132820823071F1E0915317F0915417CE01880F63
S1132830991F880F991FE80FF91F87A590A9A1A9CF
S1132840B2A94095509560957095482359236A2301
S11328507B2347A750AB61AB72ABE0915317F09168
S11328605417EC0FFD1F81E083ABA114B104C10424
S1132870D10431F041E0C601B50188D80E94E103DA
S11328800F900FBE0FB6F8940F92E114F104A1F06B
S1132890E0915317F0915417CE01880F991F880FB8
S11328A0991FE80FF91F87A590A9A1A9B2A9F7015B
S11328B080839183A283B383E0915317F0915417DB
S11328C0EC0FFD1F83A98230E9F4E0915317F091D6
S11328D05417CE01880F991F880F991FE80FF91F0D
S11328E087A590A9A1A9B2A940945094609470942A
S11328F0482259226A227B2247A650AA61AA72AAB8
S113290081E001C080E02091531730915417C20F29
S1132910D31F1BAA0F900FBEDF91CF911F910F9170
S1132920FF90EF90DF90CF90BF90AF907F906F902B
S11329305F904F9008958F929F92AF92BF92EF92C3
S1132940FF920F93CF93DF93DC010FB6F8940F92AD
S1132950E114F10489F0E62FF0E0EE0FFF1FEE0F13
S1132960FF1FE80FF91F87A490A8A1A8B2A8F70138
S113297080829182A282B38270E0FD01E60FF71F8C
S113298083A992E093AB023001F118F4013031F0E5
S11329904DC0033079F10430D1F148C0660F771F80
S11329A0660F771FFD01E60FF71F87A490A8A1A863
S11329B0B2A8BA01A901482959296A297B2947A73C
S11329C050AB61AB72AB01E034C0660F771F660F8A
S11329D0771FFD01E60FF71F47A550A961A972A94A
S11329E04F5F5F4F6F4F7F4F47A750AB61AB72ABE9
S11329F001E01FC0660F771F660F771FFD01E60F0A
S1132A00F71F27A730AB41AB52AB01E012C08230B5
S1132A1079F0660F771F660F771FFD01E60FF71F2A
S1132A2027A730AB41AB52AB01E003C001E001C0CA
S1132A3000E0813009F069C01C96ED91FC911D976E
S1132A401696CD91DC91179718968D919C911997B4
S1132A509F838E831896CD91DC91199716968D914C
S1132A609C9117979D838C83818192819D012E5F18
S1132A703F4F8217930731F418968D919C911997C3
S1132A80928381831D961C921E921C978081815093
S1132A9080835A96EC915A978091A3168E1710F45E
S1132AA0E093A3168BE08E9FF0011124EB51F94EB5
S1132AB00180F281E02D1796FC93EE9316974681E0
S1132AC0578119965C934E931897C681D7813D839D
S1132AD02C83378326835A96EC915A978E9FF00164
S1132AE01124EB51F94E1D96FC93EE931C978081B3
S1132AF08F5F80835A969C91E0915317F0915417FD
S1132B00828D891710F40E94E1030F900FBE802F6D
S1132B10DF91CF910F91FF90EF90BF90AF909F9076
S1132B208F9008958F929F92AF92BF92CF92DF922F
S1132B30EF92FF920F93CF93DF93DC01E114F10442
S1132B4089F0E62FF0E0EE0FFF1FEE0FFF1FE80FF6
S1132B50F91F87A490A8A1A8B2A8F7018082918246
S1132B60A282B38270E0FD01E60FF71F93A982E011
S1132B7083AB023001F118F4013031F04DC0033061
S1132B8079F10430D1F148C0660F771F660F771FC3
S1132B90FD01E60FF71F87A490A8A1A8B2A8BA0167
S1132BA0A901482959296A297B2947A750AB61AB58
S1132BB072AB81E034C0660F771F660F771FFD018B
S1132BC0E60FF71F47A550A961A972A94F5F5F4F90
S1132BD06F4F7F4F47A750AB61AB72AB81E01FC013
S1132BE0660F771F660F771FFD01E60FF71F27A7F4
S1132BF030AB41AB52AB81E012C0923079F0660F3A
S1132C00771F660F771FFD01E60FF71F27A730AB6D
S1132C1041AB52AB81E003C081E001C080E0913060
S1132C2009F096C09091941691115FC01C96ED9195
S1132C30FC911D971696CD91DC91179718962D91BE
S1132C403C9119973F832E831896CD91DC91199767
S1132C5016962D913C9117973D832C834181528187
S1132C609D012E5F3F4F4217530731F418964D9143
S1132C705C911997528341831D961C921E921C9756
S1132C809081915090835A96EC915A979091A31603
S1132C909E1710F4E093A3169BE09E9FF00111246D
S1132CA0EB51F94E0180F281E02D1796FC93EE93DF
S1132CB016974681578119965C934E931897C6814F
S1132CC0D7813D832C83378326835A96EC915A9778
S1132CD09E9FF0011124EB51F94E1D96FC93EE9347
S1132CE01C9790819F5F908321C060EC76E1FB018B
S1132CF0C181D2815396DC93CE9352972E813F812A
S1132D0055963C932E9354974E815F819D01225F8B
S1132D103F4FFA01358324833F832E8359967C9356
S1132D206E935897FB0190819F5F90835A962C91E4
S1132D30E0915317F0915417928D921748F4C114EF
S1132D40D10419F091E0F601908391E090939D16DF
S1132D50DF91CF910F91FF90EF90DF90CF90BF90D4
S1132D60AF909F908F900895009721F4809153170E
S1132D70909154170FB6F8940F9270E0FC01E60F8F
S1132D80F71F23A9223031F4FC01E60FF71F13AA21
S1132D9081E001C080E00F900FBE0895DC01E09156
S1132DA05F17F0916017808191E0811190E09C930E
S1132DB0911108C00780F085E02D608171818281C6
S1132DC09381089560E070E0CB010895CF92DF9283
S1132DD0EF92FF920F931F93FC014283538364830A
S1132DE07583938782870417150726073707C0F072
S1132DF00C191D092E093F0986859785A089B1897B
S1132E00081719072A073B0700F5BF016E5F7F4FBC
S1132E1080915D1790915E170E94280380E018C08E
S1132E200C151D052E053F0528F44C155D056E0592
S1132E307F0568F4BF016E5F7F4F80915F179091AB
S1132E4060170E94280380E003C081E001C081E094
S1132E501F910F91FF90EF90DF90CF9008950FB6E0
S1132E60F8940F9280915B1790915C17892BE9F489
S1132E708CE697E10E94130381E697E10E94130315
S1132E808CE697E19093601780935F1781E697E152
S1132E9090935E1780935D1740E067E08AE00E949C
S1132EA0D60590935C1780935B170F900FBE08951F
S1132EB0EF92FF920F93D3DF80915B1790915C1791
S1132EC0892B91F00F2EF9E5EF2EF7E1FF2EF02D6F
S1132ED003E020E030E040EC50E06FE972E087ED81
S1132EE090E00E94680D01C080E00F91FF90EF9088
S1132EF008958F929F92AF92BF92CF92DF92EF92FA
S1132F00FF920F931F93CF93DF93CDB7DEB727972D
S1132F100FB6F894DEBF0FBECDBFE0915B17F09102
S1132F205C17309781F169832A833B834C835D83EB
S1132F309F838E836630F4F4EEDA823069F400E025
S1132F40A7019601BE016F5F7F4F80915B1790913F
S1132F505C170E94F90518C000E020E030E0A901E8
S1132F60BE016F5F7F4F80915B1790915C170E9449
S1132F70F9050AC020E0A801BE016F5F7F4FCF01B1
S1132F800E948B0601C080E027960FB6F894DEBF3E
S1132F900FBECDBFDF91CF911F910F91FF90EF90A6
S1132FA0DF90CF90BF90AF909F908F9008958F92B5
S1132FB09F92AF92BF92CF92DF92EF92FF920F93C4
S1132FC01F93CF93DF933BC00780F085E02D808073
S1132FD09180A280B380C085D1858E010E5F1F4F82
S1132FE0C8010E946503EC89FD89CE0119958E897B
S1132FF082FF25C08E859F85A889B989880D991D72
S1133000AA1DBB1D88169906AA06BB0670F48A83FE
S11330109B83AC83BD83DB87CA87B80180915F172C
S1133020909160170E9428030AC0C12CD12C76010C
S113303000E010E0A501940160E0CE015ADFE091C8
S11330405F17F091601780818111BECF80915D1769
S113305090915E179093601780935F17F0935E17BB
S1133060E0935D17DF91CF911F910F91FF90EF9047
S1133070DF90CF90BF90AF909F908F900895CF92A4
S1133080DF92EF92FF92CF93DF93EC010E94F20D57
S11330906B017C018091551790915617A091571799
S11330A0B0915817C816D906EA06FB0620F47FDF4C
S11330B081E0888301C01882C0925517D0925617B8
S11330C0E0925717F0925817C701B601DF91CF91DC
S11330D0FF90EF90DF90CF9008954F925F926F92A0
S11330E07F928F929F92AF92BF92CF92DF92EF9294
S11330F0FF920F931F93CF93DF934B015C01290140
S11331003A01E0915F17F09160170780F085E02D98
S1133110C085D185CE0102960E9465038E8982FF07
S11331201BC04E855F8568897989480D591D6A1DC4
S11331307B1D7501640193018201CE0147DE882362
S113314069F0C12CD12C760100E010E0A5019401B6
S113315060E0CE01CEDE02C08E7F8E8BEC89FD89CD
S1133160CE011995DF91CF911F910F91FF90EF90B0
S1133170DF90CF90BF90AF909F908F907F906F9093
S11331805F904F9008958F929F92AF92BF92CF928B
S1133190DF92EF92FF921F93CF93DF931F92CDB7ED
S11331A0DEB76B017C01142F0E94EC0DCE01019659
S11331B066DF4B015C01898181112DC011110DC0A5
S11331C08C149D04AE04BF0440F00E942C0FA50192
S11331D09401C701B60181DF20C0112341F0E091C1
S11331E05D17F0915E17808111E0811110E0B70145
S11331F0A601481959096A097B09212F80915B1797
S113320090915C170E9406080E942C0F811105C042
S11332100E94E10302C00E942C0F0F90DF91CF9116
S11332201F91FF90EF90DF90CF90BF90AF909F9051
S11332308F900895AF92BF92CF92DF92EF92FF9258
S11332400F931F93CF93DF93CDB7DEB728970FB6B5
S1133250F894DEBF0FBECDBF82C0898188230CF4F1
S11332607EC0AE80BF80D5011C968D919C911D9728
S1133270892B21F0C50102960E946503CE010896B0
S1133280FEDE8B019C01E9810E2E000CFF0BEA305F
S1133290F10508F064C08827EE58FF4F8F4F0C9457
S11332A06F2DF50186898160868BCA80DB80EC8076
S11332B0FD8046855785608971894C0D5D1D6E1DA5
S11332C07F1DC50183DD882309F449C0D5015496C7
S11332D0ED91FC915597C5011995F501868982FFF9
S11332E03EC04A815B816C817D8186859785A089FA
S11332F0B1899A01AB01280F391F4A1F5B1FC12CEA
S1133300D12C760100E010E060E0C501F2DD27C0B9
S1133310D50156968C9156978E7F56968C931FC0E6
S1133320F50186898160868B4A815B816C817D8110
S113333046875787608B718B400F511F621F731F25
S113334068017901C50142DD0AC0F501868981FD64
S113335004C0C5010E94D10202C08E7F868B20E08A
S113336030E0A901BE016F5F7F4F80915B179091A0
S11333705C170E94C606811170CF28960FB6F89488
S1133380DEBF0FBECDBFDF91CF911F910F91FF9094
S1133390EF90DF90CF90BF90AF900895089584B1DF
S11333A0806884B985B1806885B9089583B18068DF
S11333B083B90895F4DF2FEF80E792E02150804035
S11333C09040E1F700C00000F1DFF5CFE8DF2FEF18
S11333D087EA91E6215080409040E1F700C0000068
S11333E0E5DFF5CF40E062E08AE00E94D6059093E5
S11333F05E1980935D1908950F93CF93DF931F9205
S11334001F92CDB7DEB79A8389838A818F9389818E
S11334108F9387EA92E09F938F9389EF98E19F932C
S11334208F930E94582F89EF98E147D300E02FEF44
S11334303FEFA901BE016F5F7F4F80915D199091AD
S11334405E190E94F9050F900F900F900F900F9046
S11334500F900F900F90DF91CF910F9108950E94DC
S11334600B24811104C080E090E0C6CF089586EC5F
S113347092E00E94282F80E090E0BECF0895CF9381
S1133480DF931F921F92CDB7DEB72CED35E040E0FD
S113349050E0BE016F5F7F4F80915D1990915E197E
S11334A00E94C6068A818F9389818F9383ED92E06F
S11334B09F938F9389EF98E19F938F930E94582F46
S11334C089EF98E1FAD20F900F900F900F900F9020
S11334D00F9089819A810F900F90DF91CF91089579
S11334E040E062E08AE00E94D605909362198093DE
S11334F0611940E062E08AE00E94D6059093601969
S113350080935F1908950F93CF93DF931F921F92B7
S1133510CDB7DEB79A8389838A818F9389818F930C
S113352085EF92E09F938F9389EF98E19F938F9318
S11335300E94582F89EF98E1C0D200E02FEF3FEFAF
S1133540A901BE016F5F7F4F80916119909162194B
S11335500E94F9050F900F900F900F900F900F900D
S11335600F900F90DF91CF910F9108950F93CF9308
S1133570DF931F921F92CDB7DEB79A8389838A8126
S11335808F9389818F938CE193E09F938F9389EF3D
S113359098E19F938F930E94582F89EF98E18DD2E1
S11335A000E02FEF3FEFA901BE016F5F7F4F8091D5
S11335B05F19909160190E94F9050F900F900F9078
S11335C00F900F900F900F900F90DF91CF910F916C
S11335D00895EF92FF920F931F93CF93DF9300D040
S11335E01F92CDB7DEB70E94F20D69837A838B8375
S11335F09C83D0D3882321F080E493E00E94282F79
S113360043E050E060E070E0CE0101960E940810B3
S1133610D6D3882351F080E593E00E94282F80E0E0
S113362090E0A4DF80E090E06EDF40E050E0BA017B
S1133630CE0101960E940810D3D312D38B01E5D397
S11336400AD37B010036110588F085E6E816F104FB
S11336506CF040E050E0BA01CE0101960E940810DF
S1133660BFD3FED28B01D1D3F6D27B01C8017EDF5A
S1133670C70149DF0F900F900F900F90DF91CF910A
S11336801F910F91FF90EF900895CF93DF931F92B6
S11336901F92CDB7DEB72CED35E040E050E0BE011F
S11336A06F5F7F4F80916119909162190E94C606E5
S11336B08A818F9389818F938AE793E09F938F9375
S11336C089EF98E19F938F930E94582F89EF98E197
S11336D0F4D10F900F900F900F900F900F9089815D
S11336E09A810F900F90DF91CF910895CF93DF933C
S11336F01F921F92CDB7DEB72CED35E040E050E0CD
S1133700BE016F5F7F4F80915F19909160190E9495
S1133710C6068A818F9389818F9384EA93E09F936D
S11337208F9389EF98E19F938F930E94582F89EF8D
S113373098E1C3D10F900F900F900F900F900F90BE
S113374089819A810F900F90DF91CF9108950F9303
S11337501F93CF93DF93CDB7DEB764970FB6F8947A
S1133760DEBF0FBECDBF81E00E944729D6D452D719
S11337709F938F938BEC93E09F938F930E94152FCD
S11337804AD648D79F938F938EED93E09F938F9360
S11337900E94152F8E010F5F1F4FC801D0D43AD756
S11337A01F930F939F938F9387EF93E09F938F9330
S11337B00E94152FC801DFD42DD79F938F931F9399
S11337C00F938BE094E09F938F930E94152FA80191
S11337D060E274E081E494E0FCD61CD79F938F935D
S11337E01F930F9380E294E09F938F9381E494E07E
S11337F09F938F9382E594E09F938F930E94152F5C
S1133800EDD408D79F938F9388E894E09F938F9388
S11338100E94152F0FB6F894DEBF0FBECDBF81E016
S1133820D7D5F8D69F938F9387E994E09F938F938E
S11338300E94152F84EF91E0D6D5ECD69F938F93F9
S113384081E08F9384EF8F9388EB94E09F938F9321
S11338500E94152F0FB6F894DEBF0FBECDBF1AE03D
S113386080E0C2D4082FD6D69F938F931F921F93C4
S113387088ED94E09F938F930E94152F0F900F90E3
S11338800F900F900F900F90083059F080E00E9435
S1133890AB2966E371E080E090E00E946D10115066
S11338A0F9F6083041F488EF94E00E94282F81E073
S11338B00E948D2909C081E00E949C2980E00E9419
S11338C06A290E94E103FDCF64960FB6F894DEBF27
S11338D00FBECDBFDF91CF911F910F910895CF936C
S11338E0DF9300D01F92CDB7DEB781E008D462E049
S11338F070E080E090E00E946D1080E000D466E902
S113390070E080E090E00E946D10B2D320DFE7E722
S1133910F7E188E0818382E080830E94F20D69836D
S11339207A838B839C8381E195E00E94282F48EA67
S113393058E460E070E0CE0101960E9408100E94F5
S1133940A7018C01DC0113968C9113978F93129627
S11339508C9112978F9311968C9111978F938C91D0
S11339608F9315968C9115978F9314968C918F93B2
S113397084E295E09F938F930F2EF9EFEF2EF8E1F9
S1133980FF2EF02DFF92EF920E94582FC70195D081
S1133990E7E7F7E1128281E08383D80111968C91E5
S11339A0119784838C91858315968C9115978683C2
S11339B014968C911497878313968C911397808710
S11339C012968C91818783E00E94BD2967E777E195
S11339D080E033D41FD69F938F938FE495E09F9319
S11339E08F93FF92EF920E94582FC70166D00FB6B3
S11339F0F894DEBF0FBECDBF96CFCF93DF93CDB784
S1133A00DEB766970FB6F894DEBF0FBECDBF81E078
S1133A1076D362E070E080E090E00E946D1080E078
S1133A206ED366E970E080E090E00E946D1020D3D0
S1133A3082E0898384E08A830FEF1FEF980146E1D7
S1133A4050E0BE016F5F7F4F8091631990916419BC
S1133A500E94CE0A9A8189811F929F931F928F930D
S1133A6084E695E09F938F930E94152F0F900F90FB
S1133A700F900F900F900F90DFCFEF92FF920F9364
S1133A80CF93E12CF12C082F20E030E048E851E0FE
S1133A9065E975E08FE69CE10E94680D20E030E066
S1133AA048E851E06CE975E08DEF9CE10E94680DF7
S1133AB0CF910F91FF90EF9008950F93CF93DF93E1
S1133AC0C82FD92F44E650E060E070E08091F718E9
S1133AD09091F8180E945507813099F4DF93CF93A1
S1133AE00E94152F00E020E030E0A90160E070E0C2
S1133AF08091F7189091F8180E94F9050F900F9093
S1133B0004C087EA95E00E94282FDF91CF910F919E
S1133B1008950F9343E060E081E00E94D6059093FE
S1133B20F8188093F71800E020E030E0A90160E085
S1133B3070E00E94F9050F910895CF93DF9300D0B0
S1133B401F92CDB7DEB70E94F20D69837A838B830F
S1133B509C834BEB50E060E070E0CE0101960E9444
S1133B60081037DD7CDCF5CFCF93DF9300D01F92B4
S1133B70CDB7DEB70E94F20D69837A838B839C8371
S1133B8043E557E060E070E0CE0101960E94081022
S1133B900E941101F5CFEF92FF920F93E12CF12CCB
S1133BA000E020E030E040EC50E067EC75E08DE9A7
S1133BB09DE10E94680D20E030E040EC50E063EDB0
S1133BC075E084EB9DE10E94680D0F91FF90EF90EA
S1133BD00895E1DF0E940E039F938F9383EE95E097
S1133BE09F938F9389EF98E19F938F930E94582F0F
S1133BF00E94B40D0F900F900F900F900F900F90A4
S1133C00089581B1816881B980E090E00E94F22733
S1133C10E9DB66DC0E94080183E0D8D5A3D085E007
S1133C200E94F92841E060E070E08CE290E00E949C
S1133C3065099093641980936319BC0181E01FD2D4
S1133C4083E01BCF0895DDDF64DF82EF95E00E94FF
S1133C50282FBFDFFFCF04D06894B11150C008955E
S1133C6033D088F09F5790F0B92F9927B751A0F01F
S1133C70D1F0660F771F881F991F1AF0BA95C9F7FC
S1133C8012C0B13081F03AD0B1E0089537C0672F47
S1133C90782F8827B85F39F0B93FCCF386957795AC
S1133CA06795B395D9F73EF4909580957095619595
S1133CB07F4F8F4F9F4F089557FD9058440F551FC6
S1133CC059F05F3F71F04795880F97FB991F61F09A
S1133CD09F3F79F087950895121613061406551F11
S1133CE0F2CF4695F1DF08C0161617061806991F7D
S1133CF0F1CF86957105610508940895E894BB2772
S1133D0066277727CB0197F908956530F1F4FA0116
S1133D1080818F7390E0982F88272181822B909344
S1133D200A02809309028281F0E48F9FC00111246A
S1133D30FA01238126952695822B9093080280937D
S1133D40070281E080938D170895643051F080E07C
S1133D5090E4909308028093070290930A02809360
S1133D60090208950F931F9305E81EE120E034E251
S1133D7044EF50E060E087E20E94E02990938F17BF
S1133D8080938E1721E0892B09F020E0822F1F9168
S1133D900F91089580918E1790918F17009759F085
S1133DA040E060E070E00E94312A843031F41092E7
S1133DB08D1780E0089582E0089583E0089580914E
S1133DC08E1790918F17009739F064E00E947D2A36
S1133DD0853021F083E0089582E0089580E008951D
S1133DE06091090270910A0280E090E00E945B2CCD
S1133DF020E030E048EC52E40E94C02C20E038EF90
S1133E004FE756E40C94F02B0895609107027091EB
S1133E10080280E090E00E945B2C20E030E045E264
S1133E2053E40E94C02C20E038EF4FE756E40E9490
S1133E30F02B20E030E040E252E40C94892B08950A
S1133E400F931F93CF93DF931F921F92CDB7DEB7CB
S1133E508C0119822DC0E091F417EC3250F481E00A
S1133E608E0F8093F417F0E0EA5DF74E8A81808329
S1133E7002C01092F4178A818A30D1F44091F41769
S1133E8050E0FA01EC5DF74E1082415051099E0159
S1133E902F5F3F4F66E278E18091F7179091F81712
S1133EA00E948A0A898181110E94E1031092F41709
S1133EB0BE016E5F7F4FC801FFD5882361F20F906A
S1133EC00F90DF91CF911F910F9108950F931F933E
S1133ED0CF93DF938C01EB018091F7179091F81742
S1133EE00E949709B80180E997E10E94F62E209775
S1133EF079F0E0E9F7E101900020E9F7319780E2F9
S1133F0090E091838083BE0180E997E10E94EB2ECB
S1133F10E0E9F7E1DF010D900020E9F711978DE06A
S1133F209AE011969C938E9312961C920190002015
S1133F30E9F73197E059F741AE2F80E997E1AC01F9
S1133F406A2F8091F9179091FA1761D5811111C0E8
S1133F5008E215E020E030E04DE250E060E878E16E
S1133F608091F7179091F8170E94CE0A80E898E1A3
S1133F7002C080E090E0DF91CF911F910F910895EE
S1133F802F923F924F925F926F927F928F929F9265
S1133F90AF92BF92CF92DF92EF92FF920F931F9353
S1133FA0CF93DF935C01FC0101900020E9F7319786
S1133FB06F01C81AD90A5C2C0F2EFCE98F2EF8E089
S1133FC09F2EF02DE12CF12C4C2C3701F4010181B2
S1133FD01281E80109900020E9F72197C01BD10B59
S1133FE03C2EF9E0CF16D10458F0F4012080FEE015
S1133FF02F1206C0B801C5010E94C62E892B09F5EF
S1134000442D351408F44C2F50E0B801C5010E942A
S1134010FD2E892B49F4F301EE0FFF1FE60DF71D6A
S1134020E456F74F20800DC08FEFE81AF80AE3E05A
S11340308E0E911CF1E1EF16F10439F668942224F6
S113404024F8822DDF91CF911F910F91FF90EF9073
S1134050DF90CF90BF90AF909F908F907F906F90A4
S11340605F904F903F902F90089530DF89CF08954F
S11340708091F7179091F8170C94970908958F92EF
S11340809F92AF92CF92EF920F931F93CF93C82F2B
S11340908B0141E060E070E088EC90E00E946509EB
S11340A09093F8178093F7171093F6170093F5176A
S11340B00F2EF0E28F2EFFE19F2EF02D6894AA249C
S11340C0A6F86894CC24C6F8E12C00E023E040E094
S11340D051EE60E070E08C2FCDD39093FA1780936B
S11340E0F917E7E0F1E0808180618083CF911F912F
S11340F00F91EF90CF90AF909F908F900895882369
S113410031F0E8E0F1E080818F7E80830895E8E07B
S1134110F1E0808180618083089560E070E082E254
S113412096E0D4DEE0E8F8E101900020E9F7319769
S1134130E058F84181E0759708F080E00895CF9346
S1134140DF93EC0160E070E083E396E0BFDEE0E83B
S1134150F8E101900020E9F7E159F84139F460E809
S113416078E1CE010E94F62E80E002C0188281E040
S1134170DF91CF910895FC0101900020E9F79F01A0
S1134180215131092817390729F4BC0181E696E049
S11341906CCF089589E00895FC0101900020E9F7AF
S11341A09F01215131092817390729F4BC0180E7FF
S11341B096E05BCF089589E00895FC01019000200A
S11341C0E9F79F01215231092817390729F4BC0165
S11341D08FE796E04ACF089589E0089560E070E0A3
S11341E08EEB96E042CF08950F931F93E82FF0E0F3
S11341F0EE0FFF1FE856F74F6081718187EC96E060
S113420034DF811114C008E215E020E030E04DE213
S113421050E060E878E18091F7179091F8170E94D8
S1134220CE0A882321F080E898E1AADE03C080E862
S113423098E1A6DE1F910F9108950F931F93CF93DA
S1134240DF931F92CDB7DEB7DB0111969C911197D6
S1134250953108F0B4C0992381F160E070E0272F14
S113426030E0462F50E0FD01E40FF51F9281929556
S11342709F709A3010F0995C01C0905DF901EF5E77
S1134280F74E90832F5F3F4FFD01E40FF51F92819E
S11342909F70492F50E04A30510514F0995C01C0D9
S11342A0905DF901EF5EF74E90837E5F6F5F11962C
S11342B09C911197691798F201C070E0E72FF0E024
S11342C0EF5EF74E10824C91811103C080ED96E0B1
S11342D002C082ED96E021E138E13F932F931F92D3
S11342E04F939F938F9386ED96E09F938F9383E5EF
S11342F098E19F938F930E94582F60E070E083E5CC
S113430098E1B3DE0FB6F894DEBF0FBECDBF8111C6
S113431059C008E215E020E030E04DE250E060E8EA
S113432078E18091F7179091F8170E94CE0A8823BC
S113433009F447C080E898E123DE8E3009F042C0DA
S113434087E089838091F5179091F617892BA9F15D
S1134350BE016F5F7F4F80E898E168D18093FB17BF
S1134360E981F0E0E058F74EDF010D900020E9F715
S11343701197AE1BBF0BAA2391F0BB27CD01019768
S11343809C0112F42F5F3F4F359527952093FC171E
S1134390AF014F5F5F4F64E18DEF97E173D101E0AF
S11343A010E020E030E046E150E06BEF77E18091EF
S11343B0F5179091F6170E94C7098EE003C084E1B7
S11343C001C080E00F90DF91CF911F910F9108956C
S11343D0813019F066EE76E002C06FEB77E08AEE8A
S11343E096E043CE08959F938F938BE197E09F933C
S11343F08F9383E598E19F938F930E94582F60E0F9
S113440070E083E598E131DE0F900F900F900F90EC
S11344100F900F9008952F923F924F925F926F9258
S11344207F928F929F92AF92BF92CF92DF92EF9240
S1134430FF920F931F93CF93DF93CDB7DEB7A0976F
S11344400FB6F894DEBF0FBECDBF68E477E084E515
S113445097E03CDD95DD8111A3C080E2E2E2F2E069
S1134460DE01119601900D928A95E1F79E012F5F6E
S11344703F4F6901E12CF12C0F2EF0E6AF2EF7E04F
S1134480BF2EF02D03E518E10F2EF9E74F2EF7E0CC
S11344905F2EF02D0F2EF0E98F2EF7E09F2EF02DDA
S11344A00F2EFAEA6F2EF7E07F2EF02D3E2C2F2CE4
S11344B0FF92EF92BF92AF921F930F930E94582FD7
S11344C060E070E0C80102DD5BDD0F900F900F909B
S11344D00F900F900F90811163C032E03E15E8F405
S11344E0F60183818F9382818F9381818F93808161
S11344F08F93FF92EF925F924F921F930F930E94BC
S1134500582F60E070E0C801E1DC3ADD0FB6F894A2
S1134510DEBF0FBECDBF811143C02F923F929F9249
S11345208F921F930F930E94582F60E070E0C80190
S1134530CDDC26DD0F900F900F900F900F900F9011
S113454081112EC02F923F927F926F921F930F93EF
S11345500E94582F60E070E0C801B8DC11DD0F90B4
S11345600F900F900F900F900F90811119C03FEF93
S1134570E31AF30A84E0C80ED11C98E0E916F104AA
S113458009F094CF60E070E082EC97E09FDCF8DC07
S1134590811106C060E070E083ED97E097DCF0DC09
S11345A0A0960FB6F894DEBF0FBECDBFDF91CF91BA
S11345B01F910F91FF90EF90DF90CF90BF90AF903D
S11345C09F908F907F906F905F904F903F902F902F
S11345D00895EF92FF920F931F93CF93DF93EC0113
S11345E08B017A0181E0F4DE81110DC0CE01D4DDAE
S11345F0811109C0C801E1DD811105C0C701BBDD1E
S1134600811101C0EBDDDF91CF911F910F91FF90DC
S1134610EF90089590E0FC01EE0FFF1F8E0F9F1F97
S1134620FC01E456F74F818192810895DC010097E3
S113463029F1FB012081FC0101900020E9F7319769
S1134640E81BF90B822F90E0E817F907C8F080E027
S113465008C0880F382F330F330F830F8053890F0F
S11346602F5FFD01E20FF11D908130ED390F3A30DB
S113467010F49111EECFFB012083089580E008959A
S113468080E008950F931F93CF93DF93DC01EA0139
S11346902097E1F1FA0101900020E9F73197E41B3A
S11346A0F50B329710F532C08D01040F151F30E061
S11346B0AE01420F531FFA019081913428F09753B1
S11346C0592F5295507F03C0592F5295507F2C0F6C
S11346D03D1FF9019181913410F0975301C090531B
S11346E0950FF80190838F5F01C080E0282F220F7F
S11346F0482F50E0FE0101900020E9F73197EC1BB0
S1134700FD0B4E175F0710F48613CECFDF91CF91C8
S11347101F910F9108958091B018860F8093B0185F
S11347209091B318913079F028F09230A9F0933039
S113473019F108956F3F09F048C01092B01881E054
S11347408093B3180895663809F03FC01092AF18EB
S113475082E08093B3180895E091AF1881E08E0F42
S11347608093AF18F0E0E355F74E6083823069F52B
S113477083E08093B31808959091AF1821E0290F36
S11347802093AF18963009F581110EC0EDEAF8E1D7
S1134790808190E0982F88272181820F911D90932A
S11347A0B5188093B41804C01092B5181092B418B8
S11347B01092B318E091B118F091B218309729F023
S11347C08091B4189091B518199508958F929F927D
S11347D0AF92CF92EF920F930F2EFBE88F2EF3E25E
S11347E09F2EF02D6894AA24A4F86894CC24C4F8CD
S11347F0E12C00E023E040E855E260E070E03AD0CC
S11348009093B7188093B6180F91EF90CF90AF9014
S11348109F908F900895CF93DF93CDB7DEB72997FC
S11348200FB6F894DEBF0FBECDBF89E0E2E4F2E03C
S11348309E012F5F3F4FD90101900D928A95E1F7B8
S11348401092B5181092B4188091B6189091B718B8
S1134850009731F0422F532F69E0D9D080E001C096
S113486082E029960FB6F894DEBF0FBECDBFDF916C
S1134870CF9108952F923F924F925F926F927F92C1
S11348808F929F92AF92CF92EF92FF920F931F93CA
S1134890CF93DF93CDB7DEB7F82E2A013B0188E032
S11348A090E00E94912D8C018F2D90E0FC01EE0F81
S11348B0FF1FE854F74E118300830115110509F415
S11348C069C0880F991FFC01E55FFD4F80819181CC
S11348D0D8018D939C936C2D70E084E090E00E944D
S11348E0772D1C0161E070E086E090E00E94772D56
S11348F07C014C2DB101F1D6F801F582E4826A2DD8
S113490070E084E090E00E94772D1C0161E070E08B
S113491086E090E00E94772D7C014A2DB101DDD61E
S1134920D8011396FC92EE92129717969C928E924F
S11349301697FFB6F894ED91FC9111973697808104
S1134940826080838D909C90C301B201B4D720E033
S113495030E040E051E40E94C02C9B01AC0160E0D7
S113496074E284E79BE43CD720E030E040E85FE376
S1134970D0D676D9F40132976083D801ED91FC91B9
S11349801197359788E98083ED91FC91349786E0FF
S11349908083FFBEC801DF91CF911F910F91FF90DB
S11349A0EF90CF90AF909F908F907F906F905F909B
S11349B04F903F902F900895CF93DF93DC01892B84
S11349C001F11296ED91FC911397938182812581D7
S11349D0981B922384819817B1F08381269528230C
S11349E0C081D181C20FD11D68838F5F95818923D6
S11349F08383ED91FC91359780818062808380E090
S1134A0003C081E001C082E0DF91CF910895EF926D
S1134A10FF920F931F93CF93DF937C01009709F4C8
S1134A2041C0DC011296ED91FC9113979381828130
S1134A30981B858198238481891B8617A8F1662396
S1134A4041F1842F952FDC016150462F50E04F5FD8
S1134A505F4F480F591FE701EA81FB8193818281EF
S1134A602581981B92238481981779F08C919381E6
S1134A7026952923608171818B01020F111DE801A4
S1134A8088839F5F8581982393831196A417B50724
S1134A9011F7D701ED91FC91359780818062808375
S1134AA080E003C081E001C082E0DF91CF911F91DB
S1134AB00F91FF90EF9008950097D1F0DC011496C8
S1134AC0ED91FC91159793818281981799F09281C9
S1134AD0858186958923A081B181A80FB11D8C9110
S1134AE0DB018C939F5F85819823928380E00895F6
S1134AF081E0089583E008951F920F920FB60F92FC
S1134B0011240BB60F922F933F934F935F936F93A0
S1134B107F938F939F93AF93BF93CF93DF93EF9341
S1134B20FF93A091B818B091B918109711F1609142
S1134B30C6001496ED91FC9115979381828125818D
S1134B40981B92238481981761F0838126952823EA
S1134B50C081D181C20FD11D68838F5F9581892364
S1134B6083831696ED91FC911797309711F0CD0140
S1134B701995FF91EF91DF91CF91BF91AF919F91E3
S1134B808F917F916F915F914F913F912F910F90F2
S1134B900BBE0F900FBE0F901F9018951F920F928F
S1134BA00FB60F9211240BB60F922F938F939F93EE
S1134BB0AF93BF93EF93FF93E091B818F091B918B6
S1134BC03097B9F00280F381E02D938182819817A8
S1134BD0B1F092818581282F26952923A081B18166
S1134BE0A20FB11D2C919F5F892382832093C6005D
S1134BF00BC0E1ECF0E080818F7D808305C0E1ECA7
S1134C00F0E080818F7D8083FF91EF91BF91AF9120
S1134C109F918F912F910F900BBE0F900FBE0F900D
S1134C201F9018951F920F920FB60F9211240BB676
S1134C300F922F933F934F935F936F937F938F9331
S1134C409F93AF93BF93CF93DF93EF93FF93A09181
S1134C50BA18B091BB18109711F16091CE00149658
S1134C60ED91FC911597938182812581981B922364
S1134C708481981761F0838126952823C081D1818E
S1134C80C20FD11D68838F5F958189238383169614
S1134C90ED91FC911797309711F0CD011995FF9183
S1134CA0EF91DF91CF91BF91AF919F918F917F91C0
S1134CB06F915F914F913F912F910F900BBE0F9089
S1134CC00FBE0F901F9018951F920F920FB60F9260
S1134CD011240BB60F922F938F939F93AF93BF938F
S1134CE0EF93FF93E091BA18F091BB183097B9F0A5
S1134CF00280F381E02D938182819817B1F0928133
S1134D008581282F26952923A081B181A20FB11D69
S1134D102C919F5F892382832093CE000BC0E9EC02
S1134D20F0E080818F7D808305C0E9ECF0E0808134
S1134D308F7D8083FF91EF91BF91AF919F918F9170
S1134D402F910F900BBE0F900FBE0F901F901895D0
S1134D501F920F920FB60F9211240BB60F922F933E
S1134D603F934F935F936F937F938F939F93AF93EF
S1134D70BF93CF93DF93EF93FF93A091BC18B091AF
S1134D80BD18109711F16091D6001496ED91FC9125
S1134D901597938182812581981B9223848198178A
S1134DA061F0838126952823C081D181C20FD11D52
S1134DB068838F5F9581892383831696ED91FC9197
S1134DC01797309711F0CD011995FF91EF91DF916D
S1134DD0CF91BF91AF919F918F917F916F915F918F
S1134DE04F913F912F910F900BBE0F900FBE0F90DC
S1134DF01F9018951F920F920FB60F9211240BB6A5
S1134E000F922F938F939F93AF93BF93EF93FF933F
S1134E10E091BC18F091BD183097B9F00280F3818D
S1134E20E02D938182819817B1F092818581282F9A
S1134E3026952923A081B181A20FB11D2C919F5FDA
S1134E40892382832093D6000BC0E1EDF0E08081BA
S1134E508F7D808305C0E1EDF0E080818F7D8083CC
S1134E60FF91EF91BF91AF919F918F912F910F90EF
S1134E700BBE0F900FBE0F901F9018951F920F92AC
S1134E800FB60F9211240BB60F922F933F934F93AB
S1134E905F936F937F938F939F93AF93BF93CF93BE
S1134EA0DF93EF93FF93A091BE18B091BF181097B2
S1134EB011F1609136011496ED91FC91159793814F
S1134EC082812581981B92238481981761F08381C4
S1134ED026952823C081D181C20FD11D68838F5F9D
S1134EE09581892383831696ED91FC9117973097CA
S1134EF011F0CD011995FF91EF91DF91CF91BF9101
S1134F00AF919F918F917F916F915F914F913F915D
S1134F102F910F900BBE0F900FBE0F901F901895FE
S1134F201F920F920FB60F9211240BB60F922F936C
S1134F308F939F93AF93BF93EF93FF93E091BE182A
S1134F40F091BF183097B9F00280F381E02D93817E
S1134F5082819817B1F092818581282F2695292383
S1134F60A081B181A20FB11D2C919F5F89238283FF
S1134F70209336010BC0E1E3F1E080818F7D8083D3
S1134F8005C0E1E3F1E080818F7D8083FF91EF91A3
S1134F90BF91AF919F918F912F910F900BBE0F9066
S1134FA00FBE0F901F901895CF93DF931F92CDB72C
S1134FB0DEB7BE016F5F7F4F8091C0189091C1181A
S1134FC07BDD8111F6CF898190E00F90DF91CF9145
S1134FD00895682F8091C0189091C118EDDC80E08D
S1134FE090E008958F929F92AF92CF92EF920F9399
S1134FF0812C912C6894AA24A7F86894CC24C7F82F
S1135000E12C00E023E040E051EE60E070E032DCAF
S11350109093C1188093C018E9E6F9E183E192E026
S113502091838083938382830F91EF90CF90AF908D
S11350309F908F90089590E0FC01EE0FFF1FE80F02
S1135040F91FEE0FFF1FEE53F74E238121111FC0EE
S11350509C01220F331FF901E80FF91FEE0FFF1F08
S1135060EE53F74EA081B1814C91F901E80FF91F7D
S1135070EE0FFF1FEE53F74E81E090E0028002C076
S1135080880F991F0A94E2F7842B8C930895FC01EE
S1135090EE0FFF1FDF01A80FB91FAA0FBB1FAE53EE
S11350A0B74E0D90BC91A02D2C91E80FF91FEE0F77
S11350B0FF1FEE53F74E81E090E0028002C0880F9C
S11350C0991F0A94E2F7809582238C93089590E0C7
S11350D0FC01EE0FFF1FE80FF91FEE0FFF1FEE5349
S11350E0F74E2381211120C09C01220F331FF901A7
S11350F0E80FF91FEE0FFF1FEE53F74EA081B181A9
S11351004C91F901E80FF91FEE0FFF1FEE53F74E14
S113511081E090E0028002C0880F991F0A94E2F7B0
S1135120809584238C930895FC01EE0FFF1FDF010B
S1135130A80FB91FAA0FBB1FAE53B74E0D90BC9159
S1135140A02D2C91E80FF91FEE0FFF1FEE53F74E21
S113515081E090E0028002C0880F991F0A94E2F770
S1135160822B8C930895CC24C394D12C6894BB24B3
S1135170B2F8C2ECD8E110E08C81813081F018F1F2
S1135180823061F5E881F9812081C6010A8002C07C
S1135190880F991F0A94E2F7822780831FC08D81AC
S11351A08F5F8A3010F48D8319C01D82E881F981E4
S11351B02081C6010A8002C0880F991F0A94E2F771
S11351C0822780830BC00D81002329F0812F7FDF8C
S11351D001500D8303C0BC82812F2DDF1F5F2696F3
S11351E0143051F665E070E080E090E00E946D10AC
S11351F0C0CFEF92FF920F931F93CF93DF93082FAB
S113520080E487B9C2ECD8E10F2EF8E2EF2EF12C3E
S1135210F02DF982E88286E08A831B8214E01C83E5
S113522080E009DF80E887B9FF82EE8287E0888723
S113523019861A8781E0FFDE80E283BB84E390E075
S11352409D878C8785E08E871F86188B82E0F3DE2E
S113525080E18093010182E091E09B8B8A8B1C8B1F
S11352601D8A1E8B83E0E7DEE12CF12C20E030E088
S113527040EC50E06FEC78E083EB98E20E94680D1C
S1135280DF91CF911F910F91FF90EF900895CF93ED
S1135290DF9390E0FC01EE0FFF1FDF01A80FB91FA1
S11352A0AA0FBB1FAE53B74ECD91DC911197488125
S11352B021E030E012960C90129702C0220F331FA7
S11352C00A94E2F724272883FD0181E08483DF9197
S11352D0CF910895CF93DF9390E0FC01EE0FFF1F71
S11352E0DF01A80FB91FAA0FBB1FAE53B74ECD9154
S11352F0DC911197488121E030E012960C901297CE
S113530002C0220F331F0A94E2F724272883FD01E9
S113531082E08483DF91CF910895282F30E0F90152
S1135320EE0FFF1FE20FF31FEE0FFF1FEE53F74EBA
S113533093E09483CCCE0895282F30E0F901EE0F4A
S1135340FF1FE20FF31FEE0FFF1FEE53F74E94E023
S1135350948371CE089590E0FC01EE0FFF1FDF01EE
S1135360A80FB91FAA0FBB1FAE53B74E24E0159662
S11353702C931597FD011482089590E0FC01EE0F23
S1135380FF1FDF01A80FB91FAA0FBB1FAE53B74EF3
S113539021E015962C931597FD01148208958091B0
S11353A0E81881110CC08CE08093B8008FEF8093D3
S11353B0BB0084E08093BC0081E08093E8180895EA
S11353C0AF92BF92CF92DF92EF92FF920F931F930F
S11353D0CF93DF93A82EB62E69017A0184E090E082
S11353E0A0D3EC01892B61F1A88281E0B81212C02C
S11353F0C701B60120EA36E841E050E04ED3DA01B5
S1135400C9014097A109B109B695A79597958795C4
S1135410898311C0C701B60120E83AE146E050E0B3
S11354203CD3DA01C9014097A109B109B695A79502
S11354309795879589831B830A838C2F9D2F02C0A0
S113544080E090E0DF91CF911F910F91FF90EF905A
S1135450DF90CF90BF90AF9008958091BC00817091
S11354600895FF920F931F93CF93DF930097D1F189
S11354704A30D0F5F42E8B01EC01EFDF811136C0F8
S11354808091DB189091DC18C817D90741F087DFA9
S113549089818093B800D093DC18C093DB1881E035
S11354A08F0D8093DD188881880F8093DE18FF208C
S11354B089F0F801AFEDB8E14FEF4F0D642F70E0C4
S11354C0CB010196B801680F791F81918D93E6177E
S11354D0F707D9F788EF8093210285EA8093BC000F
S11354E084E005C086E003C087E001C082E0DF916C
S11354F0CF911F910F91FF9008951F93CF93DF9346
S1135500009729F16B3028F5162FEC01A6DF8111E5
S113551022C08091DB189091DC18C817D90741F09C
S11355203EDF89818093B800D093DC18C093DB18E8
S11355301093DD188881880F81608093DE1888EFCE
S11355408093210285EA8093BC0085E005C086E053
S113555003C087E001C082E0DF91CF911F910895DD
S11355601F920F920FB60F9211240BB60F922F9326
S11355703F934F935F936F937F938F939F93AF93D7
S1135580BF93EF93FF93E091B9008E2F90E0FC015D
S11355903897E135F10508F075C08827E458FF4FC6
S11355A08F4F9DC21092DA18E091DA188091DD18BD
S11355B0E81770F481E08E0F8093DA18F0E0E2527D
S11355C0F74E80818093BB0085E88093BC0072C055
S11355D084E98093BC008091DB189091DC18DC0195
S11355E01296ED91FC911397309709F463C020E073
S11355F040E050E064E019955DC0E091DA1881E084
S11356008E0F8093DA188091BB00F0E0E252F74EDF
S113561080838091B900803411F41092DA182091BB
S1135620DA1830E08091DD1890E0019728173907E7
S113563024F485EC8093BC003DC085E88093BC00D5
S113564039C08091BB00E091DA18F0E0E252F74EE5
S1135650808384E98093BC008091DB189091DC18EE
S1135660DC011296ED91FC911397309719F120917A
S1135670DD184EED58E165E019951CC085EA80936C
S1135680BC0018C08091B9008093210284E080930B
S1135690BC008091DB189091DC18DC011296ED912E
S11356A0FC911397309731F020E040E050E0609196
S11356B021021995FF91EF91BF91AF919F918F9125
S11356C07F916F915F914F913F912F910F900BBEFE
S11356D00F900FBE0F901F901895FC01411101C04F
S11356E041D3842F90E09C012150310982239323DC
S11356F0892B09F037D3413808F034D3128213824E
S11357004483440F415045837183608380E090E07B
S113571008955058BB27AA270ED021C112D130F0CA
S113572017D120F031F49F3F11F41EF407C10EF499
S1135730E095E7FBFDC0E92F0E945C1E78F3BA17E1
S1135740620773078407950720F079F4A6F50C9493
S11357507E1E0EF4E0950B2EBA2FA02D0B01B9017D
S113576090010C01CA01A0011124FF27591B99F0D3
S1135770593F50F4503E68F11A16F040A22F232FDF
S1135780342F4427585FF3CF469537952795A7952F
S1135790F0405395C9F77EF41F16BA0B620B730BD6
S11357A0840BBAF09150A1F0FF0FBB1F661F771F47
S11357B0881FC2F70EC0BA0F621F731F841F48F4FC
S11357C0879577956795B795F7959E3F08F0B1CF84
S11357D09395880F08F09927EE0F9795879508956C
S11357E00DD0BDC0B5D048F0ACD038F021F45F3F47
S11357F021F09EC051110C947F1EA0C00E945C1E1B
S113580088F39923B9F35523A1F3951B550BBB27B3
S1135810AA2762177307840738F09F5F5F4F220F30
S1135820331F441FAA1FA9F334D00E2E3AF0E0E828
S113583031D091505040E695001CCAF72AD0FE2F73
S113584028D0660F771F881FBB1F26173707480706
S1135850AB07B0E809F0BB0B802DBF01FF279358BD
S11358605F4F32F09E3F510570F062C00C947F1E72
S11358705F3FE4F3983ED4F3869577956795B795A3
S1135880F7959F5FC9F7880F911D9695879597F9AE
S11358900895E1E0660F771F881FBB1F6217730727
S11358A08407BA0720F0621B730B840BBA0BEE1F3C
S11358B088F7E0950895E89409C097FB3EF4909525
S11358C08095709561957F4F8F4F9F4F9923A9F0D5
S11358D0F92F96E9BB279395F69587957795679564
S11358E0B795F111F8CFFAF4BB0F11F460FF1BC0A8
S11358F06F5F7F4F8F4F9F4F16C0882311F096E93B
S113590011C0772321F09EE8872F762F05C06623E8
S113591071F096E8862F70E060E02AF09A95660FA1
S1135920771F881FDAF7880F9695879597F908955A
S113593097F99F6780E870E060E008959FEF80EC3E
S1135940089500240A9416161706180609060895E1
S113595000240A9412161306140605060895092E47
S11359600394000C11F4882352F0BB0F40F4BF2BB6
S113597011F460FF04C06F5F7F4F8F4F9F4F0895F6
S11359800CD0EDCFDEDF28F0E3DF18F0952309F02B
S1135990CFCFD4CF11240C947F1E0E945C1E90F3B1
S11359A0959FC1F3950F50E0551F629FF001729FC0
S11359B0BB27F00DB11D639FAA27F00DB11DAA1FCF
S11359C0649F6627B00DA11D661F829F2227B00D1C
S11359D0A11D621F739FB00DA11D621F839FA00DA7
S11359E0611D221F749F3327A00D611D231F849FF7
S11359F0600D211D822F762F6A2F11249F5750404E
S1135A0092F0E9F088234AF0EE0FFF1FBB1F661FD8
S1135A10771F881F91505040A9F79E3F510578F099
S1135A2087CF0C947F1E5F3FE4F3983ED4F38695B2
S1135A3077956795B795F795E7959F5FC1F7FE2B27
S1135A40880F911D9695879597F90895AA1BBB1BFE
S1135A5051E107C0AA1FBB1FA617B70710F0A61B6A
S1135A60B70B881F991F5A95A9F780959095BC018B
S1135A70CD01089597FB072E16F4009406D077FD08
S1135A8008D0E4DF07FC05D03EF4909581959F4F44
S1135A900895709561957F4F0895A1E21A2EAA1B6F
S1135AA0BB1BFD010DC0AA1FBB1FEE1FFF1FA217CA
S1135AB0B307E407F50720F0A21BB30BE40BF50BC7
S1135AC0661F771F881F991F1A9469F76095709550
S1135AD0809590959B01AC01BD01CF010895EE0F17
S1135AE0FF1F881F8BBF0790F691E02D19940F9329
S1135AF01F93CF93DF93869F8001879F100D969FFE
S1135B00100D1124C8010DD0EC01009721F0A8015B
S1135B1060E070E034D1CE01DF91CF911F910F91FD
S1135B2008950F931F93CF93DF938230910510F460
S1135B3082E090E0E0916719F091681920E030E08C
S1135B40A0E0B0E0309719F14081518102811381C6
S1135B5048175907C8F08417950769F4109731F06E
S1135B6012960C93129713961C9327C000936719EF
S1135B701093681922C02115310519F042175307F3
S1135B8018F49A01BD01EF01DF01F801DBCF211503
S1135B903105F9F0281B390B2430310580F48A8152
S1135BA09B816115710521F0FB019383828304C0FD
S1135BB09093681980936719FE01329644C0FE01E0
S1135BC0E20FF31F81939193225031093983288383
S1135BD03AC02091651930916619232B41F4209124
S1135BE002023091030230936619209365192091C3
S1135BF00002309101022115310541F42DB73EB761
S1135C004091040250910502241B350BE091651963
S1135C10F0916619E217F307A0F42E1B3F0B281727
S1135C20390778F0AC014E5F5F4F2417350748F011
S1135C304E0F5F1F5093661940936519819391939A
S1135C4002C0E0E0F0E0CF01DF91CF911F910F910E
S1135C500895CF93DF93009709F481C0FC01329734
S1135C6013821282A0916719B0916819109781F478
S1135C7020813181820F931F20916519309166191B
S1135C802817390751F5F0936619E093651967C031
S1135C90ED0120E030E0CE17DF0740F44A815B815C
S1135CA09E0141155105F1F0EA01F5CFD383C2837A
S1135CB040815181840F951FC817D90759F48881F1
S1135CC09981840F951F0296918380838A819B8199
S1135CD0938382832115310529F4F0936819E093A5
S1135CE067193DC0E901FB83EA8349915991C40FC7
