:10000000E5C0000004C1000002C1000000C1000002
:10001000FEC00000FCC00000FAC00000F8C00000F4
:10002000F6C00000F4C00000F2C00000F0C0000004
:100030005AC40000ECC00000EAC00000E8C00000A4
:10004000E6C00000E4C00000E2C00000E0C0000024
:10005000DEC00000DCC00000DAC00000D8C0000034
:10006000D6C000000C94BB220C940D23D0C000001D
:10007000CEC00000CCC00000CAC00000C8C0000054
:10008000C6C00000C4C00000C2C00000C0C0000064
:100090000C9451230C94A323BAC000000C94EF27B6
:1000A000B6C00000B4C00000B2C00000B0C0000084
:1000B000AEC00000ACC00000AAC00000A8C0000094
:1000C000A6C00000A4C00000A2C000000C94E7235A
:1000D0000C9439249CC000000C947D240C94CF24F3
:1000E00096C000005317531753178A179217A71774
:1000F000531753178A1792171128812881288128AE
:100100008128812881288128112881288128812817
:100110008128812881288128132881288128812805
:100120008128812881288128812881288128812887
:1001300081288128812881281328812881288128E5
:100140008128812881288128812881288128812867
:1001500081288128812881287D288128812881285B
:100160008128812881288128482881288128812880
:100170008128812881288128812881288128812837
:1001800081288128812881283C288128812881286C
:10019000812881288128812860280E94A30B8091D2
:1001A000E315823008F0D9D20E94D017F6CFCF9352
:1001B000DF931F92CDB7DEB7CE0101960E94D01417
:1001C00049810E94C5160E941C17F6CF11241FBE3C
:1001D000CFEFD1E2DEBFCDBF00E00CBF17E0A0E063
:1001E000B2E0E8EEFEE500E00BBF02C007900D9222
:1001F000A63DB107D9F728E1A6EDB7E001C01D92F1
:10020000A730B207E1F70E945E1B0C94722FF8CE64
:1002100040E066E085E086D49093EE178093ED177A
:100220000895CF92DF92EF92FF920F931F93CF9397
:10023000DF9300E010E0E12CF12CC12CD12CC0E0C8
:10024000D0E00DC00E942818C80ED91E0E94EB18DD
:10025000E80EF91E0E940519080F191F2196CA30D1
:10026000D10584F32196C601BE010E94652A262F7E
:10027000372FC701BE010E94792A462FF72EC801E9
:10028000BE010E94652AE7EEF7E1208331834283B5
:10029000F38264837583FF924F933F932F937F93F1
:1002A0006F938FE692E09F938F930E94542C00E00F
:1002B0002FEF3FEFA90167EE77E18091ED17909165
:1002C000EE1753D48DB79EB708960FB6F8949EBF1D
:1002D0000FBE8DBFDF91CF911F910F91FF90EF90D7
:1002E000DF90CF9008952AE030E040E050E06FEEDC
:1002F00077E18091ED179091EE1702D58FEE97E19F
:100300000895E2EEF7E0A6EEB7E0B183A083138292
:100310001282EEE8F5E1F093E107E093E007138243
:1003200012821182108288EA9DE013969C938E932C
:100330001297ED93FC939093DD078093DC079093E5
:10034000DF078093DE0780E090E89093D7078093E3
:10035000D6070895CF93DF93EC01A2EEB7E001C07A
:10036000DF01ED91FC911197EC17FD07C8F3129690
:100370008D919C9113979D01280F391FC217D307A8
:1003800049F42A813B81820F931F13969C938E938D
:100390001297ED018A819B819E01280F391FE21778
:1003A000F307C1F42091E0073091E107E217F3076A
:1003B00071F022813381820F931F9B838A83ED9199
:1003C000FC911197808191819983888305C039833D
:1003D000288302C0F983E883CA17DB0711F0CD93A5
:1003E000DC93DF91CF910895EF92FF920F931F93CB
:1003F000CF93DF938C010E94EE0C8091E0079091E7
:10040000E107892B09F47DDF8091D6079091D7070A
:1004100080239123892B09F076C00115110549F03D
:10042000C80104960817190718F000E010E001C091
:100430008C010115110509F469C08091DE079091C6
:10044000DF078017910708F464C0C091E207D091DC
:10045000E307E2EEF7E002C0FE01EC018A819B8136
:100460008017910720F4888199810097A9F78091DE
:10047000E0079091E107C817D90709F44DC0E08063
:10048000F18084E0E80EF11C88819981918380835A
:100490002A813B81201B310B2930310548F0CE01E8
:1004A000800F911FFC01338322831B830A8352DF59
:1004B0002A813B818091DE079091DF07821B930B9D
:1004C0009093DF078093DE074091DC075091DD07B2
:1004D0008417950720F49093DD078093DC078091C3
:1004E000D6079091D707282B392B3B832A83198273
:1004F00018828091DA079091DB0701969093DB07D1
:100500008093DA070BC0E12CF12C08C0E12CF12C10
:1005100005C0E12CF12C02C0E12CF12C0E942E0E22
:10052000E114F10411F40E94DC17C701DF91CF91AF
:100530001F910F91FF90EF9008950F931F93CF930A
:10054000DF93009791F1EC0124974A815B81209120
:10055000D6073091D707BA0162237323672B29F19D
:1005600068817981672B09F52095309524233523FF
:100570003B832A830E94EE0C8A819B812091DE07B7
:100580003091DF07820F931F9093DF078093DE0780
:10059000CE01E0DE8091D8079091D9070196909323
:1005A000D9078093D8070E942E0EDF91CF911F911B
:1005B0000F9108958091DE079091DF070895FC0167
:1005C0000396928381834FEF5FEFBA014383548395
:1005D00065837683908787839287818710820895C9
:1005E000FC011386128608950F931F93CF93DF9318
:1005F000EB01088119812A813B810F3F4FEF1407DE
:100600002407340721F4FC01A185B28511C0DC0167
:10061000139601C0DF011496ED91FC91159740816E
:10062000518162817381041715072607370790F7F8
:100630001496ED91FC911597FD83EC83D783C683C7
:10064000BF83AE831596DC93CE9314979B878A87DE
:10065000FC0120812F5F2083DF91CF911F910F91AB
:100660000895CF93DF93FC01A285B385C481D58122
:10067000868197819F838E83C681D781848195816E
:100680009D838C8311968D919C911297E817F907A1
:1006900031F48681978112969C938E9311971386DD
:1006A00012868C9181508C938C91DF91CF9108951B
:1006B000A89590EC88E10FB6F894A8958093600017
:1006C0000FBE909360000895FC01608331977083A2
:1006D0003197108231971082319720E8208331972B
:1006E000108231971082319710827797408331972B
:1006F000508386970895DCDFA0915116B091521671
:10070000CD91CDBFDD91DEBFFF91EF91DF91CF9114
:10071000BF91AF919F918F917F916F915F914F9119
:100720003F912F911F910F91FF90EF90DF90CF900D
:10073000BF90AF909F908F907F906F905F904F9001
:100740003F902F901F900F900CBE0F900BBE0F90FC
:100750000FBE0F90089581E008950F920FB6F894A0
:100760000F920BB60F920CB60F921F9211242F927C
:100770003F924F925F926F927F928F929F92AF9231
:10078000BF92CF92DF92EF92FF920F931F932F931E
:100790003F934F935F936F937F938F939F93AF9309
:1007A000BF93CF93DF93EF93FF93A0915116B09136
:1007B00052160DB60D920EB60D920E948A0FA091A0
:1007C0005116B0915216CD91CDBFDD91DEBFFF9194
:1007D000EF91DF91CF91BF91AF919F918F917F91D9
:1007E0006F915F914F913F912F911F910F91FF90CA
:1007F000EF90DF90CF90BF90AF909F908F907F90C1
:100800006F905F904F903F902F901F900F900CBE75
:100810000F900BBE0F900FBE0F9008950F920FB662
:10082000F8940F920BB60F920CB60F921F921124F0
:100830002F923F924F925F926F927F928F929F92F0
:10084000AF92BF92CF92DF92EF92FF920F931F93DE
:100850002F933F934F935F936F937F938F939F93C8
:10086000AF93BF93CF93DF93EF93FF93A091511674
:10087000B09152160DB60D920EB60D9213BE0E9497
:10088000020D81110E948A0FA0915116B09152164B
:10089000CD91CDBFDD91DEBFFF91EF91DF91CF9183
:1008A000BF91AF919F918F917F916F915F914F9188
:1008B0003F912F911F910F91FF90EF90DF90CF907C
:1008C000BF90AF909F908F907F906F905F904F9070
:1008D0003F902F901F900F900CBE0F900BBE0F906B
:1008E0000FBE0F9008959ADF18950FB6F8940F92E7
:1008F000FC01868D811102C081E001C080E00F9073
:100900000FBE08950FB6F8940F92FC01268D878DC7
:10091000281302C081E001C080E00F900FBE08954F
:100920000F931F93CF93DF93EC01042F1E8D48A1EB
:1009300041110CC088819981892B09F042C08C81BA
:100940009D810E949B111D821C8242C0011117C013
:1009500050E08A819B810E94F52B28A18A819B818E
:10096000820F911D9B838A832C813D81821793077F
:1009700050F1888199819B838A8380E029C050E06F
:100980008E819F810E94F52B88A190E091958195A1
:1009900091092E813F81280F391F3F832E83488183
:1009A00059812417350730F42C813D81820F931F24
:1009B0009F838E83023049F4112349F0115080E067
:1009C00007C080E005C080E003C080E001C080E097
:1009D0001F5F1E8FDF91CF911F910F910895FC0132
:1009E00040A14423A9F050E026813781240F351F10
:1009F00037832683848195812817390720F08081E9
:100A0000918197838683CB01668177810C94F52B46
:100A100008951F93CF93DF93EC010FB6F8940F92D4
:100A20001AA10BC08B89882351F0CE0143960E94F6
:100A3000481081110E948411115011169CF38FEF00
:100A40008AA30F900FBE0FB6F8940F9219A10BC096
:100A50008885882351F0CE0108960E9448108111A4
:100A60000E948411115011169CF38FEF89A30F90EF
:100A70000FBEDF91CF911F910895CF93DF93EC01CB
:100A80000FB6F8940F92E881F9818F8D28A190E03C
:100A900030E0829FA001839F500D929F500D112442
:100AA0004E0F5F1F5D834C831E8EFB83EA8301978D
:100AB000289FA001299F500D389F500D1124CF0170
:100AC000840F951F9F838E838FEF89A38AA3611163
:100AD0000BC08885882371F0CE0108960E944810CB
:100AE000882341F03ADE06C0CE01089668DDCE01CB
:100AF000439665DD0F900FBE81E0DF91CF910895A1
:100B00000F931F93F801611103C01183008302C08A
:100B100051834083878F60A361E0CF01AEDF1F91D7
:100B20000F910895DF92EF92FF920F931F93CF934F
:100B3000DF93F82EE62ED42E869FC00111248396D3
:100B400053DCEC01009741F08C012D2DAC014D5D83
:100B50005F4F6E2D8F2DD4DFCE01DF91CF911F918E
:100B60000F91FF90EF90DF900895CF92DF92EF9278
:100B7000FF920F931F93CF93DF93CDB7DEB72997E3
:100B80000FB6F894DEBF0FBECDBF7C016B012E8384
:100B90003F834887598710E00FB6F8940F92F7010A
:100BA000968D878D981710F00230B1F4402FB60162
:100BB000C701B6DEF7019389992341F0C701439637
:100BC0000E944810882321F0C8DD02C08111C5DDD4
:100BD0000F900FBE81E04AC08E819F81A885B985A4
:100BE000892B8A2B8B2B21F40F900FBE80E03EC007
:100BF000111105C0CE0101960E940D1111E00F9058
:100C00000FBEECD60FB6F8940F92F70181A18F3F7B
:100C100009F411A2F70182A18F3F09F412A20F90EB
:100C20000FBEBE016A5F7F4FCE0101960E941E116A
:100C3000811118C0C70166DE882381F04E815F8173
:100C400068857985C70108960E94EF0FC701E1DE2C
:100C50000E942E0E8111A0CF80DD9ECFC701D9DE6C
:100C6000FDD79ACFC701D5DEF9D780E029960FB618
:100C7000F894DEBF0FBECDBFDF91CF911F910F91D2
:100C8000FF90EF90DF90CF900895EF92FF920F9337
:100C90001F93CF93DF938A01FC01568D378D531735
:100CA00010F02230F9F4422F7801EC011AA18E8D58
:100CB000CE0136DE1F3F81F48B898823A9F0CE0157
:100CC00043960E944810882389F0E114F10481F0D2
:100CD00081E0F70180830DC0FF24F394F10EFAA2A6
:100CE00081E007C080E005C081E003C081E001C071
:100CF00081E0DF91CF911F910F91FF90EF900895C8
:100D0000CF92DF92EF92FF920F931F93CF93DF93D7
:100D1000CDB7DEB729970FB6F894DEBF0FBECDBFB3
:100D20008C016B012E833F8348875987E12C0FB6D6
:100D3000F8940F92F801F68CFF2099F0B601C801E3
:100D40004EDEFA94F801F68E8085882331F0C801D2
:100D500008960E944810811100DD0F900FBE81E0BF
:100D60004FC08E819F81A885B985892B8A2B8B2BBB
:100D700021F40F900FBE80E043C0E11006C0CE0109
:100D800001960E940D11EE24E3940F900FBE26D61B
:100D90000FB6F8940F92F80181A18F3F09F411A2C8
:100DA000F80182A18F3F09F412A20F900FBEBE017D
:100DB0006A5F7F4FCE0101960E941E11811117C0FC
:100DC000C80193DD882379F04E815F81688579853C
:100DD000C80143960E94EF0FC8011BDE3FD7811167
:100DE000A6CFBBDCA4CFC80114DE38D7A0CFC80182
:100DF00010DE34D7C80179DD882309F498CF80E06C
:100E000029960FB6F894DEBF0FBECDBFDF91CF910C
:100E10001F910F91FF90EF90DF90CF900895CF93A7
:100E2000DF93EC010FB6F8940F9289A18F3F09F47C
:100E300019A28AA18F3F09F41AA20F900FBE8E8DBE
:100E4000811104C0CE0143960E940610CE01E1DD5F
:100E5000DF91CF910895FC01448155812281338136
:100E6000240F351F80819181B901681B790BCB015B
:100E70006417750710F0841B950B08950F93FC0100
:100E80008FE0DF011D928A95E9F7758764875583A6
:100E900044833783268306870F910895AF92BF92CC
:100EA000CF92DF92EF92FF920F931F93CF93DF9336
:100EB0006C015B017A01FC01C281D381048115813F
:100EC0000C1B1D0B4017510708F48A01F60184859D
:100ED0009585A801B5018C0F9D1F0E94F52B0E155D
:100EE0001F0558F4A701401B510BB501600F711F7E
:100EF000F601848595850E94F52BCE018E0D9F1DF0
:100F0000F601248135818217930710F0821B930B21
:100F1000F60193838283C701DF91CF911F910F91D7
:100F2000FF90EF90DF90CF90BF90AF900895CF9259
:100F3000DF92EF92FF920F931F93CF93DF931F9255
:100F40001F92CDB7DEB77C016B015A83498321150F
:100F50003105C1F0FC01868580FD08C042175307AA
:100F600008F49A013A83298381E00FC020173107E2
:100F700058F042E050E0BE016F5F7F4FC7018EDF47
:100F800081E003C080E001C080E0882331F0498126
:100F90005A81B601C70182DF02C080E090E00F9065
:100FA0000F90DF91CF911F910F91FF90EF90DF9005
:100FB000CF900895AF92BF92CF92DF92EF92FF92BF
:100FC0000F931F93CF93DF937C015B01E9014217DD
:100FD000530708F4EA01209781F1F701008111819C
:100FE00084819581801B910B6E018C179D0708F4FD
:100FF0006C01F70164857585600F711FA601C5013D
:101000000E94F52BCC16DD0658F4AE014C195D0993
:10101000F70164857585C5018C0D9D1D0E94F52B1A
:101020000C0F1D1FF701848195810817190710F017
:10103000081B190BF70111830083CE01DF91CF91BB
:101040001F910F91FF90EF90DF90CF90BF90AF90E6
:1010500008956F927F928F929F92AF92BF92CF929C
:10106000DF92EF92FF920F931F93CF93DF931F9224
:101070001F92CDB7DEB76C014B015A017901011502
:101080001105B1F0FC0160807180A801BE016F5FA5
:101090007F4F90DF89819A81E01AF10AA816B9067C
:1010A00030F4F60171826082A12CB12C01C05C0188
:1010B0009701A501B401C6017DDF0F900F90DF916C
:1010C000CF911F910F91FF90EF90DF90CF90BF9045
:1010D000AF909F908F907F906F900895CF92DF9206
:1010E000EF92FF920F93CF93DF93EC016B014130AE
:1010F00011F401E001C000E0C114D10419F4CC24C2
:10110000C394D12CCE014096C817D90720F421965C
:101110006BD97C0102C0E12CF12CE114F10439F00F
:101120009601AE01B701615F7F4FC701A7DEC7011E
:10113000DF91CF910F91FF90EF90DF90CF900895C6
:101140000F930FB6F8940F92FC0120853185232B65
:1011500071F422853385232B61F426813781448104
:10116000558164857585068589DE81E003C080E050
:1011700001C080E00F900FBE0F910895FC01248103
:10118000358180819181820F931F42815381841B1D
:10119000950B01978217930710F0821B930B08950C
:1011A0002F923F924F925F926F927F928F929F9277
:1011B000AF92BF92CF92DF92EF92FF920F931F9365
:1011C000CF93DF93CDB7DEB72B970FB6F894DEBF82
:1011D0000FBECDBF4C017B876A871A010E831F8328
:1011E00028873987FC01848195810197268520FF16
:1011F0000CC02A01F2E04F0E511C8415950558F4DD
:101200001E821F821886198606C08417950710F063
:101210002A0101C02C018E819F81A885B985892B67
:101220008A2B8B2B09F436C0CE010196E0D70FB67E
:10123000F8940F92C401A2DF3C018415950538F59E
:1012400060E080E090E00E94B6140E948811F401F2
:10125000938782870F900FBEAE80BF80C884D984E9
:10126000E12CF12C00E010E0980140E050E0BA01E0
:1012700080E00E94F611F40113861286BE016A5FB7
:101280007F4FCE010196DAD7882389F205C00F90EF
:101290000FBE02C0612C712C6114710419F4C401D9
:1012A0006DDF3C0182019301A1016A857B85C40148
:1012B0003EDE6C01892BE9F0C401CDDDF40126810D
:1012C000378182179307A8F089D3F401808591852F
:1012D000892B71F080859185E12CF12C00E020E0D4
:1012E00030E0A90160E00E949D12F4011186108691
:1012F000B5D4C6012B960FB6F894DEBF0FBECDBF96
:10130000DF91CF911F910F91FF90EF90DF90CF90E1
:10131000BF90AF909F908F907F906F905F904F9015
:101320003F902F900895AF92BF92CF92DF92EF92AD
:10133000FF920F931F93CF93DF93EC017B015A0130
:1013400069018E8580FF04C08A010E5F1F4F01C0B6
:101350008A01CE0113DF9C01A501B701CE01E7DDB3
:101360005C01892BC1F0CE0176DD2E813F81821791
:10137000930788F088859985892B69F088859985F8
:10138000E12CF12C00E020E030E0A90160E00E94B7
:10139000941319861886C501DF91CF911F910F9183
:1013A000FF90EF90DF90CF90BF90AF9008954F9255
:1013B0005F926F927F928F929F92AF92BF92CF92E5
:1013C000DF92EF92FF920F931F93CF93DF93EC0185
:1013D0002B013A01580169018E8580FF05C0689490
:1013E000882481F8912C02C0812C912CA114B10485
:1013F000C104D10431F10FB6F8940F92CE012BDD68
:101400007C018816990640F060E080E090E00E9440
:10141000B6147ED7998788870F900FBE8E149F04CD
:1014200098F0E12CF12C00E010E0980140E050E051
:10143000BA0180E0DBD719861886CE010CDD7C016D
:1014400003C0CE0108DD7C018E149F04E8F4840102
:101450009701A301B201CE01FCDD6C01892BB1F033
:10146000BDD28A859B85892B69F08A859B85E12C75
:10147000F12C00E020E030E0A90160E00E949D1224
:101480001B861A86EBD302C0C12CD12CC601DF917A
:10149000CF911F910F91FF90EF90DF90CF90BF9071
:1014A000AF909F908F907F906F905F904F90089536
:1014B000E091CB15F091CC15808181110CC08FEF9C
:1014C0009FEFDC018093951590939615A093971547
:1014D000B09398150895E091CB15F091CC15078045
:1014E000F085E02D80819181A281B3818093951553
:1014F00090939615A0939715B09398150895CF9350
:10150000DF93EC018B8D9C8D18D8CE0116D8DF911E
:10151000CF9108954F925F926F927F928F929F9298
:10152000AF92BF92CF92DF92EF92FF920F93CF9341
:10153000DF932C015B014A013901E60165EA70E0A5
:101540008B8D9C8D0E94FE2B8B8D9C8D21E0821AB1
:101550009108880E991EA114B10489F415C0822F38
:1015600090E0F501E80FF91F3081DE01A80FB91FE7
:101570005D963C938081882329F02F5F01C020E095
:10158000203168F31CA601C01D8E0A3008F009E066
:101590000A8F0DA71EA6CE01029622D8CE010E9666
:1015A0001FD8DB87CA878AE090E0A0E0B0E0801B0C
:1015B0009109A109B1098E879F87A88BB98BDF8B11
:1015C000CE8B84E0FE01BF96DF011D928A95E9F77C
:1015D0001BAAA301B201C40177D899838883E114BF
:1015E000F10419F0F701D183C083DF91CF910F91FE
:1015F000FF90EF90DF90CF90BF90AF909F908F9033
:101600007F906F905F904F900895CF93C0E009C096
:101610002BE0C29FC00111248D519A4E0E94DF021F
:10162000CF5FCA30A8F388ED95E10E94DF028DEC10
:1016300095E10E94DF028EEB95E10E94DF0283EBD1
:1016400095E10E94DF0287EA95E10E94DF0288EDC2
:1016500095E19093CC158093CB158DEC95E190930B
:10166000CA158093C915CF910895CF93DF93EC01EC
:101670000FB6F8940F928091A6158F5F8093A615F0
:101680008091511690915216892B51F4D093521695
:10169000C09351168091A615813091F4B6DF10C029
:1016A0008091A01581110CC0E0915116F091521655
:1016B000928D8A8D891720F0D0935216C0935116BF
:1016C000809199158F5F80939915EA8D8091A1156E
:1016D0008E1710F4E093A1158BE08E9FF00111247A
:1016E000ED51FA4E0180F281E02DFF83EE832681D9
:1016F000378139872887A681B7819E012E5F3F4FAA
:1017000015963C932E93149737832683EA8D8E9FEC
:10171000F0011124ED51FA4EFD87EC8780818F5F37
:1017200080830F900FBE8091A015882349F0E0912F
:101730005116F0915216928D8A8D981708F40DD893
:10174000DF91CF910895CF93DF931BC00FB6F8942C
:101750000F92E091BA15F091BB15C085D185CE01ED
:1017600002960E9431038091A61581508093A615A0
:101770008091B21581508093B2150F900FBECE01AB
:10178000BEDE8091B2158111E1CFDF91CF91089536
:101790008F929F92AF92BF92CF92DF92EF92FF9281
:1017A000CF93DF936B017C01C42F8090A2159090A2
:1017B000A315A090A415B090A515809151169091F5
:1017C000521602960E9431038FEFC816D806E8061B
:1017D000F806B1F5CC23A1F1E7EAF5E1A181B281E8
:1017E000C0915116D0915216BF83AE83C09151164D
:1017F000D091521616968D919C911797998788874C
:101800001696CD91DC9117978091511690915216B2
:1018100002969D838C838091511690915216029668
:1018200017969C938E931697A0915116B0915216CD
:101830001D96FC93EE931C9780818F5F80833FC041
:10184000C80CD91CEA1CFB1CE0915116F0915216F1
:10185000C282D382E482F582C814D904EA04FB046C
:1018600068F460915116709152168091C91590914B
:10187000CA156E5F7F4F0E94F40221C0609151161D
:10188000709152168091CB159091CC156E5F7F4F61
:101890000E94F4028091951590919615A09197154C
:1018A000B0919815C816D906EA06FB0640F4C09216
:1018B0009515D0929615E0929715F0929815DF91B4
:1018C000CF91FF90EF90DF90CF90BF90AF909F901F
:1018D0008F9008952F923F924F925F926F927F92D6
:1018E0008F929F92AF92BF92CF92DF92EF92FF9230
:1018F0000F93CF93DF933C011B014A012901CA01D9
:101900000E94F4016C01892B71F084E390E00E9445
:10191000F401EC01892B19F0DC8ECB8E06C0C601D8
:101920000E949D0202C0C0E0D0E0209761F0A12C8F
:10193000B12C6E019201A401B101C301EBDDCE0116
:1019400094DE81E001C08FEFDF91CF910F91FF9086
:10195000EF90DF90CF90BF90AF909F908F907F904F
:101960006F905F904F903F902F900895EF92FF926D
:101970000F930F2EF3E9EF2EF5E1FF2EF02D00E08F
:1019800020E030E040EC50E06AE972E08DEC90E05D
:10199000A1DF813011F40E945A158130C9F4F89406
:1019A0008FEF9FEFDC018093951590939615A09390
:1019B0009715B093981581E08093A0151092A21509
:1019C0001092A3151092A4151092A5150E947B03E6
:1019D000809106020F91FF90EF90089580919215EB
:1019E0008F5F8093921508950FB6F8940F926091CF
:1019F000A2157091A3158091A4159091A5150F9033
:101A00000FBE0895CF92DF92EF92FF92CF93DF93B4
:101A100080919215811105C1C090A215D090A31597
:101A2000E090A415F090A5158FEFC81AD80AE80A1F
:101A3000F80AC092A215D092A315E092A415F092D4
:101A4000A515C114D104E104F104B1F48091CB15C2
:101A50009091CC152091C9153091CA153093CC15B1
:101A60002093CB159093CA158093C91580919A1530
:101A70008F5F80939A151CDD809195159091961536
:101A8000A0919715B0919815C816D906EA06FB06DD
:101A900020F480E0B2C081E001C080E0E091CB158D
:101AA000F091CC15908191110CC04FEF5FEFBA010E
:101AB00040939515509396156093971570939815CC
:101AC0009CC0E091CB15F091CC150780F085E02DFE
:101AD0000084F185E02D4281538164817581C416B3
:101AE000D506E606F70648F44093951550939615EB
:101AF000609397157093981580C0A485B585C681AD
:101B0000D781208531853F832E83C085D18526816D
:101B100037813D832C8311964D915C9112979F01E3
:101B20002E5F3F4F4217530731F44085518512967F
:101B30005C934E931197158614869C9191509C93BB
:101B4000A08DB18D109709F1C289D3894489558937
:101B50005F834E83C489D589428953895D834C83D1
:101B600011966D917C911297AF01425F5F4F6417A0
:101B7000750731F44489558912965C934E931197F9
:101B8000118E108E9C9191509C93A28D9091A115D5
:101B90009A1710F4A093A1159BE09A9FD0011124ED
:101BA000AD51BA4E11960D90BC91A02DB783A6836E
:101BB00016964D915C911797518740871696CD9157
:101BC000DC9117973D832C8317963C932E931697A1
:101BD000A28D9A9FD0011124AD51BA4EB587A4872A
:101BE0009C919F5F9C93228DE0915116F09152162B
:101BF000928D291708F04FCF51CFE0915116F091F7
:101C00005216E28D9BE0E99FF0011124ED51FA4E4E
:101C10009081923008F081E090919B15911116C04F
:101C200016C080919C1590919D15A0919E15B09124
:101C30009F150196A11DB11D80939C1590939D1534
:101C4000A0939E15B0939F1580E001C081E0DF91C5
:101C5000CF91FF90EF90DF90CF900895CF92DF92D9
:101C6000EF92FF92CF93DF930FB6F8940F9280918B
:101C70009215815080939215809192158111BEC06A
:101C80008091A615811188C0BCC0E091C515F09166
:101C9000C6150084F185E02DA08DB18DC289D38950
:101CA000848995899F838E83C489D5898289938904
:101CB0009D838C8311962D913C911297CF010E96A6
:101CC0002817390731F48489958912969C938E934D
:101CD0001197118E108E8C9181508C93A485B585AF
:101CE000C681D781808591859F838E83C085D1856C
:101CF000868197819D838C8311968D919C911297FB
:101D00009F012E5F3F4F8217930731F480859185A5
:101D100012969C938E931197158614868C91815000
:101D20008C93A28D8091A1158A1710F4A093A11510
:101D30008BE08A9FD0011124AD51BA4E11960D90BF
:101D4000BC91A02DB783A68316964D915C911797F1
:101D5000518740871696CD91DC9117973D832C8350
:101D600017963C932E931697A28D8A9FD00111242B
:101D7000AD51BA4EB587A4878C918F5F8C93928DAD
:101D8000A0915116B09152165A968C91981730F036
:101D900081E080939B1502C0E0E0F0E08091BE15E9
:101DA000811173CFEF2B09F083DBC0909C15D0908D
:101DB0009D15E0909E15F0909F15C114D104E1048B
:101DC000F104A1F01FDE882319F081E080939B15B8
:101DD00081E0C81AD108E108F108A1F710929C151A
:101DE00010929D1510929E1510929F1580919B1533
:101DF000882331F00E94AD0381E003C080E001C080
:101E000080E00F900FBEDF91CF91FF90EF90DF90B9
:101E1000CF9008958F929F92AF92BF92CF92DF9210
:101E2000EF92FF921F93CF93DF93EC016A017B0146
:101E3000D5DD8090A2159090A315A090A415B09028
:101E4000A51588819981AA81BB81AC01BD014C0D8A
:101E50005D1D6E1D7F1D88169906AA06BB0660F4DF
:101E6000481759076A077B0798F484169506A60653
:101E7000B70680F010E013C0481759076A077B07C0
:101E800058F084169506A606B70640F010E007C085
:101E900010E005C011E003C011E001C011E048836B
:101EA00059836A837B83112341F0CB01BA016819FE
:101EB00079098A099B0940E06BDCD0DE811102C000
:101EC0000E94AD03812FDF91CF911F91FF90EF9082
:101ED000DF90CF90BF90AF909F908F900895CF925A
:101EE000DF92EF92FF926B017C01672B682B692BCD
:101EF00039F074DD40E0C701B6014ADCAFDE01C055
:101F000080E0811102C00E94AD03FF90EF90DF904E
:101F1000CF90089580919215882321F081E08093DD
:101F20009B15089510929B15E0915116F091521651
:101F300020813181E0915116F0915216838D948D5C
:101F40008217930760F06091511670915216635E8C
:101F50007F4F80915116909152160E94E817809100
:101F6000A11501C08150282F30E09BE0929FF00125
:101F7000939FF00D1124ED51FA4E9081992391F326
:101F80009BE0929FA001939F500D1124DF010180DF
:101F9000F281E02D0480F581E02D1296FC93EE9302
:101FA00011974A515A4EE417F50729F44481558197
:101FB000FD01528341839BE0929FF001939FF00DBE
:101FC0001124ED51FA4E0180F281E02D20853185FA
:101FD00030935216209351168093A1150895CF92F5
:101FE000DF92EF92FF926A017B016091511670912E
:101FF0005216625F7F4F0E94F40241E0C701B601B2
:10200000C7DBFF90EF90DF90CF900895CF93DF93E1
:10201000FC01CB01BA01A181B281C0915116D091CE
:102020005216BB8BAA8BC0915116D09152161696A0
:102030004D915C9117975D8B4C8B1696CD91DC91F1
:1020400017974091511650915216425F5F4F5D8332
:102050004C834091511650915216425F5F4F179634
:102060005C934E931697A0915116B09152165996C3
:10207000FC93EE93589730813F5F3083222319F011
:102080006FEF7FEFCB01422F83DBDF91CF9108957C
:10209000CF93DF93DC011796ED91FC9118970084A4
:1020A000F185E02DA08DB18DC289D3898489958970
:1020B0009F838E83C489D589828993899D838C83EC
:1020C00011968D919C9112979F01225F3F4F82172D
:1020D000930731F48489958912969C938E93119776
:1020E000118E108E8C9181508C938091921581115C
:1020F00052C0A485B585C681D781808591859F838F
:102100008E83C085D185868197819D838C8311962E
:102110008D919C9112979F012E5F3F4F82179307DD
:1021200031F48085918512969C938E931197158634
:1021300014868C9181508C93A28D8091A1158A1761
:1021400010F4A093A1158BE08A9FD0011124AD510A
:10215000BA4E11960D90BC91A02DB783A68316960A
:102160004D915C911797518740871696CD91DC91E0
:1021700017973D832C8317963C932E931697A28D29
:102180008A9FD0011124AD51BA4EB587A4878C9196
:102190008F5F8C931CC04EEB55E1DA011196CD9107
:1021A000DC911297D38BC28B8E819F81958B848B10
:1021B0008E819F81DC0115963C932E9314973F836B
:1021C0002E83518F408FDA018C918F5F8C93928D8B
:1021D000E0915116F0915216828D891720F481E01A
:1021E00080939B1501C080E0DF91CF9108950FB6D9
:1021F000F8940F9220919A15FC0120834091A2152A
:102200005091A3156091A4157091A5154183528337
:10221000638374830F900FBE089520919A15FC017B
:1022200020834091A2155091A3156091A41570913F
:10223000A515418352836383748308958F929F927F
:10224000AF92BF92CF92DF92EF92FF920F931F93C4
:10225000CF93DF93FB010FB6F8940F92C090A215B5
:10226000D090A315E090A415F090A515DC0111966F
:102270000D911D912D913C91149746015701801AA3
:10228000910AA20AB30A40815181628173814F3F52
:10229000BFEF5B076B077B0739F1EC01B881A091B9
:1022A0009A15BA1759F0C016D106E206F30630F0B7
:1022B000108211821282138281E017C08416950663
:1022C000A606B70658F4481959096A097B094083DC
:1022D000518362837383A1DF80E007C01082118283
:1022E0001282138281E001C080E00F900FBEDF9167
:1022F000CF911F910F91FF90EF90DF90CF90BF9003
:10230000AF909F908F90089581E080939B150895E2
:10231000809151169091521608958091A0158823AE
:1023200031F080919215811104C082E0089581E01E
:10233000089580E008950F931F93CF93DF93FC01DE
:10234000892B09F449C086A5815086A7228D95A5C1
:10235000291709F443C0811143C0EF018F010E5FBB
:102360001F4FC8010E943103EDA5EA8F8AE090E07B
:10237000A0E0B0E08E1B9109A109B1098E879F876B
:10238000A88BB98B8091A1158E1710F4E093A1153D
:102390008BE08E9FF0011124ED51FA4E0180F28105
:1023A000E02DFF83EE832681378139872887A68138
:1023B000B78115961C930E93149717830683EA8DA5
:1023C0008E9FF0011124ED51FA4EFD87EC8780813C
:1023D0008F5F808381E005C080E003C080E001C0A2
:1023E00080E0DF91CF911F910F9108954F925F92FE
:1023F0006F927F92AF92BF92CF92DF92EF92FF9255
:102400000F931F93CF93DF93280139010FB6F894F0
:102410000F92E0915116F0915216C82FD0E0EC0FB8
:10242000FD1F83A9823071F1E0915116F09152168F
:10243000CE01880F991F880F991FE80FF91F87A5F4
:1024400090A9A1A9B2A9409550956095709548238F
:1024500059236A237B2347A750AB61AB72ABE09152
:102460005116F0915216EC0FFD1F81E083ABA114C1
:10247000B104C104D10431F041E0C601B50188D9ED
:102480000E94AD030F900FBE0FB6F8940F92E114A7
:10249000F104A1F0E0915116F0915216CE01880F8F
:1024A000991F880F991FE80FF91F87A590A9A1A967
:1024B000B2A9F70180839183A283B383E09151167F
:1024C000F0915216EC0FFD1F83A98230E9F4E091E0
:1024D0005116F0915216CE01880F991F880F991F3F
:1024E000E80FF91F87A590A9A1A9B2A9409450941B
:1024F00060947094482259226A227B2247A650AAEF
:1025000061AA72AA81E001C080E020915116309149
:102510005216C20FD31F1BAA0F900FBEDF91CF918F
:102520001F910F91FF90EF90DF90CF90BF90AF90F1
:102530007F906F905F904F9008958F929F92AF928F
:10254000BF92EF92FF920F93CF93DF93DC010FB610
:10255000F8940F92E114F10489F0E62FF0E0EE0F09
:10256000FF1FEE0FFF1FE80FF91F87A490A8A1A877
:10257000B2A8F70180829182A282B38270E0FD014D
:10258000E60FF71F83A992E093AB023001F118F434
:10259000013031F04DC0033079F10430D1F148C041
:1025A000660F771F660F771FFD01E60FF71F87A4E1
:1025B00090A8A1A8B2A8BA01A901482959296A2955
:1025C0007B2947A750AB61AB72AB01E034C0660F0B
:1025D000771F660F771FFD01E60FF71F47A550A96C
:1025E00061A972A94F5F5F4F6F4F7F4F47A750ABF5
:1025F00061AB72AB01E01FC0660F771F660F771FDC
:10260000FD01E60FF71F27A730AB41AB52AB01E04E
:1026100012C0823079F0660F771F660F771FFD01B9
:10262000E60FF71F27A730AB41AB52AB01E003C069
:1026300001E001C000E0813009F069C01C96ED9115
:10264000FC911D971696CD91DC91179718968D9158
:102650009C9119979F838E831896CD91DC91199741
:1026600016968D919C9117979D838C838181928181
:102670009D012E5F3F4F8217930731F418968D917D
:102680009C911997928381831D961C921E921C9790
:102690008081815080835A96EC915A978091A11540
:1026A0008E1710F4E093A1158BE08E9FF00111249A
:1026B000ED51FA4E0180F281E02D1796FC93EE93D6
:1026C00016974681578119965C934E931897C68149
:1026D000D7813D832C83378326835A96EC915A9772
:1026E0008E9FF0011124ED51FA4E1D96FC93EE934E
:1026F0001C9780818F5F80835A969C91E091511640
:10270000F0915216828D891710F40E94AD030F903C
:102710000FBE802FDF91CF910F91FF90EF90BF9070
:10272000AF909F908F9008958F929F92AF92BF929B
:10273000CF92DF92EF92FF920F93CF93DF93DC0162
:10274000E114F10489F0E62FF0E0EE0FFF1FEE0F29
:10275000FF1FE80FF91F87A490A8A1A8B2A8F7014E
:1027600080829182A282B38270E0FD01E60FF71FA2
:1027700093A982E083AB023001F118F4013031F00B
:102780004DC0033079F10430D1F148C0660F771F96
:10279000660F771FFD01E60FF71F87A490A8A1A879
:1027A000B2A8BA01A901482959296A297B2947A752
:1027B00050AB61AB72AB81E034C0660F771F660F20
:1027C000771FFD01E60FF71F47A550A961A972A960
:1027D0004F5F5F4F6F4F7F4F47A750AB61AB72ABFF
:1027E00081E01FC0660F771F660F771FFD01E60FA0
:1027F000F71F27A730AB41AB52AB81E012C092303C
:1028000079F0660F771F660F771FFD01E60FF71F40
:1028100027A730AB41AB52AB81E003C081E001C0E0
:1028200080E0913009F096C09091921591115FC0AF
:102830001C96ED91FC911D971696CD91DC91179702
:1028400018962D913C9119973F832E831896CD9120
:10285000DC91199716962D913C9117973D832C8307
:10286000418152819D012E5F3F4F4217530731F442
:1028700018964D915C911997528341831D961C9235
:102880001E921C979081915090835A96EC915A9782
:102890009091A1159E1710F4E093A1159BE09E9FC7
:1028A000F0011124ED51FA4E0180F281E02D1796CE
:1028B000FC93EE9316974681578119965C934E933D
:1028C0001897C681D7813D832C83378326835A96F8
:1028D000EC915A979E9FF0011124ED51FA4E1D96EE
:1028E000FC93EE931C9790819F5F908321C06EEBC9
:1028F00075E1FB01C181D2815396DC93CE9352974F
:102900002E813F8155963C932E9354974E815F8143
:102910009D01225F3F4FFA01358324833F832E833D
:1029200059967C936E935897FB0190819F5F90839B
:102930005A962C91E0915116F0915216928D921761
:1029400048F4C114D10419F091E0F601908391E0AC
:1029500090939B15DF91CF910F91FF90EF90DF90B7
:10296000CF90BF90AF909F908F900895009721F4E3
:1029700080915116909152160FB6F8940F9270E014
:10298000FC01E60FF71F23A9223031F4FC01E60F0A
:10299000F71F13AA81E001C080E00F900FBE0895D9
:1029A000DC01E0915D16F0915E16808191E081116D
:1029B00090E09C93911108C00780F085E02D608124
:1029C000718182819381089560E070E0CB01089568
:1029D000CF92DF92EF92FF920F931F93FC014283FD
:1029E00053836483758393878287041715072607AB
:1029F0003707C0F00C191D092E093F0986859785F8
:102A0000A089B189081719072A073B0700F5BF01FC
:102A10006E5F7F4F80915B1690915C160E94F4026E
:102A200080E018C00C151D052E053F0528F44C1537
:102A30005D056E057F0568F4BF016E5F7F4F809175
:102A40005D1690915E160E94F40280E003C081E062
:102A500001C081E01F910F91FF90EF90DF90CF9028
:102A600008950FB6F8940F928091591690915A16C6
:102A7000892BE9F48AE696E10E94DF028FE596E170
:102A80000E94DF028AE696E190935E1680935D16BF
:102A90008FE596E190935C1680935B1640E067E0CB
:102AA0008AE00E94920590935A16809359160F90CF
:102AB0000FBE0895EF92FF920F93D3DF80915916C6
:102AC00090915A16892B91F00F2EF7E5EF2EF6E133
:102AD000FF2EF02D03E020E030E040EC50E06FE905
:102AE00072E087ED90E00E946A0C01C080E00F91D7
:102AF000FF90EF9008958F929F92AF92BF92CF92E6
:102B0000DF92EF92FF920F931F93CF93DF93CDB796
:102B1000DEB727970FB6F894DEBF0FBECDBFE091AA
:102B20005916F0915A16309781F169832A833B83B5
:102B30004C835D839F838E836630F4F4EEDB8230BA
:102B400069F400E0A7019601BE016F5F7F4F80919D
:102B5000591690915A160E94B50518C000E020E061
:102B600030E0A901BE016F5F7F4F809159169091AF
:102B70005A160E94B5050AC020E0A801BE016F5F89
:102B80007F4FCF010E94450601C080E027960FB617
:102B9000F894DEBF0FBECDBFDF91CF911F910F9193
:102BA000FF90EF90DF90CF90BF90AF909F908F906D
:102BB00008958F929F92AF92BF92CF92DF92EF9241
:102BC000FF920F931F93CF93DF933BC00780F08555
:102BD000E02D80809180A280B380C085D1858E0158
:102BE0000E5F1F4FC8010E943103EC89FD89CE01A1
:102BF00019958E8982FF25C08E859F85A889B98900
:102C0000880D991DAA1DBB1D88169906AA06BB062C
:102C100070F48A839B83AC83BD83DB87CA87B8014A
:102C200080915D1690915E160E94F4020AC0C12C3C
:102C3000D12C760100E010E0A501940160E0CE0106
:102C40005ADFE0915D16F0915E1680818111BECF52
:102C500080915B1690915C1690935E1680935D1642
:102C6000F0935C16E0935B16DF91CF911F910F916B
:102C7000FF90EF90DF90CF90BF90AF909F908F909C
:102C80000895CF92DF92EF92FF92CF93DF93EC0102
:102C90000E94F40C6B017C018091531690915416A4
:102CA000A0915516B0915616C816D906EA06FB062D
:102CB00020F47FDF81E0888301C01882C092531620
:102CC000D0925416E0925516F0925616C701B601EE
:102CD000DF91CF91FF90EF90DF90CF9008954F92CA
:102CE0005F926F927F928F929F92AF92BF92CF929C
:102CF000DF92EF92FF920F931F93CF93DF934B01DD
:102D00005C0129013A01E0915D16F0915E160780A1
:102D1000F085E02DC085D185CE0102960E94310359
:102D20008E8982FF1BC04E855F8568897989480D31
:102D3000591D6A1D7B1D7501640193018201CE013D
:102D400047DE882369F0C12CD12C760100E010E029
:102D5000A501940160E0CE01CEDE02C08E7F8E8B95
:102D6000EC89FD89CE011995DF91CF911F910F91CB
:102D7000FF90EF90DF90CF90BF90AF909F908F909B
:102D80007F906F905F904F9008958F929F92AF9237
:102D9000BF92CF92DF92EF92FF921F93CF93DF9378
:102DA0001F92CDB7DEB76B017C01142F0E94EE0C91
:102DB000CE01019666DF4B015C01898181112DC036
:102DC00011110DC08C149D04AE04BF0440F00E948C
:102DD0002E0EA5019401C701B60181DF20C0112389
:102DE00041F0E0915B16F0915C16808111E0811159
:102DF00010E0B701A601481959096A097B09212F7A
:102E00008091591690915A160E940F070E942E0E1B
:102E1000811105C00E94AD0302C00E942E0E0F90CA
:102E2000DF91CF911F91FF90EF90DF90CF90BF90F7
:102E3000AF909F908F900895AF92BF92CF92DF9204
:102E4000EF92FF920F931F93CF93DF93CDB7DEB72F
:102E500028970FB6F894DEBF0FBECDBF82C0898120
:102E600088230CF47EC0AE80BF80D5011C968D9166
:102E70009C911D97892B21F0C50102960E94310378
:102E8000CE010896FEDE8B019C01E9810E2E000C1E
:102E9000FF0BEA30F10508F064C08827EE58FF4FB9
:102EA0008F4F0C94AE2AF50186898160868BCA808B
:102EB000DB80EC80FD8046855785608971894C0DEB
:102EC0005D1D6E1D7F1DC50183DD882309F449C08A
:102ED000D5015496ED91FC915597C5011995F501D1
:102EE000868982FF3EC04A815B816C817D818685B7
:102EF0009785A089B1899A01AB01280F391F4A1F14
:102F00005B1FC12CD12C760100E010E060E0C50110
:102F1000F2DD27C0D50156968C9156978E7F569636
:102F20008C931FC0F50186898160868B4A815B8105
:102F30006C817D8146875787608B718B400F511F55
:102F4000621F731F68017901C50142DD0AC0F501E6
:102F5000868981FD04C0C5010E949D0202C08E7F4A
:102F6000868B20E030E0A901BE016F5F7F4F80912A
:102F7000591690915A160E948006811170CF28969A
:102F80000FB6F894DEBF0FBECDBFDF91CF911F917A
:102F90000F91FF90EF90DF90CF90BF90AF9008958A
:102FA000089584B1806884B985B1806885B9089531
:102FB00083B1806883B90895F4DF2FEF80E792E052
:102FC000215080409040E1F700C00000F1DFF5CFD4
:102FD000E8DF2FEF87EA91E6215080409040E1F74B
:102FE00000C00000E5DFF5CF0F93CF93DF931F9272
:102FF0001F92CDB7DEB79A83898300E02FEF3FEFB2
:10300000A901BE016F5F7F4F8091F5179091F61770
:103010000E94B5050F900F90DF91CF910F91089509
:1030200040E062E08AE00E9492059093F617809358
:10303000F51708950E944A21811105C084EF97E198
:103040000C944521089587EA92E00C94672C08952A
:10305000CF93DF931F921F92CDB7DEB72CED35E0F3
:1030600040E050E0BE016F5F7F4F8091F517909177
:10307000F6170E94800689819A810F900F90DF9148
:10308000CF91089540E062E08AE00E94920590931B
:10309000FA178093F91740E062E08AE00E949205F7
:1030A0009093F8178093F71708950F93CF93DF93BA
:1030B0001F921F92CDB7DEB79A83898300E02FEF6E
:1030C0003FEFA901BE016F5F7F4F8091F91790918B
:1030D000FA170E94B5050F900F90DF91CF910F91D5
:1030E00008950F93CF93DF931F921F92CDB7DEB752
:1030F0009A83898300E02FEF3FEFA901BE016F5F44
:103100007F4F8091F7179091F8170E94B5050F90A7
:103110000F90DF91CF910F910895EF92FF920F934F
:103120001F93CF93DF9300D01F92CDB7DEB70E94DD
:10313000F40C69837A838B839C8366D3882341F064
:1031400084EB92E09F938F930E94542C0F900F90EA
:1031500043E050E060E070E0CE0101960E940A0F6B
:1031600068D3882341F084EC92E09F938F930E9470
:10317000542C0F900F9040E050E0BA01CE01019620
:103180000E940A0F67D3A6D28B0179D39ED27B010E
:103190000036110588F085E6E816F1046CF040E091
:1031A00050E0BA01CE0101960E940A0F53D392D289
:1031B0008B0165D38AD27B01C80193DFC70175DF1C
:1031C0000F900F900F900F90DF91CF911F910F9163
:1031D000FF90EF900895CF93DF931F921F92CDB78A
:1031E000DEB72CED35E040E050E0BE016F5F7F4F71
:1031F0008091F9179091FA170E94800689819A812F
:103200000F900F90DF91CF910895CF93DF931F928E
:103210001F92CDB7DEB72CED35E040E050E0BE01A7
:103220006F5F7F4F8091F7179091F8170E9480068B
:1032300089819A810F900F90DF91CF9108950F931C
:103240001F93CF93DF93CDB7DEB764970FB6F89493
:10325000DEBF0FBECDBF81E00E94862698D414D772
:103260009F938F9385ED92E09F938F930E94542CB0
:103270000CD60AD79F938F9388EE92E09F938F93FB
:103280000E94542C8E010F5F1F4FC80192D4FCD6B0
:103290001F930F939F938F9381E093E09F938F935E
:1032A0000E94542CC801A1D4EFD69F938F931F93F3
:1032B0000F9385E193E09F938F930E94542CA80174
:1032C0006AE273E08BE493E0BED6DED69F938F93E1
:1032D0001F930F938AE293E09F938F938BE493E085
:1032E0009F938F938CE593E09F938F930E94542C30
:1032F000AFD4CAD69F938F9382E993E09F938F9325
:103300000E94542C0FB6F894DEBF0FBECDBF81E0F3
:1033100099D5BAD69F938F9381EA93E09F938F9329
:103320000E94542C84EF91E098D5AED69F938F9352
:1033300081E08F9384EF8F9382EC93E09F938F9340
:103340000E94542C0FB6F894DEBF0FBECDBF1AE01A
:1033500080E084D4082F98D69F938F931F921F9359
:1033600082EE93E09F938F930E94542C0F900F90C6
:103370000F900F900F900F90083059F080E00E944E
:10338000EA2666E371E080E090E00E946F0F115042
:10339000F9F6083041F482E094E00E94672C81E065
:1033A0000E94CC2609C081E00E94DB2680E00E94BA
:1033B000A9260E94AD03FDCF64960FB6F894DEBF38
:1033C0000FBECDBFDF91CF911F910F910895CF9385
:1033D000DF9300D01F92CDB7DEB781E0CAD362E0A1
:1033E00070E080E090E00E946F0F80E0C2D366E959
:1033F00070E080E090E00E946F0F74D320DFE5E77B
:10340000F6E188E0818382E080830E94F40C698386
:103410007A838B839C838BE194E00E94672C48EA3B
:1034200058E460E070E0CE0101960E940A0F0E940D
:1034300073018C01DC0113968C9113978F93129674
:103440008C9112978F9311968C9111978F938C91E9
:103450008F9315968C9115978F9314968C918F93CB
:103460008FE294E09F938F930E94542CE5E7F6E15E
:10347000128281E08383D80111968C911197848305
:103480008C91858315968C911597868314968C91D3
:103490001497878313968C911397808712968C913B
:1034A000818783E00E94FC2665E776E180E0FFD318
:1034B000EBD59F938F938AE594E09F938F930E941F
:1034C000542C0FB6F894DEBF0FBECDBFA4CFCF9360
:1034D000DF93CDB7DEB76A970FB6F894DEBF0FBEA5
:1034E000CDBF81E046D362E070E080E090E00E94D2
:1034F0006F0F80E03ED366E970E080E090E00E94CC
:103500006F0FF0D282E0898384E08A838FE694E0B3
:103510009F938F930E94542C0FEF1FEF980146E169
:1035200050E0BE016F5F7F4F8091FB179091FC17B9
:103530000E94D7099A8189811F929F931F928F932E
:1035400082E894E09F938F930E94542C0E94F40C85
:103550006F8B788F898F9A8F48ED54E060E070E030
:10356000CE0147960E940A0F0FB6F894DEBF0FBE39
:10357000CDBFCCCFEF92FF920F93CF93E12CF12CE4
:10358000082F20E030E048E851E063EB74E087EE7C
:1035900099E10E946A0C20E030E048E851E06AEBD3
:1035A00074E087E69AE10E946A0CCF910F91FF9038
:1035B000EF900895CF93DF9300D01F92CDB7DEB781
:1035C0000E94F40C69837A838B839C834CED55E0D5
:1035D00060E070E0CE0101960E940A0F9EDD2ADDB8
:1035E000F5CFCF93DF9300D01F92CDB7DEB70E9407
:1035F000F40C69837A838B839C8348E95AE360E007
:1036000070E0CE0101960E940A0F0E941101F5CFD1
:10361000EF92FF920F93E12CF12C00E020E030E0DC
:1036200040EC50E065EC74E08AED9AE10E946A0C8F
:1036300020E030E040EC50E061ED74E081EF9AE191
:103640000E946A0C0F91FF90EF900895E1DF0E94B5
:10365000DA029F938F9381EE94E09F938F930E9461
:10366000542C0E94B60C0F900F900F900F9008955D
:1036700080EF94E00E94672C81B1816881B980E07D
:1036800090E00E943125CCDCFDDC0E94080183E043
:10369000D7D5A2D085E00E94382641E060E070E0F6
:1036A0008CE290E00E946E089093FC178093FB17C9
:1036B000BC0181E01ED283E05DCF0895D9DF80EFA9
:1036C00094E00E94672CC2DFFFCF04D06894B11150
:1036D00050C0089533D088F09F5790F0B92F9927A4
:1036E000B751A0F0D1F0660F771F881F991F1AF00D
:1036F000BA95C9F712C0B13081F03AD0B1E008955F
:1037000037C0672F782F8827B85F39F0B93FCCF3DF
:10371000869577956795B395D9F73EF49095809502
:10372000709561957F4F8F4F9F4F089557FD90582B
:10373000440F551F59F05F3F71F04795880F97FB75
:10374000991F61F09F3F79F087950895121613062F
:103750001406551FF2CF4695F1DF08C0161617065E
:103760001806991FF1CF8695710561050894089593
:10377000E894BB2766277727CB0197F90895653032
:10378000F1F4FA0180818F7390E0982F88272181CE
:10379000822B90930A02809309028281F0E48F9F2A
:1037A000C0011124FA01238126952695822B90933E
:1037B00008028093070281E080938B16089564309D
:1037C00051F080E090E49093080280930702909378
:1037D0000A028093090208950F931F930FEB1BE1D8
:1037E00020E034E244EF50E060E087E20E941F27CF
:1037F00090938D1680938C1621E0892B09F020E0A0
:10380000822F1F910F91089580918C1690918D16A3
:10381000009759F040E060E070E00E94702784302B
:1038200031F410928B1680E0089582E0089583E0D1
:10383000089580918C1690918D16009739F064E070
:103840000E94BC27853021F083E0089582E008952E
:1038500080E008956091090270910A0280E090E092
:103860000E949A2920E030E048EC52E40E94FF29AF
:1038700020E038EF4FE756E40C942F29089560912B
:1038800007027091080280E090E00E949A2920E0EF
:1038900030E045E253E40E94FF2920E038EF4FE793
:1038A00056E40E942F2920E030E040E252E40C94DC
:1038B000C82808950F931F93CF93DF931F921F92F1
:1038C000CDB7DEB78C0119822DC0E091F216EC3233
:1038D00050F481E08E0F8093F216F0E0EC5DF84E2C
:1038E0008A81808302C01092F2168A818A30D1F4D4
:1038F0004091F21650E0FA01EE5DF84E1082415010
:1039000051099E012F5F3F4F64E277E18091F516E8
:103910009091F6160E949309898181110E94AD034E
:103920001092F216BE016E5F7F4FC80104D6882345
:1039300061F20F900F90DF91CF911F910F91089539
:103940000F931F93CF93DF938C01EB018091F516BA
:103950009091F6160E94A008B8018EE896E10E94A8
:10396000352C209779F0EEE8F6E101900020E9F798
:10397000319780E290E091838083BE018EE896E1EA
:103980000E942A2CEEE8F6E1DF010D900020E9F715
:1039900011978DE09AE011969C938E9312961C924B
:1039A00001900020E9F73197EE58F641AE2F8EE8EE
:1039B00096E1AC016A2F8091F7169091F81666D5C2
:1039C000811111C008E215E020E030E04DE250E046
:1039D0006EE777E18091F5169091F6160E94D7096F
:1039E0008EE797E102C080E090E0DF91CF911F91D8
:1039F0000F9108952F923F924F925F926F927F9214
:103A00008F929F92AF92BF92CF92DF92EF92FF92EE
:103A10000F931F93CF93DF935C01FC010190002073
:103A2000E9F731976F01C81AD90A5C2C0F2EFBE910
:103A30008F2EF7E09F2EF02DE12CF12C4C2C37012E
:103A4000F40101811281E80109900020E9F7219732
:103A5000C01BD10B3C2EF9E0CF16D10458F0F40175
:103A60002080FEE02F1206C0B801C5010E94052C7F
:103A7000892B09F5442D351408F44C2F50E0B8017A
:103A8000C5010E943C2C892B49F4F301EE0FFF1F66
:103A9000E60DF71DE556F84F20800DC08FEFE81AB0
:103AA000F80AE3E08E0E911CF1E1EF16F10439F60D
:103AB0006894222424F8822DDF91CF911F910F91D9
:103AC000FF90EF90DF90CF90BF90AF909F908F903E
:103AD0007F906F905F904F903F902F90089530DFD0
:103AE00089CF08958091F5169091F6160C94A00850
:103AF00008958F929F92AF92CF92EF920F931F9360
:103B0000CF93C82F8B0141E060E070E088EC90E03B
:103B10000E946E089093F6168093F5161093F41693
:103B20000093F3160F2EFAE58F2EFCE19F2EF02D59
:103B30006894AA24A6F86894CC24C6F8E12C00E086
:103B400023E040E051EE60E070E08C2FD2D3909300
:103B5000F8168093F716E7E0F1E0808180618083BA
:103B6000CF911F910F91EF90CF90AF909F908F903A
:103B70000895882331F0E8E0F1E080818F7E808332
:103B80000895E8E0F1E0808180618083089560E03D
:103B900070E081E295E0D4DEEEE7F7E101900020ED
:103BA000E9F73197EE57F74181E0759708F080E02B
:103BB0000895CF93DF93EC0160E070E082E395E03D
:103BC000BFDEEEE7F7E101900020E9F7EF58F7419B
:103BD00039F46EE777E1CE010E94352C80E002C017
:103BE000188281E0DF91CF910895FC0101900020BF
:103BF000E9F79F01215131092817390729F4BC0140
:103C000080E695E06CCF089589E00895FC0101906D
:103C10000020E9F79F01215131092817390729F4BC
:103C2000BC018FE695E05BCF089589E00895FC0123
:103C300001900020E9F79F01215231092817390727
:103C400029F4BC018EE795E04ACF089589E00895F4
:103C500060E070E08DEB95E042CF08950F931F93E5
:103C6000E82FF0E0EE0FFF1FE956F84F60817181F9
:103C700086EC95E034DF811114C008E215E020E005
:103C800030E04DE250E06EE777E18091F5169091DB
:103C9000F6160E94D709882321F08EE797E1AADE65
:103CA00003C08EE797E1A6DE1F910F9108950F9351
:103CB0001F93CF93DF931F92CDB7DEB7DB01119631
:103CC0009C911197953108F0B4C0992381F160E07F
:103CD00070E0272F30E0462F50E0FD01E40FF51F84
:103CE000928192959F709A3010F0995C01C0905D1E
:103CF000F901E15FF84E90832F5F3F4FFD01E40F24
:103D0000F51F92819F70492F50E04A30510514F001
:103D1000995C01C0905DF901E15FF84E90837E5F90
:103D20006F5F11969C911197691798F201C070E02E
:103D3000E72FF0E0E15FF84E10824C91811103C053
:103D40008FEC95E002C081ED95E02FE037E13F93E5
:103D50002F931F924F939F938F9385ED95E09F93A1
:103D60008F9381E597E19F938F930E94972C60E05A
:103D700070E081E597E1B3DE0FB6F894DEBF0FBEC9
:103D8000CDBF811159C008E215E020E030E04DE2DE
:103D900050E06EE777E18091F5169091F6160E945B
:103DA000D709882309F447C08EE797E123DE8E30D8
:103DB00009F042C087E089838091F3169091F41650
:103DC000892BA9F1BE016F5F7F4F8EE797E168D124
:103DD0008093F916E981F0E0E258F84EDF010D908A
:103DE0000020E9F71197AE1BBF0BAA2391F0BB2768
:103DF000CD0101979C0112F42F5F3F4F3595279518
:103E00002093FA16AF014F5F5F4F64E18BEF96E1AD
:103E100073D101E010E020E030E046E150E069EFCE
:103E200076E18091F3169091F4160E94D0088EE00E
:103E300003C084E101C080E00F90DF91CF911F911A
:103E40000F910895813019F065EE75E002C06EEBB8
:103E500076E089EE95E043CE08959F938F938AE1B3
:103E600096E09F938F9381E597E19F938F930E94B4
:103E7000972C60E070E081E597E131DE0F900F90C4
:103E80000F900F900F900F9008952F923F924F92A6
:103E90005F926F927F928F929F92AF92BF92CF92DA
:103EA000DF92EF92FF920F931F93CF93DF93CDB7E3
:103EB000DEB7A0970FB6F894DEBF0FBECDBF67E4A4
:103EC00076E083E596E03CDD95DD8111A3C080E2DC
:103ED000E2E2F2E0DE01119601900D928A95E1F79F
:103EE0009E012F5F3F4F6901E12CF12C0F2EFFE562
:103EF000AF2EF6E0BF2EF02D01E517E10F2EF8E70B
:103F00004F2EF6E05F2EF02D0F2EFFE88F2EF6E0FD
:103F10009F2EF02D0F2EF9EA6F2EF6E07F2EF02D5A
:103F20003E2C2F2CFF92EF92BF92AF921F930F93D4
:103F30000E94972C60E070E0C80102DD5BDD0F900D
:103F40000F900F900F900F900F90811163C032E08F
:103F50003E15E8F4F60183818F9382818F938181EE
:103F60008F9380818F93FF92EF925F924F921F9376
:103F70000F930E94972C60E070E0C801E1DC3ADD0D
:103F80000FB6F894DEBF0FBECDBF811143C02F9294
:103F90003F929F928F921F930F930E94972C60E005
:103FA00070E0C801CDDC26DD0F900F900F900F90D0
:103FB0000F900F9081112EC02F923F927F926F929F
:103FC0001F930F930E94972C60E070E0C801B8DC4B
:103FD00011DD0F900F900F900F900F900F908111A7
:103FE00019C03FEFE31AF30A84E0C80ED11C98E031
:103FF000E916F10409F094CF60E070E081EC96E0FE
:104000009FDCF8DC811106C060E070E082ED96E094
:1040100097DCF0DCA0960FB6F894DEBF0FBECDBFE4
:10402000DF91CF911F910F91FF90EF90DF90CF9094
:10403000BF90AF909F908F907F906F905F904F90C8
:104040003F902F900895EF92FF920F931F93CF937D
:10405000DF93EC018B017A0181E0F4DE81110DC068
:10406000CE01D4DD811109C0C801E1DD811105C097
:10407000C701BBDD811101C0EBDDDF91CF911F9145
:104080000F91FF90EF90089590E0FC01EE0FFF1F5D
:104090008E0F9F1FFC01E556F84F81819281089594
:1040A000DC01009729F1FB012081FC010190002037
:1040B000E9F73197E81BF90B822F90E0E817F90731
:1040C000C8F080E008C0880F382F330F330F830FFC
:1040D0008053890F2F5FFD01E20FF11D908130EDBC
:1040E000390F3A3010F49111EECFFB01208308957F
:1040F00080E0089580E008950F931F93CF93DF939E
:10410000DC01EA012097E1F1FA0101900020E9F7D2
:104110003197E41BF50B329710F532C08D01040F77
:10412000151F30E0AE01420F531FFA019081913408
:1041300028F09753592F5295507F03C0592F52950D
:10414000507F2C0F3D1FF9019181913410F097534E
:1041500001C09053950FF80190838F5F01C080E0FC
:10416000282F220F482F50E0FE0101900020E9F790
:104170003197EC1BFD0B4E175F0710F48613CECF63
:10418000DF91CF911F910F9108958091AE17860F07
:104190008093AE179091B117913079F028F092305A
:1041A000A9F0933019F108956F3F09F048C01092BB
:1041B000AE1781E08093B1170895663809F03FC0CB
:1041C0001092AD1782E08093B1170895E091AD177A
:1041D00081E08E0F8093AD17F0E0E555F84E6083D7
:1041E000823069F583E08093B11708959091AD17FF
:1041F00021E0290F2093AD17963009F581110EC0EB
:10420000EBEAF7E1808190E0982F88272181820FE7
:10421000911D9093B3178093B21704C01092B317F7
:104220001092B2171092B117E091AF17F091B0173A
:10423000309729F08091B2179091B317199508958E
:104240008F929F92AF92CF92EF920F930F2EF5EC39
:104250008F2EF0E29F2EF02D6894AA24A4F8689483
:10426000CC24C4F8E12C00E023E040E855E260E013
:1042700070E03FD09093B5178093B4170F91EF90F3
:10428000CF90AF909F908F9008959093B0178093A8
:10429000AF170895CF93DF93CDB7DEB729970FB649
:1042A000F894DEBF0FBECDBF89E0E2E4F2E09E01EC
:1042B0002F5F3F4FD90101900D928A95E1F710923F
:1042C000B3171092B2178091B4179091B517009759
:1042D00031F0422F532F69E0D9D080E001C082E055
:1042E00029960FB6F894DEBF0FBECDBFDF91CF91F8
:1042F00008952F923F924F925F926F927F928F928A
:104300009F92AF92CF92EF92FF920F931F93CF9312
:10431000DF93CDB7DEB7F82E2A013B0188E090E0AD
:104320000E94D02A8C018F2D90E0FC01EE0FFF1F20
:10433000EA54F84E118300830115110509F469C090
:10434000880F991FFC01E55FFD4F80819181D801A5
:104350008D939C936C2D70E084E090E00E94B62ACF
:104360001C0161E070E086E090E00E94B62A7C01CA
:104370004C2DB101F1D6F801F582E4826A2D70E08E
:1043800084E090E00E94B62A1C0161E070E086E0C3
:1043900090E00E94B62A7C014A2DB101DDD6D801F9
:1043A0001396FC92EE92129717969C928E92169705
:1043B000FFB6F894ED91FC91119736978081826059
:1043C00080838D909C90C301B201B4D720E030E08F
:1043D00040E051E40E94FF299B01AC0160E074E2DF
:1043E00084E79BE43CD720E030E040E85FE3D0D6B0
:1043F00071D9F40132976083D801ED91FC91119746
:10440000359788E98083ED91FC91349786E080832D
:10441000FFBEC801DF91CF911F910F91FF90EF90E8
:10442000CF90AF909F908F907F906F905F904F90C4
:104430003F902F900895CF93DF93DC01892B01F1FA
:104440001296ED91FC911397938182812581981B9F
:10445000922384819817B1F0838126952823C08107
:10446000D181C20FD11D68838F5F9581892383839A
:10447000ED91FC91359780818062808380E003C05C
:1044800081E001C082E0DF91CF910895EF92FF9229
:104490000F931F93CF93DF937C01009709F441C0E2
:1044A000DC011296ED91FC91139793818281981B08
:1044B000858198238481891B8617A8F1662341F1A1
:1044C000842F952FDC016150462F50E04F5F5F4FE6
:1044D000480F591FE701EA81FB8193818281258181
:1044E000981B92238481981779F08C91938126955B
:1044F0002923608171818B01020F111DE8018883DE
:104500009F5F8581982393831196A417B50711F7B0
:10451000D701ED91FC91359780818062808380E0A6
:1045200003C081E001C082E0DF91CF911F910F9124
:10453000FF90EF9008950097D1F0DC011496ED9173
:10454000FC91159793818281981799F092818581CA
:1045500086958923A081B181A80FB11D8C91DB01C3
:104560008C939F5F85819823928380E0089581E0FA
:10457000089583E008951F920F920FB60F921124B1
:104580000BB60F922F933F934F935F936F937F934D
:104590008F939F93AF93BF93CF93DF93EF93FF934B
:1045A000A091B617B091B717109711F16091C6009E
:1045B0001496ED91FC911597938182812581981B2A
:1045C00092238481981761F0838126952823C081E6
:1045D000D181C20FD11D68838F5F95818923838329
:1045E0001696ED91FC911797309711F0CD01199522
:1045F000FF91EF91DF91CF91BF91AF919F918F91FB
:104600007F916F915F914F913F912F910F900BBED2
:104610000F900FBE0F901F9018951F920F920FB61C
:104620000F9211240BB60F922F938F939F93AF93FA
:10463000BF93EF93FF93E091B617F091B7173097C0
:10464000B9F00280F381E02D938182819817B1F057
:1046500092818581282F26952923A081B181A20FDF
:10466000B11D2C919F5F892382832093C6000BC0CC
:10467000E1ECF0E080818F7D808305C0E1ECF0E02B
:1046800080818F7D8083FF91EF91BF91AF919F914A
:104690008F912F910F900BBE0F900FBE0F901F9018
:1046A00018951F920F920FB60F9211240BB60F920E
:1046B0002F933F934F935F936F937F938F939F932A
:1046C000AF93BF93CF93DF93EF93FF93A091B8176E
:1046D000B091B917109711F16091CE001496ED9139
:1046E000FC911597938182812581981B9223848167
:1046F000981761F0838126952823C081D181C20F4C
:10470000D11D68838F5F9581892383831696ED91F0
:10471000FC911797309711F0CD011995FF91EF910A
:10472000DF91CF91BF91AF919F918F917F916F91C9
:104730005F914F913F912F910F900BBE0F900FBE45
:104740000F901F9018951F920F920FB60F92112481
:104750000BB60F922F938F939F93AF93BF93EF93CB
:10476000FF93E091B817F091B9173097B9F0028034
:10477000F381E02D938182819817B1F09281858138
:10478000282F26952923A081B181A20FB11D2C913C
:104790009F5F892382832093CE000BC0E9ECF0E079
:1047A00080818F7D808305C0E9ECF0E080818F7D82
:1047B0008083FF91EF91BF91AF919F918F912F9146
:1047C0000F900BBE0F900FBE0F901F9018951F9269
:1047D0000F920FB60F9211240BB60F922F933F93A7
:1047E0004F935F936F937F938F939F93AF93BF93F9
:1047F000CF93DF93EF93FF93A091BA17B091BB17BC
:10480000109711F16091D6001496ED91FC911597D7
:10481000938182812581981B92238481981761F06E
:10482000838126952823C081D181C20FD11D688341
:104830008F5F9581892383831696ED91FC9117975D
:10484000309711F0CD011995FF91EF91DF91CF9144
:10485000BF91AF919F918F917F916F915F914F9198
:104860003F912F910F900BBE0F900FBE0F901F9096
:1048700018951F920F920FB60F9211240BB60F923C
:104880002F938F939F93AF93BF93EF93FF93E091F9
:10489000BA17F091BB173097B9F00280F381E02D81
:1048A000938182819817B1F092818581282F269576
:1048B0002923A081B181A20FB11D2C919F5F892373
:1048C00082832093D6000BC0E1EDF0E080818F7DE4
:1048D000808305C0E1EDF0E080818F7D8083FF91D2
:1048E000EF91BF91AF919F918F912F910F900BBE40
:1048F0000F900FBE0F901F9018951F920F920FB63A
:104900000F9211240BB60F922F933F934F935F9307
:104910006F937F938F939F93AF93BF93CF93DF93C7
:10492000EF93FF93A091BC17B091BD17109711F1B1
:10493000609136011496ED91FC91159793818281D7
:104940002581981B92238481981761F08381269595
:104950002823C081D181C20FD11D68838F5F9581CB
:10496000892383831696ED91FC911797309711F068
:10497000CD011995FF91EF91DF91CF91BF91AF914B
:104980009F918F917F916F915F914F913F912F9167
:104990000F900BBE0F900FBE0F901F9018951F9297
:1049A0000F920FB60F9211240BB60F922F938F9385
:1049B0009F93AF93BF93EF93FF93E091BC17F09158
:1049C000BD173097B9F00280F381E02D9381828189
:1049D0009817B1F092818581282F26952923A081EF
:1049E000B181A20FB11D2C919F5F892382832093F7
:1049F00036010BC0E1E3F1E080818F7D808305C04B
:104A0000E1E3F1E080818F7D8083FF91EF91BF91A1
:104A1000AF919F918F912F910F900BBE0F900FBE72
:104A20000F901F901895CF93DF931F92CDB7DEB7ED
:104A3000BE016F5F7F4F8091BE179091BF177BDDE6
:104A40008111F6CF898190E00F90DF91CF91089589
:104A5000682F8091BE179091BF17EDDC80E090E049
:104A600008958F929F92AF92CF92EF920F93812CE5
:104A7000912C6894AA24A7F86894CC24C7F8E12C58
:104A800000E023E040E051EE60E070E032DC909323
:104A9000BF178093BE17E1E0F8E183E192E09183D4
:104AA0008083938382830F91EF90CF90AF909F90FC
:104AB0008F90089590E0FC01EE0FFF1FE80FF91FA3
:104AC000EE0FFF1FE054F84E238121111FC09C01FF
:104AD000220F331FF901E80FF91FEE0FFF1FE054FB
:104AE000F84EA081B1814C91F901E80FF91FEE0F4A
:104AF000FF1FE054F84E81E090E0028002C0880F72
:104B0000991F0A94E2F7842B8C930895FC01EE0F11
:104B1000FF1FDF01A80FB91FAA0FBB1FA054B84E7B
:104B20000D90BC91A02D2C91E80FF91FEE0FFF1FE7
:104B3000E054F84E81E090E0028002C0880F991F97
:104B40000A94E2F7809582238C93089590E0FC010B
:104B5000EE0FFF1FE80FF91FEE0FFF1FE054F84E96
:104B60002381211120C09C01220F331FF901E80F7E
:104B7000F91FEE0FFF1FE054F84EA081B1814C9158
:104B8000F901E80FF91FEE0FFF1FE054F84E81E026
:104B900090E0028002C0880F991F0A94E2F7809586
:104BA00084238C930895FC01EE0FFF1FDF01A80FF3
:104BB000B91FAA0FBB1FA054B84E0D90BC91A02DD9
:104BC0002C91E80FF91FEE0FFF1FE054F84E81E023
:104BD00090E0028002C0880F991F0A94E2F7822BAE
:104BE0008C930895CC24C394D12C6894BB24B2F840
:104BF000C0ECD7E110E08C81813081F018F1823077
:104C000061F5E881F9812081C6010A8002C0880F20
:104C1000991F0A94E2F7822780831FC08D818F5FDE
:104C20008A3010F48D8319C01D82E881F9812081BA
:104C3000C6010A8002C0880F991F0A94E2F78227F2
:104C400080830BC00D81002329F0812F7FDF01506D
:104C50000D8303C0BC82812F2DDF1F5F2696143089
:104C600051F665E070E080E090E00E946F0FC0CFE9
:104C7000EF92FF920F931F93CF93DF93082F80E45F
:104C800087B9C0ECD7E10F2EF8E2EF2EF12CF02D12
:104C9000F982E88286E08A831B8214E01C8380E02C
:104CA00009DF80E887B9FF82EE8287E0888719866E
:104CB0001A8781E0FFDE80E283BB84E390E09D877A
:104CC0008C8785E08E871F86188B82E0F3DE80E17B
:104CD0008093010182E091E09B8B8A8B1C8B1D8A63
:104CE0001E8B83E0E7DEE12CF12C20E030E040EC8D
:104CF00050E06EEC77E082EF95E20E946A0CDF9163
:104D0000CF911F910F91FF90EF900895CF93DF9374
:104D100090E0FC01EE0FFF1FDF01A80FB91FAA0FE3
:104D2000BB1FA054B84ECD91DC911197488121E072
:104D300030E012960C90129702C0220F331F0A9493
:104D4000E2F724272883FD0181E08483DF91CF915E
:104D50000895CF93DF9390E0FC01EE0FFF1FDF017A
:104D6000A80FB91FAA0FBB1FA054B84ECD91DC915C
:104D70001197488121E030E012960C90129702C002
:104D8000220F331F0A94E2F724272883FD0182E0D3
:104D90008483DF91CF910895282F30E0F901EE0F41
:104DA000FF1FE20FF31FEE0FFF1FE054F84E93E0DA
:104DB0009483CCCE0895282F30E0F901EE0FFF1F29
:104DC000E20FF31FEE0FFF1FE054F84E94E09483C0
:104DD00071CE089590E0FC01EE0FFF1FDF01A80FD8
:104DE000B91FAA0FBB1FA054B84E24E015962C93F0
:104DF0001597FD011482089590E0FC01EE0FFF1F4E
:104E0000DF01A80FB91FAA0FBB1FA054B84E21E0A5
:104E100015962C931597FD01148208958091E6173D
:104E200081110CC08CE08093B8008FEF8093BB00A1
:104E300084E08093BC0081E08093E6170895AF92F0
:104E4000BF92CF92DF92EF92FF920F931F93CF9377
:104E5000DF93A82EB62E69017A0184E090E0A0D3FA
:104E6000EC01892B61F1A88281E0B81212C0C70160
:104E7000B60120EA36E841E050E04ED3DA01C9013C
:104E80004097A109B109B695A7959795879589830C
:104E900011C0C701B60120E83AE146E050E03CD33A
:104EA000DA01C9014097A109B109B695A79597956F
:104EB000879589831B830A838C2F9D2F02C080E0F6
:104EC00090E0DF91CF911F910F91FF90EF90DF90D5
:104ED000CF90BF90AF9008958091BC0081700895ED
:104EE000FF920F931F93CF93DF930097D1F14A3036
:104EF000D0F5F42E8B01EC01EFDF811136C08091EB
:104F0000D9179091DA17C817D90741F087DF89813F
:104F10008093B800D093DA17C093D91781E08F0D32
:104F20008093DB178881880F8093DC17FF2089F03E
:104F3000F801ADEDB7E14FEF4F0D642F70E0CB01FD
:104F40000196B801680F791F81918D93E617F707D5
:104F5000D9F788EF8093210285EA8093BC0084E032
:104F600005C086E003C087E001C082E0DF91CF91F9
:104F70001F910F91FF9008951F93CF93DF93009798
:104F800029F16B3028F5162FEC01A6DF811122C024
:104F90008091D9179091DA17C817D90741F03EDFF1
:104FA00089818093B800D093DA17C093D9171093F2
:104FB000DB178881880F81608093DC1788EF8093EE
:104FC000210285EA8093BC0085E005C086E003C02D
:104FD00087E001C082E0DF91CF911F9108951F9279
:104FE0000F920FB60F9211240BB60F922F933F938F
:104FF0004F935F936F937F938F939F93AF93BF93E1
:10500000EF93FF93E091B9008E2F90E0FC01389769
:10501000E135F10508F075C08827E458FF4F8F4F40
:105020009DC21092D817E091D8178091DB17E8172E
:1050300070F481E08E0F8093D817F0E0E452F84EC0
:1050400080818093BB0085E88093BC0072C084E9B6
:105050008093BC008091D9179091DA17DC011296E9
:10506000ED91FC911397309709F463C020E040E084
:1050700050E064E019955DC0E091D81781E08E0F93
:105080008093D8178091BB00F0E0E452F84E808303
:105090008091B900803411F41092D8172091D8175C
:1050A00030E08091DB1790E001972817390724F44E
:1050B00085EC8093BC003DC085E88093BC0039C07E
:1050C0008091BB00E091D817F0E0E452F84E808365
:1050D00084E98093BC008091D9179091DA17DC01A4
:1050E0001296ED91FC911397309719F12091DB17EF
:1050F0004CED57E165E019951CC085EA8093BC0032
:1051000018C08091B9008093210284E08093BC0094
:105110008091D9179091DA17DC011296ED91FC91EC
:105120001397309731F020E040E050E06091210289
:105130001995FF91EF91BF91AF919F918F917F91C1
:105140006F915F914F913F912F910F900BBE0F90F8
:105150000FBE0F901F901895FC01411101C041D363
:10516000842F90E09C012150310982239323892BC5
:1051700009F037D3413808F034D3128213824483C4
:10518000440F415045837183608380E090E008952F
:105190005058BB27AA270ED021C112D130F017D109
:1051A00020F031F49F3F11F41EF407C10EF4E09596
:1051B000E7FBFDC0E92F0E94961B78F3BA17620740
:1051C00073078407950720F079F4A6F50C94B81BB3
:1051D0000EF4E0950B2EBA2FA02D0B01B901900112
:1051E0000C01CA01A0011124FF27591B99F0593F56
:1051F00050F4503E68F11A16F040A22F232F342F9E
:105200004427585FF3CF469537952795A795F040EB
:105210005395C9F77EF41F16BA0B620B730B840B00
:10522000BAF09150A1F0FF0FBB1F661F771F881FB8
:10523000C2F70EC0BA0F621F731F841F48F4879510
:1052400077956795B795F7959E3F08F0B1CF939501
:10525000880F08F09927EE0F9795879508950DD040
:10526000BDC0B5D048F0ACD038F021F45F3F21F09C
:105270009EC051110C94B91BA0C00E94961B88F3CC
:105280009923B9F35523A1F3951B550BBB27AA27E7
:1052900062177307840738F09F5F5F4F220F331F39
:1052A000441FAA1FA9F334D00E2E3AF0E0E831D003
:1052B00091505040E695001CCAF72AD0FE2F28D006
:1052C000660F771F881FBB1F261737074807AB07D6
:1052D000B0E809F0BB0B802DBF01FF2793585F4F4B
:1052E00032F09E3F510570F062C00C94B91B5F3FD5
:1052F000E4F3983ED4F3869577956795B795F7953F
:105300009F5FC9F7880F911D9695879597F9089526
:10531000E1E0660F771F881FBB1F621773078407C2
:10532000BA0720F0621B730B840BBA0BEE1F88F7D1
:10533000E0950895E89409C097FB3EF49095809518
:10534000709561957F4F8F4F9F4F9923A9F0F92F4B
:1053500096E9BB279395F695879577956795B795C9
:10536000F111F8CFFAF4BB0F11F460FF1BC06F5FAF
:105370007F4F8F4F9F4F16C0882311F096E911C0C1
:10538000772321F09EE8872F762F05C0662371F0E2
:1053900096E8862F70E060E02AF09A95660F771FF6
:1053A000881FDAF7880F9695879597F9089597F9EA
:1053B0009F6780E870E060E008959FEF80EC0895BB
:1053C00000240A94161617061806090608950024E4
:1053D0000A9412161306140605060895092E03945E
:1053E000000C11F4882352F0BB0F40F4BF2B11F4D2
:1053F00060FF04C06F5F7F4F8F4F9F4F08950CD0A9
:10540000EDCFDEDF28F0E3DF18F0952309F0CFCFF2
:10541000D4CF11240C94B91B0E94961B90F3959F36
:10542000C1F3950F50E0551F629FF001729FBB279B
:10543000F00DB11D639FAA27F00DB11DAA1F649F37
:105440006627B00DA11D661F829F2227B00DA11DEA
:10545000621F739FB00DA11D621F839FA00D611D70
:10546000221F749F3327A00D611D231F849F600D91
:10547000211D822F762F6A2F11249F57504092F0C2
:10548000E9F088234AF0EE0FFF1FBB1F661F771F4E
:10549000881F91505040A9F79E3F510578F087CF63
:1054A0000C94B91B5F3FE4F3983ED4F3869577954F
:1054B0006795B795F795E7959F5FC1F7FE2B880F26
:1054C000911D9695879597F90895AA1BBB1B51E1ED
:1054D00007C0AA1FBB1FA617B70710F0A61BB70B64
:1054E000881F991F5A95A9F780959095BC01CD0109
:1054F000089597FB072E16F4009406D077FD08D088
:10550000E4DF07FC05D03EF4909581959F4F089508
:10551000709561957F4F0895A1E21A2EAA1BBB1BBF
:10552000FD010DC0AA1FBB1FEE1FFF1FA217B3076F
:10553000E407F50720F0A21BB30BE40BF50B661F85
:10554000771F881F991F1A9469F760957095809549
:1055500090959B01AC01BD01CF010895EE0FFF1F97
:10556000881F8BBF0790F691E02D19940F931F931E
:10557000CF93DF93869F8001879F100D969F100D1C
:105580001124C8010DD0EC01009721F0A80160E0C2
:1055900070E034D1CE01DF91CF911F910F9108952A
:1055A0000F931F93CF93DF938230910510F482E025
:1055B00090E0E091FF17F091001820E030E0A0E0CB
:1055C000B0E0309719F14081518102811381481771
:1055D0005907C8F08417950769F4109731F01296AF
:1055E0000C93129713961C9327C00093FF171093E8
:1055F000001822C02115310519F04217530718F47D
:105600009A01BD01EF01DF01F801DBCF2115310562
:10561000F9F0281B390B2430310580F48A819B81F5
:105620006115710521F0FB019383828304C090937F
:1056300000188093FF17FE01329644C0FE01E20F6E
:10564000F31F8193919322503109398328833AC003
:105650002091FD173091FE17232B41F42091020277
:10566000309103023093FE172093FD172091000222
:10567000309101022115310541F42DB73EB740911B
:10568000040250910502241B350BE091FD17F091A7
:10569000FE17E217F307A0F42E1B3F0B281739075C
:1056A00078F0AC014E5F5F4F2417350748F04E0F7E
:1056B0005F1F5093FE174093FD178193919302C093
:1056C000E0E0F0E0CF01DF91CF911F910F910895BD
:1056D000CF93DF93009709F481C0FC0132971382C6
:1056E0001282A091FF17B0910018109781F42081C9
:1056F0003181820F931F2091FD173091FE172817DB
:10570000390751F5F093FE17E093FD1767C0ED01DF
:1057100020E030E0CE17DF0740F44A815B819E0134
:1057200041155105F1F0EA01F5CFD383C2834081E1
:105730005181840F951FC817D90759F48881998121
:10574000840F951F0296918380838A819B81938326
:1057500082832115310529F4F0930018E093FF1797
:105760003DC0E901FB83EA8349915991C40FD51FDC
:10577000EC17FD0761F480819181840F951F0296DB
:10578000E90199838883828193819B838A83E0E006
:10579000F0E012968D919C911397009719F0FD01FE
:1057A000DC01F7CF8D919C9111979D012E5F3F4FAA
:1057B000820F931F2091FD173091FE17281739078C
:1057C00069F4309729F4109200181092FF1702C064
:1057D00013821282B093FE17A093FD17DF91CF9131
:1057E000089581E090E0F8947DC3FB01DC0102C0E4
:1057F00001900D9241505040D8F70895DC0101C04E
:105800006D9341505040E0F70895FB0151915523AD
:10581000B1F0BF01DC01052E4D91442369F010D099
:10582000D9F7CD010190002049F04D91411108D0E8
:10583000C9F3FB014111EECF81E090E0019708959B
:10584000402539F0403229F440294B57465E08F094
:1058500018940895FB01DC010D900020E9F71197E1
:1058600001900D920020E1F70895FB01DC01019009
:105870000D920020E1F70895FB01DC0141505040FA
:1058800088F08D9181341CF08B350CF4805E619131
:1058900061341CF06B350CF4605E861B611171F392
:1058A000990B0895881BFCCFCF93DF93CDB7DEB75C
:1058B000AE014A5F5F4FFA0161917191AF01809132
:1058C00003189091041861D0DF91CF9108950F9340
:1058D0001F93CF93DF93E0910318F0910418238175
:1058E00021FF1BC08C01D0E0C0E0F80181918F0145
:1058F0006091031870910418DB011896ED91FC91EA
:105900001997882331F01995892B79F3DFEFCFEFC1
:10591000ECCF8AE01995892B19F08FEF9FEF02C029
:105920008D2F9C2FDF91CF911F910F9108950F9391
:105930001F93CF93DF93CDB7DEB72E970FB6F894B2
:10594000DEBF0FBECDBF0E891F8986E08C831A8310
:1059500009838FEF9FE79E838D83AE01465E5F4F85
:10596000688D798DCE01019610D0EF81F885E00F1A
:10597000F11F10822E960FB6F894DEBF0FBECDBF7A
:10598000DF91CF911F910F9108952F923F924F92E7
:105990005F926F927F928F929F92AF92BF92CF92BF
:1059A000DF92EF92FF920F931F93CF93DF93CDB7C8
:1059B000DEB72B970FB6F894DEBF0FBECDBF6C01DC
:1059C0007B018A01FC0117821682838181FFBFC19E
:1059D000CE0101963C01F6019381F70193FD85917B
:1059E00093FF81917F01882309F4ADC1853239F499
:1059F00093FD859193FF81917F01853221F4B6015A
:105A000090E0D6D1E8CF912C212C312CFFE1F31579
:105A1000D8F08B3279F038F4803279F08332A1F407
:105A2000232D20611DC08D3261F0803369F4232D58
:105A3000216016C0832D8260382EE32DE4603E2E57
:105A40002AC0F32DF8601DC037FC2DC020ED280FB3
:105A50002A3040F08E32B9F436FC75C1232D206413
:105A6000322E19C036FE06C08AE0989E200D112401
:105A7000922E11C0EAE02E9E200D1124222EF32D2D
:105A8000F0623F2E08C08C3621F4832D8068382EBA
:105A900002C0883641F4F70193FD859193FF81910F
:105AA0007F018111B3CF982F9F7D9554933028F4B7
:105AB0000C5F1F4F9FE399830DC0833631F083370E
:105AC00071F0833509F055C020C0F80180818983C9
:105AD0000E5F1F4F88248394912C530112C028011C
