:10000000E5C0000004C1000002C1000000C1000002
:10001000FEC00000FCC00000FAC00000F8C00000F4
:10002000F6C00000F4C00000F2C00000F0C0000004
:100030008DC40000ECC00000EAC00000E8C0000071
:10004000E6C00000E4C00000E2C00000E0C0000024
:10005000DEC00000DCC00000DAC00000D8C0000034
:10006000D6C000000C9402260C945426D0C0000088
:10007000CEC00000CCC00000CAC00000C8C0000054
:10008000C6C00000C4C00000C2C00000C0C0000064
:100090000C9498260C94EA26BAC000000C94362BD7
:1000A000B6C00000B4C00000B2C00000B0C0000084
:1000B000AEC00000ACC00000AAC00000A8C0000094
:1000C000A6C00000A4C00000A2C000000C942E270F
:1000D0000C9480279CC000000C94C4270C94162814
:1000E00096C0000050195019501987198F19A4197A
:1000F0005019501987198F19582BC82BC82BC82B8A
:10010000C82BC82BC82BC82B582BC82BC82BC82BC7
:10011000C82BC82BC82BC82B5A2BC82BC82BC82BB5
:10012000C82BC82BC82BC82BC82BC82BC82BC82B37
:10013000C82BC82BC82BC82B5A2BC82BC82BC82B95
:10014000C82BC82BC82BC82BC82BC82BC82BC82B17
:10015000C82BC82BC82BC82BC42BC82BC82BC82B0B
:10016000C82BC82BC82BC82B8F2BC82BC82BC82B30
:10017000C82BC82BC82BC82BC82BC82BC82BC82BE7
:10018000C82BC82BC82BC82B832BC82BC82BC82B1C
:10019000C82BC82BC82BC82BA72B0E94A00C809162
:1001A0007317823008F00CD30E94CD19F6CFCF938D
:1001B000DF931F92CDB7DEB7CE0101960E94CD1618
:1001C00049810E94C2180E941919F6CF11241FBE3E
:1001D000CFEFD1E2DEBFCDBF00E00CBF19E0A0E061
:1001E000B2E0E6E7F5E600E00BBF02C007900D9233
:1001F000A636B107D9F729E1A6E6B9E001C01D92FC
:10020000AD3FB207E1F70E94701E0C94B932F8CEF0
:1002100040E066E085E0C9D490937E1980937D1913
:100220000895AF92BF92CF92DF92EF92FF920F9319
:100230001F93CF93DF93E12CF12CC12CD12CA12C57
:10024000B12C10E0C0E0D0E02BC00E943F1A009714
:1002500049F0A80EB91E61E070E080E090E00E94D5
:100260006C1001C011E00E94451B009749F0C80EB8
:10027000D91E61E070E080E090E00E946C1001C047
:1002800011E00E94761B009749F0E80EF91E61E02C
:1002900070E080E090E00E946C1001C011E02196B7
:1002A000CA30D10594F2112349F0E7E7F9E1118250
:1002B0001082138212821582148216C0C501BE01FB
:1002C0000E94AC2D5B01C601BE010E94C02D9B01A6
:1002D000C701BE010E94AC2DE7E7F9E1B182A0821F
:1002E0003383228375836483E7E7F9E183818F9306
:1002F00082818F9381818F9380818F9385818F936A
:1003000084818F938FE692E09F938F930E949B2F1F
:1003100000E02FEF3FEFA90167E779E180917D19B8
:1003200090917E1965D48DB79EB708960FB6F89454
:100330009EBF0FBE8DBFDF91CF911F910F91FF9098
:10034000EF90DF90CF90BF90AF9008952AE030E01B
:1003500040E050E06FE779E180917D1990917E193E
:1003600014D58FE799E10895E2E7F9E0A6E7B9E04F
:10037000B183A08313821282EEE1F7E1F093710959
:10038000E0937009138212821182108288EA9DE044
:1003900013969C938E931297ED93FC9390936D0913
:1003A00080936C0990936F0980936E0980E090E8C8
:1003B00090936709809366090895CF93DF93EC01CA
:1003C000A2E7B9E001C0DF01ED91FC911197EC17B4
:1003D000FD07C8F312968D919C9113979D01280FEC
:1003E000391FC217D30749F42A813B81820F931F1B
:1003F00013969C938E931297ED018A819B819E01A7
:10040000280F391FE217F307C1F4209170093091CA
:100410007109E217F30771F022813381820F931F74
:100420009B838A83ED91FC911197808191819983BF
:10043000888305C03983288302C0F983E883CA17FB
:10044000DB0711F0CD93DC93DF91CF910895EF920C
:10045000FF920F931F93CF93DF938C010E94EB0DBC
:100460008091700990917109892B09F47DDF809149
:1004700066099091670980239123892B09F076C042
:100480000115110549F0C80104960817190718F05D
:1004900000E010E001C08C010115110509F469C0EC
:1004A00080916E0990916F098017910708F464C0DC
:1004B000C0917209D0917309E2E7F9E002C0FE0130
:1004C000EC018A819B818017910720F488819981B2
:1004D0000097A9F78091700990917109C817D90701
:1004E00009F44DC0E080F18084E0E80EF11C8881C1
:1004F0009981918380832A813B81201B310B293094
:10050000310548F0CE01800F911FFC013383228317
:100510001B830A8352DF2A813B8180916E0990916F
:100520006F09821B930B90936F0980936E09409122
:100530006C0950916D098417950720F490936D090B
:1005400080936C098091660990916709282B392B5B
:100550003B832A831982188280916A0990916B09E2
:10056000019690936B0980936A090BC0E12CF12CE2
:1005700008C0E12CF12C05C0E12CF12C02C0E12CCB
:10058000F12C0E942B0FE114F10411F40E94D919EF
:10059000C701DF91CF911F910F91FF90EF900895C8
:1005A0000F931F93CF93DF93009791F1EC01249762
:1005B0004A815B812091660930916709BA01622303
:1005C0007323672B29F168817981672B09F52095C1
:1005D0003095242335233B832A830E94EB0D8A81A7
:1005E0009B8120916E0930916F09820F931F909328
:1005F0006F0980936E09CE01E0DE809168099091C9
:100600006909019690936909809368090E942B0FEC
:10061000DF91CF911F910F91089580916E09909174
:100620006F090895FC010396928381834FEF5FEF7A
:10063000BA01438354836583768390878783928747
:10064000818710820895FC011386128608950F9306
:100650001F93CF93DF93EB01088119812A813B819E
:100660000F3F4FEF14072407340721F4FC01A18545
:10067000B28511C0DC01139601C0DF011496ED9123
:10068000FC91159740815181628173810417150790
:100690002607370790F71496ED91FC911597FD8387
:1006A000EC83D783C683BF83AE831596DC93CE934A
:1006B00014979B878A87FC0120812F5F2083DF911D
:1006C000CF911F910F910895CF93DF93FC01A285E5
:1006D000B385C481D581868197819F838E83C681AE
:1006E000D781848195819D838C8311968D919C9176
:1006F0001297E817F90731F48681978112969C9337
:100700008E931197138612868C9181508C938C91C5
:10071000DF91CF910895A89590EC88E10FB6F894F9
:10072000A895809360000FBE909360000895FC012F
:10073000608331977083319710823197108231979F
:1007400020E82083319710823197108231971082F0
:10075000779740833197508386970895DCDFA09187
:10076000E117B091E217CD91CDBFDD91DEBFFF91D2
:10077000EF91DF91CF91BF91AF919F918F917F9139
:100780006F915F914F913F912F911F910F91FF902A
:10079000EF90DF90CF90BF90AF909F908F907F9021
:1007A0006F905F904F903F902F901F900F900CBED6
:1007B0000F900BBE0F900FBE0F90089581E008952B
:1007C0000F920FB6F8940F920BB60F920CB60F92D1
:1007D0001F9211242F923F924F925F926F927F92BD
:1007E0008F929F92AF92BF92CF92DF92EF92FF9241
:1007F0000F931F932F933F934F935F936F937F9329
:100800008F939F93AF93BF93CF93DF93EF93FF9318
:10081000A091E117B091E2170DB60D920EB60D92B0
:100820000E948710A091E117B091E217CD91CDBF42
:10083000DD91DEBFFF91EF91DF91CF91BF91AF913D
:100840009F918F917F916F915F914F913F912F91E8
:100850001F910F91FF90EF90DF90CF90BF90AF90DE
:100860009F908F907F906F905F904F903F902F90D0
:100870001F900F900CBE0F900BBE0F900FBE0F90ED
:1008800008950F920FB6F8940F920BB60F920CB614
:100890000F921F9211242F923F924F925F926F926C
:1008A0007F928F929F92AF92BF92CF92DF92EF9200
:1008B000FF920F931F932F933F934F935F936F93E9
:1008C0007F938F939F93AF93BF93CF93DF93EF93D8
:1008D000FF93A091E117B091E2170DB60D920EB6FD
:1008E0000D9213BE0E94FF0D81110E948710A091EE
:1008F000E117B091E217CD91CDBFDD91DEBFFF9141
:10090000EF91DF91CF91BF91AF919F918F917F91A7
:100910006F915F914F913F912F911F910F91FF9098
:10092000EF90DF90CF90BF90AF909F908F907F908F
:100930006F905F904F903F902F901F900F900CBE44
:100940000F900BBE0F900FBE0F9008959ADF189571
:10095000DC0153962C915397222341F05A96ED9146
:10096000FC915B9790818AE0891B089580E008954F
:100970000FB6F8940F92FC01868D811102C081E0C0
:1009800001C080E00F900FBE08950FB6F8940F924B
:10099000FC01268D878D281302C081E001C080E014
:1009A0000F900FBE08950F931F93CF93DF93EC0129
:1009B000042F1E8D48A141110CC088819981892B7B
:1009C00009F042C08C819D810E941F131D821C82F0
:1009D00042C0011117C050E08A819B810E943C2FC8
:1009E00028A18A819B81820F911D9B838A832C8100
:1009F0003D818217930750F1888199819B838A8377
:100A000080E029C050E08E819F810E943C2F88A108
:100A100090E09195819591092E813F81280F391F92
:100A20003F832E83488159812417350730F42C8168
:100A30003D81820F931F9F838E83023049F41123DF
:100A400049F0115080E007C080E005C080E003C09D
:100A500080E001C080E01F5F1E8FDF91CF911F916A
:100A60000F910895FC0140A14423A9F050E0268194
:100A70003781240F351F378326838481958128177A
:100A8000390720F08081918197838683CB0166812D
:100A900077810C943C2F08951F93CF93DF93EC0143
:100AA0000FB6F8940F921AA10BC08B89882351F0CE
:100AB000CE0143960E94451181110E94811211506E
:100AC00011169CF38FEF8AA30F900FBE0FB6F89408
:100AD0000F9219A10BC08885882351F0CE0108968A
:100AE0000E94451181110E948112115011169CF330
:100AF0008FEF89A30F900FBEDF91CF911F910895C3
:100B0000CF93DF93EC010FB6F8940F92E881F9814F
:100B10008F8D28A190E030E0829FA001839F500D2F
:100B2000929F500D11244E0F5F1F5D834C831E8ECC
:100B3000FB83EA830197289FA001299F500D389FCE
:100B4000500D1124CF01840F951F9F838E838FEF4B
:100B500089A38AA361110BC08885882371F0CE0117
:100B600008960E944511882341F02ADE06C0CE0176
:100B7000089658DDCE01439655DD0F900FBE81E0FB
:100B8000DF91CF9108950F931F93F801611103C076
:100B90001183008302C051834083878F60A361E08B
:100BA000CF01AEDF1F910F910895DF92EF92FF9278
:100BB0000F931F93CF93DF93F82EE62ED42E869FAC
:100BC000C0011124839643DCEC01009741F08C01B5
:100BD0002D2DAC014D5D5F4F6E2D8F2DD4DFCE01DD
:100BE000DF91CF911F910F91FF90EF90DF900895CB
:100BF000CF92DF92EF92FF920F931F93CF93DF93E9
:100C0000CDB7DEB729970FB6F894DEBF0FBECDBFC4
:100C10007C016B012E833F834887598710E00FB614
:100C2000F8940F92F701968D878D981710F0023087
:100C3000B1F4402FB601C701B6DEF70193899923BD
:100C400041F0C70143960E944511882321F0B8DD89
:100C500002C08111B5DD0F900FBE81E04CC08E81C6
:100C60009F81A885B985892B8A2B8B2B21F40F9026
:100C70000FBE80E040C0111105C0CE0101960E9458
:100C80000A1211E00F900FBEA6D70FB6F8940F927C
:100C9000F70181A18F3F09F411A2F70182A18F3FD3
:100CA00009F412A20F900FBEBE016A5F7F4FCE0102
:100CB00001960E941B12811119C0C70166DE8823AC
:100CC00081F04E815F8168857985C70108960E9411
:100CD000EC10C701E1DE0E942B0F8111A0CF70DD67
:100CE0009ECFC701D9DE0E942B0F99CFC701D4DE5A
:100CF0000E942B0F80E029960FB6F894DEBF0FBE3E
:100D0000CDBFDF91CF911F910F91FF90EF90DF90BA
:100D1000CF900895EF92FF920F931F93CF93DF939D
:100D20008A01FC01568D378D531710F02230F9F4EB
:100D3000422F7801EC011AA18E8DCE0134DE1F3FC7
:100D400081F48B898823A9F0CE0143960E94451136
:100D5000882389F0E114F10481F081E0F7018083B8
:100D60000DC0FF24F394F10EFAA281E007C080E0E9
:100D700005C081E003C081E001C081E0DF91CF9137
:100D80001F910F91FF90EF900895CF92DF92EF9215
:100D9000FF920F931F93CF93DF93CDB7DEB72997C1
:100DA0000FB6F894DEBF0FBECDBF8C016B012E8352
:100DB0003F8348875987E12C0FB6F8940F92F801CA
:100DC000F68CFF2099F0B601C8014CDEFA94F801C8
:100DD000F68E8085882331F0C80108960E9445115F
:100DE0008111EEDC0F900FBE81E04FC08E819F819C
:100DF000A885B985892B8A2B8B2B21F40F900FBEE8
:100E000080E043C0E11006C0CE0101960E940A12A4
:100E1000EE24E3940F900FBEDED60FB6F8940F9237
:100E2000F80181A18F3F09F411A2F80182A18F3F3F
:100E300009F412A20F900FBEBE016A5F7F4FCE0170
:100E400001960E941B12811117C0C80191DD8823F1
:100E500079F04E815F8168857985C80143960E944B
:100E6000EC10C80119DEF7D78111A6CFA9DCA4CFF9
:100E7000C80112DEF0D7A0CFC8010EDEECD7C80142
:100E800077DD882309F498CF80E029960FB6F8948F
:100E9000DEBF0FBECDBFDF91CF911F910F91FF90AD
:100EA000EF90DF90CF900895EF92FF920F931F93F2
:100EB000CF93DF93CDB7DEB729970FB6F894DEBF97
:100EC0000FBECDBF8C014E835F8368877987E12C8D
:100ED000F12C0FB6F8940F92F801868D8823C9F093
:100EE0008150868F80819181892B29F40E94E113A2
:100EF000F80195838483F8018085882331F0C80147
:100F000008960E94451181115BDC0F900FBE81E0B5
:100F10006FC08E819F81A885B985892B8A2B8B2BE9
:100F200021F40F900FBE80E063C0F11006C0CE0127
:100F300001960E940A12FF24F3940F900FBE4BD625
:100F40000FB6F8940F92F80181A18F3F09F411A216
:100F5000F80182A18F3F09F412A20F900FBEBE01CB
:100F60006A5F7F4FCE0101960E941B12811126C03D
:100F7000C801FEDC8823F1F0F80180819181892B82
:100F800051F40FB6F8940F92848195810E949812C3
:100F9000E82E0F900FBE4E815F8168857985C8016C
:100FA00043960E94EC10C80177DD55D7811191CF8F
:100FB00007DC8FCFC80170DD4ED78BCFC8016CDD49
:100FC0004AD7C801D5DC882309F483CFEE2079F015
:100FD0000FB6F8940F92C801BBDC682FF80184812A
:100FE00095810E947A130F900FBE80E001C080E0CF
:100FF00029960FB6F894DEBF0FBECDBFDF91CF911B
:101000001F910F91FF90EF900895CF93DF93EC0124
:101010000FB6F8940F9289A18F3F09F419A28AA103
:101020008F3F09F41AA20F900FBE8E8D811104C05C
:10103000CE0143960E940311CE012EDDDF91CF91A8
:101040000895FC014481558122813381240F351F8D
:1010500080819181B901681B790BCB0164177507F9
:1010600010F0841B950B08950F93FC018FE0DF01B6
:101070001D928A95E9F77587648755834483378382
:10108000268306870F910895AF92BF92CF92DF9289
:10109000EF92FF920F931F93CF93DF936C015B014D
:1010A0007A01FC01C281D381048115810C1B1D0BC7
:1010B0004017510708F48A01F60184859585A80137
:1010C000B5018C0F9D1F0E943C2F0E151F0558F473
:1010D000A701401B510BB501600F711FF6018485FC
:1010E00095850E943C2FCE018E0D9F1DF601248117
:1010F00035818217930710F0821B930BF6019383BF
:101100008283C701DF91CF911F910F91FF90EF90E4
:10111000DF90CF90BF90AF900895CF92DF92EF9283
:10112000FF920F931F93CF93DF931F921F92CDB720
:10113000DEB77C016B015A83498321153105C1F06B
:10114000FC01868580FD08C04217530708F49A0108
:101150003A83298381E00FC02017310758F042E01D
:1011600050E0BE016F5F7F4FC7018EDF81E003C09B
:1011700080E001C080E0882331F049815A81B601C6
:10118000C70182DF02C080E090E00F900F90DF91F6
:10119000CF911F910F91FF90EF90DF90CF90089526
:1011A000AF92BF92CF92DF92EF92FF920F931F9375
:1011B000CF93DF937C015B01E9014217530708F4E9
:1011C000EA01209781F1F7010081118184819581E5
:1011D000801B910B6E018C179D0708F46C01F701C1
:1011E00064857585600F711FA601C5010E943C2FA3
:1011F000CC16DD0658F4AE014C195D09F701648583
:101200007585C5018C0D9D1D0E943C2F0C0F1D1F67
:10121000F701848195810817190710F0081B190B35
:10122000F70111830083CE01DF91CF911F910F91C0
:10123000FF90EF90DF90CF90BF90AF9008956F92A6
:101240007F928F929F92AF92BF92CF92DF92EF9256
:10125000FF920F931F93CF93DF931F921F92CDB7EF
:10126000DEB76C014B015A01790101151105B1F08E
:10127000FC0160807180A801BE016F5F7F4F90DF2D
:1012800089819A81E01AF10AA816B90630F4F601AC
:1012900071826082A12CB12C01C05C019701A50173
:1012A000B401C6017DDF0F900F90DF91CF911F91A8
:1012B0000F91FF90EF90DF90CF90BF90AF909F90F5
:1012C0008F907F906F900895CF92DF92EF92FF9270
:1012D0000F93CF93DF93EC016B01413011F401E0E8
:1012E00001C000E0C114D10419F4CC24C394D12C62
:1012F000CE014096C817D90720F42196A8D87C01C2
:1013000002C0E12CF12CE114F10439F09601AE0198
:10131000B701615F7F4FC701A7DEC701DF91CF91A2
:101320000F91FF90EF90DF90CF9008950F930FB63D
:10133000F8940F92FC0120853185232B71F42285CE
:101340003385232B61F4268137814481558164855F
:101350007585068589DE81E003C080E001C080E0FC
:101360000F900FBE0F910895FC012481358180817B
:101370009181820F931F42815381841B950B0197AA
:101380008217930710F0821B930B08952F923F92C0
:101390004F925F926F927F928F929F92AF92BF9285
:1013A000CF92DF92EF92FF920F931F93CF93DF9331
:1013B000CDB7DEB72B970FB6F894DEBF0FBECDBF0B
:1013C0004C017B876A871A010E831F832887398720
:1013D000FC01848195810197268520FF0CC02A019C
:1013E000F2E04F0E511C8415950558F41E821F82A1
:1013F0001886198606C08417950710F02A0101C0C7
:101400002C018E819F81A885B985892B8A2B8B2BF6
:1014100009F436C0CE010196E7D70FB6F8940F92C3
:10142000C401A2DF3C018415950538F560E080E039
:1014300090E00E94B3160E948512F4019387828780
:101440000F900FBEAE80BF80C884D984E12CF12CF0
:1014500000E010E0980140E050E0BA0180E00E9416
:10146000F313F40113861286BE016A5F7F4FCE012B
:101470000196E1D7882389F205C00F900FBE02C004
:10148000612C712C6114710419F4C4016DDF3C01ED
:1014900082019301A1016A857B85C4013EDE6C0156
:1014A000892BE9F0C401CDDDF40126813781821753
:1014B0009307A8F090D3F40180859185892B71F072
:1014C00080859185E12CF12C00E020E030E0A9013D
:1014D00060E00E949A14F40111861086BCD4C60103
:1014E0002B960FB6F894DEBF0FBECDBFDF91CF9124
:1014F0001F910F91FF90EF90DF90CF90BF90AF9032
:101500009F908F907F906F905F904F903F902F9023
:101510000895AF92BF92CF92DF92EF92FF920F9316
:101520001F93CF93DF93EC017B015A0169018E85F4
:1015300080FF04C08A010E5F1F4F01C08A01CE01E7
:1015400013DF9C01A501B701CE01E7DD5C01892B0A
:10155000C1F0CE0176DD2E813F818217930788F09E
:1015600088859985892B69F088859985E12CF12CEE
:1015700000E020E030E0A90160E00E9491151986AA
:101580001886C501DF91CF911F910F91FF90EF90C9
:10159000DF90CF90BF90AF9008954F925F926F927F
:1015A0007F928F929F92AF92BF92CF92DF92EF92F3
:1015B000FF920F931F93CF93DF93EC012B013A011E
:1015C000580169018E8580FF05C06894882481F8E0
:1015D000912C02C0812C912CA114B104C104D1041E
:1015E00039F10FB6F8940F92CE012BDD7C018816ED
:1015F000990640F060E080E090E00E94B31685D745
:10160000998788870F900FBE8E149F04A0F0E12C5D
:10161000F12C00E010E0980140E050E0BA0180E0D9
:101620000E94F31319861886CE010BDD7C0103C0DE
:10163000CE0107DD7C018E149F04E8F4840197013C
:10164000A301B201CE01FBDD6C01892BB1F0C3D245
:101650008A859B85892B69F08A859B85E12CF12CF5
:1016600000E020E030E0A90160E00E949A141B86AF
:101670001A86F1D302C0C12CD12CC601DF91CF91C3
:101680001F910F91FF90EF90DF90CF90BF90AF90A0
:101690009F908F907F906F905F904F900895E09112
:1016A0005B17F0915C17808181110CC08FEF9FEF69
:1016B000DC018093251790932617A0932717B093EA
:1016C00028170895E0915B17F0915C170780F0856B
:1016D000E02D80819181A281B38180932517909321
:1016E0002617A0932717B09328170895CF93DF9359
:1016F000EC018B8D9C8D0E94D002CE010E94D00205
:10170000DF91CF9108954F925F926F927F928F9267
:101710009F92AF92BF92CF92DF92EF92FF920F9380
:10172000CF93DF932C015B014A013901E60165EAA1
:1017300070E08B8D9C8D0E94452F8B8D9C8D21E0C0
:10174000821A9108880E991EA114B10489F415C05B
:10175000822F90E0F501E80FF91F3081DE01A80F1C
:10176000B91F5D963C938081882329F02F5F01C0CB
:1017700020E0203168F31CA601C01D8E0A3008F05D
:1017800009E00A8F0DA71EA6CE0102960E94230330
:10179000CE010E960E942303DB87CA878AE090E081
:1017A000A0E0B0E0801B9109A109B1098E879F8755
:1017B000A88BB98BDF8BCE8B84E0FE01BF96DF0157
:1017C0001D928A95E9F71BAAA301B201C4010E94E8
:1017D000970399838883E114F10419F0F701D18309
:1017E000C083DF91CF910F91FF90EF90DF90CF906A
:1017F000BF90AF909F908F907F906F905F904F9031
:101800000895CF93C0E009C02BE0C29FC00111240E
:101810008D58984E0E941203CF5FCA30A8F388E615
:1018200097E10E9412038DE597E10E9412038EE476
:1018300097E10E94120383E497E10E94120387E379
:1018400097E10E94120388E697E190935C178093DA
:101850005B178DE597E190935A1780935917CF91B5
:101860000895CF93DF93EC010FB6F8940F92809117
:1018700036178F5F809336178091E1179091E217AA
:10188000892B51F4D093E217C093E117809136175A
:10189000813091F4B6DF10C08091301781110CC0F7
:1018A000E091E117F091E217928D8A8D891720F06F
:1018B000D093E217C093E117809129178F5F80932F
:1018C0002917EA8D809131178E1710F4E0933117A4
:1018D0008BE08E9FF0011124ED58F84E0180F281CB
:1018E000E02DFF83EE832681378139872887A68103
:1018F000B7819E012E5F3F4F15963C932E93149710
:1019000037832683EA8D8E9FF0011124ED58F84E1F
:10191000FD87EC8780818F5F80830F900FBE809161
:101920003017882351F0E091E117F091E217928D82
:101930008A8D981710F40E94E003DF91CF910895EB
:10194000CF93DF931BC00FB6F8940F92E0914A1724
:10195000F0914B17C085D185CE0102960E94640399
:1019600080913617815080933617809142178150AD
:10197000809342170F900FBECE01B8DE80914217C0
:101980008111E1CFDF91CF9108958F929F92AF9215
:10199000BF92CF92DF92EF92FF92CF93DF936B01D2
:1019A0007C01C42F8090321790903317A090341789
:1019B000B09035178091E1179091E21702960E943E
:1019C00064038FEFC816D806E806F806B1F5CC23F5
:1019D000A1F1E7E3F7E1A181B281C091E117D091D4
:1019E000E217BF83AE83C091E117D091E21716963C
:1019F0008D919C911797998788871696CD91DC9148
:101A000017978091E1179091E21702969D838C833E
:101A10008091E1179091E217029617969C938E930E
:101A20001697A091E117B091E2171D96FC93EE93E3
:101A30001C9780818F5F80833FC0C80CD91CEA1C33
:101A4000FB1CE091E117F091E217C282D382E4829D
:101A5000F582C814D904EA04FB0468F46091E11724
:101A60007091E2178091591790915A176E5F7F4FCE
:101A70000E94270321C06091E1177091E2178091C5
:101A80005B1790915C176E5F7F4F0E9427038091D8
:101A9000251790912617A0912717B0912817C816DF
:101AA000D906EA06FB0640F4C0922517D092261705
:101AB000E0922717F0922817DF91CF91FF90EF90D7
:101AC000DF90CF90BF90AF909F908F9008952F920E
:101AD0003F924F925F926F927F928F929F92AF92BE
:101AE000BF92CF92DF92EF92FF920F93CF93DF934B
:101AF0003C011B014A012901CA010E9427026C0115
:101B0000892B71F084E390E00E942702EC01892B7D
:101B100019F0DC8ECB8E06C0C6010E94D00202C036
:101B2000C0E0D0E0209761F0A12CB12C6E019201B1
:101B3000A401B101C301E7DDCE0193DE81E001C064
:101B40008FEFDF91CF910F91FF90EF90DF90CF90CB
:101B5000BF90AF909F908F907F906F905F904F90CD
:101B60003F902F900895EF92FF920F930F2EF3E284
:101B7000EF2EF7E1FF2EF02D00E020E030E040EC0A
:101B800050E06AE972E08DEC90E0A1DF813011F461
:101B90000E9457178130C9F4F8948FEF9FEFDC0152
:101BA0008093251790932617A0932717B093281793
:101BB00081E08093301710923217109233171092F1
:101BC0003417109235170E94AE03809106020F91D0
:101BD000FF90EF900895809122178F5F80932217D6
:101BE00008950FB6F8940F926091321770913317E1
:101BF00080913417909135170F900FBE0895CF92B2
:101C0000DF92EF92FF92CF93DF93809122178111A1
:101C100005C1C0903217D0903317E0903417F09080
:101C200035178FEFC81AD80AE80AF80AC092321797
:101C3000D0923317E0923417F0923517C114D104C3
:101C4000E104F104B1F480915B1790915C1720914D
:101C5000591730915A1730935C1720935B17909364
:101C60005A178093591780912A178F5F80932A17EC
:101C700016DD8091251790912617A0912717B09116
:101C80002817C816D906EA06FB0620F480E0B2C081
:101C900081E001C080E0E0915B17F0915C179081DA
:101CA00091110CC04FEF5FEFBA014093251750938D
:101CB000261760932717709328179CC0E0915B1735
:101CC000F0915C170780F085E02D0084F185E02D10
:101CD0004281538164817581C416D506E606F706F4
:101CE00048F4409325175093261760932717709355
:101CF000281780C0A485B585C681D7812085318508
:101D00003F832E83C085D185268137813D832C83F7
:101D100011964D915C9112979F012E5F3F4F421794
:101D2000530731F44085518512965C934E93119779
:101D3000158614869C9191509C93A08DB18D10971F
:101D400009F1C289D389448955895F834E83C48947
:101D5000D589428953895D834C8311966D917C911D
:101D60001297AF01425F5F4F6417750731F44489E2
:101D7000558912965C934E931197118E108E9C91FB
:101D800091509C93A28D909131179A1710F4A093C3
:101D900031179BE09A9FD0011124AD58B84E11968F
:101DA0000D90BC91A02DB783A68316964D915C91A2
:101DB0001797518740871696CD91DC9117973D83F1
:101DC0002C8317963C932E931697A28D9A9FD00141
:101DD0001124AD58B84EB587A4879C919F5F9C9302
:101DE000228DE091E117F091E217928D291708F00A
:101DF0004FCF51CFE091E117F091E217E28D9BE0D8
:101E0000E99FF0011124ED58F84E9081923008F0CE
:101E100081E090912B17911116C016C080912C175C
:101E200090912D17A0912E17B0912F170196A11DFB
:101E3000B11D80932C1790932D17A0932E17B0935C
:101E40002F1780E001C081E0DF91CF91FF90EF90EC
:101E5000DF90CF900895CF92DF92EF92FF92CF93D1
:101E6000DF930FB6F8940F928091221781508093E0
:101E70002217809122178111BEC0809136178111DF
:101E800088C0BCC0E0915517F09156170084F185C9
:101E9000E02DA08DB18DC289D389848995899F83D6
:101EA0008E83C489D589828993899D838C83119679
:101EB0002D913C911297CF010E962817390731F4D6
:101EC0008489958912969C938E931197118E108E0A
:101ED0008C9181508C93A485B585C681D7818085EE
:101EE00091859F838E83C085D185868197819D83CF
:101EF0008C8311968D919C9112979F012E5F3F4F7D
:101F00008217930731F48085918512969C938E9366
:101F10001197158614868C9181508C93A28D809197
:101F200031178A1710F4A09331178BE08A9FD001E4
:101F30001124AD58B84E11960D90BC91A02DB783C9
:101F4000A68316964D915C911797518740871696F8
:101F5000CD91DC9117973D832C8317963C932E935C
:101F60001697A28D8A9FD0011124AD58B84EB5871F
:101F7000A4878C918F5F8C93928DA091E117B09183
:101F8000E2175A968C91981730F081E080932B17C6
:101F900002C0E0E0F0E080914E17811173CFEF2B8B
:101FA00009F07DDBC0902C17D0902D17E0902E17F4
:101FB000F0902F17C114D104E104F104A1F01FDE49
:101FC000882319F081E080932B1781E0C81AD1088B
:101FD000E108F108A1F710922C1710922D1710921A
:101FE0002E1710922F1780912B17882331F00E9403
:101FF000E00381E003C080E001C080E00F900FBEED
:10200000DF91CF91FF90EF90DF90CF9008958F9266
:102010009F92AF92BF92CF92DF92EF92FF921F9367
:10202000CF93DF93EC016A017B01D5DD80903217FD
:1020300090903317A0903417B0903517888199810C
:10204000AA81BB81AC01BD014C0D5D1D6E1D7F1DC4
:1020500088169906AA06BB0660F4481759076A074E
:102060007B0798F484169506A606B70680F010E064
:1020700013C0481759076A077B0758F0841695065E
:10208000A606B70640F010E007C010E005C011E05A
:1020900003C011E001C011E0488359836A837B8348
:1020A000112341F0CB01BA01681979098A099B090A
:1020B00040E06BDCD0DE811102C00E94E003812F82
:1020C000DF91CF911F91FF90EF90DF90CF90BF9065
:1020D000AF909F908F900895CF92DF92EF92FF92F2
:1020E0006B017C01672B682B692B39F074DD40E0B4
:1020F000C701B6014ADCAFDE01C080E0811102C039
:102100000E94E003FF90EF90DF90CF9008958091C0
:102110002217882321F081E080932B1708951092D5
:102120002B17E091E117F091E21720813181E091C6
:10213000E117F091E217838D948D8217930760F079
:102140006091E1177091E217635E7F4F8091E11714
:102150009091E2170E94E5198091311701C08150DA
:10216000282F30E09BE0929FF001939FF00D112407
:10217000ED58F84E9081992391F39BE0929FA00136
:10218000939F500D1124DF010180F281E02D048026
:10219000F581E02D1296FC93EE9311974A58584E14
:1021A000E417F50729F444815581FD0152834183E9
:1021B0009BE0929FF001939FF00D1124ED58F84E93
:1021C0000180F281E02D208531853093E217209344
:1021D000E117809331170895CF92DF92EF92FF922B
:1021E0006A017B016091E1177091E217625F7F4F96
:1021F0000E94270341E0C701B601C7DBFF90EF90C3
:10220000DF90CF900895CF93DF93FC01CB01BA010B
:10221000A181B281C091E117D091E217BB8BAA8B4B
:10222000C091E117D091E21716964D915C911797E6
:102230005D8B4C8B1696CD91DC9117974091E117F1
:102240005091E217425F5F4F5D834C834091E117ED
:102250005091E217425F5F4F17965C934E9316972B
:10226000A091E117B091E2175996FC93EE9358971D
:1022700030813F5F3083222319F06FEF7FEFCB0176
:10228000422F83DBDF91CF910895CF93DF93DC0161
:102290001796ED91FC9118970084F185E02DA08DA3
:1022A000B18DC289D389848995899F838E83C4899E
:1022B000D589828993899D838C8311968D919C9178
:1022C00012979F01225F3F4F8217930731F4848951
:1022D000958912969C938E931197118E108E8C91E6
:1022E00081508C9380912217811152C0A485B585AD
:1022F000C681D781808591859F838E83C085D18556
:10230000868197819D838C8311968D919C911297E4
:102310009F012E5F3F4F8217930731F4808591858F
:1023200012969C938E931197158614868C918150EA
:102330008C93A28D809131178A1710F4A0933117D6
:102340008BE08A9FD0011124AD58B84E11960D90A4
:10235000BC91A02DB783A68316964D915C911797DB
:10236000518740871696CD91DC9117973D832C833A
:1023700017963C932E931697A28D8A9FD001112415
:10238000AD58B84EB587A4878C918F5F8C931CC0D5
:102390004EE457E1DA011196CD91DC911297D38B7F
:1023A000C28B8E819F81958B848B8E819F81DC0176
:1023B00015963C932E9314973F832E83518F408F15
:1023C000DA018C918F5F8C93928DE091E117F091FF
:1023D000E217828D891720F481E080932B1701C0CA
:1023E00080E0DF91CF9108950FB6F8940F9220917D
:1023F0002A17FC01208340913217509133176091C6
:1024000034177091351741835283638374830F901F
:102410000FBE089520912A17FC01208340913217A6
:10242000509133176091341770913517418352835F
:102430006383748308958F929F92AF92BF92CF92DD
:10244000DF92EF92FF920F931F93CF93DF93FB01E5
:102450000FB6F8940F92C0903217D0903317E090D7
:102460003417F0903517DC0111960D911D912D91C7
:102470003C91149746015701801A910AA20AB30AA7
:1024800040815181628173814F3FBFEF5B076B07D2
:102490007B0739F1EC01B881A0912A17BA1759F0DE
:1024A000C016D106E206F30630F0108211821282C5
:1024B000138281E017C084169506A606B70658F465
:1024C000481959096A097B094083518362837383E0
:1024D000A1DF80E007C0108211821282138281E0A6
:1024E00001C080E00F900FBEDF91CF911F910F913F
:1024F000FF90EF90DF90CF90BF90AF909F908F9024
:10250000089581E080932B1708958091E1179091B1
:10251000E217089580913017882331F080912217B7
:10252000811104C082E0089581E0089580E008955B
:102530000F931F93CF93DF93FC01892B09F477C08E
:10254000828DA091E117B091E2175A969C9189175C
:1025500008F063C04685578560897189772394F0B8
:10256000A091E117B091E2175A969C914AE050E091
:1025700060E070E0491B510961097109468757877E
:10258000608B718B248535854BE0849FC0011124BD
:102590008D58984E28173907B9F5EF018F010E5F56
:1025A0001F4FC8010E946403E091E117F091E21708
:1025B000E28DEA8F809131178E1710F4E093311776
:1025C0008BE08E9FF0011124ED58F84E0180F281CE
:1025D000E02DFF83EE832681378139872887A68106
:1025E000B78115961C930E93149717830683EA8D73
:1025F0008E9FF0011124ED58F84EFD87EC87808105
:102600008F5F808381E016C0A091E117B091E2173F
:102610005A968C91828F81E00DC095A5E091E117CB
:10262000F091E217828D981720F080E003C080E0DF
:1026300001C081E0DF91CF911F910F9108950F9319
:102640001F93CF93DF93FC01892B09F449C086A522
:10265000815086A7228D95A5291709F443C08111C1
:1026600043C0EF018F010E5F1F4FC8010E9464033A
:10267000EDA5EA8F8AE090E0A0E0B0E08E1B910922
:10268000A109B1098E879F87A88BB98B80913117DB
:102690008E1710F4E09331178BE08E9FF001112418
:1026A000ED58F84E0180F281E02DFF83EE83268104
:1026B000378139872887A681B78115961C930E9399
:1026C000149717830683EA8D8E9FF0011124ED582D
:1026D000F84EFD87EC8780818F5F808381E005C0A5
:1026E00080E003C080E001C080E0DF91CF911F91C6
:1026F0000F9108950F931F93CF93DF93FC01892BC4
:1027000009F45AC085A5861708F4862F928D89177B
:1027100009F452C026A5213009F04EC0828F4685AB
:10272000578560897189772364F04AE050E060E062
:1027300070E0481B51096109710946875787608B12
:10274000718B248535854BE0949FC00111248D58F1
:10275000984E2817390781F5EF018F010E5F1F4F43
:10276000C8010E946403EA8D809131178E1710F41E
:10277000E09331178BE08E9FF0011124ED58F84E55
:102780000180F281E02DFF83EE8326813781398736
:102790002887A681B78115961C930E9314971783EB
:1027A0000683EA8D8E9FF0011124ED58F84EFD87C7
:1027B000EC8780818F5F8083DF91CF911F910F9194
:1027C00008958091E1179091E217892B39F0E091FB
:1027D000E117F091E21786A58F5F86A78091E11738
:1027E0009091E21708954F925F926F927F92AF920D
:1027F000BF92CF92DF92EF92FF920F931F93CF93EE
:10280000DF93280139010FB6F8940F92E091E11798
:10281000F091E217C82FD0E0EC0FFD1F83A98230A2
:1028200071F1E091E117F091E217CE01880F991F45
:10283000880F991FE80FF91F87A590A9A1A9B2A930
:102840004095509560957095482359236A237B23C2
:1028500047A750AB61AB72ABE091E117F091E21783
:10286000EC0FFD1F81E083ABA114B104C104D104BE
:1028700031F041E0C601B50188D80E94E0030F9015
:102880000FBE0FB6F8940F92E114F104A1F0E0919D
:10289000E117F091E217CE01880F991F880F991F59
:1028A000E80FF91F87A590A9A1A9B2A9F701808314
:1028B0009183A283B383E091E117F091E217EC0FCB
:1028C000FD1F83A98230E9F4E091E117F091E2174E
:1028D000CE01880F991F880F991FE80FF91F87A550
:1028E00090A9A1A9B2A940945094609470944822F0
:1028F00059226A227B2247A650AA61AA72AA81E0C5
:1029000001C080E02091E1173091E217C20FD31F80
:102910001BAA0F900FBEDF91CF911F910F91FF90D7
:10292000EF90DF90CF90BF90AF907F906F905F90CF
:102930004F9008958F929F92AF92BF92EF92FF9225
:102940000F93CF93DF93DC010FB6F8940F92E1144D
:10295000F10489F0E62FF0E0EE0FFF1FEE0FFF1FEE
:10296000E80FF91F87A490A8A1A8B2A8F701808258
:102970009182A282B38270E0FD01E60FF71F83A966
:1029800092E093AB023001F118F4013031F04DC008
:10299000033079F10430D1F148C0660F771F660F1C
:1029A000771FFD01E60FF71F87A490A8A1A8B2A882
:1029B000BA01A901482959296A297B2947A750AB9F
:1029C00061AB72AB01E034C0660F771F660F771FF3
:1029D000FD01E60FF71F47A550A961A972A94F5F36
:1029E0005F4F6F4F7F4F47A750AB61AB72AB01E0BA
:1029F0001FC0660F771F660F771FFD01E60FF71FD9
:102A000027A730AB41AB52AB01E012C0823079F066
:102A1000660F771F660F771FFD01E60FF71F27A7C9
:102A200030AB41AB52AB01E003C001E001C000E0BC
:102A3000813009F069C01C96ED91FC911D971696A6
:102A4000CD91DC91179718968D919C9119979F8342
:102A50008E831896CD91DC91199716968D919C9145
:102A600017979D838C83818192819D012E5F3F4FBB
:102A70008217930731F418968D919C911997928340
:102A800081831D961C921E921C97808181508083A9
:102A90005A96EC915A97809131178E1710F4E09363
:102AA00031178BE08E9FF0011124ED58F84E018014
:102AB000F281E02D1796FC93EE931697468157818D
:102AC00019965C934E931897C681D7813D832C83CA
:102AD000378326835A96EC915A978E9FF0011124E2
:102AE000ED58F84E1D96FC93EE931C9780818F5FF6
:102AF00080835A969C91E091E117F091E217828DC4
:102B0000891710F40E94E0030F900FBE802FDF9111
:102B1000CF910F91FF90EF90BF90AF909F908F90CB
:102B200008958F929F92AF92BF92CF92DF92EF92D1
:102B3000FF920F93CF93DF93DC01E114F10489F04E
:102B4000E62FF0E0EE0FFF1FEE0FFF1FE80FF91F5B
:102B500087A490A8A1A8B2A8F70180829182A2823E
:102B6000B38270E0FD01E60FF71F93A982E083AB0B
:102B7000023001F118F4013031F04DC0033079F129
:102B80000430D1F148C0660F771F660F771FFD0133
:102B9000E60FF71F87A490A8A1A8B2A8BA01A901BF
:102BA000482959296A297B2947A750AB61AB72ABE9
:102BB00081E034C0660F771F660F771FFD01E60FB7
:102BC000F71F47A550A961A972A94F5F5F4F6F4FCB
:102BD0007F4F47A750AB61AB72AB81E01FC0660F60
:102BE000771F660F771FFD01E60FF71F27A730AB92
:102BF00041AB52AB81E012C0923079F0660F771F83
:102C0000660F771FFD01E60FF71F27A730AB41AB1B
:102C100052AB81E003C081E001C080E0913009F057
:102C200096C09091221791115FC01C96ED91FC9176
:102C30001D971696CD91DC91179718962D913C9182
:102C400019973F832E831896CD91DC91199716968C
:102C50002D913C9117973D832C83418152819D0199
:102C60002E5F3F4F4217530731F418964D915C91F8
:102C70001997528341831D961C921E921C97908136
:102C8000915090835A96EC915A97909131179E17D4
:102C900010F4E09331179BE09E9FF0011124ED5852
:102CA000F84E0180F281E02D1796FC93EE93169773
:102CB0004681578119965C934E931897C681D781A8
:102CC0003D832C83378326835A96EC915A979E9F97
:102CD000F0011124ED58F84E1D96FC93EE931C97CD
:102CE00090819F5F908321C06EE477E1FB01C181F9
:102CF000D2815396DC93CE9352972E813F81559685
:102D00003C932E9354974E815F819D01225F3F4FEC
:102D1000FA01358324833F832E8359967C936E93E7
:102D20005897FB0190819F5F90835A962C91E09178
:102D3000E117F091E217928D921748F4C114D10473
:102D400019F091E0F601908391E090932B17DF91B9
:102D5000CF910F91FF90EF90DF90CF90BF90AF9009
:102D60009F908F900895009721F48091E1179091A2
:102D7000E2170FB6F8940F9270E0FC01E60FF71F10
:102D800023A9223031F4FC01E60FF71F13AA81E0DA
:102D900001C080E00F900FBE0895DC01E091ED17B7
:102DA000F091EE17808191E0811190E09C93911158
:102DB00008C00780F085E02D608171818281938158
:102DC000089560E070E0CB010895CF92DF92EF921A
:102DD000FF920F931F93FC01428353836483758397
:102DE000938782870417150726073707C0F00C1949
:102DF0001D092E093F0986859785A089B189081785
:102E000019072A073B0700F5BF016E5F7F4F8091CE
:102E1000EB179091EC170E94270380E018C00C1567
:102E20001D052E053F0528F44C155D056E057F0533
:102E300068F4BF016E5F7F4F8091ED179091EE17A0
:102E40000E94270380E003C081E001C081E01F9160
:102E50000F91FF90EF90DF90CF9008950FB6F89408
:102E60000F928091E9179091EA17892BE9F48AEF84
:102E700097E10E9412038FEE97E10E9412038AEFFE
:102E800097E19093EE178093ED178FEE97E1909373
:102E9000EC178093EB1740E067E08AE00E94D505CD
:102EA0009093EA178093E9170F900FBE0895EF9261
:102EB000FF920F93D3DF8091E9179091EA17892B46
:102EC00091F00F2EF7EEEF2EF7E1FF2EF02D03E03D
:102ED00020E030E040EC50E06FE972E087ED90E0F8
:102EE0000E94670D01C080E00F91FF90EF90089560
:102EF0008F929F92AF92BF92CF92DF92EF92FF920A
:102F00000F931F93CF93DF93CDB7DEB727970FB6FD
:102F1000F894DEBF0FBECDBFE091E917F091EA173C
:102F2000309781F169832A833B834C835D839F8340
:102F30008E836630F4F4EEDA823069F400E0A701A3
:102F40009601BE016F5F7F4F8091E9179091EA175C
:102F50000E94F80518C000E020E030E0A901BE01A1
:102F60006F5F7F4F8091E9179091EA170E94F805F3
:102F70000AC020E0A801BE016F5F7F4FCF010E9411
:102F80008A0601C080E027960FB6F894DEBF0FBE18
:102F9000CDBFDF91CF911F910F91FF90EF90DF9008
:102FA000CF90BF90AF909F908F9008958F929F92F7
:102FB000AF92BF92CF92DF92EF92FF920F931F9347
:102FC000CF93DF933BC00780F085E02D8080918018
:102FD000A280B380C085D1858E010E5F1F4FC801CE
:102FE0000E946403EC89FD89CE0119958E8982FFC8
:102FF00025C08E859F85A889B989880D991DAA1D30
:10300000BB1D88169906AA06BB0670F48A839B83AB
:10301000AC83BD83DB87CA87B8018091ED1790919F
:10302000EE170E9427030AC0C12CD12C760100E0C4
:1030300010E0A501940160E0CE015ADFE091ED17A8
:10304000F091EE1780818111BECF8091EB179091A6
:10305000EC179093EE178093ED17F093EC17E09335
:10306000EB17DF91CF911F910F91FF90EF90DF90C1
:10307000CF90BF90AF909F908F900895CF92DF92A6
:10308000EF92FF92CF93DF93EC010E94F10D6B0161
:103090007C018091E3179091E417A091E517B0911E
:1030A000E617C816D906EA06FB0620F47FDF81E0A2
:1030B000888301C01882C092E317D092E417E0928F
:1030C000E517F092E617C701B601DF91CF91FF90A7
:1030D000EF90DF90CF9008954F925F926F927F9222
:1030E0008F929F92AF92BF92CF92DF92EF92FF9218
:1030F0000F931F93CF93DF934B015C0129013A019A
:10310000E091ED17F091EE170780F085E02DC08576
:10311000D185CE0102960E9464038E8982FF1BC076
:103120004E855F8568897989480D591D6A1D7B1D0B
:103130007501640193018201CE0147DE882369F0A5
:10314000C12CD12C760100E010E0A501940160E0D3
:10315000CE01CEDE02C08E7F8E8BEC89FD89CE0142
:103160001995DF91CF911F910F91FF90EF90DF9014
:10317000CF90BF90AF909F908F907F906F905F9017
:103180004F9008958F929F92AF92BF92CF92DF920D
:10319000EF92FF921F93CF93DF931F92CDB7DEB7CD
:1031A0006B017C01142F0E94EB0DCE01019666DFAE
:1031B0004B015C01898181112DC011110DC08C144E
:1031C0009D04AE04BF0440F00E942B0FA5019401A2
:1031D000C701B60181DF20C0112341F0E091EB1758
:1031E000F091EC17808111E0811110E0B701A60188
:1031F000481959096A097B09212F8091E917909193
:10320000EA170E9405080E942B0F811105C00E9439
:10321000E00302C00E942B0F0F90DF91CF911F910E
:10322000FF90EF90DF90CF90BF90AF909F908F90E6
:103230000895AF92BF92CF92DF92EF92FF920F93D9
:103240001F93CF93DF93CDB7DEB728970FB6F894CF
:10325000DEBF0FBECDBF82C0898188230CF47EC043
:10326000AE80BF80D5011C968D919C911D97892BB6
:1032700021F0C50102960E946403CE010896FEDE8D
:103280008B019C01E9810E2E000CFF0BEA30F10549
:1032900008F064C08827EE58FF4F8F4F0C94F52D2F
:1032A000F50186898160868BCA80DB80EC80FD8099
:1032B00046855785608971894C0D5D1D6E1D7F1D8A
:1032C000C50183DD882309F449C0D5015496ED91E9
:1032D000FC915597C5011995F501868982FF3EC07D
:1032E0004A815B816C817D8186859785A089B189C2
:1032F0009A01AB01280F391F4A1F5B1FC12CD12C2B
:10330000760100E010E060E0C501F2DD27C0D501E4
:1033100056968C9156978E7F56968C931FC0F501CA
:1033200086898160868B4A815B816C817D8146873D
:103330005787608B718B400F511F621F731F68018D
:103340007901C50142DD0AC0F501868981FD04C00D
:10335000C5010E94D00202C08E7F868B20E030E043
:10336000A901BE016F5F7F4F8091E9179091EA1725
:103370000E94C506811170CF28960FB6F894DEBF63
:103380000FBECDBFDF91CF911F910F91FF90EF90B6
:10339000DF90CF90BF90AF900895089584B180687A
:1033A00084B985B1806885B9089583B1806883B98F
:1033B0000895F4DF2FEF80E792E0215080409040A5
:1033C000E1F700C00000F1DFF5CFE8DF2FEF87EA7B
:1033D00091E6215080409040E1F700C00000E5DF19
:1033E000F5CF0F93CF93DF931F921F92CDB7DEB728
:1033F0009A8389838A818F9389818F9387EA92E068
:103400009F938F9387E899E19F938F930E94DE2F7C
:1034100087E899E160D300E02FEF3FEFA901BE01FB
:103420006F5F7F4F8091EB199091EC190E94F80526
:103430000F900F900F900F900F900F900F900F9094
:10344000DF91CF910F91089540E062E08AE00E9401
:10345000D5059093EC198093EB1908950E945D2493
:10346000811105C081EF99E10C945824089586ECF0
:1034700092E00E94AE2F80E090E0B3CF0895CF930A
:10348000DF931F921F92CDB7DEB72CED35E040E001
:1034900050E0BE016F5F7F4F8091EB199091EC1966
:1034A0000E94C5068A818F9389818F9383ED92E074
:1034B0009F938F9387E899E19F938F930E94DE2FCC
:1034C00087E899E108D30F900F900F900F900F901D
:1034D0000F9089819A810F900F90DF91CF9108957D
:1034E00040E062E08AE00E94D5059093F019809355
:1034F000EF1940E062E08AE00E94D5059093EE1952
:103500008093ED1908950F93CF93DF931F921F922D
:10351000CDB7DEB79A8389838A818F9389818F9310
:1035200085EF92E09F938F9387E899E19F938F9324
:103530000E94DE2F87E899E1CED200E02FEF3FEF27
:10354000A901BE016F5F7F4F8091EF199091F01933
:103550000E94F8050F900F900F900F900F900F9012
:103560000F900F90DF91CF910F9108950F93CF930C
:10357000DF931F921F92CDB7DEB79A8389838A812A
:103580008F9389818F938CE193E09F938F9387E84A
:1035900099E19F938F930E94DE2F87E899E19BD258
:1035A00000E02FEF3FEFA901BE016F5F7F4F8091D9
:1035B000ED199091EE190E94F8050F900F900F9061
:1035C0000F900F900F900F900F90DF91CF910F9170
:1035D0000895EF92FF920F931F93CF93DF9300D044
:1035E0001F92CDB7DEB70E94F10D69837A838B837A
:1035F0009C831DD4882321F080E493E00E94AE2FA9
:1036000043E050E060E070E0CE0101960E940710B8
:1036100023D4882351F080E593E00E94AE2F80E010
:1036200090E0A4DF80E090E06EDF40E050E0BA017F
:10363000CE0101960E94071020D45FD38B0132D4B3
:1036400057D37B010036110588F085E6E816F104B2
:103650006CF040E050E0BA01CE0101960E940710E4
:103660000CD44BD38B011ED443D37B01C8017EDF26
:10367000C70149DF0F900F900F900F90DF91CF910E
:103680001F910F91FF90EF900895CF93DF931F92BA
:103690001F92CDB7DEB72CED35E040E050E0BE0123
:1036A0006F5F7F4F8091EF199091F0190E94C506CE
:1036B0008A818F9389818F938AE793E09F938F9379
:1036C00087E899E19F938F930E94DE2F87E899E125
:1036D00002D20F900F900F900F900F900F90898152
:1036E0009A810F900F90DF91CF910895CF93DF9340
:1036F0001F921F92CDB7DEB72CED35E040E050E0D1
:10370000BE016F5F7F4F8091ED199091EE190E947D
:10371000C5068A818F9389818F9384EA93E09F9372
:103720008F9387E899E19F938F930E94DE2F87E81C
:1037300099E1D1D10F900F900F900F900F900F90B3
:1037400089819A810F900F90DF91CF9108950F9307
:103750001F93CF93DF93CDB7DEB764970FB6F8947E
:10376000DEBF0FBECDBF81E00E94CD2923D59FD7FC
:103770009F938F938BEC93E09F938F930E949B2F4B
:1037800097D695D79F938F938EED93E09F938F93CA
:103790000E949B2F8E010F5F1F4FC8011DD587D739
:1037A0001F930F939F938F9387EF93E09F938F9334
:1037B0000E949B2FC8012CD57AD79F938F931F937C
:1037C0000F938BE094E09F938F930E949B2FA8010F
:1037D00060E274E081E494E049D769D79F938F93C6
:1037E0001F930F9380E294E09F938F9381E494E082
:1037F0009F938F9382E594E09F938F930E949B2FDA
:103800003AD555D79F938F9388E894E09F938F93F1
:103810000E949B2F0FB6F894DEBF0FBECDBF81E094
:1038200024D645D79F938F9387E994E09F938F93F6
:103830000E949B2F84EF91E023D639D79F938F93DB
:1038400081E08F9384EF8F9388EB94E09F938F9325
:103850000E949B2F0FB6F894DEBF0FBECDBF1AE0BB
:1038600080E00FD5082F23D79F938F931F921F932C
:1038700088ED94E09F938F930E949B2F0F900F9061
:103880000F900F900F900F90083059F080E00E9439
:10389000312A66E371E080E090E00E946C101150E4
:1038A000F9F6083041F488EF94E00E94AE2F81E0F1
:1038B0000E94132A09C081E00E94222A80E00E940F
:1038C000F0290E94E003FDCF64960FB6F894DEBFA6
:1038D0000FBECDBFDF91CF911F910F910895CF9370
:1038E000DF9300D01F92CDB7DEB781E055D462E000
:1038F00070E080E090E00E946C1080E04DD466E9BA
:1039000070E080E090E00E946C10FFD320DFE5E0E3
:10391000F8E188E0818382E080830E94F10D698371
:103920007A838B839C8381E195E00E94AE2F48EAE5
:1039300058E460E070E0CE0101960E9407100E94FA
:10394000A6018C01DC0113968C9113978F9312962C
:103950008C9112978F9311968C9111978F938C91D4
:103960008F9315968C9115978F9314968C918F93B6
:1039700084E295E09F938F930F2EF7E8EF2EF9E105
:10398000FF2EF02DFF92EF920E94DE2FC701A3D0F1
:10399000E5E0F8E1128281E08383D80111968C91F1
:1039A000119784838C91858315968C9115978683C6
:1039B00014968C911497878313968C911397808714
:1039C00012968C91818783E00E94432A65E078E11A
:1039D00080E080D46CD69F938F938FE495E09F9383
:1039E0008F93FF92EF920E94DE2FC70174D00FB623
:1039F000F894DEBF0FBECDBF96CFCF93DF93CDB788
:103A0000DEB766970FB6F894DEBF0FBECDBF81E07C
:103A1000C3D362E070E080E090E00E946C1080E030
:103A2000BBD366E970E080E090E00E946C106DD33B
:103A300082E0898384E08A8384E695E00E94AE2F49
:103A40000FEF1FEF980146E150E0BE016F5F7F4F1F
:103A50008091F1199091F2190E94CD0A9A81898181
:103A60001F929F931F928F9384E795E09F938F936C
:103A70000E949B2F8A810F900F900F900F900F90B4
:103A80000F908430C9F68D8190E0982F88272E8181
:103A9000820F911D60D0D0CFEF92FF920F93E12C57
:103AA000F12C02E020E030E048E851E065EA75E002
:103AB0008FE69CE10E94670D03E020E030E048E8DB
:103AC00051E06CEA75E08DEF9CE10E94670D0F916B
:103AD000FF90EF9008950F93CF93DF93C82FD92FC6
:103AE00044E650E060E070E080918519909186197D
:103AF0000E945407813099F4DF93CF930E949B2F4B
:103B000000E020E030E0A90160E070E080918519DC
:103B1000909186190E94F8050F900F9004C087EBD2
:103B200095E00E94AE2FDF91CF910F9108950F93F2
:103B300043E060E081E00E94D50590938619809370
:103B4000851900E020E030E0A90160E070E00E940B
:103B5000F8050F91089583309105D9F034F4813040
:103B6000910549F0029771F02FC084309105C1F0A2
:103B7000059701F129C087ED95E0ADDF64E681E0AE
:103B8000CBC6089587EE95E0A6DF6CE981E0C4C658
:103B9000089585EF95E09FDF6EEC81E0BDC6089546
:103BA00084E096E098DF64E681E0B6D66CE981E0D7
:103BB000B3C6089582E296E08EDF64E681E0ACD67B
:103BC0006EEC81E0A9C6089581E496E00C94AE2FD6
:103BD0000895CF93DF9300D01F92CDB7DEB70E9438
:103BE000F10D69837A838B839C8343E557E060E022
:103BF00070E0CE0101960E940710EBDC2FDCF5CFC0
:103C0000CF93DF9300D01F92CDB7DEB70E94F10DA6
:103C100069837A838B839C834EE359E460E070E090
:103C2000CE0101960E9407100E941101F5CFEF927C
:103C3000FF920F93E12CF12C00E020E030E040EC0B
:103C400050E066E576E089EE9DE10E94670D20E098
:103C500030E040EC50E062E676E080E09EE10E94D9
:103C6000670D0F91FF90EF900895E1DF0E940D0323
:103C70009F938F9382E796E09F938F9387E899E1D4
:103C80009F938F930E94DE2F0E94B30D0F900F9091
:103C90000F900F900F900F90089581B1816881B9B6
:103CA00080E090E00E947828CFDB1ADC0E940801B7
:103CB00083E0D9D5A4D048D685E00E947F2941E091
:103CC00060E070E08CE290E00E9464099093F21949
:103CD0008093F119BC0181E01FD283E0DDCE08950D
:103CE000DCDF25DF81E896E00E94AE2FBEDFFFCF4C
:103CF00004D06894B11150C0089533D088F09F5714
:103D000090F0B92F9927B751A0F0D1F0660F771F27
:103D1000881F991F1AF0BA95C9F712C0B13081F007
:103D20003AD0B1E0089537C0672F782F8827B85F61
:103D300039F0B93FCCF3869577956795B395D9F768
:103D40003EF490958095709561957F4F8F4F9F4F72
:103D5000089557FD9058440F551F59F05F3F71F07B
:103D60004795880F97FB991F61F09F3F79F08795E2
:103D70000895121613061406551FF2CF4695F1DF6B
:103D800008C0161617061806991FF1CF86957105FB
:103D9000610508940895E894BB2766277727CB012F
:103DA00097F908956530F1F4FA0180818F7390E0FE
:103DB000982F88272181822B90930A0280930902F1
:103DC0008281F0E48F9FC0011124FA01238126959E
:103DD0002695822B909308028093070281E08093BE
:103DE0001B180895643051F080E090E4909308022D
:103DF0008093070290930A028093090208950F931B
:103E00001F9302ED1EE120E034E244EF50E060E059
:103E100087E20E94662A90931D1880931C1821E067
:103E2000892B09F020E0822F1F910F910895809136
:103E30001C1890911D18009759F040E060E070E068
:103E40000E94B72A843031F410921B1880E0089544
:103E500082E0089583E0089580911C1890911D18C8
:103E6000009739F064E00E94032B853021F083E055
:103E7000089582E0089580E00895609109027091AC
:103E80000A0280E090E00E94E12C20E030E048EC63
:103E900052E40E94462D20E038EF4FE756E40C94A0
:103EA000762C0895609107027091080280E090E0FE
:103EB0000E94E12C20E030E045E253E40E94462DD0
:103EC00020E038EF4FE756E40E94762C20E030E007
:103ED00040E252E40C940F2C08950F931F93CF935C
:103EE000DF931F921F92CDB7DEB78C0119822DC0D0
:103EF000E0918218EC3250F481E08E0F80938218AA
:103F0000F0E0EC54F74E8A81808302C01092821850
:103F10008A818A30D1F44091821850E0FA01EE543F
:103F2000F74E1082415051099E012F5F3F4F64EBC5
:103F300078E180918518909186180E94890A89817C
:103F400081110E94E00310928218BE016E5F7F4FC4
:103F5000C80138D6882361F20F900F90DF91CF917E
:103F60001F910F9108950F931F93CF93DF938C01AF
:103F7000EB0180918518909186180E949609B801EE
:103F80008EE198E10E947C2F209779F0EEE1F8E134
:103F900001900020E9F7319780E290E091838083DF
:103FA000BE018EE198E10E94712FEEE1F8E1DF01A0
:103FB0000D900020E9F711978DE09AE011969C93FF
:103FC0008E9312961C9201900020E9F73197EE51E2
:103FD000F841AE2F8EE198E1AC016A2F80918718ED
:103FE000909188189AD5811111C008E215E020E05F
:103FF00030E04DE250E06EE079E1809185189091DB
:1040000086180E94CD0A8EE099E102C080E090E01F
:10401000DF91CF911F910F9108952F923F924F9270
:104020005F926F927F928F929F92AF92BF92CF9248
:10403000DF92EF92FF920F931F93CF93DF935C0178
:10404000FC0101900020E9F731976F01C81AD90AE5
:104050005C2C0F2EFBE28F2EF9E09F2EF02DE12C31
:10406000F12C4C2C3701F40101811281E8010990F7
:104070000020E9F72197C01BD10B3C2EF9E0CF16A9
:10408000D10458F0F4012080FEE02F1206C0B801E0
:10409000C5010E944C2F892B09F5442D351408F4D5
:1040A0004C2F50E0B801C5010E94832F892B49F4A1
:1040B000F301EE0FFF1FE60DF71DE55DF64F2080C3
:1040C0000DC08FEFE81AF80AE3E08E0E911CF1E1C3
:1040D000EF16F10439F66894222424F8822DDF913A
:1040E000CF911F910F91FF90EF90DF90CF90BF90F5
:1040F000AF909F908F907F906F905F904F903F9088
:104100002F90089530DF89CF089580918518909180
:1041100086180C94960908958F929F92AF92CF9231
:10412000EF920F931F93CF93C82F8B0141E060E074
:1041300070E088EC90E00E94640990938618809368
:10414000851810938418009383180F2EFDE68F2E88
:10415000FFE19F2EF02D6894AA24A6F86894CC2441
:10416000C6F8E12C00E023E040E051EE60E070E0B2
:104170008C2F06D49093881880938718E7E0F1E09D
:10418000808180618083CF911F910F91EF90CF90BC
:10419000AF909F908F900895882331F0E8E0F1E090
:1041A00080818F7E80830895E8E0F1E080818061E6
:1041B0008083089560E070E081EB96E0D4DEEEE06D
:1041C000F9E101900020E9F73197EE50F94181E0E3
:1041D000759708F080E00895CF93DF93EC0160E0DD
:1041E00070E082EC96E0BFDEEEE0F9E101900020A5
:1041F000E9F7EF51F94139F46EE079E1CE010E941F
:104200007C2F80E002C0188281E0DF91CF91089579
:10421000FC0101900020E9F79F0121513109281785
:10422000390729F4BC0180EF96E06CCF089589E04E
:104230000895FC0101900020E9F79F012151310907
:104240002817390729F4BC018FEF96E05BCF08955A
:1042500089E00895FC0101900020E9F79F012152B7
:1042600031092817390729F4BC018EE097E04ACFBD
:10427000089589E0089560E070E08DE497E042CF12
:1042800008950F931F93E82FF0E0EE0FFF1FE95DF5
:10429000F64F6081718186E597E034DF811114C0AB
:1042A00008E215E020E030E04DE250E06EE079E118
:1042B00080918518909186180E94CD0A882321F05C
:1042C0008EE099E1AADE03C08EE099E1A6DE1F919F
:1042D0000F9108950F931F93CF93DF931F92CDB744
:1042E000DEB7DB0111969C911197953108F0B4C0AF
:1042F000992381F160E070E0272F30E0462F50E0F5
:10430000FD01E40FF51F928192959F709A3010F095
:10431000995C01C0905DF901E156F74E90832F5FE3
:104320003F4FFD01E40FF51F92819F70492F50E030
:104330004A30510514F0995C01C0905DF901E156D5
:10434000F74E90837E5F6F5F11969C91119769176E
:1043500098F201C070E0E72FF0E0E156F74E1082CE
:104360004C91811103C08FE597E002C081E697E090
:104370002FE938E13F932F931F924F939F938F9391
:1043800085E697E09F938F9381EE98E19F938F93BB
:104390000E94DE2F60E070E081EE98E1B3DE0FB6A0
:1043A000F894DEBF0FBECDBF811159C008E215E001
:1043B00020E030E04DE250E06EE079E18091851838
:1043C000909186180E94CD0A882309F447C08EE098
:1043D00099E123DE8E3009F042C087E08983809125
:1043E000831890918418892BA9F1BE016F5F7F4FCC
:1043F0008EE099E168D180938918E981F0E0E25F6D
:10440000F64EDF010D900020E9F71197AE1BBF0BB0
:10441000AA2391F0BB27CD0101979C0112F42F5FD5
:104420003F4F3595279520938A18AF014F5F5F4F17
:1044300064E18BE898E173D101E010E020E030E026
:1044400046E150E069E878E1809183189091841802
:104450000E94C6098EE003C084E101C080E00F9095
:10446000DF91CF911F910F910895813019F065E789
:1044700077E002C06EE478E089E797E043CE0895E4
:104480009F938F938AEA97E09F938F9381EE98E1B1
:104490009F938F930E94DE2F60E070E081EE98E1A1
:1044A00031DE0F900F900F900F900F900F900895A6
:1044B0002F923F924F925F926F927F928F929F9234
:1044C000AF92BF92CF92DF92EF92FF920F931F9322
:1044D000CF93DF93CDB7DEB7A0970FB6F894DEBFCA
:1044E0000FBECDBF67ED77E083EE97E03CDD95DD55
:1044F0008111A3C080E2E2E2F2E0DE0111960190B8
:104500000D928A95E1F79E012F5F3F4F6901E12CE3
:10451000F12C0F2EFFEEAF2EF7E0BF2EF02D01EEA7
:1045200018E10F2EF8E04F2EF8E05F2EF02D0F2E41
:10453000FFE18F2EF8E09F2EF02D0F2EF9E36F2E66
:10454000F8E07F2EF02D3E2C2F2CFF92EF92BF92A1
:10455000AF921F930F930E94DE2F60E070E0C801BE
:1045600002DD5BDD0F900F900F900F900F900F907A
:10457000811163C032E03E15E8F4F60183818F9328
:1045800082818F9381818F9380818F93FF92EF92AD
:104590005F924F921F930F930E94DE2F60E070E0B6
:1045A000C801E1DC3ADD0FB6F894DEBF0FBECDBF27
:1045B000811143C02F923F929F928F921F930F932E
:1045C0000E94DE2F60E070E0C801CDDC26DD0F9098
:1045D0000F900F900F900F900F9081112EC02F927F
:1045E0003F927F926F921F930F930E94DE2F60E0A5
:1045F00070E0C801B8DC11DD0F900F900F900F90A4
:104600000F900F90811119C03FEFE31AF30A84E075
:10461000C80ED11C98E0E916F10409F094CF60E0CF
:1046200070E081E598E09FDCF8DC811106C060E075
:1046300070E082E698E097DCF0DCA0960FB6F89484
:10464000DEBF0FBECDBFDF91CF911F910F91FF90C5
:10465000EF90DF90CF90BF90AF909F908F907F9022
:104660006F905F904F903F902F900895EF92FF9240
:104670000F931F93CF93DF93EC018B017A0181E0BD
:10468000F4DE81110DC0CE01D4DD811109C0C80155
:10469000E1DD811105C0C701BBDD811101C0EBDD8A
:1046A000DF91CF911F910F91FF90EF90089590E0CF
:1046B000FC01EE0FFF1F8E0F9F1FFC01E55DF64F03
:1046C000818192810895DC01009729F1FB0120810D
:1046D000FC0101900020E9F73197E81BF90B822FCC
:1046E00090E0E817F907C8F080E008C0880F382F7D
:1046F000330F330F830F8053890F2F5FFD01E20FBC
:10470000F11D908130ED390F3A3010F49111EECF58
:10471000FB012083089580E0089580E008950F93C1
:104720001F93CF93DF93DC01EA012097E1F1FA01B7
:1047300001900020E9F73197E41BF50B329710F553
:1047400032C08D01040F151F30E0AE01420F531F20
:10475000FA019081913428F09753592F5295507F48
:1047600003C0592F5295507F2C0F3D1FF9019181A5
:10477000913410F0975301C09053950FF801908336
:104780008F5F01C080E0282F220F482F50E0FE01EC
:1047900001900020E9F73197EC1BFD0B4E175F07E6
:1047A00010F48613CECFDF91CF911F910F91089512
:1047B00080913E19860F80933E1990914119913056
:1047C00079F028F09230A9F0933019F108956F3FF5
:1047D00009F048C010923E1981E080934119089574
:1047E000663809F03FC010923D1982E0809341196C
:1047F0000895E0913D1981E08E0F80933D19F0E01E
:10480000E55CF64E6083823069F583E08093411960
:10481000089590913D1921E0290F20933D1996307C
:1048200009F581110EC0EBE3F9E1808190E0982F4A
:1048300088272181820F911D9093431980934219FB
:1048400004C0109243191092421910924119E0913C
:104850003F19F0914019309729F0809142199091B9
:104860004319199508958F929F92AF92CF92EF922C
:104870000F930F2EF8ED8F2EF3E29F2EF02D6894FC
:10488000AA24A4F86894CC24C4F8E12C00E023E026
:1048900040E855E260E070E073D090934519809352
:1048A00044190F91EF90CF90AF909F908F90089503
:1048B0009093401980933F190895CF93DF93CDB71C
:1048C000DEB729970FB6F894DEBF0FBECDBF89E0E3
:1048D000E2E4F2E09E012F5F3F4FD90101900D927B
:1048E0008A95E1F710924319109242198091441968
:1048F00090914519009731F0422F532F69E00DD167
:1049000080E001C082E029960FB6F894DEBF0FBEAA
:10491000CDBFDF91CF91089565360CF064E66C3918
:104920000CF46CE996EF6902B00111246854744FDD
:10493000811105C070932901609328010895709337
:104940002B0160932A010895EAE0F1E080818861FB
:1049500080838FE39CE9909327018093260160E098
:1049600080E0DADF60E081E0D7DFE0E2F1E0808143
:10497000826A8083E1E2F1E080818A618083089528
:104980002F923F924F925F926F927F928F929F925F
:10499000AF92CF92EF92FF920F931F93CF93DF933B
:1049A000CDB7DEB7F82E2A013B0188E090E00E94E7
:1049B000172E8C018F2D90E0FC01EE0FFF1FEA5B9C
:1049C000F64E118300830115110509F469C0880FA3
:1049D000991FFC01E55FFD4F80819181D8018D9386
:1049E0009C936C2D70E084E090E00E94FD2D1C01F2
:1049F00061E070E086E090E00E94FD2D7C014C2D8E
:104A0000B101F1D6F801F582E4826A2D70E084E00C
:104A100090E00E94FD2D1C0161E070E086E090E0D6
:104A20000E94FD2D7C014A2DB101DDD6D8011396DF
:104A3000FC92EE92129717969C928E921697FFB662
:104A4000F894ED91FC911197369780818260808374
:104A50008D909C90C301B201B4D720E030E040E0DB
:104A600051E40E94462D9B01AC0160E074E284E7B2
:104A70009BE43CD720E030E040E85FE3D0D63DD96E
:104A8000F40132976083D801ED91FC91119735972D
:104A900088E98083ED91FC91349786E08083FFBEA6
:104AA000C801DF91CF911F910F91FF90EF90CF90B0
:104AB000AF909F908F907F906F905F904F903F90BE
:104AC0002F900895CF93DF93DC01892B01F112968B
:104AD000ED91FC911397938182812581981B9223FC
:104AE00084819817B1F0838126952823C081D181D4
:104AF000C20FD11D68838F5F958189238383ED91D8
:104B0000FC91359780818062808380E003C081E0E2
:104B100001C082E0DF91CF910895EF92FF920F9351
:104B20001F93CF93DF937C01009709F441C0DC0110
:104B30001296ED91FC91139793818281981B858148
:104B400098238481891B8617A8F1662341F1842F5D
:104B5000952FDC016150462F50E04F5F5F4F480FAB
:104B6000591FE701EA81FB81938182812581981B8E
:104B700092238481981779F08C919381269529232B
:104B8000608171818B01020F111DE80188839F5F95
:104B90008581982393831196A417B50711F7D70140
:104BA000ED91FC91359780818062808380E003C025
:104BB00081E001C082E0DF91CF911F910F91FF90C2
:104BC000EF9008950097D1F0DC011496ED91FC91DF
:104BD000159793818281981799F0928185818695A6
:104BE0008923A081B181A80FB11D8C91DB018C9329
:104BF0009F5F85819823928380E0089581E00895E6
:104C000083E008951F920F920FB60F9211240BB6F6
:104C10000F922F933F934F935F936F937F938F9355
:104C20009F93AF93BF93CF93DF93EF93FF93A091A5
:104C30004619B0914719109711F16091C60014966A
:104C4000ED91FC911597938182812581981B922388
:104C50008481981761F0838126952823C081D181B2
:104C6000C20FD11D68838F5F958189238383169638
:104C7000ED91FC911797309711F0CD011995FF91A7
:104C8000EF91DF91CF91BF91AF919F918F917F91E4
:104C90006F915F914F913F912F910F900BBE0F90AD
:104CA0000FBE0F901F9018951F920F920FB60F9284
:104CB00011240BB60F922F938F939F93AF93BF93B3
:104CC000EF93FF93E0914619F09147193097B9F0AF
:104CD0000280F381E02D938182819817B1F0928157
:104CE0008581282F26952923A081B181A20FB11D8E
:104CF0002C919F5F892382832093C6000BC0E1EC37
:104D0000F0E080818F7D808305C0E1ECF0E0808160
:104D10008F7D8083FF91EF91BF91AF919F918F9194
:104D20002F910F900BBE0F900FBE0F901F901895F4
:104D30001F920F920FB60F9211240BB60F922F9362
:104D40003F934F935F936F937F938F939F93AF9313
:104D5000BF93CF93DF93EF93FF93A0914819B09146
:104D60004919109711F16091CE001496ED91FC91C4
:104D70001597938182812581981B922384819817AE
:104D800061F0838126952823C081D181C20FD11D76
:104D900068838F5F9581892383831696ED91FC91BB
:104DA0001797309711F0CD011995FF91EF91DF9191
:104DB000CF91BF91AF919F918F917F916F915F91B3
:104DC0004F913F912F910F900BBE0F900FBE0F9000
:104DD0001F9018951F920F920FB60F9211240BB6C9
:104DE0000F922F938F939F93AF93BF93EF93FF9364
:104DF000E0914819F09149193097B9F00280F38198
:104E0000E02D938182819817B1F092818581282FBE
:104E100026952923A081B181A20FB11D2C919F5FFE
:104E2000892382832093CE000BC0E9ECF0E08081DF
:104E30008F7D808305C0E9ECF0E080818F7D8083E9
:104E4000FF91EF91BF91AF919F918F912F910F9013
:104E50000BBE0F900FBE0F901F9018951F920F92D0
:104E60000FB60F9211240BB60F922F933F934F93CF
:104E70005F936F937F938F939F93AF93BF93CF93E2
:104E8000DF93EF93FF93A0914A19B0914B191097BC
:104E900011F16091D6001496ED91FC9115979381D4
:104EA00082812581981B92238481981761F08381E8
:104EB00026952823C081D181C20FD11D68838F5FC1
:104EC0009581892383831696ED91FC9117973097EE
:104ED00011F0CD011995FF91EF91DF91CF91BF9125
:104EE000AF919F918F917F916F915F914F913F9182
:104EF0002F910F900BBE0F900FBE0F901F90189523
:104F00001F920F920FB60F9211240BB60F922F9390
:104F10008F939F93AF93BF93EF93FF93E0914A19C1
:104F2000F0914B193097B9F00280F381E02D938115
:104F300082819817B1F092818581282F26952923A7
:104F4000A081B181A20FB11D2C919F5F8923828323
:104F50002093D6000BC0E1EDF0E080818F7D80834F
:104F600005C0E1EDF0E080818F7D8083FF91EF91BE
:104F7000BF91AF919F918F912F910F900BBE0F908A
:104F80000FBE0F901F9018951F920F920FB60F92A1
:104F900011240BB60F922F933F934F935F936F9310
:104FA0007F938F939F93AF93BF93CF93DF93EF93B1
:104FB000FF93A0914C19B0914D19109711F1609188
:104FC00036011496ED91FC9115979381828125818C
:104FD000981B92238481981761F08381269528235A
:104FE000C081D181C20FD11D68838F5F95818923D4
:104FF00083831696ED91FC911797309711F0CD01B0
:105000001995FF91EF91DF91CF91BF91AF919F9152
:105010008F917F916F915F914F913F912F910F9061
:105020000BBE0F900FBE0F901F9018951F920F92FE
:105030000FB60F9211240BB60F922F938F939F935D
:10504000AF93BF93EF93FF93E0914C19F0914D19FB
:105050003097B9F00280F381E02D93818281981717
:10506000B1F092818581282F26952923A081B181D5
:10507000A20FB11D2C919F5F89238283209336015B
:105080000BC0E1E3F1E080818F7D808305C0E1E327
:10509000F1E080818F7D8083FF91EF91BF91AF918F
:1050A0009F918F912F910F900BBE0F900FBE0F907D
:1050B0001F901895CF93DF931F92CDB7DEB7BE0137
:1050C0006F5F7F4F80914E1990914F197BDD811159
:1050D000F6CF898190E00F90DF91CF910895682FEE
:1050E00080914E1990914F19EDDC80E090E0089589
:1050F0008F929F92AF92CF92EF920F93812C912C2F
:105100006894AA24A7F86894CC24C7F8E12C00E09E
:1051100023E040E051EE60E070E032DC90934F1904
:1051200080934E19E7EFF9E183E192E09183808368
:10513000938382830F91EF90CF90AF909F908F9049
:10514000089590E0FC01EE0FFF1FE80FF91FEE0F2E
:10515000FF1FE05BF64E238121111FC09C01220F2F
:10516000331FF901E80FF91FEE0FFF1FE05BF64E4A
:10517000A081B1814C91F901E80FF91FEE0FFF1FDB
:10518000E05BF64E81E090E0028002C0880F991F3C
:105190000A94E2F7842B8C930895FC01EE0FFF1F15
:1051A000DF01A80FB91FAA0FBB1FA05BB64E0D9061
:1051B000BC91A02D2C91E80FF91FEE0FFF1FE05BB3
:1051C000F64E81E090E0028002C0880F991F0A9499
:1051D000E2F7809582238C93089590E0FC01EE0F16
:1051E000FF1FE80FF91FEE0FFF1FE05BF64E238154
:1051F000211120C09C01220F331FF901E80FF91F74
:10520000EE0FFF1FE05BF64EA081B1814C91F901DA
:10521000E80FF91FEE0FFF1FE05BF64E81E090E014
:10522000028002C0880F991F0A94E2F780958423B8
:105230008C930895FC01EE0FFF1FDF01A80FB91F2B
:10524000AA0FBB1FA05BB64E0D90BC91A02D2C9158
:10525000E80FF91FEE0FFF1FE05BF64E81E090E0D4
:10526000028002C0880F991F0A94E2F7822B8C9368
:105270000895CC24C394D12C6894BB24B2F8C0E523
:10528000D9E110E08C81813081F018F1823061F534
:10529000E881F9812081C6010A8002C0880F991F28
:1052A0000A94E2F7822780831FC08D818F5F8A3046
:1052B00010F48D8319C01D82E881F9812081C60117
:1052C0000A8002C0880F991F0A94E2F78227808320
:1052D0000BC00D81002329F0812F7FDF01500D834A
:1052E00003C0BC82812F2DDF1F5F2696143051F63C
:1052F00065E070E080E090E00E946C10C0CFEF921B
:10530000FF920F931F93CF93DF93082F80E487B909
:10531000C0E5D9E10F2EF8E2EF2EF12CF02DF98245
:10532000E88286E08A831B8214E01C8380E009DF28
:1053300080E887B9FF82EE8287E0888719861A871E
:1053400081E0FFDE80E283BB84E390E09D878C8771
:1053500085E08E871F86188B82E0F3DE80E18093E4
:10536000010182E091E09B8B8A8B1C8B1D8A1E8B36
:1053700083E0E7DEE12CF12C20E030E040EC50E06F
:105380006EE579E089E399E20E94670DDF91CF91A4
:105390001F910F91FF90EF900895CF93DF9390E0CE
:1053A000FC01EE0FFF1FDF01A80FB91FAA0FBB1FE3
:1053B000A05BB64ECD91DC911197488121E030E0A1
:1053C00012960C90129702C0220F331F0A94E2F734
:1053D00024272883FD0181E08483DF91CF91089504
:1053E000CF93DF9390E0FC01EE0FFF1FDF01A80FCA
:1053F000B91FAA0FBB1FA05BB64ECD91DC911197D0
:10540000488121E030E012960C90129702C0220FE2
:10541000331F0A94E2F724272883FD0182E0848366
:10542000DF91CF910895282F30E0F901EE0FFF1F93
:10543000E20FF31FEE0FFF1FE05BF64E93E0948345
:10544000CCCE0895282F30E0F901EE0FFF1FE20FB8
:10545000F31FEE0FFF1FE05BF64E94E0948371CED6
:10546000089590E0FC01EE0FFF1FDF01A80FB91FA8
:10547000AA0FBB1FA05BB64E24E015962C93159780
:10548000FD011482089590E0FC01EE0FFF1FDF0183
:10549000A80FB91FAA0FBB1FA05BB64E21E015963F
:1054A0002C931597FD01148208958091761981112E
:1054B0000CC08CE08093B8008FEF8093BB0084E039
:1054C0008093BC0081E0809376190895AF92BF92DB
:1054D000CF92DF92EF92FF920F931F93CF93DF93C0
:1054E000A82EB62E69017A0184E090E0A0D3EC01E9
:1054F000892B61F1A88281E0B81212C0C701B60100
:1055000020EA36E841E050E04ED3DA01C901409785
:10551000A109B109B695A79597958795898311C07B
:10552000C701B60120E83AE146E050E03CD3DA0199
:10553000C9014097A109B109B695A7959795879597
:1055400089831B830A838C2F9D2F02C080E090E00B
:10555000DF91CF911F910F91FF90EF90DF90CF904F
:10556000BF90AF9008958091BC0081700895FF9224
:105570000F931F93CF93DF930097D1F14A30D0F56B
:10558000F42E8B01EC01EFDF811136C08091691997
:1055900090916A19C817D90741F087DF89818093F4
:1055A000B800D0936A19C093691981E08F0D809378
:1055B0006B198881880F80936C19FF2089F0F8019E
:1055C000ADE6B9E14FEF4F0D642F70E0CB010196CE
:1055D000B801680F791F81918D93E617F707D9F706
:1055E00088EF8093210285EA8093BC0084E005C0A7
:1055F00086E003C087E001C082E0DF91CF911F9178
:105600000F91FF9008951F93CF93DF93009729F197
:105610006B3028F5162FEC01A6DF811122C0809196
:10562000691990916A19C817D90741F03EDF89813D
:105630008093B800D0936A19C093691910936B19BD
:105640008881880F816080936C1988EF8093210294
:1056500085EA8093BC0085E005C086E003C087E052
:1056600001C082E0DF91CF911F9108951F920F92A8
:105670000FB60F9211240BB60F922F933F934F93B7
:105680005F936F937F938F939F93AF93BF93EF93AA
:10569000FF93E091B9008E2F90E0FC013897E1353F
:1056A000F10508F075C08827E458FF4F8F4F9DC261
:1056B00010926819E091681980916B19E81770F4DD
:1056C00081E08E0F80936819F0E0E459F64E8081F6
:1056D0008093BB0085E88093BC0072C084E980930E
:1056E000BC008091691990916A19DC011296ED91C4
:1056F000FC911397309709F463C020E040E050E03C
:1057000064E019955DC0E091681981E08E0F809387
:1057100068198091BB00F0E0E459F64E80838091D7
:10572000B900803411F4109268192091681930E0A2
:1057300080916B1990E001972817390724F485ECC4
:105740008093BC003DC085E88093BC0039C0809147
:10575000BB00E0916819F0E0E459F64E808384E9DB
:105760008093BC008091691990916A19DC011296AE
:10577000ED91FC911397309719F120916B194CE63C
:1057800059E165E019951CC085EA8093BC0018C0FA
:105790008091B9008093210284E08093BC008091C5
:1057A000691990916A19DC011296ED91FC91139799
:1057B000309731F020E040E050E0609121021995EF
:1057C000FF91EF91BF91AF919F918F917F916F91D9
:1057D0005F914F913F912F910F900BBE0F900FBE95
:1057E0000F901F901895FC01411101C041D3842FE7
:1057F00090E09C012150310982239323892B09F0E9
:1058000037D3413808F034D3128213824483440FD3
:10581000415045837183608380E090E00895505843
:10582000BB27AA270ED021C112D130F017D120F00A
:1058300031F49F3F11F41EF407C10EF4E095E7FB2D
:10584000FDC0E92F0E94A91E78F3BA1762077307FB
:105850008407950720F079F4A6F50C94CB1E0EF47E
:10586000E0950B2EBA2FA02D0B01B90190010C0170
:10587000CA01A0011124FF27591B99F0593F50F488
:10588000503E68F11A16F040A22F232F342F4427E0
:10589000585FF3CF469537952795A795F0405395D8
:1058A000C9F77EF41F16BA0B620B730B840BBAF0A8
:1058B0009150A1F0FF0FBB1F661F771F881FC2F713
:1058C0000EC0BA0F621F731F841F48F48795779527
:1058D0006795B795F7959E3F08F0B1CF9395880FE0
:1058E00008F09927EE0F9795879508950DD0BDC0C4
:1058F000B5D048F0ACD038F021F45F3F21F09EC025
:1059000051110C94CC1EA0C00E94A91E88F39923AB
:10591000B9F35523A1F3951B550BBB27AA27621793
:105920007307840738F09F5F5F4F220F331F441FB8
:10593000AA1FA9F334D00E2E3AF0E0E831D09150EE
:105940005040E695001CCAF72AD0FE2F28D0660FDB
:10595000771F881FBB1F261737074807AB07B0E81C
:1059600009F0BB0B802DBF01FF2793585F4F32F02A
:105970009E3F510570F062C00C94CC1E5F3FE4F373
:10598000983ED4F3869577956795B795F7959F5F81
:10599000C9F7880F911D9695879597F90895E1E0CD
:1059A000660F771F881FBB1F621773078407BA072C
:1059B00020F0621B730B840BBA0BEE1F88F7E09587
:1059C0000895E89409C097FB3EF4909580957095F2
:1059D00061957F4F8F4F9F4F9923A9F0F92F96E93B
:1059E000BB279395F695879577956795B795F111B0
:1059F000F8CFFAF4BB0F11F460FF1BC06F5F7F4F4D
:105A00008F4F9F4F16C0882311F096E911C077235E
:105A100021F09EE8872F762F05C0662371F096E867
:105A2000862F70E060E02AF09A95660F771F881F36
:105A3000DAF7880F9695879597F9089597F99F67F4
:105A400080E870E060E008959FEF80EC0895002406
:105A50000A941616170618060906089500240A94D3
:105A600012161306140605060895092E0394000C59
:105A700011F4882352F0BB0F40F4BF2B11F460FFE8
:105A800004C06F5F7F4F8F4F9F4F08950CD0EDCFB5
:105A9000DEDF28F0E3DF18F0952309F0CFCFD4CF75
:105AA00011240C94CC1E0E94A91E90F3959FC1F363
:105AB000950F50E0551F629FF001729FBB27F00DBC
:105AC000B11D639FAA27F00DB11DAA1F649F662711
:105AD000B00DA11D661F829F2227B00DA11D621F60
