:10000000E5C0000004C1000002C1000000C1000002
:10001000FEC00000FCC00000FAC00000F8C00000F4
:10002000F6C00000F4C00000F2C00000F0C0000004
:1000300074C40000ECC00000EAC00000E8C000008A
:10004000E6C00000E4C00000E2C00000E0C0000024
:10005000DEC00000DCC00000DAC00000D8C0000034
:10006000D6C000000C945F250C94B125D0C00000D0
:10007000CEC00000CCC00000CAC00000C8C0000054
:10008000C6C00000C4C00000C2C00000C0C0000064
:100090000C94F5250C944726BAC000000C94932AC2
:1000A000B6C00000B4C00000B2C00000B0C0000084
:1000B000AEC00000ACC00000AAC00000A8C0000094
:1000C000A6C00000A4C00000A2C000000C948B26B3
:1000D0000C94DD269CC000000C9421270C947327FF
:1000E00096C000003719371937196E1976198B1910
:1000F000371937196E197619B52A252B252B252B7B
:10010000252B252B252B252BB52A252B252B252BE0
:10011000252B252B252B252BB72A252B252B252BCE
:10012000252B252B252B252B252B252B252B252B4F
:10013000252B252B252B252BB72A252B252B252BAE
:10014000252B252B252B252B252B252B252B252B2F
:10015000252B252B252B252B212B252B252B252B23
:10016000252B252B252B252BEC2A252B252B252B49
:10017000252B252B252B252B252B252B252B252BFF
:10018000252B252B252B252BE02A252B252B252B35
:10019000252B252B252B252B042B0E94870C8091AA
:1001A000CB16823008F0F3D20E94B419F6CFCF9369
:1001B000DF931F92CDB7DEB7CE0101960E94B41631
:1001C00049810E94A9180E940019F6CF11241FBE70
:1001D000CFEFD1E2DEBFCDBF00E00CBF18E0A0E062
:1001E000B2E0E0E3F4E600E00BBF02C007900D923E
:1001F000AE3BB107D9F729E1AEEBB8E001C01D92E3
:10020000A535B207E1F70E94011E0C941632F8CE14
:1002100040E066E085E0B0D490933C1980933B19B0
:100220000895CF92DF92EF92FF920F931F93CF9397
:10023000DF9300E010E0E12CF12CC12CD12CC0E0C8
:10024000D0E01FC00E94231AC80ED91E61E070E0E2
:1002500080E090E00E9453100E94231BE80EF91EDC
:1002600061E070E080E090E00E9453100E94541B17
:10027000080F191F61E070E080E090E00E945310C9
:100280002196CA30D105F4F22196C601BE010E9422
:10029000092D262F372FC701BE010E941D2D462F85
:1002A000F72EC801BE010E94092DE5E3F9E1208384
:1002B00031834283F38264837583FF924F933F932C
:1002C0002F937F936F938FE692E09F938F9381EDAF
:1002D00098E19F938F930E943B2F81ED98E10E94BC
:1002E0003B1D00E02FEF3FEFA90165E379E180912D
:1002F0003B1990913C1963D48DB79EB70A960FB6FF
:10030000F8949EBF0FBE8DBFDF91CF911F910F91CB
:10031000FF90EF90DF90CF9008952AE030E040E02A
:1003200050E06DE379E180913B1990913C1914D52F
:100330008DE399E10895EAECF8E0AEECB8E0B18322
:10034000A08313821282E6E7F6E1F093C908E093F6
:10035000C808138212821182108288EA9DE01396E7
:100360009C938E931297ED93FC939093C508809382
:10037000C4089093C7088093C60880E090E89093E3
:10038000BF088093BE080895CF93DF93EC01AAECD9
:10039000B8E001C0DF01ED91FC911197EC17FD076A
:1003A000C8F312968D919C9113979D01280F391FC8
:1003B000C217D30749F42A813B81820F931F1396FA
:1003C0009C938E931297ED018A819B819E01280F49
:1003D000391FE217F307C1F42091C8083091C9080A
:1003E000E217F30771F022813381820F931F9B8301
:1003F0008A83ED91FC911197808191819983888303
:1004000005C03983288302C0F983E883CA17DB0754
:1004100011F0CD93DC93DF91CF910895EF92FF928D
:100420000F931F93CF93DF938C010E94D20D809185
:10043000C8089091C908892B09F47DDF8091BE0816
:100440009091BF0880239123892B09F076C0011574
:10045000110549F0C80104960817190718F000E0C3
:1004600010E001C08C010115110509F469C08091EB
:10047000C6089091C7088017910708F464C0C0911E
:10048000CA08D091CB08EAECF8E002C0FE01EC010A
:100490008A819B818017910720F488819981009738
:1004A000A9F78091C8089091C908C817D90709F41D
:1004B0004DC0E080F18084E0E80EF11C88819981D4
:1004C000918380832A813B81201B310B29303105A8
:1004D00048F0CE01800F911FFC01338322831B83E0
:1004E0000A8352DF2A813B818091C6089091C70818
:1004F000821B930B9093C7088093C6084091C40851
:100500005091C5088417950720F49093C5088093EF
:10051000C4088091BE089091BF08282B392B3B83DB
:100520002A83198218828091C2089091C30801968B
:100530009093C3088093C2080BC0E12CF12C08C033
:10054000E12CF12C05C0E12CF12C02C0E12CF12CA6
:100550000E94120FE114F10411F40E94C019C701A6
:10056000DF91CF911F910F91FF90EF9008950F931E
:100570001F93CF93DF93009791F1EC0124974A8169
:100580005B812091BE083091BF08BA0162237323BA
:10059000672B29F168817981672B09F520953095C2
:1005A000242335233B832A830E94D20D8A819B8199
:1005B0002091C6083091C708820F931F9093C708F7
:1005C0008093C608CE01E0DE8091C0089091C108FA
:1005D00001969093C1088093C0080E94120FDF918A
:1005E000CF911F910F9108958091C6089091C708EF
:1005F0000895FC010396928381834FEF5FEFBA0168
:10060000438354836583768390878783928781872A
:1006100010820895FC011386128608950F931F938C
:10062000CF93DF93EB01088119812A813B810F3F32
:100630004FEF14072407340721F4FC01A185B2858C
:1006400011C0DC01139601C0DF011496ED91FC91FD
:100650001597408151816281738104171507260720
:10066000370790F71496ED91FC911597FD83EC8375
:10067000D783C683BF83AE831596DC93CE9314973E
:100680009B878A87FC0120812F5F2083DF91CF9198
:100690001F910F910895CF93DF93FC01A285B3853D
:1006A000C481D581868197819F838E83C681D781BE
:1006B000848195819D838C8311968D919C91129755
:1006C000E817F90731F48681978112969C938E93EF
:1006D0001197138612868C9181508C938C91DF91A7
:1006E000CF910895A89590EC88E10FB6F894A8955D
:1006F000809360000FBE909360000895FC016083BA
:10070000319770833197108231971082319720E8AA
:10071000208331971082319710823197108277971A
:1007200040833197508386970895DCDFA091391775
:10073000B0913A17CD91CDBFDD91DEBFFF91EF9122
:10074000DF91CF91BF91AF919F918F917F916F91E9
:100750005F914F913F912F911F910F91FF90EF90DB
:10076000DF90CF90BF90AF909F908F907F906F90D1
:100770005F904F903F902F901F900F900CBE0F9066
:100780000BBE0F900FBE0F90089581E008950F9259
:100790000FB6F8940F920BB60F920CB60F921F92F1
:1007A00011242F923F924F925F926F927F928F927D
:1007B0009F92AF92BF92CF92DF92EF92FF920F93F0
:1007C0001F932F933F934F935F936F937F938F93D9
:1007D0009F93AF93BF93CF93DF93EF93FF93A0913A
:1007E0003917B0913A170DB60D920EB60D920E94C0
:1007F0006E10A0913917B0913A17CD91CDBFDD9110
:10080000DEBFFF91EF91DF91CF91BF91AF919F91AB
:100810008F917F916F915F914F913F912F911F9198
:100820000F91FF90EF90DF90CF90BF90AF909F908F
:100830008F907F906F905F904F903F902F901F9080
:100840000F900CBE0F900BBE0F900FBE0F9008952F
:100850000F920FB6F8940F920BB60F920CB60F9240
:100860001F9211242F923F924F925F926F927F922C
:100870008F929F92AF92BF92CF92DF92EF92FF92B0
:100880000F931F932F933F934F935F936F937F9398
:100890008F939F93AF93BF93CF93DF93EF93FF9388
:1008A000A0913917B0913A170DB60D920EB60D9270
:1008B00013BE0E94E60D81110E946E10A09139179F
:1008C000B0913A17CD91CDBFDD91DEBFFF91EF9191
:1008D000DF91CF91BF91AF919F918F917F916F9158
:1008E0005F914F913F912F911F910F91FF90EF904A
:1008F000DF90CF90BF90AF909F908F907F906F9040
:100900005F904F903F902F901F900F900CBE0F90D4
:100910000BBE0F900FBE0F9008959ADF1895DC0163
:1009200053962C915397222341F05A96ED91FC91C6
:100930005B9790818AE0891B089580E008950FB647
:10094000F8940F92FC01868D811102C081E001C0F4
:1009500080E00F900FBE08950FB6F8940F92FC013F
:10096000268D878D281302C081E001C080E00F90A2
:100970000FBE08950F931F93CF93DF93EC01042FC5
:100980001E8D48A141110CC088819981892B09F0E5
:1009900042C08C819D810E9406131D821C8242C030
:1009A000011117C050E08A819B810E94992E28A1D5
:1009B0008A819B81820F911D9B838A832C813D813B
:1009C0008217930750F1888199819B838A8380E005
:1009D00029C050E08E819F810E94992E88A190E0CD
:1009E0009195819591092E813F81280F391F3F8371
:1009F0002E83488159812417350730F42C813D819D
:100A0000820F931F9F838E83023049F4112349F094
:100A1000115080E007C080E005C080E003C080E0A6
:100A200001C080E01F5F1E8FDF91CF911F910F915A
:100A30000895FC0140A14423A9F050E026813781AC
:100A4000240F351F37832683848195812817390722
:100A500020F08081918197838683CB0166817781A5
:100A60000C94992E08951F93CF93DF93EC010FB64A
:100A7000F8940F921AA10BC08B89882351F0CE01F4
:100A800043960E942C1181110E9468121150111678
:100A90009CF38FEF8AA30F900FBE0FB6F8940F92BE
:100AA00019A10BC08885882351F0CE0108960E94B9
:100AB0002C1181110E946812115011169CF38FEFB6
:100AC00089A30F900FBEDF91CF911F910895CF930F
:100AD000DF93EC010FB6F8940F92E881F9818F8DC6
:100AE00028A190E030E0829FA001839F500D929F4B
:100AF000500D11244E0F5F1F5D834C831E8EFB83B0
:100B0000EA830197289FA001299F500D389F500D1F
:100B10001124CF01840F951F9F838E838FEF89A3AC
:100B20008AA361110BC08885882371F0CE010896D5
:100B30000E942C11882341F02ADE06C0CE010896BF
:100B400058DDCE01439655DD0F900FBE81E0DF9159
:100B5000CF9108950F931F93F801611103C0118382
:100B6000008302C051834083878F60A361E0CF017F
:100B7000AEDF1F910F910895DF92EF92FF920F93D6
:100B80001F93CF93DF93F82EE62ED42E869FC001BD
:100B90001124839643DCEC01009741F08C012D2D4C
:100BA000AC014D5D5F4F6E2D8F2DD4DFCE01DF91F7
:100BB000CF911F910F91FF90EF90DF900895CF920A
:100BC000DF92EF92FF920F931F93CF93DF93CDB7F6
:100BD000DEB729970FB6F894DEBF0FBECDBF7C01FC
:100BE0006B012E833F834887598710E00FB6F89436
:100BF0000F92F701968D878D981710F00230B1F49F
:100C0000402FB601C701B6DEF7019389992341F061
:100C1000C70143960E942C11882321F0B8DD02C041
:100C20008111B5DD0F900FBE81E04CC08E819F8198
:100C3000A885B985892B8A2B8B2B21F40F900FBEA9
:100C400080E040C0111105C0CE0101960E94F11153
:100C500011E00F900FBEA6D70FB6F8940F92F701D0
:100C600081A18F3F09F411A2F70182A18F3F09F4FE
:100C700012A20F900FBEBE016A5F7F4FCE01019698
:100C80000E940212811119C0C70166DE882381F01B
:100C90004E815F8168857985C70108960E94D310CF
:100CA000C701E1DE0E94120F8111A0CF70DD9ECF3F
:100CB000C701D9DE0E94120F99CFC701D4DE0E946E
:100CC000120F80E029960FB6F894DEBF0FBECDBF9D
:100CD000DF91CF911F910F91FF90EF90DF90CF9018
:100CE0000895EF92FF920F931F93CF93DF938A01A2
:100CF000FC01568D378D531710F02230F9F4422F36
:100D00007801EC011AA18E8DCE0134DE1F3F81F4F3
:100D10008B898823A9F0CE0143960E942C11882349
:100D200089F0E114F10481F081E0F70180830DC0C6
:100D3000FF24F394F10EFAA281E007C080E005C021
:100D400081E003C081E001C081E0DF91CF911F917C
:100D50000F91FF90EF900895CF92DF92EF92FF9264
:100D60000F931F93CF93DF93CDB7DEB729970FB6BD
:100D7000F894DEBF0FBECDBF8C016B012E833F8385
:100D800048875987E12C0FB6F8940F92F801F68C3A
:100D9000FF2099F0B601C8014CDEFA94F801F68EF6
:100DA0008085882331F0C80108960E942C1181119A
:100DB000EEDC0F900FBE81E04FC08E819F81A88531
:100DC000B985892B8A2B8B2B21F40F900FBE80E0E5
:100DD00043C0E11006C0CE0101960E94F111EE243D
:100DE000E3940F900FBEDED60FB6F8940F92F80181
:100DF00081A18F3F09F411A2F80182A18F3F09F46C
:100E000012A20F900FBEBE016A5F7F4FCE01019606
:100E10000E940212811117C0C80191DD882379F068
:100E20004E815F8168857985C80143960E94D31001
:100E3000C80119DEF7D78111A6CFA9DCA4CFC8015C
:100E400012DEF0D7A0CFC8010EDEECD7C80177DDE7
:100E5000882309F498CF80E029960FB6F894DEBF76
:100E60000FBECDBFDF91CF911F910F91FF90EF90FB
:100E7000DF90CF900895EF92FF920F931F93CF933F
:100E8000DF93CDB7DEB729970FB6F894DEBF0FBE5C
:100E9000CDBF8C014E835F8368877987E12CF12C6D
:100EA0000FB6F8940F92F801868D8823C9F081500F
:100EB000868F80819181892B29F40E94C813F801C3
:100EC00095838483F8018085882331F0C8010896D2
:100ED0000E942C1181115BDC0F900FBE81E06FC06E
:100EE0008E819F81A885B985892B8A2B8B2B21F434
:100EF0000F900FBE80E063C0F11006C0CE010196D6
:100F00000E94F111FF24F3940F900FBE4BD60FB641
:100F1000F8940F92F80181A18F3F09F411A2F80112
:100F200082A18F3F09F412A20F900FBEBE016A5F2B
:100F30007F4FCE0101960E940212811126C0C80186
:100F4000FEDC8823F1F0F80180819181892B51F436
:100F50000FB6F8940F92848195810E947F12E82E3B
:100F60000F900FBE4E815F8168857985C8014396D9
:100F70000E94D310C80177DD55D7811191CF07DCCE
:100F80008FCFC80170DD4ED78BCFC8016CDD4AD73B
:100F9000C801D5DC882309F483CFEE2079F00FB6A1
:100FA000F8940F92C801BBDC682FF8018481958109
:100FB0000E9461130F900FBE80E001C080E029966F
:100FC0000FB6F894DEBF0FBECDBFDF91CF911F915A
:100FD0000F91FF90EF900895CF93DF93EC010FB640
:100FE000F8940F9289A18F3F09F419A28AA18F3F2B
:100FF00009F41AA20F900FBE8E8D811104C0CE018C
:1010000043960E94EA10CE012EDDDF91CF91089524
:10101000FC014481558122813381240F351F808159
:101020009181B901681B790BCB016417750710F02A
:10103000841B950B08950F93FC018FE0DF011D9237
:101040008A95E9F7758764875583448337832683B8
:1010500006870F910895AF92BF92CF92DF92EF92E1
:10106000FF920F931F93CF93DF936C015B017A0183
:10107000FC01C281D381048115810C1B1D0B40171B
:10108000510708F48A01F60184859585A801B50108
:101090008C0F9D1F0E94992E0E151F0558F4A70155
:1010A000401B510BB501600F711FF60184859585BA
:1010B0000E94992ECE018E0D9F1DF601248135814F
:1010C0008217930710F0821B930BF60193838283A0
:1010D000C701DF91CF911F910F91FF90EF90DF90AB
:1010E000CF90BF90AF900895CF92DF92EF92FF9292
:1010F0000F931F93CF93DF931F921F92CDB7DEB74D
:101100007C016B015A83498321153105C1F0FC0133
:10111000868580FD08C04217530708F49A013A8378
:10112000298381E00FC02017310758F042E050E0DA
:10113000BE016F5F7F4FC7018EDF81E003C080E09B
:1011400001C080E0882331F049815A81B601C7018E
:1011500082DF02C080E090E00F900F90DF91CF918E
:101160001F910F91FF90EF90DF90CF900895AF9275
:10117000BF92CF92DF92EF92FF920F931F93CF9384
:10118000DF937C015B01E9014217530708F4EA0190
:10119000209781F1F7010081118184819581801B65
:1011A000910B6E018C179D0708F46C01F7016485A3
:1011B0007585600F711FA601C5010E94992ECC167E
:1011C000DD0658F4AE014C195D09F701648575859B
:1011D000C5018C0D9D1D0E94992E0C0F1D1FF7013E
:1011E000848195810817190710F0081B190BF70166
:1011F00011830083CE01DF91CF911F910F91FF905A
:10120000EF90DF90CF90BF90AF9008956F927F9254
:101210008F929F92AF92BF92CF92DF92EF92FF9206
:101220000F931F93CF93DF931F921F92CDB7DEB71B
:101230006C014B015A01790101151105B1F0FC0156
:1012400060807180A801BE016F5F7F4F90DF898150
:101250009A81E01AF10AA816B90630F4F6017182F3
:101260006082A12CB12C01C05C019701A501B401E1
:10127000C6017DDF0F900F90DF91CF911F910F91ED
:10128000FF90EF90DF90CF90BF90AF909F908F90A6
:101290007F906F900895CF92DF92EF92FF920F931D
:1012A000CF93DF93EC016B01413011F401E001C0F9
:1012B00000E0C114D10419F4CC24C394D12CCE0184
:1012C0004096C817D90720F42196A8D87C0102C0FF
:1012D000E12CF12CE114F10439F09601AE01B701D3
:1012E000615F7F4FC701A7DEC701DF91CF910F91EB
:1012F000FF90EF90DF90CF9008950F930FB6F89482
:101300000F92FC0120853185232B71F422853385D2
:10131000232B61F42681378144815581648575854D
:10132000068589DE81E003C080E001C080E00F9087
:101330000FBE0F910895FC01248135818081918138
:10134000820F931F42815381841B950B0197821753
:10135000930710F0821B930B08952F923F924F92A8
:101360005F926F927F928F929F92AF92BF92CF9235
:10137000DF92EF92FF920F931F93CF93DF93CDB73E
:10138000DEB72B970FB6F894DEBF0FBECDBF4C0172
:101390007B876A871A010E831F8328873987FC01A0
:1013A000848195810197268520FF0CC02A01F2E0F7
:1013B0004F0E511C8415950558F41E821F82188605
:1013C000198606C08417950710F02A0101C02C0168
:1013D0008E819F81A885B985892B8A2B8B2B09F457
:1013E00036C0CE010196E7D70FB6F8940F92C4012C
:1013F000A2DF3C018415950538F560E080E090E0BF
:101400000E949A160E946C12F401938782870F90B3
:101410000FBEAE80BF80C884D984E12CF12C00E0DF
:1014200010E0980140E050E0BA0180E00E94DA1339
:10143000F40113861286BE016A5F7F4FCE010196CA
:10144000E1D7882389F205C00F900FBE02C0612C3E
:10145000712C6114710419F4C4016DDF3C01820127
:101460009301A1016A857B85C4013EDE6C01892B55
:10147000E9F0C401CDDDF40126813781821793079D
:10148000A8F090D3F40180859185892B71F0808537
:101490009185E12CF12C00E020E030E0A90160E032
:1014A0000E948114F40111861086BCD4C6012B96CB
:1014B0000FB6F894DEBF0FBECDBFDF91CF911F9165
:1014C0000F91FF90EF90DF90CF90BF90AF909F90E3
:1014D0008F907F906F905F904F903F902F900895E6
:1014E000AF92BF92CF92DF92EF92FF920F931F9332
:1014F000CF93DF93EC017B015A0169018E8580FF58
:1015000004C08A010E5F1F4F01C08A01CE0113DFA4
:101510009C01A501B701CE01E7DD5C01892BC1F07B
:10152000CE0176DD2E813F818217930788F0888572
:101530009985892B69F088859985E12CF12C00E04B
:1015400020E030E0A90160E00E9478151986188635
:10155000C501DF91CF911F910F91FF90EF90DF9028
:10156000CF90BF90AF9008954F925F926F927F920D
:101570008F929F92AF92BF92CF92DF92EF92FF92A3
:101580000F931F93CF93DF93EC012B013A01580186
:1015900069018E8580FF05C06894882481F8912CAC
:1015A00002C0812C912CA114B104C104D10439F1E1
:1015B0000FB6F8940F92CE012BDD7C0188169906A8
:1015C00040F060E080E090E00E949A1685D799870D
:1015D00088870F900FBE8E149F04A0F0E12CF12C91
:1015E00000E010E0980140E050E0BA0180E00E9485
:1015F000DA1319861886CE010BDD7C0103C0CE01FB
:1016000007DD7C018E149F04E8F484019701A30197
:10161000B201CE01FBDD6C01892BB1F0C3D28A850A
:101620009B85892B69F08A859B85E12CF12C00E054
:1016300020E030E0A90160E00E9481141B861A8638
:10164000F1D302C0C12CD12CC601DF91CF911F91E3
:101650000F91FF90EF90DF90CF90BF90AF909F9051
:101660008F907F906F905F904F900895E091B316A8
:10167000F091B416808181110CC08FEF9FEFDC01D7
:1016800080937D1690937E16A0937F16B09380165C
:101690000895E091B316F091B4160780F085E02D1F
:1016A00080819181A281B38180937D1690937E1673
:1016B000A0937F16B09380160895CF93DF93EC012B
:1016C0008B8D9C8D0E94B702CE010E94B702DF91E4
:1016D000CF9108954F925F926F927F928F929F92D7
:1016E000AF92BF92CF92DF92EF92FF920F93CF9380
:1016F000DF932C015B014A013901E60165EA70E0E4
:101700008B8D9C8D0E94A22E8B8D9C8D21E0821A48
:101710009108880E991EA114B10489F415C0822F76
:1017200090E0F501E80FF91F3081DE01A80FB91F25
:101730005D963C938081882329F02F5F01C020E0D3
:10174000203168F31CA601C01D8E0A3008F009E0A4
:101750000A8F0DA71EA6CE0102960E940A03CE0193
:101760000E960E940A03DB87CA878AE090E0A0E019
:10177000B0E0801B9109A109B1098E879F87A88BD2
:10178000B98BDF8BCE8B84E0FE01BF96DF011D920B
:101790008A95E9F71BAAA301B201C4010E947E0346
:1017A00099838883E114F10419F0F701D183C08390
:1017B000DF91CF910F91FF90EF90DF90CF90BF908E
:1017C000AF909F908F907F906F905F904F90089513
:1017D000CF93C0E009C02BE0C29FC0011124855304
:1017E000994E0E94F902CF5FCA30A8F380EC96E1CF
:1017F0000E94F90285EB96E10E94F90286EA96E1E1
:101800000E94F9028BE996E10E94F9028FE896E1C5
:101810000E94F90280EC96E19093B4168093B3167F
:1018200085EB96E19093B2168093B116CF9108950F
:10183000CF93DF93EC010FB6F8940F9280918E1640
:101840008F5F80938E168091391790913A17892B6C
:1018500051F4D0933A17C093391780918E16813086
:1018600091F4B6DF10C08091881681110CC0E09110
:101870003917F0913A17928D8A8D891720F0D093FD
:101880003A17C0933917809181168F5F8093811624
:10189000EA8D809189168E1710F4E09389168BE0FB
:1018A0008E9FF0011124E553F94E0180F281E02D65
:1018B000FF83EE832681378139872887A681B78108
:1018C0009E012E5F3F4F15963C932E9314973783BE
:1018D0002683EA8D8E9FF0011124E553F94EFD8792
:1018E000EC8780818F5F80830F900FBE8091881678
:1018F000882351F0E0913917F0913A17928D8A8D33
:10190000981710F40E94C703DF91CF910895CF93E9
:10191000DF931BC00FB6F8940F92E091A216F091DE
:10192000A316C085D185CE0102960E944B038091FB
:101930008E16815080938E1680919A1681508093D6
:101940009A160F900FBECE01B8DE80919A168111C3
:10195000E1CFDF91CF9108958F929F92AF92BF9286
:10196000CF92DF92EF92FF92CF93DF936B017C01D6
:10197000C42F80908A1690908B16A0908C16B090F1
:101980008D168091391790913A1702960E944B0359
:101990008FEFC816D806E806F806B1F5CC23A1F1FA
:1019A000EFE8F6E1A181B281C0913917D0913A17E1
:1019B000BF83AE83C0913917D0913A1716968D9197
:1019C0009C911797998788871696CD91DC911797E8
:1019D0008091391790913A1702969D838C8380915C
:1019E000391790913A17029617969C938E931697F3
:1019F000A0913917B0913A171D96FC93EE931C975E
:101A000080818F5F80833FC0C80CD91CEA1CFB1CFF
:101A1000E0913917F0913A17C282D382E482F582BD
:101A2000C814D904EA04FB0468F460913917709172
:101A30003A178091B1169091B2166E5F7F4F0E9457
:101A40000E0321C06091391770913A178091B31637
:101A50009091B4166E5F7F4F0E940E0380917D16A9
:101A600090917E16A0917F16B0918016C816D90667
:101A7000EA06FB0640F4C0927D16D0927E16E092F4
:101A80007F16F0928016DF91CF91FF90EF90DF905C
:101A9000CF90BF90AF909F908F9008952F923F92DC
:101AA0004F925F926F927F928F929F92AF92BF926E
:101AB000CF92DF92EF92FF920F93CF93DF933C018F
:101AC0001B014A012901CA010E940E026C01892BE7
:101AD00071F084E390E00E940E02EC01892B19F072
:101AE000DC8ECB8E06C0C6010E94B70202C0C0E0E9
:101AF000D0E0209761F0A12CB12C6E019201A401DD
:101B0000B101C301E7DDCE0193DE81E001C08FEFBB
:101B1000DF91CF910F91FF90EF90DF90CF90BF902A
:101B2000AF909F908F907F906F905F904F903F907D
:101B30002F900895EF92FF920F930F2EFBE7EF2E59
:101B4000F6E1FF2EF02D00E020E030E040EC50E028
:101B50006AE972E08DEC90E0A1DF813011F40E941F
:101B60003E178130C9F4F8948FEF9FEFDC0180932A
:101B70007D1690937E16A0937F16B093801681E019
:101B80008093881610928A1610928B1610928C16DB
:101B900010928D160E949503809106020F91FF907E
:101BA000EF90089580917A168F5F80937A1608954A
:101BB0000FB6F8940F9260918A1670918B168091EF
:101BC0008C1690918D160F900FBE0895CF92DF92D4
:101BD000EF92FF92CF93DF9380917A16811105C126
:101BE000C0908A16D0908B16E0908C16F0908D16CF
:101BF0008FEFC81AD80AE80AF80AC0928A16D0925B
:101C00008B16E0928C16F0928D16C114D104E1046B
:101C1000F104B1F48091B3169091B4162091B116ED
:101C20003091B2163093B4162093B3169093B21637
:101C30008093B116809182168F5F8093821616DD95
:101C400080917D1690917E16A0917F16B09180169E
:101C5000C816D906EA06FB0620F480E0B2C081E08F
:101C600001C080E0E091B316F091B416908191111B
:101C70000CC04FEF5FEFBA0140937D1650937E1674
:101C800060937F16709380169CC0E091B316F0911C
:101C9000B4160780F085E02D0084F185E02D4281A7
:101CA000538164817581C416D506E606F70648F4AB
:101CB00040937D1650937E1660937F167093801626
:101CC00080C0A485B585C681D781208531853F83B5
:101CD0002E83C085D185268137813D832C83119643
:101CE0004D915C9112979F012E5F3F4F4217530712
:101CF00031F44085518512965C934E931197158669
:101D000014869C9191509C93A08DB18D109709F1F0
:101D1000C289D389448955895F834E83C489D58913
:101D2000428953895D834C8311966D917C91129702
:101D3000AF01425F5F4F6417750731F444895589DD
:101D400012965C934E931197118E108E9C91915028
:101D50009C93A28D909189169A1710F4A0938916DE
:101D60009BE09A9FD0011124A553B94E11960D9076
:101D7000BC91A02DB783A68316964D915C911797C1
:101D8000518740871696CD91DC9117973D832C8320
:101D900017963C932E931697A28D9A9FD0011124EB
:101DA000A553B94EB587A4879C919F5F9C93228DC4
:101DB000E0913917F0913A17928D291708F04FCF1B
:101DC00051CFE0913917F0913A17E28D9BE0E99FEE
:101DD000F0011124E553F94E9081923008F081E032
:101DE00090918316911116C016C08091841690911F
:101DF0008516A0918616B09187160196A11DB11D7A
:101E00008093841690938516A0938616B0938716B8
:101E100080E001C081E0DF91CF91FF90EF90DF90F3
:101E2000CF900895CF92DF92EF92FF92CF93DF93FE
:101E30000FB6F8940F9280917A16815080937A169B
:101E400080917A168111BEC080918E16811188C052
:101E5000BCC0E091AD16F091AE160084F185E02D86
:101E6000A08DB18DC289D389848995899F838E8302
:101E7000C489D589828993899D838C8311962D91FC
:101E80003C911297CF010E962817390731F48489B7
:101E9000958912969C938E931197118E108E8C912A
:101EA00081508C93A485B585C681D7818085918525
:101EB0009F838E83C085D185868197819D838C8306
:101EC00011968D919C9112979F012E5F3F4F821723
:101ED000930731F48085918512969C938E93119788
:101EE000158614868C9181508C93A28D80918916D1
:101EF0008A1710F4A09389168BE08A9FD0011124D1
:101F0000A553B94E11960D90BC91A02DB783A68311
:101F100016964D915C911797518740871696CD91F3
:101F2000DC9117973D832C8317963C932E9316973D
:101F3000A28D8A9FD0011124A553B94EB587A487DD
:101F40008C918F5F8C93928DA0913917B0913A1735
:101F50005A968C91981730F081E08093831602C0D6
:101F6000E0E0F0E08091A616811173CFEF2B09F02D
:101F70007DDBC0908416D0908516E0908616F09098
:101F80008716C114D104E104F104A1F01FDE8823F7
:101F900019F081E08093831681E0C81AD108E10826
:101FA000F108A1F7109284161092851610928616E9
:101FB0001092871680918316882331F00E94C70300
:101FC00081E003C080E001C080E00F900FBEDF9190
:101FD000CF91FF90EF90DF90CF9008958F929F92D6
:101FE000AF92BF92CF92DF92EF92FF921F93CF9367
:101FF000DF93EC016A017B01D5DD80908A16909019
:102000008B16A0908C16B0908D1688819981AA812C
:10201000BB81AC01BD014C0D5D1D6E1D7F1D881681
:102020009906AA06BB0660F4481759076A077B079A
:1020300098F484169506A606B70680F010E013C043
:10204000481759076A077B0758F084169506A606B5
:10205000B70640F010E007C010E005C011E003C073
:1020600011E001C011E0488359836A837B83112307
:1020700041F0CB01BA01681979098A099B0940E04E
:102080006BDCD0DE811102C00E94C703812FDF917B
:10209000CF911F91FF90EF90DF90CF90BF90AF90C6
:1020A0009F908F900895CF92DF92EF92FF926B01F5
:1020B0007C01672B682B692B39F074DD40E0C70188
:1020C000B6014ADCAFDE01C080E0811102C00E948F
:1020D000C703FF90EF90DF90CF90089580917A161C
:1020E000882321F081E0809383160895109283164F
:1020F000E0913917F0913A1720813181E091391739
:10210000F0913A17838D948D8217930760F0609158
:10211000391770913A17635E7F4F8091391790910C
:102120003A170E94CC198091891601C08150282F3E
:1021300030E09BE0929FF001939FF00D1124E55356
:10214000F94E9081992391F39BE0929FA001939F78
:10215000500D1124DF010180F281E02D0480F58112
:10216000E02D1296FC93EE9311974253594EE417CB
:10217000F50729F444815581FD01528341839BE099
:10218000929FF001939FF00D1124E553F94E0180C9
:10219000F281E02D2085318530933A17209339174D
:1021A000809389160895CF92DF92EF92FF926A0191
:1021B0007B016091391770913A17625F7F4F0E94DF
:1021C0000E0341E0C701B601C7DBFF90EF90DF903F
:1021D000CF900895CF93DF93FC01CB01BA01A18189
:1021E000B281C0913917D0913A17BB8BAA8BC0919D
:1021F0003917D0913A1716964D915C9117975D8BD0
:102200004C8B1696CD91DC911797409139175091D0
:102210003A17425F5F4F5D834C834091391750916D
:102220003A17425F5F4F17965C934E931697A091B3
:102230003917B0913A175996FC93EE93589730811D
:102240003F5F3083222319F06FEF7FEFCB01422FE6
:1022500083DBDF91CF910895CF93DF93DC01179655
:10226000ED91FC9118970084F185E02DA08DB18D42
:10227000C289D389848995899F838E83C489D589AE
:10228000828993899D838C8311968D919C9112975D
:102290009F01225F3F4F8217930731F4848995890C
:1022A00012969C938E931197118E108E8C91815063
:1022B0008C9380917A16811152C0A485B585C68110
:1022C000D781808591859F838E83C085D1858681C6
:1022D00097819D838C8311968D919C9112979F017C
:1022E0002E5F3F4F8217930731F4808591851296B8
:1022F0009C938E931197158614868C9181508C93A4
:10230000A28D809189168A1710F4A09389168BE00C
:102310008A9FD0011124A553B94E11960D90BC91FE
:10232000A02DB783A68316964D915C911797518780
:1023300040871696CD91DC9117973D832C83179695
:102340003C932E931697A28D8A9FD0011124A553FA
:10235000B94EB587A4878C918F5F8C931CC046EAD9
:1023600056E1DA011196CD91DC911297D38BC28B95
:102370008E819F81958B848B8E819F81DC01159648
:102380003C932E9314973F832E83518F408FDA0115
:102390008C918F5F8C93928DE0913917F0913A1761
:1023A000828D891720F481E08093831601C080E03C
:1023B000DF91CF9108950FB6F8940F922091821675
:1023C000FC01208340918A1650918B1660918C16E7
:1023D00070918D1641835283638374830F900FBE77
:1023E000089520918216FC01208340918A16509115
:1023F0008B1660918C1670918D1641835283638386
:10240000748308958F929F92AF92BF92CF92DF9282
:10241000EF92FF920F931F93CF93DF93FB010FB6C1
:10242000F8940F92C0908A16D0908B16E0908C167C
:10243000F0908D16DC0111960D911D912D913C911E
:10244000149746015701801A910AA20AB30A4081E3
:102450005181628173814F3FBFEF5B076B077B0741
:1024600039F1EC01B881A0918216BA1759F0C01663
:10247000D106E206F30630F0108211821282138236
:1024800081E017C084169506A606B70658F44819C9
:1024900059096A097B094083518362837383A1DFF1
:1024A00080E007C0108211821282138281E001C095
:1024B00080E00F900FBEDF91CF911F910F91FF90A1
:1024C000EF90DF90CF90BF90AF909F908F90089546
:1024D00081E08093831608958091391790913A177F
:1024E000089580918816882331F080917A168111A1
:1024F00004C082E0089581E0089580E008950F937C
:102500001F93CF93DF93FC01892B09F477C0828D51
:10251000A0913917B0913A175A969C91891708F0F3
:1025200063C04685578560897189772394F0A091AF
:102530003917B0913A175A969C914AE050E060E002
:1025400070E0491B51096109710946875787608B03
:10255000718B248535854BE0849FC0011124855300
:10256000994E28173907B9F5EF018F010E5F1F4FFC
:10257000C8010E944B03E0913917F0913A17E28DA0
:10258000EA8F809189168E1710F4E09389168BE0FC
:102590008E9FF0011124E553F94E0180F281E02D68
:1025A000FF83EE832681378139872887A681B7810B
:1025B00015961C930E93149717830683EA8D8E9FAE
:1025C000F0011124E553F94EFD87EC8780818F5F80
:1025D000808381E016C0A0913917B0913A175A96BE
:1025E0008C91828F81E00DC095A5E0913917F09113
:1025F0003A17828D981720F080E003C080E001C078
:1026000081E0DF91CF911F910F9108950F931F9358
:10261000CF93DF93FC01892B09F449C086A5815033
:1026200086A7228D95A5291709F443C0811143C0BF
:10263000EF018F010E5F1F4FC8010E944B03EDA5F4
:10264000EA8F8AE090E0A0E0B0E08E1B9109A1093A
:10265000B1098E879F87A88BB98B809189168E17B9
:1026600010F4E09389168BE08E9FF0011124E5535E
:10267000F94E0180F281E02DFF83EE8326813781C0
:1026800039872887A681B78115961C930E931497D6
:1026900017830683EA8D8E9FF0011124E553F94ECE
:1026A000FD87EC8780818F5F808381E005C080E0BB
:1026B00003C080E001C080E0DF91CF911F910F91B6
:1026C00008950F931F93CF93DF93FC01892B09F497
:1026D0005AC085A5861708F4862F928D891709F4AC
:1026E00052C026A5213009F04EC0828F46855785FD
:1026F00060897189772364F04AE050E060E070E01F
:10270000481B51096109710946875787608B718B96
:10271000248535854BE0949FC00111248553994E43
:102720002817390781F5EF018F010E5F1F4FC80190
:102730000E944B03EA8D809189168E1710F4E09366
:1027400089168BE08E9FF0011124E553F94E01802C
:10275000F281E02DFF83EE83268137813987288738
:10276000A681B78115961C930E9314971783068341
:10277000EA8D8E9FF0011124E553F94EFD87EC8719
:1027800080818F5F8083DF91CF911F910F9108959A
:102790008091391790913A17892B39F0E0913917C8
:1027A000F0913A1786A58F5F86A78091391790918F
:1027B0003A1708954F925F926F927F92AF92BF92B5
:1027C000CF92DF92EF92FF920F931F93CF93DF93FD
:1027D000280139010FB6F8940F92E0913917F09162
:1027E0003A17C82FD0E0EC0FFD1F83A9823071F19A
:1027F000E0913917F0913A17CE01880F991F880F91
:10280000991FE80FF91F87A590A9A1A9B2A9409522
:10281000509560957095482359236A237B2347A7D9
:1028200050AB61AB72ABE0913917F0913A17EC0FF6
:10283000FD1F81E083ABA114B104C104D10431F0C8
:1028400041E0C601B50188D80E94C7030F900FBEB2
:102850000FB6F8940F92E114F104A1F0E09139174A
:10286000F0913A17CE01880F991F880F991FE80F32
:10287000F91F87A590A9A1A9B2A9F7018083918327
:10288000A283B383E0913917F0913A17EC0FFD1F43
:1028900083A98230E9F4E0913917F0913A17CE011B
:1028A000880F991F880F991FE80FF91F87A590A916
:1028B000A1A9B2A9409450946094709448225922DE
:1028C0006A227B2247A650AA61AA72AA81E001C0AF
:1028D00080E02091391730913A17C20FD31F1BAAFD
:1028E0000F900FBEDF91CF911F910F91FF90EF904E
:1028F000DF90CF90BF90AF907F906F905F904F90A0
:1029000008958F929F92AF92BF92EF92FF920F9392
:10291000CF93DF93DC010FB6F8940F92E114F1042A
:1029200089F0E62FF0E0EE0FFF1FEE0FFF1FE80F1C
:10293000F91F87A490A8A1A8B2A8F701808291826C
:10294000A282B38270E0FD01E60FF71F83A992E037
:1029500093AB023001F118F4013031F04DC0033077
:1029600079F10430D1F148C0660F771F660F771FE9
:10297000FD01E60FF71F87A490A8A1A8B2A8BA018D
:10298000A901482959296A297B2947A750AB61AB7E
:1029900072AB01E034C0660F771F660F771FFD0131
:1029A000E60FF71F47A550A961A972A94F5F5F4FB6
:1029B0006F4F7F4F47A750AB61AB72AB01E01FC0B9
:1029C000660F771F660F771FFD01E60FF71F27A71A
:1029D00030AB41AB52AB01E012C0823079F0660FF0
:1029E000771F660F771FFD01E60FF71F27A730AB94
:1029F00041AB52AB01E003C001E001C000E0813017
:102A000009F069C01C96ED91FC911D971696CD9129
:102A1000DC91179718968D919C9119979F838E83BF
:102A20001896CD91DC91199716968D919C911797D8
:102A30009D838C83818192819D012E5F3F4F821700
:102A4000930731F418968D919C9119979283818305
:102A50001D961C921E921C978081815080835A96ED
:102A6000EC915A97809189168E1710F4E09389168D
:102A70008BE08E9FF0011124E553F94E0180F28125
:102A8000E02D1796FC93EE93169746815781199681
:102A90005C934E931897C681D7813D832C833783EF
:102AA00026835A96EC915A978E9FF0011124E55394
:102AB000F94E1D96FC93EE931C9780818F5F808367
:102AC0005A969C91E0913917F0913A17828D8917A7
:102AD00010F40E94C7030F900FBE802FDF91CF919B
:102AE0000F91FF90EF90BF90AF909F908F900895BF
:102AF0008F929F92AF92BF92CF92DF92EF92FF920E
:102B00000F93CF93DF93DC01E114F10489F0E62FFA
:102B1000F0E0EE0FFF1FEE0FFF1FE80FF91F87A475
:102B200090A8A1A8B2A8F70180829182A282B38264
:102B300070E0FD01E60FF71F93A982E083AB02303E
:102B400001F118F4013031F04DC0033079F1043057
:102B5000D1F148C0660F771F660F771FFD01E60FA2
:102B6000F71F87A490A8A1A8B2A8BA01A901482973
:102B700059296A297B2947A750AB61AB72AB81E029
:102B800034C0660F771F660F771FFD01E60FF71F32
:102B900047A550A961A972A94F5F5F4F6F4F7F4F43
:102BA00047A750AB61AB72AB81E01FC0660F771FC8
:102BB000660F771FFD01E60FF71F27A730AB41AB6C
:102BC00052AB81E012C0923079F0660F771F660F2A
:102BD000771FFD01E60FF71F27A730AB41AB52ABC4
:102BE00081E003C081E001C080E0913009F096C02F
:102BF00090917A1691115FC01C96ED91FC911D97F2
:102C00001696CD91DC91179718962D913C911997B6
:102C10003F832E831896CD91DC91199716962D91AE
:102C20003C9117973D832C83418152819D012E5FFA
:102C30003F4F4217530731F418964D915C91199705
:102C4000528341831D961C921E921C979081915035
:102C500090835A96EC915A97909189169E1710F48A
:102C6000E09389169BE09E9FF0011124E553F94EF5
:102C70000180F281E02D1796FC93EE931697468122
:102C8000578119965C934E931897C681D7813D83DF
:102C90002C83378326835A96EC915A979E9FF00196
:102CA0001124E553F94E1D96FC93EE931C979081E9
:102CB0009F5F908321C066EA76E1FB01C181D281EA
:102CC0005396DC93CE9352972E813F8155963C9339
:102CD0002E9354974E815F819D01225F3F4FFA01F1
:102CE000358324833F832E8359967C936E93589724
:102CF000FB0190819F5F90835A962C91E091391748
:102D0000F0913A17928D921748F4C114D10419F03A
:102D100091E0F601908391E090938316DF91CF913B
:102D20000F91FF90EF90DF90CF90BF90AF909F906A
:102D30008F900895009721F48091391790913A1758
:102D40000FB6F8940F9270E0FC01E60FF71F23A96D
:102D5000223031F4FC01E60FF71F13AA81E001C015
:102D600080E00F900FBE0895DC01E0914517F091CF
:102D70004617808191E0811190E09C93911108C0E9
:102D80000780F085E02D60817181828193810895B3
:102D900060E070E0CB010895CF92DF92EF92FF9256
:102DA0000F931F93FC01428353836483758393873E
:102DB00082870417150726073707C0F00C191D096D
:102DC0002E093F0986859785A089B18908171907BB
:102DD0002A073B0700F5BF016E5F7F4F80914317C5
:102DE000909144170E940E0380E018C00C151D0539
:102DF0002E053F0528F44C155D056E057F0568F42A
:102E0000BF016E5F7F4F80914517909146170E94DA
:102E10000E0380E003C081E001C081E01F910F91AB
:102E2000FF90EF90DF90CF9008950FB6F8940F9237
:102E30008091411790914217892BE9F482E597E13F
:102E40000E94F90287E497E10E94F90282E597E186
:102E5000909346178093451787E497E19093441722
:102E60008093431740E067E08AE00E94BC0590939E
:102E70004217809341170F900FBE0895EF92FF9273
:102E80000F93D3DF8091411790914217892B91F0D6
:102E90000F2EFFE3EF2EF7E1FF2EF02D03E020E0F1
:102EA00030E040EC50E06FE972E087ED90E00E9486
:102EB0004E0D01C080E00F91FF90EF9008958F922A
:102EC0009F92AF92BF92CF92DF92EF92FF920F93B9
:102ED0001F93CF93DF93CDB7DEB727970FB6F89444
:102EE000DEBF0FBECDBFE0914117F0914217309782
:102EF00081F169832A833B834C835D839F838E8327
:102F00006630F4F4EEDA823069F400E0A70196014D
:102F1000BE016F5F7F4F80914117909142170E94D1
:102F2000DF0518C000E020E030E0A901BE016F5FBE
:102F30007F4F80914117909142170E94DF050AC090
:102F400020E0A801BE016F5F7F4FCF010E94710694
:102F500001C080E027960FB6F894DEBF0FBECDBF4C
:102F6000DF91CF911F910F91FF90EF90DF90CF9065
:102F7000BF90AF909F908F9008958F929F92AF9245
:102F8000BF92CF92DF92EF92FF920F931F93CF9356
:102F9000DF933BC00780F085E02D80809180A28088
:102FA000B380C085D1858E010E5F1F4FC8010E947E
:102FB0004B03EC89FD89CE0119958E8982FF25C0CE
:102FC0008E859F85A889B989880D991DAA1DBB1D6D
:102FD00088169906AA06BB0670F48A839B83AC8385
:102FE000BD83DB87CA87B80180914517909146174A
:102FF0000E940E030AC0C12CD12C760100E010E023
:10300000A501940160E0CE015ADFE0914517F091EF
:10301000461780818111BECF80914317909144174C
:103020009093461780934517F0934417E093431706
:10303000DF91CF911F910F91FF90EF90DF90CF9094
:10304000BF90AF909F908F900895CF92DF92EF92B4
:10305000FF92CF93DF93EC010E94D80D6B017C01AE
:1030600080913B1790913C17A0913D17B0913E176E
:10307000C816D906EA06FB0620F47FDF81E08883C4
:1030800001C01882C0923B17D0923C17E0923D17C6
:10309000F0923E17C701B601DF91CF91FF90EF90FC
:1030A000DF90CF9008954F925F926F927F928F92B0
:1030B0009F92AF92BF92CF92DF92EF92FF920F93C7
:1030C0001F93CF93DF934B015C0129013A01E091FB
:1030D0004517F09146170780F085E02DC085D18512
:1030E000CE0102960E944B038E8982FF1BC04E8543
:1030F0005F8568897989480D591D6A1D7B1D750199
:10310000640193018201CE0147DE882369F0C12C5E
:10311000D12C760100E010E0A501940160E0CE0121
:10312000CEDE02C08E7F8E8BEC89FD89CE01199593
:10313000DF91CF911F910F91FF90EF90DF90CF9093
:10314000BF90AF909F908F907F906F905F904F90C7
:1031500008958F929F92AF92BF92CF92DF92EF929B
:10316000FF921F93CF93DF931F92CDB7DEB76B0112
:103170007C01142F0E94D20DCE01019666DF4B0117
:103180005C01898181112DC011110DC08C149D0429
:10319000AE04BF0440F00E94120FA5019401C701C4
:1031A000B60181DF20C0112341F0E0914317F09177
:1031B0004417808111E0811110E0B701A601481980
:1031C00059096A097B09212F809141179091421773
:1031D0000E94EC070E94120F811105C00E94C703D4
:1031E00002C00E94120F0F90DF91CF911F91FF90AC
:1031F000EF90DF90CF90BF90AF909F908F90089509
:10320000AF92BF92CF92DF92EF92FF920F931F93F4
:10321000CF93DF93CDB7DEB728970FB6F894DEBF14
:103220000FBECDBF82C0898188230CF47EC0AE80E2
:10323000BF80D5011C968D919C911D97892B21F003
:10324000C50102960E944B03CE010896FEDE8B015B
:103250009C01E9810E2E000CFF0BEA30F10508F00D
:1032600064C08827EE58FF4F8F4F0C94522DF50104
:1032700086898160868BCA80DB80EC80FD804685F4
:103280005785608971894C0D5D1D6E1D7F1DC501BF
:1032900083DD882309F449C0D5015496ED91FC9152
:1032A0005597C5011995F501868982FF3EC04A816F
:1032B0005B816C817D8186859785A089B1899A0122
:1032C000AB01280F391F4A1F5B1FC12CD12C76017F
:1032D00000E010E060E0C501F2DD27C0D5015696A0
:1032E0008C9156978E7F56968C931FC0F5018689D8
:1032F0008160868B4A815B816C817D81468757879F
:10330000608B718B400F511F621F731F6801790121
:10331000C50142DD0AC0F501868981FD04C0C501F1
:103320000E94B70202C08E7F868B20E030E0A901A8
:10333000BE016F5F7F4F80914117909142170E94AD
:10334000AC06811170CF28960FB6F894DEBF0FBE81
:10335000CDBFDF91CF911F910F91FF90EF90DF9044
:10336000CF90BF90AF900895089584B1806884B9DC
:1033700085B1806885B9089583B1806883B908955F
:10338000F4DF2FEF80E792E0215080409040E1F79A
:1033900000C00000F1DFF5CFE8DF2FEF87EA91E60C
:1033A000215080409040E1F700C00000E5DFF5CFFC
:1033B0000F93CF93DF931F921F92CDB7DEB79A83FF
:1033C00089838A818F9389818F9387EA92E09F9383
:1033D0008F9381ED98E19F938F930E943B2F81ED16
:1033E00098E149D300E02FEF3FEFA901BE016F5FE5
:1033F0007F4F80914319909144190E94DF050F90EF
:103400000F900F900F900F900F900F900F90DF91F3
:10341000CF910F91089540E062E08AE00E94BC05E0
:10342000909344198093431908950E94EE238111CB
:1034300005C088ED99E10C94E923089586EC92E0AB
:103440000C940B2F0895CF93DF931F921F92CDB74B
:10345000DEB72CED35E040E050E0BE016F5F7F4FFE
:1034600080914319909144190E94AC068A818F93F0
:1034700089818F9383ED92E09F938F9381ED98E103
:103480009F938F930E943B2F81ED98E1F4D20F9090
:103490000F900F900F900F900F9089819A810F904D
:1034A0000F90DF91CF91089540E062E08AE00E94A2
:1034B000BC05909348198093471940E062E08AE088
:1034C0000E94BC05909346198093451908950F9367
:1034D000CF93DF931F921F92CDB7DEB79A83898374
:1034E0008A818F9389818F9385EF92E09F938F9349
:1034F00081ED98E19F938F930E943B2F81ED98E19E
:10350000BAD200E02FEF3FEFA901BE016F5F7F4FFE
:1035100080914719909148190E94DF050F900F90F4
:103520000F900F900F900F900F900F90DF91CF9111
:103530000F9108950F93CF93DF931F921F92CDB7F2
:10354000DEB79A8389838A818F9389818F938CE1F7
:1035500093E09F938F9381ED98E19F938F930E94C7
:103560003B2F81ED98E187D200E02FEF3FEFA901DB
:10357000BE016F5F7F4F80914519909146190E945F
:10358000DF050F900F900F900F900F900F900F90FE
:103590000F90DF91CF910F910895EF92FF920F93CB
:1035A0001F93CF93DF9300D01F92CDB7DEB70E9459
:1035B000D80D69837A838B839C83CAD3882321F0B7
:1035C00080E493E00E940B2F43E050E060E070E065
:1035D000CE0101960E94EE0FD0D3882321F080E522
:1035E00093E00E940B2F40E050E0BA01CE0101961B
:1035F0000E94EE0FD3D312D38B01E5D30AD37B0104
:103600000036110588F085E6E816F1046CF040E01C
:1036100050E0BA01CE0101960E94EE0FBFD3FED258
:103620008B01D1D3F6D27B01C80184DFC7014FDF04
:103630000F900F900F900F90DF91CF911F910F91EE
:10364000FF90EF900895CF93DF931F921F92CDB715
:10365000DEB72CED35E040E050E0BE016F5F7F4FFC
:1036600080914719909148190E94AC068A818F93E6
:1036700089818F9381E693E09F938F9381ED98E109
:103680009F938F930E943B2F81ED98E1F4D10F908F
:103690000F900F900F900F900F9089819A810F904B
:1036A0000F90DF91CF910895CF93DF931F921F92D8
:1036B000CDB7DEB72CED35E040E050E0BE016F5FE6
:1036C0007F4F80914519909146190E94AC068A81DE
:1036D0008F9389818F938BE893E09F938F9381EDF4
:1036E00098E19F938F930E943B2F81ED98E1C3D186
:1036F0000F900F900F900F900F900F9089819A81EB
:103700000F900F90DF91CF9108950F931F93CF9358
:10371000DF93CDB7DEB764970FB6F894DEBF0FBE68
:10372000CDBF81E00E942A29D6D452D79F938F9390
:1037300082EB93E09F938F930E94F82E4AD648D74E
:103740009F938F9385EC93E09F938F930E94F82E25
:103750008E010F5F1F4FC801D0D43AD71F930F932C
:103760009F938F938EED93E09F938F930E94F82EFB
:10377000C801DFD42DD79F938F931F930F9382EFB0
:1037800093E09F938F930E94F82EA80167E074E066
:1037900088E294E0FCD61CD79F938F931F930F93DE
:1037A00087E094E09F938F9388E294E09F938F93B8
:1037B00089E394E09F938F930E94F82EEDD408D76D
:1037C0009F938F938FE694E09F938F930E94F82EA0
:1037D0000FB6F894DEBF0FBECDBF81E0D7D5F8D6C7
:1037E0009F938F938EE794E09F938F930E94F82E80
:1037F00084EF91E0D6D5ECD69F938F9381E08F93A1
:1038000084EF8F938FE994E09F938F930E94F82E1B
:103810000FB6F894DEBF0FBECDBF1AE080E0C2D471
:10382000082FD6D69F938F931F921F938FEB94E010
:103830009F938F930E94F82E0F900F900F900F90F0
:103840000F900F90083059F080E00E948E2966E3B7
:1038500071E080E090E00E9453101150F9F60830BA
:1038600041F48FED94E00E940B2F81E00E947029BB
:1038700009C081E00E947F2980E00E944D290E94BA
:10388000C703FDCF64960FB6F894DEBF0FBECDBF61
:10389000DF91CF911F910F910895CF93DF9300D0C7
:1038A0001F92CDB7DEB781E008D462E070E080E01F
:1038B00090E00E94531080E000D466E970E080E060
:1038C00090E00E945310B2D320DFEDE5F7E188E0ED
:1038D000818382E080830E94D80D69837A838B8301
:1038E0009C8388EF94E00E940B2F48EA58E460E044
:1038F00070E0CE0101960E94EE0F0E948D018C01B6
:10390000DC0113968C9113978F9312968C911297DA
:103910008F9311968C9111978F938C918F9315960D
:103920008C9115978F9314968C918F938BE095E0E3
:103930009F938F930F2EF1EDEF2EF8E1FF2EF02DD8
:10394000FF92EF920E943B2FC70195D0EDE5F7E182
:10395000128281E08383D80111968C911197848320
:103960008C91858315968C911597868314968C91EE
:103970001497878313968C911397808712968C9156
:10398000818783E00E94A0296DE577E180E033D450
:103990001FD69F938F9386E395E09F938F93FF921B
:1039A000EF920E943B2FC70166D00FB6F894DEBF9E
:1039B0000FBECDBF96CFCF93DF93CDB7DEB766975F
:1039C0000FB6F894DEBF0FBECDBF81E076D362E0C4
:1039D00070E080E090E00E94531080E06ED366E9D2
:1039E00070E080E090E00E94531020D382E0898351
:1039F00084E08A830FEF1FEF980146E150E0BE019B
:103A00006F5F7F4F8091491990914A190E94B40AC3
:103A10009A8189811F929F931F928F938BE495E0E7
:103A20009F938F930E94F82E0F900F900F900F90FE
:103A30000F900F90DFCFEF92FF920F93CF93E12C77
:103A4000F12C082F20E030E048E851E06CE775E009
:103A50008DE49CE10E944E0D20E030E048E851E00A
:103A600063E875E08BED9CE10E944E0DCF910F91C4
:103A7000FF90EF9008950F93CF93DF93C82FD92F26
:103A800044E650E060E070E08091CF189091D0184B
:103A90000E943B07813099F4DF93CF930E94F82E68
:103AA00000E020E030E0A90160E070E08091CF18F4
:103AB0009091D0180E94DF050F900F9004C08EE8FF
:103AC00095E00E940B2FDF91CF910F9108950F93F6
:103AD00043E060E081E00E94BC059093D0188093A1
:103AE000CF1800E020E030E0A90160E070E00E9423
:103AF000DF050F910895CF93DF9300D01F92CDB7CC
:103B0000DEB70E94D80D69837A838B839C834DE74F
:103B100050E060E070E0CE0101960E94EE0F3DDDC6
:103B200084DCF5CFCF93DF9300D01F92CDB7DEB703
:103B30000E94D80D69837A838B839C834FE555E07F
:103B400060E070E0CE0101960E94EE0F0E9411012C
:103B5000F5CFEF92FF920F93E12CF12C00E020E0E3
:103B600030E040EC50E06EEA75E08BE79DE10E94AA
:103B70004E0D20E030E040EC50E06AEB75E082E969
:103B80009DE10E944E0D0F91FF90EF900895E1DFAF
:103B90000E94F4029F938F938AEC95E09F938F93FA
:103BA00081ED98E19F938F930E943B2F0E949A0D85
:103BB0000F900F900F900F900F900F90089581B17C
:103BC000816881B980E090E00E94D52724DC6CDC1C
:103BD0000E94080183E0D8D5A3D085E00E94DC28AC
:103BE00041E060E070E086E190E00E944B09909334
:103BF0004A1980934919BC0181E01FD283E01BCF91
:103C00000895DDDF64DF89ED95E00E940B2FBFDFB3
:103C1000FFCF04D06894B11150C0089533D088F01C
:103C20009F5790F0B92F9927B751A0F0D1F0660FA8
:103C3000771F881F991F1AF0BA95C9F712C0B130C3
:103C400081F03AD0B1E0089537C0672F782F8827E8
:103C5000B85F39F0B93FCCF3869577956795B39502
:103C6000D9F73EF490958095709561957F4F8F4F71
:103C70009F4F089557FD9058440F551F59F05F3FCF
:103C800071F04795880F97FB991F61F09F3F79F07E
:103C900087950895121613061406551FF2CF469500
:103CA000F1DF08C0161617061806991FF1CF869582
:103CB0007105610508940895E894BB276627772766
:103CC000CB0197F908956530F1F4FA0180818F7383
:103CD00090E0982F88272181822B90930A0280936D
:103CE00009028281F0E48F9FC0011124FA0123812F
:103CF00026952695822B909308028093070281E0F7
:103D0000809373170895643051F080E090E49093AD
:103D100008028093070290930A0280930902089593
:103D20000F931F9303E61EE120E034E244EF50E0DE
:103D300060E087E20E94C3299093751780937417FF
:103D400021E0892B09F020E0822F1F910F91089527
:103D50008091741790917517009759F040E060E0DA
:103D600070E00E94142A843031F41092731780E0BE
:103D7000089582E0089583E00895809174179091EA
:103D80007517009739F064E00E94602A853021F0B1
:103D900083E0089582E0089580E00895609109022B
:103DA00070910A0280E090E00E943E2C20E030E01A
:103DB00048EC52E40E94A32C20E038EF4FE756E491
:103DC0000C94D32B0895609107027091080280E053
:103DD00090E00E943E2C20E030E045E253E40E9457
:103DE000A32C20E038EF4FE756E40E94D32B20E0CD
:103DF00030E040E252E40C946C2B08950F931F9333
:103E0000CF93DF931F921F92CDB7DEB78C0119823B
:103E10002DC0E091DA17EC3250F481E08E0F8093E0
:103E2000DA17F0E0E45FF74E8A81808302C01092D7
:103E3000DA178A818A30D1F44091DA1750E0FA011A
:103E4000E65FF74E1082415051099E012F5F3F4FB0
:103E50006CE078E18091DD179091DE170E94700A86
:103E6000898181110E94C7031092DA17BE016E5F2B
:103E70007F4FC80104D6882361F20F900F90DF9125
:103E8000CF911F910F9108950F931F93CF93DF93BD
:103E90008C01EB018091DD179091DE170E947D0966
:103EA000B80186E797E10E94D92E209779F0E6E7DE
:103EB000F7E101900020E9F7319780E290E09183EB
:103EC0008083BE0186E797E10E94CE2EE6E7F7E108
:103ED000DF010D900020E9F711978DE09AE011962F
:103EE0009C938E9312961C9201900020E9F73197D3
:103EF000E657F741AE2F86E797E1AC016A2F809134
:103F0000DF179091E01766D5811111C008E215E026
:103F100020E030E04DE250E066E678E18091DD1788
:103F20009091DE170E94B40A86E698E102C080E014
:103F300090E0DF91CF911F910F9108952F923F92C2
:103F40004F925F926F927F928F929F92AF92BF92A9
:103F5000CF92DF92EF92FF920F931F93CF93DF9355
:103F60005C01FC0101900020E9F731976F01C81A4C
:103F7000D90A5C2C0F2EF3E88F2EF8E09F2EF02D3F
:103F8000E12CF12C4C2C3701F40101811281E80164
:103F900009900020E9F72197C01BD10B3C2EF9E0D6
:103FA000CF16D10458F0F4012080FEE02F1206C095
:103FB000B801C5010E94A92E892B09F5442D35149D
:103FC00008F44C2F50E0B801C5010E94E02E892B67
:103FD00049F4F301EE0FFF1FE60DF71DED57F74F04
:103FE00020800DC08FEFE81AF80AE3E08E0E911CD6
:103FF000F1E1EF16F10439F66894222424F8822DB9
:10400000DF91CF911F910F91FF90EF90DF90CF90B4
:10401000BF90AF909F908F907F906F905F904F90E8
:104020003F902F90089530DF89CF08958091DD175C
:104030009091DE170C947D0908958F929F92AF9214
:10404000CF92EF920F931F93CF93C82F8B0141E034
:1040500060E070E088EC90E00E944B099093DE17DE
:104060008093DD171093DC170093DB170F2EFEEF04
:104070008F2EFEE19F2EF02D6894AA24A6F8689456
:10408000CC24C6F8E12C00E023E040E051EE60E0F3
:1040900070E08C2FD2D39093E0178093DF17E7E086
:1040A000F1E0808180618083CF911F910F91EF902B
:1040B000CF90AF909F908F900895882331F0E8E0E3
:1040C000F1E080818F7E80830895E8E0F1E08081D7
:1040D00080618083089560E070E089E096E0D4DE3E
:1040E000E6E6F8E101900020E9F73197E656F8415D
:1040F00081E0759708F080E00895CF93DF93EC019D
:1041000060E070E08AE196E0BFDEE6E6F8E101906B
:104110000020E9F7E757F84139F466E678E1CE0187
:104120000E94D92E80E002C0188281E0DF91CF91F9
:104130000895FC0101900020E9F79F012151310908
:104140002817390729F4BC0188E496E06CCF08955C
:1041500089E00895FC0101900020E9F79F012151B9
:1041600031092817390729F4BC0187E596E05BCFB0
:10417000089589E00895FC0101900020E9F79F016E
:10418000215231092817390729F4BC0186E696E047
:104190004ACF089589E0089560E070E085EA96E0EE
:1041A00042CF08950F931F93E82FF0E0EE0FFF1F0B
:1041B000E158F74F608171818EEA96E034DF81111A
:1041C00014C008E215E020E030E04DE250E066E681
:1041D00078E18091DD179091DE170E94B40A882360
:1041E00021F086E698E1AADE03C086E698E1A6DE25
:1041F0001F910F9108950F931F93CF93DF931F92F9
:10420000CDB7DEB7DB0111969C911197953108F07F
:10421000B4C0992381F160E070E0272F30E0462F91
:1042200050E0FD01E40FF51F928192959F709A3046
:1042300010F0995C01C0905DF901E950F84E90834F
:104240002F5F3F4FFD01E40FF51F92819F70492FB3
:1042500050E04A30510514F0995C01C0905DF901BD
:10426000E950F84E90837E5F6F5F11969C91119795
:10427000691798F201C070E0E72FF0E0E950F84EBE
:1042800010824C91811103C087EB96E002C089EB4C
:1042900096E027EF37E13F932F931F924F939F9321
:1042A0008F938DEB96E09F938F9389E398E19F9393
:1042B0008F930E943B2F60E070E089E398E1B3DECA
:1042C0000FB6F894DEBF0FBECDBF811159C008E212
:1042D00015E020E030E04DE250E066E678E18091C4
:1042E000DD179091DE170E94B40A882309F447C0B5
:1042F00086E698E123DE8E3009F042C087E08983AC
:104300008091DB179091DC17892BA9F1BE016F5FBB
:104310007F4F86E698E168D18093E117E981F0E06C
:10432000EA59F74EDF010D900020E9F71197AE1B17
:10433000BF0BAA2391F0BB27CD0101979C0112F47A
:104340002F5F3F4F359527952093E217AF014F5FC1
:104350005F4F64E183EE97E173D101E010E020E06C
:1043600030E046E150E061EE77E18091DB1790911B
:10437000DC170E94AD098EE003C084E101C080E03B
:104380000F90DF91CF911F910F910895813019F017
:104390006DEC76E002C066EA77E081ED96E043CE10
:1043A00008959F938F9382E097E09F938F9389E383
:1043B00098E19F938F930E943B2F60E070E089E328
:1043C00098E131DE0F900F900F900F900F900F90AB
:1043D00008952F923F924F925F926F927F928F92A9
:1043E0009F92AF92BF92CF92DF92EF92FF920F9384
:1043F0001F93CF93DF93CDB7DEB7A0970FB6F89496
:10440000DEBF0FBECDBF6FE277E08BE397E03CDD10
:1044100095DD8111A3C080E2E2E2F2E0DE011196B7
:1044200001900D928A95E1F79E012F5F3F4F690140
:10443000E12CF12C0F2EF7E4AF2EF7E0BF2EF02D7C
:1044400009E318E10F2EF0E64F2EF7E05F2EF02D76
:104450000F2EF7E78F2EF7E09F2EF02D0F2EF1E9AC
:104460006F2EF7E07F2EF02D3E2C2F2CFF92EF9237
:10447000BF92AF921F930F930E943B2F60E070E0BA
:10448000C80102DD5BDD0F900F900F900F900F9031
:104490000F90811163C032E03E15E8F4F60183818C
:1044A0008F9382818F9381818F9380818F93FF92ED
:1044B000EF925F924F921F930F930E943B2F60E009
:1044C00070E0C801E1DC3ADD0FB6F894DEBF0FBE44
:1044D000CDBF811143C02F923F929F928F921F9325
:1044E0000F930E943B2F60E070E0C801CDDC26DD19
:1044F0000F900F900F900F900F900F9081112EC082
:104500002F923F927F926F921F930F930E943B2FA7
:1045100060E070E0C801B8DC11DD0F900F900F90E3
:104520000F900F900F90811119C03FEFE31AF30A1B
:1045300084E0C80ED11C98E0E916F10409F094CF8C
:1045400060E070E089EA97E09FDCF8DC811106C04A
:1045500060E070E08AEB97E097DCF0DCA0960FB6A5
:10456000F894DEBF0FBECDBFDF91CF911F910F91A9
:10457000FF90EF90DF90CF90BF90AF909F908F9083
:104580007F906F905F904F903F902F900895EF92A3
:10459000FF920F931F93CF93DF93EC018B017A016E
:1045A00081E0F4DE81110DC0CE01D4DD811109C09E
:1045B000C801E1DD811105C0C701BBDD811101C06A
:1045C000EBDDDF91CF911F910F91FF90EF90089558
:1045D00090E0FC01EE0FFF1F8E0F9F1FFC01ED57B7
:1045E000F74F818192810895DC01009729F1FB0149
:1045F0002081FC0101900020E9F73197E81BF90BBD
:10460000822F90E0E817F907C8F080E008C0880F13
:10461000382F330F330F830F8053890F2F5FFD0126
:10462000E20FF11D908130ED390F3A3010F4911105
:10463000EECFFB012083089580E0089580E0089587
:104640000F931F93CF93DF93DC01EA012097E1F1F1
:10465000FA0101900020E9F73197E41BF50B32973E
:1046600010F532C08D01040F151F30E0AE01420F6E
:10467000531FFA019081913428F09753592F529586
:10468000507F03C0592F5295507F2C0F3D1FF901C9
:104690009181913410F0975301C09053950FF80118
:1046A00090838F5F01C080E0282F220F482F50E0B9
:1046B000FE0101900020E9F73197EC1BFD0B4E172E
:1046C0005F0710F48613CECFDF91CF911F910F912A
:1046D000089580919618860F809396189091991856
:1046E000913079F028F09230A9F0933019F10895C3
:1046F0006F3F09F048C01092961881E08093991896
:104700000895663809F03FC01092951882E08093B2
:1047100099180895E091951881E08E0F809395186F
:10472000F0E0ED56F74E6083823069F583E08093C8
:10473000991808959091951821E0290F20939518C4
:10474000963009F581110EC0E3E9F8E1808190E02F
:10475000982F88272181820F911D90939B18809319
:104760009A1804C010929B1810929A1810929918D7
:10477000E0919718F0919818309729F080919A1845
:1047800090919B18199508958F929F92AF92CF9216
:10479000EF920F930F2EF9E68F2EF3E29F2EF02D5E
:1047A0006894AA24A4F86894CC24C4F8E12C00E00E
:1047B00023E040E855E260E070E03FD090939D1820
:1047C00080939C180F91EF90CF90AF909F908F9017
:1047D000089590939818809397180895CF93DF9336
:1047E000CDB7DEB729970FB6F894DEBF0FBECDBFA9
:1047F00089E0E2E4F2E09E012F5F3F4FD901019092
:104800000D928A95E1F710929B1810929A18809158
:104810009C1890919D18009731F0422F532F69E01A
:10482000D9D080E001C082E029960FB6F894DEBFAF
:104830000FBECDBFDF91CF9108952F923F924F923F
:104840005F926F927F928F929F92AF92CF92EF92F0
:10485000FF920F931F93CF93DF93CDB7DEB7F82E60
:104860002A013B0188E090E00E94742D8C018F2D7D
:1048700090E0FC01EE0FFF1FE256F74E118300831C
:104880000115110509F469C0880F991FFC01E55F46
:10489000FD4F80819181D8018D939C936C2D70E0A8
:1048A00084E090E00E945A2D1C0161E070E086E0F7
:1048B00090E00E945A2D7C014C2DB101F1D6F801F7
:1048C000F582E4826A2D70E084E090E00E945A2D27
:1048D0001C0161E070E086E090E00E945A2D7C01AE
:1048E0004A2DB101DDD6D8011396FC92EE921297B3
:1048F00017969C928E921697FFB6F894ED91FC91C4
:10490000119736978081826080838D909C90C3013F
:10491000B201B4D720E030E040E051E40E94A32C83
:104920009B01AC0160E074E284E79BE43CD720E0AB
:1049300030E040E85FE3D0D671D9F401329760836C
:10494000D801ED91FC911197359788E98083ED911D
:10495000FC91349786E08083FFBEC801DF91CF9140
:104960001F910F91FF90EF90CF90AF909F908F90FD
:104970007F906F905F904F903F902F900895CF93CE
:10498000DF93DC01892B01F11296ED91FC911397D5
:10499000938182812581981B922384819817B1F09D
:1049A000838126952823C081D181C20FD11D6883C0
:1049B0008F5F958189238383ED91FC913597808169
:1049C0008062808380E003C081E001C082E0DF91EB
:1049D000CF910895EF92FF920F931F93CF93DF93A0
:1049E0007C01009709F441C0DC011296ED91FC9125
:1049F000139793818281981B858198238481891BD9
:104A00008617A8F1662341F1842F952FDC016150B0
:104A1000462F50E04F5F5F4F480F591FE701EA8173
:104A2000FB81938182812581981B92238481981731
:104A300079F08C91938126952923608171818B0176
:104A4000020F111DE80188839F5F8581982393835E
:104A50001196A417B50711F7D701ED91FC91359781
:104A600080818062808380E003C081E001C082E0B9
:104A7000DF91CF911F910F91FF90EF9008950097D4
:104A8000D1F0DC011496ED91FC9115979381828110
:104A9000981799F09281858186958923A081B181AB
:104AA000A80FB11D8C91DB018C939F5F85819823AA
:104AB000928380E0089581E0089583E008951F9235
:104AC0000F920FB60F9211240BB60F922F933F93B4
:104AD0004F935F936F937F938F939F93AF93BF9306
:104AE000CF93DF93EF93FF93A0919E18B0919F18FF
:104AF000109711F16091C6001496ED91FC911597F5
:104B0000938182812581981B92238481981761F07B
:104B1000838126952823C081D181C20FD11D68834E
:104B20008F5F9581892383831696ED91FC9117976A
:104B3000309711F0CD011995FF91EF91DF91CF9151
:104B4000BF91AF919F918F917F916F915F914F91A5
:104B50003F912F910F900BBE0F900FBE0F901F90A3
:104B600018951F920F920FB60F9211240BB60F9249
:104B70002F938F939F93AF93BF93EF93FF93E09106
:104B80009E18F0919F183097B9F00280F381E02DC4
:104B9000938182819817B1F092818581282F269583
:104BA0002923A081B181A20FB11D2C919F5F892380
:104BB00082832093C6000BC0E1ECF0E080818F7D02
:104BC000808305C0E1ECF0E080818F7D8083FF91E0
:104BD000EF91BF91AF919F918F912F910F900BBE4D
:104BE0000F900FBE0F901F9018951F920F920FB647
:104BF0000F9211240BB60F922F933F934F935F9315
:104C00006F937F938F939F93AF93BF93CF93DF93D4
:104C1000EF93FF93A091A018B091A118109711F1F4
:104C20006091CE001496ED91FC911597938182814D
:104C30002581981B92238481981761F083812695A2
:104C40002823C081D181C20FD11D68838F5F9581D8
:104C5000892383831696ED91FC911797309711F075
:104C6000CD011995FF91EF91DF91CF91BF91AF9158
:104C70009F918F917F916F915F914F913F912F9174
:104C80000F900BBE0F900FBE0F901F9018951F92A4
:104C90000F920FB60F9211240BB60F922F938F9392
:104CA0009F93AF93BF93EF93FF93E091A018F09180
:104CB000A1183097B9F00280F381E02D93818281B1
:104CC0009817B1F092818581282F26952923A081FC
:104CD000B181A20FB11D2C919F5F89238283209304
:104CE000CE000BC0E9ECF0E080818F7D808305C0B1
:104CF000E9ECF0E080818F7D8083FF91EF91BF919F
:104D0000AF919F918F912F910F900BBE0F900FBE7F
:104D10000F901F9018951F920F920FB60F921124AB
:104D20000BB60F922F933F934F935F936F937F93A5
:104D30008F939F93AF93BF93CF93DF93EF93FF93A3
:104D4000A091A218B091A318109711F16091D6000C
:104D50001496ED91FC911597938182812581981B82
:104D600092238481981761F0838126952823C0813E
:104D7000D181C20FD11D68838F5F95818923838381
:104D80001696ED91FC911797309711F0CD0119957A
:104D9000FF91EF91DF91CF91BF91AF919F918F9153
:104DA0007F916F915F914F913F912F910F900BBE2B
:104DB0000F900FBE0F901F9018951F920F920FB675
:104DC0000F9211240BB60F922F938F939F93AF9353
:104DD000BF93EF93FF93E091A218F091A31830973F
:104DE000B9F00280F381E02D938182819817B1F0B0
:104DF00092818581282F26952923A081B181A20F38
:104E0000B11D2C919F5F892382832093D6000BC014
:104E1000E1EDF0E080818F7D808305C0E1EDF0E081
:104E200080818F7D8083FF91EF91BF91AF919F91A2
:104E30008F912F910F900BBE0F900FBE0F901F9070
:104E400018951F920F920FB60F9211240BB60F9266
:104E50002F933F934F935F936F937F938F939F9382
:104E6000AF93BF93CF93DF93EF93FF93A091A418D9
:104E7000B091A518109711F1609136011496ED913B
:104E8000FC911597938182812581981B92238481BF
:104E9000981761F0838126952823C081D181C20FA4
:104EA000D11D68838F5F9581892383831696ED9149
:104EB000FC911797309711F0CD011995FF91EF9163
:104EC000DF91CF91BF91AF919F918F917F916F9122
:104ED0005F914F913F912F910F900BBE0F900FBE9E
:104EE0000F901F9018951F920F920FB60F921124DA
:104EF0000BB60F922F938F939F93AF93BF93EF9324
:104F0000FF93E091A418F091A5183097B9F00280B2
:104F1000F381E02D938182819817B1F09281858190
:104F2000282F26952923A081B181A20FB11D2C9194
:104F30009F5F89238283209336010BC0E1E3F1E078
:104F400080818F7D808305C0E1E3F1E080818F7DEA
:104F50008083FF91EF91BF91AF919F918F912F919E
:104F60000F900BBE0F900FBE0F901F901895CF9310
:104F7000DF931F92CDB7DEB7BE016F5F7F4F809189
:104F8000A6189091A7187BDD8111F6CF898190E05A
:104F90000F90DF91CF910895682F8091A61890917E
:104FA000A718EDDC80E090E008958F929F92AF9279
:104FB000CF92EF920F93812C912C6894AA24A7F89A
:104FC0006894CC24C7F8E12C00E023E040E051EEE7
:104FD00060E070E032DC9093A7188093A618EFE4AD
:104FE000F9E183E192E091838083938382830F913F
:104FF000EF90CF90AF909F908F90089590E0FC013C
:10500000EE0FFF1FE80FF91FEE0FFF1FE855F74ED9
:10501000238121111FC09C01220F331FF901E80FCA
:10502000F91FEE0FFF1FE855F74EA081B1814C919B
:10503000F901E80FF91FEE0FFF1FE855F74E81E069
:1050400090E0028002C0880F991F0A94E2F7842B37
:105050008C930895FC01EE0FFF1FDF01A80FB91F0D
:10506000AA0FBB1FA855B74E0D90BC91A02D2C9137
:10507000E80FF91FEE0FFF1FE855F74E81E090E0B3
:10508000028002C0880F991F0A94E2F7809582235C
:105090008C93089590E0FC01EE0FFF1FE80FF91FBD
:1050A000EE0FFF1FE855F74E2381211120C09C0110
:1050B000220F331FF901E80FF91FEE0FFF1FE8550C
:1050C000F74EA081B1814C91F901E80FF91FEE0F65
:1050D000FF1FE855F74E81E090E0028002C0880F84
:1050E000991F0A94E2F7809584238C930895FC011C
:1050F000EE0FFF1FDF01A80FB91FAA0FBB1FA85596
:10510000B74E0D90BC91A02D2C91E80FF91FEE0F1A
:10511000FF1FE855F74E81E090E0028002C0880F43
:10512000991F0A94E2F7822B8C930895CC24C394A0
:10513000D12C6894BB24B2F8C8EAD8E110E08C8185
:10514000813081F018F1823061F5E881F9812081A8
:10515000C6010A8002C0880F991F0A94E2F78227CD
:1051600080831FC08D818F5F8A3010F48D8319C0BA
:105170001D82E881F9812081C6010A8002C0880F62
:10518000991F0A94E2F7822780830BC00D810023C8
:1051900029F0812F7FDF01500D8303C0BC82812F56
:1051A0002DDF1F5F2696143051F665E070E080E039
:1051B00090E00E945310C0CFEF92FF920F931F9385
:1051C000CF93DF93082F80E487B9C8EAD8E10F2E88
:1051D000F8E2EF2EF12CF02DF982E88286E08A8346
:1051E0001B8214E01C8380E009DF80E887B9FF821E
:1051F000EE8287E0888719861A8781E0FFDE80E2E9
:1052000083BB84E390E09D878C8785E08E871F8633
:10521000188B82E0F3DE80E18093010182E091E06F
:105220009B8B8A8B1C8B1D8A1E8B83E0E7DEE12C17
:10523000F12C20E030E040EC50E066EB78E086E9CD
:1052400098E20E944E0DDF91CF911F910F91FF9038
:10525000EF900895CF93DF9390E0FC01EE0FFF1FD6
:10526000DF01A80FB91FAA0FBB1FA855B74ECD91DC
:10527000DC911197488121E030E012960C90129752
:1052800002C0220F331F0A94E2F724272883FD016E
:1052900081E08483DF91CF910895CF93DF9390E0F5
:1052A000FC01EE0FFF1FDF01A80FB91FAA0FBB1FE4
:1052B000A855B74ECD91DC911197488121E030E09F
:1052C00012960C90129702C0220F331F0A94E2F735
:1052D00024272883FD0182E08483DF91CF91089504
:1052E000282F30E0F901EE0FFF1FE20FF31FEE0F42
:1052F000FF1FE855F74E93E09483CCCE0895282FF6
:1053000030E0F901EE0FFF1FE20FF31FEE0FFF1F5A
:10531000E855F74E94E0948371CE089590E0FC0137
:10532000EE0FFF1FDF01A80FB91FAA0FBB1FA85563
:10533000B74E24E015962C931597FD01148208951D
:1053400090E0FC01EE0FFF1FDF01A80FB91FAA0FAD
:10535000BB1FA855B74E21E015962C931597FD015C
:10536000148208958091CE1881110CC08CE0809336
:10537000B8008FEF8093BB0084E08093BC0081E095
:105380008093CE180895AF92BF92CF92DF92EF92A2
:10539000FF920F931F93CF93DF93A82EB62E690130
:1053A0007A0184E090E0A0D3EC01892B61F1A8821E
:1053B00081E0B81212C0C701B60120EA36E841E028
:1053C00050E04ED3DA01C9014097A109B109B69561
:1053D000A79597958795898311C0C701B60120E8E5
:1053E0003AE146E050E03CD3DA01C9014097A10917
:1053F000B109B695A7959795879589831B830A83ED
:105400008C2F9D2F02C080E090E0DF91CF911F9103
:105410000F91FF90EF90DF90CF90BF90AF900895E5
:105420008091BC0081700895FF920F931F93CF93DA
:10543000DF930097D1F14A30D0F5F42E8B01EC01C7
:10544000EFDF811136C08091C1189091C218C81742
:10545000D90741F087DF89818093B800D093C218C3
:10546000C093C11881E08F0D8093C3188881880F85
:105470008093C418FF2089F0F801A5ECB8E14FEF44
:105480004F0D642F70E0CB010196B801680F791FB2
:1054900081918D93E617F707D9F788EF8093210262
:1054A00085EA8093BC0084E005C086E003C087E005
:1054B00001C082E0DF91CF911F910F91FF9008957D
:1054C0001F93CF93DF93009729F16B3028F5162FA8
:1054D000EC01A6DF811122C08091C1189091C21801
:1054E000C817D90741F03EDF89818093B800D09377
:1054F000C218C093C1181093C3188881880F8160A7
:105500008093C41888EF8093210285EA8093BC00C1
:1055100085E005C086E003C087E001C082E0DF913E
:10552000CF911F9108951F920F920FB60F921124E1
:105530000BB60F922F933F934F935F936F937F938D
:105540008F939F93AF93BF93EF93FF93E091B90035
:105550008E2F90E0FC013897E135F10508F075C019
:105560008827E458FF4F8F4F9DC21092C018E091DA
:10557000C0188091C318E81770F481E08E0F8093F3
:10558000C018F0E0EC53F74E80818093BB0085E8B3
:105590008093BC0072C084E98093BC008091C118E4
:1055A0009091C218DC011296ED91FC9113973097FF
:1055B00009F463C020E040E050E064E019955DC06C
:1055C000E091C01881E08E0F8093C0188091BB00DD
:1055D000F0E0EC53F74E80838091B900803411F4F1
:1055E0001092C0182091C01830E08091C31890E04C
:1055F00001972817390724F485EC8093BC003DC03F
:1056000085E88093BC0039C08091BB00E091C01850
:10561000F0E0EC53F74E808384E98093BC008091E6
:10562000C1189091C218DC011296ED91FC9113976C
:10563000309719F12091C31844EC58E165E01995B1
:105640001CC085EA8093BC0018C08091B90080938B
:10565000210284E08093BC008091C1189091C2180F
:10566000DC011296ED91FC911397309731F020E018
:1056700040E050E0609121021995FF91EF91BF91B8
:10568000AF919F918F917F916F915F914F913F91DA
:105690002F910F900BBE0F900FBE0F901F9018957B
:1056A000FC01411101C041D3842F90E09C012150A5
:1056B000310982239323892B09F037D3413808F02D
:1056C00034D3128213824483440F41504583718343
:1056D000608380E090E008955058BB27AA270ED041
:1056E00021C112D130F017D120F031F49F3F11F4D5
:1056F0001EF407C10EF4E095E7FBFDC0E92F0E9400
:105700003A1E78F3BA17620773078407950720F0EB
:1057100079F4A6F50C945C1E0EF4E0950B2EBA2FCE
:10572000A02D0B01B90190010C01CA01A0011124A7
:10573000FF27591B99F0593F50F4503E68F11A1653
:10574000F040A22F232F342F4427585FF3CF4695E4
:1057500037952795A795F0405395C9F77EF41F1606
:10576000BA0B620B730B840BBAF09150A1F0FF0FD0
:10577000BB1F661F771F881FC2F70EC0BA0F621FBC
:10578000731F841F48F4879577956795B795F795AC
:105790009E3F08F0B1CF9395880F08F09927EE0F40
:1057A0009795879508950DD0BDC0B5D048F0ACD081
:1057B00038F021F45F3F21F09EC051110C945D1E22
:1057C000A0C00E943A1E88F39923B9F35523A1F390
:1057D000951B550BBB27AA2762177307840738F060
:1057E0009F5F5F4F220F331F441FAA1FA9F334D0BE
:1057F0000E2E3AF0E0E831D091505040E695001C72
:10580000CAF72AD0FE2F28D0660F771F881FBB1F2C
:10581000261737074807AB07B0E809F0BB0B802D08
:10582000BF01FF2793585F4F32F09E3F510570F044
:1058300062C00C945D1E5F3FE4F3983ED4F38695FE
:1058400077956795B795F7959F5FC9F7880F911D75
:105850009695879597F90895E1E0660F771F881F61
:10586000BB1F621773078407BA0720F0621B730B14
:10587000840BBA0BEE1F88F7E0950895E89409C0F1
:1058800097FB3EF490958095709561957F4F8F4F73
:105890009F4F9923A9F0F92F96E9BB279395F69589
:1058A000879577956795B795F111F8CFFAF4BB0F07
:1058B00011F460FF1BC06F5F7F4F8F4F9F4F16C06B
:1058C000882311F096E911C0772321F09EE8872FF5
:1058D000762F05C0662371F096E8862F70E060E0B1
:1058E0002AF09A95660F771F881FDAF7880F96952A
:1058F000879597F9089597F99F6780E870E060E0D1
:1059000008959FEF80EC089500240A941616170658
:1059100018060906089500240A94121613061406A0
:1059200005060895092E0394000C11F4882352F003
:10593000BB0F40F4BF2B11F460FF04C06F5F7F4FBB
:105940008F4F9F4F08950CD0EDCFDEDF28F0E3DFBF
:1059500018F0952309F0CFCFD4CF11240C945D1EFD
:105960000E943A1E90F3959FC1F3950F50E0551F8A
:10597000629FF001729FBB27F00DB11D639FAA27A4
:10598000F00DB11DAA1F649F6627B00DA11D661FF3
:10599000829F2227B00DA11D621F739FB00DA11D14
:1059A000621F839FA00D611D221F749F3327A00DCE
:1059B000611D231F849F600D211D822F762F6A2F6A
:1059C00011249F57504092F0E9F088234AF0EE0FDF
:1059D000FF1FBB1F661F771F881F91505040A9F7FC
:1059E0009E3F510578F087CF0C945D1E5F3FE4F336
:1059F000983ED4F3869577956795B795F795E79593
:105A00009F5FC1F7FE2B880F911D9695879597F99B
:105A10000895AA1BBB1B51E107C0AA1FBB1FA617F5
:105A2000B70710F0A61BB70B881F991F5A95A9F747
:105A300080959095BC01CD01089597FB072E16F433
:105A4000009406D077FD08D0E4DF07FC05D03EF4D3
:105A5000909581959F4F0895709561957F4F08951A
:105A6000A1E21A2EAA1BBB1BFD010DC0AA1FBB1F62
:105A7000EE1FFF1FA217B307E407F50720F0A21BD4
:105A8000B30BE40BF50B661F771F881F991F1A9441
:105A900069F760957095809590959B01AC01BD016B
:105AA000CF010895EE0FFF1F881F8BBF0790F6915F
:105AB000E02D19940F931F93CF93DF93869F80015E
:105AC000879F100D969F100D1124C8010DD0EC0179
:105AD000009721F0A80160E070E034D1CE01DF91A1
